:020000021000EC
:10F000000000012033F10100D9F00100DBF0010024
:10F01000DDF00100DFF00100E1F001000000000080
:10F02000000000000000000000000000E3F001000C
:10F03000E5F0010000000000E7F00100E9F0010048
:10F040005D4D0200EDF00100816C02007DE20200E6
:10F05000F3F00100F5F00100F956020079B8020062
:10F06000EDE90200FDF00100FFF0010079E8020087
:10F0700003F1010005F1010007F1010009F10100B0
:10F080000BF10100E17A02000FF1010011F1010022
:10F09000217B020015F10100D987020019F101005E
:10F0A0001BF101001DF101001FF1010021F1010020
:10F0B000E1B1020025F101000000000000000000A5
:10F0C00027F1010029F101002BF101002DF10100D0
:08F0D0002FF1010031F10100F4
:10F0D800FEE7FEE7FEE7FEE7FEE7FEE7FEE7FEE700
:10F0E800FEE7FEE7FEE7FEE7FEE7FEE7FEE7FEE7F0
:10F0F800FEE7FEE7FEE7FEE7FEE7FEE7FEE7FEE7E0
:10F10800FEE7FEE7FEE7FEE7FEE7FEE7FEE7FEE7CF
:10F11800FEE7FEE7FEE7FEE7FEE7FEE7FEE7FEE7BF
:10F12800FEE7FEE7FEE7FEE7FEE70348854600F058
:10F13800CBF800F003B87047000001203749384881
:10F148000A1A02D0072291438D46364936480A1AD0
:10F1580006D00722914381F30988022282F314889A
:10F1680032483349334A00F048F833483349344A7F
:10F1780000F043F833483449344A00F03EF8344844
:10F188003449354A00F039F834483549354A00F0F1
:10F1980034F835483549364A00F02FF835483649AD
:10F1A800364A00F02AF836483649374A00F025F83A
:10F1B80036483749002200F02BF8364836490022F5
:10F1C80000F026F835483649091A082903DB0022D9
:10F1D8000260043001601F481F49884205D0026858
:10F1E800043003B4904703BCF7E700208646EC469A
:10F1F800002000212B4A9047FEE7884207D0521A88
:10F2080005D0037801300B700131013AF9D170470C
:10F21800884202D002700130FAE7704700000120EE
:10F2280000FC00200000012000000120603A0300DB
:10F23800F825002058270020B0F20100B0F20100A4
:10F248006C250300603A0300F8250020F82500200B
:10F258006C2503006C2503006C2503006C25030056
:10F268006C2503006C2503006C2503006C25030046
:10F27800603A0300C03B03005827002058270020AD
:10F28800C03B03005827002058270020582700209B
:10F2980074400020744000207C4000207C40002006
:08F2A8007C44002089270200CC
:10F2B000004870476C40002070477047024B034A7B
:10F2C0001A6000BF704700BFF82500200090D003EF
:10F2D00008B500F00DF90346002B06D0744B1B68EF
:10F2E0001B0A744A03F01F03136000F02DF9034654
:10F2F000002B02D0704B714A1A6000F041F90346AE
:10F30000002B06D06E4B1B685B0B6E4A03F00703A5
:10F31000136000F061F90346002B05D06A4BDB68EF
:10F32000694A23F08073D36000F072F90346002B22
:10F330000ED04FF080430022C3F80C214FF08043E1
:10F340000022C3F810214FF080430022C3F8382573
:10F3500000F08AF90346002B02D05C4B03221A60AE
:10F3600000F09EF90346002B0BD0594B05221A6082
:10F37000584B01221A60584B00221A60574B3F220B
:10F380001A6000F0A9F90346002B76D04FF08053A5
:10F39000534AD3F80434C2F820354FF08053504A12
:10F3A000D3F80834C2F824354FF080534C4AD3F8D0
:10F3B0000C34C2F828354FF08053494AD3F8103442
:10F3C000C2F82C354FF08053454AD3F81434C2F8B4
:10F3D00030354FF08053424AD3F81834C2F83435F0
:10F3E0004FF080533E4AD3F81C34C2F840354FF0FA
:10F3F00080533B4AD3F82034C2F844354FF0805351
:10F40000374AD3F82434C2F848354FF08053344A91
:10F41000D3F82834C2F84C354FF08053304AD3F833
:10F420002C34C2F850354FF080532D4AD3F8303485
:10F43000C2F854354FF08053294AD3F83434C2F817
:10F4400060354FF08053264AD3F83834C2F864351B
:10F450004FF08053224AD3F83C34C2F868354FF05D
:10F4600080531F4AD3F84034C2F86C354FF08053B4
:10F470001B4AD3F84434C2F8703500F049F903460A
:10F48000002B05D0174B1B68174A03F04F0313607E
:10F49000164BD3F88830154A43F47003C2F888300D
:10F4A000BFF34F8FBFF36F8FFFF708FF00BF08BD9B
:10F4B000240300104035014074C007400DF0ADBA80
:10F4C000440200103C050040F0ED00E0A0050040C3
:10F4D0001056004088560040185600401456004010
:10F4E00000C0004058020010E40E004000ED00E0B3
:10F4F000124B1B68DBB2062B1DD1114B1B6803F0AE
:10F500000F03002B17D10F4B1B6803F0F003302BB8
:10F5100001D1012310E00B4B1B6803F0F003402BDB
:10F5200001D1012308E0074B1B6803F0F003502BC7
:10F5300001D1012300E0002318467047E00F00F0DE
:10F54000E40F00F0E80F00F00A4B1B68DBB2062B5B
:10F550000DD1094B1B6803F00F03002B07D1074B9C
:10F560001B6803F0F003302B01D1012300E00023DE
:10F5700018467047E00F00F0E40F00F0E80F00F0CD
:10F58000124B1B68DBB2062B1DD1114B1B6803F01D
:10F590000F03002B17D10F4B1B6803F0F003302B28
:10F5A00001D1012310E00B4B1B6803F0F003402B4B
:10F5B00001D1012308E0074B1B6803F0F003502B37
:10F5C00001D1012300E0002318467047E00F00F04E
:10F5D000E40F00F0E80F00F00A4B1B68DBB2062BCB
:10F5E0000DD1094B1B6803F00F03002B07D1074B0C
:10F5F0001B6803F0F003302B01D1012300E000234E
:10F6000018467047E00F00F0E40F00F0E80F00F03C
:10F61000124B1B68DBB2062B1DD1114B1B6803F08C
:10F620000F03002B17D10F4B1B6803F0F003302B97
:10F6300001D1012310E00B4B1B6803F0F003402BBA
:10F6400001D1012308E0074B1B6803F0F003502BA6
:10F6500001D1012300E0002318467047E00F00F0BD
:10F66000E40F00F0E80F00F00A4B1B68DBB2062B3A
:10F670000DD1094B1B6803F00F03002B07D1074B7B
:10F680001B6803F0F003302B01D1012300E00023BD
:10F6900018467047E00F00F0E40F00F0E80F00F0AC
:10F6A0000A4B1B68DBB2062B0DD1094B1B6803F01C
:10F6B0000F03002B07D1074B1B6803F0F003302B1F
:10F6C00001D1012300E0002318467047E00F00F04D
:10F6D000E40F00F0E80F00F00A4B1B68DBB2062BCA
:10F6E0000DD1094B1B6803F00F03002B07D1074B0B
:10F6F0001B6803F0F003502B01D1012300E000232D
:10F7000018467047E00F00F0E40F00F0E80F00F03B
:10F71000124B1B68DBB2062B1DD1114B1B6803F08B
:10F720000F03002B17D10F4B1B6803F0F003302B96
:10F7300001D1012310E00B4B1B6803F0F003402BB9
:10F7400001D1012308E0074B1B6803F0F003502BA5
:10F7500001D1012300E0002318467047E00F00F0BC
:10F76000E40F00F0E80F00F082B003468DF8073098
:10F770009DF8073003F01F0206499DF907305B0929
:10F78000012000FA02F2603341F8232000BF02B0EA
:10F79000704700BF00E100E0BFF34F8F054BDB680F
:10F7A00003F4E0620349044B1343CB60BFF34F8F74
:10F7B00000BFFDE700ED00E00400FA0576DF7047CA
:10F7C00000BF18467ADF704700BF18467CDF7047DD
:10F7D00000BF18467FDF704700BF18468ADF7047BA
:10F7E00000BF18468FDF704700BF1846A8DF70477C
:10F7F00000BF1846A9DF704700BF184669DF704791
:10F8000000BF184666DF704700BF18463EDF7047EE
:10F8100000BF184608B5FFF7BFFF42F203031846C2
:10F8200008BD000084B00190244B0393019B002B82
:10F8300040D0234B1A680399019B00BF00BF00BF53
:10F8400000BF00BF00BF00BF00BF8A422FD000BF73
:10F8500000BF00BF00BF00BF00BF00BF00BF00BFB0
:10F8600000BF00BF00BF00BF00BF00BF00BF00BFA0
:10F8700000BF00BF00BF00BF00BF00BF00BF00BF90
:10F8800000BF00BF00BF00BF00BF00BF00BF00BF80
:10F8900000BF00BF00BF00BF00BF00BF00BF00BF70
:10F8A00000BF00BF00BF00BF00BF00BF00BF013BE3
:10F8B000C3D1019300BF04B0704700BF0024F4001F
:10F8C000F825002000B583B00190019B4FF47A72B7
:10F8D00002FB03F31846FFF7A5FF00BF03B05DF876
:10F8E00004FB82B003468DF807309DF80730012BEA
:10F8F00003D0022B03D0002B02E000BF00E000BFCA
:10F9000000BF02B07047000000B587B00390039BB2
:10F910001B788DF81730294A9DF8173013709DF821
:10F920001730062B42D801A252F823F049F9010002
:10F9300061F9010085F901008DF9010095F90100D7
:10F940009DF90100A5F90100039B1A791C4B1A705F
:10F95000039B5A881B4B1A801B4B00221A7029E00C
:10F960004FF47A7300934FF4FA730522642140F642
:10F97000C4100FF000F9154B01221A70124B04222B
:10F980001A7017E0104B05221A7013E00E4B01227B
:10F990001A700FE00C4B02221A700BE00A4B032284
:10F9A0001A7007E0084B06221A7003E0064B00228B
:10F9B0001A7000BF00BF07B05DF804FB5C27002091
:10F9C000582700205A2700205D2700205E270020AE
:10F9D00010B508F063F9034618460FF074FC08A34D
:10F9E000D3E900230FF010FF03460C4618462146CA
:10F9F0000FF0A1FC0346184610BD00BFAFF3008016
:10FA0000FCA9F1D24D62404082B001900091009A71
:10FA1000019B9A4205D2009A019BD31A03F1FA6323
:10FA200002E0009A019BD31A184602B0704786B0D4
:10FA30000190009100238DF81730002304931AE001
:10FA4000049BC3F105031A46019B13441B788DF8F0
:10FA50000F30049B009A13441B789DF80F209A42A4
:10FA600003D101238DF8173002E000238DF8173001
:10FA7000049B01330493049B052BE1DD9DF81730B3
:10FA8000184606B0704700B585B00190009100237C
:10FA90008DF80F3006220199009810F0ABFF034655
:10FAA000002B03D101238DF80F300DE00099019850
:10FAB000FFF7BDFF0346002B03D001238DF80F3065
:10FAC00002E000238DF80F309DF80F30184605B086
:10FAD0005DF804FB00B58DB0039002910192039B89
:10FAE0005B68099300238DF82E3004AB0C220021B3
:10FAF000184611F034FD00230A931CE0039B1A689A
:10FB00000A9B4FF48C7101FB03F313448033089379
:10FB100002990898FFF7B7FF03468DF82E309DF83D
:10FB20002E30002B04D0019B0A9A1A60012320E09A
:10FB30000A9B01330A930A9A099B9A42DEDB9DF8DD
:10FB40002E3083F00103DBB2002B05D0019B4FF078
:10FB5000FF321A6000230CE0079BB3F1FF3F03D193
:10FB600000238DF82F3002E001238DF82F309DF80F
:10FB70002F3018460DB05DF804FB00B58FB0039030
:10FB800002910192039B5B68099300238DF8323048
:10FB900000238DF8313004AB0C220021184611F0FF
:10FBA000DEFC00230B934BE000238DF82B30039BEE
:10FBB0001A680B9B4FF48C7101FB03F313440893F9
:10FBC000039B1A680B9B4FF48C7101FB03F31344E6
:10FBD000863307930299089811F016FD0346002B0F
:10FBE00002D101238DF832300299079811F00CFDF3
:10FBF0000346002B02D101238DF831309DF83130BE
:10FC0000002B03D19DF83230002B02D001238DF858
:10FC10002B3004AB03F1080204AB191D04A8012327
:10FC20000FF02CFA0346002B07D1049A059B591CB0
:10FC3000059113449DF82B201A700B9B01330B93F5
:10FC40000B9A099B9A42AFDB00230D9308E0049ABC
:10FC50000D9B13441B78002B07D10D9B01330D9393
:10FC6000059B0D9A9A42F2DB00E000BF059B0D9ABE
:10FC70009A4202D14FF0FF330D93019B0D9A1A6007
:10FC80000D9BB3F1FF3F03D100238DF8333002E029
:10FC900001238DF83330049B184610F03BFE04AB73
:10FCA0000C220021184611F05AFC9DF833301846FA
:10FCB0000FB05DF804FB000000B587B00190009123
:10FCC0000023059300238DF80F301949019811F096
:10FCD0001DF9049022E00098009B191D009B03F180
:10FCE000080204230FF0CAF90346002B0AD1009B37
:10FCF0001A68009B5B68581C009948609B0013447D
:10FD0000049A1A600A49002011F000F904909DF845
:10FD10000F30002B06D1059B01330593049B002B6C
:10FD2000D9D100E000BF059B184607B05DF804FB81
:10FD30004027030000B585B001902249019811F0D9
:10FD400063FC0346002B02D10123039334E01E49D8
:10FD5000019811F059FC0346002B02D102230393B2
:10FD60002AE01A49019811F04FFC0346002B02D1FA
:10FD70000323039320E01649019811F045FC034644
:10FD8000002B02D10423039316E01249019811F0CD
:10FD90003BFC0346002B02D1052303930CE00E49E4
:10FDA000019811F031FC0346002B02D10623039386
:10FDB00002E04FF0FF330393039B184605B05DF854
:10FDC00004FB00BF442703004C2703005427030013
:10FDD0005C2703006027030064270300F0B5ADF53E
:10FDE0008A5D83B00AAB043B18600AAB083B19601C
:10FDF0000AAB0A3B1A8000230DF58A5202F1040275
:10FE000013607EE052AB083B4FF48052002118464D
:10FE100011F0A5FB0AAB083B1B681A680DF58A5365
:10FE200003F104031B684FF48C7101FB03F31344CB
:10FE30000AAA104619464FF48C731A4611F066FB55
:10FE40000AAB93F880301A460AAB93F88130194612
:10FE50000AAB93F8823018460AAB93F883301C46FD
:10FE60000AAB93F884301D460AAB93F885301E46E2
:10FE70000AAB059604950394029001910092294AD9
:10FE80000021002010F02EFF03460DF58A5213606A
:10FE90000AAB93F880301F460AAB93F881301946BD
:10FEA0000AAB93F882301C460AAB93F883301D46A8
:10FEB0000AAB93F884301E460AAB93F885300AAA41
:10FEC00052A80838049303960295019400913B468A
:10FED000144910F01BFF0DF58A531B689AB252A902
:10FEE00008390AAB043B186804F02AFE0DF58A5362
:10FEF00003F104031B6801330DF58A5202F1040279
:10FF000013600AAB0A3B1B880DF58A5202F104020A
:10FF100012689A42FFF676AF00BF0DF58A5D03B016
:10FF2000F0BD00BF6C27030000B5ADF5815D81B069
:10FF300008AB0C3B186008AB103B196008AB113BD9
:10FF40001A7000230DF5805202F11C02136008ABF9
:10FF5000043B4FF480520021184611F000FB08AB1F
:10FF6000113B1B78002B01D01A4A00E01A4A08AB5B
:10FF7000103B00921B68194A0021002010F0B2FECD
:10FF800003460DF5805202F11C02136008AB113BD1
:10FF90001B78002B01D00F4B00E00F4B08AA103A42
:10FFA00008A8043812680D4910F0B0FE0DF5805312
:10FFB00003F11C031B689AB208A9043908AB0C3B77
:10FFC000186804F0BDFD00BF0DF5815D01B05DF85E
:10FFD00004FB00BFA0270300A8270300B0270300ED
:10FFE00000B5ADF5805D85B004AB0C3B18600A46EA
:10FFF00004AB0D3B1A7000230DF5805202F10C0288
:020000022000DC
:10000000136004AB043B4FF480520021184611F0FA
:10001000A6FA04AB0D3B1B78002B01D0174B00E078
:10002000174B184A0021002010F05CFE03460DF526
:10003000805202F10C02136004AB0D3B1B78002BC5
:1000400001D00E4A00E00E4A04AB043B0D491846AD
:1000500010F05CFE0DF5805303F10C031B689AB29F
:1000600004A9043904AB0C3B186804F069FD00BF17
:100070000DF5805D05B05DF804FB00BFA02703000F
:10008000A8270300D427030000B5ADF5805D85B037
:1000900004AB0C3B18600A4604AB0D3B1A700023FE
:1000A0000DF5805202F10C02136004AB043B4FF4D7
:1000B00080520021184611F052FA04AB0D3B1B7818
:1000C000002B01D0174B00E0174B184A00210020ED
:1000D00010F008FE03460DF5805202F10C02136089
:1000E00004AB0D3B1B78002B01D00E4A00E00E4AFA
:1000F00004AB043B0D49184610F008FE0DF5805383
:1001000003F10C031B689AB204A9043904AB0C3B3D
:10011000186804F015FD00BF0DF5805D05B05DF8B1
:1001200004FB00BFA0270300A8270300EC2703005F
:1001300000B5ADF5805D87B006AB0C3B186006AB33
:10014000103B196006AB123B1A8006AB103B1B68D4
:100150005B680DF5805202F1140213600DF58053B7
:1001600003F114031B68002B20DC194B0DF58052A2
:1001700002F11002136006AB083B0DF5805202F14C
:1001800010021168184610F0C1FD0DF5805303F1FF
:100190001003186811F05FFA03469AB206A90839ED
:1001A00006AB0C3B186804F0CBFC0AE006AB123B34
:1001B0001A8806A9103906AB0C3B09681868FFF7C6
:1001C0000DFE002318460DF5805D07B05DF804FBB9
:1001D0000428030000B585B001900091019B0393B2
:1001E000009B0293039B1A68029B1B6819461046EA
:1001F00011F00AFA0346184605B05DF804FB00004A
:1002000000B58BB003900291029B099321230893C0
:100210000D4B082208990D4810F044FC05AB002254
:100220001A605A60099B059305A8074B00930823A1
:10023000089A064910F01EFA0790079B1B7918468A
:100240000BB05DF804FB00BFD501020008260020BA
:10025000F0B5ADF5885D81B0044618A81838016086
:10026000114618AA1C3A136018AB113B22461A70AB
:1002700018AB123B0A461A7018AB113B1B78152BB2
:1002800007D918AB183B1B68002B02DA072301F0D3
:1002900040B800230DF5875202F11C021360C04BD9
:1002A0001A6818AB183B1B684FF48C7101FB03F301
:1002B00013440DF5875202F11802136018AB113B7D
:1002C0001B781F2B01F2248001A252F823F000BFFB
:1002D00051030200FF0302006D040200CF0402007C
:1002E000E3060200E9060200EF060200F303020043
:1002F0005703020087030200B1030200F903020062
:10030000DB030200E7030200F50602003D080200DD
:100310004F0502001D060200C9060200AF060200DA
:1003200011130200111302009D0B0200AD0902001F
:10033000B10D0200070C02002F0D0200F90E0200A1
:100340002910020079110200491202009F120200D6
:10035000002300F0DEBF934B00221A70924B002264
:100360001A70924B1B78002B14BF01230023DBB2C1
:1003700083F00103DBB203F00103DAB28B4B1A7096
:10038000002300F0C6BF874B1B78002B14BF01234E
:100390000023DBB283F00103DBB203F00103DAB226
:1003A000804B1A70804B00221A70002300F0B1BFFE
:1003B0007C4B00221A707C4B1B78002B14BF01234E
:1003C0000023DBB283F00103DBB203F00103DAB2F6
:1003D000754B1A70002300F09CBF754B01221A70F8
:1003E000002300F096BF724B00221A70002300F029
:1003F00090BF002300F08DBF002300F08ABF38AB10
:100400000C3B4FF480520021184611F0A8F8694BBC
:100410001B881A46684B1B7800931346674A0021D5
:10042000002010F05FFC03460DF5875202F11C021C
:100430001360604B1B881A465F4B1B7838A80C383A
:100440005E4910F063FC0DF5875303F11C031B6834
:100450009AB238AB0C3B19460DF5885303F11803DB
:10046000186804F06DFB002300F053BF38AB0C3B61
:100470004FF480520021184611F071F8504B1B7850
:10048000504A0021002010F02DFC03460DF5875244
:1004900002F11C0213604A4B1B781A4638AB0C3B26
:1004A0004849184610F032FC0DF5875303F11C0340
:1004B0001B689AB238AB0C3B19460DF5885303F113
:1004C0001803186804F03CFB002300F022BF38AB8F
:1004D0000C3B4FF480520021184611F040F8354B88
:1004E0001B881946344B1B781A46354B1B780193F1
:1004F00000920B46344A0021002010F0F3FB034623
:100500000DF5875202F11C0213602A4B1B881A4614
:10051000294B1B7819462A4B1B7838A80C380093B6
:100520000B46294910F0F2FB0DF5875303F11C032C
:100530001B689AB238AB0C3B19460DF5885303F192
:100540001803186804F0FCFA002300F0E2BE38AB90
:100550000C3B4FF480520021184611F000F81B4B61
:100560001B78002B01D01A4A00E01A4A104B1B7866
:10057000002B01D0164B00E0164B00931346164A91
:100580000021002010F0AEFB03460DF5875202F16A
:100590001C0213600D4B1B78002B1FD00C4A1EE071
:1005A000642700207F270020802700208427002048
:1005B000832700205A2700205827002018280300EE
:1005C0005D27002034280300502803007E270020E8
:1005D000A0270300A82703006C2803008C4A8D4B3A
:1005E0001B78002B01D08C4B00E0894B38A80C38CD
:1005F0008A4910F08BFB0DF5875303F11C031B6830
:100600009AB238AB0C3B19460DF5885303F1180329
:10061000186804F095FA002300F07BBE38AB0C3B61
:100620004FF480520021184610F099FF7C4B1B7844
:10063000002B01D0784A00E0754A7A4B1B78002BDA
:1006400001D0754B00E0724B00931346764A0021AF
:10065000002010F047FB03460DF5875202F11C0203
:1006600013606F4B1B78002B01D06B4A00E0684A87
:100670006C4B1B78002B01D0674B00E0644B38A813
:100680000C38694910F042FB0DF5875303F11C0348
:100690001B689AB238AB0C3B19460DF5885303F131
:1006A0001803186804F04CFA002300F032BE5F4BC8
:1006B0001B7819460DF5885303F118031868FFF7E6
:1006C0008FFC002300F025BE524B1B7819460DF518
:1006D000885303F118031868FFF7D6FC002300F0D5
:1006E00018BE002300F015BE002300F012BE002348
:1006F00000F00FBE18AB123B1B78002B57D04C4BB1
:100700001B680DF5875202F11402136018AB1C3BF5
:100710000A220021186810F02FFC0DF5875303F111
:1007200010031860424A0DF5875303F110031B684C
:10073000136038AB0C3B4FF480520021184610F088
:100740000EFF0DF5875303F110031B6800930DF5A1
:10075000875303F114031B68364A0021002010F070
:10076000C1FA03460DF5875202F11C02136038A846
:100770000C380DF5875303F110031B680DF58752F4
:1007800002F1140212682B4910F0C0FA0DF58753DC
:1007900003F11C031B689AB238AB0C3B19460DF5EC
:1007A000885303F11803186804F0CAF92CE038AB39
:1007B0000C3B4FF480520021184610F0D0FE1C4B29
:1007C0001B681D4A0021002010F08CFA03460DF52D
:1007D000875202F11C021360154B1A6838AB0C3BB0
:1007E0001549184610F092FA0DF5875303F11C03D2
:1007F0001B689AB238AB0C3B19460DF5885303F1D0
:100800001803186804F09CF9002300F082BD00BFB3
:10081000A827030083270020A02703006C280300DB
:100820008227002081270020882803007E270020BF
:1008300004260020A4280300D828030018AB123B8C
:100840001B78002B6ED0564B1B680DF5875202F1BA
:100850000C02136018AB1C3B0021186810F08CFAD6
:100860000DF5875303F1080383ED000A4C4A0DF59B
:10087000875303F108031B68136038AB0C3B4FF43C
:1008800080520021184610F06AFE0DF5875303F1DF
:100890000C0318680EF065FD04460D460DF58753F0
:1008A00003F1080318680EF05CFD02460B46CDE923
:1008B0000223CDE900453B4A0021002010F012FA46
:1008C00003460DF5875202F11C0213600DF58753A4
:1008D00003F10C0318680EF044FD05460E460DF5B5
:1008E000875303F1080318680EF03BFD03460C46DE
:1008F00038A80C38CDE900342A463346294910F08F
:1009000005FA0DF5875303F11C031B689AB238AB47
:100910000C3B19460DF5885303F11803186804F0D1
:100920000FF939E038AB0C3B4FF4805200211846E8
:1009300010F015FE1A4B1B6818460EF012FD034608
:100940000C46CDE90034184A0021002010F0CAF905
:1009500003460DF5875202F11C021360104B1B6811
:1009600018460EF0FEFC03460C4638A80C381A4612
:1009700023460D4910F0CAF90DF5875303F11C0306
:100980001B689AB238AB0C3B19460DF5885303F13E
:100990001803186804F0D4F8002300F0BABC00BFB4
:1009A00000260020F42803002C29030038AB0C3B60
:1009B0004FF480520021184610F0D1FD0DF58753F9
:1009C00003F118031D680DF5875303F118031B6825
:1009D00093F880301E460DF5875303F118031B680A
:1009E00093F881301F460DF5875303F118031B68F8
:1009F00093F882300D930DF5875202F118021368B7
:100A000093F883300E930DF5875101F118010B68AF
:100A100093F884300F930DF5875101F118010B689D
:100A200093F8853010930DF5875101F118010B688B
:100A300086330DF5875101F118010A68D2F80C21AF
:100A40000DF5875101F118010968D1F808110DF56C
:100A5000875000F118000068D0F810010DF5875498
:100A600004F118042468D4F814410A9409900891F8
:100A700007920693109A05920F9A04920E9A039287
:100A80000D9B0293019700962B46C54A002100203A
:100A900010F028F903460DF5875202F11C0213608D
:100AA0000DF5875303F118031E680DF5875303F105
:100AB00018031B6893F880309C460DF5875303F1AB
:100AC00018031B6893F881301F460DF5875303F117
:100AD00018031B6893F882300D930DF5875202F1CD
:100AE0001802136893F883300E930DF5875101F1C6
:100AF00018010B6893F884300F930DF5875101F1BD
:100B000018010B6893F8853010930DF5875101F1AA
:100B100018010B6886330DF5875101F118010A6839
:100B2000D2F80C210DF5875101F118010968D1F8AF
:100B300008110DF5875000F118000068D0F8104139
:100B40000DF5875000F118000068D0F8145138A84E
:100B50000C3809950894079106920593109A04920F
:100B60000F9A03920E9A02920D9B0193009763468F
:100B700032468B4910F0CAF80DF5875303F11C0378
:100B80001B689AB238AB0C3B19460DF5885303F13C
:100B90001803186803F0D4FF0023BAE338AB0C3B0A
:100BA0004FF480520021184610F0D9FC0DF5875300
:100BB00003F118031B687B4A0021002010F092F813
:100BC00003460DF5875202F11C0213600DF58753A1
:100BD00003F118031A6838AB0C3B7249184610F041
:100BE00095F80DF5875303F11C031B689AB238ABD7
:100BF0000C3B19460DF5885303F11803186803F0F0
:100C00009FFF002385E338AB0C3B4FF4805200215B
:100C1000184610F0A4FC0DF5875303F118031B6868
:100C200093F880301D460DF5875303F118031B68B8
:100C300093F881301A460DF5875303F118031B68AA
:100C400093F8823019460DF5875303F118031B689A
:100C500093F8833018460DF5875303F118031B688A
:100C600093F884301C460DF5875303F118031B6875
:100C700093F88530049303940290019100922B46DF
:100C8000494A0021002010F02DF803460DF5875247
:100C900002F11C0213600DF5875303F118031B6862
:100CA00093F880301D460DF5875303F118031B6838
:100CB00093F881301E460DF5875303F118031B6826
:100CC00093F882301A460DF5875303F118031B6819
:100CD00093F8833019460DF5875303F118031B6809
:100CE00093F884301C460DF5875303F118031B68F5
:100CF00093F8853038A80C38039302940191009240
:100D000033462A46284910F001F80DF5875303F1C0
:100D10001C031B689AB238AB0C3B19460DF588537F
:100D200003F11803186803F00BFF0023F1E238AB5E
:100D30000C3B4FF480520021184610F010FC0DF5CA
:100D4000875303F118031B68D3F80C31174A0021AD
:100D500000200FF0C7FF03460DF5875202F11C0279
:100D600013600DF5875303F118031B68D3F80C21AA
:100D700038AB0C3B0D4918460FF0C8FF0DF58753F3
:100D800003F11C031B689AB238AB0C3B19460DF5F6
:100D9000885303F11803186803F0D2FE0023B8E269
:100DA00044290300882903009C290300CC2903005F
:100DB00018AB123B1B78002B66D018AB0C3B802283
:100DC0000021184610F0CBFB0DF5875303F11803F3
:100DD0001B6803F1860218AB0C3B1146184610F055
:100DE000F1FB0DF5875303F118031B68863380224E
:100DF0000021184610F0B3FB0DF5875303F11803DB
:100E00001B6803F1860218AB1C3B1968104610F0F2
:100E1000D9FB38AB0C3B4FF480520021184610F040
:100E20009EFB0DF5875303F118031B6803F186023F
:100E300018AB0C3B0092C94A002100200FF052FF72
:100E400003460DF5875202F11C0213600DF587531E
:100E500003F118031B68863318AA0C3A38A80C381B
:100E6000BE490FF053FF0DF5875303F11C031B68B8
:100E70009AB238AB0C3B19460DF5885303F11803B1
:100E8000186803F05DFE35E038AB0C3B4FF4805240
:100E90000021184610F063FB0DF5875303F118038A
:100EA0001B688633AE4A002100200FF01BFF03466B
:100EB0000DF5875202F11C0213600DF5875303F103
:100EC00018031B6803F1860238AB0C3BA449184693
:100ED0000FF01CFF0DF5875303F11C031B689AB23A
:100EE00038AB0C3B19460DF5885303F1180318680D
:100EF00003F026FE00230CE218AB123B1B78002BFC
:100F000059D00DF5875303F118031B68D3F8083146
:100F10000DF5875202F10402136018AB1C3B0A2244
:100F20000021186810F028F80DF5875318600DF5AA
:100F3000875303F118031B680DF587521268C3F835
:100F4000082138AB0C3B4FF480520021184610F0BA
:100F500006FB0DF587531B6800930DF5875303F1CE
:100F600004031B687F4A002100200FF0BBFE0346EC
:100F70000DF5875202F11C02136038A80C380DF5EC
:100F800087531B680DF5875202F1040212687549F8
:100F90000FF0BCFE0DF5875303F11C031B689AB2DA
:100FA00038AB0C3B19460DF5885303F1180318684C
:100FB00003F0C6FD36E038AB0C3B4FF48052002105
:100FC000184610F0CCFA0DF5875303F118031B688F
:100FD000D3F80831644A002100200FF083FE034655
:100FE0000DF5875202F11C0213600DF5875303F1D2
:100FF00018031B68D3F8082138AB0C3B5A49184634
:101000000FF084FE0DF5875303F11C031B689AB2A1
:1010100038AB0C3B19460DF5885303F118031868DB
:1010200003F08EFD002374E118AB123B1B78002BFC
:1010300057D04E4B1B680DF5865202F11C0213600F
:1010400018AB1C3B0A22002118680FF095FF0DF524
:10105000865303F118031860444A0DF5865303F1D3
:1010600018031B68136038AB0C3B4FF4805200210F
:10107000184610F074FA0DF5865303F118031B6837
:1010800000930DF5865303F11C031B68384A0021B9
:1010900000200FF027FE03460DF5875202F11C02D7
:1010A000136038A80C380DF5865303F118031B683C
:1010B0000DF5865202F11C0212682D490FF026FE32
:1010C0000DF5875303F11C031B689AB238AB0C3B38
:1010D00019460DF5885303F11803186803F030FD25
:1010E00039E0224B1B680DF5865202F114021360A1
:1010F00038AB0C3B4FF480520021184610F02FFA09
:101100000DF5865303F114031B681A4A00210020D1
:101110000FF0E8FD03460DF5875202F11C02136043
:1011200038AB0C3B0DF5865202F1140212681149DE
:1011300018460FF0EBFD0DF5875303F11C031B68F8
:101140009AB238AB0C3B19460DF5885303F11803DE
:10115000186803F0F5FC0023DBE000BFE029030082
:10116000202A0300382A03007C2A0300FC250020E3
:10117000982A0300E02A030018AB123B1B78002BCF
:1011800029D038AB0C3B4FF480520021184610F0A8
:10119000E6F9624A002100200FF0A4FD03460DF598
:1011A000875202F11C02136038AB0C3B5B491846B6
:1011B0000FF0ACFD0DF5875303F11C031B689AB2C9
:1011C00038AB0C3B19460DF5885303F1180318682A
:1011D00003F0B6FC36E038AB0C3B4FF480520021F4
:1011E000184610F0BCF90DF5875303F118031B687E
:1011F000D3F810314A4A002100200FF073FD034656
:101200000DF5875202F11C0213600DF5875303F1AF
:1012100018031B68D3F8102138AB0C3B4049184623
:101220000FF074FD0DF5875303F11C031B689AB290
:1012300038AB0C3B19460DF5885303F118031868B9
:1012400003F07EFC002364E038AB0C3B4FF480528B
:101250000021184610F083F9324A002100200FF0D7
:1012600041FD03460DF5875202F11C02136038ABB5
:101270000C3B2C4918460FF049FD0DF5875303F13F
:101280001C031B689AB238AB0C3B19460DF588530A
:1012900003F11803186803F053FC002339E038AB5E
:1012A0000C3B4FF480520021184610F058F90DF510
:1012B000875303F118031B68D3F814311A4A00212D
:1012C00000200FF00FFD03460DF5875202F11C02BE
:1012D00013600DF5875303F118031B68D3F814212D
:1012E00038AB0C3B104918460FF010FD0DF5875335
:1012F00003F11C031B689AB238AB0C3B19460DF581
:10130000885303F11803186803F01AFC002300E067
:10131000002318460DF5885D01B0F0BD002B0300D9
:101320005C2B0300CC2B0300F02B030000B5ADF5C4
:101330008B5D83B00AAB1C3B186002AB19606FF089
:1013400001030DF58B5202F10402136000230DF529
:101350008A5202F11B02137000230DF58A5202F12A
:101360001A02137000230DF58B5202F10302137061
:1013700052AB4FF480520021184610F0F0F852ABF7
:10138000083B06220021184610F0E9F852AB143B46
:101390000C220021184610F0E2F852AB143B02AACE
:1013A00019461068FEF788FC0DF58A5303F1140303
:1013B000186052AB143B1B681B681846FEF7BAFC5A
:1013C0000DF58A5303F1100318600DF58A5303F1EC
:1013D00010031B68002B0EDA52AB143B1B68184637
:1013E0000FF098FA52AB143B0C220021184610F073
:1013F000B6F80B23E5E10DF58A5303F110031B68E2
:10140000032B17D17A4B1B689AB20AAB1C3B794964
:101410001868FEF78DFE52AB143B1B6818460FF0A0
:1014200079FA52AB143B0C220021184610F097F8C1
:101430000023C6E10DF58A5303F110031B68012B4D
:1014400006D00DF58A5303F110031B68022B4AD115
:1014500052AB143B1B6804331A6852AB1146184652
:1014600010F0B0F800230DF58A5202F11C0213604F
:1014700031E052AB143B1A680DF58A5303F11C039B
:101480001B6802339B0013441B681022002118467E
:101490000FF072FD03460DF58A5202F10E02138021
:1014A0000DF58A5303F10E031B88D9B252AB083BEA
:1014B0000DF58A5202F11C02126813440A461A7092
:1014C0000DF58A5303F11C031B6801330DF58A5295
:1014D00002F11C0213600DF58A5303F11C031B6813
:1014E000052BC6DD69E00DF58A5303F110031B6877
:1014F000042B06D00DF58A5303F110031B68052B4E
:101500005BD152AB143B1B6804331A680AAB1C3B1B
:1015100011461868FEF774FE03460DF58B5202F172
:10152000030213700DF58B5303F103031B78152B86
:1015300043D952AB143B1B680833196852AB183BB4
:101540001A462C48FEF719FB0346002B08D052AB75
:10155000183B1B680DF58B5202F1040213602CE05E
:1015600052AB143B1B680833196852AB1C3B1A463C
:101570002048FEF7AFFA0346002B08D052AB1C3BC5
:101580001B680DF58B5202F10402136015E04FF059
:10159000FF330DF58B5202F10402136052AB143B82
:1015A0001B6818460FF0B6F952AB143B0C22002111
:1015B00018460FF0D4FF072303E10DF58A5303F11A
:1015C00010031B68042B19D10DF58B5303F1030392
:1015D00018780AAB1C3B1B680093074B00220DF5E3
:1015E0008B5101F104010968FEF732FE24E000BFCF
:1015F0007427002064270020082C03000DF58A536F
:1016000003F110031B68052B16D152AB143B1B686A
:101610000C331A680DF58B5303F1030318780AABEA
:101620001C3B1B680093134601220DF58B5101F101
:1016300004010968FEF70CFE0DF58A5303F110034F
:101640001B68012B6CD10AAB143B4FF48C72002148
:1016500018460FF084FF52AA0AAB143B11461846F5
:101660000FF0B0FF52AB083B1A780AAB143B83F87B
:10167000802052AB083B5A780AAB143B83F8812098
:1016800052AB083B9A780AAB143B83F8822052ABEA
:10169000083BDA780AAB143B83F8832052AB083B53
:1016A0001A790AAB143B83F8842052AB083B5A7971
:1016B0000AAB143B83F885200AAB143B6FF045025C
:1016C000C3F808210AAB143B2322C3F8102152AA05
:1016D0000AAB143B8633114618460FF073FF002304
:1016E00000934FF48C733A4A3A493B480DF02CFD75
:1016F0000346002B0AD1384B1A680AAB143B10463C
:1017000019464FF48C731A460FF000FF324B5B689A
:101710000133314A5360304B5B68304A136042E01A
:101720000DF58A5303F110031B68022B3BD10023F4
:101730000DF58A5202F1080213600DF58A5202F18A
:10174000080252AB083B19462348FEF7C3F903468B
:101750000DF58A5202F10D0213700DF58A5303F153
:101760000D031B78002B1AD00DF58A5303F10803E3
:101770001B680122019200934FF48C73144A15499F
:1017800015480DF011FD144B5B68013B124A536084
:101790004FF48C730E4A0F490F480DF0A0FC0E4B0E
:1017A0005B680E4A136052AB143B1B6818460FF07F
:1017B000B1F852AB143B0C22002118460FF0CFFEBB
:1017C000002318460DF58B5D03B05DF804FB00BFE8
:1017D0006C27002068270020642700207427002041
:1017E00000B589B00190019B04330793079B043334
:1017F0000693079B0433234A1360224B1B68013373
:10180000214A13601F4B1B6893F90E3005931E4B42
:101810001B6802AA19461D48FEF75CF903468DF8BD
:1018200013309DF81330002B27D0184B1A68029BF9
:1018300019464FF48C7303FB01F313440393039B8A
:10184000059AC3F80C21039BD3F814315A1C039B4F
:10185000C3F814210E4B1B78002B03D005990D48BB
:1018600006F070FD0C4B01221A70039BD3F808316F
:10187000059A9A4201DB012300E00023184609B0D3
:101880005DF804FB602700207027002064270020FB
:101890007C270020102C03007D27002000B585B098
:1018A0000190019B1B78012B4BD0022B3DD0002BCC
:1018B00053D12D4B1B781A462C4B1344184606F077
:1018C00089FB294B1B780133DAB2274B1A70264B60
:1018D0001B78013B254AD35C0A2B06D0224B1B7890
:1018E0009AB2234B1B889A4239D31F4B1B789BB269
:1018F0001A461E491F4803F023F90390039B082B47
:101900000CD0039B112B09D0039B0293029B002B4D
:1019100004D0194A6721029805F0C6F9039B112BE0
:10192000E3D0114B00221A7019E01449012007F08E
:101930005DFC019B5B68104A7121184605F0B4F903
:101940000EE00E49012007F051FC019B5B680A4A3A
:101950007621184605F0A8F902E000BF00E000BFBC
:1019600000BF05B05DF804FB3028002034280020BB
:1019700014270020A0270020402C0300742503001A
:1019800030B58DB0134B04AC1D460FCD0FC495E898
:10199000030084E80300104B00934FF4807301931D
:1019A0000E4B02934FF480730393694604A80723F8
:1019B0000B4A06F0A1FA0B900B9B0A930A9B002B93
:1019C00004D0084A8E210A9805F06EF900BF0DB0C8
:1019D00030BD00BF582C0300D0280020D0290020A3
:1019E0009D180200402C030000B583B00848FDF7A5
:1019F000F5FE0190019B0093009B002B04D0054A4B
:101A00009621009805F050F900BF03B05DF804FB83
:101A1000E02C0300402C030000B589B00390029134
:101A20001346ADF8063002990398FFF77FFC069045
:101A3000002307931FE0029A079B13441B78184664
:101A400006F0E4FA069000230693069B002B0CD0C8
:101A5000069B112B09D0069B0593059B002B04D0F8
:101A6000114AFD21059805F01FF9069B112BE2D0C4
:101A7000079B01330793BDF80630079A9A42DAD3E1
:101A8000BDF80630013B029A13441B780D2B06D19A
:101A900000BF0A2006F0BAFA0346112BF9D000BFA6
:101AA00009B05DF804FB00BF402C030000B587B00F
:101AB0009DF80030012262F303038DF800309DF899
:101AC0000030012262F307138DF800301E480FF03A
:101AD000C2FD03469AB26B461B491846FDF776FED7
:101AE0000590059B0493049B002B05D0174A40F2F8
:101AF0001511049805F0D8F801AB0822002118460A
:101B00000FF02DFD1023ADF804303C23ADF8063066
:101B10000023ADF808304FF4C873ADF80A3001ABBC
:101B20001846FDF74FFE0590059B0393039B002B82
:101B300005D0064A4FF48F71039805F0B5F800BF41
:101B400007B05DF804FB00BF702C0300402C0300BD
:101B500000B585B001AB0422002118460FF0FFFC50
:101B60000B4B019301AB19460A4802F091FF039019
:101B7000039B0293029B002B05D0074A4FF49771F9
:101B8000029805F091F800BF05B05DF804FB00BFB6
:101B9000191A0200A0270020402C030000B585B0D0
:101BA0000190019B1B78002B11D10B4B1B883B2113
:101BB0001846FDF703FE0390039B0293029B002B44
:101BC00005D0064A40F24511029805F06DF800BFB5
:101BD00005B05DF804FB00BF16270020402C030071
:101BE00000B583B001900749012007F0FFFA064ACB
:101BF00040F25111019805F057F800BF03B05DF8AD
:101C000004FB00BF74250300402C030000B58BB01B
:101C100001AB1C22002118460FF0A1FC0023019308
:101C20004FF4203302934FF47023039303238DF872
:101C300010300023ADF8123000238DF814300C4B17
:101C400006930C4B079301AB184602F057F9099025
:101C5000099B0893089B002B05D0074A4FF4BA71E3
:101C6000089805F021F800BF0BB05DF804FB00BF39
:101C70009D1B0200E11B0200402C030082B00346C2
:101C80008DF807309DF80730002B01D0032B00E0C2
:101C900000BF00BF02B0704710B59AB00190019B21
:101CA00004331993C44B1B68002B03D1C34B1B682F
:101CB000C34A13600CF094FD0246C24B1A60C14B3C
:101CC0001B6818460FF04CFB0246BF4B1A60BE4B18
:101CD0001A68BB4B1B68D31A18460DF0DDFAB4A383
:101CE000D3E900230DF090FD03460C46184621462B
:101CF0000DF053FB0246B54B1A60B44BD3ED007A9E
:101D0000B7EE007AF4EEC77AF1EE10FA03DBAE4BD1
:101D10001B68AB4A1360019B1B88013B562B00F2EA
:101D2000EA8101A252F823F03D200200F7200200D0
:101D3000F7200200F7200200F7200200F72002003F
:101D4000F7200200F7200200F7200200F72002002F
:101D5000F7200200F7200200F7200200F72002001F
:101D6000F7200200851E02008F1E0200F7200200ED
:101D7000271F0200F7200200F7200200F7200200D0
:101D8000F7200200F7200200F7200200F7200200EF
:101D9000F7200200F7200200991E0200F72002003F
:101DA000F7200200F7200200511F0200F720020076
:101DB000F7200200F7200200F7200200F7200200BF
:101DC000F7200200F7200200F7200200F7200200AF
:101DD000F7200200F7200200F7200200F72002009F
:101DE000F7200200F7200200F7200200F72002008F
:101DF000F7200200F7200200F7200200F72002007F
:101E0000F7200200F7200200F7200200F72002006E
:101E1000F11F0200F7200200F7200200F720020065
:101E2000F7200200F7200200F7200200F72002004E
:101E3000F7200200F7200200F7200200F72002003E
:101E4000F7200200F7200200F7200200F72002002E
:101E5000F7200200F7200200F7200200F72002001E
:101E6000F7200200F720020063200200871F020013
:101E7000F7200200F7200200F720020017200200DE
:101E8000F7200200019B9A88514B1A8033E1504B96
:101E90004FF6FF721A802EE100238DF86330FDF7B4
:101EA00097FD17904B4B1B6817991846FDF7ACFD33
:101EB0001690169B07EE903AB8EE677ADFED466A09
:101EC000C7EE267ACDED157A424A179B1360434B35
:101ED0001B68002B20DD0198FFF782FC03468DF87C
:101EE00063309DF86330002B06D03D4B00221A6012
:101EF0003C4B01221A70EFE0394B1B680133384A22
:101F00001360374B1A68384B1B689A42C0F2E48062
:101F1000344B00221A70DFE0314B00221A60314B43
:101F200000221A70D8E02A4B18880023002285214D
:101F3000FDF750FC1490149B1393139B002B00F09F
:101F4000CD802A4A40F2C511139804F0ADFEC5E0D9
:101F50000BAB0822002118460FF001FB019B9B8868
:101F60000BA900221846FDF73DFC1490149B129318
:101F7000129B002B00F0B4801C4A4FF4E7711298BA
:101F800004F092FEACE0124B1888002300220021DE
:101F9000FDF730FC1490149B1193119B002B00F063
:101FA000A180124A4FF4EA71119804F07DFE99E085
:101FB0000000000000AAAE40D82700208C27002097
:101FC000942700209C2700209027002088270020AD
:101FD000162700209827002000007A44742700204C
:101FE00078270020DC270020FC250020402C03005F
:101FF000019B9B8813211846FDF7E0FB1490149B6E
:102000001093109B002B6FD03F4A4FF4ED71109846
:1020100004F04AFE68E0019B9B8813211846FDF7F7
:10202000CDFB1490149B0F930F9B002B5ED0364A70
:102030004FF4F0710F9804F037FE57E0019B9B8836
:1020400000211846FDF7DEFB1490149B0E930E9BA7
:10205000002B4DD02C4A4FF4F3710E9804F024FE5F
:1020600046E0019B07AC0633186859689A68DB683C
:102070000FC49DF81C30002B3CD09DF82430042B5D
:1020800007D09DF82430062B03D09DF82430052B73
:1020900030D19DF81C30022B03D102238DF80C3077
:1020A00002E001238DF80C304FF4C173ADF810300D
:1020B000019B9B8803AA11461846FDF797FB1490D5
:1020C000149B0D930D9B002B14D00F4A4FF4FD7100
:1020D0000D9804F0E9FD0DE000BF0CE000BF0AE040
:1020E00000BF08E000BF06E000BF04E000BF02E060
:1020F00000BF00E000BF054B1B680133034A1360BB
:1021000000BF1AB010BD00BF402C0300D82700202C
:1021100000B583B00190019802F022F801990A48B5
:1021200002F09AFA0199094802F084FC0198FFF73D
:10213000B3FD019801F046FE019800F097FC00BF46
:1021400003B05DF804FB00BFBC270020A0270020DF
:1021500000B58FB0554B1B68049304A80023D82208
:10216000534906F0D1FA0D900D9B0C930C9B002B5C
:1021700005D0504A40F22F210C9804F095FD002321
:10218000039303AB184606F043FB0B900B9B0A939B
:102190000A9B002B05D0474A4FF40D710A9804F0B2
:1021A00083FD6B460C22002118460FF0D8F901235D
:1021B0008DF8003000238DF8013000238DF80230B7
:1021C000039A6B4619464020FDF718FB0B900B9BBA
:1021D0000993099B002B05D0364A40F23F2109980C
:1021E00004F062FD6B460C22002118460FF0B7F98F
:1021F00001238DF800309E23ADF80230039A6B4620
:1022000019462320FDF7FAFA0B900B9B0893089BC5
:10221000002B05D0274A40F24621089804F044FDDF
:102220006B460C22002118460FF099F901238DF816
:1022300000304FF4A073ADF8043001238DF8023064
:10224000039A6B4619462020FDF7D8FA0B900B9B9A
:102250000793079B002B05D0164A40F24E210798A2
:1022600004F022FD03AB184606F0E2FA0B900B9B3C
:102270000693069B002B05D00E4A40F25221069889
:1022800004F012FD0C4806F097FA0B900B9B059397
:10229000059B002B05D0074A40F25621059804F013
:1022A00003FD00BF0FB05DF804FB00BF7C2C0300F2
:1022B000D02A0020402C03001121020082B001909E
:1022C0000091009B5A88094B1B889A420BD1009BB6
:1022D0001B8840F67722934205D1009B9B88033BE5
:1022E0009AB2034B1A8000BF02B070471627002035
:1022F0001427002000B585B01149124802F065F995
:102300000390039B0293029B002B05D00E4A4FF4CF
:102310002571029804F0C8FC80210A4802F080F977
:102320000390039B0193019B002B05D0064A40F2CA
:102330009721019804F0B8FC00BF05B05DF804FBDC
:10234000BD220200BC270020402C030000B5ABB02A
:1023500019AB3C22002118460FF001F902238DF839
:10236000643000238DF8663005238DF867300AABA2
:102370003C22002118460FF0F2F80123ADF8383066
:10238000144B0F9302AB2022002118460FF0E7F800
:1023900001238DF80B3040230693B423079302AA40
:1023A0000AA919A8002300930B4B01F01DFB2990EB
:1023B000299B2893289B002B05D0084A4FF42D71A8
:1023C000289804F071FC012001F000FB00BF2BB045
:1023D0005DF804FB102700207D1C0200402C030048
:1023E00000B583B0FFF7B4FEFFF760FBFFF782FF95
:1023F000FFF7AEFBFFF7AAFFFFF708FC032001F091
:10240000F7FB0190019B0093009B002B05D0064A2F
:1024100040F2C321009804F047FCFFF7E5FA019B66
:10242000184603B05DF804FB402C030000000000D8
:1024300010B584B001900B468DF803302A4B1B6811
:10244000002B03D0284B1B68022B0BDD0CF0C8F9C6
:10245000034618460EF084FF0246244B1A60224BB6
:1024600000221A60204B1B6801331F4A13600CF0D6
:10247000B7F902461E4B1A601D4B1B6818460EF03A
:102480006FFF02461B4B1A601A4B1A68174B1B68EA
:10249000D31A18460CF000FF11A3D3E900230DF066
:1024A000B3F903460C46184621460CF076FF034666
:1024B0000393DDED037AB1EE047AF4EEC77AF1EE20
:1024C00010FA00DA09E00C49012006F08FFE4FF403
:1024D0007A70FDF7F7F9FDF79DF900BF04B010BD64
:1024E0000000000000AAAE40202800202428002080
:1024F000282800202C2800206C25030000B585B07A
:1025000002F0D8FF0390039B0293029B002B04D0A0
:10251000124A4921029804F0C7FB114B1B68009333
:1025200003238DF801300B2318466B460D4A1946DC
:1025300003F014F80390039B0193019B002B04D03C
:10254000064A4F21019804F0AFFB0B2301211846E6
:1025500003F05EF800BF05B05DF804FB802C0300BB
:10256000CC2C03003124020000B587B0F1EE103A04
:102570000193019B23F09F030293029BE1EE103A2B
:10258000F1EE103A03932620FDF7EEF8FDF73EF941
:102590000590059B0493049B002B04D0044A5A2108
:1025A000049804F081FB00BF07B05DF804FB00BF96
:1025B000802C030000B583B000230193019B00939E
:1025C000009B002B04D0044A7221009804F06CFB9D
:1025D00000BF03B05DF804FB802C030000B583B09E
:1025E0000123264918460AF08DF80190234B1B68F9
:1025F000002B0CBF01230023DBB21A4620492148DF
:10260000FDF792FC0023204918460AF07BF8019060
:102610001D4B1B68002B0CBF01230023DBB21A46A5
:102620001A491848FDF780FC144B1B68002B21D079
:10263000174B1B68009317489DED000A0CF0B8FC7F
:102640000FE0154B1B78002B0FD1144B1B78002B80
:102650000BD10123094918460AF054F8019004F0FF
:102660008BFC064B1B68002BEBD10A489FED0C0A34
:102670000CF09EFC00BF03B05DF804FB182800209E
:10268000D02C0300A02700201C280020D82C0300F9
:1026900000260020E02700207F270020842700203C
:1026A0000000000010B582B000232D4918460AF042
:1026B00029F801902A4B1B68002B0CBF0123002333
:1026C000DBB21A4627492848FDF72EFC012327498B
:1026D00018460AF017F80190244B1B68002B0CBF1A
:1026E00001230023DBB21A4621491F48FDF71CFCD9
:1026F0001B4B1B68002B30D01E4B1B6818460CF080
:1027000030FE03460C46184621460CF046FE0346B2
:1027100007EE903AF1EE677ACDED007A16489DED1E
:10272000000A0CF045FC0FE000230D49184609F0A3
:10273000E9FF0190114B1B78002B09D1104B1B783E
:10274000002B05D104F018FC054B1B68002BEBD1C6
:1027500009489FED0C0A0CF02BFC00BF02B010BD25
:102760001C280020D82C0300A027002018280020B7
:10277000D02C030000260020E02700208027002026
:10278000842700200000000000B587B04B4B0022DA
:102790001A604B4B00221A604A4B1B6818460EF019
:1027A000B9F80C22002147480EF0D9FE0C22002176
:1027B00044480EF0D4FE444A3C21082004F016FBA5
:1027C0000590059B0493049B002B04D03F4AAB214A
:1027D000049804F069FA05F0A9F90390039B0293A9
:1027E000029B002B04D0394AAD21029804F05CFA18
:1027F0000BF0F6FF019001980EF0B2FD0246344B4B
:102800001A60FFF7BDF8FFF7D5FEFFF7E9FDFFF708
:1028100075FE0CF067FA022303212E4A18460CF0CD
:1028200037FB2D480CF0E7F92C4A2D492D480CF0C8
:10283000E9F801230221184609F03EFE0023022197
:10284000184609F039FE23489FED270A0CF0B0FB2B
:1028500004F092FB254B1B78002B04D02449002068
:1028600006F0C4FC03E02349002006F0BFFC224B25
:102870001B78002B02D0FFF715FF1CE01F4B1B78C5
:10288000002B02D0FFF7AAFE15E01D4B1B78002B92
:1028900005D010489FED140A0CF08AFB0BE0134B97
:1028A0001B7883F00103DBB2002B02D0FFF796FE0A
:1028B00001E0FFF7F7FEFFF757FEC9E7D827002032
:1028C0007827002064270020A82B0020802C0300FC
:1028D0008C270020E0270020E3F801000C280020CE
:1028E00009F90100A0BB0D0000000000DC2700205A
:1028F00078250300702503007F2700208027002013
:102900008427002084B001900B468DF803301346D5
:102910008DF8023000230393019B002B3CD19DF8DE
:102920000230012B0BD19DF80330012B04D1019B08
:10293000DBB20E33DBB200E000238DF802309DF8ED
:102940000330012B04D0022B0CD0002B15D01FE03C
:102950001449019A13465B0013440B449DF802206E
:102960001A701BE00F49019A13465B0013440B4495
:1029700001339DF802201A7010E00A49019A1346AB
:102980005B0013440B4402339DF802201A7005E0EB
:102990000723039300BF01E007230393039B18461B
:1029A00004B07047782F002000B583B001220021C9
:1029B0000020FFF7A7FF0190019B002B04D0019B93
:1029C000072B01D0019B1CE0072202210120FFF709
:1029D00099FF0190019B002B04D0019B072B01D094
:1029E000019B0EE0042202210020FFF78BFF0190E3
:1029F000019B002B04D0019B072B01D0019B00E021
:102A00000023184603B05DF804FB00B583B0012233
:102A100002210020FFF776FF0190019B002B04D0DC
:102A2000019B072B01D0019B1CE007220221012002
:102A3000FFF768FF0190019B002B04D0019B072B3F
:102A400001D0019B0EE00A2200210020FFF75AFF6F
:102A50000190019B002B04D0019B072B01D0019B0F
:102A600000E00023184603B05DF804FB00B585B014
:102A70000190019B1B88102B02D0112B18D02FE046
:102A8000194B1B68002B0DD1FFF78EFF0390039BA2
:102A9000002B07D0154B1B68002B03D0134B1B6872
:102AA00003989847104B1B6801330F4A136017E0D7
:102AB0000D4B1B68013B0C4A13600B4B1B68002B32
:102AC0000DD1FFF7A2FF0390039B002B07D0074B0C
:102AD0001B68002B03D0054B1B680398984700BF69
:102AE00000BF05B05DF804FB802F00207C2F002084
:102AF0006DDF704700BF184672DF704700BF184691
:102B000079DF704700BF18467DDF704700BF184669
:102B100064DF704700BF184682B003460091ADF8ED
:102B20000630BDF80630DAB2009B1A70BDF80630E8
:102B30001B0A9AB2009B0133D2B21A7002231846C4
:102B400002B0704700B589B0039002911346ADF80A
:102B50000630029B1B8803F10902BDF806309A4239
:102B600001D90C2351E005AB1846FFF7C1FF0790D0
:102B7000079B002B01D0079B47E0029B1B881A464E
:102B8000039B134408221A70029B1B8801339AB2DC
:102B9000029B1A80029B1B881A46039B13441B222C
:102BA0001A70029B1B8801339AB2029B1A80029B07
:102BB0001B881A46039B981805AB01330622194659
:102BC0000EF0A4FC029B1B8806339AB2029B1A806B
:102BD0009DF8143023F00103DBB2002B07D1029BD8
:102BE0001B881A46039B134400221A7006E0029BBE
:102BF0001B881A46039B134401221A70029B1B88F0
:102C000001339AB2029B1A800023184609B05DF87E
:102C100004FB00B589B0039002910192ADF8023037
:102C2000039B1B78012B05D1039B5B78002B01D103
:102C3000072389E0019B1B889A1CBDF802309A4249
:102C40000ED8039B1B78012B0CD1019B1B881A46C5
:102C5000039B5B7813449A1CBDF802309A4201D959
:102C60000C2371E0019B1B88BDF80220D31A9BB294
:102C7000023BADF81C30BDF81C30ADF81630019B9E
:102C80001B880233029A13440DF1160211461846AE
:102C9000FFF73AFF0690069B002B01D0069B53E0FE
:102CA000039B1B78022B09D1BDF81630BDF81C2000
:102CB0009A4203D309238DF81F3017E008238DF8BB
:102CC0001F30039B1B78012B0CD1039B5B789BB2BD
:102CD000BDF81C209A4205D3039B5B789BB2ADF8EC
:102CE000163003E0BDF81C30ADF81630BDF81630D4
:102CF000FE2B01D90C2327E0BDF81630DAB2019B78
:102D00001B881946029B0B440132D2B21A70019BF8
:102D10001B8801339AB2019B1A80019B1B881A46BB
:102D2000029B13449DF81F201A70019B1B880133DE
:102D30009AB2019B1A80019B1A88BDF81630134481
:102D40009AB2019B1A800023184609B05DF804FB73
:102D500000B587B0039002911346ADF80630029B90
:102D60001B881A1DBDF806309A4201D90C2339E0A0
:102D70000DF112031846FFF7C3FE0590059B002BCB
:102D800001D0059B2EE0029B1B881A46039B13442F
:102D900003221A70029B1B8801339AB2029B1A808D
:102DA000029B1B881A46039B134419221A70029B2C
:102DB0001B8801339AB2029B1A80BDF81220029B35
:102DC0001B881946039B0B4419461046FFF7A4FEC7
:102DD00003461946029B1A888BB213449AB2029B8F
:102DE0001A800023184607B05DF804FB84B00291F6
:102DF00001921A4603468DF80F301346ADF80C3099
:102E0000019B1B88DA1CBDF80C309A4201D90C23B7
:102E100028E0019B1B881A46029B134402221A7069
:102E2000019B1B8801339AB2019B1A80019B1B886E
:102E30001A46029B134401221A70019B1B8801331E
:102E40009AB2019B1A80019B1B881A46029B13446D
:102E50009DF80F201A70019B1B8801339AB2019BC9
:102E60001A800023184604B0704784B00291019282
:102E70001A4603468DF80F301346ADF80C30019B0F
:102E80001B88DA1CBDF80C309A4201D90C2328E0CB
:102E9000019B1B881A46029B134402221A70019B55
:102EA0001B8801339AB2019B1A80019B1B881A462A
:102EB000029B13440A221A70019B1B8801339AB2A9
:102EC000019B1A80019B1B881A46029B13449DF8A4
:102ED0000F201A70019B1B8801339AB2019B1A8044
:102EE0000023184604B0704700B58BB003900193DF
:102EF0000B468DF80B3013468DF80A3000238DF801
:102F000023300C9B1B88ADF82030002309936DE023
:102F1000039B5A68099B9B001A4404AB1068186015
:102F20000DF1170104AB00221846FFF7F1FD0790E1
:102F3000079B002B01D0079B7AE09DF817309DF886
:102F40000A209A424FD19DF82330002B01D0002354
:102F500000E002238DF81B300C9B1B881A469DF85D
:102F600017301A449DF81B301A44BDF834309A4289
:102F700001DD0C235CE09DF8233083F00103DBB21C
:102F8000002B16D00C9B1B8801339AB20C9B1A8025
:102F90000C9B1B881A46019B13449DF80B201A704A
:102FA0000C9B1B8801339AB20C9B1A8001238DF86D
:102FB00023300C9B1B881A46019B1A440DF1170104
:102FC00004AB1846FFF7A4FD0790079B002B01D028
:102FD000079B2DE00C9B1A889DF817309BB2134479
:102FE0009AB20C9B1A80099B01330993039B1B889F
:102FF0001A46099B93428BDB9DF82330002B16D099
:103000000C9B1A88BDF82030D31A9BB2013BADF857
:103010001830BDF81830FF2B01D90C2308E0BDF89B
:103020002030019A1344BDF81820D2B21A70002340
:1030300018460BB05DF804FB00B589B0059003930A
:103040000B468DF8133013468DF812309DF813108F
:10305000BDF82C3001930A9B0093039B0222059834
:10306000FFF742FF0790079B002B01D0079B12E060
:103070009DF81210BDF82C3001930A9B0093039B1E
:1030800010220598FFF730FF0790079B002B01D017
:10309000079B00E00023184609B05DF804FB82B0EE
:1030A0000190019B1B88052B0AD9019B1B88B3F556
:1030B000486F07D9019B1B884FF6FF72934201D0DE
:1030C000072325E0019B5B88052B0AD9019B5B88C0
:1030D000B3F5486F07D9019B5B884FF6FF729342A7
:1030E00001D0072314E0019B1B884FF6FF72934227
:1030F0000DD0019B5B884FF6FF72934207D0019B76
:103100001A88019B5B889A4201D9072300E00023BB
:10311000184602B0704700B587B003900291019243
:10312000ADF80230019B1B889A1DBDF802309A420F
:1031300001D90C234BE00398FFF7B1FF0590059BE5
:10314000002B01D0059B42E0019B1B881A46029B85
:10315000134405221A70019B1B8801339AB2019B0C
:103160001A80019B1B881A46029B134412221A7074
:10317000019B1B8801339AB2019B1A80039B1A881A
:10318000019B1B881946029B0B4419461046FFF70A
:10319000C3FC03461946019B1A888BB213449AB2AA
:1031A000019B1A80039B5A88019B1B881946029B2E
:1031B0000B4419461046FFF7AFFC03461946019B26
:1031C0001A888BB213449AB2019B1A8000231846C6
:1031D00007B05DF804FB00B587B00390029101923F
:1031E000ADF80230039B9B8802330593019B1B883B
:1031F0001A46059B13449A1CBDF802309A4201D925
:103200000C2354E0059BFE2B01D90C234FE0059BBA
:10321000DAB2019B1B881946029B0B440132D2B2E1
:103220001A70019B1B8801339AB2019B1A80019B83
:103230001B881A46029B1344FF221A70019B1B88AD
:1032400001339AB2019B1A80039B1A88019B1B8849
:103250001946029B0B4419461046FFF75DFC0346D6
:103260001946019B1A888BB213449AB2019B1A80AB
:10327000039B9B88002B19D0039B9B68002B01D1DB
:10328000072314E0019B1B881A46029B9818039B96
:103290009968039B9B881A460EF038F9019B1A889F
:1032A000039B9B8813449AB2019B1A800023184603
:1032B00007B05DF804FB00B589B00390029101925C
:1032C000ADF80230039B9B6A002B01D1072372E00B
:1032D00000238DF81F3066E0039B996A9DF81F203C
:1032E00013465B0013449B000B440693069B9B888C
:1032F00002330593059BFE2B01D90C235BE0059B54
:10330000DAB2019B1B881946029B0B440132D2B2F0
:103310001A70019B1B8801339AB2019B1A80019B92
:103320001B881A46029B134416221A70019B1B88A5
:1033300001339AB2019B1A80069B1A88019B1B8855
:103340001946029B0B4419461046FFF7E5FB03465E
:103350001946019B1A888BB213449AB2019B1A80BA
:10336000069B9B88002B19D0069B9B68002B01D1E4
:10337000072320E0019B1B881A46029B9818069B96
:103380009968069B9B881A460EF0C0F8019B1A8824
:10339000069B9B8813449AB2019B1A809DF81F30AC
:1033A00001338DF81F30039B93F82C309DF81F20BC
:1033B0009A4291D30023184609B05DF804FB00B58A
:1033C00089B005900491039200230793039B1B8807
:1033D000ADF81A30039B00221A80059B93F82D301C
:1033E000002B0CD0BDF81A301A4603990498FFF749
:1033F000A9FB0790079B002B01D0079BC4E0059B0E
:103400009B78002B0CD0BDF81A301A46039904980B
:10341000FFF79EFC0790079B002B01D0079BB3E0B2
:10342000059BDB78002B0ED0059BDB7858B2BDF8EE
:103430001A30039A0499FFF7D9FC0790079B002BD9
:1034400001D0079BA0E0059B5B68002B0FD0059B7C
:103450005B6893F90000BDF81A30039A0499FFF7EE
:1034600004FD0790079B002B01D0079B8CE0059B78
:103470001B89002B12D0059B03F10800BDF81A3000
:103480000193039B0093049B06220221FFF7D4FDC6
:103490000790079B002B01D0079B75E0059B1B8ABB
:1034A000002B12D0059B03F11000BDF81A300193D8
:1034B000039B0093049B07220321FFF7BDFD0790A8
:1034C000079B002B01D0079B5EE0059B1B8B002B0D
:1034D00012D0059B03F11800BDF81A300193039B2D
:1034E0000093049B15221421FFF7A6FD0790079B6C
:1034F000002B01D0079B47E0059B1B6A002B0DD0DA
:10350000059B186ABDF81A30039A0499FFF703FE69
:103510000790079B002B01D0079B35E0059B5B6A5A
:10352000002B0DD0059B586ABDF81A30039A0499F8
:10353000FFF751FE0790079B002B01D0079B23E06C
:10354000059B93F82C30002B0CD0BDF81A30039A51
:1035500004990598FFF7AFFE0790079B002B01D059
:10356000079B11E0059B1B78002B0CD0BDF81A308F
:10357000039A04990598FFF74CFB0790079B002BD3
:1035800001D0079B00E0079B184609B05DF804FBDB
:1035900082B00190019BDB7803F00403002B01D182
:1035A000072300E00023184602B0704782B0019064
:1035B000019BDB78002B01D0072300E00023184695
:1035C00002B0704700B597B0019000911F23ADF88D
:1035D0004A301F23ADF84830019B002B18D00198CA
:1035E000FFF7D6FF1390139B002B01D0139B3FE0F6
:1035F0000DF14A020AAB19460198FFF7E0FE13905D
:10360000139B002B01D0139B32E00AAB159304E00F
:10361000002315930023ADF84A30009B002B17D0F0
:103620000098FFF7C3FF1390139B002B01D0139B4F
:103630001EE012AA02AB19460098FFF7C0FE1390D5
:10364000139B002B01D0139B12E002AB149304E0F8
:10365000002314930023ADF84830BDF84A30D9B2A6
:10366000BDF84830DBB2149A1598FFF745FA0346C7
:10367000184617B05DF804FB73DF704700BF1846AB
:10368000014B1B78184670475A30002084B00190D7
:10369000002303930AE0019A039B13441B78002B39
:1036A00001D0012306E0039B01330393039B052B09
:1036B000F1D90023184604B07047000082B00346D9
:1036C0008DF807309DF807305A1C074B83FB021317
:1036D0005910D317C91A0B469B000B44D11ACBB211
:1036E000184602B0704700BF6766666682B00190F8
:1036F000019BDB7B012B03D1019B9A88024B1A8033
:1037000000BF02B0704700BF4C30002000B585B04C
:1037100001900E4B00221A70019B9A880C4B1B885B
:103720009A420ED1012000F063FA0390039B002B14
:1037300007D0084B1B68002B03D0064B1B6803986F
:10374000984700BF05B05DF804FB00BF583000206B
:103750004C3000205430002000B585B00190019B12
:103760001B7A002B15D10D4B1B781846FFF7A6FFCF
:103770000346184600F03CFA0390039B002B09D047
:10378000074B1B68002B05D0054B1B680398984717
:1037900000E000BF05B05DF804FB00BF872F0020EC
:1037A0005430002000B583B001AB184604F046FB4E
:1037B000019B002B14BF01230023DBB2184603B08A
:1037C0005DF804FB00B585B003468DF807301E4850
:1037D000FFF75CFF03468DF80F309DF80730013B83
:1037E000032B2BD801A252F823F000BFFD370200B3
:1037F000113802002538020031380200134B5B7883
:10380000002B05D09DF80F30002B01D0012316E0CE
:103810000E4B9B78002B05D09DF80F30002B01D06C
:1038200002230CE0094BDB78002B01D0032306E0D8
:10383000064B1B79002B01D0042300E0002318461F
:1038400005B05DF804FB00BFAD2F0020882F0020DD
:1038500082B00190094B01221A70019B084A5A60FC
:10386000019B01221A70019B00229A81019B002278
:103870005A810023184602B0704700BF862F0020EF
:10388000AC2F002082B001900B4B02221A70019BDA
:103890000A4A5A60019B01221A70094BDB689AB2EE
:1038A000019B9A81064B9B689AB2019B5A81002327
:1038B000184602B0704700BF862F0020AC2F0020B2
:1038C000882F002000B585B001901B4B1B699AB270
:1038D000019B5A81184B5B699AB2019B9A81164BE6
:1038E0001B78002B1FD0154B1B7883F00103DBB234
:1038F000002B18D0FFF7C4FE0346002B13D0019B0A
:1039000002221A720E4B0422DA7000210C48FFF7D3
:1039100059FE0390039B002B01D0039B07E0094B4A
:1039200005221A7002E0074B03221A700023184682
:1039300005B05DF804FB00BF882F00205830002040
:10394000B42F0020862F002000B585B001901B4BBE
:103950009B699AB2019B5A81184BDB699AB2019B11
:103960009A81164B1B78002B1FD0154B1B7883F0C8
:103970000103DBB2002B18D0FFF782FE0346002BB9
:1039800013D0019B02221A720E4B0422DA7000211E
:103990000C48FFF717FE0390039B002B01D0039BFD
:1039A00007E0094B06221A7002E0074B04221A7046
:1039B0000023184605B05DF804FB00BF882F0020E7
:1039C00058300020B42F0020862F002082B00346FC
:1039D0008DF80730034A9DF80730137000BF02B01E
:1039E000704700BFA82F002030B589B00390029126
:1039F00001920093039B002B02D0019B002B01D16D
:103A00000E23D5E06C4B01221A706C4B00221A7009
:103A10006B4A019B14461D460FCD0FC495E80F005D
:103A200084E80F00674B00221A70674A009B1360FE
:103A3000664A0C9B1360664B4FF6FF721A80072292
:103A4000002164480DF08BFD3C22002162480DF0FE
:103A500086FD039B1A78604B1A70039B9A785E4B25
:103A60009A70039BDA785C4BDA70039B5A785A4B56
:103A70005A70594B039A1033103292E8030083E8CE
:103A80000300554B039A0833083292E8030083E899
:103A90000300514B039A1833183292E8030083E86D
:103AA0000300039B5B6A002B29D04B4B4B4A5A62A5
:103AB0004A4B4B4A9A60039B5A6A474B5B6A12888F
:103AC0001A80039B5A6A444B5B6A92889A8000234F
:103AD00007930DE0039B5B6A9A68079B1344197870
:103AE0003F4A079B13440A461A70079B013307930A
:103AF000394B5B6A9B881A46079B9342EAD3039B28
:103B00009B6A002B33D0374B374A9A60324B354A89
:103B10009A62314B9B6A344A9A60039B9A6A2E4B95
:103B20009B6A92889A80039B9A6A2B4B9B6A1288A5
:103B30001A80002306930DE0039B9B6A9A68069BFC
:103B400013441978284A069B13440A461A70069BA8
:103B500001330693204B9B6A9B881A46069B93422F
:103B6000EAD3039B93F82C201B4B83F82C20039B58
:103B70001B6A002B0ED0184B1C4A1A62039B1A6A50
:103B8000154B1B6A52885A80039B1A6A124B1B6A98
:103B900012881A80039B5B68002B03D0039B5B6831
:103BA0000D4A536002990C48FFF70CFD0590059BE8
:103BB000184609B030BD00BF842F0020872F002099
:103BC000882F0020A82F00205030002054300020E3
:103BD0004C300020AC2F0020B42F0020F02F00200C
:103BE000FC2F00201C30002028300020483000200E
:103BF00000B589B003468DF80730664B1B7883F01B
:103C00000103DBB2002B01D00823BEE0624A9DF81D
:103C100007301370FFF7C6FD0346002B04D05F4B3F
:103C200001221A700023B0E0072200215C480DF049
:103C300096FC5C4B5B78002B03D0574B1B78012B19
:103C40000FD0584B9B78002B03D0534B1B78012B84
:103C500007D0544B9B78002B12D04F4B1B78022B74
:103C60000ED1514B1B68002B07D0504B01221A700C
:103C70004D4B1B680820984702E04C4B00221A70FD
:103C80009DF807301846FFF79DFD03461A46424B44
:103C90001A70454B1B68002B1DD03F4B1B78032B24
:103CA00003D03D4B1B78042B15D13E4B1B78002BCA
:103CB00011D03F4B1B7883F00103DBB2002B0AD0FD
:103CC0003C4B00221A703C4B01221A70364B1B6889
:103CD0000720984702E0384B00221A7003AB1022ED
:103CE000002118460DF03BFC00238DF80C3000231A
:103CF0008DF81430284B1B78042B29D801A252F8D8
:103D000023F000BF493D0200193D0200253D02009D
:103D1000313D02003D3D020003AB1846FFF798FD20
:103D2000079016E003AB1846FFF7ACFD079010E0D4
:103D300003AB1846FFF7C6FD07900AE003AB184631
:103D4000FFF702FE079004E01C4B00221A7000E00F
:103D500000BF114B1B78002B0CD0194B1A7803AB0A
:103D600011461846FFF788FC0790079B002B01D0EF
:103D7000079B0AE00C4B1B68002B05D00A4B1B6805
:103D80000E4A1278104698470023184609B05DF88D
:103D900004FB00BF842F0020872F0020852F0020E8
:103DA000AC2F0020882F002050300020B32F00209F
:103DB000583000205A30002059300020862F002033
:103DC000A82F002000B583B00190019B1B88112B08
:103DD00007D01B2B09D0102B0BD10198FFF786FCC5
:103DE00008E00198FFF792FC04E00198FFF7B4FCAB
:103DF00000E000BF00BF03B05DF804FB75DF704753
:103E000000BF184676DF704700BF18467ADF70475C
:103E100000BF18467BDF704700BF184682B0019094
:103E2000019B5A88074B1B889A4207D3019B5A88EB
:103E3000044B5B889A4201D8012300E00023184616
:103E400002B070477830002000B587B00190274B52
:103E50001B884FF6FF72934243D0254B1B780133EA
:103E6000DAB2234B1A70234B1A7B214B1B789A42F0
:103E700012D31E4B1B8820491846FFF7BFFF059041
:103E8000059B002B2DD01B4B9B69002B29D0194B78
:103E90009B690598984724E0154B00221A70154B32
:103EA0001B7C002B11D0114B1B883B211846FFF7C0
:103EB000A9FF0490049B002B07D00E4B9B69002B9D
:103EC00003D00C4B9B69049898470A4B5B69002B05
:103ED00007D000238DF80C30064B5B6903AA10460F
:103EE000984700BF07B05DF804FB00BF8230002098
:103EF000803000205C3000207830002030B585B064
:103F000001901C4A019B14461D460FCD0FC495E835
:103F1000070084E80700184B00221A70019B1B68F9
:103F2000002B0ED0019B1A68144B1068516803C314
:103F30001248FFF76BFF0390039B002B0AD0039BF3
:103F400015E00E48FFF766FF0390039B002B01D09E
:103F5000039B0CE00A4B4FF6FF721A80094B0022BC
:103F60001A70094A0021094803F014FE0346184656
:103F700005B030BD5C300020AC300020783000202F
:103F80008230002080300020493E0200E82C0300EF
:103F900000B585B02548FFF741FF034683F00103D4
:103FA000DBB2002B2ED0224B1B78002B0CD0214BE8
:103FB0005B69002B32D000238DF804301D4B5B6908
:103FC00001AA1046984729E01B4B1B78002B03D110
:103FD000184B5B68039302E0164B9B680393174BE7
:103FE00000220399184603F005FE0290029B002B65
:103FF00014D0104B9B69002B10D00E4B9B6902987C
:1040000098470BE00B4B5B69002B07D001238DF821
:104010000030084B5B696A4610469847044B002203
:104020001A7000BF05B05DF804FB00BF84300020AB
:10403000AC3000205C300020803000208C3000202C
:1040400000B583B00190019B9A880B4B1A800B4AF4
:10405000019B103393E8030082E80300084B002221
:104060001A70084BDB89002B01D1FFF791FF00BFCD
:1040700003B05DF804FB00BF8230002084300020D4
:10408000803000205C30002000B585B001900D4BE1
:104090004FF6FF721A800C4B00221A700B4B184619
:1040A00003F0DAFD0390039B002B07D0084B9B69BC
:1040B000002B03D0064B9B690398984700BF05B0BF
:1040C0005DF804FB82300020803000208C3000201E
:1040D0005C30002000B585B00190019B063303934E
:1040E000039B1A88134BDB899A421ED1039B5B8981
:1040F000022B1AD1039B0C33184600F066F80346D6
:10410000002B02D0FFF744FF0FE00B4B184603F0E3
:10411000A3FD0290029B002B07D0064B9B69002B4E
:1041200003D0044B9B690298984700BF05B05DF827
:1041300004FB00BF5C3000208C30002000B583B051
:104140000190064A019B083393E8030082E80300CC
:10415000FFF71EFF00BF03B05DF804FB84300020B2
:1041600000B583B00190019B1B88112B0DD0112B42
:1041700002DC102B05D014E0122B0ED0502B08D0EF
:104180000FE00198FFF75CFF0BE00198FFF77CFF61
:1041900007E00198FFF79EFF03E00198FFF7CEFFCD
:1041A00000BF00BF03B05DF804FB82B00190019B2B
:1041B0001B781AB2019B01331B781B021BB21343FD
:1041C0001BB29BB2184602B0704700B585B0019093
:1041D0000198FFF7EAFF0346ADF80E30BDF80E3048
:1041E00003F00103002B14BF01230023DBB21846A8
:1041F00005B05DF804FB00B585B001900091002387
:104200008DF80F309DF80F305A1C8DF80F201A468C
:10421000019B1344009A12781A709DF80F305A1CB3
:104220008DF80F201A46019B1344009A52781A7099
:104230009DF80F30022B0CBF01230023DBB2029349
:10424000029B002B02D1002002F046FD9DF80F30AA
:10425000184605B05DF804FB8FDF704700BF1846B5
:104260009EDF704700BF1846ADDF704700BF18469D
:1042700082B00190019B9E221A80019B17225A80D6
:10428000019B00221A71019B00225A71019BA222FC
:104290009A71019B1B22DA7100BF02B0704700B512
:1042A00087B003460091ADF80630BDF80630009A9D
:1042B000DB0013441B7B9BB2ADF80C30BDF806301D
:1042C000009ADB0013441B7B9BB2ADF80E30002339
:1042D000ADF810300023ADF8123003A9BDF8063058
:1042E00000221846FFF7B8FF059000BF07B05DF841
:1042F00004FB00B587B001900091009B9B88ADF84E
:104300001630BDF81630DB00019A134406330493CF
:10431000019B1A79049B9A71009BDB7B012B02D0D5
:10432000022B05D009E0019B1A88049B1A8004E047
:10433000019B5A88049B1A8000BF049B1A88049B27
:104340005B889A4215D9049B1A88BDF8163011462D
:104350001846FFF785FF0390039B002B03D1049BB6
:1043600001225A7105E0039B112B02D1049B01220B
:104370001A71049B9A79049BDB799A4205D9BDF89E
:10438000163001991846FFF78AFF00BF07B05DF8A5
:1043900004FB00B583B001900091009B9B88DB007B
:1043A000019A134406331846FFF762FF00BF03B0BB
:1043B0005DF804FB00B587B001900091009B9B88DD
:1043C000ADF81630009B5B89ADF81430BDF816309F
:1043D000DB00019A134406330493049B1B88BDF849
:1043E0001420934228BF13469AB2049B5A80049B20
:1043F0005B88172B38BF17239AB2049B5A80019B06
:104400009B69002B15D0049B5B79002B11D040F6E3
:104410007723ADF80830BDF81630ADF80A30049BAC
:104420005B88ADF80C30019B9B6902AA114601988C
:104430009847049B00225A71049B00221A7100BF06
:1044400007B05DF804FB00B589B001900091009BB6
:104450009B88ADF81A30009BDB88ADF81830BDF8AA
:104460001A30DB00019A134406330793BDF8183065
:10447000172B38BF1723ADF81830079B1B88BDF8E2
:104480001820934228BF13469AB2079B5A80079B75
:1044900000221A71079B1A88BDF81A301146184677
:1044A000FFF7E2FE0590079B5B79002B16D1019B7D
:1044B0009B69002B13D040F67723ADF80C30BDF884
:1044C0001A30ADF80E30079B5B88ADF81030019BB9
:1044D0009B6903AA11460198984700E000BF09B004
:1044E0005DF804FB30B593B001900091009B04ACE3
:1044F0001D1D0FCD0FC40FCD0FC40FCD0FC42B68E2
:104500002360BDF81030ADF84630BDF81420BDF87A
:104510004630D1B2019ADB0013440A465A73019B1C
:104520009B69002B19D002AB00221A609A804DF6CD
:104530007A23ADF80830BDF84630ADF80A30BDF842
:104540004630019ADB0013445B7B8DF80C30019BF5
:104550009B6902AA11460198984700BF13B030BD6D
:1045600000B58BB001900091009B04330793079B2B
:104570001B88DB00019A134406330993079B9B8831
:104580008DF82330099B9B799DF82320934228BF07
:1045900013468DF81B3003AB00221A605A609DF859
:1045A0001B309BB2ADF80C309DF81B309BB2ADF8C0
:1045B0000E30079B1B8803A900221846FFF74CFE0C
:1045C000059000BF0BB05DF804FB00B585B001900D
:1045D0000091019B002B01D10E231DE0019B009A4D
:1045E0009A61019B9E221A80019B9E225A80019B08
:1045F000A2221A71002303930AE0039BDB00019AB5
:10460000134406331846FFF733FE039B013303932D
:10461000039B012BF1D90023184605B05DF804FB7C
:1046200082B001900B46ADF80230019B002B01D106
:104630000E230EE0BDF80230162B03D9BDF8023070
:104640009E2B01D9072304E0019BBDF802201A80AC
:104650000023184602B0704700B585B00190009164
:10466000009B9B88ADF80E30BDF80E30012B59D859
:10467000009B1B88212B26D0212B04DC102B09D07A
:10468000112B0CD024E03A2B0ED0552B11D0222B1D
:1046900014D01DE000990198FFF72BFE18E0009957
:1046A0000198FFF776FE13E000990198FFF782FE6C
:1046B0000EE000990198FFF7C6FE09E00099019805
:1046C000FFF710FF04E000990198FFF749FF00BFD2
:1046D000BDF80E30019ADB0013449B7A002B22D0E8
:1046E000BDF80E30019ADB001344DA88BDF80E30B5
:1046F00011461846FFF7B4FD0290029B002B0ED125
:10470000BDF80E30019ADB00134400229A72BDF806
:104710000E30019ADB0013440122DA7203E0029B9F
:10472000112B00E000BF05B05DF804FBA0DF70476F
:1047300000BF1846A2DF704700BF1846A6DF7047CB
:1047400000BF184662DF704700BF184682B0019074
:104750000091009B9A88019B9A8200BF02B070472B
:1047600082B001900091019B4FF6FF729A8200BFC8
:1047700002B0704700B585B001900091009B0633F0
:104780000393039B1A88019B1B899A4213D1039BB5
:104790005B89022B0FD1039B0C331846FFF715FDE5
:1047A0000346002B03D0019B01229A7517E0019B61
:1047B00000229A7513E0039B1A88019B9B899A42F9
:1047C0000DD1019B9B69002B09D0019B9B69039A2A
:1047D00002F10C01039A528901989847FFE700BF44
:1047E00005B05DF804FB00B593B0019000910AABF1
:1047F0000322002118460CF0B2FE9DF82830012259
:1048000062F303038DF828309DF82830012262F30B
:1048100007138DF828309DF82930012262F3030335
:104820008DF829309DF82930012262F307138DF8A5
:1048300029309DF82A30012262F342038DF82A3094
:104840000BAB1C22002118460CF089FE9DF82C3081
:1048500043F010038DF82C3000230C9300230E93AB
:1048600000230F930AAB109300231193019B1B7835
:104870008DF812300323ADF8103003AB0322002172
:1048800018460CF06CFE9DF80C30012262F3030315
:104890008DF80C309DF80C30012262F307138DF86F
:1048A0000C309DF80D30012262F303038DF80D30BA
:1048B0009DF80D30012262F307138DF80D309DF83D
:1048C0000E30012262F342038DF80E309DF80E3057
:1048D0006FF3C3038DF80E309DF80E306FF30413A1
:1048E0008DF80E309DF80E3043F001038DF80E3038
:1048F00005AB1422002118460CF031FE04AB0593E1
:1049000003AB06930123ADF81C300023ADF81E3035
:104910009B23ADF82030019B5888019B043305AAE6
:104920000BA9FFF707FF0346184613B05DF804FB19
:1049300000B591B00190009109AB1C2200211846EE
:104940000CF00DFE9DF8243043F008038DF8243060
:104950009DF8243043F004038DF8243000230A939B
:1049600000230C9300230D9300230E9300230F9339
:10497000019B1B788DF80E300223ADF80C3002AB92
:104980000322002118460CF0EAFD9DF808300122B0
:1049900062F303038DF808309DF80830012262F3BA
:1049A00007138DF808309DF80930012262F30303E4
:1049B0008DF809309DF80930012262F307138DF854
:1049C00009309DF80A30012262F342038DF80A3063
:1049D0009DF80A306FF3C3038DF80A309DF80A3052
:1049E0006FF304138DF80A309DF80A3043F0010389
:1049F0008DF80A3004AB1422002118460CF0AFFDEC
:104A000003AB049302AB05930123ADF818300023E8
:104A1000ADF81A309B23ADF81C30019B5888019BE0
:104A20000C3304AA09A9FFF785FE0346184611B006
:104A30005DF804FB00B583B001900091019B002B51
:104A40001FD0009B002B1CD0009B1B88112B0ED06D
:104A5000112B02DC102B05D016E0502B0CD0A62B0E
:104A600011D011E000990198FFF770FE0CE0009959
:104A70000198FFF775FE07E000990198FFF77AFEAD
:104A800002E000BF00E000BF03B05DF804FB0000DF
:104A900010B588B001900091284B02AC0FCB84E890
:104AA0000F00019B002B01D10E2344E0009B002B43
:104AB00001D10E233FE0019B4FF6FF729A82009BCB
:104AC0001A68019B9A61019B01229A75019A02ABB7
