:020000021000EC
:10F000000000012033F10100D9F00100DBF0010024
:10F01000DDF00100DFF00100E1F001000000000080
:10F02000000000000000000000000000E3F001000C
:10F03000E5F0010000000000E7F00100E9F0010048
:10F04000F54D0200EDF00100196D020015E302001C
:10F05000F3F00100F5F001009157020011B9020030
:10F0600085EA0200FDF00100FFF0010011E9020055
:10F0700003F1010005F1010007F1010009F10100B0
:10F080000BF10100797B02000FF1010011F1010089
:10F09000B97B020015F101007188020019F101002D
:10F0A0001BF101001DF101001FF1010021F1010020
:10F0B00079B2020025F1010000000000000000000C
:10F0C00027F1010029F101002BF101002DF10100D0
:08F0D0002FF1010031F10100F4
:10F0D800FEE7FEE7FEE7FEE7FEE7FEE7FEE7FEE700
:10F0E800FEE7FEE7FEE7FEE7FEE7FEE7FEE7FEE7F0
:10F0F800FEE7FEE7FEE7FEE7FEE7FEE7FEE7FEE7E0
:10F10800FEE7FEE7FEE7FEE7FEE7FEE7FEE7FEE7CF
:10F11800FEE7FEE7FEE7FEE7FEE7FEE7FEE7FEE7BF
:10F12800FEE7FEE7FEE7FEE7FEE70348854600F058
:10F13800CBF800F003B87047000001203749384881
:10F148000A1A02D0072291438D46364936480A1AD0
:10F1580006D00722914381F30988022282F314889A
:10F1680032483349334A00F048F833483349344A7F
:10F1780000F043F833483449344A00F03EF8344844
:10F188003449354A00F039F834483549354A00F0F1
:10F1980034F835483549364A00F02FF835483649AD
:10F1A800364A00F02AF836483649374A00F025F83A
:10F1B80036483749002200F02BF8364836490022F5
:10F1C80000F026F835483649091A082903DB0022D9
:10F1D8000260043001601F481F49884205D0026858
:10F1E800043003B4904703BCF7E700208646EC469A
:10F1F800002000212B4A9047FEE7884207D0521A88
:10F2080005D0037801300B700131013AF9D170470C
:10F21800884202D002700130FAE7704700000120EE
:10F2280000FC00200000012000000120083B030032
:10F23800F825002058270020B0F20100B0F20100A4
:10F2480004260300083B0300F8250020F8250020C9
:10F2580004260300042603000426030004260300F2
:10F2680004260300042603000426030004260300E2
:10F27800083B0300683C030058270020582700205B
:10F28800683C0300582700205827002058270020F2
:10F2980078400020784000208040002080400020F6
:08F2A80080440020212802002F
:10F2B000004870477040002070477047024B034A77
:10F2C0001A6000BF704700BFF82500200090D003EF
:10F2D00008B500F00DF90346002B06D0744B1B68EF
:10F2E0001B0A744A03F01F03136000F02DF9034654
:10F2F000002B02D0704B714A1A6000F041F90346AE
:10F30000002B06D06E4B1B685B0B6E4A03F00703A5
:10F31000136000F061F90346002B05D06A4BDB68EF
:10F32000694A23F08073D36000F072F90346002B22
:10F330000ED04FF080430022C3F80C214FF08043E1
:10F340000022C3F810214FF080430022C3F8382573
:10F3500000F08AF90346002B02D05C4B03221A60AE
:10F3600000F09EF90346002B0BD0594B05221A6082
:10F37000584B01221A60584B00221A60574B3F220B
:10F380001A6000F0A9F90346002B76D04FF08053A5
:10F39000534AD3F80434C2F820354FF08053504A12
:10F3A000D3F80834C2F824354FF080534C4AD3F8D0
:10F3B0000C34C2F828354FF08053494AD3F8103442
:10F3C000C2F82C354FF08053454AD3F81434C2F8B4
:10F3D00030354FF08053424AD3F81834C2F83435F0
:10F3E0004FF080533E4AD3F81C34C2F840354FF0FA
:10F3F00080533B4AD3F82034C2F844354FF0805351
:10F40000374AD3F82434C2F848354FF08053344A91
:10F41000D3F82834C2F84C354FF08053304AD3F833
:10F420002C34C2F850354FF080532D4AD3F8303485
:10F43000C2F854354FF08053294AD3F83434C2F817
:10F4400060354FF08053264AD3F83834C2F864351B
:10F450004FF08053224AD3F83C34C2F868354FF05D
:10F4600080531F4AD3F84034C2F86C354FF08053B4
:10F470001B4AD3F84434C2F8703500F049F903460A
:10F48000002B05D0174B1B68174A03F04F0313607E
:10F49000164BD3F88830154A43F47003C2F888300D
:10F4A000BFF34F8FBFF36F8FFFF708FF00BF08BD9B
:10F4B000240300104035014074C007400DF0ADBA80
:10F4C000440200103C050040F0ED00E0A0050040C3
:10F4D0001056004088560040185600401456004010
:10F4E00000C0004058020010E40E004000ED00E0B3
:10F4F000124B1B68DBB2062B1DD1114B1B6803F0AE
:10F500000F03002B17D10F4B1B6803F0F003302BB8
:10F5100001D1012310E00B4B1B6803F0F003402BDB
:10F5200001D1012308E0074B1B6803F0F003502BC7
:10F5300001D1012300E0002318467047E00F00F0DE
:10F54000E40F00F0E80F00F00A4B1B68DBB2062B5B
:10F550000DD1094B1B6803F00F03002B07D1074B9C
:10F560001B6803F0F003302B01D1012300E00023DE
:10F5700018467047E00F00F0E40F00F0E80F00F0CD
:10F58000124B1B68DBB2062B1DD1114B1B6803F01D
:10F590000F03002B17D10F4B1B6803F0F003302B28
:10F5A00001D1012310E00B4B1B6803F0F003402B4B
:10F5B00001D1012308E0074B1B6803F0F003502B37
:10F5C00001D1012300E0002318467047E00F00F04E
:10F5D000E40F00F0E80F00F00A4B1B68DBB2062BCB
:10F5E0000DD1094B1B6803F00F03002B07D1074B0C
:10F5F0001B6803F0F003302B01D1012300E000234E
:10F6000018467047E00F00F0E40F00F0E80F00F03C
:10F61000124B1B68DBB2062B1DD1114B1B6803F08C
:10F620000F03002B17D10F4B1B6803F0F003302B97
:10F6300001D1012310E00B4B1B6803F0F003402BBA
:10F6400001D1012308E0074B1B6803F0F003502BA6
:10F6500001D1012300E0002318467047E00F00F0BD
:10F66000E40F00F0E80F00F00A4B1B68DBB2062B3A
:10F670000DD1094B1B6803F00F03002B07D1074B7B
:10F680001B6803F0F003302B01D1012300E00023BD
:10F6900018467047E00F00F0E40F00F0E80F00F0AC
:10F6A0000A4B1B68DBB2062B0DD1094B1B6803F01C
:10F6B0000F03002B07D1074B1B6803F0F003302B1F
:10F6C00001D1012300E0002318467047E00F00F04D
:10F6D000E40F00F0E80F00F00A4B1B68DBB2062BCA
:10F6E0000DD1094B1B6803F00F03002B07D1074B0B
:10F6F0001B6803F0F003502B01D1012300E000232D
:10F7000018467047E00F00F0E40F00F0E80F00F03B
:10F71000124B1B68DBB2062B1DD1114B1B6803F08B
:10F720000F03002B17D10F4B1B6803F0F003302B96
:10F7300001D1012310E00B4B1B6803F0F003402BB9
:10F7400001D1012308E0074B1B6803F0F003502BA5
:10F7500001D1012300E0002318467047E00F00F0BC
:10F76000E40F00F0E80F00F082B003468DF8073098
:10F770009DF8073003F01F0206499DF907305B0929
:10F78000012000FA02F2603341F8232000BF02B0EA
:10F79000704700BF00E100E0BFF34F8F054BDB680F
:10F7A00003F4E0620349044B1343CB60BFF34F8F74
:10F7B00000BFFDE700ED00E00400FA0576DF7047CA
:10F7C00000BF18467ADF704700BF18467CDF7047DD
:10F7D00000BF18467FDF704700BF18468ADF7047BA
:10F7E00000BF18468FDF704700BF1846A8DF70477C
:10F7F00000BF1846A9DF704700BF184669DF704791
:10F8000000BF184666DF704700BF18463EDF7047EE
:10F8100000BF184608B5FFF7BFFF42F203031846C2
:10F8200008BD000084B00190244B0393019B002B82
:10F8300040D0234B1A680399019B00BF00BF00BF53
:10F8400000BF00BF00BF00BF00BF8A422FD000BF73
:10F8500000BF00BF00BF00BF00BF00BF00BF00BFB0
:10F8600000BF00BF00BF00BF00BF00BF00BF00BFA0
:10F8700000BF00BF00BF00BF00BF00BF00BF00BF90
:10F8800000BF00BF00BF00BF00BF00BF00BF00BF80
:10F8900000BF00BF00BF00BF00BF00BF00BF00BF70
:10F8A00000BF00BF00BF00BF00BF00BF00BF013BE3
:10F8B000C3D1019300BF04B0704700BF0024F4001F
:10F8C000F825002000B583B00190019B4FF47A72B7
:10F8D00002FB03F31846FFF7A5FF00BF03B05DF876
:10F8E00004FB82B003468DF807309DF80730012BEA
:10F8F00003D0022B03D0002B02E000BF00E000BFCA
:10F9000000BF02B07047000000B587B00390039BB2
:10F910001B788DF81730294A9DF8173013709DF821
:10F920001730062B42D801A252F823F049F9010002
:10F9300061F9010085F901008DF9010095F90100D7
:10F940009DF90100A5F90100039B1A791C4B1A705F
:10F95000039B5A881B4B1A801B4B00221A7029E00C
:10F960004FF47A7300934FF4FA730522642140F642
:10F97000C4100FF04CF9154B01221A70124B0422DF
:10F980001A7017E0104B05221A7013E00E4B01227B
:10F990001A700FE00C4B02221A700BE00A4B032284
:10F9A0001A7007E0084B06221A7003E0064B00228B
:10F9B0001A7000BF00BF07B05DF804FB5C27002091
:10F9C000582700205A2700205D2700205E270020AE
:10F9D00010B508F0AFF9034618460FF0C0FC08A3B5
:10F9E000D3E900230FF05CFF03460C46184621467E
:10F9F0000FF0EDFC0346184610BD00BFAFF30080CA
:10FA0000FCA9F1D24D62404082B001900091009A71
:10FA1000019B9A4205D2009A019BD31A03F1FA6323
:10FA200002E0009A019BD31A184602B0704786B0D4
:10FA30000190009100238DF81730002304931AE001
:10FA4000049BC3F105031A46019B13441B788DF8F0
:10FA50000F30049B009A13441B789DF80F209A42A4
:10FA600003D101238DF8173002E000238DF8173001
:10FA7000049B01330493049B052BE1DD9DF81730B3
:10FA8000184606B0704700B585B00190009100237C
:10FA90008DF80F3006220199009810F0F7FF034609
:10FAA000002B03D101238DF80F300DE00099019850
:10FAB000FFF7BDFF0346002B03D001238DF80F3065
:10FAC00002E000238DF80F309DF80F30184605B086
:10FAD0005DF804FB00B58DB0039002910192039B89
:10FAE0005B68099300238DF82E3004AB0C220021B3
:10FAF000184611F080FD00230A931CE0039B1A684E
:10FB00000A9B4FF48C7101FB03F313448033089379
:10FB100002990898FFF7B7FF03468DF82E309DF83D
:10FB20002E30002B04D0019B0A9A1A60012320E09A
:10FB30000A9B01330A930A9A099B9A42DEDB9DF8DD
:10FB40002E3083F00103DBB2002B05D0019B4FF078
:10FB5000FF321A6000230CE0079BB3F1FF3F03D193
:10FB600000238DF82F3002E001238DF82F309DF80F
:10FB70002F3018460DB05DF804FB00B58FB0039030
:10FB800002910192039B5B68099300238DF8323048
:10FB900000238DF8313004AB0C220021184611F0FF
:10FBA0002AFD00230B934BE000238DF82B30039BA1
:10FBB0001A680B9B4FF48C7101FB03F313440893F9
:10FBC000039B1A680B9B4FF48C7101FB03F31344E6
:10FBD000863307930299089811F062FD0346002BC3
:10FBE00002D101238DF832300299079811F058FDA7
:10FBF0000346002B02D101238DF831309DF83130BE
:10FC0000002B03D19DF83230002B02D001238DF858
:10FC10002B3004AB03F1080204AB191D04A8012327
:10FC20000FF078FA0346002B07D1049A059B591C64
:10FC3000059113449DF82B201A700B9B01330B93F5
:10FC40000B9A099B9A42AFDB00230D9308E0049ABC
:10FC50000D9B13441B78002B07D10D9B01330D9393
:10FC6000059B0D9A9A42F2DB00E000BF059B0D9ABE
:10FC70009A4202D14FF0FF330D93019B0D9A1A6007
:10FC80000D9BB3F1FF3F03D100238DF8333002E029
:10FC900001238DF83330049B184610F087FE04AB27
:10FCA0000C220021184611F0A6FC9DF833301846AE
:10FCB0000FB05DF804FB000000B587B00190009123
:10FCC0000023059300238DF80F301949019811F096
:10FCD00069F9049022E00098009B191D009B03F134
:10FCE000080204230FF016FA0346002B0AD1009BEA
:10FCF0001A68009B5B68581C009948609B0013447D
:10FD0000049A1A600A49002011F04CF904909DF8F9
:10FD10000F30002B06D1059B01330593049B002B6C
:10FD2000D9D100E000BF059B184607B05DF804FB81
:10FD3000DC27030000B585B001902249019811F03D
:10FD4000AFFC0346002B02D10123039334E01E498C
:10FD5000019811F0A5FC0346002B02D10223039366
:10FD60002AE01A49019811F09BFC0346002B02D1AE
:10FD70000323039320E01649019811F091FC0346F8
:10FD8000002B02D10423039316E01249019811F0CD
:10FD900087FC0346002B02D1052303930CE00E4998
:10FDA000019811F07DFC0346002B02D1062303933A
:10FDB00002E04FF0FF330393039B184605B05DF854
:10FDC00004FB00BFE0270300E8270300F02703003F
:10FDD000F8270300FC27030000280300F0B5ADF569
:10FDE0008A5D83B00AAB043B18600AAB083B19601C
:10FDF0000AAB0A3B1A8000230DF58A5202F1040275
:10FE000013607EE052AB083B4FF48052002118464D
:10FE100011F0F1FB0AAB083B1B681A680DF58A5319
:10FE200003F104031B684FF48C7101FB03F31344CB
:10FE30000AAA104619464FF48C731A4611F0B2FB09
:10FE40000AAB93F880301A460AAB93F88130194612
:10FE50000AAB93F8823018460AAB93F883301C46FD
:10FE60000AAB93F884301D460AAB93F885301E46E2
:10FE70000AAB059604950394029001910092294AD9
:10FE80000021002010F07AFF03460DF58A5213601E
:10FE90000AAB93F880301F460AAB93F881301946BD
:10FEA0000AAB93F882301C460AAB93F883301D46A8
:10FEB0000AAB93F884301E460AAB93F885300AAA41
:10FEC00052A80838049303960295019400913B468A
:10FED000144910F067FF0DF58A531B689AB252A9B6
:10FEE00008390AAB043B186804F076FE0DF58A5316
:10FEF00003F104031B6801330DF58A5202F1040279
:10FF000013600AAB0A3B1B880DF58A5202F104020A
:10FF100012689A42FFF676AF00BF0DF58A5D03B016
:10FF2000F0BD00BF0828030000B5ADF5815D81B0CC
:10FF300008AB0C3B186008AB103B196008AB113BD9
:10FF40001A7000230DF5805202F11C02136008ABF9
:10FF5000043B4FF480520021184611F04CFB08ABD3
:10FF6000113B1B78002B01D01A4A00E01A4A08AB5B
:10FF7000103B00921B68194A0021002010F0FEFE81
:10FF800003460DF5805202F11C02136008AB113BD1
:10FF90001B78002B01D00F4B00E00F4B08AA103A42
:10FFA00008A8043812680D4910F0FCFE0DF58053C6
:10FFB00003F11C031B689AB208A9043908AB0C3B77
:10FFC000186804F009FE00BF0DF5815D01B05DF811
:10FFD00004FB00BF3C280300442803004C28030016
:10FFE00000B5ADF5805D85B004AB0C3B18600A46EA
:10FFF00004AB0D3B1A7000230DF5805202F10C0288
:020000022000DC
:10000000136004AB043B4FF480520021184611F0FA
:10001000F2FA04AB0D3B1B78002B01D0174B00E02C
:10002000174B184A0021002010F0A8FE03460DF5DA
:10003000805202F10C02136004AB0D3B1B78002BC5
:1000400001D00E4A00E00E4A04AB043B0D491846AD
:1000500010F0A8FE0DF5805303F10C031B689AB253
:1000600004A9043904AB0C3B186804F0B5FD00BFCB
:100070000DF5805D05B05DF804FB00BF3C28030072
:10008000442803007028030000B5ADF5805D85B0FD
:1000900004AB0C3B18600A4604AB0D3B1A700023FE
:1000A0000DF5805202F10C02136004AB043B4FF4D7
:1000B00080520021184611F09EFA04AB0D3B1B78CC
:1000C000002B01D0174B00E0174B184A00210020ED
:1000D00010F054FE03460DF5805202F10C0213603D
:1000E00004AB0D3B1B78002B01D00E4A00E00E4AFA
:1000F00004AB043B0D49184610F054FE0DF5805337
:1001000003F10C031B689AB204A9043904AB0C3B3D
:10011000186804F061FD00BF0DF5805D05B05DF865
:1001200004FB00BF3C280300442803008828030088
:1001300000B5ADF5805D87B006AB0C3B186006AB33
:10014000103B196006AB123B1A8006AB103B1B68D4
:100150005B680DF5805202F1140213600DF58053B7
:1001600003F114031B68002B20DC194B0DF58052A2
:1001700002F11002136006AB083B0DF5805202F14C
:1001800010021168184610F00DFE0DF5805303F1B2
:100190001003186811F0ABFA03469AB206A90839A1
:1001A00006AB0C3B186804F017FD0AE006AB123BE7
:1001B0001A8806A9103906AB0C3B09681868FFF7C6
:1001C0000DFE002318460DF5805D07B05DF804FBB9
:1001D000A028030000B585B001900091019B039316
:1001E000009B0293039B1A68029B1B6819461046EA
:1001F00011F056FA0346184605B05DF804FB0000FE
:1002000000B58BB003900291029B099321230893C0
:100210000D4B082208990D4810F090FC05AB002208
:100220001A605A60099B059305A8074B00930823A1
:10023000089A064910F06AFA0790079B1B7918463E
:100240000BB05DF804FB00BFD501020008260020BA
:10025000F0B5ADF5885D81B0044618A81838016086
:10026000114618AA1C3A136018AB113B22461A70AB
:1002700018AB123B0A461A7018AB113B1B78152BB2
:1002800007D918AB183B1B68002B02DA072301F0D3
:1002900044B800230DF5875202F11C021360B94BDC
:1002A0001A6818AB183B1B684FF48C7101FB03F301
:1002B00013440DF5875202F11802136018AB113B7D
:1002C0001B781F2B01F2288001A252F823F000BFF7
:1002D000510302000B04020079040200DB04020057
:1002E000EB060200F1060200F7060200F30302002B
:1002F0005703020087030200B10302000504020055
:10030000DB030200E7030200FD06020045080200CD
:100310005B05020025060200D1060200B7060200B6
:100320001913020019130200A50B0200B5090200FF
:10033000B90D02000F0C0200370D0200010F020080
:10034000311002008111020051120200A7120200B6
:10035000002300F0E2BF8C4B00221A708B4B00226E
:100360001A708B4B1B78002B14BF01230023DBB2C8
:1003700083F00103DBB203F00103DAB2844B1A709D
:10038000002300F0CABF804B1B78002B14BF012351
:100390000023DBB283F00103DBB203F00103DAB226
:1003A000794B1A70794B00221A70002300F0B5BF08
:1003B000754B00221A70754B1B78002B14BF01235C
:1003C0000023DBB283F00103DBB203F00103DAB2F6
:1003D0006E4B1A70002300F0A0BF6E4B01221A7002
:1003E000002300F09ABF6B4B00221A70002300F02C
:1003F00094BF654B00221A70644B00221A700023D0
:1004000000F08BBF002300F088BF38AB0C3B4FF4EB
:1004100080520021184611F0EEF85F4B1B881A46F7
:100420005E4B1B78009313465D4A0021002010F0BC
:10043000A5FC03460DF5875202F11C021360564BD2
:100440001B881A46554B1B7838A80C38544910F0B5
:10045000A9FC0DF5875303F11C031B689AB238AB56
:100460000C3B19460DF5885303F11803186804F086
:10047000B3FB002300F051BF38AB0C3B4FF480526C
:100480000021184611F0B7F8464B1B78464A002168
:10049000002010F073FC03460DF5875202F11C0298
:1004A0001360404B1B781A4638AB0C3B3E4918464C
:1004B00010F078FC0DF5875303F11C031B689AB20A
:1004C00038AB0C3B19460DF5885303F11803186837
:1004D00004F082FB002300F020BF38AB0C3B4FF44C
:1004E00080520021184611F086F82B4B1B881946C4
:1004F0002A4B1B781A462B4B1B78019300920B4614
:100500002A4A0021002010F039FC03460DF58752DD
:1005100002F11C021360204B1B881A461F4B1B78EC
:100520001946204B1B7838A80C3800930B461F49FE
:1005300010F038FC0DF5875303F11C031B689AB2C9
:1005400038AB0C3B19460DF5885303F118031868B6
:1005500004F042FB002300F0E0BE38AB0C3B4FF44C
:1005600080520021184611F046F8114B1B78002BE1
:1005700001D0104A00E0104A064B1B78002B1DD01A
:100580000C4B1CE0642700207F27002080270020E0
:1005900084270020832700205A2700205827002086
:1005A000B42803005D270020D0280300EC280300B6
:1005B0007E2700203C28030044280300964B00932C
:1005C0001346964A0021002010F0D8FB03460DF593
:1005D000875202F11C021360914B1B78002B01D053
:1005E000904A00E08C4A904B1B78002B01D08D4B39
:1005F00000E0894B38A80C38884910F0D3FB0DF582
:10060000875303F11C031B689AB238AB0C3B1946A5
:100610000DF5885303F11803186804F0DDFA002380
:1006200000F07BBE38AB0C3B4FF4805200211846E3
:1006300010F0E1FF7D4B1B78002B01D0794A00E0E0
:10064000754A7B4B1B78002B01D0764B00E0724B38
:1006500000931346774A0021002010F08FFB0346D9
:100660000DF5875202F11C021360704B1B78002BB2
:1006700001D06C4A00E0684A6D4B1B78002B01D01A
:10068000684B00E0644B38A80C386A4910F08AFBCC
:100690000DF5875303F11C031B689AB238AB0C3B72
:1006A00019460DF5885303F11803186804F094FAFD
:1006B000002300F032BE5A4B1B7819460DF58853C3
:1006C00003F118031868FFF78BFC002300F025BE28
:1006D000554B1B7819460DF5885303F1180318681C
:1006E000FFF7D2FC002300F018BE002300F015BE77
:1006F000002300F012BE002300F00FBE18AB123B27
:100700001B78002B57D04C4B1B680DF5875202F11C
:100710001402136018AB1C3B0A220021186810F069
:1007200077FC0DF5875303F110031860424A0DF56D
:10073000875303F110031B68136038AB0C3B4FF475
:1007400080520021184610F056FF0DF5875303F133
:1007500010031B6800930DF5875303F114031B6806
:10076000364A0021002010F009FB03460DF58752A0
:1007700002F11C02136038A80C380DF5875303F101
:1007800010031B680DF5875202F1140212682B4901
:1007900010F008FB0DF5875303F11C031B689AB298
:1007A00038AB0C3B19460DF5885303F11803186854
:1007B00004F012FA2CE038AB0C3B4FF480520021CD
:1007C000184610F018FF1C4B1B681D4A0021002022
:1007D00010F0D4FA03460DF5875202F11C021360A3
:1007E000154B1A6838AB0C3B1549184610F0DAFA6D
:1007F0000DF5875303F11C031B689AB238AB0C3B11
:1008000019460DF5885303F11803186804F0E4F94C
:10081000002300F082BD00BF442803000829030024
:100820007E2700203C280300832700208227002009
:1008300081270020242903000426002040290300EA
:100840007429030018AB123B1B78002B6ED0564B5B
:100850001B680DF5875202F10C02136018AB1C3BAC
:100860000021186810F0D4FA0DF5875303F108033E
:1008700083ED000A4C4A0DF5875303F108031B680A
:10088000136038AB0C3B4FF480520021184610F037
:10089000B2FE0DF5875303F10C0318680EF0ADFDA1
:1008A00004460D460DF5875303F1080318680EF052
:1008B000A4FD02460B46CDE90223CDE900453B4AA3
:1008C0000021002010F05AFA03460DF5875202F17C
:1008D0001C0213600DF5875303F10C0318680EF02A
:1008E0008CFD05460E460DF5875303F10803186885
:1008F0000EF083FD03460C4638A80C38CDE90034D1
:100900002A463346294910F04DFA0DF5875303F175
:100910001C031B689AB238AB0C3B19460DF5885383
:1009200003F11803186804F057F939E038AB0C3BB1
:100930004FF480520021184610F05DFE1A4B1B68E0
:1009400018460EF05AFD03460C46CDE90034184A0D
:100950000021002010F012FA03460DF5875202F133
:100960001C021360104B1B6818460EF046FD034630
:100970000C4638A80C381A4623460D4910F012FAD6
:100980000DF5875303F11C031B689AB238AB0C3B7F
:1009900019460DF5885303F11803186804F01CF983
:1009A000002300F0BABC00BF0026002090290300FD
:1009B000C829030038AB0C3B4FF480520021184685
:1009C00010F019FE0DF5875303F118031D680DF59E
:1009D000875303F118031B6893F880301E460DF50A
:1009E000875303F118031B6893F881301F460DF5F8
:1009F000875303F118031B6893F882300D930DF5AC
:100A0000875202F11802136893F883300E930DF5A4
:100A1000875101F118010B6893F884300F930DF59D
:100A2000875101F118010B6893F8853010930DF58B
:100A3000875101F118010B6886330DF5875101F1DB
:100A400018010A68D2F80C210DF5875101F118013F
:100A50000968D1F808110DF5875000F118000068F9
:100A6000D0F810010DF5875404F118042468D4F867
:100A700014410A940990089107920693109A0592DE
:100A80000F9A04920E9A03920D9B0293019700967F
:100A90002B46C54A0021002010F070F903460DF5E1
:100AA000875202F11C0213600DF5875303F11803FE
:100AB0001E680DF5875303F118031B6893F8803007
:100AC0009C460DF5875303F118031B6893F881309A
:100AD0001F460DF5875303F118031B6893F8823006
:100AE0000D930DF5875202F11802136893F88330C5
:100AF0000E930DF5875101F118010B6893F88430BE
:100B00000F930DF5875101F118010B6893F88530AB
:100B100010930DF5875101F118010B6886330DF51F
:100B2000875101F118010A68D2F80C210DF587519F
:100B300001F118010968D1F808110DF5875000F18D
:100B400018000068D0F810410DF5875000F118002A
:100B50000068D0F8145138A80C380995089407910A
:100B600006920593109A04920F9A03920E9A02929B
:100B70000D9B01930097634632468B4910F012F9A2
:100B80000DF5875303F11C031B689AB238AB0C3B7D
:100B900019460DF5885303F11803186804F01CF882
:100BA0000023BAE338AB0C3B4FF4805200211846C7
:100BB00010F021FD0DF5875303F118031B687B4AE4
:100BC0000021002010F0DAF803460DF5875202F1FB
:100BD0001C0213600DF5875303F118031A6838AB34
:100BE0000C3B7249184610F0DDF80DF5875303F100
:100BF0001C031B689AB238AB0C3B19460DF58853A1
:100C000003F11803186803F0E7FF002385E338AB0E
:100C10000C3B4FF480520021184610F0ECFC0DF50F
:100C2000875303F118031B6893F880301D460DF5B8
:100C3000875303F118031B6893F881301A460DF5AA
:100C4000875303F118031B6893F8823019460DF59A
:100C5000875303F118031B6893F8833018460DF58A
:100C6000875303F118031B6893F884301C460DF575
:100C7000875303F118031B6893F88530049303949A
:100C80000290019100922B46494A0021002010F069
:100C900075F803460DF5875202F11C0213600DF53D
:100CA000875303F118031B6893F880301D460DF538
:100CB000875303F118031B6893F881301E460DF526
:100CC000875303F118031B6893F882301A460DF519
:100CD000875303F118031B6893F8833019460DF509
:100CE000875303F118031B6893F884301C460DF5F5
:100CF000875303F118031B6893F8853038A80C3824
:100D0000039302940191009233462A46284910F039
:100D100049F80DF5875303F11C031B689AB238ABF1
:100D20000C3B19460DF5885303F11803186803F0BE
:100D300053FF0023F1E238AB0C3B4FF4805200210B
:100D4000184610F058FC0DF5875303F118031B6883
:100D5000D3F80C31174A0021002010F00FF8034699
:100D60000DF5875202F11C0213600DF5875303F154
:100D700018031B68D3F80C2138AB0C3B0D491846FF
:100D800010F010F80DF5875303F11C031B689AB29D
:100D900038AB0C3B19460DF5885303F1180318685E
:100DA00003F01AFF0023B8E2E0290300242A03001D
:100DB000382A0300682A030018AB123B1B78002B6B
:100DC00066D018AB0C3B80220021184610F013FCB3
:100DD0000DF5875303F118031B6803F1860218AB66
:100DE0000C3B1146184610F039FC0DF5875303F102
:100DF00018031B68863380220021184610F0FBFB85
:100E00000DF5875303F118031B6803F1860218AB35
:100E10001C3B1968104610F021FC38AB0C3B4FF41A
:100E200080520021184610F0E6FB0DF5875303F1C0
:100E300018031B6803F1860218AB0C3B0092C94AE9
:100E4000002100200FF09AFF03460DF5875202F1B2
:100E50001C0213600DF5875303F118031B688633DA
:100E600018AA0C3A38A80C38BE490FF09BFF0DF5B4
:100E7000875303F11C031B689AB238AB0C3B19462D
:100E80000DF5885303F11803186803F0A5FE35E04B
:100E900038AB0C3B4FF480520021184610F0ABFBEE
:100EA0000DF5875303F118031B688633AE4A002102
:100EB00000200FF063FF03460DF5875202F11C027C
:100EC00013600DF5875303F118031B6803F18602C5
:100ED00038AB0C3BA44918460FF064FF0DF587535F
:100EE00003F11C031B689AB238AB0C3B19460DF595
:100EF000885303F11803186803F06EFE00230CE218
:100F000018AB123B1B78002B59D00DF5875303F11A
:100F100018031B68D3F808310DF5875202F104025B
:100F2000136018AB1C3B0A220021186810F070F8FF
:100F30000DF5875318600DF5875303F118031B68EF
:100F40000DF587521268C3F8082138AB0C3B4FF4FB
:100F500080520021184610F04EFB0DF587531B6898
:100F600000930DF5875303F104031B687F4A0021AA
:100F700000200FF003FF03460DF5875202F11C021B
:100F8000136038A80C380DF587531B680DF5875290
:100F900002F10402126875490FF004FF0DF5875342
:100FA00003F11C031B689AB238AB0C3B19460DF5D4
:100FB000885303F11803186803F00EFE36E038ABCF
:100FC0000C3B4FF480520021184610F014FB0DF535
:100FD000875303F118031B68D3F80831644A0021D2
:100FE00000200FF0CBFE03460DF5875202F11C02E4
:100FF00013600DF5875303F118031B68D3F808211C
:1010000038AB0C3B5A4918460FF0CCFE0DF5875310
:1010100003F11C031B689AB238AB0C3B19460DF563
:10102000885303F11803186803F0D6FD002374E118
:1010300018AB123B1B78002B57D04E4B1B680DF59D
:10104000865202F11C02136018AB1C3B0A220021DD
:1010500018680FF0DDFF0DF5865303F118031860D3
:10106000444A0DF5865303F118031B68136038AB2F
:101070000C3B4FF480520021184610F0BCFA0DF5DD
:10108000865303F118031B6800930DF5865303F193
:101090001C031B68384A002100200FF06FFE034636
:1010A0000DF5875202F11C02136038A80C380DF5BB
:1010B000865303F118031B680DF5865202F11C02DA
:1010C00012682D490FF06EFE0DF5875303F11C03D6
:1010D0001B689AB238AB0C3B19460DF5885303F1E7
:1010E0001803186803F078FD39E0224B1B680DF5F2
:1010F000865202F11402136038AB0C3B4FF480525D
:101100000021184610F077FA0DF5865303F1140309
:101110001B681A4A002100200FF030FE03460DF52F
:10112000875202F11C02136038AB0C3B0DF586525E
:1011300002F114021268114918460FF033FE0DF542
:10114000875303F11C031B689AB238AB0C3B19465A
:101150000DF5885303F11803186803F03DFD0023D3
:10116000DBE000BF7C2A0300BC2A0300D42A030072
:10117000182B0300FC250020342B03007C2B0300DC
:1011800018AB123B1B78002B29D038AB0C3B4FF42B
:1011900080520021184610F02EFA624A00210020E9
:1011A0000FF0ECFD03460DF5875202F11C021360AF
:1011B00038AB0C3B5B4918460FF0F4FD0DF5875337
:1011C00003F11C031B689AB238AB0C3B19460DF5B2
:1011D000885303F11803186803F0FEFC36E038ABBF
:1011E0000C3B4FF480520021184610F004FA0DF524
:1011F000875303F118031B68D3F810314A4A0021C2
:1012000000200FF0BBFD03460DF5875202F11C02D2
:1012100013600DF5875303F118031B68D3F81021F1
:1012200038AB0C3B404918460FF0BCFD0DF5875319
:1012300003F11C031B689AB238AB0C3B19460DF541
:10124000885303F11803186803F0C6FC002364E018
:1012500038AB0C3B4FF480520021184610F0CBF90C
:10126000324A002100200FF089FD03460DF5875218
:1012700002F11C02136038AB0C3B2C4918460FF0EE
:1012800091FD0DF5875303F11C031B689AB238AB2F
:101290000C3B19460DF5885303F11803186803F049
:1012A0009BFC002339E038AB0C3B4FF4805200210B
:1012B000184610F0A0F90DF5875303F118031B68C9
:1012C000D3F814311A4A002100200FF057FD0346CD
:1012D0000DF5875202F11C0213600DF5875303F1DF
:1012E00018031B68D3F8142138AB0C3B104918467F
:1012F0000FF058FD0DF5875303F11C031B689AB2DC
:1013000038AB0C3B19460DF5885303F118031868E8
:1013100003F062FC002300E0002318460DF5885D11
:1013200001B0F0BD9C2B0300F82B0300682C0300D8
:101330008C2C030000B5ADF58B5D83B00AAB1C3B74
:10134000186002AB19606FF001030DF58B5202F1CA
:101350000402136000230DF58A5202F11B02137080
:1013600000230DF58A5202F11A02137000230DF5C5
:101370008B5202F10302137052AB4FF480520021E2
:10138000184610F038F952AB083B062200211846E7
:1013900010F031F952AB143B0C220021184610F02A
:1013A0002AF952AB143B02AA19461068FEF784FCD6
:1013B0000DF58A5303F11403186052AB143B1B68FC
:1013C0001B681846FEF7B6FC0DF58A5303F11003AF
:1013D00018600DF58A5303F110031B68002B0EDA19
:1013E00052AB143B1B6818460FF0E0FA52AB143BAB
:1013F0000C220021184610F0FEF80B23E5E10DF554
:101400008A5303F110031B68032B17D17A4B1B6817
:101410009AB20AAB1C3B79491868FEF789FE52ABB9
:10142000143B1B6818460FF0C1FA52AB143B0C2258
:101430000021184610F0DFF80023C6E10DF58A53AD
:1014400003F110031B68012B06D00DF58A5303F13D
:1014500010031B68022B4AD152AB143B1B680433A8
:101460001A6852AB1146184610F0F8F800230DF533
:101470008A5202F11C02136031E052AB143B1A682D
:101480000DF58A5303F11C031B6802339B001344C0
:101490001B681022002118460FF0BAFD03460DF517
:1014A0008A5202F10E0213800DF58A5303F10E03E6
:1014B0001B88D9B252AB083B0DF58A5202F11C02CF
:1014C000126813440A461A700DF58A5303F11C037F
:1014D0001B6801330DF58A5202F11C0213600DF5F1
:1014E0008A5303F11C031B68052BC6DD69E00DF56B
:1014F0008A5303F110031B68042B06D00DF58A53A1
:1015000003F110031B68052B5BD152AB143B1B6826
:1015100004331A680AAB1C3B11461868FEF770FECC
:1015200003460DF58B5202F1030213700DF58B5338
:1015300003F103031B78152B43D952AB143B1B68F3
:101540000833196852AB183B1A462C48FEF715FBB6
:101550000346002B08D052AB183B1B680DF58B528D
:1015600002F1040213602CE052AB143B1B680833F9
:10157000196852AB1C3B1A462048FEF7ABFA0346EB
:10158000002B08D052AB1C3B1B680DF58B5202F1AF
:101590000402136015E04FF0FF330DF58B5202F19A
:1015A0000402136052AB143B1B6818460FF0FEF99F
:1015B00052AB143B0C220021184610F01CF80723F4
:1015C00003E10DF58A5303F110031B68042B19D1B5
:1015D0000DF58B5303F1030318780AAB1C3B1B6812
:1015E0000093074B00220DF58B5101F104010968AE
:1015F000FEF72EFE24E000BF7427002064270020A1
:10160000A42C03000DF58A5303F110031B68052B6E
:1016100016D152AB143B1B680C331A680DF58B5373
:1016200003F1030318780AAB1C3B1B6800931346B5
:1016300001220DF58B5101F104010968FEF708FE46
:101640000DF58A5303F110031B68012B6CD10AAB13
:10165000143B4FF48C72002118460FF0CCFF52AAB5
:101660000AAB143B114618460FF0F8FF52AB083B8B
:101670001A780AAB143B83F8802052AB083B5A78A7
:101680000AAB143B83F8812052AB083B9A780AAB33
:10169000143B83F8822052AB083BDA780AAB143B48
:1016A00083F8832052AB083B1A790AAB143B83F8CA
:1016B000842052AB083B5A790AAB143B83F885204F
:1016C0000AAB143B6FF04502C3F808210AAB143B88
:1016D0009622C3F8102152AA0AAB143B8633114656
:1016E00018460FF0BBFF002300934FF48C733A4A67
:1016F0003A493B480DF074FD0346002B0AD1384BA4
:101700001A680AAB143B104619464FF48C731A46FC
:101710000FF048FF324B5B680133314A5360304B66
:101720005B68304A136042E00DF58A5303F1100301
:101730001B68022B3BD100230DF58A5202F10802EF
:1017400013600DF58A5202F1080252AB083B1946AC
:101750002348FEF7BFF903460DF58A5202F10D0248
:1017600013700DF58A5303F10D031B78002B1AD06B
:101770000DF58A5303F108031B68012201920093BF
:101780004FF48C73144A154915480DF059FD144B4C
:101790005B68013B124A53604FF48C730E4A0F4949
:1017A0000F480DF0E8FC0E4B5B680E4A136052AB1D
:1017B000143B1B6818460FF0F9F852AB143B0C228F
:1017C000002118460FF017FF002318460DF58B5D1A
:1017D00003B05DF804FB00BF6C27002068270020E1
:1017E000642700207427002000B589B00190019B78
:1017F00004330793079B04330693079B0433234A60
:101800001360224B1B680133214A13601F4B1B6876
:1018100093F90E3005931E4B1B6802AA19461D480A
:10182000FEF758F903468DF813309DF81330002B5E
:1018300027D0184B1A68029B19464FF48C7303FB90
:1018400001F313440393039B059AC3F80C21039BF4
:10185000D3F814315A1C039BC3F814210E4B1B7888
:10186000002B03D005990D4806F0B8FD0C4B012262
:101870001A70039BD3F80831059A9A4201DB0123C1
:1018800000E00023184609B05DF804FB6027002043
:1018900070270020642700207C270020AC2C030048
:1018A0007D27002000B585B00190019B1B78012B9E
:1018B0004BD0022B3DD0002B53D12D4B1B781A4619
:1018C0002C4B1344184606F0D1FB294B1B780133EF
:1018D000DAB2274B1A70264B1B78013B254AD35CA2
:1018E0000A2B06D0224B1B789AB2234B1B889A42B4
:1018F00039D31F4B1B789BB21A461E491F4803F071
:101900006BF90390039B082B0CD0039B112B09D080
:10191000039B0293029B002B04D0194A6721029873
:1019200005F00EFA039B112BE3D0114B00221A7025
:1019300019E01449012007F0A5FC019B5B68104ADF
:101940007121184605F0FCF90EE00E49012007F060
:1019500099FC019B5B680A4A7621184605F0F0F96C
:1019600002E000BF00E000BF00BF05B05DF804FB6F
:10197000302800203428002014270020A027002031
:10198000DC2C03000C26030030B58DB0134B04ACE7
:101990001D460FCD0FC495E8030084E80300104BEB
:1019A00000934FF4807301930E4B02934FF48073B6
:1019B0000393694604A807230B4A06F0E9FA0B9043
:1019C0000B9B0A930A9B002B04D0084A8E210A988D
:1019D00005F0B6F900BF0DB030BD00BFF42C030018
:1019E000D0280020D0290020A5180200DC2C0300FC
:1019F00000B583B00848FDF7F1FE0190019B00930C
:101A0000009B002B04D0054A9621009805F098F918
:101A100000BF03B05DF804FB842D0300DC2C030041
:101A200000B589B0039002911346ADF806300299D3
:101A30000398FFF77FFC0690002307931FE0029AAC
:101A4000079B13441B78184606F02CFB06900023D6
:101A50000693069B002B0CD0069B112B09D0069BEE
:101A60000593059B002B04D0114AFD21059805F034
:101A700067F9069B112BE2D0079B01330793BDF852
:101A80000630079A9A42DAD3BDF80630013B029A33
:101A900013441B780D2B06D100BF0A2006F002FB71
:101AA0000346112BF9D000BF09B05DF804FB00BF5D
:101AB000DC2C030000B587B09DF80030012262F3F2
:101AC00003038DF800309DF80030012262F3071304
:101AD0008DF800301E480FF00AFE03469AB26B469E
:101AE0001B491846FDF772FE0590059B0493049B65
:101AF000002B05D0174A40F21511049805F020F983
:101B000001AB0822002118460FF075FD1023ADF837
:101B100004303C23ADF806300023ADF808304FF414
:101B2000C873ADF80A3001AB1846FDF74BFE0590BF
:101B3000059B0393039B002B05D0064A4FF48F713E
:101B4000039805F0FDF800BF07B05DF804FB00BF87
:101B50000C2D0300DC2C030000B585B001AB042282
:101B6000002118460FF047FD0B4B019301AB1946BE
:101B70000A4802F0D9FF0390039B0293029B002BBB
:101B800005D0074A4FF49771029805F0D9F800BFC5
:101B900005B05DF804FB00BF211A0200A027002059
:101BA000DC2C030000B585B00190019B1B78002B55
:101BB00011D10B4B1B883B211846FDF7FFFD03900D
:101BC000039B0293029B002B05D0064A40F245116D
:101BD000029805F0B5F800BF05B05DF804FB00BF42
:101BE00016270020DC2C030000B583B001900749C4
:101BF000012007F047FB064A40F25111019805F019
:101C00009FF800BF03B05DF804FB00BF0C26030083
:101C1000DC2C030000B58BB001AB1C220021184660
:101C20000FF0E9FC002301934FF4203302934FF4AB
:101C30007023039303238DF810300023ADF8123086
:101C400000238DF814300C4B06930C4B079301AB1B
:101C5000184602F09FF90990099B0893089B002BF6
:101C600005D0074A4FF4BA71089805F069F800BF2B
:101C70000BB05DF804FB00BFA51B0200E91B0200CE
:101C8000DC2C030082B003468DF807309DF8073046
:101C9000002B01D0032B00E000BF00BF02B0704753
:101CA00010B59AB00190019B04331993C44B1B6883
:101CB000002B03D1C34B1B68C34A13600CF0DCFD3F
:101CC0000246C24B1A60C14B1B6818460FF094FBCA
:101CD0000246BF4B1A60BE4B1A68BB4B1B68D31A37
:101CE00018460DF025FBB4A3D3E900230DF0D8FD71
:101CF00003460C46184621460DF09BFB0246B54BA9
:101D00001A60B44BD3ED007AB7EE007AF4EEC77ADE
:101D1000F1EE10FA03DBAE4B1B68AB4A1360019B7C
:101D20001B88013B562B00F2EA8101A252F823F0F6
:101D300045200200FF200200FF200200FF200200D9
:101D4000FF200200FF200200FF200200FF2002000F
:101D5000FF200200FF200200FF200200FF200200FF
:101D6000FF200200FF200200FF2002008D1E020063
:101D7000971E0200FF2002002F1F0200FF2002001A
:101D8000FF200200FF200200FF200200FF200200CF
:101D9000FF200200FF200200FF200200FF200200BF
:101DA000A11E0200FF200200FF200200FF2002000F
:101DB000591F0200FF200200FF200200FF20020046
:101DC000FF200200FF200200FF200200FF2002008F
:101DD000FF200200FF200200FF200200FF2002007F
:101DE000FF200200FF200200FF200200FF2002006F
:101DF000FF200200FF200200FF200200FF2002005F
:101E0000FF200200FF200200FF200200FF2002004E
:101E1000FF200200FF200200F91F0200FF20020045
:101E2000FF200200FF200200FF200200FF2002002E
:101E3000FF200200FF200200FF200200FF2002001E
:101E4000FF200200FF200200FF200200FF2002000E
:101E5000FF200200FF200200FF200200FF200200FE
:101E6000FF200200FF200200FF200200FF200200EE
:101E70006B2002008F1F0200FF200200FF200200E3
:101E8000FF2002001F200200FF200200019B9A8811
:101E9000514B1A8033E1504B4FF6FF721A802EE1FE
:101EA00000238DF86330FDF793FD17904B4B1B68B3
:101EB00017991846FDF7A8FD1690169B07EE903A65
:101EC000B8EE677ADFED466AC7EE267ACDED157A71
:101ED000424A179B1360434B1B68002B20DD01987F
:101EE000FFF782FC03468DF863309DF86330002BCA
:101EF00006D03D4B00221A603C4B01221A70EFE0E5
:101F0000394B1B680133384A1360374B1A68384B1A
:101F10001B689A42C0F2E480344B00221A70DFE062
:101F2000314B00221A60314B00221A70D8E02A4B44
:101F30001888002300228521FDF74CFC1490149B87
:101F40001393139B002B00F0CD802A4A40F2C51159
:101F5000139804F0F5FEC5E00BAB082200211846EB
:101F60000FF049FB019B9B880BA900221846FDF747
:101F700039FC1490149B1293129B002B00F0B48038
:101F80001C4A4FF4E771129804F0DAFEACE0124BF1
:101F90001888002300220021FDF72CFC1490149BCC
:101FA0001193119B002B00F0A180124A4FF4EA71AB
:101FB000119804F0C5FE99E00000000000AAAE40B0
:101FC000D82700208C270020942700209C27002061
:101FD000902700208827002016270020982700201F
:101FE00000007A447427002078270020DC27002096
:101FF000FC250020DC2C0300019B9B881321184644
:10200000FDF7DCFB1490149B1093109B002B6FD0FA
:102010003F4A4FF4ED71109804F092FE68E0019B86
:102020009B8813211846FDF7C9FB1490149B0F934E
:102030000F9B002B5ED0364A4FF4F0710F9804F0DE
:102040007FFE57E0019B9B8800211846FDF7DAFBD5
:102050001490149B0E930E9B002B4DD02C4A4FF4E2
:10206000F3710E9804F06CFE46E0019B07AC06335A
:10207000186859689A68DB680FC49DF81C30002BFB
:102080003CD09DF82430042B07D09DF82430062B3B
:1020900003D09DF82430052B30D19DF81C30022B45
:1020A00003D102238DF80C3002E001238DF80C30AF
:1020B0004FF4C173ADF81030019B9B8803AA114601
:1020C0001846FDF793FB1490149B0D930D9B002B6A
:1020D00014D00F4A4FF4FD710D9804F031FE0DE05D
:1020E00000BF0CE000BF0AE000BF08E000BF06E050
:1020F00000BF04E000BF02E000BF00E000BF054BEE
:102100001B680133034A136000BF1AB010BD00BF43
:10211000DC2C0300D827002000B583B00190019883
:1021200002F06AF801990A4802F0E2FA01990948B6
:1021300002F0CCFC0198FFF7B3FD019801F08EFE90
:10214000019800F0DFFC00BF03B05DF804FB00BFA6
:10215000BC270020A027002000B58FB0554B1B687E
:10216000049304A80023D822534906F019FB0D90CC
:102170000D9B0C930C9B002B05D0504A40F22F2155
:102180000C9804F0DDFD0023039303AB184606F022
:102190008BFB0B900B9B0A930A9B002B05D0474AA5
:1021A0004FF40D710A9804F0CBFD6B460C22002110
:1021B00018460FF020FA01238DF8003000238DF827
:1021C000013000238DF80230039A6B4619464020F7
:1021D000FDF714FB0B900B9B0993099B002B05D07B
:1021E000364A40F23F21099804F0AAFD6B460C22C2
:1021F000002118460FF0FFF901238DF800309E23CF
:10220000ADF80230039A6B4619462320FDF7F6FA23
:102210000B900B9B0893089B002B05D0274A40F29C
:102220004621089804F08CFD6B460C2200211846CC
:102230000FF0E1F901238DF800304FF4A073ADF8F1
:10224000043001238DF80230039A6B461946202092
:10225000FDF7D4FA0B900B9B0793079B002B05D03F
:10226000164A40F24E21079804F06AFD03AB184667
:1022700006F02AFB0B900B9B0693069B002B05D0C8
:102280000E4A40F25221069804F05AFD0C4806F01E
:10229000DFFA0B900B9B0593059B002B05D0074A9B
:1022A00040F25621059804F04BFD00BF0FB05DF8D9
:1022B00004FB00BF202D0300D02A0020DC2C0300EB
:1022C0001921020082B001900091009B5A88094BAD
:1022D0001B889A420BD1009B1B8840F677229342C1
:1022E00005D1009B9B88033B9AB2034B1A8000BF29
:1022F00002B07047162700201427002000B585B0D3
:102300001149124802F0ADF90390039B0293029B1E
:10231000002B05D00E4A4FF42571029804F010FDF1
:1023200080210A4802F0C8F90390039B0193019BA6
:10233000002B05D0064A40F29721019804F000FDD9
:1023400000BF05B05DF804FBC5220200BC270020D9
:10235000DC2C030000B5ABB019AB3C2200211846C1
:102360000FF049F902238DF8643000238DF86630B0
:1023700005238DF867300AAB3C22002118460FF088
:102380003AF90123ADF83830144B0F9302AB2022F9
:10239000002118460FF02FF901238DF80B30402350
:1023A0000693B423079302AA0AA919A8002300934D
:1023B0000B4B01F065FB2990299B2893289B002B50
:1023C00005D0084A4FF42D71289804F0B9FC01207B
:1023D00001F048FB00BF2BB05DF804FB1027002084
:1023E000851C0200DC2C030000B583B0FFF7B4FEAF
:1023F000FFF760FBFFF782FFFFF7AEFBFFF7AAFFD7
:10240000FFF708FC032001F03FFC0190019B0093C3
:10241000009B002B05D0064A40F2C321009804F02F
:102420008FFCFFF7E5FA019B184603B05DF804FB4B
:10243000DC2C03000000000010B584B001900B46B6
:102440008DF803302A4B1B68002B03D0284B1B68E8
:10245000022B0BDD0CF010FA034618460EF0CCFFF1
:102460000246244B1A60224B00221A60204B1B6844
:1024700001331F4A13600CF0FFF902461E4B1A602D
:102480001D4B1B6818460EF0B7FF02461B4B1A6027
:102490001A4B1A68174B1B68D31A18460CF048FFE2
:1024A00011A3D3E900230DF0FBF903460C461846AF
:1024B00021460CF0BEFF03460393DDED037AB1EE37
:1024C000047AF4EEC77AF1EE10FA00DA09E00C496A
:1024D000012006F0D7FE4FF47A70FDF7F3F9FDF70F
:1024E00099F900BF04B010BD0000000000AAAE4082
:1024F0002028002024280020282800202C28002024
:102500000426030000B585B003F020F80390039B78
:102510000293029B002B04D0124A4721029804F038
:102520000FFC114B1B68009303238DF801300B2324
:1025300018466B460D4A194603F05CF80390039B5E
:102540000193019B002B04D0064A4D21019804F011
:10255000F7FB0B230121184603F0A6F800BF05B0D6
:102560005DF804FB242D0300702D030039240200C4
:1025700000B587B0F1EE103A0193019B23F09F0361
:102580000293029BE1EE103AF1EE103A03932620FB
:10259000FDF7EAF8FDF73AF90590059B0493049BD3
:1025A000002B04D0044A5821049804F0C9FB00BF52
:1025B00007B05DF804FB00BF242D030000B583B015
:1025C00000230193019B0093009B002B04D0044A3D
:1025D0007021009804F0B4FB00BF03B05DF804FB69
:1025E000242D030000B583B00123364918460AF0B4
:1025F000D5F80190344B1B781A46324B1B689A422F
:1026000014D0304B1B68002B0CBF01230023DBB21E
:102610001A462E492E48FDF787FC2A4B1B68002BD3
:1026200014BF01230023DAB2274B1A700023294973
:1026300018460AF0B3F80190274B1B781A46254B31
:102640001B689A4214D0234B1B68002B0CBF01233C
:102650000023DBB21A4621491D48FDF765FC1D4BDE
:102660001B68002B14BF01230023DAB21A4B1A7027
:10267000144B1B68002B21D0194B1B680093194881
:102680009DED000A0CF0E0FC0FE0174B1B78002BCF
:102690000FD1164B1B78002B0BD10123094918468B
:1026A0000AF07CF8019004F0B3FC064B1B68002B89
:1026B000EBD10C489FED0E0A0CF0C6FC00BF03B036
:1026C0005DF804FB18280020A82B0020742D0300BF
:1026D000A02700201C280020A92B00207C2D03000F
:1026E00000260020E02700207F27002084270020EC
:1026F0000000000010B582B000233D4918460AF0E2
:102700004DF801903B4B1B781A46394B1B689A4297
:1027100014D0374B1B68002B0CBF01230023DBB206
:102720001A4635493548FDF7FFFB314B1B68002B36
:1027300014BF01230023DAB22E4B1A700123304953
:1027400018460AF02BF801902E4B1B781A462C4B9A
:102750001B689A4214D02A4B1B68002B0CBF012324
:102760000023DBB21A4628492448FDF7DDFB244B41
:102770001B68002B14BF01230023DAB2214B1A700F
:102780001B4B1B68002B30D0204B1B6818460CF0ED
:1027900034FE03460C46184621460CF04AFE03461A
:1027A00007EE903AF1EE677ACDED007A18489DED8C
:1027B000000A0CF049FC0FE000230D49184609F00F
:1027C000EDFF0190134B1B78002B09D1124B1B78A6
:1027D000002B05D104F01CFC054B1B68002BEBD132
:1027E0000B489FED0E0A0CF02FFC00BF02B010BD8D
:1027F0001C280020AA2B00207C2D0300A0270020ED
:1028000018280020AB2B0020742D03000026002088
:10281000E0270020802700208427002000000000FF
:1028200000B587B04B4B00221A604B4B00221A6058
:102830004A4B1B6818460EF0B9F80C220021474895
:102840000EF0D9FE0C22002144480EF0D4FE444A7A
:102850003C21082004F016FB0590059B0493049B83
:10286000002B04D03F4ABA21049804F069FA05F01D
:10287000A9F90390039B0293029B002B04D0394AD1
:10288000BC21029804F05CFA0BF0F6FF019001986D
:102890000EF0B2FD0246344B1A60FFF775F8FFF7F1
:1028A0008DFEFFF7A1FDFFF72DFE0CF067FA022366
:1028B00003212E4A18460CF037FB2D480CF0E7F99F
:1028C0002C4A2D492D480CF0E9F801230221184625
:1028D00009F03EFE00230221184609F039FE234884
:1028E0009FED270A0CF0B0FB04F092FB254B1B7800
:1028F000002B04D02449002006F0C4FC03E0234947
:10290000002006F0BFFC224B1B78002B02D0FFF703
:10291000F1FE1CE01F4B1B78002B02D0FFF762FE7C
:1029200015E01D4B1B78002B05D010489FED140AB5
:102930000CF08AFB0BE0134B1B7883F00103DBB236
:10294000002B02D0FFF74EFE01E0FFF7D3FEFFF7AA
:102950000FFEC9E7D8270020782700206427002031
:10296000AC2B0020242D03008C270020E027002022
:10297000E3F801000C28002009F90100A0BB0D00BC
:1029800000000000DC2700201026030008260300BA
:102990007F270020802700208427002084B001901A
:1029A0000B468DF8033013468DF802300023039355
:1029B000019B002B3CD19DF80230012B0BD19DF8DF
:1029C0000330012B04D1019BDBB20E33DBB200E0FC
:1029D00000238DF802309DF80330012B04D0022B28
:1029E0000CD0002B15D01FE01449019A13465B0050
:1029F00013440B449DF802201A701BE00F49019A02
:102A000013465B0013440B4401339DF802201A70F7
:102A100010E00A49019A13465B0013440B44023349
:102A20009DF802201A7005E00723039300BF01E020
:102A300007230393039B184604B070477C2F0020A4
:102A400000B583B0012200210020FFF7A7FF01900D
:102A5000019B002B04D0019B072B01D0019B1CE0A4
:102A6000072202210120FFF799FF0190019B002B13
:102A700004D0019B072B01D0019B0EE00422022110
:102A80000020FFF78BFF0190019B002B04D0019BDE
:102A9000072B01D0019B00E00023184603B05DF82E
:102AA00004FB00B583B0012202210020FFF776FF6E
:102AB0000190019B002B04D0019B072B01D0019BAF
:102AC0001CE0072202210120FFF768FF0190019B13
:102AD000002B04D0019B072B01D0019B0EE00A22A2
:102AE00000210020FFF75AFF0190019B002B04D02A
:102AF000019B072B01D0019B00E00023184603B087
:102B00005DF804FB00B585B00190019B1B88102B7C
:102B100002D0112B18D02FE0194B1B68002B0DD1C0
:102B2000FFF78EFF0390039B002B07D0154B1B680C
:102B3000002B03D0134B1B6803989847104B1B685E
:102B400001330F4A136017E00D4B1B68013B0C4A21
:102B500013600B4B1B68002B0DD1FFF7A2FF0390F6
:102B6000039B002B07D0074B1B68002B03D0054BA2
:102B70001B680398984700BF00BF05B05DF804FBD1
:102B8000842F0020802F00206DDF704700BF184683
:102B900072DF704700BF184679DF704700BF1846E4
:102BA0007DDF704700BF184664DF704700BF1846DE
:102BB00082B003460091ADF80630BDF80630DAB2B7
:102BC000009B1A70BDF806301B0A9AB2009B0133B5
:102BD000D2B21A700223184602B0704700B589B00D
:102BE000039002911346ADF80630029B1B8803F157
:102BF0000902BDF806309A4201D90C2351E005AB19
:102C00001846FFF7C1FF0790079B002B01D0079BD9
:102C100047E0029B1B881A46039B134408221A7044
:102C2000029B1B8801339AB2029B1A80029B1B886D
:102C30001A46039B13441B221A70029B1B88013304
:102C40009AB2029B1A80029B1B881A46039B981813
:102C500005AB0133062219460EF0A4FC029B1B882B
:102C600006339AB2029B1A809DF8143023F00103B8
:102C7000DBB2002B07D1029B1B881A46039B13442F
:102C800000221A7006E0029B1B881A46039B13441D
:102C900001221A70029B1B8801339AB2029B1A8090
:102CA0000023184609B05DF804FB00B589B0039015
:102CB00002910192ADF80230039B1B78012B05D1E4
:102CC000039B5B78002B01D1072389E0019B1B88C4
:102CD0009A1CBDF802309A420ED8039B1B78012B38
:102CE0000CD1019B1B881A46039B5B7813449A1CEA
:102CF000BDF802309A4201D90C2371E0019B1B8878
:102D0000BDF80220D31A9BB2023BADF81C30BDF8CF
:102D10001C30ADF81630019B1B880233029A134415
:102D20000DF1160211461846FFF73AFF0690069B72
:102D3000002B01D0069B53E0039B1B78022B09D18B
:102D4000BDF81630BDF81C209A4203D309238DF834
:102D50001F3017E008238DF81F30039B1B78012BD1
:102D60000CD1039B5B789BB2BDF81C209A4205D323
:102D7000039B5B789BB2ADF8163003E0BDF81C30C6
:102D8000ADF81630BDF81630FE2B01D90C2327E024
:102D9000BDF81630DAB2019B1B881946029B0B4422
:102DA0000132D2B21A70019B1B8801339AB2019B87
:102DB0001A80019B1B881A46029B13449DF81F2012
:102DC0001A70019B1B8801339AB2019B1A80019BE8
:102DD0001A88BDF8163013449AB2019B1A8000235A
:102DE000184609B05DF804FB00B587B00390029166
:102DF0001346ADF80630029B1B881A1DBDF806303D
:102E00009A4201D90C2339E00DF112031846FFF75D
:102E1000C3FE0590059B002B01D0059B2EE0029B75
:102E20001B881A46039B134403221A70029B1B88BB
:102E300001339AB2029B1A80029B1B881A46039B9D
:102E4000134419221A70029B1B8801339AB2029B09
:102E50001A80BDF81220029B1B881946039B0B4465
:102E600019461046FFF7A4FE03461946029B1A882E
:102E70008BB213449AB2029B1A800023184607B003
:102E80005DF804FB84B0029101921A4603468DF866
:102E90000F301346ADF80C30019B1B88DA1CBDF8CF
:102EA0000C309A4201D90C2328E0019B1B881A465A
:102EB000029B134402221A70019B1B8801339AB2B1
:102EC000019B1A80019B1B881A46029B1344012216
:102ED0001A70019B1B8801339AB2019B1A80019BD7
:102EE0001B881A46029B13449DF80F201A70019B01
:102EF0001B8801339AB2019B1A800023184604B044
:102F0000704784B0029101921A4603468DF80F3043
:102F10001346ADF80C30019B1B88DA1CBDF80C3051
:102F20009A4201D90C2328E0019B1B881A46029B78
:102F3000134402221A70019B1B8801339AB2019B31
:102F40001A80019B1B881A46029B13440A221A709E
:102F5000019B1B8801339AB2019B1A80019B1B883D
:102F60001A46029B13449DF80F201A70019B1B8880
:102F700001339AB2019B1A800023184604B07047AF
:102F800000B58BB0039001930B468DF80B301346C0
:102F90008DF80A3000238DF823300C9B1B88ADF888
:102FA0002030002309936DE0039B5A68099B9B0026
:102FB0001A4404AB106818600DF1170104AB00222D
:102FC0001846FFF7F1FD0790079B002B01D0079BE8
:102FD0007AE09DF817309DF80A209A424FD19DF86B
:102FE0002330002B01D0002300E002238DF81B309A
:102FF0000C9B1B881A469DF817301A449DF81B300D
:103000001A44BDF834309A4201DD0C235CE09DF88F
:10301000233083F00103DBB2002B16D00C9B1B88FE
:1030200001339AB20C9B1A800C9B1B881A46019B99
:1030300013449DF80B201A700C9B1B8801339AB225
:103040000C9B1A8001238DF823300C9B1B881A4699
:10305000019B1A440DF1170104AB1846FFF7A4FDBC
:103060000790079B002B01D0079B2DE00C9B1A8833
:103070009DF817309BB213449AB20C9B1A80099B9F
:1030800001330993039B1B881A46099B93428BDBF0
:103090009DF82330002B16D00C9B1A88BDF82030E9
:1030A000D31A9BB2013BADF81830BDF81830FF2B96
:1030B00001D90C2308E0BDF82030019A1344BDF873
:1030C0001820D2B21A70002318460BB05DF804FB2A
:1030D00000B589B0059003930B468DF81330134665
:1030E0008DF812309DF81310BDF82C3001930A9B17
:1030F0000093039B02220598FFF742FF0790079B6E
:10310000002B01D0079B12E09DF81210BDF82C3067
:1031100001930A9B0093039B10220598FFF730FF51
:103120000790079B002B01D0079B00E00023184667
:1031300009B05DF804FB82B00190019B1B88052B50
:103140000AD9019B1B88B3F5486F07D9019B1B88DF
:103150004FF6FF72934201D0072325E0019B5B8865
:10316000052B0AD9019B5B88B3F5486F07D9019BF2
:103170005B884FF6FF72934201D0072314E0019B56
:103180001B884FF6FF7293420DD0019B5B884FF670
:10319000FF72934207D0019B1A88019B5B889A4279
:1031A00001D9072300E00023184602B0704700B59C
:1031B00087B0039002910192ADF80230019B1B8809
:1031C0009A1DBDF802309A4201D90C234BE00398B6
:1031D000FFF7B1FF0590059B002B01D0059B42E056
:1031E000019B1B881A46029B134405221A70019BFF
:1031F0001B8801339AB2019B1A80019B1B881A46D7
:10320000029B134412221A70019B1B8801339AB24D
:10321000019B1A80039B1A88019B1B881946029BFD
:103220000B4419461046FFF7C3FC03461946019BA1
:103230001A888BB213449AB2019B1A80039B5A8856
:10324000019B1B881946029B0B4419461046FFF749
:10325000AFFC03461946019B1A888BB213449AB2FD
:10326000019B1A800023184607B05DF804FB00B5E7
:1032700087B0039002910192ADF80230039B9B88C6
:1032800002330593019B1B881A46059B13449A1C25
:10329000BDF802309A4201D90C2354E0059BFE2B65
:1032A00001D90C234FE0059BDAB2019B1B8819461C
:1032B000029B0B440132D2B21A70019B1B8801336E
:1032C0009AB2019B1A80019B1B881A46029B1344E9
:1032D000FF221A70019B1B8801339AB2019B1A804E
:1032E000039B1A88019B1B881946029B0B441946B5
:1032F0001046FFF75DFC03461946019B1A888BB206
:1033000013449AB2019B1A80039B9B88002B19D00F
:10331000039B9B68002B01D1072314E0019B1B88B2
:103320001A46029B9818039B9968039B9B881A4630
:103330000EF038F9019B1A88039B9B8813449AB2BC
:10334000019B1A800023184607B05DF804FB00B506
:1033500089B0039002910192ADF80230039B9B6A01
:10336000002B01D1072372E000238DF81F3066E0A7
:10337000039B996A9DF81F2013465B0013449B0032
:103380000B440693069B9B8802330593059BFE2BFB
:1033900001D90C235BE0059BDAB2019B1B8819461F
:1033A000029B0B440132D2B21A70019B1B8801337D
:1033B0009AB2019B1A80019B1B881A46029B1344F8
:1033C00016221A70019B1B8801339AB2019B1A8046
:1033D000069B1A88019B1B881946029B0B441946C1
:1033E0001046FFF7E5FB03461946019B1A888BB28E
:1033F00013449AB2019B1A80069B9B88002B19D01C
:10340000069B9B68002B01D1072320E0019B1B88B2
:103410001A46029B9818069B9968069B9B881A4639
:103420000EF0C0F8019B1A88069B9B8813449AB241
:10343000019B1A809DF81F3001338DF81F30039BCC
:1034400093F82C309DF81F209A4291D30023184600
:1034500009B05DF804FB00B589B0059004910392B2
:1034600000230793039B1B88ADF81A30039B0022AF
:103470001A80059B93F82D30002B0CD0BDF81A3024
:103480001A4603990498FFF7A9FB0790079B002BA6
:1034900001D0079BC4E0059B9B78002B0CD0BDF8A6
:1034A0001A301A4603990498FFF79EFC0790079B71
:1034B000002B01D0079BB3E0059BDB78002B0ED0DF
:1034C000059BDB7858B2BDF81A30039A0499FFF7D0
:1034D000D9FC0790079B002B01D0079BA0E0059B20
:1034E0005B68002B0FD0059B5B6893F90000BDF86B
:1034F0001A30039A0499FFF704FD0790079B002BED
:1035000001D0079B8CE0059B1B89002B12D0059BEB
:1035100003F10800BDF81A300193039B0093049B4C
:1035200006220221FFF7D4FD0790079B002B01D054
:10353000079B75E0059B1B8A002B12D0059B03F1AE
:103540001000BDF81A300193039B0093049B0722DF
:103550000321FFF7BDFD0790079B002B01D0079BC0
:103560005EE0059B1B8B002B12D0059B03F118001E
:10357000BDF81A300193039B0093049B152214217C
:10358000FFF7A6FD0790079B002B01D0079B47E0A4
:10359000059B1B6A002B0DD0059B186ABDF81A30DD
:1035A000039A0499FFF703FE0790079B002B01D0B5
:1035B000079B35E0059B5B6A002B0DD0059B586A85
:1035C000BDF81A30039A0499FFF751FE0790079B44
:1035D000002B01D0079B23E0059B93F82C30002B98
:1035E0000CD0BDF81A30039A04990598FFF7AFFE86
:1035F0000790079B002B01D0079B11E0059B1B78D0
:10360000002B0CD0BDF81A30039A04990598FFF7E7
:103610004CFB0790079B002B01D0079B00E0079B0A
:10362000184609B05DF804FB82B00190019BDB787D
:1036300003F00403002B01D1072300E00023184608
:1036400002B0704782B00190019BDB78002B01D063
:10365000072300E00023184602B0704700B597B07A
:10366000019000911F23ADF84A301F23ADF8483078
:10367000019B002B18D00198FFF7D6FF1390139BE6
:10368000002B01D0139B3FE00DF14A020AAB194613
:103690000198FFF7E0FE1390139B002B01D0139BC2
:1036A00032E00AAB159304E0002315930023ADF834
:1036B0004A30009B002B17D00098FFF7C3FF1390F0
:1036C000139B002B01D0139B1EE012AA02AB1946DC
:1036D0000098FFF7C0FE1390139B002B01D0139BA3
:1036E00012E002AB149304E0002314930023ADF81E
:1036F0004830BDF84A30D9B2BDF84830DBB2149A30
:103700001598FFF745FA0346184617B05DF804FB15
:1037100073DF704700BF1846014B1B78184670478F
:103720005E30002084B00190002303930AE0019AE8
:10373000039B13441B78002B01D0012306E0039B5D
:1037400001330393039B052BF1D90023184604B0E2
:103750007047000082B003468DF807309DF80730AF
:103760005A1C074B83FB02135910D317C91A0B4677
:103770009B000B44D11ACBB2184602B0704700BF71
:103780006766666682B00190019BDB7B012B03D1EB
:10379000019B9A88024B1A8000BF02B0704700BF9D
:1037A0005030002000B585B001900E4B00221A70F9
:1037B000019B9A880C4B1B889A420ED1012000F085
:1037C00063FA0390039B002B07D0084B1B68002B68
:1037D00003D0064B1B680398984700BF05B05DF8FF
:1037E00004FB00BF5C300020503000205830002027
:1037F00000B585B00190019B1B7A002B15D10D4BB4
:103800001B781846FFF7A6FF0346184600F03CFA5F
:103810000390039B002B09D0074B1B68002B05D09E
:10382000054B1B680398984700E000BF05B05DF8A2
:1038300004FB00BF8B2F00205830002000B583B060
:1038400001AB184604F046FB019B002B14BF01237B
:103850000023DBB2184603B05DF804FB00B585B069
:1038600003468DF807301E48FFF75CFF03468DF8CE
:103870000F309DF80730013B032B2BD801A252F8E3
:1038800023F000BF95380200A9380200BD380200BD
:10389000C9380200134B5B78002B05D09DF80F3020
:1038A000002B01D0012316E00E4B9B78002B05D096
:1038B0009DF80F30002B01D002230CE0094BDB7880
:1038C000002B01D0032306E0064B1B79002B01D00F
:1038D000042300E00023184605B05DF804FB00BF98
:1038E000B12F00208C2F002082B00190094B0122C3
:1038F0001A70019B084A5A60019B01221A70019BB1
:1039000000229A81019B00225A810023184602B0AE
:10391000704700BF8A2F0020B02F002082B0019096
:103920000B4B02221A70019B0A4A5A60019B01222A
:103930001A70094BDB689AB2019B9A81064B9B680F
:103940009AB2019B5A810023184602B0704700BF0B
:103950008A2F0020B02F00208C2F002000B585B0CA
:1039600001901B4B1B699AB2019B5A81184B5B69F2
:103970009AB2019B9A81164B1B78002B1FD0154BD6
:103980001B7883F00103DBB2002B18D0FFF7C4FED5
:103990000346002B13D0019B02221A720E4B042205
:1039A000DA7000210C48FFF759FE0390039B002BAF
:1039B00001D0039B07E0094B05221A7002E0074B78
:1039C00003221A700023184605B05DF804FB00BFFF
:1039D0008C2F00205C300020B82F00208A2F002080
:1039E00000B585B001901B4B9B699AB2019B5A812F
:1039F000184BDB699AB2019B9A81164B1B78002BFE
:103A00001FD0154B1B7883F00103DBB2002B18D0BD
:103A1000FFF782FE0346002B13D0019B02221A728D
:103A20000E4B0422DA7000210C48FFF717FE0390BA
:103A3000039B002B01D0039B07E0094B06221A7061
:103A400002E0074B04221A700023184605B05DF807
:103A500004FB00BF8C2F00205C300020B82F00201A
:103A60008A2F002082B003468DF80730034A9DF864
:103A70000730137000BF02B0704700BFAC2F0020AA
:103A800030B589B00390029101920093039B002B03
:103A900002D0019B002B01D10E23D5E06C4B0122FB
:103AA0001A706C4B00221A706B4A019B14461D461B
:103AB0000FCD0FC495E80F0084E80F00674B00227C
:103AC0001A70674A009B1360664A0C9B1360664B32
:103AD0004FF6FF721A800722002164480DF08BFD1B
:103AE0003C22002162480DF086FD039B1A78604B52
:103AF0001A70039B9A785E4B9A70039BDA785C4B42
:103B0000DA70039B5A785A4B5A70594B039A103308
:103B1000103292E8030083E80300554B039A083300
:103B2000083292E8030083E80300514B039A1833EC
:103B3000183292E8030083E80300039B5B6A002BC2
:103B400029D04B4B4B4A5A624A4B4B4A9A60039BD3
:103B50005A6A474B5B6A12881A80039B5A6A444B25
:103B60005B6A92889A80002307930DE0039B5B6A4F
:103B70009A68079B134419783F4A079B13440A46E7
:103B80001A70079B01330793394B5B6A9B881A466F
:103B9000079B9342EAD3039B9B6A002B33D0374B9E
:103BA000374A9A60324B354A9A62314B9B6A344AA3
:103BB0009A60039B9A6A2E4B9B6A92889A80039B19
:103BC0009A6A2B4B9B6A12881A80002306930DE099
:103BD000039B9B6A9A68069B13441978284A069BA4
:103BE00013440A461A70069B01330693204B9B6AC6
:103BF0009B881A46069B9342EAD3039B93F82C209A
:103C00001B4B83F82C20039B1B6A002B0ED0184BF8
:103C10001C4A1A62039B1A6A154B1B6A52885A8007
:103C2000039B1A6A124B1B6A12881A80039B5B68FB
:103C3000002B03D0039B5B680D4A536002990C482C
:103C4000FFF70CFD0590059B184609B030BD00BF7D
:103C5000882F00208B2F00208C2F0020AC2F0020DD
:103C6000543000205830002050300020B02F002069
:103C7000B82F0020F42F002000300020203000203A
:103C80002C3000204C30002000B589B003468DF860
:103C90000730664B1B7883F00103DBB2002B01D0A9
:103CA0000823BEE0624A9DF807301370FFF7C6FD97
:103CB0000346002B04D05F4B01221A700023B0E0B2
:103CC000072200215C480DF096FC5C4B5B78002BD2
:103CD00003D0574B1B78012B0FD0584B9B78002BF0
:103CE00003D0534B1B78012B07D0544B9B78002BF0
:103CF00012D04F4B1B78022B0ED1514B1B68002B5F
:103D000007D0504B01221A704D4B1B680820984772
:103D100002E04C4B00221A709DF807301846FFF75E
:103D20009DFD03461A46424B1A70454B1B68002BFB
:103D30001DD03F4B1B78032B03D03D4B1B78042B2E
:103D400015D13E4B1B78002B11D03F4B1B7883F0D5
:103D50000103DBB2002B0AD03C4B00221A703C4B13
:103D600001221A70364B1B680720984702E0384B37
:103D700000221A7003AB1022002118460DF03BFC04
:103D800000238DF80C3000238DF81430284B1B785D
:103D9000042B29D801A252F823F000BFE13D020014
:103DA000B13D0200BD3D0200C93D0200D53D02000B
:103DB00003AB1846FFF798FD079016E003AB1846D3
:103DC000FFF7ACFD079010E003AB1846FFF7C6FD08
:103DD00007900AE003AB1846FFF702FE079004E0E5
:103DE0001C4B00221A7000E000BF114B1B78002B07
:103DF0000CD0194B1A7803AB11461846FFF788FC14
:103E00000790079B002B01D0079B0AE00C4B1B6817
:103E1000002B05D00A4B1B680E4A127810469847B3
:103E20000023184609B05DF804FB00BF882F00206E
:103E30008B2F0020892F0020B02F00208C2F0020F6
:103E400054300020B72F00205C3000205E3000206E
:103E50005D3000208A2F0020AC2F002000B583B0F9
:103E60000190019B1B88112B07D01B2B09D0102B15
:103E70000BD10198FFF786FC08E00198FFF792FC50
:103E800004E00198FFF7B4FC00E000BF00BF03B0FE
:103E90005DF804FB75DF704700BF184676DF70479A
:103EA00000BF18467ADF704700BF18467BDF7047B7
:103EB00000BF184682B00190019B5A88074B1B88AF
:103EC0009A4207D3019B5A88044B5B889A4201D8D7
:103ED000012300E00023184602B070477C30002028
:103EE00000B587B00190274B1B884FF6FF729342B5
:103EF00043D0254B1B780133DAB2234B1A70234B86
:103F00001A7B214B1B789A4212D31E4B1B882049E7
:103F10001846FFF7BFFF0590059B002B2DD01B4BCC
:103F20009B69002B29D0194B9B690598984724E081
:103F3000154B00221A70154B1B7C002B11D0114B16
:103F40001B883B211846FFF7A9FF0490049B002B18
:103F500007D00E4B9B69002B03D00C4B9B69049838
:103F600098470A4B5B69002B07D000238DF80C3073
:103F7000064B5B6903AA1046984700BF07B05DF87F
:103F800004FB00BF86300020843000206030002019
:103F90007C30002030B585B001901C4A019B14464E
:103FA0001D460FCD0FC495E8070084E80700184BA5
:103FB00000221A70019B1B68002B0ED0019B1A680F
:103FC000144B1068516803C31248FFF76BFF03904E
:103FD000039B002B0AD0039B15E00E48FFF766FFFA
:103FE0000390039B002B01D0039B0CE00A4B4FF680
:103FF000FF721A80094B00221A70094A00210948F1
:1040000003F014FE0346184605B030BD60300020B2
:10401000B03000207C30002086300020843000202A
:10402000E13E02008C2D030000B585B02548FFF766
:1040300041FF034683F00103DBB2002B2ED0224B5D
:104040001B78002B0CD0214B5B69002B32D0002356
:104050008DF804301D4B5B6901AA1046984729E092
:104060001B4B1B78002B03D1184B5B68039302E0BA
:10407000164B9B680393174B00220399184603F0D5
:1040800005FE0290029B002B14D0104B9B69002B65
:1040900010D00E4B9B69029898470BE00B4B5B6965
:1040A000002B07D001238DF80030084B5B696A466E
:1040B00010469847044B00221A7000BF05B05DF807
:1040C00004FB00BF88300020B030002060300020AA
:1040D000843000209030002000B583B00190019B17
:1040E0009A880B4B1A800B4A019B103393E803000C
:1040F00082E80300084B00221A70084BDB89002B72
:1041000001D1FFF791FF00BF03B05DF804FB00BFD2
:10411000863000208830002084300020603000206D
:1041200000B585B001900D4B4FF6FF721A800C4B15
:1041300000221A700B4B184603F0DAFD0390039B24
:10414000002B07D0084B9B69002B03D0064B9B69C3
:104150000398984700BF05B05DF804FB8630002047
:1041600084300020903000206030002000B585B001
:104170000190019B06330393039B1A88134BDB8941
:104180009A421ED1039B5B89022B1AD1039B0C33ED
:10419000184600F066F80346002B02D0FFF744FFF4
:1041A0000FE00B4B184603F0A3FD0290029B002B7F
:1041B00007D0064B9B69002B03D0044B9B690298E8
:1041C000984700BF05B05DF804FB00BF60300020D9
:1041D0009030002000B583B00190064A019B08335F
:1041E00093E8030082E80300FFF71EFF00BF03B05F
:1041F0005DF804FB8830002000B583B00190019B7E
:104200001B88112B0DD0112B02DC102B05D014E0D4
:10421000122B0ED0502B08D00FE00198FFF75CFF57
:104220000BE00198FFF77CFF07E00198FFF79EFF86
:1042300003E00198FFF7CEFF00BF00BF03B05DF8B9
:1042400004FB82B00190019B1B781AB2019B0133E1
:104250001B781B021BB213431BB29BB2184602B061
:10426000704700B585B001900198FFF7EAFF03465B
:10427000ADF80E30BDF80E3003F00103002B14BF73
:1042800001230023DBB2184605B05DF804FB00B53E
:1042900085B00190009100238DF80F309DF80F300C
:1042A0005A1C8DF80F201A46019B1344009A12786D
:1042B0001A709DF80F305A1C8DF80F201A46019B7A
:1042C0001344009A52781A709DF80F30022B0CBFDD
:1042D00001230023DBB20293029B002B02D10020BA
:1042E00002F046FD9DF80F30184605B05DF804FB5E
:1042F0008FDF704700BF18469EDF704700BF18462B
:10430000ADDF704700BF184682B00190019B9E222E
:104310001A80019B17225A80019B00221A71019B6F
:1043200000225A71019BA2229A71019B1B22DA7111
:1043300000BF02B0704700B587B003460091ADF8EA
:104340000630BDF80630009ADB0013441B7B9BB29D
:10435000ADF80C30BDF80630009ADB0013441B7B2F
:104360009BB2ADF80E300023ADF810300023ADF84D
:10437000123003A9BDF8063000221846FFF7B8FF37
:10438000059000BF07B05DF804FB00B587B0019051
:104390000091009B9B88ADF81630BDF81630DB000D
:1043A000019A134406330493019B1A79049B9A7172
:1043B000009BDB7B012B02D0022B05D009E0019B87
:1043C0001A88049B1A8004E0019B5A88049B1A8077
:1043D00000BF049B1A88049B5B889A4215D9049BF2
:1043E0001A88BDF8163011461846FFF785FF03906E
:1043F000039B002B03D1049B01225A7105E0039B10
:10440000112B02D1049B01221A71049B9A79049BFF
:10441000DB799A4205D9BDF8163001991846FFF7A5
:104420008AFF00BF07B05DF804FB00B583B00190C0
:104430000091009B9B88DB00019A134406331846C9
:10444000FFF762FF00BF03B05DF804FB00B587B063
:1044500001900091009B9B88ADF81630009B5B8912
:10446000ADF81430BDF81630DB00019A1344063362
:104470000493049B1B88BDF81420934228BF134665
:104480009AB2049B5A80049B5B88172B38BF172372
:104490009AB2049B5A80019B9B69002B15D0049B08
:1044A0005B79002B11D040F67723ADF80830BDF8CA
:1044B0001630ADF80A30049B5B88ADF80C30019BD8
:1044C0009B6902AA114601989847049B00225A71E1
:1044D000049B00221A7100BF07B05DF804FB00B511
:1044E00089B001900091009B9B88ADF81A30009B29
:1044F000DB88ADF81830BDF81A30DB00019A1344A0
:1045000006330793BDF81830172B38BF1723ADF8C3
:104510001830079B1B88BDF81820934228BF13460C
:104520009AB2079B5A80079B00221A71079B1A8830
:10453000BDF81A3011461846FFF7E2FE0590079BBA
:104540005B79002B16D1019B9B69002B13D040F6A1
:104550007723ADF80C30BDF81A30ADF80E30079B5C
:104560005B88ADF81030019B9B6903AA1146019846
:10457000984700E000BF09B05DF804FB30B593B088
:1045800001900091009B04AC1D1D0FCD0FC40FCDF9
:104590000FC40FCD0FC42B682360BDF81030ADF8E9
:1045A0004630BDF81420BDF84630D1B2019ADB0088
:1045B00013440A465A73019B9B69002B19D002AB26
:1045C00000221A609A804DF67A23ADF80830BDF8C3
:1045D0004630ADF80A30BDF84630019ADB0013448E
:1045E0005B7B8DF80C30019B9B6902AA11460198F8
:1045F000984700BF13B030BD00B58BB0019000915B
:10460000009B04330793079B1B88DB00019A13442C
:1046100006330993079B9B888DF82330099B9B7970
:104620009DF82320934228BF13468DF81B3003AB1F
:1046300000221A605A609DF81B309BB2ADF80C3016
:104640009DF81B309BB2ADF80E30079B1B8803A969
:1046500000221846FFF74CFE059000BF0BB05DF836
:1046600004FB00B585B001900091019B002B01D1A6
:104670000E231DE0019B009A9A61019B9E221A80E5
:10468000019B9E225A80019BA2221A710023039350
:104690000AE0039BDB00019A134406331846FFF738
:1046A00033FE039B01330393039B012BF1D90023BA
:1046B000184605B05DF804FB82B001900B46ADF8DA
:1046C0000230019B002B01D10E230EE0BDF8023019
:1046D000162B03D9BDF802309E2B01D9072304E025
:1046E000019BBDF802201A800023184602B07047D3
:1046F00000B585B001900091009B9B88ADF80E300D
:10470000BDF80E30012B59D8009B1B88212B26D0D9
:10471000212B04DC102B09D0112B0CD024E03A2BD8
:104720000ED0552B11D0222B14D01DE000990198EA
:10473000FFF72BFE18E000990198FFF776FE13E0D3
:1047400000990198FFF782FE0EE000990198FFF7AB
:10475000C6FE09E000990198FFF710FF04E00099F8
:104760000198FFF749FF00BFBDF80E30019ADB004A
:1047700013449B7A002B22D0BDF80E30019ADB0047
:104780001344DA88BDF80E3011461846FFF7B4FD21
:104790000290029B002B0ED1BDF80E30019ADB0077
:1047A000134400229A72BDF80E30019ADB001344C4
:1047B0000122DA7203E0029B112B00E000BF05B07A
:1047C0005DF804FBA0DF704700BF1846A2DF70470A
:1047D00000BF1846A6DF704700BF184662DF70476B
:1047E00000BF184682B001900091009B9A88019BFF
:1047F0009A8200BF02B0704782B001900091019B85
:104800004FF6FF729A8200BF02B0704700B585B0C4
:1048100001900091009B06330393039B1A88019B30
:104820001B899A4213D1039B5B89022B0FD1039BF7
:104830000C331846FFF715FD0346002B03D0019BF0
:1048400001229A7517E0019B00229A7513E0039BE1
:104850001A88019B9B899A420DD1019B9B69002B71
:1048600009D0019B9B69039A02F10C01039A5289BA
:1048700001989847FFE700BF05B05DF804FB00B55D
:1048800093B0019000910AAB0322002118460CF06E
:10489000B2FE9DF82830012262F303038DF8283020
:1048A0009DF82830012262F307138DF828309DF817
:1048B0002930012262F303038DF829309DF8293055
:1048C000012262F307138DF829309DF82A30012266
:1048D00062F342038DF82A300BAB1C2200211846EC
:1048E0000CF089FE9DF82C3043F010038DF82C302D
:1048F00000230C9300230E9300230F930AAB109315
:1049000000231193019B1B788DF812300323ADF81F
:10491000103003AB0322002118460CF06CFE9DF80A
:104920000C30012262F303038DF80C309DF80C303B
:10493000012262F307138DF80C309DF80D3001222F
:1049400062F303038DF80D309DF80D30012262F300
:1049500007138DF80D309DF80E30012262F34203EB
:104960008DF80E309DF80E306FF3C3038DF80E30C6
:104970009DF80E306FF304138DF80E309DF80E3055
:1049800043F001038DF80E3005AB142200211846C8
:104990000CF031FE04AB059303AB06930123ADF895
:1049A0001C300023ADF81E309B23ADF82030019B56
:1049B0005888019B043305AA0BA9FFF707FF03469C
:1049C000184613B05DF804FB00B591B0019000915A
:1049D00009AB1C22002118460CF00DFE9DF8243076
:1049E00043F008038DF824309DF8243043F004038D
:1049F0008DF8243000230A9300230C9300230D9399
:104A000000230E9300230F93019B1B788DF80E302B
:104A10000223ADF80C3002AB0322002118460CF043
:104A2000EAFD9DF80830012262F303038DF8083097
:104A30009DF80830012262F307138DF808309DF8C5
:104A40000930012262F303038DF809309DF8093023
:104A5000012262F307138DF809309DF80A30012214
:104A600062F342038DF80A309DF80A306FF3C303F6
:104A70008DF80A309DF80A306FF304138DF80A3070
:104A80009DF80A3043F001038DF80A3004AB14227C
:104A9000002118460CF0AFFD03AB049302AB059365
:104AA0000123ADF818300023ADF81A309B23ADF880
:104AB0001C30019B5888019B0C3304AA09A9FFF7FD
:104AC00085FE0346184611B05DF804FB00B583B0BF
