:020000021000EC
:10F000000000012033F10100D9F00100DBF0010024
:10F01000DDF00100DFF00100E1F001000000000080
:10F02000000000000000000000000000E3F001000C
:10F03000E5F0010000000000E7F00100E9F0010048
:10F04000B9330200EDF00100DD52020085DC020060
:10F05000F3F00100F5F00100553D020089AF020018
:10F06000FBF00100FDF00100FFF0010001F10100E3
:10F0700003F1010005F1010007F1010009F10100B0
:10F080000BF10100896202000FF1010011F1010092
:10F09000C962020015F101009D77020019F101001B
:10F0A0001BF101001DF101001FF1010021F1010020
:10F0B000F1A8020025F1010000000000000000009E
:10F0C00027F1010029F101002BF101002DF10100D0
:08F0D0002FF1010031F10100F4
:10F0D800FEE7FEE7FEE7FEE7FEE7FEE7FEE7FEE700
:10F0E800FEE7FEE7FEE7FEE7FEE7FEE7FEE7FEE7F0
:10F0F800FEE7FEE7FEE7FEE7FEE7FEE7FEE7FEE7E0
:10F10800FEE7FEE7FEE7FEE7FEE7FEE7FEE7FEE7CF
:10F11800FEE7FEE7FEE7FEE7FEE7FEE7FEE7FEE7BF
:10F12800FEE7FEE7FEE7FEE7FEE70348854600F058
:10F13800D1F800F003B8704700000120374938487B
:10F148000A1A02D0072291438D46364936480A1AD0
:10F1580006D00722914381F30988022282F314889A
:10F1680032483349334A00F048F833483349344A7F
:10F1780000F043F833483449344A00F03EF8344844
:10F188003449354A00F039F834483549354A00F0F1
:10F1980034F835483549364A00F02FF835483649AD
:10F1A800364A00F02AF836483649374A00F025F83A
:10F1B80036483749002200F02BF8364836490022F5
:10F1C80000F026F835483649091A082903DB0022D9
:10F1D8000260043001601F481F49884205D0026858
:10F1E800043003B4904703BCF7E700208646EC469A
:10F1F800002000212B4A9047FEE7884207D0521A88
:10F2080005D0037801300B700131013AF9D170470C
:10F21800884202D002700130FAE7704700000120EE
:10F2280000FC00200000012000000120A4270300AA
:10F23800F82500203C260020B0F20100B0F20100C1
:10F24800F4070300A4270300F8250020F825002070
:10F25800F4070300F4070300F4070300F4070300AE
:10F26800F4070300F4070300F4070300F40703009E
:10F27800A4270300E82703003C2600203C260020A2
:10F28800E82703003C2600203C2600203C260020DE
:10F298002C4F00202C4F0020344F0020344F0020EA
:08F2A80034530020450B020065
:10F2B00000487047244F00207047704770477047E0
:10F2C0007047704710F0CBBE024B034A1A6000BF74
:10F2D000704700BFF82500200090D00308B500F06B
:10F2E0000DF90346002B06D0744B1B681B0A744AA9
:10F2F00003F01F03136000F02DF90346002B02D02A
:10F30000704B714A1A6000F041F90346002B06D099
:10F310006E4B1B685B0B6E4A03F00703136000F033
:10F3200061F90346002B05D06A4BDB68694A23F07C
:10F330008073D36000F072F90346002B0ED04FF0BB
:10F3400080430022C3F80C214FF080430022C3F811
:10F3500010214FF080430022C3F8382500F08AF9CD
:10F360000346002B02D05C4B03221A6000F09EF98A
:10F370000346002B0BD0594B05221A60584B012233
:10F380001A60584B00221A60574B3F221A6000F057
:10F39000A9F90346002B76D04FF08053534AD3F897
:10F3A0000434C2F820354FF08053504AD3F8083463
:10F3B000C2F824354FF080534C4AD3F80C34C2F8CD
:10F3C00028354FF08053494AD3F81034C2F82C3511
:10F3D0004FF08053454AD3F81434C2F830354FF01B
:10F3E0008053424AD3F81834C2F834354FF0805372
:10F3F0003E4AD3F81C34C2F840354FF080533B4AA4
:10F40000D3F82034C2F844354FF08053374AD3F84C
:10F410002434C2F848354FF08053344AD3F82834A6
:10F42000C2F84C354FF08053304AD3F82C34C2F830
:10F4300050354FF080532D4AD3F83034C2F854354C
:10F440004FF08053294AD3F83434C2F860354FF076
:10F450008053264AD3F83834C2F864354FF08053CD
:10F46000224AD3F83C34C2F868354FF080531F4A23
:10F47000D3F84034C2F86C354FF080531B4AD3F8B0
:10F480004434C2F8703500F049F90346002B05D02A
:10F49000174B1B68174A03F04F031360164BD3F842
:10F4A0008830154A43F47003C2F88830BFF34F8F99
:10F4B000BFF36F8FFFF708FF00BF08BD24030010E4
:10F4C0004035014074C007400DF0ADBA4402001051
:10F4D0003C050040F0ED00E0A00500401056004063
:10F4E00088560040185600401456004000C00040A6
:10F4F00058020010E40E004000ED00E0124B1B68C3
:10F50000DBB2062B1DD1114B1B6803F00F03002B40
:10F5100017D10F4B1B6803F0F003302B01D10123EF
:10F5200010E00B4B1B6803F0F003402B01D10123CB
:10F5300008E0074B1B6803F0F003502B01D10123B7
:10F5400000E0002318467047E00F00F0E40F00F0E1
:10F55000E80F00F00A4B1B68DBB2062B0DD1094BFC
:10F560001B6803F00F03002B07D1074B1B6803F048
:10F57000F003302B01D1012300E00023184670472F
:10F58000E00F00F0E40F00F0E80F00F0124B1B68F2
:10F59000DBB2062B1DD1114B1B6803F00F03002BB0
:10F5A00017D10F4B1B6803F0F003302B01D101235F
:10F5B00010E00B4B1B6803F0F003402B01D101233B
:10F5C00008E0074B1B6803F0F003502B01D1012327
:10F5D00000E0002318467047E00F00F0E40F00F051
:10F5E000E80F00F00A4B1B68DBB2062B0DD1094B6C
:10F5F0001B6803F00F03002B07D1074B1B6803F0B8
:10F60000F003302B01D1012300E00023184670479E
:10F61000E00F00F0E40F00F0E80F00F0124B1B6861
:10F62000DBB2062B1DD1114B1B6803F00F03002B1F
:10F6300017D10F4B1B6803F0F003302B01D10123CE
:10F6400010E00B4B1B6803F0F003402B01D10123AA
:10F6500008E0074B1B6803F0F003502B01D1012396
:10F6600000E0002318467047E00F00F0E40F00F0C0
:10F67000E80F00F00A4B1B68DBB2062B0DD1094BDB
:10F680001B6803F00F03002B07D1074B1B6803F027
:10F69000F003302B01D1012300E00023184670470E
:10F6A000E00F00F0E40F00F0E80F00F00A4B1B68D9
:10F6B000DBB2062B0DD1094B1B6803F00F03002BA7
:10F6C00007D1074B1B6803F0F003302B01D1012356
:10F6D00000E0002318467047E00F00F0E40F00F050
:10F6E000E80F00F00A4B1B68DBB2062B0DD1094B6B
:10F6F0001B6803F00F03002B07D1074B1B6803F0B7
:10F70000F003502B01D1012300E00023184670477D
:10F71000E00F00F0E40F00F0E80F00F0124B1B6860
:10F72000DBB2062B1DD1114B1B6803F00F03002B1E
:10F7300017D10F4B1B6803F0F003302B01D10123CD
:10F7400010E00B4B1B6803F0F003402B01D10123A9
:10F7500008E0074B1B6803F0F003502B01D1012395
:10F7600000E0002318467047E00F00F0E40F00F0BF
:10F77000E80F00F076DF704700BF18467ADF704769
:10F7800000BF18467CDF704700BF18467FDF704718
:10F7900000BF18468ADF704700BF18468FDF7047EA
:10F7A00000BF1846A8DF704700BF1846A9DF7047A2
:10F7B00000BF184669DF704700BF184666DF704714
:10F7C00000BF184682B00190019B1B781AB2019BC2
:10F7D00001331B781B021BB213431BB29BB21846AA
:10F7E00002B070473EDF704700BF184682B00190FC
:10F7F0004FF0A043184602B0704700B585B00190A5
:10F80000084611461A4603468DF803300B468DF81C
:10F81000023013468DF8013001AB1846FFF7E6FFC2
:10F8200003909DF803209DF802305B001A439DF879
:10F8300001309B001A439DF818301B0242EA030175
:10F840009DF81C301B04019A1943039B02F5E072DA
:10F8500043F8221000BF05B05DF804FB00B585B089
:10F8600003900B468DF80B309DF80B20002301937D
:10F87000002300931346002200210398FFF7BDFFE9
:10F8800000BF05B05DF804FB00B585B0019001AB89
:10F890001846FFF7ABFF0390039800F00AF8024602
:10F8A000019B22FA03F303F00103184605B05DF84B
:10F8B00004FB82B00190019BD3F81035184602B0CA
:10F8C000704782B003468DF807309DF80730012B52
:10F8D00003D0022B03D0002B02E000BF00E000BFEA
:10F8E00000BF02B07047000000B585B00190019BD9
:10F8F0001B788DF80F309DF80F30062B3FD801A2F2
:10F9000052F823F021F9010043F901004DF90100FB
:10F9100057F9010061F901006BF9010075F9010067
:10F92000019B1B798DF80E30019B5B88ADF80C3084
:10F93000BDF80C209DF80E301549032007F075FB2B
:10F9400022E01449032007F04BFB1DE0124903207D
:10F9500007F046FB18E01149032007F041FB13E0D4
:10F960000F49032007F03CFB0EE00E49032007F08F
:10F9700037FB09E00C49032007F032FB04E00B4998
:10F98000032007F02DFB00BF00BF05B05DF804FBAE
:10F990000C0803006C0803009C080300CC0803005B
:10F9A000FC080300340903007C090300B0090300CC
:10F9B00000B585B00190019B5B68002B18DD00232A
:10F9C000039307E0029A03990B4810F091F9039B07
:10F9D00001330393019B5B681A46039B934207D252
:10F9E000019B1A68039B9B0013441B680293E9E781
:10F9F00000BF05B05DF804FBE009030000B589B065
:10FA00000190019B5B68002B37DD002307931AE010
:10FA10000023069308E09DF8173019461A4810F0A5
:10FA200067F9069B01330693039B1A46069B934294
:10FA300006D2029A069B13441B788DF81730EAE72A
:10FA4000079B01330793019B5B681A46079B934210
:10FA500013D2019B1968079A13465B0013449B005D
:10FA6000CA1802AB07CA83E807000799074810F0D5
:10FA70003FF9039B002BE3DDCAE7054810F038F996
:10FA800000BF09B05DF804FB180A0300080A030070
:10FA9000200A030010B58CB0019000230B93019B4A
:10FAA0000A9300238DF8273006AB0C22002118465C
:10FAB00010F029FA03AB0C220021184610F023FAAB
:10FAC00051490A9810F06AF90A9072E00B9B002BDA
:10FAD0001CD10A994D4810F00BF94D490A9810F0C5
:10FAE00067FA0346002B03D14A4810F001F90DE0F4
:10FAF00049490A9810F05CFA0346002B03D14748A5
:10FB000010F0F6F802E001238DF827300B9B012B53
:10FB100017D10A993D4810F0EBF80423404A4149B7
:10FB200041480EF0AFFB0346002B0AD13E4B1A684A
:10FB30003D4B5B68591C3C4841609B0013440A9A4A
:10FB40001A600B9B012B28DD102200210A9810F06F
:10FB50005BF90346ADF82430BDF82430BDF824200D
:10FB60001946324810F0C4F803AB03F1080203ABA6
:10FB7000191D03A801230EF085FB0346002B08D1B5
:10FB8000039A049B591C04911344BDF82420D2B25B
:10FB90001A700A991D4810F0ABF81B49002010F0AC
:10FBA000FDF80A909DF82730002B06D10B9B0133FE
:10FBB0000B930A9B002B89D100E000BF0C231C4A49
:10FBC0001C491D480EF05EFB0346002B12D11A4B58
:10FBD0001A68194B5B68591C1748416019460B4657
:10FBE0005B000B449B0013441C4603AB93E80700E7
:10FBF00084E807000C48FFF7DBFE0F48FFF7FEFE26
:10FC0000002318460CB010BD240A0300280A030084
:10FC10002C0A0300340A0300580A0300600A030098
:10FC2000FC360020F8360020F4360020880A030055
:10FC3000F0360020EC360020E836002000B583B016
:10FC40000848FFF7A7FD0190019B0093009B002B44
:10FC500004D0054AFD21009805F054FB00BF03B015
:10FC60005DF804FB380E0300940A030088B00346D5
:10FC7000029101928DF80F3000230793029B1B68BD
:10FC8000069327E0069A079B13441B788DF81730DC
:10FC9000079B0133069A13441B788DF816309DF8A4
:10FCA00016209DF80F309A420ED1079B0233069A18
:10FCB0001A44019B1A609DF817309BB2013B9AB21F
:10FCC000019B9A8000230CE09DF81720079B1344AA
:10FCD00001330793029B9B881A46079B9342D1D31B
:10FCE0000523184608B0704700B589B0019000910F
:10FCF000019B10330593019BDB7BC3F3C403DBB291
:10FD00009BB2ADF8183003AA05AB19460920FFF7DE
:10FD1000ADFF0790079B002B0BD1039BBDF8102074
:10FD2000194600980FF0A8FF0346002B19D10123B4
:10FD300018E003AA05AB19460820FFF797FF0790C4
:10FD4000079B002B01D000230CE0039BBDF8102083
:10FD5000194606480FF090FF0346002B01D10123FE
:10FD600000E00023184609B05DF804FB080E03000C
:10FD700000B58BB001900B46ADF80230019B1033FB
:10FD80000593019BDB7BC3F3C403DBB29BB2ADF8ED
:10FD9000183003AA05AB19460220FFF767FF089049
:10FDA000089B002B0BD003AA05AB19460320FFF7D5
:10FDB0005DFF0890089B002B01D0002320E000236A
:10FDC000099314E0039A099B5B0013441846FFF75C
:10FDD000F9FC0346ADF81E30BDF81E20BDF8023018
:10FDE0009A4201D101230BE0099B01330993BDF82D
:10FDF00010305B089BB21A46099B9342E2D3002362
:10FE000018460BB05DF804FB00B587B00190019B6C
:10FE1000043303934F4B1A784F4B1A70039B0433F0
:10FE20000293039B04334D4A13604C4B1B68013310
:10FE30004B4A1360494B1B6801334A4A13604A4BD3
:10FE400005934A4810F0DBF80346002B7DD0454B64
:10FE50001B680622194646480FF00EFF0346002B8A
:10FE600008D13E4B1B6893F90E300593414B01229C
:10FE70001A705BE03B4B1B68062219463E480FF0A8
:10FE8000FBFE0346002B08D1344B1B6893F90E3060
:10FE90000593384B01221A7048E0384810F0AFF84B
:10FEA0000346002B3DD0039B043334491846FFF72B
:10FEB0001BFF0346002B31D0314B1B7883F001032D
:10FEC000DBB2002B24D02D4B1A462E49032007F01D
:10FED00098F800238DF813300FE0224B1A689DF834
:10FEE000133013441B781A462749132007F089F86A
:10FEF0009DF8133001338DF813309DF81330052B26
:10FF0000EBD92249132007F06BF81D4B01221A7020
:10FF1000124B1B6893F90E30059307E0124B0593C3
:10FF200004E0114B0593134B00221A706FF0270267
:10FF3000059B934206DB074B01221A70144A059B6E
:10FF4000136002E0034B00221A700023184607B02A
:10FF50005DF804FBDC360020E4360020D4360020B7
:10FF6000D8360020D0360020F0D8FFFF080E03005E
:10FF7000280E0300DD360020300E0300BC260020D2
:10FF8000E5360020E40A0300180A03002C0B0300E6
:10FF9000E036002000B587B09DF80030012262F302
:10FFA00003038DF800309DF80030012262F307133F
:10FFB0008DF800301E4810F022F803469AB26B46C6
:10FFC0001B491846FFF7DEFB0590059B0493049B35
:10FFD000002B05D0174A4FF4D471049805F092F91C
:10FFE00001AB0822002118460FF08DFF1023ADF859
:10FFF00004303C23ADF806300023ADF808304FF450
:020000022000DC
:10000000C873ADF80A3001AB1846FFF7B7FB05908F
:10001000059B0393039B002B05D0064A4FF4D9712F
:10002000039805F06FF900BF07B05DF804FB00BF4F
:10003000340B0300940A030000B589B003900291C9
:100040001346ADF806302D49032006F0C9FF02988B
:10005000FFF720FD06904FF48052002128480FF052
:1000600052FFBDF806301A46029925480FF022FFCC
:10007000234B1A462349032006F0C3FF00230793AE
:1000800023E0029A079B13441B78184606F028FBCE
:100090000690069B002B12D0069B112B0FD0069AC0
:1000A0001949012006F0ADFF069B0593059B002B27
:1000B00005D0164A40F2D711059805F023F9069BA2
:1000C000112BDED0079B01330793BDF80630079A4A
:1000D0009A42D6D3BDF80630013B029A13441B78EE
:1000E0000D2B06D100BF0A2006F0FAFA0346112BA9
:1000F000F9D000BF09B05DF804FB00BF400B03005E
:10010000BC260020840B0300B40B0300940A0300F8
:1001100000B585B001AB0422002118460FF0F3FEB4
:100120000D4B019301AB19460C4802F0DFFF039021
:10013000039B0293029B002B05D0094A4FF4F871F0
:10014000029805F0DFF80749032006F049FF00BFD9
:1001500005B05DF804FB00BF390002003C2600201A
:10016000940A0300EC0B030000B585B00190019BDD
:100170001B78002B11D10B4B1B883B211846FFF736
:10018000F9FA0390039B0293029B002B05D0064AC9
:1001900040F20721029805F0B5F800BF05B05DF800
:1001A00004FB00BFFC250020940A030000B583B0C7
:1001B0000190054A40F21221019805F0A3F800BF12
:1001C00003B05DF804FB00BF940A030000B585B0DE
:1001D00001900023039327E0174A039B12F8333062
:1001E000002B1ED0144A039BDB0013445B78C3F33F
:1001F0004603DAB2019B1B78C3F34603DBB29A4293
:100200000FD1039BDB000C4A1344981C019B013364
:10021000062219460FF030FD0346002B01D10123C1
:1002200006E0039B01330393039B012BD4D90023E6
:10023000184605B05DF804FB5826002000B58BB0C9
:1002400001AB1C22002118460FF05DFE0023019334
:100250004FF4203302934FF47023039303238DF85C
:1002600010300023ADF8123000238DF814300C4B01
:1002700006930C4B079301AB184602F033F9099033
:10028000099B0893089B002B05D0074A40F23521B3
:10029000089805F037F800BF0BB05DF804FB00BF0D
:1002A00069010200AD010200940A030082B0034616
:1002B0008DF807309DF80730002B01D0032B00E0AC
:1002C00000BF00BF02B0704710B598B00190019B0D
:1002D0000433179300238DF85B30019B1B88013B8F
:1002E000552B00F2BD8101A252F823F04305020014
:1002F000610602006106020061060200610602005A
:100300006106020061060200610602006106020049
:100310006106020061060200610602006106020039
:100320006106020061060200450402005704020053
:100330006106020069040200610602006106020013
:100340006106020061060200610602006106020009
:10035000610602006106020061060200E10502007A
:1003600061060200610602006106020093040200B9
:1003700061060200610602006106020061060200D9
:1003800061060200610602006106020061060200C9
:1003900061060200610602006106020061060200B9
:1003A00061060200610602006106020061060200A9
:1003B0006106020061060200610602006106020099
:1003C0006106020061060200610602006106020089
:1003D00061060200F30402006106020061060200E9
:1003E0006106020061060200610602006106020069
:1003F0006106020061060200610602006106020059
:100400006106020061060200610602006106020048
:100410006106020061060200610602006106020038
:100420006106020061060200610602006B0502001F
:10043000C9040200610602006106020061060200B2
:100440001B050200019B9A888F4B1A808F4903205D
:1004500006F0C6FD15E18C4B4FF6FF721A808C49F1
:10046000032006F0BDFD0CE1874B18880023002215
:100470008521FFF78BF91590159B1493149B002B86
:1004800000F0F080834A4FF42171149804F03AFF91
:10049000E8E00BAB0822002118460FF034FD019B69
:1004A0009B880BA900221846FFF778F91590159B39
:1004B0001393139B002B00F0D780764A40F28E21D5
:1004C000139804F01FFFCFE06F4B18880023002221
:1004D0000021FFF76BF91590159B1293129B002BCF
:1004E00000F0C4806B4A4FF42571129804F00AFFA3
:1004F000BCE0019B9B8813211846FFF73BF9159040
:10050000159B1193119B002B00F0B280614A40F2C1
:100510009B21119804F0F6FEAAE0019B9B88132111
:100520001846FFF727F91590159B1093109B002B89
:1005300000F0A080574A40F2A221109804F0E2FE99
:1005400098E0019B9B8800211846FFF737F915902A
:10055000159B0F930F9B002B00F08E804D4A40F2AD
:10056000A7210F9804F0CEFE86E0019B07AC06336E
:10057000186859689A68DB680FC49DF81C30002B16
:100580007CD09DF82430042B07D09DF82430062B16
:1005900003D09DF82430052B70D19DF81C30022B20
:1005A00003D102238DF80C3002E001238DF80C30CA
:1005B0004FF4C173ADF81030019B9B8803AA11461C
:1005C0001846FFF7EFF81590159B0E930E9B002B26
:1005D00054D0304A40F2C2210E9804F093FE4DE010
:1005E00000238DF837300198FFF70EFC03468DF895
:1005F0005B30179B04331846FFF7E8FD0346002BDA
:1006000004D02549032006F0EBFC3AE023480FF024
:10061000F6FC0346002B10D0179B04331F491846E5
:10062000FFF762FB0346002B2AD01D49032006F08A
:10063000D7FC01238DF8373022E0179B04330121CA
:100640001846FFF795FB0346002B19D00E4B1B886D
:100650004FF6FF72934213D101238DF837300FE02C
:1006600000BF0EE000BF0CE000BF0AE000BF08E0E2
:1006700000BF06E000BF04E000BF02E000BF00E0F2
:1006800000BF00BF18B010BDFC2500201C0C0300EB
:10069000340C0300940A03004C0C0300140E0300F6
:1006A000840C030000B583B00190019802F04CF86F
:1006B00001990A4802F0F6FA0199094802F0E8FCAB
:1006C0000198FFF701FE019801F070FE019800F01B
:1006D000C1FC00BF03B05DF804FB00BF682600202A
:1006E0003C26002000B58FB0554B1B68049304A82E
:1006F0000023D822534906F0E9FF0D900D9B0C937F
:100700000C9B002B05D0504A40F205310C9804F0A8
:10071000F9FD0023039303AB184607F077F80B901D
:100720000B9B0A930A9B002B05D0474A40F20A31E3
:100730000A9804F0E7FD6B460C22002118460FF0E2
:10074000E2FB01238DF8003000238DF801300023F7
:100750008DF80230039A6B4619464020FFF72AF8BD
:100760000B900B9B0993099B002B05D0364A40F256
:100770001531099804F0C6FD6B460C22002118467D
:100780000FF0C1FB01238DF800309E23ADF802303D
:10079000039A6B4619462320FFF70CF80B900B9B2E
:1007A0000893089B002B05D0274A4FF447710898FF
:1007B00004F0A8FD6B460C22002118460FF0A3FBA5
:1007C00001238DF800304FF4A073ADF804300123FD
:1007D0008DF80230039A6B4619462020FEF7EAFF97
:1007E0000B900B9B0793079B002B05D0164A4FF4E9
:1007F0004971079804F086FD03AB184607F016F818
:100800000B900B9B0693069B002B05D00E4A4FF4D2
:100810004A71069804F076FD0C4806F0AFFF0B9085
:100820000B9B0593059B002B05D0074A4FF44B719A
:10083000059804F067FD00BF0FB05DF804FB00BF32
:10084000B40C030010370020940A0300A506020030
:1008500000B583B001900091009B5A880E4B1B8815
:100860009A4214D1009B1B8840F6772293420ED106
:10087000009B9B88033B9AB2084B1A80074B1B884E
:100880001A46064B1B880649032006F0CEFB00BF24
:1008900003B05DF804FB00BFFC2500200426002007
:1008A000B80C030000B585B01149124802F0B2F946
:1008B0000390039B0293029B002B05D00E4A40F24B
:1008C0004231029804F01EFD40210A4802F0CDF9A1
:1008D0000390039B0193019B002B05D0064A40F235
:1008E0004531019804F00EFD00BF05B05DF804FB32
:1008F0005108020068260020940A030000B585B064
:100900000190019B1B78012B51D0022B46D0002B6C
:1009100056D12F4B1B781A462E4B1344184605F020
:10092000ADFE2B4B1B780133DAB2294B1A702A49E2
:10093000032006F055FB264B1B78013B254AD35C70
:100940000A2B06D0224B1B789AB2244B1B889A4262
:1009500038D32349032006F043FB1D4B1B789BB281
:100960001A461C491F4802F019FC0390039B082BF0
:100970000DD0039B112B0AD0039B0293029B002BEB
:1009800005D0194A4FF46371029804F0BBFC039B35
:10099000112BE2D00E4B00221A7013E0019B5B6812
:1009A000114A40F29531184604F0ACFC0BE0019B73
:1009B0005B680D4A40F29931184604F0A3FC02E04E
:1009C00000BF00E000BF00BF05B05DF804FB00BF42
:1009D000E8370020EC370020E00C0300042600205C
:1009E0001C0D03003C260020940A030030B58DB096
:1009F000134B04AC1D460FCD0FC495E8030084E8EB
:100A00000300104B00934FF4807301930E4B02933D
:100A10004FF480730393694604A807230B4A05F03B
:100A200099FD0B900B9B0A930A9B002B05D0084A5B
:100A300040F2BA310A9804F065FC00BF0DB030BD39
:100A4000480D03008838002088390020FD08020086
:100A5000940A030000B5ABB019AB3C220021184644
:100A60000FF051FA02238DF8643000238DF86630C0
:100A700005238DF867300AAB3C22002118460FF0A1
:100A800042FA0123ADF83830144B0F9302AB202209
:100A9000002118460FF037FA01238DF80B30402360
:100AA0000693B423079302AA0AA919A80023009366
:100AB0000B4B01F08DFA2990299B2893289B002B42
:100AC00005D0084A4FF47671289804F01BFC0120E9
:100AD00001F070FA00BF2BB05DF804FB0026002087
:100AE000AD020200940A030000B583B0002006F0B6
:100AF00021FA0190019B0093009B002B05D0054A31
:100B000040F2E331009804F0FDFB00BF03B05DF854
:100B100004FB00BF940A030000B583B0FEF762FE39
:100B20000190019B0093009B002B05D0044A4FF4D9
:100B30007B71009804F0E6FB00BF03B05DF804FB96
:100B4000940A030000B589B00C220021AF480FF0D1
:100B5000DAF90C220021AE480FF0D5F90C22002161
:100B6000AC480FF0D0F90123AB4AAC49A9480DF0CD
:100B700089FB0346002B09D1A64B1A68A54B5B687D
:100B8000591CA44841601344B0221A700123A24AA0
:100B9000A249A0480DF076FB0346002B09D19D4BDE
:100BA0001A689C4B5B68591C9A4841601344912217
:100BB0001A700123984A994996480DF063FB034641
:100BC000002B09D1934B1A68924B5B68591C9148D2
:100BD0004160134422221A7001238F4A8F498D48A5
:100BE0000DF050FB0346002B09D18A4B1A68894B44
:100BF0005B68591C874841601344F7221A7001232F
:100C0000854A864983480DF03DFB0346002B09D1F8
:100C1000804B1A687F4B5B68591C7E4841601344C7
:100C20006D221A7001237C4A7C497A480DF02AFB18
:100C30000346002B09D1774B1A68764B5B68591C29
:100C400074484160134455221A70754A3C210820AB
:100C500004F0D0FC0790079B0693069B002B05D061
:100C6000704A40F20641069804F04CFB05F032FB56
:100C70000590059B0493049B002B05D0694A4FF413
:100C80008161049804F03EFBFFF7B0FEFFF72CFFF4
:100C9000FFF728FDFFF77EF9FFF704FEFFF738FAAC
:100CA000FFF7D8FEFFF7CAFA5F480FF021F85F4957
:100CB000032006F095F9032001F08EFA0590059BBC
:100CC0000393039B002B05D0564A40F2174103982B
:100CD00004F018FBFEF7B2FF0DF086FC022303219F
:100CE000534A18460DF026FD52480DF003FC524AB7
:100CF000524953480DF0F8FA4D4B9A78514B1A70FF
:100D00005149032006F06CF903210B20FEF7A6FDE4
:100D1000022100200BF02AF8022101200BF026F816
:100D2000022102200BF022F8022103200BF01EF812
:100D300004F026FD0B20FEF7A7FD0346002B0CBF99
:100D400001230023DBB21A46404B1A6040490020C1
:100D50000BF0BEF902903F4901200BF0B9F9029067
:100D60003D4902200BF0B4F902903C4903200BF0FE
:100D7000AFF90290354B1B68012B0DD1354B1B6829
:100D8000012B09D12F4B1B78013B354A13603549A4
:100D9000002007F07DFB28E02C4B1B68002B0DD1B9
:100DA0002C4B1B68002B09D1264B1B7801332C4A96
:100DB00013602D49002007F06BFB16E0234B1B68E6
:100DC000012B12D1234B1B68002B0ED12749002089
:100DD00007F05EFB4FF47A7300934FF4FA73052229
:100DE000322140F6C4100DF03FFB214B1B78002B45
:100DF00044D0204B1B7883F00103DBB2002B3DD0A5
:100E00001D49002007F044FB45E000BFE836002004
:100E1000F436002000370020083700200437002077
:100E2000883A0020940A0300A40D0300B40D0300C7
:100E300084260020C3F80100B0260020E9F8010054
:100E4000E093040006260020CC0D0300BC360020F1
:100E5000C0360020C4360020C8360020CC36002022
:100E60000C370020000803000808030004080300F2
:100E7000DD360020DC360020F8070300154B1B7818
:100E8000002B04D01449002007F002FB03E01349B3
:100E9000002007F0FDFA124B1B68FE2B03DD114BFF
:100EA000FF221A700CE00E4B1B68002B03DC0D4B6D
:100EB00000221A7004E00A4B1B68DAB2094B1A7060
:100EC000084B1B781946084808F0A3FD0590FFF76A
:100ED00023FE2DE7DC360020FC070300F4070300A7
:100EE0000C370020062600208426002084B00190C4
:100EF0000B468DF8033013468DF802300023039320
:100F0000019B002B3CD19DF80230012B0BD19DF8A9
:100F10000330012B04D1019BDBB20E33DBB200E0C6
:100F200000238DF802309DF80330012B04D0022BF2
:100F30000CD0002B15D01FE01449019A13465B001A
:100F400013440B449DF802201A701BE00F49019ACC
:100F500013465B0013440B4401339DF802201A70C2
:100F600010E00A49019A13465B0013440B44023314
:100F70009DF802201A7005E00723039300BF01E0EB
:100F800007230393039B184604B07047583E002084
:100F900000B583B0012200210020FFF7A7FF0190D8
:100FA000019B002B04D0019B072B01D0019B1CE06F
:100FB000072202210120FFF799FF0190019B002BDE
:100FC00004D0019B072B01D0019B0EE004220221DB
:100FD0000020FFF78BFF0190019B002B04D0019BA9
:100FE000072B01D0019B00E00023184603B05DF8F9
:100FF00004FB00B583B0012202210020FFF776FF39
:101000000190019B002B04D0019B072B01D0019B79
:101010001CE0072202210120FFF768FF0190019BDD
:10102000002B04D0019B072B01D0019B0EE00A226C
:1010300000210020FFF75AFF0190019B002B04D0F4
:10104000019B072B01D0019B00E00023184603B051
:101050005DF804FB00B585B00190019B1B88102B47
:1010600002D0112B18D02FE0194B1B68002B0DD18B
:10107000FFF78EFF0390039B002B07D0154B1B68D7
:10108000002B03D0134B1B6803989847104B1B6829
:1010900001330F4A136017E00D4B1B68013B0C4AEC
:1010A00013600B4B1B68002B0DD1FFF7A2FF0390C1
:1010B000039B002B07D0074B1B68002B03D0054B6D
:1010C0001B680398984700BF00BF05B05DF804FB9C
:1010D000603E00205C3E00206DDF704700BF184678
:1010E00072DF704700BF184679DF704700BF1846AF
:1010F0007DDF704700BF184664DF704700BF1846A9
:1011000082B003460091ADF80630BDF80630DAB281
:10111000009B1A70BDF806301B0A9AB2009B01337F
:10112000D2B21A700223184602B0704700B589B0D7
:10113000039002911346ADF80630029B1B8803F121
:101140000902BDF806309A4201D90C2351E005ABE3
:101150001846FFF7C1FF0790079B002B01D0079BA4
:1011600047E0029B1B881A46039B134408221A700F
:10117000029B1B8801339AB2029B1A80029B1B8838
:101180001A46039B13441B221A70029B1B880133CF
:101190009AB2029B1A80029B1B881A46039B9818DE
:1011A00005AB0133062219460EF084FE029B1B8814
:1011B00006339AB2029B1A809DF8143023F0010383
:1011C000DBB2002B07D1029B1B881A46039B1344FA
:1011D00000221A7006E0029B1B881A46039B1344E8
:1011E00001221A70029B1B8801339AB2029B1A805B
:1011F0000023184609B05DF804FB00B589B00390E0
:1012000002910192ADF80230039B1B78012B05D1AE
:10121000039B5B78002B01D1072389E0019B1B888E
:101220009A1CBDF802309A420ED8039B1B78012B02
:101230000CD1019B1B881A46039B5B7813449A1CB4
:10124000BDF802309A4201D90C2371E0019B1B8842
:10125000BDF80220D31A9BB2023BADF81C30BDF89A
:101260001C30ADF81630019B1B880233029A1344E0
:101270000DF1160211461846FFF73AFF0690069B3D
:10128000002B01D0069B53E0039B1B78022B09D156
:10129000BDF81630BDF81C209A4203D309238DF8FF
:1012A0001F3017E008238DF81F30039B1B78012B9C
:1012B0000CD1039B5B789BB2BDF81C209A4205D3EE
:1012C000039B5B789BB2ADF8163003E0BDF81C3091
:1012D000ADF81630BDF81630FE2B01D90C2327E0EF
:1012E000BDF81630DAB2019B1B881946029B0B44ED
:1012F0000132D2B21A70019B1B8801339AB2019B52
:101300001A80019B1B881A46029B13449DF81F20DC
:101310001A70019B1B8801339AB2019B1A80019BB2
:101320001A88BDF8163013449AB2019B1A80002324
:10133000184609B05DF804FB00B587B00390029130
:101340001346ADF80630029B1B881A1DBDF8063007
:101350009A4201D90C2339E00DF112031846FFF728
:10136000C3FE0590059B002B01D0059B2EE0029B40
:101370001B881A46039B134403221A70029B1B8886
:1013800001339AB2029B1A80029B1B881A46039B68
:10139000134419221A70029B1B8801339AB2029BD4
:1013A0001A80BDF81220029B1B881946039B0B4430
:1013B00019461046FFF7A4FE03461946029B1A88F9
:1013C0008BB213449AB2029B1A800023184607B0CE
:1013D0005DF804FB84B0029101921A4603468DF831
:1013E0000F301346ADF80C30019B1B88DA1CBDF89A
:1013F0000C309A4201D90C2328E0019B1B881A4625
:10140000029B134402221A70019B1B8801339AB27B
:10141000019B1A80019B1B881A46029B13440122E0
:101420001A70019B1B8801339AB2019B1A80019BA1
:101430001B881A46029B13449DF80F201A70019BCB
:101440001B8801339AB2019B1A800023184604B00E
:10145000704784B0029101921A4603468DF80F300E
:101460001346ADF80C30019B1B88DA1CBDF80C301C
:101470009A4201D90C2328E0019B1B881A46029B43
:10148000134402221A70019B1B8801339AB2019BFC
:101490001A80019B1B881A46029B13440A221A7069
:1014A000019B1B8801339AB2019B1A80019B1B8808
:1014B0001A46029B13449DF80F201A70019B1B884B
:1014C00001339AB2019B1A800023184604B070477A
:1014D00000B58BB0039001930B468DF80B3013468B
:1014E0008DF80A3000238DF823300C9B1B88ADF853
:1014F0002030002309936DE0039B5A68099B9B00F1
:101500001A4404AB106818600DF1170104AB0022F7
:101510001846FFF7F1FD0790079B002B01D0079BB2
:101520007AE09DF817309DF80A209A424FD19DF835
:101530002330002B01D0002300E002238DF81B3064
:101540000C9B1B881A469DF817301A449DF81B30D7
:101550001A44BDF834309A4201DD0C235CE09DF85A
:10156000233083F00103DBB2002B16D00C9B1B88C9
:1015700001339AB20C9B1A800C9B1B881A46019B64
:1015800013449DF80B201A700C9B1B8801339AB2F0
:101590000C9B1A8001238DF823300C9B1B881A4664
:1015A000019B1A440DF1170104AB1846FFF7A4FD87
:1015B0000790079B002B01D0079B2DE00C9B1A88FE
:1015C0009DF817309BB213449AB20C9B1A80099B6A
:1015D00001330993039B1B881A46099B93428BDBBB
:1015E0009DF82330002B16D00C9B1A88BDF82030B4
:1015F000D31A9BB2013BADF81830BDF81830FF2B61
:1016000001D90C2308E0BDF82030019A1344BDF83D
:101610001820D2B21A70002318460BB05DF804FBF4
:1016200000B589B0059003930B468DF8133013462F
:101630008DF812309DF81310BDF82C3001930A9BE1
:101640000093039B02220598FFF742FF0790079B38
:10165000002B01D0079B12E09DF81210BDF82C3032
:1016600001930A9B0093039B10220598FFF730FF1C
:101670000790079B002B01D0079B00E00023184632
:1016800009B05DF804FB82B00190019B1B88052B1B
:101690000AD9019B1B88B3F5486F07D9019B1B88AA
:1016A0004FF6FF72934201D0072325E0019B5B8830
:1016B000052B0AD9019B5B88B3F5486F07D9019BBD
:1016C0005B884FF6FF72934201D0072314E0019B21
:1016D0001B884FF6FF7293420DD0019B5B884FF63B
:1016E000FF72934207D0019B1A88019B5B889A4244
:1016F00001D9072300E00023184602B0704700B567
:1017000087B0039002910192ADF80230019B1B88D3
:101710009A1DBDF802309A4201D90C234BE0039880
:10172000FFF7B1FF0590059B002B01D0059B42E020
:10173000019B1B881A46029B134405221A70019BC9
:101740001B8801339AB2019B1A80019B1B881A46A1
:10175000029B134412221A70019B1B8801339AB218
:10176000019B1A80039B1A88019B1B881946029BC8
:101770000B4419461046FFF7C3FC03461946019B6C
:101780001A888BB213449AB2019B1A80039B5A8821
:10179000019B1B881946029B0B4419461046FFF714
:1017A000AFFC03461946019B1A888BB213449AB2C8
:1017B000019B1A800023184607B05DF804FB00B5B2
:1017C00087B0039002910192ADF80230039B9B8891
:1017D00002330593019B1B881A46059B13449A1CF0
:1017E000BDF802309A4201D90C2354E0059BFE2B30
:1017F00001D90C234FE0059BDAB2019B1B881946E7
:10180000029B0B440132D2B21A70019B1B88013338
:101810009AB2019B1A80019B1B881A46029B1344B3
:10182000FF221A70019B1B8801339AB2019B1A8018
:10183000039B1A88019B1B881946029B0B4419467F
:101840001046FFF75DFC03461946019B1A888BB2D0
:1018500013449AB2019B1A80039B9B88002B19D0DA
:10186000039B9B68002B01D1072314E0019B1B887D
:101870001A46029B9818039B9968039B9B881A46FB
:101880000EF018FB019B1A88039B9B8813449AB2A5
:10189000019B1A800023184607B05DF804FB00B5D1
:1018A00089B0039002910192ADF80230039B9B6ACC
:1018B000002B01D1072372E000238DF81F3066E072
:1018C000039B996A9DF81F2013465B0013449B00FD
:1018D0000B440693069B9B8802330593059BFE2BC6
:1018E00001D90C235BE0059BDAB2019B1B881946EA
:1018F000029B0B440132D2B21A70019B1B88013348
:101900009AB2019B1A80019B1B881A46029B1344C2
:1019100016221A70019B1B8801339AB2019B1A8010
:10192000069B1A88019B1B881946029B0B4419468B
:101930001046FFF7E5FB03461946019B1A888BB258
:1019400013449AB2019B1A80069B9B88002B19D0E6
:10195000069B9B68002B01D1072320E0019B1B887D
:101960001A46029B9818069B9968069B9B881A4604
:101970000EF0A0FA019B1A88069B9B8813449AB22A
:10198000019B1A809DF81F3001338DF81F30039B97
:1019900093F82C309DF81F209A4291D300231846CB
:1019A00009B05DF804FB00B589B00590049103927D
:1019B00000230793039B1B88ADF81A30039B00227A
:1019C0001A80059B93F82D30002B0CD0BDF81A30EF
:1019D0001A4603990498FFF7A9FB0790079B002B71
:1019E00001D0079BC4E0059B9B78002B0CD0BDF871
:1019F0001A301A4603990498FFF79EFC0790079B3C
:101A0000002B01D0079BB3E0059BDB78002B0ED0A9
:101A1000059BDB7858B2BDF81A30039A0499FFF79A
:101A2000D9FC0790079B002B01D0079BA0E0059BEA
:101A30005B68002B0FD0059B5B6893F90000BDF835
:101A40001A30039A0499FFF704FD0790079B002BB7
:101A500001D0079B8CE0059B1B89002B12D0059BB6
:101A600003F10800BDF81A300193039B0093049B17
:101A700006220221FFF7D4FD0790079B002B01D01F
:101A8000079B75E0059B1B8A002B12D0059B03F179
:101A90001000BDF81A300193039B0093049B0722AA
:101AA0000321FFF7BDFD0790079B002B01D0079B8B
:101AB0005EE0059B1B8B002B12D0059B03F11800E9
:101AC000BDF81A300193039B0093049B1522142147
:101AD000FFF7A6FD0790079B002B01D0079B47E06F
:101AE000059B1B6A002B0DD0059B186ABDF81A30A8
:101AF000039A0499FFF703FE0790079B002B01D080
:101B0000079B35E0059B5B6A002B0DD0059B586A4F
:101B1000BDF81A30039A0499FFF751FE0790079B0E
:101B2000002B01D0079B23E0059B93F82C30002B62
:101B30000CD0BDF81A30039A04990598FFF7AFFE50
:101B40000790079B002B01D0079B11E0059B1B789A
:101B5000002B0CD0BDF81A30039A04990598FFF7B2
:101B60004CFB0790079B002B01D0079B00E0079BD5
:101B7000184609B05DF804FB82B00190019BDB7848
:101B800003F00403002B01D1072300E000231846D3
:101B900002B0704782B00190019BDB78002B01D02E
:101BA000072300E00023184602B0704700B597B045
:101BB000019000911F23ADF84A301F23ADF8483043
:101BC000019B002B18D00198FFF7D6FF1390139BB1
:101BD000002B01D0139B3FE00DF14A020AAB1946DE
:101BE0000198FFF7E0FE1390139B002B01D0139B8D
:101BF00032E00AAB159304E0002315930023ADF8FF
:101C00004A30009B002B17D00098FFF7C3FF1390BA
:101C1000139B002B01D0139B1EE012AA02AB1946A6
:101C20000098FFF7C0FE1390139B002B01D0139B6D
:101C300012E002AB149304E0002314930023ADF8E8
:101C40004830BDF84A30D9B2BDF84830DBB2149AFA
:101C50001598FFF745FA0346184617B05DF804FBE0
:101C600073DF704700BF1846014B1B78184670475A
:101C70003A3F002084B00190002303930AE0019AC8
:101C8000039B13441B78002B01D0012306E0039B28
:101C900001330393039B052BF1D90023184604B0AD
:101CA0007047000082B003468DF807309DF807307A
:101CB0005A1C074B83FB02135910D317C91A0B4642
:101CC0009B000B44D11ACBB2184602B0704700BF3C
:101CD0006766666682B00190019BDB7B012B03D1B6
:101CE000019B9A88024B1A8000BF02B0704700BF68
:101CF0002C3F002000B585B001900E4B00221A70D9
:101D0000019B9A880C4B1B889A420ED1012000F04F
:101D100063FA0390039B002B07D0084B1B68002B32
:101D200003D0064B1B680398984700BF05B05DF8C9
:101D300004FB00BF383F00202C3F0020343F002030
:101D400000B585B00190019B1B7A002B15D10D4B7E
:101D50001B781846FFF7A6FF0346184600F03CFA2A
:101D60000390039B002B09D0074B1B68002B05D069
:101D7000054B1B680398984700E000BF05B05DF86D
:101D800004FB00BF673E0020343F002000B583B055
:101D900001AB184604F09EFD019B002B14BF0123EC
:101DA0000023DBB2184603B05DF804FB00B585B034
:101DB00003468DF807301E48FFF75CFF03468DF899
:101DC0000F309DF80730013B032B2BD801A252F8AE
:101DD00023F000BFE51D0200F91D02000D1E0200E8
:101DE000191E0200134B5B78002B05D09DF80F30B5
:101DF000002B01D0012316E00E4B9B78002B05D061
:101E00009DF80F30002B01D002230CE0094BDB784A
:101E1000002B01D0032306E0064B1B79002B01D0D9
:101E2000042300E00023184605B05DF804FB00BF62
:101E30008D3E0020683E002082B00190094B0122B7
:101E40001A70019B084A5A60019B01221A70019B7B
:101E500000229A81019B00225A810023184602B079
:101E6000704700BF663E00208C3E002082B001908B
:101E70000B4B02221A70019B0A4A5A60019B0122F5
:101E80001A70094BDB689AB2019B9A81064B9B68DA
:101E90009AB2019B5A810023184602B0704700BFD6
:101EA000663E00208C3E0020683E002000B585B0D4
:101EB00001901B4B1B699AB2019B5A81184B5B69BD
:101EC0009AB2019B9A81164B1B78002B1FD0154BA1
:101ED0001B7883F00103DBB2002B18D0FFF7C4FEA0
:101EE0000346002B13D0019B02221A720E4B0422D0
:101EF000DA7000210C48FFF759FE0390039B002B7A
:101F000001D0039B07E0094B05221A7002E0074B42
:101F100003221A700023184605B05DF804FB00BFC9
:101F2000683E0020383F0020943E0020663E00209E
:101F300000B585B001901B4B9B699AB2019B5A81F9
:101F4000184BDB699AB2019B9A81164B1B78002BC8
:101F50001FD0154B1B7883F00103DBB2002B18D088
:101F6000FFF782FE0346002B13D0019B02221A7258
:101F70000E4B0422DA7000210C48FFF717FE039085
:101F8000039B002B01D0039B07E0094B06221A702C
:101F900002E0074B04221A700023184605B05DF8D2
:101FA00004FB00BF683E0020383F0020943E002024
:101FB000663E002082B003468DF80730034A9DF844
:101FC0000730137000BF02B0704700BF883E00208A
:101FD00030B589B00390029101920093039B002BCE
:101FE00002D0019B002B01D10E23D5E06C4B0122C6
:101FF0001A706C4B00221A706B4A019B14461D46E6
:102000000FCD0FC495E80F0084E80F00674B002246
:102010001A70674A009B1360664A0C9B1360664BFC
:102020004FF6FF721A800722002164480DF06BFF03
:102030003C22002162480DF066FF039B1A78604B3A
:102040001A70039B9A785E4B9A70039BDA785C4B0C
:10205000DA70039B5A785A4B5A70594B039A1033D3
:10206000103292E8030083E80300554B039A0833CB
:10207000083292E8030083E80300514B039A1833B7
:10208000183292E8030083E80300039B5B6A002B8D
:1020900029D04B4B4B4A5A624A4B4B4A9A60039B9E
:1020A0005A6A474B5B6A12881A80039B5A6A444BF0
:1020B0005B6A92889A80002307930DE0039B5B6A1A
:1020C0009A68079B134419783F4A079B13440A46B2
:1020D0001A70079B01330793394B5B6A9B881A463A
:1020E000079B9342EAD3039B9B6A002B33D0374B69
:1020F000374A9A60324B354A9A62314B9B6A344A6E
:102100009A60039B9A6A2E4B9B6A92889A80039BE3
:102110009A6A2B4B9B6A12881A80002306930DE063
:10212000039B9B6A9A68069B13441978284A069B6E
:1021300013440A461A70069B01330693204B9B6A90
:102140009B881A46069B9342EAD3039B93F82C2064
:102150001B4B83F82C20039B1B6A002B0ED0184BC3
:102160001C4A1A62039B1A6A154B1B6A52885A80D2
:10217000039B1A6A124B1B6A12881A80039B5B68C6
:10218000002B03D0039B5B680D4A536002990C48F7
:10219000FFF70CFD0590059B184609B030BD00BF48
:1021A000643E0020673E0020683E0020883E0020FC
:1021B000303F0020343F00202C3F00208C3E002088
:1021C000943E0020D03E0020DC3E0020FC3E00205B
:1021D000083F0020283F002000B589B003468DF855
:1021E0000730664B1B7883F00103DBB2002B01D074
:1021F0000823BEE0624A9DF807301370FFF7C6FD62
:102200000346002B04D05F4B01221A700023B0E07C
:10221000072200215C480DF076FE5C4B5B78002BBA
:1022200003D0574B1B78012B0FD0584B9B78002BBA
:1022300003D0534B1B78012B07D0544B9B78002BBA
:1022400012D04F4B1B78022B0ED1514B1B68002B29
:1022500007D0504B01221A704D4B1B68082098473D
:1022600002E04C4B00221A709DF807301846FFF729
:102270009DFD03461A46424B1A70454B1B68002BC6
:102280001DD03F4B1B78032B03D03D4B1B78042BF9
:1022900015D13E4B1B78002B11D03F4B1B7883F0A0
:1022A0000103DBB2002B0AD03C4B00221A703C4BDE
:1022B00001221A70364B1B680720984702E0384B02
:1022C00000221A7003AB1022002118460DF01BFEED
:1022D00000238DF80C3000238DF81430284B1B7828
:1022E000042B29D801A252F823F000BF31230200A9
:1022F000012302000D2302001923020025230200FE
:1023000003AB1846FFF798FD079016E003AB18469D
:10231000FFF7ACFD079010E003AB1846FFF7C6FDD2
:1023200007900AE003AB1846FFF702FE079004E0AF
:102330001C4B00221A7000E000BF114B1B78002BD1
:102340000CD0194B1A7803AB11461846FFF788FCDE
:102350000790079B002B01D0079B0AE00C4B1B68E2
:10236000002B05D00A4B1B680E4A1278104698477E
:102370000023184609B05DF804FB00BF643E00204E
:10238000673E0020653E00208C3E0020683E002015
:10239000303F0020933E0020383F00203A3F00208D
:1023A000393F0020663E0020883E002000B583B003
:1023B0000190019B1B88112B07D01B2B09D0102BE0
:1023C0000BD10198FFF786FC08E00198FFF792FC1B
:1023D00004E00198FFF7B4FC00E000BF00BF03B0C9
:1023E0005DF804FB75DF704700BF184676DF704765
:1023F00000BF18467ADF704700BF18467BDF704782
:1024000000BF184682B00190019B5A88074B1B8879
:102410009A4207D3019B5A88044B5B889A4201D8A1
:10242000012300E00023184602B07047583F002007
:1024300000B587B00190274B1B884FF6FF7293427F
:1024400043D0254B1B780133DAB2234B1A70234B50
:102450001A7B214B1B789A4212D31E4B1B882049B2
:102460001846FFF7BFFF0590059B002B2DD01B4B97
:102470009B69002B29D0194B9B690598984724E04C
:10248000154B00221A70154B1B7C002B11D0114BE1
:102490001B883B211846FFF7A9FF0490049B002BE3
:1024A00007D00E4B9B69002B03D00C4B9B69049803
:1024B00098470A4B5B69002B07D000238DF80C303E
:1024C000064B5B6903AA1046984700BF07B05DF84A
:1024D00004FB00BF623F0020603F00203C3F002023
:1024E000583F002030B585B001901C4A019B14462E
:1024F0001D460FCD0FC495E8070084E80700184B70
:1025000000221A70019B1B68002B0ED0019B1A68D9
:10251000144B1068516803C31248FFF76BFF039018
:10252000039B002B0AD0039B15E00E48FFF766FFC4
:102530000390039B002B01D0039B0CE00A4B4FF64A
:10254000FF721A80094B00221A70094A00210948BB
:1025500003F0F4FE0346184605B030BD3C3F0020B2
:102560008C3F0020583F0020623F0020603F002049
:1025700031240200400E030000B585B02548FFF766
:1025800041FF034683F00103DBB2002B2ED0224B28
:102590001B78002B0CD0214B5B69002B32D0002321
:1025A0008DF804301D4B5B6901AA1046984729E05D
:1025B0001B4B1B78002B03D1184B5B68039302E085
:1025C000164B9B680393174B00220399184603F0A0
:1025D000E5FE0290029B002B14D0104B9B69002B50
:1025E00010D00E4B9B69029898470BE00B4B5B6930
:1025F000002B07D001238DF80030084B5B696A4639
:1026000010469847044B00221A7000BF05B05DF8D1
:1026100004FB00BF643F00208C3F00203C3F0020B3
:10262000603F00206C3F002000B583B00190019B0B
:102630009A880B4B1A800B4A019B103393E80300D6
:1026400082E80300084B00221A70084BDB89002B3C
:1026500001D1FFF791FF00BF03B05DF804FB00BF9D
:10266000623F0020643F0020603F00203C3F00208C
:1026700000B585B001900D4B4FF6FF721A800C4BE0
:1026800000221A700B4B184603F0BAFE0390039B0E
:10269000002B07D0084B9B69002B03D0064B9B698E
:1026A0000398984700BF05B05DF804FB623F002027
:1026B000603F00206C3F00203C3F002000B585B00B
:1026C0000190019B06330393039B1A88134BDB890C
:1026D0009A421ED1039B5B89022B1AD1039B0C33B8
:1026E000184600F066F80346002B02D0FFF744FFBF
:1026F0000FE00B4B184603F083FE0290029B002B69
:1027000007D0064B9B69002B03D0044B9B690298B2
:10271000984700BF05B05DF804FB00BF3C3F0020B8
:102720006C3F002000B583B00190064A019B08333E
:1027300093E8030082E80300FFF71EFF00BF03B029
:102740005DF804FB643F002000B583B00190019B5D
:102750001B88112B0DD0112B02DC102B05D014E09F
:10276000122B0ED0502B08D00FE00198FFF75CFF22
:102770000BE00198FFF77CFF07E00198FFF79EFF51
:1027800003E00198FFF7CEFF00BF00BF03B05DF884
:1027900004FB82B00190019B1B781AB2019B0133AC
:1027A0001B781B021BB213431BB29BB2184602B02C
:1027B000704700B585B001900198FFF7EAFF034626
:1027C000ADF80E30BDF80E3003F00103002B14BF3E
:1027D00001230023DBB2184605B05DF804FB0000BE
:1027E00000B585B00190009100238DF80F309DF861
:1027F0000F305A1C8DF80F201A46019B1344009A83
:1028000012781A709DF80F305A1C8DF80F201A4656
:10281000019B1344009A52781A709DF80F30022BD6
:102820000CBF01230023DBB20293029B002B04D1D7
:10283000054A4721002002F065FD9DF80F3018463B
:1028400005B05DF804FB00BF440E03008FDF704746
:1028500000BF18469EDF704700BF1846ADDF7047C7
:1028600000BF184682B00190019B9E221A80019BF6
:1028700017225A80019B00221A71019B00225A7173
:10288000019BA2229A71019B1B22DA7100BF02B048
:102890007047000000B587B003460091ADF80630E0
:1028A000BDF80630009ADB0013441B7B9BB2ADF8E9
:1028B0000C30BDF80630009ADB0013441B7B9BB242
:1028C000ADF80E300023ADF810300023ADF8123013
:1028D00003A9BDF8063000221846FFF7B7FF0590A0
:1028E000059B002B06D0BDF80620059B034901205F
:1028F00004F09BFB00BF07B05DF804FB900E0300E3
:1029000000B587B001900091009B9B88ADF8163010
:10291000BDF81630DB00019A134406330493019B83
:102920001A79049B9A71009BDB7B012B02D0022B4E
:1029300005D009E0019B1A88049B1A8004E0019BE2
:102940005A88049B1A8000BF049B1A88049B5B88EA
:102950009A421BD9049B1A88BDF8163011461846B6
:10296000FFF778FF0390039B002B03D1049B012208
:102970005A710BE0039B112B03D1049B01221A71A6
:1029800004E0039A0949012004F03BFB049B9A7977
:10299000049BDB799A4205D9BDF816300199184697
:1029A000FFF778FF00BF07B05DF804FB040F0300DA
:1029B00000B583B001900091009B9B88DB00019AD9
:1029C000134406331846FFF74DFF00BF03B05DF810
:1029D00004FB00B587B001900091009B9B88ADF887
:1029E0001630009B5B89ADF81430BDF81630DB0063
:1029F000019A134406330493049B1B88BDF81420EA
:102A0000934228BF13469AB2049B5A80049B5B886A
:102A1000172B38BF17239AB2049B5A80019B9B69DE
:102A2000002B15D0049B5B79002B11D040F6772347
:102A3000ADF80830BDF81630ADF80A30049B5B885D
:102A4000ADF80C30019B9B6902AA1146019898478A
:102A5000049B00225A71049B00221A7100BF07B028
:102A60005DF804FB00B589B001900091009B9B8844
:102A7000ADF81C30009BDB88ADF81E30BDF81C3073
:102A8000DB00019A134406330693BDF81E30172B62
:102A900038BF1723ADF81E30069B1B88BDF81E20DB
:102AA000934228BF13469AB2069B5A80069B002287
:102AB0001A71069B1A88BDF81C3011461846FFF79C
:102AC000CDFE0590059B002B04D0059A11490120ED
:102AD00004F097FA069B5B79002B16D1019B9B694A
:102AE000002B13D040F67723ADF80C30BDF81C3026
:102AF000ADF80E30069B5B88ADF81030019B9B69EA
:102B000003AA11460198984700E000BF09B05DF89C
:102B100004FB00BF600F030030B593B0019000913B
:102B2000009B04AC1D1D0FCD0FC40FCD0FC40FCDE6
:102B30000FC42B682360BDF81030ADF84630BDF8E7
:102B40001420BDF84630D1B2019ADB0013440A4686
:102B50005A73019B9B69002B19D002AB00221A60AB
:102B60009A804DF67A23ADF80830BDF84630ADF8BE
:102B70000A30BDF84630019ADB0013445B7B8DF8C8
:102B80000C30019B9B6902AA11460198984700BF2F
:102B900013B030BD00B589B001900091009B0433A3
:102BA0000693069B1B88DB00019A134406330793A8
:102BB000069B9B888DF81730079B9B799DF8172003
:102BC000934228BF13468DF8163002AB00221A60DC
:102BD0005A609DF816309BB2ADF808309DF816305B
:102BE0009BB2ADF80A30069B1B8802A9002218464A
:102BF000FFF72CFE0490049B002B04D0049A044998
:102C0000012004F0FEF900BF09B05DF804FB00BF2D
:102C1000B80F030000B585B001900091019B002B17
:102C200001D10E231DE0019B009A9A61019B9E2217
:102C30001A80019B9E225A80019BA2221A710023B6
:102C400003930AE0039BDB00019A13440633184602
:102C5000FFF708FE039B01330393039B012BF1D97C
:102C60000023184605B05DF804FB82B001900B46C6
:102C7000ADF80230019B002B01D10E230EE0BDF810
:102C80000230162B03D9BDF802309E2B01D9072341
:102C900004E0019BBDF802201A800023184602B010
:102CA0007047000000B585B001900091009B9B88A3
:102CB000ADF80E30BDF80E30012B5FD8009B1B889D
:102CC000212B26D0212B04DC102B09D0112B0CD06A
:102CD00024E03A2B0ED0552B11D0222B14D01DE01E
:102CE00000990198FFF70CFE18E000990198FFF792
:102CF0005FFE13E000990198FFF76BFE0EE000996C
:102D00000198FFF7AFFE09E000990198FFF704FF73
:102D100004E000990198FFF73DFF00BFBDF80E30B9
:102D2000019ADB0013449B7A002B28D0BDF80E30AB
:102D3000019ADB001344DA88BDF80E3011461846BC
:102D4000FFF788FD0290029B002B0ED1BDF80E30DC
:102D5000019ADB00134400229A72BDF80E30019AEA
:102D6000DB0013440122DA7209E0029B112B06D02A
:102D7000029A0449012004F044F900E000BF05B0C4
:102D80005DF804FB040F0300A0DF704700BF184686
:102D9000A2DF704700BF1846A6DF704700BF184685
:102DA00062DF704700BF184682B001900091009B1F
:102DB0009A88019B9A8200BF02B0704782B001904E
:102DC0000091019B4FF6FF729A8200BF02B07047DC
:102DD00000B585B001900091009B06330393039BDF
:102DE0001A88019B1B899A4213D1039B5B89022B92
:102DF0000FD1039B0C331846FFF7DBFC0346002B77
:102E000003D0019B01229A7517E0019B00229A755D
:102E100013E0039B1A88019B9B899A420DD1019B69
:102E20009B69002B09D0019B9B69039A02F10C015D
:102E3000039A528901989847FFE700BF05B05DF8F3
:102E400004FB00B593B0019000910AAB032200216E
:102E500018460DF058F89DF82830012262F303035C
:102E60008DF828309DF82830012262F307138DF881
:102E700028309DF82930012262F303038DF82930B0
:102E80009DF82930012262F307138DF829309DF84F
:102E90002A30012262F342038DF82A300BAB1C2248
:102EA000002118460DF02FF89DF82C3043F0100348
:102EB0008DF82C3000230C9300230E9300230F93E6
:102EC0000AAB109300231193019B1B788DF81230ED
:102ED0000323ADF8103003AB0322002118460DF098
:102EE00012F89DF80C30012262F303038DF80C30C8
:102EF0009DF80C30012262F307138DF80C309DF819
:102F00000D30012262F303038DF80D309DF80D3072
:102F1000012262F307138DF80D309DF80E30012267
:102F200062F342038DF80E309DF80E306FF3C30349
:102F30008DF80E309DF80E306FF304138DF80E30BF
:102F40009DF80E3043F001038DF80E3005AB1422CE
:102F5000002118460CF0D7FF04AB059303AB069392
:102F60000123ADF81C300023ADF81E309B23ADF8D3
:102F70002030019B5888019B043305AA0BA9FFF759
:102F800007FF0346184613B05DF804FB00B591B087
:102F90000190009109AB1C22002118460CF0B3FFF0
:102FA0009DF8243043F008038DF824309DF8243038
:102FB00043F004038DF8243000230A9300230C937C
:102FC00000230D9300230E9300230F93019B1B7886
:102FD0008DF80E300223ADF80C3002AB0322002135
:102FE00018460CF090FF9DF80830012262F30303AD
:102FF0008DF808309DF80830012262F307138DF830
:1030000008309DF80930012262F303038DF809307E
:103010009DF80930012262F307138DF809309DF8FD
:103020000A30012262F342038DF80A309DF80A301B
:103030006FF3C3038DF80A309DF80A306FF3041361
:103040008DF80A309DF80A3043F001038DF80A30FC
:1030500004AB1422002118460CF055FF03AB049377
:1030600002AB05930123ADF818300023ADF81A30F8
:103070009B23ADF81C30019B5888019B0C3304AA9C
:1030800009A9FFF785FE0346184611B05DF804FB59
:1030900000B583B001900091019B002B1FD0009BD5
:1030A000002B1CD0009B1B88112B0ED0112B02DC97
:1030B000102B05D016E0502B0CD0A62B11D011E010
:1030C00000990198FFF770FE0CE000990198FFF756
:1030D00075FE07E000990198FFF77AFE02E000BF55
:1030E00000E000BF03B05DF804FB000010B588B03D
:1030F00001900091284B02AC0FCB84E80F00019B9C
:10310000002B01D10E2344E0009B002B01D10E23A4
:103110003FE0019B4FF6FF729A82009B1A68019B69
:103120009A61019B00229A75019A02AB11461846DA
:10313000FFF736FE0790079B002B01D0079B28E086
:10314000019B1B788DF81A300123ADF81830019BD4
:103150009A1C06AB19460120FFF716FE0790079B45
:10316000002B01D0079B14E000990198FFF70EFF98
:103170000790079B002B01D0079B0AE0009901985C
:10318000FFF75FFE0790079B002B01D0079B00E035
:103190000023184608B010BD1810030000B589B010
:1031A000039002911346ADF80630039B002B01D12A
:1031B0000E232EE0039B9B8A4FF6FF72934206D0AC
:1031C000039B9B7D83F00103DBB2002B01D008231E
:1031D0001FE0BDF806309B2B01D9072319E004AB93
:1031E0001022002118460CF08EFE039B9B88ADF840
:1031F0001030029B07930DF10603069301238DF80F
:103200001230039B9B8A04AA11461846FFF7C4FD9F
:103210000346184609B05DF804FB82B001904FF0F8
:103220008042019BC2F8083300BF02B0704784B0EF
:103230000346ADF80630BDF8063003F180430022A6
:103240001A60BDF8063003F180431B680393039BAB
:1032500000BF04B0704782B00346ADF80630BDF839
:10326000063003F180431B68002B14BF01230023A9
:10327000DBB2184602B0704782B003468DF80730C3
:103280009DF807304FF0804203F00303C2F8183571
:1032900000BF02B07047000082B003468DF80730CF
:1032A0000A4A9DF907305B0952F823209DF8073040
:1032B00003F01F03012101FA03F31340002B14BF95
:1032C00001230023DBB2184602B0704700E100E0A2
:1032D00008B50020FFF7E0FF034683F00103DBB2EF
:1032E000002B03D00721002000F01EF900BF08BD0D
:1032F00000B583B000230193134B1B78002B02D041
:10330000852301931BE0104B00229A600E4B002294
:103310005A600D4B00221A610B4B0022DA60FFF756
:10332000D7FF04F0CBF9034683F00103DBB2002B97
:1033300002D00120FFF7A0FF034B01221A70019B6E
:10334000184603B05DF804FB903F002084B0019064
:10335000019B1B680393039B002B03D0039B1A68FC
:10336000019B1A60039B184604B0704700B585B0F6
:1033700003468DF807309DF80730002B02D10C4B27
:10338000039301E00B4B03930398FFF7DFFF0290D9
:10339000029B002B06D0029B5B689DF8072010461D
:1033A0009847F1E700BF00BF05B05DF804FB00BF20
:1033B000983F0020A03F002008B54FF48070FFF731
:1033C0004AFF0346002B0CD04FF48070FFF72FFF0D
:1033D0000120FFF722FF0E4B01225A700020FFF759
:1033E000C5FF4FF48270FFF736FF0346002B0CD069
:1033F0004FF48270FFF71BFF0220FFF70EFF044B14
:1034000001229A700120FFF7B1FF00BF08BD00BF85
:10341000903F002000B583B00190019B002B02D1AA
:103420000020FFF7A3FF00BF03B05DF804FB00001E
:1034300000B583B000238DF807300DF1070318465F
:1034400003F014FA0C4B1B7883F00103DBB2002B62
:1034500001D0FFF74DFF084BDB680133064AD3600C
:10346000054B01229A709DF80730184603F008FAC0
:1034700000BF03B05DF804FB903F002082B003461C
:103480008DF807309DF8073003F01F0205499DF9BC
:1034900007305B09012000FA02F241F8232000BF47
:1034A00002B0704700E100E082B003468DF80730BB
:1034B0009DF8073003F01F0206499DF907305B09AC
:1034C000012000FA02F2603341F8232000BF02B06D
:1034D000704700BF00E100E082B0034600918DF824
:1034E00007309DF90730002B0CDA009BDAB20C494B
:1034F0009DF8073003F00F03043B5201D2B20B4496
:103500001A7609E0009BDAB206499DF907305201AC
:10351000D2B20B4483F8002300BF02B0704700BF53
:1035200000ED00E000E100E000B583B003460A468C
:103530008DF8073013468DF806309DF806209DF96A
:10354000073011461846FFF7C7FF9DF907301846A8
:10355000FFF7AAFF9DF907301846FFF78FFF00BF5E
:1035600003B05DF804FB00B583B00346ADF8063048
:10357000BDF80630184600F026F803461B68012BFC
:103580000CBF01230023DBB2184603B05DF804FB37
:1035900000B585B00346ADF80630BDF806301846D4
:1035A00000F011F803461A4600231360BDF80630F8
:1035B000184600F008F803461B680393039B00BFFE
:1035C00005B05DF804FB82B00346ADF80630BDF8E7
:1035D000063003F1804303F5C043184602B070473C
:1035E00082B00190034A019BC2F8043300BF02B0CD
:1035F000704700BF0060004082B00190034BD3F8D9
:103600000423019B1340184602B07047006000403D
:1036100082B00190084A019B03F5A27352F823304F
:10362000054943F00102019B03F5A27341F82320F1
:1036300000BF02B0704700BF0060004084B003903C
:10364000029113468DF80730144A039B03F5A273C9
:1036500052F82330114923F4473323F44073039A7B
:1036600002F5A27241F822300C4A039B03F5A273C3
:1036700052F82320029B1B0203F4F8519DF80730F7
:103680001B0403F440330B4304491A43039B03F523
:10369000A27341F8232000BF04B0704700600040CF
:1036A00082B00190054A019B03F5A27352F82330C2
:1036B0001B0A03F01F03184602B070470060004069
:1036C00082B00190064A019B03F5A27352F82330A1
:1036D0001B0C03F00303DBB2184602B0704700BFB7
:1036E0000060004082B001904FF0A043184602B045
:1036F000704700B585B00190084611461A4603464A
:103700008DF803300B468DF8023013468DF80130EA
:1037100001AB1846FFF7E6FF03909DF803209DF8E4
:1037200002305B001A439DF801309B001A439DF85C
:1037300018301B0242EA03019DF81C301B04019A59
:103740001943039B02F5E07243F8221000BF05B055
:103750005DF804FB00B585B003900B468DF80B3087
:103760009DF80B20002301930023009313460022B1
:1037700000210398FFF7BDFF00BF05B05DF804FB13
:1037800000B585B0019001AB1846FFF7ABFF039081
:10379000019A039B02F5E07253F8223023F00203F2
:1037A0000293019A039B02F5E072029943F82210FA
:1037B00000BF05B05DF804FB00B585B001900B4675
:1037C0008DF8033001AB1846FFF78CFF0390019A88
:1037D000039B02F5E07253F82230019A23F4403142
:1037E000039B02F5E07243F82210019A039B02F555
:1037F000E07253F822309DF8032012041146019A1A
:103800001943039B02F5E07243F8221000BF05B094
:103810005DF804FB00B585B0019001AB1846FFF7D9
:1038200061FF0390039800F020F80246019B22FA02
:1038300003F303F00103184605B05DF804FB00B57F
:1038400085B0019001AB1846FFF74CFF0390019A39
:10385000039B02F5E07253F822301B0C03F00303C4
:10386000DBB2184605B05DF804FB82B00190019B05
:10387000D3F81035184602B0704700B587B00390F2
:10388000029101924FF0A0430493039B059311E032
:10389000059B9B0006AA134453F8083C1846FFF703
:1038A000E4FF0246019B1A60019B04330193059BD0
:1038B00001330593039A029B1344059A9A42E7D376
:1038C00000BF07B05DF804FB84B001900091009B3D
:1038D0000393019BDB080293019B03F00703019311
:1038E0000122019B02FA03F30399029A0A44127817
:1038F0001340184604B0704784B001900091009BBB
:103900000393019BDB080293019B03F007030193E0
:10391000039A029B13441B785AB20121019B01FABE
:1039200003F35BB2134359B2039A029B1344CAB226
:103930001A7000BF04B0704782B001900C4A019B1E
:103940001344303393F90030002B09DB084A019B04
:103950001344303393F90030072B01DC012300E0DE
:10396000002303F00103DBB2184602B0704700BF2A
:10397000A43F002082B00190064A019B13443033DB
:1039800093F90030072BCCBF01230023DBB218468C
:1039900002B07047A43F002082B00190064A019B0C
:1039A0001344303393F90030DB43DBB2DB09DBB285
:1039B000184602B0704700BFA43F002084B00390B7
:1039C000029101928DF80330029B59B20E4A039B7B
:1039D000134430330A461A700B49029B019A41F88E
:1039E00023209DF8033083F00103DBB2002B08D0C5
:1039F000029B083B039A51B2034A13440A4683F8D8
:103A0000502000BF04B07047A43F002082B0019056
:103A1000044A019B13443033FF221A7000BF02B0E6
:103A2000704700BFA43F002082B00190044A019B70
:103A30001344303393F90030184602B0704700BF8A
:103A4000A43F002082B00190034A019B52F823302A
:103A5000184602B0704700BFA43F002000B589B0EF
:103A60000390029113468DF80730FF238DF81F3025
:103A70009DF80730002B01D0002300E008230593B8
:103A80009DF80730002B01D0082300E00C2304939D
:103A9000059B069314E00F4A069B52F82330B3F1BE
:103AA000FF3F0AD19DF80730029A06990398FFF765
:103AB00085FF069B8DF81F3006E0069B01330693B9
:103AC000069A049B9A42E6D39DF91F30184609B026
:103AD0005DF804FBA43F002082B003468DF8073058
:103AE0009DF80730094A4FF0FF3142F823109DF846
:103AF0000730072B07D99DF80730083B034A1344CA
:103B0000FF2283F8502000BF02B07047A43F00207E
:103B100000B583B0214B93F85430002B03D0082319
:103B20000093009B36E000238DF8073009E09DF8F4
:103B300007301846FFF76AFF9DF8073001338DF80C
:103B400007309DF807301F2BF1D900238DF807307F
:103B500009E09DF807301846FFF7BEFF9DF80730D3
:103B600001338DF807309DF807300B2BF1D9072171
:103B70000620FFF7D9FC4FF4BE70FFF709FD4FF0A8
:103B80000040FFF72DFD054B012283F85420002350
:103B90000093009B184603B05DF804FBA43F00208F
:103BA000044B93F85430002B14BF01230023DBB2E5
:103BB00018467047A43F002000B587B003900291DB
:103BC0000192002305930398FFF7E6FE0346002BBE
:103BD00002D00823059341E0029BDB781A46019945
:103BE0000398FFF73BFF03468DF813309DF9133020
:103BF000B3F1FF3F30D0029B9B78002B03D003989A
:103C0000FFF7BEFD05E0029B5B7819460398FFF7BE
:103C1000A1FD029BDB78002B08D09DF91300029BCD
:103C20001B781A460399FFF709FD17E09DF9133039
:103C3000083B0D4A134493F95010029B1B789B01DB
:103C40005AB29DF91330083B0A4351B2064A134455
:103C50000A4683F8502001E004230593059B18468B
:103C600007B05DF804FB00BFA43F002000B587B09B
:103C700001900B468DF803300198FFF77BFE034659
:103C8000002B2FD00198FFF7CFFE0346083B304AA8
:103C9000134493F950308DF816309DF816309B0977
:103CA0008DF815309DF81530032B0BD10198FFF7D7
:103CB000B1FD0346002B01D0032300E002238DF861
:103CC000173008E09DF81530012B01D1022300E0E8
:103CD00003238DF817309DF8173019460198FFF728
:103CE0006BFD30E00198FFF727FE0346002B2AD03A
:103CF0000198FFF799FE03460493049B9BB240335F
:103D00009BB29B00ADF80E30049B1846FFF780FC79
:103D1000BDF80E301846FFF73BFC9DF80330002B32
:103D200011D00198FFF780FE03461846FFF78AFE80
:103D30000290029B002B06D00122049B02FA03F39F
:103D40001846FFF74DFC00BF07B05DF804FB00BF4D
:103D5000A43F002000B595B00023139300230393E4
:103D60004FF48073ADF84630012310930023129373
:103D700021E0BDF846301846FFF7F5FB0346002B5F
:103D80000ED01098FFF738FC0346002B08D0BDF882
:103D900046301846FFF7FCFB139A109B134313930E
:103DA000109B5B001093BDF846300433ADF84630ED
:103DB000129B01331293129B072BDAD94FF4BE707A
:103DC000FFF7D1FB0346002B0DD04FF4BE70FFF779
:103DD000DFFB139B43F00043139303AB1A4601210F
:103DE0000020FFF74AFD139BDBB2002B29D00123F3
:103DF00010930023129321E0109A139B1340002B81
:103E000016D01298FFF74CFC0D901298FFF758FC53
:103E100003468DF833301298FFF714FE0B900B9B7E
:103E2000002B05D09DF833200B9B11460D98984729
:103E3000109B5B001093129B01331293129B072B74
:103E4000DAD9139B002B80F2EE8000238DF83B30F3
:103E50000023029300230F930AE00F9B9B0014AAF8
:103E600013444FF0FF3243F84C2C0F9B01330F9358
:103E70000F9B002BF1D000238DF83B3000231293D1
:103E800078E06B4A129B1344503393F900308DF85D
:103E90002B309DF82B3023F0C0030993644A129B0A
:103EA0001344503393F90030B3F1FF3F5FD001ABBF
:103EB00019460998FFF708FD0346002B57D09DF8D7
:103EC0002B309B098DF823300998FFF7ADFD034691
:103ED0001846FFF7B7FD0790079B002B03D19DF80D
:103EE0002330032B43D19DF82330032B04D102ABA5
:103EF00019460998FFF700FD0998FFF7A0FC034653
:103F00008DF81B3003AB19460998FFF7DDFC0590CF
:103F1000059B002B03D09DF81B30022B06D0059B80
:103F2000002B24D19DF81B30032B20D19DF823308A
:103F3000032B13D19DF81B30022B01D1032300E08A
:103F400002238DF813309DF8133019460998FFF7B6
:103F500033FC9DF83B3001338DF83B30079B002B41
:103F600005D09DF82320079B114609989847129B7E
:103F700001331293129B032B83D99DF83B30002B06
:103F80004CD001238DF83A306B461A4601210020AF
:103F9000FFF773FC00230F9314E00F9B9B0014AA00
:103FA000134453F8502C0F9B9B0014A90B4453F857
:103FB000443C9A4203D000238DF83A3005E00F9B31
:103FC00001330F930F9B002BE7D09DF83A30002B65
:103FD00003D000238DF83B3020E000230F931AE03C
:103FE0000F9B9B0014AA134453F8502C0F9B9B006B
:103FF00014A90B4443F8442C0F9B9B0014AA1344B0
:1040000053F8482C0F9B9B0014A90B4443F84C2CED
:104010000F9B01330F930F9B002BE1D09DF83B309A
:10402000002B7FF428AF00BF15B05DF804FB00BF84
:10403000A43F002084B001900B46ADF80230BDF8DB
:104040000230019A134400221A60BDF80230019A2E
:1040500013441B680393039B00BF04B0704782B0F6
:1040600001900B46ADF80230BDF80230019A1344BE
:104070001B68002B14BF01230023DBB2184602B0DB
:10408000704782B001900091019B009AC3F804230D
:1040900000BF02B0704782B001900091019BD3F83D
:1040A0000423009B1340002B14BF01230023DBB229
:1040B000184602B0704782B001900091019B009AAF
:1040C000C3F8082300BF02B0704784B00190019B81
:1040D000D3F880340393019B039AC3F88024039B95
:1040E000184604B0704782B00190019B0422C3F8C7
:1040F000002500BF02B0704784B003900291019286
:10410000039B019AC3F81425039B029AC3F80C255C
:1041100000BF04B0704784B0039002910192039BEA
:10412000029AC3F80825039B019AC3F8102500BF23
:1041300004B0704782B00190019BD3F81835DBB210
:10414000184602B0704782B001900B468DF80330DC
:104150009DF80320019BC3F81C2500BF02B07047E7
:1041600082B001900B468DF803309DF80330019A20
:10417000134401221A6000BF02B0704782B0019060
:104180000B468DF8033013468DF802309DF803205E
:104190009DF802301343DBB21A46019BC3F86C252D
:1041A00000BF02B0704782B001900091019B009A5D
:1041B000C3F8242500BF02B0704784B001900B46BD
:1041C000ADF80230BDF80230019A134400221A60A3
:1041D000BDF80230019A13441B680393039B00BF90
:1041E00004B0704782B001900B46ADF80230BDF8C4
:1041F0000230019A13441B68002B14BF01230023D3
:10420000DBB2184602B0704782B001900091019B6A
:10421000D3F80022009B1A43019BC3F8002200BF81
:1042200002B0704782B001900091019BD3F8002248
:10423000009BDB431A40019BC3F8002200BF02B081
:10424000704782B001900091019B009AC3F804234B
:1042500000BF02B0704782B001900091019B009AAC
:10426000C3F8082300BF02B0704784B00190019BDF
:10427000D3F880340393019B039AC3F88024039BF3
:10428000184604B0704782B00190019B0822C3F821
:10429000002500BF02B0704784B0039002910192E4
:1042A000039B029AC3F80C25039B019AC3F81425BB
:1042B00000BF04B0704784B0039002910192039B49
:1042C000029AC3F80825039B019AC3F8102500BF82
:1042D00004B0704782B001900B468DF803309DF812
:1042E0000330019A134401221A6000BF02B07047E4
:1042F00082B001900B468DF8033013468DF80230E2
:104300009DF803209DF802301343DBB21A46019B4F
:10431000C3F86C2500BF02B0704782B001900091D5
:10432000019B009AC3F8242500BF02B0704784B0F7
:104330000390029113468DF80730029A039BC3F84D
:1043400044259DF80720039BC3F8482500BF04B00F
:10435000704782B00190019BD3F84C35184602B0EB
:10436000704784B00390029113468DF80730029A8B
:10437000039BC3F834259DF80720039BC3F8382519
:1043800000BF04B0704782B00190019BD3F83C3568
:10439000184602B0704784B00190019B1B0B8DF84A
:1043A0000F309DF90F30184604B0704782B001906D
:1043B000019B03F06043B3F1005F0CBF01230023B6
:1043C000DBB2184602B0704782B001904FF0A043B4
:1043D000184602B0704700B585B0019008461146F6
:1043E0001A4603468DF803300B468DF8023013460B
:1043F0008DF8013001AB1846FFF7E6FF03909DF8FA
:1044000003209DF802305B001A439DF801309B00A9
:104410001A439DF818301B0242EA03019DF81C3034
:104420001B04019A1943039B02F5E07243F8221022
:1044300000BF05B05DF804FB00B585B00390002314
:104440000193002300930023012201210398FFF729
:10445000C2FF00BF05B05DF804FB00B585B0039056
:104460000B468DF80B309DF80B20002301930023A1
:1044700000931346002200210398FFF7ACFF00BF12
:1044800005B05DF804FB00B585B0019001AB18469E
:10449000FFF79AFF0390019B012202FA03F31946EA
:1044A000039800F004F800BF05B05DF804FB82B08B
:1044B00001900091019B009AC3F8082500BF02B04B
:1044C0007047000000B583B001900091009B1B680D
:1044D000B3F1FF3F09D0009B1B681846FFF7D3FFDD
:1044E000009B1B681846FFF7A7FF009B5B68B3F1B2
:1044F000FF3F05D0009B5B6800211846FFF7ADFF2A
:10450000019B1B79464A5B0113441C331B78002B2B
:1045100041D0019B1A68009B9B6919461046FFF722
:10452000FCFE019B1868009B597D009B1B7D1A4671
:10453000FFF7DEFE019B1868009B1968009B5B6813
:104540001A46FFF7A9FE009B1B7D012B64D1009B3F
:104550009B68B3F1FF3F05D0009B9B680021184684
:10456000FFF77BFF009BDB68B3F1FF3F09D0009BA7
:10457000DB681846FFF787FF009BDB681846FFF7EC
:104580005BFF019B1868009BD968009B9B681A46DB
:10459000FFF791FE40E0019B1A68009B9B6919465A
:1045A0001046FFF700FE019B1868009B597D009B99
:1045B0001B7D1A46FFF7E2FD019B1868009B1968F6
:1045C000009B5B681A46FFF797FD009B1B7D012B44
:1045D00022D1009B9B68B3F1FF3F05D0009B9B68F5
:1045E00000211846FFF739FF009BDB68B3F1FF3F5E
:1045F00009D0009BDB681846FFF745FF009BDB688E
:104600001846FFF719FF019B1868009BD968009BAB
:104610009B681A46FFF77FFD00BF03B05DF804FBFF
:10462000FC3F002000B583B001900B468DF80330AD
:10463000019B1B792D4A5B0113441C331B78002B13
:104640002FD0019B1B684FF488711846FFF7B5FD0A
:10465000019B1B684FF490711846FFF7AEFD019B5C
:104660001B684FF492711846FFF7A7FD019B1B686A
:104670004FF4A2711846FFF7A0FD019B1B681C496F
:104680001846FFF7DEFD019B1B681846FFF783FE07
:1046900003461A469DF8033019461046FEF744FFBC
:1046A00020E0019B1B684FF48E711846FFF7C2FC97
:1046B000019B1B684FF4A2711846FFF7BBFC019BDE
:1046C0001B680C491846FFF7DCFC019B1B68184669
:1046D000FFF761FE03461A469DF80330194610465F
:1046E000FEF722FF00BF03B05DF804FBFC3F002093
:1046F000100302008000020000B583B00190019B0E
:104700001B790B4A5B0113441C331B78002B05D02B
:10471000019B1B681846FFF7B6FD04E0019B1B6870
:104720001846FFF7E0FC00BF03B05DF804FB00BFD4
:10473000FC3F002000B587B0039002910192039BDB
:104740001B795B011E4A1344059300230493059BC8
:10475000DB7E002B03D008230493049B2BE0029BF9
:104760005A7F059B1A7702990398FFF7ABFE059BCA
:10477000019A5A60029B1A69059B1A60059B5B6847
:10478000002B05D0029B1B7F19460398FFF74AFFB9
:104790000398FFF7B1FF059B0022DA75059B002205
:1047A0001A76059B00229A75059B0122DA76059BF5
:1047B00000229A76049B184607B05DF804FB00BF00
:1047C000FC3F002000B585B0019000914FF48E7140
:1047D0000198FFF72FFC009B9B68009A928A92B287
:1047E00013441B788DF80F30009B9B8A9BB20133DA
:1047F0009AB2009B9A829DF80F3019460198FFF7F4
:10480000A2FC00BF05B05DF804FB000000B585B058
:104810000190019B1B795B01344A134402930023EE
:104820000393019B1B684FF48E711846FFF702FC3F
:10483000019B1B6808211846FFF792FC019B1B682F
:1048400002991846FFF7BEFF029B5B68002B48D118
:104850001FE000BF019B1B684FF48E711846FFF7E5
:10486000FEFB034683F00103DBB2002B05D0029B65
:104870009B8A9BB2B3F5807FECD1029B9B8A9BB253
:10488000B3F5807F05D0019B1B6802991846FFF79E
:1048900099FF029B9B8A9AB2029B9B7D9BB29A4294
:1048A000D7D3029B9B8A9BB2B3F5807F02D10F23A3
:1048B000039313E000BF019B1B684FF48E711846F1
:1048C000FFF7CDFB034683F00103DBB2002BF2D1EF
:1048D000019B1B680C211846FFF742FC029B00223B
:1048E0009A75039B184605B05DF804FBFC3F002059
:1048F00000B587B00190019B1B795B012A4A1344E4
:10490000049300230593019B1B684FF49071184694
:10491000FFF753FC019B1B684FF4AC711846FFF77F
:104920004CFC019B1868049B9968049B9B7D1A466C
:10493000FFF7FDFC019B1B6808211846FFF7CAFC26
:10494000049B5B68002B2AD1019B1B684FF490717C
:104950001846FFF747FC03468DF80F30019B1B6894
:104960004FF4AC711846FFF73DFC03468DF80E304E
:104970009DF80F3083F00103DBB2002B06D09DF8C9
:104980000E3083F00103DBB2002BDDD19DF80E3039
:10499000002B01D00F230593049B00229A75059BE1
:1049A000184607B05DF804FBFC3F002000B587B057
:1049B0000390029113468DF80730039B1B795B012E
:1049C000214A13440493039B1B791F4A5B01134440
:1049D0001C331B78002B0CD00298FFF7E7FC034632
:1049E00083F00103DBB2002B03D010230593059B5A
:1049F00025E0039800F02AF80346002B03D011238A
:104A00000593059B1BE0049B9DF807209A75049B6A
:104A1000029A9A60049B00229A82039B1B790A4A9D
:104A20005B0113441C331B78002B04D00398FFF761
:104A30005FFF034603E00398FFF7E8FE03461846CE
:104A400007B05DF804FB00BFFC3F002082B001907E
:104A5000019B1B79064A5B01134416331B78002B1C
:104A600014BF01230023DBB2184602B0704700BF19
:104A7000FC3F002000B583B00190019B1B684FF400
:104A800092711846FFF7D6FA019B1B684FF48471A8
:104A90001846FFF7CFFA019B1B6800211846FFF765
:104AA0005FFB00BF03B05DF804FB10B582B001905E
:104AB0000091009BDB7D002B08D14FF4847101989D
:104AC000FFF7B8FA0198FFF735FB16E04FF4847151
