:020000021000EC
:10F000000000012033F10100D9F00100DBF0010024
:10F01000DDF00100DFF00100E1F001000000000080
:10F02000000000000000000000000000E3F001000C
:10F03000E5F0010000000000E7F00100E9F0010048
:10F04000B54E0200EDF00100D96D0200D5E30200DB
:10F05000F3F00100F5F0010051580200D1B90200AF
:10F0600045EB0200FDF00100FFF00100D1E90200D4
:10F0700003F1010005F1010007F1010009F10100B0
:10F080000BF10100397C02000FF1010011F10100C8
:10F09000797C020015F101003189020019F10100AB
:10F0A0001BF101001DF101001FF1010021F1010020
:10F0B00039B3020025F1010000000000000000004B
:10F0C00027F1010029F101002BF101002DF10100D0
:08F0D0002FF1010031F10100F4
:10F0D800FEE7FEE7FEE7FEE7FEE7FEE7FEE7FEE700
:10F0E800FEE7FEE7FEE7FEE7FEE7FEE7FEE7FEE7F0
:10F0F800FEE7FEE7FEE7FEE7FEE7FEE7FEE7FEE7E0
:10F10800FEE7FEE7FEE7FEE7FEE7FEE7FEE7FEE7CF
:10F11800FEE7FEE7FEE7FEE7FEE7FEE7FEE7FEE7BF
:10F12800FEE7FEE7FEE7FEE7FEE70348854600F058
:10F13800CBF800F003B87047000001203749384881
:10F148000A1A02D0072291438D46364936480A1AD0
:10F1580006D00722914381F30988022282F314889A
:10F1680032483349334A00F048F833483349344A7F
:10F1780000F043F833483449344A00F03EF8344844
:10F188003449354A00F039F834483549354A00F0F1
:10F1980034F835483549364A00F02FF835483649AD
:10F1A800364A00F02AF836483649374A00F025F83A
:10F1B80036483749002200F02BF8364836490022F5
:10F1C80000F026F835483649091A082903DB0022D9
:10F1D8000260043001601F481F49884205D0026858
:10F1E800043003B4904703BCF7E700208646EC469A
:10F1F800002000212B4A9047FEE7884207D0521A88
:10F2080005D0037801300B700131013AF9D170470C
:10F21800884202D002700130FAE7704700000120EE
:10F2280000FC00200000012000000120F03B03004A
:10F23800F825002058270020B0F20100B0F20100A4
:10F24800C4260300F03B0300F8250020F825002021
:10F25800C4260300C4260300C4260300C4260300F2
:10F26800C4260300C4260300C4260300C4260300E2
:10F27800F03B0300503D030058270020582700208A
:10F28800503D030058270020582700205827002009
:10F2980078400020784000208040002080400020F6
:08F2A80080440020E12802006F
:10F2B000004870477040002070477047024B034A77
:10F2C0001A6000BF704700BFF82500200090D003EF
:10F2D00008B500F00DF90346002B06D0744B1B68EF
:10F2E0001B0A744A03F01F03136000F02DF9034654
:10F2F000002B02D0704B714A1A6000F041F90346AE
:10F30000002B06D06E4B1B685B0B6E4A03F00703A5
:10F31000136000F061F90346002B05D06A4BDB68EF
:10F32000694A23F08073D36000F072F90346002B22
:10F330000ED04FF080430022C3F80C214FF08043E1
:10F340000022C3F810214FF080430022C3F8382573
:10F3500000F08AF90346002B02D05C4B03221A60AE
:10F3600000F09EF90346002B0BD0594B05221A6082
:10F37000584B01221A60584B00221A60574B3F220B
:10F380001A6000F0A9F90346002B76D04FF08053A5
:10F39000534AD3F80434C2F820354FF08053504A12
:10F3A000D3F80834C2F824354FF080534C4AD3F8D0
:10F3B0000C34C2F828354FF08053494AD3F8103442
:10F3C000C2F82C354FF08053454AD3F81434C2F8B4
:10F3D00030354FF08053424AD3F81834C2F83435F0
:10F3E0004FF080533E4AD3F81C34C2F840354FF0FA
:10F3F00080533B4AD3F82034C2F844354FF0805351
:10F40000374AD3F82434C2F848354FF08053344A91
:10F41000D3F82834C2F84C354FF08053304AD3F833
:10F420002C34C2F850354FF080532D4AD3F8303485
:10F43000C2F854354FF08053294AD3F83434C2F817
:10F4400060354FF08053264AD3F83834C2F864351B
:10F450004FF08053224AD3F83C34C2F868354FF05D
:10F4600080531F4AD3F84034C2F86C354FF08053B4
:10F470001B4AD3F84434C2F8703500F049F903460A
:10F48000002B05D0174B1B68174A03F04F0313607E
:10F49000164BD3F88830154A43F47003C2F888300D
:10F4A000BFF34F8FBFF36F8FFFF708FF00BF08BD9B
:10F4B000240300104035014074C007400DF0ADBA80
:10F4C000440200103C050040F0ED00E0A0050040C3
:10F4D0001056004088560040185600401456004010
:10F4E00000C0004058020010E40E004000ED00E0B3
:10F4F000124B1B68DBB2062B1DD1114B1B6803F0AE
:10F500000F03002B17D10F4B1B6803F0F003302BB8
:10F5100001D1012310E00B4B1B6803F0F003402BDB
:10F5200001D1012308E0074B1B6803F0F003502BC7
:10F5300001D1012300E0002318467047E00F00F0DE
:10F54000E40F00F0E80F00F00A4B1B68DBB2062B5B
:10F550000DD1094B1B6803F00F03002B07D1074B9C
:10F560001B6803F0F003302B01D1012300E00023DE
:10F5700018467047E00F00F0E40F00F0E80F00F0CD
:10F58000124B1B68DBB2062B1DD1114B1B6803F01D
:10F590000F03002B17D10F4B1B6803F0F003302B28
:10F5A00001D1012310E00B4B1B6803F0F003402B4B
:10F5B00001D1012308E0074B1B6803F0F003502B37
:10F5C00001D1012300E0002318467047E00F00F04E
:10F5D000E40F00F0E80F00F00A4B1B68DBB2062BCB
:10F5E0000DD1094B1B6803F00F03002B07D1074B0C
:10F5F0001B6803F0F003302B01D1012300E000234E
:10F6000018467047E00F00F0E40F00F0E80F00F03C
:10F61000124B1B68DBB2062B1DD1114B1B6803F08C
:10F620000F03002B17D10F4B1B6803F0F003302B97
:10F6300001D1012310E00B4B1B6803F0F003402BBA
:10F6400001D1012308E0074B1B6803F0F003502BA6
:10F6500001D1012300E0002318467047E00F00F0BD
:10F66000E40F00F0E80F00F00A4B1B68DBB2062B3A
:10F670000DD1094B1B6803F00F03002B07D1074B7B
:10F680001B6803F0F003302B01D1012300E00023BD
:10F6900018467047E00F00F0E40F00F0E80F00F0AC
:10F6A0000A4B1B68DBB2062B0DD1094B1B6803F01C
:10F6B0000F03002B07D1074B1B6803F0F003302B1F
:10F6C00001D1012300E0002318467047E00F00F04D
:10F6D000E40F00F0E80F00F00A4B1B68DBB2062BCA
:10F6E0000DD1094B1B6803F00F03002B07D1074B0B
:10F6F0001B6803F0F003502B01D1012300E000232D
:10F7000018467047E00F00F0E40F00F0E80F00F03B
:10F71000124B1B68DBB2062B1DD1114B1B6803F08B
:10F720000F03002B17D10F4B1B6803F0F003302B96
:10F7300001D1012310E00B4B1B6803F0F003402BB9
:10F7400001D1012308E0074B1B6803F0F003502BA5
:10F7500001D1012300E0002318467047E00F00F0BC
:10F76000E40F00F0E80F00F082B003468DF8073098
:10F770009DF8073003F01F0206499DF907305B0929
:10F78000012000FA02F2603341F8232000BF02B0EA
:10F79000704700BF00E100E0BFF34F8F054BDB680F
:10F7A00003F4E0620349044B1343CB60BFF34F8F74
:10F7B00000BFFDE700ED00E00400FA0576DF7047CA
:10F7C00000BF18467ADF704700BF18467CDF7047DD
:10F7D00000BF18467FDF704700BF18468ADF7047BA
:10F7E00000BF18468FDF704700BF1846A8DF70477C
:10F7F00000BF1846A9DF704700BF184669DF704791
:10F8000000BF184666DF704700BF18463EDF7047EE
:10F8100000BF184608B5FFF7BFFF42F203031846C2
:10F8200008BD000084B00190244B0393019B002B82
:10F8300040D0234B1A680399019B00BF00BF00BF53
:10F8400000BF00BF00BF00BF00BF8A422FD000BF73
:10F8500000BF00BF00BF00BF00BF00BF00BF00BFB0
:10F8600000BF00BF00BF00BF00BF00BF00BF00BFA0
:10F8700000BF00BF00BF00BF00BF00BF00BF00BF90
:10F8800000BF00BF00BF00BF00BF00BF00BF00BF80
:10F8900000BF00BF00BF00BF00BF00BF00BF00BF70
:10F8A00000BF00BF00BF00BF00BF00BF00BF013BE3
:10F8B000C3D1019300BF04B0704700BF0024F4001F
:10F8C000F825002000B583B00190019B4FF47A72B7
:10F8D00002FB03F31846FFF7A5FF00BF03B05DF876
:10F8E00004FB82B003468DF807309DF80730012BEA
:10F8F00003D0022B03D0002B02E000BF00E000BFCA
:10F9000000BF02B07047000000B587B00390039BB2
:10F910001B788DF81730294A9DF8173013709DF821
:10F920001730062B42D801A252F823F049F9010002
:10F9300061F9010085F901008DF9010095F90100D7
:10F940009DF90100A5F90100039B1A791C4B1A705F
:10F95000039B5A881B4B1A801B4B00221A7029E00C
:10F960004FF47A7300934FF4FA730522642140F642
:10F97000C4100FF0ACF9154B01221A70124B04227F
:10F980001A7017E0104B05221A7013E00E4B01227B
:10F990001A700FE00C4B02221A700BE00A4B032284
:10F9A0001A7007E0084B06221A7003E0064B00228B
:10F9B0001A7000BF00BF07B05DF804FB5C27002091
:10F9C000582700205A2700205D2700205E270020AE
:10F9D00010B508F00FFA034618460FF020FD08A3F3
:10F9E000D3E900230FF0BCFF03460C46184621461E
:10F9F0000FF04DFD0346184610BD00BFAFF3008069
:10FA0000FCA9F1D24D62404082B001900091009A71
:10FA1000019B9A4205D2009A019BD31A03F1FA6323
:10FA200002E0009A019BD31A184602B0704786B0D4
:10FA30000190009100238DF81730002304931AE001
:10FA4000049BC3F105031A46019B13441B788DF8F0
:10FA50000F30049B009A13441B789DF80F209A42A4
:10FA600003D101238DF8173002E000238DF8173001
:10FA7000049B01330493049B052BE1DD9DF81730B3
:10FA8000184606B0704700B585B00190009100237C
:10FA90008DF80F3006220199009811F057F80346AF
:10FAA000002B03D101238DF80F300DE00099019850
:10FAB000FFF7BDFF0346002B03D001238DF80F3065
:10FAC00002E000238DF80F309DF80F30184605B086
:10FAD0005DF804FB00B58DB0039002910192039B89
:10FAE0005B68099300238DF82E3004AB0C220021B3
:10FAF000184611F0E0FD00230A931CE0039B1A68EE
:10FB00000A9B4FF48C7101FB03F313448033089379
:10FB100002990898FFF7B7FF03468DF82E309DF83D
:10FB20002E30002B04D0019B0A9A1A60012320E09A
:10FB30000A9B01330A930A9A099B9A42DEDB9DF8DD
:10FB40002E3083F00103DBB2002B05D0019B4FF078
:10FB5000FF321A6000230CE0079BB3F1FF3F03D193
:10FB600000238DF82F3002E001238DF82F309DF80F
:10FB70002F3018460DB05DF804FB00B58FB0039030
:10FB800002910192039B5B68099300238DF8323048
:10FB900000238DF8313004AB0C220021184611F0FF
:10FBA0008AFD00230B934BE000238DF82B30039B41
:10FBB0001A680B9B4FF48C7101FB03F313440893F9
:10FBC000039B1A680B9B4FF48C7101FB03F31344E6
:10FBD000863307930299089811F0C2FD0346002B63
:10FBE00002D101238DF832300299079811F0B8FD47
:10FBF0000346002B02D101238DF831309DF83130BE
:10FC0000002B03D19DF83230002B02D001238DF858
:10FC10002B3004AB03F1080204AB191D04A8012327
:10FC20000FF0D8FA0346002B07D1049A059B591C04
:10FC3000059113449DF82B201A700B9B01330B93F5
:10FC40000B9A099B9A42AFDB00230D9308E0049ABC
:10FC50000D9B13441B78002B07D10D9B01330D9393
:10FC6000059B0D9A9A42F2DB00E000BF059B0D9ABE
:10FC70009A4202D14FF0FF330D93019B0D9A1A6007
:10FC80000D9BB3F1FF3F03D100238DF8333002E029
:10FC900001238DF83330049B184610F0E7FE04ABC7
:10FCA0000C220021184611F006FD9DF8333018464D
:10FCB0000FB05DF804FB000000B587B00190009123
:10FCC0000023059300238DF80F301949019811F096
:10FCD000C9F9049022E00098009B191D009B03F1D4
:10FCE000080204230FF076FA0346002B0AD1009B8A
:10FCF0001A68009B5B68581C009948609B0013447D
:10FD0000049A1A600A49002011F0ACF904909DF899
:10FD10000F30002B06D1059B01330593049B002B6C
:10FD2000D9D100E000BF059B184607B05DF804FB81
:10FD30009C28030000B585B001902249019811F07C
:10FD40000FFD0346002B02D10123039334E01E492B
:10FD5000019811F005FD0346002B02D10223039305
:10FD60002AE01A49019811F0FBFC0346002B02D14E
:10FD70000323039320E01649019811F0F1FC034698
:10FD8000002B02D10423039316E01249019811F0CD
:10FD9000E7FC0346002B02D1052303930CE00E4938
:10FDA000019811F0DDFC0346002B02D106230393DA
:10FDB00002E04FF0FF330393039B184605B05DF854
:10FDC00004FB00BFA0280300A8280300B0280300FC
:10FDD000B8280300BC280300C0280300F0B5ADF527
:10FDE0008A5D85B00CAB043B18600CAB083B196016
:10FDF0000CAB0A3B1A8000230DF58A5202F10C026B
:10FE000013608AE054AB083B4FF48052002118463F
:10FE100011F051FC0CAB083B1B681A680DF58A53B6
:10FE200003F10C031B684FF48C7101FB03F31344C3
:10FE30000CAA104619464FF48C731A4611F012FCA6
:10FE40000CAB93F8803019460CAB93F88130184610
:10FE50000CAB93F882301C460CAB93F883301D46F4
:10FE60000CAB93F884301E460CAB93F885301F46DC
:10FE70000CAA0CAB8633069305970496039502945F
:10FE80000190009113462D4A0021002010F0D6FF6A
:10FE900003460DF58A5202F1080213600CAB93F889
:10FEA00080309C460CAB93F8813019460CAB93F82C
:10FEB00082301C460CAB93F883301D460CAB93F894
:10FEC00084301E460CAB93F885301F460CAA54A80C
:10FED00008380CAB8633059304970396029501947A
:10FEE00000916346154910F0BDFF0DF58A5303F1EB
:10FEF00008031B689AB254A908390CAB043B186874
:10FF000004F0CAFE0DF58A5303F10C031B6801339C
:10FF10000DF58A5202F10C0213600CAB0A3B1B88F0
:10FF20000DF58A5202F10C0212689A42FFF66AAF8E
:10FF300000BF0DF58A5D05B0F0BD00BFC828030005
:10FF400000B5ADF5815D81B008AB0C3B186008AB26
:10FF5000103B196008AB113B1A7000230DF580525D
:10FF600002F11C02136008AB043B4FF480520021E5
:10FF7000184611F0A0FB08AB113B1B78002B01D0F9
:10FF80001A4A00E01A4A08AB103B00921B68194A53
:10FF90000021002010F052FF03460DF5805202F1BF
:10FFA0001C02136008AB113B1B78002B01D00F4BD8
:10FFB00000E00F4B08AA103A08A8043812680D494F
:10FFC00010F050FF0DF5805303F11C031B689AB22B
:10FFD00008A9043908AB0C3B186804F05DFE00BFAB
:10FFE0000DF5815D01B05DF804FB00BFFC28030046
:10FFF000042903000C29030000B5ADF5805D85B030
:020000022000DC
:1000000004AB0C3B18600A4604AB0D3B1A7000238E
:100010000DF5805202F10C02136004AB043B4FF467
:1000200080520021184611F046FB04AB0D3B1B78B3
:10003000002B01D0174B00E0174B184A002100207D
:1000400010F0FCFE03460DF5805202F10C02136025
:1000500004AB0D3B1B78002B01D00E4A00E00E4A8A
:1000600004AB043B0D49184610F0FCFE0DF580531F
:1000700003F10C031B689AB204A9043904AB0C3BCE
:10008000186804F009FE00BF0DF5805D05B05DF84D
:1000900004FB00BFFC2803000429030030290300EF
:1000A00000B5ADF5805D85B004AB0C3B18600A4629
:1000B00004AB0D3B1A7000230DF5805202F10C02C7
:1000C000136004AB043B4FF480520021184611F03A
:1000D000F2FA04AB0D3B1B78002B01D0174B00E06C
:1000E000174B184A0021002010F0A8FE03460DF51A
:1000F000805202F10C02136004AB0D3B1B78002B05
:1001000001D00E4A00E00E4A04AB043B0D491846EC
:1001100010F0A8FE0DF5805303F10C031B689AB292
:1001200004A9043904AB0C3B186804F0B5FD00BF0A
:100130000DF5805D05B05DF804FB00BFFC280300F1
:10014000042903004829030000B5ADF5805D87B0A0
:1001500006AB0C3B186006AB103B196006AB123BBC
:100160001A8006AB103B1B685B680DF5805202F1EC
:10017000140213600DF5805303F114031B68002B68
:1001800020DC194B0DF5805202F11002136006AB12
:10019000083B0DF5805202F110021168184610F06C
:1001A00061FE0DF5805303F11003186811F0FFFA9A
:1001B00003469AB206A9083906AB0C3B186804F04E
:1001C0006BFD0AE006AB123B1A8806A9103906AB94
:1001D0000C3B09681868FFF701FE002318460DF56F
:1001E000805D07B05DF804FB6029030000B585B0B1
:1001F00001900091019B0393009B0293039B1A685B
:10020000029B1B681946104611F0AAFA03461846CD
:1002100005B05DF804FB000000B58BB003900291BF
:10022000029B0993212308930D4B082208990D483E
:1002300010F0E4FC05AB00221A605A60099B05939C
:1002400005A8074B00930823089A064910F0BEFA48
:100250000790079B1B7918460BB05DF804FB00BFA5
:10026000ED01020008260020F0B5ADF5885D81B0F3
:10027000044618A818380160114618AA1C3A1360E1
:1002800018AB113B22461A7018AB123B0A461A7083
:1002900018AB113B1B78152B07D918AB183B1B6803
:1002A000002B02DA072301F044B800230DF5875232
:1002B00002F11C021360B94B1A6818AB183B1B689B
:1002C0004FF48C7101FB03F313440DF5875202F1D7
:1002D0001802136018AB113B1B781F2B01F228800A
:1002E00001A252F823F000BF6903020023040200B8
:1002F00091040200F3040200030702000907020050
:100300000F0702000B0402006F0302009F030200AC
:10031000C90302001D040200F3030200FF030200F0
:10032000150702005D080200730502003D06020089
:10033000E9060200CF060200311302003113020069
:10034000BD0B0200CD090200D10D0200270C0200F6
:100350004F0D0200190F020049100200991102000E
:1003600069120200BF120200002300F0E2BF8C4BB2
:1003700000221A708B4B00221A708B4B1B78002BBB
:1003800014BF01230023DBB283F00103DBB203F0CF
:100390000103DAB2844B1A70002300F0CABF804B0D
:1003A0001B78002B14BF01230023DBB283F0010371
:1003B000DBB203F00103DAB2794B1A70794B0022F9
:1003C0001A70002300F0B5BF754B00221A70754BF0
:1003D0001B78002B14BF01230023DBB283F0010341
:1003E000DBB203F00103DAB26E4B1A70002300F0A7
:1003F000A0BF6E4B01221A70002300F09ABF6B4B16
:1004000000221A70002300F094BF654B00221A707E
:10041000644B00221A70002300F08BBF002300F011
:1004200088BF38AB0C3B4FF480520021184611F0C6
:1004300042F95F4B1B881A465E4B1B7800931346AC
:100440005D4A0021002010F0F9FC03460DF58752AB
:1004500002F11C021360564B1B881A46554B1B7841
:1004600038A80C38544910F0FDFC0DF5875303F102
:100470001C031B689AB238AB0C3B19460DF5885328
:1004800003F11803186804F007FC002300F051BFC3
:1004900038AB0C3B4FF480520021184611F00BF999
:1004A000464B1B78464A0021002010F0C7FC03464B
:1004B0000DF5875202F11C021360404B1B781A465F
:1004C00038AB0C3B3E49184610F0CCFC0DF5875379
:1004D00003F11C031B689AB238AB0C3B19460DF5AF
:1004E000885303F11803186804F0D6FB002300F0CA
:1004F00020BF38AB0C3B4FF480520021184611F05E
:10050000DAF82B4B1B8819462A4B1B781A462B4BC3
:100510001B78019300920B462A4A0021002010F01C
:100520008DFC03460DF5875202F11C021360204B2F
:100530001B881A461F4B1B781946204B1B7838A87E
:100540000C3800930B461F4910F08CFC0DF58753B7
:1005500003F11C031B689AB238AB0C3B19460DF52E
:10056000885303F11803186804F096FB002300F089
:10057000E0BE38AB0C3B4FF480520021184611F01E
:100580009AF8114B1B78002B01D0104A00E0104A5A
:10059000064B1B78002B1DD00C4B1CE06427002061
:1005A0007E2700207F27002083270020822700202D
:1005B0005A27002058270020742903005D270020B7
:1005C00090290300AC2903007D270020FC280300AC
:1005D00004290300964B00931346964A00210020FD
:1005E00010F02CFC03460DF5875202F11C0213603B
:1005F000914B1B78002B01D0904A00E08C4A904B25
:100600001B78002B01D08D4B00E0894B38A80C38AB
:10061000884910F027FC0DF5875303F11C031B6874
:100620009AB238AB0C3B19460DF5885303F1180309
:10063000186804F031FB002300F07BBE38AB0C3BA4
:100640004FF480520021184611F035F87D4B1B788D
:10065000002B01D0794A00E0754A7B4B1B78002BB8
:1006600001D0764B00E0724B00931346774A00218D
:10067000002010F0E3FB03460DF5875202F11C0247
:100680001360704B1B78002B01D06C4A00E0684A65
:100690006D4B1B78002B01D0684B00E0644B38A8F1
:1006A0000C386A4910F0DEFB0DF5875303F11C038B
:1006B0001B689AB238AB0C3B19460DF5885303F111
:1006C0001803186804F0E8FA002300F032BE5A4B11
:1006D0001B7819460DF5885303F118031868FFF7C6
:1006E0008BFC002300F025BE554B1B7819460DF5F9
:1006F000885303F118031868FFF7D2FC002300F0B9
:1007000018BE002300F015BE002300F012BE002327
:1007100000F00FBE18AB123B1B78002B57D04C4B90
:100720001B680DF5875202F11402136018AB1C3BD5
:100730000A220021186810F0CBFC0DF5875303F155
:1007400010031860424A0DF5875303F110031B682C
:10075000136038AB0C3B4FF480520021184610F068
:10076000AAFF0DF5875303F110031B6800930DF5E5
:10077000875303F114031B68364A0021002010F050
:100780005DFB03460DF5875202F11C02136038A889
:100790000C380DF5875303F110031B680DF58752D4
:1007A00002F1140212682B4910F05CFB0DF587531F
:1007B00003F11C031B689AB238AB0C3B19460DF5CC
:1007C000885303F11803186804F066FA2CE038AB7C
:1007D0000C3B4FF480520021184610F06CFF1C4B6C
:1007E0001B681D4A0021002010F028FB03460DF570
:1007F000875202F11C021360154B1A6838AB0C3B90
:100800001549184610F02EFB0DF5875303F11C0314
:100810001B689AB238AB0C3B19460DF5885303F1AF
:100820001803186804F038FA002300F082BD00BFF6
:1008300004290300C82903007D270020FC280300A9
:10084000822700208127002080270020E429030040
:1008500004260020002A0300342A030018AB123BB0
:100860001B78002B6ED0564B1B680DF5875202F19A
:100870000C02136018AB1C3B0021186810F028FB19
:100880000DF5875303F1080383ED000A4C4A0DF57B
:10089000875303F108031B68136038AB0C3B4FF41C
:1008A00080520021184610F006FF0DF5875303F122
:1008B0000C0318680EF001FE04460D460DF5875333
:1008C00003F1080318680EF0F8FD02460B46CDE967
:1008D0000223CDE900453B4A0021002010F0AEFA8A
:1008E00003460DF5875202F11C0213600DF5875384
:1008F00003F10C0318680EF0E0FD05460E460DF5F9
:10090000875303F1080318680EF0D7FD03460C4621
:1009100038A80C38CDE900342A463346294910F06E
:10092000A1FA0DF5875303F11C031B689AB238AB8B
:100930000C3B19460DF5885303F11803186804F0B1
:10094000ABF939E038AB0C3B4FF48052002118462C
:1009500010F0B1FE1A4B1B6818460EF0AEFD0346B0
:100960000C46CDE90034184A0021002010F066FA48
:1009700003460DF5875202F11C021360104B1B68F1
:1009800018460EF09AFD03460C4638A80C381A4655
:1009900023460D4910F066FA0DF5875303F11C0349
:1009A0001B689AB238AB0C3B19460DF5885303F11E
:1009B0001803186804F070F9002300F0BABC00BFF7
:1009C00000260020502A0300882A030038AB0C3B85
:1009D0004FF480520021184610F06DFE0DF587533C
:1009E00003F118031D680DF5875303F118031B6805
:1009F00093F880301E460DF5875303F118031B68EA
:100A000093F881301F460DF5875303F118031B68D7
:100A100093F882300D930DF5875202F11802136896
:100A200093F883300E930DF5875101F118010B688F
:100A300093F884300F930DF5875101F118010B687D
:100A400093F8853010930DF5875101F118010B686B
:100A500086330DF5875101F118010A68D2F80C218F
:100A60000DF5875101F118010968D1F808110DF54C
:100A7000875000F118000068D0F810010DF5875478
:100A800004F118042468D4F814410A9409900891D8
:100A900007920693109A05920F9A04920E9A039267
:100AA0000D9B0293019700962B46C54A002100201A
:100AB00010F0C4F903460DF5875202F11C021360D1
:100AC0000DF5875303F118031E680DF5875303F1E5
:100AD00018031B6893F880309C460DF5875303F18B
:100AE00018031B6893F881301F460DF5875303F1F7
:100AF00018031B6893F882300D930DF5875202F1AD
:100B00001802136893F883300E930DF5875101F1A5
:100B100018010B6893F884300F930DF5875101F19C
:100B200018010B6893F8853010930DF5875101F18A
:100B300018010B6886330DF5875101F118010A6819
:100B4000D2F80C210DF5875101F118010968D1F88F
:100B500008110DF5875000F118000068D0F8104119
:100B60000DF5875000F118000068D0F8145138A82E
:100B70000C3809950894079106920593109A0492EF
:100B80000F9A03920E9A02920D9B0193009763466F
:100B900032468B4910F066F90DF5875303F11C03BB
:100BA0001B689AB238AB0C3B19460DF5885303F11C
:100BB0001803186804F070F80023BAE338AB0C3B54
:100BC0004FF480520021184610F075FD0DF5875343
:100BD00003F118031B687B4A0021002010F02EF956
:100BE00003460DF5875202F11C0213600DF5875381
:100BF00003F118031A6838AB0C3B7249184610F021
:100C000031F90DF5875303F11C031B689AB238AB19
:100C10000C3B19460DF5885303F11803186804F0CE
:100C20003BF8002385E338AB0C3B4FF480520021A6
:100C3000184610F040FD0DF5875303F118031B68AB
:100C400093F880301D460DF5875303F118031B6898
:100C500093F881301A460DF5875303F118031B688A
:100C600093F8823019460DF5875303F118031B687A
:100C700093F8833018460DF5875303F118031B686A
:100C800093F884301C460DF5875303F118031B6855
:100C900093F88530049303940290019100922B46BF
:100CA000494A0021002010F0C9F803460DF587528B
:100CB00002F11C0213600DF5875303F118031B6842
:100CC00093F880301D460DF5875303F118031B6818
:100CD00093F881301E460DF5875303F118031B6806
:100CE00093F882301A460DF5875303F118031B68F9
:100CF00093F8833019460DF5875303F118031B68E9
:100D000093F884301C460DF5875303F118031B68D4
:100D100093F8853038A80C3803930294019100921F
:100D200033462A46284910F09DF80DF5875303F104
:100D30001C031B689AB238AB0C3B19460DF588535F
:100D400003F11803186803F0A7FF0023F1E238ABA2
:100D50000C3B4FF480520021184610F0ACFC0DF50E
:100D6000875303F118031B68D3F80C31174A00218D
:100D7000002010F063F803460DF5875202F11C02C3
:100D800013600DF5875303F118031B68D3F80C218A
:100D900038AB0C3B0D49184610F064F80DF587533D
:100DA00003F11C031B689AB238AB0C3B19460DF5D6
:100DB000885303F11803186803F06EFF0023B8E2AC
:100DC000A02A0300E42A0300F82A0300282B0300CA
:100DD00018AB123B1B78002B66D018AB0C3B802263
:100DE0000021184610F067FC0DF5875303F1180336
:100DF0001B6803F1860218AB0C3B1146184610F035
:100E00008DFC0DF5875303F118031B688633802290
:100E10000021184610F04FFC0DF5875303F118031D
:100E20001B6803F1860218AB1C3B1968104610F0D2
:100E300075FC38AB0C3B4FF480520021184610F083
:100E40003AFC0DF5875303F118031B6803F1860282
:100E500018AB0C3B0092C94A002100200FF0EEFFB6
:100E600003460DF5875202F11C0213600DF58753FE
:100E700003F118031B68863318AA0C3A38A80C38FB
:100E8000BE490FF0EFFF0DF5875303F11C031B68FC
:100E90009AB238AB0C3B19460DF5885303F1180391
:100EA000186803F0F9FE35E038AB0C3B4FF4805284
:100EB0000021184610F0FFFB0DF5875303F11803CE
:100EC0001B688633AE4A002100200FF0B7FF0346AF
:100ED0000DF5875202F11C0213600DF5875303F1E3
:100EE00018031B6803F1860238AB0C3BA449184673
:100EF0000FF0B8FF0DF5875303F11C031B689AB27E
:100F000038AB0C3B19460DF5885303F118031868EC
:100F100003F0C2FE00230CE218AB123B1B78002B3F
:100F200059D00DF5875303F118031B68D3F8083126
:100F30000DF5875202F10402136018AB1C3B0A2224
:100F40000021186810F0C4F80DF5875318600DF5EE
:100F5000875303F118031B680DF587521268C3F815
:100F6000082138AB0C3B4FF480520021184610F09A
:100F7000A2FB0DF587531B6800930DF5875303F112
:100F800004031B687F4A002100200FF057FF03462F
:100F90000DF5875202F11C02136038A80C380DF5CC
:100FA00087531B680DF5875202F1040212687549D8
:100FB0000FF058FF0DF5875303F11C031B689AB21D
:100FC00038AB0C3B19460DF5885303F1180318682C
:100FD00003F062FE36E038AB0C3B4FF48052002148
:100FE000184610F068FB0DF5875303F118031B68D2
:100FF000D3F80831644A002100200FF01FFF034698
:101000000DF5875202F11C0213600DF5875303F1B1
:1010100018031B68D3F8082138AB0C3B5A49184613
:101020000FF020FF0DF5875303F11C031B689AB2E4
:1010300038AB0C3B19460DF5885303F118031868BB
:1010400003F02AFE002374E118AB123B1B78002B3F
:1010500057D04E4B1B680DF5865202F11C021360EF
:1010600018AB1C3B0A220021186810F031F80DF56E
:10107000865303F118031860444A0DF5865303F1B3
:1010800018031B68136038AB0C3B4FF480520021EF
:10109000184610F010FB0DF5865303F118031B687A
:1010A00000930DF5865303F11C031B68384A002199
:1010B00000200FF0C3FE03460DF5875202F11C021B
:1010C000136038A80C380DF5865303F118031B681C
:1010D0000DF5865202F11C0212682D490FF0C2FE76
:1010E0000DF5875303F11C031B689AB238AB0C3B18
:1010F00019460DF5885303F11803186803F0CCFD69
:1011000039E0224B1B680DF5865202F11402136080
:1011100038AB0C3B4FF480520021184610F0CBFA4C
:101120000DF5865303F114031B681A4A00210020B1
:101130000FF084FE03460DF5875202F11C02136086
:1011400038AB0C3B0DF5865202F1140212681149BE
:1011500018460FF087FE0DF5875303F11C031B683B
:101160009AB238AB0C3B19460DF5885303F11803BE
:10117000186803F091FD0023DBE000BF3C2B030067
:101180007C2B0300942B0300D82B0300FC250020AC
:10119000F42B03003C2C030018AB123B1B78002BF4
:1011A00029D038AB0C3B4FF480520021184610F088
:1011B00082FA624A002100200FF040FE03460DF53E
:1011C000875202F11C02136038AB0C3B5B49184696
:1011D0000FF048FE0DF5875303F11C031B689AB20C
:1011E00038AB0C3B19460DF5885303F1180318680A
:1011F00003F052FD36E038AB0C3B4FF48052002137
:10120000184610F058FA0DF5875303F118031B68C0
:10121000D3F810314A4A002100200FF00FFE034698
:101220000DF5875202F11C0213600DF5875303F18F
:1012300018031B68D3F8102138AB0C3B4049184603
:101240000FF010FE0DF5875303F11C031B689AB2D3
:1012500038AB0C3B19460DF5885303F11803186899
:1012600003F01AFD002364E038AB0C3B4FF48052CE
:101270000021184610F01FFA324A002100200FF01A
:10128000DDFD03460DF5875202F11C02136038ABF9
:101290000C3B2C4918460FF0E5FD0DF5875303F183
:1012A0001C031B689AB238AB0C3B19460DF58853EA
:1012B00003F11803186803F0EFFC002339E038ABA2
:1012C0000C3B4FF480520021184610F0F4F90DF554
:1012D000875303F118031B68D3F814311A4A00210D
:1012E00000200FF0ABFD03460DF5875202F11C0202
:1012F00013600DF5875303F118031B68D3F814210D
:1013000038AB0C3B104918460FF0ACFD0DF5875378
:1013100003F11C031B689AB238AB0C3B19460DF560
:10132000885303F11803186803F0B6FC002300E0AB
:10133000002318460DF5885D01B0F0BD5C2C03005C
:10134000B82C0300282D03004C2D030000B5ADF58B
:101350008B5D83B00AAB1C3B186002AB19606FF069
:1013600001030DF58B5202F10402136000230DF509
:101370008A5202F11B02137000230DF58A5202F10A
:101380001A02137000230DF58B5202F10302137041
:1013900052AB4FF480520021184610F08CF952AB3A
:1013A000083B06220021184610F085F952AB143B89
:1013B0000C220021184610F07EF952AB143B02AA11
:1013C00019461068FEF778FC0DF58A5303F11403F3
:1013D000186052AB143B1B681B681846FEF7AAFC4A
:1013E0000DF58A5303F1100318600DF58A5303F1CC
:1013F00010031B68002B0EDA52AB143B1B68184617
:101400000FF034FB52AB143B0C220021184610F0B5
:1014100052F90B23E5E10DF58A5303F110031B6824
:10142000032B17D17A4B1B689AB20AAB1C3B794944
:101430001868FEF789FE52AB143B1B6818460FF084
:1014400015FB52AB143B0C220021184610F033F967
:101450000023C6E10DF58A5303F110031B68012B2D
:1014600006D00DF58A5303F110031B68022B4AD1F5
:1014700052AB143B1B6804331A6852AB1146184632
:1014800010F04CF900230DF58A5202F11C02136092
:1014900031E052AB143B1A680DF58A5303F11C037B
:1014A0001B6802339B0013441B681022002118465E
:1014B0000FF00EFE03460DF58A5202F10E02138064
:1014C0000DF58A5303F10E031B88D9B252AB083BCA
:1014D0000DF58A5202F11C02126813440A461A7072
:1014E0000DF58A5303F11C031B6801330DF58A5275
:1014F00002F11C0213600DF58A5303F11C031B68F3
:10150000052BC6DD69E00DF58A5303F110031B6856
:10151000042B06D00DF58A5303F110031B68052B2D
:101520005BD152AB143B1B6804331A680AAB1C3BFB
:1015300011461868FEF770FE03460DF58B5202F156
:10154000030213700DF58B5303F103031B78152B66
:1015500043D952AB143B1B680833196852AB183B94
:101560001A462C48FEF709FB0346002B08D052AB65
:10157000183B1B680DF58B5202F1040213602CE03E
:1015800052AB143B1B680833196852AB1C3B1A461C
:101590002048FEF79FFA0346002B08D052AB1C3BB5
:1015A0001B680DF58B5202F10402136015E04FF039
:1015B000FF330DF58B5202F10402136052AB143B62
:1015C0001B6818460FF052FA52AB143B0C22002154
:1015D000184610F070F8072303E10DF58A5303F164
:1015E00010031B68042B19D10DF58B5303F1030372
:1015F00018780AAB1C3B1B680093074B00220DF5C3
:101600008B5101F104010968FEF72EFE24E000BFB2
:101610007427002064270020642D03000DF58A53F1
:1016200003F110031B68052B16D152AB143B1B684A
:101630000C331A680DF58B5303F1030318780AABCA
:101640001C3B1B680093134601220DF58B5101F1E1
:1016500004010968FEF708FE0DF58A5303F1100333
:101660001B68012B6CD10AAB143B4FF48C72002128
:10167000184610F020F852AA0AAB143B114618463F
:1016800010F04CF852AB083B1A780AAB143B83F8C5
:10169000802052AB083B5A780AAB143B83F8812078
:1016A00052AB083B9A780AAB143B83F8822052ABCA
:1016B000083BDA780AAB143B83F8832052AB083B33
:1016C0001A790AAB143B83F8842052AB083B5A7951
:1016D0000AAB143B83F885200AAB143B6FF03B0246
:1016E000C3F808210AAB143B9622C3F8102152AA72
:1016F0000AAB143B86331146184610F00FF800234E
:1017000000934FF48C733A4A3A493B480DF0C8FDB8
:101710000346002B0AD1384B1A680AAB143B10461B
:1017200019464FF48C731A460FF09CFF324B5B68DE
:101730000133314A5360304B5B68304A136042E0FA
:101740000DF58A5303F110031B68022B3BD10023D4
:101750000DF58A5202F1080213600DF58A5202F16A
:10176000080252AB083B19462348FEF7B3F903467B
:101770000DF58A5202F10D0213700DF58A5303F133
:101780000D031B78002B1AD00DF58A5303F10803C3
:101790001B680122019200934FF48C73144A15497F
:1017A00015480DF0ADFD144B5B68013B124A5360C8
:1017B0004FF48C730E4A0F490F480DF03CFD0E4B51
:1017C0005B680E4A136052AB143B1B6818460FF05F
:1017D0004DF952AB143B0C22002118460FF06BFF61
:1017E000002318460DF58B5D03B05DF804FB00BFC8
:1017F0006C27002068270020642700207427002021
:1018000000B589B00190019B04330793079B043313
:101810000693079B0433234A1360224B1B68013352
:10182000214A13601F4B1B6893F90E3005931E4B22
:101830001B6802AA19461D48FEF74CF903468DF8AD
:1018400013309DF81330002B27D0184B1A68029BD9
:1018500019464FF48C7303FB01F313440393039B6A
:10186000059AC3F80C21039BD3F814315A1C039B2F
:10187000C3F814210E4B1B78002B03D005990D489B
:1018800006F00CFE0C4B01221A70039BD3F80831B2
:10189000059A9A4201DB012300E00023184609B0B3
:1018A0005DF804FB602700207027002064270020DB
:1018B000852700206C2D03007C27002000B585B013
:1018C0000190019B1B78012B4BD0022B3DD0002BAC
:1018D00053D12D4B1B781A462C4B1344184606F057
:1018E00025FC294B1B780133DAB2274B1A70264BA3
:1018F0001B78013B254AD35C0A2B06D0224B1B7870
:101900009AB2234B1B889A4239D31F4B1B789BB248
:101910001A461E491F4803F0BFF90390039B082B8A
:101920000CD0039B112B09D0039B0293029B002B2D
:1019300004D0194A6721029805F062FA039B112B23
:10194000E3D0114B00221A7019E01449012007F06E
:10195000F9FC019B5B68104A7121184605F050FAAA
:101960000EE00E49012007F0EDFC019B5B680A4A7E
:101970007621184605F044FA02E000BF00E000BFFF
:1019800000BF05B05DF804FB30280020342800209B
:1019900014270020A02700209C2D0300CC26030044
:1019A00030B58DB0134B04AC1D460FCD0FC495E878
:1019B000030084E80300104B00934FF480730193FD
:1019C0000E4B02934FF480730393694604A80723D8
:1019D0000B4A06F03DFB0B900B9B0A930A9B002BD6
:1019E00004D0084A8E210A9805F00AFA00BF0DB00B
:1019F00030BD00BFB42D0300D0280020D029002026
:101A0000BD1802009C2D030000B583B00848FDF707
:101A1000E5FE0190019B0093009B002B04D0054A3A
:101A20009621009805F0ECF900BF03B05DF804FBC7
:101A30006C2E03009C2D030000B589B00390029129
:101A40001346ADF8063002990398FFF77FFC069025
:101A5000002307931FE0029A079B13441B78184644
:101A600006F080FB069000230693069B002B0CD00B
:101A7000069B112B09D0069B0593059B002B04D0D8
:101A8000114AFD21059805F0BBF9069B112BE2D008
:101A9000079B01330793BDF80630079A9A42DAD3C1
:101AA000BDF80630013B029A13441B780D2B06D17A
:101AB00000BF0A2006F056FB0346112BF9D000BFE9
:101AC00009B05DF804FB00BF9C2D030000B587B092
:101AD0009DF80030012262F303038DF800309DF879
:101AE0000030012262F307138DF800301E480FF01A
:101AF0005EFE03469AB26B461B491846FDF766FE2A
:101B00000590059B0493049B002B05D0174A40F2D7
:101B10001511049805F074F901AB0822002118464C
:101B20000FF0C9FD1023ADF804303C23ADF80630AA
:101B30000023ADF808304FF4C873ADF80A3001AB9C
:101B40001846FDF73FFE0590059B0393039B002B72
:101B500005D0064A4FF48F71039805F051F900BF84
:101B600007B05DF804FB00BFCC2D03009C2D0300E3
:101B700000B585B001AB0422002118460FF09BFD93
:101B80000B4B019301AB19460A4803F02DF8039063
:101B9000039B0293029B002B05D0074A4FF49771D9
:101BA000029805F02DF900BF05B05DF804FB00BFF9
:101BB000391A0200A02700209C2D030000B585B033
:101BC0000190019B1B78002B11D10B4B1B883B21F3
:101BD0001846FDF7F3FD0390039B0293029B002B35
:101BE00005D0064A40F24511029805F009F900BFF8
:101BF00005B05DF804FB00BF162700209C2D0300F4
:101C000000B583B001900749012007F09BFB064A0D
:101C100040F25111019805F0F3F800BF03B05DF8F0
:101C200004FB00BFCC2603009C2D030000B58BB045
:101C300001AB1C22002118460FF03DFD002301934B
:101C40004FF4203302934FF47023039303238DF852
:101C500010300023ADF8123000238DF814300C4BF7
:101C600006930C4B079301AB184602F0F3F9099069
:101C7000099B0893089B002B05D0074A4FF4BA71C3
:101C8000089805F0BDF800BF0BB05DF804FB00BF7D
:101C9000BD1B0200011C02009C2D030082B0034604
:101CA0008DF807309DF80730002B01D0032B00E0A2
:101CB00000BF00BF02B0704710B59AB00190019B01
:101CC00004331993C84B1B68002B03D1C74B1B6807
:101CD000C74A13600CF030FE0246C64B1A60C54B73
:101CE0001B6818460FF0E8FB0246C34B1A60C24B54
:101CF0001A68BF4B1B68D31A18460DF079FBB8A3BE
:101D0000D3E900230DF02CFE03460C46184621466D
:101D10000DF0EFFB0246B94B1A60B84BD3ED007AD9
:101D2000B7EE007AF4EEC77AF1EE10FA03DBB24BAD
:101D30001B68AF4A1360019B1B88013B562B00F2C6
:101D40003F8201A252F823F007210200C1210200C4
:101D5000C1210200C1210200C1210200C1210200F3
:101D6000C1210200C1210200C1210200C1210200E3
:101D7000C1210200C1210200C1210200C1210200D3
:101D8000C1210200A51E0200AF1E0200C1210200F7
:101D900031200200C1210200C1210200C121020044
:101DA000C1210200C1210200C1210200C1210200A3
:101DB000C1210200C1210200B91E0200C12102009E
:101DC000C1210200C12102005B200200C1210200EA
:101DD000C1210200C1210200C1210200C121020073
:101DE000C1210200C1210200C1210200C121020063
:101DF000C1210200C1210200C1210200C121020053
:101E0000C1210200C1210200C1210200C121020042
:101E1000C1210200C1210200C1210200C121020032
:101E2000C1210200C1210200C1210200C121020022
:101E3000BB200200C1210200C1210200C121020019
:101E4000C1210200C1210200C1210200C121020002
:101E5000C1210200C1210200C1210200C1210200F2
:101E6000C1210200C1210200C1210200C1210200E2
:101E7000C1210200C1210200C1210200C1210200D2
:101E8000C1210200C12102002D2102009120020087
:101E9000C1210200C1210200C1210200E120020093
:101EA000C1210200019B9A88554B1A8088E1544B4E
:101EB0004FF6FF721A8083E100238DF86330FDF73F
:101EC00087FD17904F4B1B6817991846FDF79CFD2F
:101ED0001690169B07EE903AB8EE677ADFED4A6AE5
:101EE000C7EE267ACDED157A464A179B1360474B0D
:101EF0001B78002B45D0DDED157AF5EEC07AF1EEBA
:101F000010FA0AD5DDED157ABFEE007AF4EEC77A45
:101F1000F1EE10FA01DD3E4900E03E49DDED157AB3
:101F2000FDEEE76ADDED157AF5EEC07AF1EE10FA16
:101F300010DDDDED157AFDEEE77AF8EEE77A9DED3E
:101F4000157A77EE677A9FED347A67EE877AFDEE41
:101F5000E77A0FE0DDED157AFDEEE77AB8EEE77A85
:101F6000DDED157A77EE677A9FED2B7A67EE877A4B
:101F7000FDEEE77A17EE903A16EE902A274806F023
:101F80008DFA274B1B68002B20DD0198FFF738FCEA
:101F900003468DF863309DF86330002B06D0214B4B
:101FA00000221A60204B01221A70FAE01D4B1B68B8
:101FB00001331C4A13601B4B1A681C4B1B689A4266
:101FC000C0F2EF80184B00221A70EAE0154B002295
:101FD0001A60154B00221A70E3E000BFAFF30080D7
:101FE0000000000000AAAE40D82700208C27002067
:101FF000942700209C27002090270020882700207D
:10200000162700209827002000007A44842700200B
:10201000E02D0300E42D03000000C842E82D03007A
:102020007427002078270020DC270020FC250020D2
:10203000674B1888002300228521FDF7CBFB149005
:10204000149B1393139B002B00F0AD80614A4FF457
:10205000EA71139804F0D4FEA5E00BAB082200212E
:1020600018460FF028FB019B9B880BA900221846FD
:10207000FDF7B8FB1490149B1293129B002B00F0F9
:102080009480544A40F2DD11129804F0B9FE8CE0BD
:102090004F4B1888002300220021FDF7ABFB149062
:1020A000149B1193119B002B00F08180494A40F250
:1020B000E311119804F0A4FE79E0019B9B881321A1
:1020C0001846FDF77BFB1490149B1093109B002B7C
:1020D0006FD0404A40F2E911109804F091FE68E098
:1020E000019B9B8813211846FDF768FB1490149BF5
:1020F0000F930F9B002B5ED0364A40F2EF110F98E2
:1021000004F07EFE57E0019B9B8800211846FDF7F6
:1021100079FB1490149B0E930E9B002B4DD02D4AEF
:1021200040F2F5110E9804F06BFE46E0019B07ACFF
:102130000633186859689A68DB680FC49DF81C302C
:10214000002B3CD09DF82430042B07D09DF8243080
:10215000062B03D09DF82430052B30D19DF81C3080
:10216000022B03D102238DF80C3002E001238DF8FD
:102170000C304FF4C173ADF81030019B9B8803AA5B
:1021800011461846FDF732FB1490149B0D930D9BDE
:10219000002B14D00F4A40F209210D9804F030FEB4
:1021A0000DE000BF0CE000BF0AE000BF08E000BF88
:1021B00006E000BF04E000BF02E000BF00E000BF97
:1021C000054B1B680133044A136000BF1AB010BDF1
:1021D000162700209C2D0300D827002000B583B0CF
:1021E0000190019802F068F801990A4802F0E0FABB
:1021F0000199094802F0CAFC0198FFF75DFD0198BA
:1022000001F08CFE019800F0DDFC00BF03B05DF82A
:1022100004FB00BFBC270020A027002000B58FB022
:10222000554B1B68049304A80023D822534906F099
:1022300017FB0D900D9B0C930C9B002B05D0504A67
:1022400040F23E210C9804F0DBFD0023039303AB26
:10225000184606F089FB0B900B9B0A930A9B002BF8
:1022600005D0474A40F243210A9804F0C9FD6B4665
:102270000C22002118460FF01EFA01238DF80030C1
:1022800000238DF8013000238DF80230039A6B464D
:1022900019464020FDF7B2FA0B900B9B0993099B5E
:1022A000002B05D0364A40F24E21099804F0A8FDD3
:1022B0006B460C22002118460FF0FDF901238DF822
:1022C00000309E23ADF80230039A6B461946232056
:1022D000FDF794FA0B900B9B0893089B002B05D0FD
:1022E000274A40F25521089804F08AFD6B460C22DB
:1022F000002118460FF0DFF901238DF800304FF46C
:10230000A073ADF8043001238DF80230039A6B46B8
:1023100019462020FDF772FA0B900B9B0793079B41
:10232000002B05D0164A40F25D21079804F068FDA5
:1023300003AB184606F028FB0B900B9B0693069BFD
:10234000002B05D00E4A40F26121069804F058FD9A
:102350000C4806F0DDFA0B900B9B0593059B002BB8
:1023600005D0074A40F26521059804F049FD00BFF9
:102370000FB05DF804FB00BF082E0300D02A002038
:102380009C2D0300DD21020082B001900091009B92
:102390005A88094B1B889A420BD1009B1B8840F638
:1023A0007722934205D1009B9B88033B9AB2034B53
:1023B0001A8000BF02B070471627002014270020A3
:1023C00000B585B01149124802F0ABF90390039BA8
:1023D0000293029B002B05D00E4A40F29F210298E7
:1023E00004F00EFD80210A4802F0C6F90390039B19
:1023F0000193019B002B05D0064A40F2A2210198CF
:1024000004F0FEFC00BF05B05DF804FB8923020068
:10241000BC2700209C2D030000B5ABB019AB3C22BB
:10242000002118460FF047F902238DF8643000238D
:102430008DF8663005238DF867300AAB3C22002109
:1024400018460FF038F90123ADF83830144B0F93CC
:1024500002AB2022002118460FF02DF901238DF840
:102460000B3040230693B423079302AA0AA919A8A4
:10247000002300930B4B01F063FB2990299B2893C9
:10248000289B002B05D0084A40F2BF21289804F071
:10249000B7FC012001F046FB00BF2BB05DF804FB48
:1024A000102700209D1C02009C2D030000B583B066
:1024B000FFF7B4FEFFF70AFBFFF782FFFFF758FBB9
:1024C000FFF7AAFFFFF7B2FB032001F03DFC0190EC
:1024D000019B0093009B002B05D0064A40F2CE21C1
:1024E000009804F08DFCFFF78FFA019B184603B0AB
:1024F0005DF804FB9C2D030010B584B001900B46E1
:102500008DF803302A4B1B68002B03D0284B1B6827
:10251000022B0BDD0CF010FA034618460EF0CCFF30
:102520000246244B1A60224B00221A60204B1B6883
:1025300001331F4A13600CF0FFF902461E4B1A606C
:102540001D4B1B6818460EF0B7FF02461B4B1A6066
:102550001A4B1A68174B1B68D31A18460CF048FF21
:1025600011A3D3E900230DF0FBF903460C461846EE
:1025700021460CF0BEFF03460393DDED037AB1EE76
:10258000047AF4EEC77AF1EE10FA00DA09E00C49A9
:10259000012006F0D7FE4FF47A70FDF793F9FDF7AE
:1025A00039F900BF04B010BD0000000000AAAE4021
:1025B0002028002024280020282800202C28002063
:1025C000C426030000B585B003F020F80390039BF8
:1025D0000293029B002B04D0124A4721029804F078
:1025E0000FFC114B1B68009303238DF801300B2364
:1025F00018466B460D4A194603F05CF80390039B9E
:102600000193019B002B04D0064A4D21019804F050
:10261000F7FB0B230121184603F0A6F800BF05B015
:102620005DF804FB0C2E0300582E0300F924020071
:1026300000B587B0F1EE103A0193019B23F09F03A0
:102640000293029BE1EE103AF1EE103A039326203A
:10265000FDF78AF8FDF7DAF80590059B0493049BD3
:10266000002B04D0044A5821049804F0C9FB00BF91
:1026700007B05DF804FB00BF0C2E030000B583B06B
:1026800000230193019B0093009B002B04D0044A7C
:102690007021009804F0B4FB00BF03B05DF804FBA8
:1026A0000C2E030000B583B00123364918460AF00A
:1026B000D5F80190344B1B781A46324B1B689A426E
:1026C00014D0304B1B68002B0CBF01230023DBB25E
:1026D0001A462E492E48FDF733FC2A4B1B68002B67
:1026E00014BF01230023DAB2274B1A7000232949B3
:1026F00018460AF0B3F80190274B1B781A46254B71
:102700001B689A4214D0234B1B68002B0CBF01237B
:102710000023DBB21A4621491D48FDF711FC1D4B71
:102720001B68002B14BF01230023DAB21A4B1A7066
:10273000144B1B68002B21D0194B1B6800931948C0
:102740009DED000A0CF0E0FC0FE0174B1B78002B0E
:102750000FD1164B1B78002B0BD1012309491846CA
:102760000AF07CF8019004F0B3FC064B1B68002BC8
:10277000EBD10C489FED0E0A0CF0C6FC00BF03B075
:102780005DF804FB18280020A82B00205C2E030015
:10279000A02700201C280020A92B0020642E030065
:1027A00000260020E02700207E270020832700202D
:1027B0000000000010B582B000233D4918460AF021
:1027C0004DF801903B4B1B781A46394B1B689A42D7
:1027D00014D0374B1B68002B0CBF01230023DBB246
:1027E0001A4635493548FDF7ABFB314B1B68002BCA
:1027F00014BF01230023DAB22E4B1A700123304993
:1028000018460AF02BF801902E4B1B781A462C4BD9
:102810001B689A4214D02A4B1B68002B0CBF012363
:102820000023DBB21A4628492448FDF789FB244BD4
:102830001B68002B14BF01230023DAB2214B1A704E
:102840001B4B1B68002B30D0204B1B6818460CF02C
:1028500034FE03460C46184621460CF04AFE034659
:1028600007EE903AF1EE677ACDED007A18489DEDCB
:10287000000A0CF049FC0FE000230D49184609F04E
:10288000EDFF0190134B1B78002B09D1124B1B78E5
:10289000002B05D104F01CFC054B1B68002BEBD171
:1028A0000B489FED0E0A0CF02FFC00BF02B010BDCC
:1028B0001C280020AA2B0020642E0300A027002043
:1028C00018280020AB2B00205C2E030000260020DF
:1028D000E02700207F270020832700200000000041
:1028E00000B587B04B4B00221A604B4B00221A6098
:1028F0004A4B1B6818460EF0B9F80C2200214748D5
:102900000EF0D9FE0C22002144480EF0D4FE444AB9
:102910003C21082004F016FB0590059B0493049BC2
:10292000002B04D03F4ABA21049804F069FA05F05C
:10293000A9F90390039B0293029B002B04D0394A10
:10294000BC21029804F05CFA0BF0F6FF01900198AC
:102950000EF0B2FD0246344B1A60FFF721F8FFF784
:102960008DFEFFF7A3FDFFF72DFE0CF067FA0223A3
:1029700003212E4A18460CF037FB2D480CF0E7F9DE
:102980002C4A2D492D480CF0E9F801230221184664
:1029900009F03EFE00230221184609F039FE2348C3
:1029A0009FED270A0CF0B0FB04F092FB254B1B783F
:1029B000002B04D02449002006F0C4FC03E0234986
:1029C000002006F0BFFC224B1B78002B02D0FFF743
:1029D000F1FE1CE01F4B1B78002B02D0FFF762FEBC
:1029E00015E01D4B1B78002B05D010489FED140AF5
:1029F0000CF08AFB0BE0134B1B7883F00103DBB276
:102A0000002B02D0FFF74EFE01E0FFF7D3FEFFF7E9
:102A10000FFEC9E7D8270020782700206427002070
:102A2000AC2B00200C2E03008C270020E027002078
:102A3000E3F801000C28002009F90100A0BB0D00FB
:102A400000000000DC270020D0260300C826030079
:102A50007E2700207F2700208327002084B001905C
:102A60000B468DF8033013468DF802300023039394
:102A7000019B002B3CD19DF80230012B0BD19DF81E
:102A80000330012B04D1019BDBB20E33DBB200E03B
:102A900000238DF802309DF80330012B04D0022B67
:102AA0000CD0002B15D01FE01449019A13465B008F
:102AB00013440B449DF802201A701BE00F49019A41
:102AC00013465B0013440B4401339DF802201A7037
:102AD00010E00A49019A13465B0013440B44023389
:102AE0009DF802201A7005E00723039300BF01E060
:102AF00007230393039B184604B070477C2F0020E4
:102B000000B583B0012200210020FFF7A7FF01904C
:102B1000019B002B04D0019B072B01D0019B1CE0E3
:102B2000072202210120FFF799FF0190019B002B52
:102B300004D0019B072B01D0019B0EE0042202214F
:102B40000020FFF78BFF0190019B002B04D0019B1D
:102B5000072B01D0019B00E00023184603B05DF86D
:102B600004FB00B583B0012202210020FFF776FFAD
:102B70000190019B002B04D0019B072B01D0019BEE
:102B80001CE0072202210120FFF768FF0190019B52
:102B9000002B04D0019B072B01D0019B0EE00A22E1
:102BA00000210020FFF75AFF0190019B002B04D069
:102BB000019B072B01D0019B00E00023184603B0C6
:102BC0005DF804FB00B585B00190019B1B88102BBC
:102BD00002D0112B18D02FE0194B1B68002B0DD100
:102BE000FFF78EFF0390039B002B07D0154B1B684C
:102BF000002B03D0134B1B6803989847104B1B689E
:102C000001330F4A136017E00D4B1B68013B0C4A60
:102C100013600B4B1B68002B0DD1FFF7A2FF039035
:102C2000039B002B07D0074B1B68002B03D0054BE1
:102C30001B680398984700BF00BF05B05DF804FB10
:102C4000842F0020802F00206DDF704700BF1846C2
:102C500072DF704700BF184679DF704700BF184623
:102C60007DDF704700BF184664DF704700BF18461D
:102C700082B003460091ADF80630BDF80630DAB2F6
:102C8000009B1A70BDF806301B0A9AB2009B0133F4
:102C9000D2B21A700223184602B0704700B589B04C
:102CA000039002911346ADF80630029B1B8803F196
:102CB0000902BDF806309A4201D90C2351E005AB58
:102CC0001846FFF7C1FF0790079B002B01D0079B19
:102CD00047E0029B1B881A46039B134408221A7084
:102CE000029B1B8801339AB2029B1A80029B1B88AD
:102CF0001A46039B13441B221A70029B1B88013344
:102D00009AB2029B1A80029B1B881A46039B981852
:102D100005AB0133062219460EF0A4FC029B1B886A
:102D200006339AB2029B1A809DF8143023F00103F7
:102D3000DBB2002B07D1029B1B881A46039B13446E
:102D400000221A7006E0029B1B881A46039B13445C
:102D500001221A70029B1B8801339AB2029B1A80CF
:102D60000023184609B05DF804FB00B589B0039054
:102D700002910192ADF80230039B1B78012B05D123
:102D8000039B5B78002B01D1072389E0019B1B8803
:102D90009A1CBDF802309A420ED8039B1B78012B77
:102DA0000CD1019B1B881A46039B5B7813449A1C29
:102DB000BDF802309A4201D90C2371E0019B1B88B7
:102DC000BDF80220D31A9BB2023BADF81C30BDF80F
:102DD0001C30ADF81630019B1B880233029A134455
:102DE0000DF1160211461846FFF73AFF0690069BB2
:102DF000002B01D0069B53E0039B1B78022B09D1CB
:102E0000BDF81630BDF81C209A4203D309238DF873
:102E10001F3017E008238DF81F30039B1B78012B10
:102E20000CD1039B5B789BB2BDF81C209A4205D362
:102E3000039B5B789BB2ADF8163003E0BDF81C3005
:102E4000ADF81630BDF81630FE2B01D90C2327E063
:102E5000BDF81630DAB2019B1B881946029B0B4461
:102E60000132D2B21A70019B1B8801339AB2019BC6
:102E70001A80019B1B881A46029B13449DF81F2051
:102E80001A70019B1B8801339AB2019B1A80019B27
:102E90001A88BDF8163013449AB2019B1A80002399
:102EA000184609B05DF804FB00B587B003900291A5
:102EB0001346ADF80630029B1B881A1DBDF806307C
:102EC0009A4201D90C2339E00DF112031846FFF79D
:102ED000C3FE0590059B002B01D0059B2EE0029BB5
:102EE0001B881A46039B134403221A70029B1B88FB
:102EF00001339AB2029B1A80029B1B881A46039BDD
:102F0000134419221A70029B1B8801339AB2029B48
:102F10001A80BDF81220029B1B881946039B0B44A4
:102F200019461046FFF7A4FE03461946029B1A886D
:102F30008BB213449AB2029B1A800023184607B042
:102F40005DF804FB84B0029101921A4603468DF8A5
:102F50000F301346ADF80C30019B1B88DA1CBDF80E
:102F60000C309A4201D90C2328E0019B1B881A4699
:102F7000029B134402221A70019B1B8801339AB2F0
:102F8000019B1A80019B1B881A46029B1344012255
:102F90001A70019B1B8801339AB2019B1A80019B16
:102FA0001B881A46029B13449DF80F201A70019B40
:102FB0001B8801339AB2019B1A800023184604B083
:102FC000704784B0029101921A4603468DF80F3083
:102FD0001346ADF80C30019B1B88DA1CBDF80C3091
:102FE0009A4201D90C2328E0019B1B881A46029BB8
:102FF000134402221A70019B1B8801339AB2019B71
:103000001A80019B1B881A46029B13440A221A70DD
:10301000019B1B8801339AB2019B1A80019B1B887C
:103020001A46029B13449DF80F201A70019B1B88BF
:1030300001339AB2019B1A800023184604B07047EE
:1030400000B58BB0039001930B468DF80B301346FF
:103050008DF80A3000238DF823300C9B1B88ADF8C7
:103060002030002309936DE0039B5A68099B9B0065
:103070001A4404AB106818600DF1170104AB00226C
:103080001846FFF7F1FD0790079B002B01D0079B27
:103090007AE09DF817309DF80A209A424FD19DF8AA
:1030A0002330002B01D0002300E002238DF81B30D9
:1030B0000C9B1B881A469DF817301A449DF81B304C
:1030C0001A44BDF834309A4201DD0C235CE09DF8CF
:1030D000233083F00103DBB2002B16D00C9B1B883E
:1030E00001339AB20C9B1A800C9B1B881A46019BD9
:1030F00013449DF80B201A700C9B1B8801339AB265
:103100000C9B1A8001238DF823300C9B1B881A46D8
:10311000019B1A440DF1170104AB1846FFF7A4FDFB
:103120000790079B002B01D0079B2DE00C9B1A8872
:103130009DF817309BB213449AB20C9B1A80099BDE
:1031400001330993039B1B881A46099B93428BDB2F
:103150009DF82330002B16D00C9B1A88BDF8203028
:10316000D31A9BB2013BADF81830BDF81830FF2BD5
:1031700001D90C2308E0BDF82030019A1344BDF8B2
:103180001820D2B21A70002318460BB05DF804FB69
:1031900000B589B0059003930B468DF813301346A4
:1031A0008DF812309DF81310BDF82C3001930A9B56
:1031B0000093039B02220598FFF742FF0790079BAD
:1031C000002B01D0079B12E09DF81210BDF82C30A7
:1031D00001930A9B0093039B10220598FFF730FF91
:1031E0000790079B002B01D0079B00E000231846A7
:1031F00009B05DF804FB82B00190019B1B88052B90
:103200000AD9019B1B88B3F5486F07D9019B1B881E
:103210004FF6FF72934201D0072325E0019B5B88A4
:10322000052B0AD9019B5B88B3F5486F07D9019B31
:103230005B884FF6FF72934201D0072314E0019B95
:103240001B884FF6FF7293420DD0019B5B884FF6AF
:10325000FF72934207D0019B1A88019B5B889A42B8
:1032600001D9072300E00023184602B0704700B5DB
:1032700087B0039002910192ADF80230019B1B8848
:103280009A1DBDF802309A4201D90C234BE00398F5
:10329000FFF7B1FF0590059B002B01D0059B42E095
:1032A000019B1B881A46029B134405221A70019B3E
:1032B0001B8801339AB2019B1A80019B1B881A4616
:1032C000029B134412221A70019B1B8801339AB28D
:1032D000019B1A80039B1A88019B1B881946029B3D
:1032E0000B4419461046FFF7C3FC03461946019BE1
:1032F0001A888BB213449AB2019B1A80039B5A8896
:10330000019B1B881946029B0B4419461046FFF788
:10331000AFFC03461946019B1A888BB213449AB23C
:10332000019B1A800023184607B05DF804FB00B526
:1033300087B0039002910192ADF80230039B9B8805
:1033400002330593019B1B881A46059B13449A1C64
:10335000BDF802309A4201D90C2354E0059BFE2BA4
:1033600001D90C234FE0059BDAB2019B1B8819465B
:10337000029B0B440132D2B21A70019B1B880133AD
:103380009AB2019B1A80019B1B881A46029B134428
:10339000FF221A70019B1B8801339AB2019B1A808D
:1033A000039B1A88019B1B881946029B0B441946F4
:1033B0001046FFF75DFC03461946019B1A888BB245
:1033C00013449AB2019B1A80039B9B88002B19D04F
:1033D000039B9B68002B01D1072314E0019B1B88F2
:1033E0001A46029B9818039B9968039B9B881A4670
:1033F0000EF038F9019B1A88039B9B8813449AB2FC
:10340000019B1A800023184607B05DF804FB00B545
:1034100089B0039002910192ADF80230039B9B6A40
:10342000002B01D1072372E000238DF81F3066E0E6
:10343000039B996A9DF81F2013465B0013449B0071
:103440000B440693069B9B8802330593059BFE2B3A
:1034500001D90C235BE0059BDAB2019B1B8819465E
:10346000029B0B440132D2B21A70019B1B880133BC
:103470009AB2019B1A80019B1B881A46029B134437
:1034800016221A70019B1B8801339AB2019B1A8085
:10349000069B1A88019B1B881946029B0B44194600
:1034A0001046FFF7E5FB03461946019B1A888BB2CD
:1034B00013449AB2019B1A80069B9B88002B19D05B
:1034C000069B9B68002B01D1072320E0019B1B88F2
:1034D0001A46029B9818069B9968069B9B881A4679
:1034E0000EF0C0F8019B1A88069B9B8813449AB281
:1034F000019B1A809DF81F3001338DF81F30039B0C
:1035000093F82C309DF81F209A4291D3002318463F
:1035100009B05DF804FB00B589B0059004910392F1
:1035200000230793039B1B88ADF81A30039B0022EE
:103530001A80059B93F82D30002B0CD0BDF81A3063
:103540001A4603990498FFF7A9FB0790079B002BE5
:1035500001D0079BC4E0059B9B78002B0CD0BDF8E5
:103560001A301A4603990498FFF79EFC0790079BB0
:10357000002B01D0079BB3E0059BDB78002B0ED01E
:10358000059BDB7858B2BDF81A30039A0499FFF70F
:10359000D9FC0790079B002B01D0079BA0E0059B5F
:1035A0005B68002B0FD0059B5B6893F90000BDF8AA
:1035B0001A30039A0499FFF704FD0790079B002B2C
:1035C00001D0079B8CE0059B1B89002B12D0059B2B
:1035D00003F10800BDF81A300193039B0093049B8C
:1035E00006220221FFF7D4FD0790079B002B01D094
:1035F000079B75E0059B1B8A002B12D0059B03F1EE
:103600001000BDF81A300193039B0093049B07221E
:103610000321FFF7BDFD0790079B002B01D0079BFF
:103620005EE0059B1B8B002B12D0059B03F118005D
:10363000BDF81A300193039B0093049B15221421BB
:10364000FFF7A6FD0790079B002B01D0079B47E0E3
:10365000059B1B6A002B0DD0059B186ABDF81A301C
:10366000039A0499FFF703FE0790079B002B01D0F4
:10367000079B35E0059B5B6A002B0DD0059B586AC4
:10368000BDF81A30039A0499FFF751FE0790079B83
:10369000002B01D0079B23E0059B93F82C30002BD7
:1036A0000CD0BDF81A30039A04990598FFF7AFFEC5
:1036B0000790079B002B01D0079B11E0059B1B780F
:1036C000002B0CD0BDF81A30039A04990598FFF727
:1036D0004CFB0790079B002B01D0079B00E0079B4A
:1036E000184609B05DF804FB82B00190019BDB78BD
:1036F00003F00403002B01D1072300E00023184648
:1037000002B0704782B00190019BDB78002B01D0A2
:10371000072300E00023184602B0704700B597B0B9
:10372000019000911F23ADF84A301F23ADF84830B7
:10373000019B002B18D00198FFF7D6FF1390139B25
:10374000002B01D0139B3FE00DF14A020AAB194652
:103750000198FFF7E0FE1390139B002B01D0139B01
:1037600032E00AAB159304E0002315930023ADF873
:103770004A30009B002B17D00098FFF7C3FF13902F
:10378000139B002B01D0139B1EE012AA02AB19461B
:103790000098FFF7C0FE1390139B002B01D0139BE2
:1037A00012E002AB149304E0002314930023ADF85D
:1037B0004830BDF84A30D9B2BDF84830DBB2149A6F
:1037C0001598FFF745FA0346184617B05DF804FB55
:1037D00073DF704700BF1846014B1B7818467047CF
:1037E0005E30002084B00190002303930AE0019A28
:1037F000039B13441B78002B01D0012306E0039B9D
:1038000001330393039B052BF1D90023184604B021
:103810007047000082B003468DF807309DF80730EE
:103820005A1C074B83FB02135910D317C91A0B46B6
:103830009B000B44D11ACBB2184602B0704700BFB0
:103840006766666682B00190019BDB7B012B03D12A
:10385000019B9A88024B1A8000BF02B0704700BFDC
:103860005030002000B585B001900E4B00221A7038
:10387000019B9A880C4B1B889A420ED1012000F0C4
:1038800063FA0390039B002B07D0084B1B68002BA7
:1038900003D0064B1B680398984700BF05B05DF83E
:1038A00004FB00BF5C300020503000205830002066
:1038B00000B585B00190019B1B7A002B15D10D4BF3
:1038C0001B781846FFF7A6FF0346184600F03CFA9F
:1038D0000390039B002B09D0074B1B68002B05D0DE
:1038E000054B1B680398984700E000BF05B05DF8E2
:1038F00004FB00BF8B2F00205830002000B583B0A0
:1039000001AB184604F046FB019B002B14BF0123BA
:103910000023DBB2184603B05DF804FB00B585B0A8
:1039200003468DF807301E48FFF75CFF03468DF80D
:103930000F309DF80730013B032B2BD801A252F822
:1039400023F000BF55390200693902007D390200B9
:1039500089390200134B5B78002B05D09DF80F309E
:10396000002B01D0012316E00E4B9B78002B05D0D5
:103970009DF80F30002B01D002230CE0094BDB78BF
:10398000002B01D0032306E0064B1B79002B01D04E
:10399000042300E00023184605B05DF804FB00BFD7
:1039A000B12F00208C2F002082B00190094B012202
:1039B0001A70019B084A5A60019B01221A70019BF0
:1039C00000229A81019B00225A810023184602B0EE
:1039D000704700BF8A2F0020B02F002082B00190D6
:1039E0000B4B02221A70019B0A4A5A60019B01226A
:1039F0001A70094BDB689AB2019B9A81064B9B684F
:103A00009AB2019B5A810023184602B0704700BF4A
:103A10008A2F0020B02F00208C2F002000B585B009
:103A200001901B4B1B699AB2019B5A81184B5B6931
:103A30009AB2019B9A81164B1B78002B1FD0154B15
:103A40001B7883F00103DBB2002B18D0FFF7C4FE14
:103A50000346002B13D0019B02221A720E4B042244
:103A6000DA7000210C48FFF759FE0390039B002BEE
:103A700001D0039B07E0094B05221A7002E0074BB7
:103A800003221A700023184605B05DF804FB00BF3E
:103A90008C2F00205C300020B82F00208A2F0020BF
:103AA00000B585B001901B4B9B699AB2019B5A816E
:103AB000184BDB699AB2019B9A81164B1B78002B3D
:103AC0001FD0154B1B7883F00103DBB2002B18D0FD
:103AD000FFF782FE0346002B13D0019B02221A72CD
:103AE0000E4B0422DA7000210C48FFF717FE0390FA
:103AF000039B002B01D0039B07E0094B06221A70A1
:103B000002E0074B04221A700023184605B05DF846
:103B100004FB00BF8C2F00205C300020B82F002059
:103B20008A2F002082B003468DF80730034A9DF8A3
:103B30000730137000BF02B0704700BFAC2F0020E9
:103B400030B589B00390029101920093039B002B42
:103B500002D0019B002B01D10E23D5E06C4B01223A
:103B60001A706C4B00221A706B4A019B14461D465A
:103B70000FCD0FC495E80F0084E80F00674B0022BB
:103B80001A70674A009B1360664A0C9B1360664B71
:103B90004FF6FF721A800722002164480DF08BFD5A
:103BA0003C22002162480DF086FD039B1A78604B91
:103BB0001A70039B9A785E4B9A70039BDA785C4B81
:103BC000DA70039B5A785A4B5A70594B039A103348
:103BD000103292E8030083E80300554B039A083340
:103BE000083292E8030083E80300514B039A18332C
:103BF000183292E8030083E80300039B5B6A002B02
:103C000029D04B4B4B4A5A624A4B4B4A9A60039B12
:103C10005A6A474B5B6A12881A80039B5A6A444B64
:103C20005B6A92889A80002307930DE0039B5B6A8E
:103C30009A68079B134419783F4A079B13440A4626
:103C40001A70079B01330793394B5B6A9B881A46AE
:103C5000079B9342EAD3039B9B6A002B33D0374BDD
:103C6000374A9A60324B354A9A62314B9B6A344AE2
:103C70009A60039B9A6A2E4B9B6A92889A80039B58
:103C80009A6A2B4B9B6A12881A80002306930DE0D8
:103C9000039B9B6A9A68069B13441978284A069BE3
:103CA00013440A461A70069B01330693204B9B6A05
:103CB0009B881A46069B9342EAD3039B93F82C20D9
:103CC0001B4B83F82C20039B1B6A002B0ED0184B38
:103CD0001C4A1A62039B1A6A154B1B6A52885A8047
:103CE000039B1A6A124B1B6A12881A80039B5B683B
:103CF000002B03D0039B5B680D4A536002990C486C
:103D0000FFF70CFD0590059B184609B030BD00BFBC
:103D1000882F00208B2F00208C2F0020AC2F00201C
:103D2000543000205830002050300020B02F0020A8
:103D3000B82F0020F42F0020003000202030002079
:103D40002C3000204C30002000B589B003468DF89F
:103D50000730664B1B7883F00103DBB2002B01D0E8
:103D60000823BEE0624A9DF807301370FFF7C6FDD6
:103D70000346002B04D05F4B01221A700023B0E0F1
:103D8000072200215C480DF096FC5C4B5B78002B11
:103D900003D0574B1B78012B0FD0584B9B78002B2F
:103DA00003D0534B1B78012B07D0544B9B78002B2F
:103DB00012D04F4B1B78022B0ED1514B1B68002B9E
:103DC00007D0504B01221A704D4B1B6808209847B2
:103DD00002E04C4B00221A709DF807301846FFF79E
:103DE0009DFD03461A46424B1A70454B1B68002B3B
:103DF0001DD03F4B1B78032B03D03D4B1B78042B6E
:103E000015D13E4B1B78002B11D03F4B1B7883F014
:103E10000103DBB2002B0AD03C4B00221A703C4B52
:103E200001221A70364B1B680720984702E0384B76
:103E300000221A7003AB1022002118460DF03BFC43
:103E400000238DF80C3000238DF81430284B1B789C
:103E5000042B29D801A252F823F000BFA13E020092
:103E6000713E02007D3E0200893E0200953E020046
:103E700003AB1846FFF798FD079016E003AB184612
:103E8000FFF7ACFD079010E003AB1846FFF7C6FD47
:103E900007900AE003AB1846FFF702FE079004E024
:103EA0001C4B00221A7000E000BF114B1B78002B46
:103EB0000CD0194B1A7803AB11461846FFF788FC53
:103EC0000790079B002B01D0079B0AE00C4B1B6857
:103ED000002B05D00A4B1B680E4A127810469847F3
:103EE0000023184609B05DF804FB00BF882F0020AE
:103EF0008B2F0020892F0020B02F00208C2F002036
:103F000054300020B72F00205C3000205E300020AD
:103F10005D3000208A2F0020AC2F002000B583B038
:103F20000190019B1B88112B07D01B2B09D0102B54
:103F30000BD10198FFF786FC08E00198FFF792FC8F
:103F400004E00198FFF7B4FC00E000BF00BF03B03D
:103F50005DF804FB75DF704700BF184676DF7047D9
:103F600000BF18467ADF704700BF18467BDF7047F6
:103F700000BF184682B00190019B5A88074B1B88EE
:103F80009A4207D3019B5A88044B5B889A4201D816
:103F9000012300E00023184602B070477C30002067
:103FA00000B587B00190274B1B884FF6FF729342F4
:103FB00043D0254B1B780133DAB2234B1A70234BC5
:103FC0001A7B214B1B789A4212D31E4B1B88204927
:103FD0001846FFF7BFFF0590059B002B2DD01B4B0C
:103FE0009B69002B29D0194B9B690598984724E0C1
:103FF000154B00221A70154B1B7C002B11D0114B56
:104000001B883B211846FFF7A9FF0490049B002B57
:1040100007D00E4B9B69002B03D00C4B9B69049877
:1040200098470A4B5B69002B07D000238DF80C30B2
:10403000064B5B6903AA1046984700BF07B05DF8BE
:1040400004FB00BF86300020843000206030002058
:104050007C30002030B585B001901C4A019B14468D
:104060001D460FCD0FC495E8070084E80700184BE4
:1040700000221A70019B1B68002B0ED0019B1A684E
:10408000144B1068516803C31248FFF76BFF03908D
:10409000039B002B0AD0039B15E00E48FFF766FF39
:1040A0000390039B002B01D0039B0CE00A4B4FF6BF
:1040B000FF721A80094B00221A70094A0021094830
:1040C00003F014FE0346184605B030BD60300020F2
:1040D000B03000207C30002086300020843000206A
:1040E000A13F0200742E030000B585B02548FFF7FC
:1040F00041FF034683F00103DBB2002B2ED0224B9D
:104100001B78002B0CD0214B5B69002B32D0002395
:104110008DF804301D4B5B6901AA1046984729E0D1
:104120001B4B1B78002B03D1184B5B68039302E0F9
:10413000164B9B680393174B00220399184603F014
:1041400005FE0290029B002B14D0104B9B69002BA4
:1041500010D00E4B9B69029898470BE00B4B5B69A4
:10416000002B07D001238DF80030084B5B696A46AD
:1041700010469847044B00221A7000BF05B05DF846
:1041800004FB00BF88300020B030002060300020E9
:10419000843000209030002000B583B00190019B56
:1041A0009A880B4B1A800B4A019B103393E803004B
:1041B00082E80300084B00221A70084BDB89002BB1
:1041C00001D1FFF791FF00BF03B05DF804FB00BF12
:1041D00086300020883000208430002060300020AD
:1041E00000B585B001900D4B4FF6FF721A800C4B55
:1041F00000221A700B4B184603F0DAFD0390039B64
:10420000002B07D0084B9B69002B03D0064B9B6902
:104210000398984700BF05B05DF804FB8630002086
:1042200084300020903000206030002000B585B040
:104230000190019B06330393039B1A88134BDB8980
:104240009A421ED1039B5B89022B1AD1039B0C332C
:10425000184600F066F80346002B02D0FFF744FF33
:104260000FE00B4B184603F0A3FD0290029B002BBE
:1042700007D0064B9B69002B03D0044B9B69029827
:10428000984700BF05B05DF804FB00BF6030002018
:104290009030002000B583B00190064A019B08339E
:1042A00093E8030082E80300FFF71EFF00BF03B09E
:1042B0005DF804FB8830002000B583B00190019BBD
:1042C0001B88112B0DD0112B02DC102B05D014E014
:1042D000122B0ED0502B08D00FE00198FFF75CFF97
:1042E0000BE00198FFF77CFF07E00198FFF79EFFC6
:1042F00003E00198FFF7CEFF00BF00BF03B05DF8F9
:1043000004FB82B00190019B1B781AB2019B013320
:104310001B781B021BB213431BB29BB2184602B0A0
:10432000704700B585B001900198FFF7EAFF03469A
:10433000ADF80E30BDF80E3003F00103002B14BFB2
:1043400001230023DBB2184605B05DF804FB00B57D
:1043500085B00190009100238DF80F309DF80F304B
:104360005A1C8DF80F201A46019B1344009A1278AC
:104370001A709DF80F305A1C8DF80F201A46019BB9
:104380001344009A52781A709DF80F30022B0CBF1C
:1043900001230023DBB20293029B002B02D10020F9
:1043A00002F046FD9DF80F30184605B05DF804FB9D
:1043B0008FDF704700BF18469EDF704700BF18466A
:1043C000ADDF704700BF184682B00190019B9E226E
:1043D0001A80019B17225A80019B00221A71019BAF
:1043E00000225A71019BA2229A71019B1B22DA7151
:1043F00000BF02B0704700B587B003460091ADF82A
:104400000630BDF80630009ADB0013441B7B9BB2DC
:10441000ADF80C30BDF80630009ADB0013441B7B6E
:104420009BB2ADF80E300023ADF810300023ADF88C
:10443000123003A9BDF8063000221846FFF7B8FF76
:10444000059000BF07B05DF804FB00B587B0019090
:104450000091009B9B88ADF81630BDF81630DB004C
:10446000019A134406330493019B1A79049B9A71B1
:10447000009BDB7B012B02D0022B05D009E0019BC6
:104480001A88049B1A8004E0019B5A88049B1A80B6
:1044900000BF049B1A88049B5B889A4215D9049B31
:1044A0001A88BDF8163011461846FFF785FF0390AD
:1044B000039B002B03D1049B01225A7105E0039B4F
:1044C000112B02D1049B01221A71049B9A79049B3F
:1044D000DB799A4205D9BDF8163001991846FFF7E5
:1044E0008AFF00BF07B05DF804FB00B583B0019000
:1044F0000091009B9B88DB00019A13440633184609
:10450000FFF762FF00BF03B05DF804FB00B587B0A2
:1045100001900091009B9B88ADF81630009B5B8951
:10452000ADF81430BDF81630DB00019A13440633A1
:104530000493049B1B88BDF81420934228BF1346A4
:104540009AB2049B5A80049B5B88172B38BF1723B1
:104550009AB2049B5A80019B9B69002B15D0049B47
:104560005B79002B11D040F67723ADF80830BDF809
:104570001630ADF80A30049B5B88ADF80C30019B17
:104580009B6902AA114601989847049B00225A7120
:10459000049B00221A7100BF07B05DF804FB00B550
:1045A00089B001900091009B9B88ADF81A30009B68
:1045B000DB88ADF81830BDF81A30DB00019A1344DF
:1045C00006330793BDF81830172B38BF1723ADF803
:1045D0001830079B1B88BDF81820934228BF13464C
:1045E0009AB2079B5A80079B00221A71079B1A8870
:1045F000BDF81A3011461846FFF7E2FE0590079BFA
:104600005B79002B16D1019B9B69002B13D040F6E0
:104610007723ADF80C30BDF81A30ADF80E30079B9B
:104620005B88ADF81030019B9B6903AA1146019885
:10463000984700E000BF09B05DF804FB30B593B0C7
:1046400001900091009B04AC1D1D0FCD0FC40FCD38
:104650000FC40FCD0FC42B682360BDF81030ADF828
:104660004630BDF81420BDF84630D1B2019ADB00C7
:1046700013440A465A73019B9B69002B19D002AB65
:1046800000221A609A804DF67A23ADF80830BDF802
:104690004630ADF80A30BDF84630019ADB001344CD
:1046A0005B7B8DF80C30019B9B6902AA1146019837
:1046B000984700BF13B030BD00B58BB0019000919A
:1046C000009B04330793079B1B88DB00019A13446C
:1046D00006330993079B9B888DF82330099B9B79B0
:1046E0009DF82320934228BF13468DF81B3003AB5F
:1046F00000221A605A609DF81B309BB2ADF80C3056
:104700009DF81B309BB2ADF80E30079B1B8803A9A8
:1047100000221846FFF74CFE059000BF0BB05DF875
:1047200004FB00B585B001900091019B002B01D1E5
:104730000E231DE0019B009A9A61019B9E221A8024
:10474000019B9E225A80019BA2221A71002303938F
:104750000AE0039BDB00019A134406331846FFF777
:1047600033FE039B01330393039B012BF1D90023F9
:10477000184605B05DF804FB82B001900B46ADF819
:104780000230019B002B01D10E230EE0BDF8023058
:10479000162B03D9BDF802309E2B01D9072304E064
:1047A000019BBDF802201A800023184602B0704712
:1047B00000B585B001900091009B9B88ADF80E304C
:1047C000BDF80E30012B59D8009B1B88212B26D019
:1047D000212B04DC102B09D0112B0CD024E03A2B18
:1047E0000ED0552B11D0222B14D01DE0009901982A
:1047F000FFF72BFE18E000990198FFF776FE13E013
:1048000000990198FFF782FE0EE000990198FFF7EA
:10481000C6FE09E000990198FFF710FF04E0009937
:104820000198FFF749FF00BFBDF80E30019ADB0089
:1048300013449B7A002B22D0BDF80E30019ADB0086
:104840001344DA88BDF80E3011461846FFF7B4FD60
:104850000290029B002B0ED1BDF80E30019ADB00B6
:10486000134400229A72BDF80E30019ADB00134403
:104870000122DA7203E0029B112B00E000BF05B0B9
:104880005DF804FBA0DF704700BF1846A2DF704749
:1048900000BF1846A6DF704700BF184662DF7047AA
:1048A00000BF184682B001900091009B9A88019B3E
:1048B0009A8200BF02B0704782B001900091019BC4
:1048C0004FF6FF729A8200BF02B0704700B585B004
:1048D00001900091009B06330393039B1A88019B70
:1048E0001B899A4213D1039B5B89022B0FD1039B37
:1048F0000C331846FFF715FD0346002B03D0019B30
:1049000001229A7517E0019B00229A7513E0039B20
:104910001A88019B9B899A420DD1019B9B69002BB0
:1049200009D0019B9B69039A02F10C01039A5289F9
:1049300001989847FFE700BF05B05DF804FB00B59C
:1049400093B0019000910AAB0322002118460CF0AD
:10495000B2FE9DF82830012262F303038DF828305F
:104960009DF82830012262F307138DF828309DF856
:104970002930012262F303038DF829309DF8293094
:10498000012262F307138DF829309DF82A300122A5
:1049900062F342038DF82A300BAB1C22002118462B
:1049A0000CF089FE9DF82C3043F010038DF82C306C
:1049B00000230C9300230E9300230F930AAB109354
:1049C00000231193019B1B788DF812300323ADF85F
:1049D000103003AB0322002118460CF06CFE9DF84A
:1049E0000C30012262F303038DF80C309DF80C307B
:1049F000012262F307138DF80C309DF80D3001226F
:104A000062F303038DF80D309DF80D30012262F33F
:104A100007138DF80D309DF80E30012262F342032A
:104A20008DF80E309DF80E306FF3C3038DF80E3005
:104A30009DF80E306FF304138DF80E309DF80E3094
:104A400043F001038DF80E3005AB14220021184607
:104A50000CF031FE04AB059303AB06930123ADF8D4
:104A60001C300023ADF81E309B23ADF82030019B95
:104A70005888019B043305AA0BA9FFF707FF0346DB
:104A8000184613B05DF804FB00B591B00190009199
:104A900009AB1C22002118460CF00DFE9DF82430B5
:104AA00043F008038DF824309DF8243043F00403CC
:104AB0008DF8243000230A9300230C9300230D93D8
:104AC00000230E9300230F93019B1B788DF80E306B
