:020000021000EC
:10F000000000012033F10100D9F00100DBF0010024
:10F01000DDF00100DFF00100E1F001000000000080
:10F02000000000000000000000000000E3F001000C
:10F03000E5F0010000000000E7F00100E9F0010048
:10F04000192B0200EDF001003D4A0200E5D3020059
:10F05000F3F00100F5F00100B5340200E9A602006A
:10F06000FBF00100FDF00100FFF0010001F10100E3
:10F0700003F1010005F1010007F1010009F10100B0
:10F080000BF10100E95902000FF1010011F101003B
:10F09000295A020015F10100FD6E020019F101006C
:10F0A0001BF101001DF101001FF1010021F1010020
:10F0B00051A0020025F10100000000000000000046
:10F0C00027F1010029F101002BF101002DF10100D0
:08F0D0002FF1010031F10100F4
:10F0D800FEE7FEE7FEE7FEE7FEE7FEE7FEE7FEE700
:10F0E800FEE7FEE7FEE7FEE7FEE7FEE7FEE7FEE7F0
:10F0F800FEE7FEE7FEE7FEE7FEE7FEE7FEE7FEE7E0
:10F10800FEE7FEE7FEE7FEE7FEE7FEE7FEE7FEE7CF
:10F11800FEE7FEE7FEE7FEE7FEE7FEE7FEE7FEE7BF
:10F12800FEE7FEE7FEE7FEE7FEE70348854600F058
:10F13800CFF800F003B8704700000120374938487D
:10F148000A1A02D0072291438D46364936480A1AD0
:10F1580006D00722914381F30988022282F314889A
:10F1680032483349334A00F048F833483349344A7F
:10F1780000F043F833483449344A00F03EF8344844
:10F188003449354A00F039F834483549354A00F0F1
:10F1980034F835483549364A00F02FF835483649AD
:10F1A800364A00F02AF836483649374A00F025F83A
:10F1B80036483749002200F02BF8364836490022F5
:10F1C80000F026F835483649091A082903DB0022D9
:10F1D8000260043001601F481F49884205D0026858
:10F1E800043003B4904703BCF7E700208646EC469A
:10F1F800002000212B4A9047FEE7884207D0521A88
:10F2080005D0037801300B700131013AF9D170470C
:10F21800884202D002700130FAE7704700000120EE
:10F2280000FC0020000001200000012064170300FA
:10F23800F825002038260020B0F20100B0F20100C5
:10F248003CFA020064170300F8250020F825002086
:10F258003CFA02003CFA02003CFA02003CFA0200C6
:10F268003CFA02003CFA02003CFA02003CFA0200B6
:10F2780064170300A417030038260020382600204E
:10F28800A41703003826002038260020382600203E
:10F29800DC4E0020DC4E0020E04E0020E04E002036
:08F2A800E052002009040200FD
:10F2B00000487047D44E0020704770477047704731
:10F2C0000FF0F1BF024B034A1A6000BF704700BF46
:10F2D000F82500200090D00308B500F00DF9034692
:10F2E000002B06D0744B1B681B0A744A03F01F03E3
:10F2F000136000F02DF90346002B02D0704B714AC9
:10F300001A6000F041F90346002B06D06E4B1B68D3
:10F310005B0B6E4A03F00703136000F061F90346CC
:10F32000002B05D06A4BDB68694A23F08073D360F9
:10F3300000F072F90346002B0ED04FF080430022FC
:10F34000C3F80C214FF080430022C3F810214FF086
:10F3500080430022C3F8382500F08AF90346002BC9
:10F3600002D05C4B03221A6000F09EF90346002B8A
:10F370000BD0594B05221A60584B01221A60584B8A
:10F3800000221A60574B3F221A6000F0A9F9034689
:10F39000002B76D04FF08053534AD3F80434C2F890
:10F3A00020354FF08053504AD3F80834C2F8243542
:10F3B0004FF080534C4AD3F80C34C2F828354FF044
:10F3C0008053494AD3F81034C2F82C354FF080539B
:10F3D000454AD3F81434C2F830354FF08053424ACE
:10F3E000D3F81834C2F834354FF080533E4AD3F87E
:10F3F0001C34C2F840354FF080533B4AD3F82034D8
:10F40000C2F844354FF08053374AD3F82434C2F859
:10F4100048354FF08053344AD3F82834C2F84C357D
:10F420004FF08053304AD3F82C34C2F850354FF0A7
:10F4300080532D4AD3F83034C2F854354FF08053FE
:10F44000294AD3F83434C2F860354FF08053264A45
:10F45000D3F83834C2F864354FF08053224AD3F8D9
:10F460003C34C2F868354FF080531F4AD3F840341B
:10F47000C2F86C354FF080531B4AD3F84434C2F8BD
:10F48000703500F049F90346002B05D0174B1B6877
:10F49000174A03F04F031360164BD3F88830154A10
:10F4A00043F47003C2F88830BFF34F8FBFF36F8F00
:10F4B000FFF708FF00BF08BD2403001040350140DE
:10F4C00074C007400DF0ADBA440200103C05004086
:10F4D000F0ED00E0A00500401056004088560040C6
:10F4E000185600401456004000C00040580200105A
:10F4F000E40E004000ED00E0124B1B68DBB2062B6F
:10F500001DD1114B1B6803F00F03002B17D10F4BBC
:10F510001B6803F0F003302B01D1012310E00B4BEB
:10F520001B6803F0F003402B01D1012308E0074BD7
:10F530001B6803F0F003502B01D1012300E00023EE
:10F5400018467047E00F00F0E40F00F0E80F00F0FD
:10F550000A4B1B68DBB2062B0DD1094B1B6803F06D
:10F560000F03002B07D1074B1B6803F0F003302B70
:10F5700001D1012300E0002318467047E00F00F09E
:10F58000E40F00F0E80F00F0124B1B68DBB2062B13
:10F590001DD1114B1B6803F00F03002B17D10F4B2C
:10F5A0001B6803F0F003302B01D1012310E00B4B5B
:10F5B0001B6803F0F003402B01D1012308E0074B47
:10F5C0001B6803F0F003502B01D1012300E000235E
:10F5D00018467047E00F00F0E40F00F0E80F00F06D
:10F5E0000A4B1B68DBB2062B0DD1094B1B6803F0DD
:10F5F0000F03002B07D1074B1B6803F0F003302BE0
:10F6000001D1012300E0002318467047E00F00F00D
:10F61000E40F00F0E80F00F0124B1B68DBB2062B82
:10F620001DD1114B1B6803F00F03002B17D10F4B9B
:10F630001B6803F0F003302B01D1012310E00B4BCA
:10F640001B6803F0F003402B01D1012308E0074BB6
:10F650001B6803F0F003502B01D1012300E00023CD
:10F6600018467047E00F00F0E40F00F0E80F00F0DC
:10F670000A4B1B68DBB2062B0DD1094B1B6803F04C
:10F680000F03002B07D1074B1B6803F0F003302B4F
:10F6900001D1012300E0002318467047E00F00F07D
:10F6A000E40F00F0E80F00F00A4B1B68DBB2062BFA
:10F6B0000DD1094B1B6803F00F03002B07D1074B3B
:10F6C0001B6803F0F003302B01D1012300E000237D
:10F6D00018467047E00F00F0E40F00F0E80F00F06C
:10F6E0000A4B1B68DBB2062B0DD1094B1B6803F0DC
:10F6F0000F03002B07D1074B1B6803F0F003502BBF
:10F7000001D1012300E0002318467047E00F00F00C
:10F71000E40F00F0E80F00F0124B1B68DBB2062B81
:10F720001DD1114B1B6803F00F03002B17D10F4B9A
:10F730001B6803F0F003302B01D1012310E00B4BC9
:10F740001B6803F0F003402B01D1012308E0074BB5
:10F750001B6803F0F003502B01D1012300E00023CC
:10F7600018467047E00F00F0E40F00F0E80F00F0DB
:10F7700076DF704700BF18467ADF704700BF184633
:10F780007CDF704700BF18467FDF704700BF184618
:10F790008FDF704700BF1846A8DF704700BF1846CC
:10F7A000A9DF704700BF184669DF704700BF1846E1
:10F7B00066DF704700BF18463EDF704700BF18463F
:10F7C00082B001904FF0A043184602B0704700B5D8
:10F7D00085B00190084611461A4603468DF803305D
:10F7E0000B468DF8023013468DF8013001AB1846F8
:10F7F000FFF7E6FF03909DF803209DF802305B00C1
:10F800001A439DF801309B001A439DF818301B02E3
:10F8100042EA03019DF81C301B04019A1943039B23
:10F8200002F5E07243F8221000BF05B05DF804FB5A
:10F8300000B585B003900B468DF80B309DF80B207A
:10F840000023019300230093134600220021039814
:10F85000FFF7BDFF00BF05B05DF804FB00B585B044
:10F86000019001AB1846FFF7ABFF0390039800F03F
:10F870000AF80246019B22FA03F303F0010318463B
:10F8800005B05DF804FB82B00190019BD3F8103500
:10F89000184602B0704782B003468DF807309DF8D5
:10F8A0000730012B03D0022B03D0002B02E000BF56
:10F8B00000E000BF00BF02B07047000000B585B097
:10F8C0000190019B1B788DF80F309DF80F30062BAF
:10F8D0003FD801A252F823F0F5F8010017F9010012
:10F8E00021F901002BF9010035F901003FF9010070
:10F8F00049F90100019B1B798DF80E30019B5B8853
:10F90000ADF80C30BDF80C209DF80E3015490320E1
:10F9100006F03BFF22E01449032006F011FF1DE032
:10F920001249032006F00CFF18E01149032006F0ED
:10F9300007FF13E00F49032006F002FF0EE00E4917
:10F94000032006F0FDFE09E00C49032006F0F8FE56
:10F9500004E00B49032006F0F3FE00BF00BF05B032
:10F960005DF804FB4CFA0200ACFA0200DCFA02007B
:10F970000CFB02003CFB020074FB0200BCFB02001B
:10F98000F0FB020000B587B09DF80030012262F361
:10F9900003038DF800309DF80030012262F3071355
:10F9A0008DF800301D480FF04EFC03469AB26B46AE
:10F9B0001A491846FFF7E4FE0590059B0493049B43
:10F9C000002B04D0164A9A21049805F04BF801AB9D
:10F9D0000822002118460FF0E1FB1023ADF8043097
:10F9E0003C23ADF806300023ADF808304FF4C8735F
:10F9F000ADF80A3001AB1846FFF7BEFE0590059B37
:10FA00000393039B002B04D0054AA421039805F01F
:10FA100029F800BF07B05DF804FB00BF20FC02001E
:10FA20002CFC020000B589B0039002911346ADF89A
:10FA300006302A49032006F083FE4FF4805200214D
:10FA400027480FF0ABFBBDF806301A460299244850
:10FA50000FF07BFB224B1A462249032006F081FE61
:10FA60000023079322E0029A079B13441B78184651
:10FA700006F0E6F90690069B002B11D0069B112B91
:10FA80000ED0069A1849012006F06BFE069B0593DE
:10FA9000059B002B04D0154AC421059804F0E2FF11
:10FAA000069B112BDFD0079B01330793BDF806306F
:10FAB000079A9A42D7D3BDF80630013B029A134405
:10FAC0001B780D2B06D100BF0A2006F0B9F90346BA
:10FAD000112BF9D000BF09B05DF804FB78FC0200DF
:10FAE000A8260020B8FC0200E8FC02002CFC020062
:10FAF00000B585B001AB0422002118460FF04EFB83
:10FB00000C4B019301AB19460B4802F09FFE03908A
:10FB1000039B0293029B002B04D0084ADD2102982C
:10FB200004F0A0FF0649032006F00AFE00BF05B05E
:10FB30005DF804FB25FA0100382600202CFC0200A9
:10FB400020FD020000B585B00190019B1B78002BC1
:10FB500010D10A4B1B883B211846FFF709FE039082
:10FB6000039B0293029B002B04D0054AF4210298C8
:10FB700004F078FF00BF05B05DF804FBFC25002011
:10FB80002CFC020000B583B00190044AFF210198CB
:10FB900004F068FF00BF03B05DF804FB2CFC02001A
:10FBA00000B58BB001AB1C22002118460FF0F6FA0D
:10FBB000002301934FF4203302934FF470230393F7
:10FBC00003238DF810300023ADF8123000238DF898
:10FBD00014300C4B06930C4B079301AB184602F004
:10FBE00031F80990099B0893089B002B05D0074A20
:10FBF0004FF48B71089804F035FF00BF0BB05DF82F
:10FC000004FB00BF45FB010085FB01002CFC02004A
:10FC100082B003468DF807309DF80730002B01D0E5
:10FC2000032B00E000BF00BF02B0704710B594B0D6
:10FC30000190019B1B88013B552B00F27A8101A2A8
:10FC400052F823F097FE010033FF010033FF01005B
:10FC500033FF010033FF010033FF010033FF0100D8
:10FC600033FF010033FF010033FF010033FF0100C8
:10FC700033FF010033FF010033FF010033FF0100B8
:10FC80009DFD0100AFFD010033FF0100C1FD01003A
:10FC900033FF010033FF010033FF010033FF010098
:10FCA00033FF010033FF010033FF010033FF010088
:10FCB00033FF010033FF010033FF010033FF010078
:10FCC00033FF0100EBFD010033FF010033FF0100B2
:10FCD00033FF010033FF010033FF010033FF010058
:10FCE00033FF010033FF010033FF010033FF010048
:10FCF00033FF010033FF010033FF010033FF010038
:10FD000033FF010033FF010033FF010033FF010027
:10FD100033FF010033FF010033FF010033FF010017
:10FD200033FF010033FF010033FF01004BFE0100F0
:10FD300033FF010033FF010033FF010033FF0100F7
:10FD400033FF010033FF010033FF010033FF0100E7
:10FD500033FF010033FF010033FF010033FF0100D7
:10FD600033FF010033FF010033FF010033FF0100C7
:10FD700033FF010033FF010033FF010033FF0100B7
:10FD800033FF0100BDFE010021FE010033FF010031
:10FD900033FF010033FF010071FE0100019B9A88CF
:10FDA0006D4B1A806D49032006F0CAFCD0E06A4B07
:10FDB0004FF6FF721A806A49032006F0C1FCC7E0C3
:10FDC000654B1888002300228521FFF7DDFC139086
:10FDD000139B1293129B002B00F0AD80614A40F2FE
:10FDE0006311129804F03EFEA5E00AAB0822002140
:10FDF00018460FF0D3F9019B9B880AA900221846E8
:10FE0000FFF7C6FC1390139B1193119B002B00F07E
:10FE10009480544A40F26D11119804F023FE8CE056
:10FE20004D4B1888002300220021FFF7B9FC1390E6
:10FE3000139B1093109B002B00F08180494A40F2E5
:10FE40007311109804F00EFE79E0019B9B8813213A
:10FE50001846FFF78DFC1390139B0F930F9B002BFD
:10FE60006FD0404A4FF4BD710F9804F0FBFD68E07D
:10FE7000019B9B8813211846FFF77AFC1390139B74
:10FE80000E930E9B002B5ED0364A40F281110E98E5
:10FE900004F0E8FD57E0019B9B8800211846FFF71E
:10FEA00087FC1390139B0D930D9B002B4DD02D4A77
:10FEB0004FF4C3710D9804F0D5FD46E0019B06ACEC
:10FEC0000633186859689A68DB680FC49DF81830C3
:10FED000002B3CD09DF82030042B07D09DF820301B
:10FEE000062B03D09DF82030052B30D19DF818301B
:10FEF000022B03D102238DF8083002E001238DF894
:10FF000008304FF4C173ADF80C30019B9B8802AAF6
:10FF100011461846FFF740FC1390139B0C930C9B63
:10FF2000002B14D00F4A40F2A1110C9804F09AFD56
:10FF30000DE000BF0CE000BF0AE000BF08E000BF1A
:10FF400006E000BF04E000BF02E000BF00E000BF29
:10FF500000BF14B010BD00BFFC25002050FD020002
:10FF600068FD02002CFC020000B583B001900198EE
:10FF700001F09AFF01990A4802F044FA01990948F0
:10FF800002F036FC0198FFF751FE019801F0BEFD2A
:10FF9000019800F00FFC00BF03B05DF804FB00BF48
:10FFA000542600203826002000B58FB0554B1B6822
:10FFB000049304A80023D822534906F037FF0D907C
:10FFC0000D9B0C930C9B002B05D0504A4FF4E6710F
:10FFD0000C9804F047FD0023039303AB184606F08A
:10FFE000C5FF0B900B9B0A930A9B002B05D0474A39
:10FFF00040F2D1110A9804F035FD6B460C22002125
:020000022000DC
:1000000018460FF0CBF801238DF8003000238DF84F
:10001000013000238DF80230039A6B4619464020C8
:10002000FFF7C2FB0B900B9B0993099B002B05D09C
:10003000364A4FF4EE71099804F014FD6B460C2219
:10004000002118460FF0AAF801238DF800309E23F6
:10005000ADF80230039A6B4619462320FFF7A4FB44
:100060000B900B9B0893089B002B05D0274A40F26E
:10007000E311089804F0F6FC6B460C2200211846A8
:100080000FF08CF801238DF800304FF4A073ADF819
:10009000043001238DF80230039A6B461946202064
:1000A000FFF782FB0B900B9B0793079B002B05D060
:1000B000164A40F2EB11079804F0D4FC03AB184643
:1000C00006F064FF0B900B9B0693069B002B05D05C
:1000D0000E4A40F2EF11069804F0C4FC0C4806F0FA
:1000E000FDFE0B900B9B0593059B002B05D0074A4B
:1000F00040F2F311059804F0B5FC00BF0FB05DF8B5
:1001000004FB00BF80FD0200C03600202CFC020072
:1001100069FF010000B583B001900091009B5A88EF
:100120000E4B1B889A4214D1009B1B8840F6772205
:1001300093420ED1009B9B88033B9AB2084B1A80D6
:10014000074B1B881A46064B1B880649032006F0FE
:100150001CFB00BF03B05DF804FB00BFFC250020C2
:100160000426002084FD020000B585B01149124824
:1001700002F000F90390039B0293029B002B05D031
:100180000E4A40F20921029804F06CFC40210A4812
:1001900002F01BF90390039B0193019B002B05D0F8
:1001A000064A4FF40371019804F05CFC00BF05B0EF
:1001B0005DF804FB15010200542600202CFC02000F
:1001C00000B585B00190019B1B78012B4DD0022B0F
:1001D00042D0002B52D12D4B1B781A462C4B134486
:1001E000184605F0FBFD294B1B780133DAB2274B8B
:1001F0001A70264B1B78013B254AD35C0A2B06D08C
:10020000224B1B789AB2234B1B889A4238D322493F
:10021000032006F095FA1D4B1B789BB21A461C4929
:100220001E4802F06BFB0390039B082B0DD0039B31
:10023000112B0AD0039B0293029B002B05D0184A76
:1002400040F25321029804F00DFC039B112BE2D0E5
:100250000E4B00221A7013E0019B5B68104A4FF4AA
:100260001771184604F0FEFB0BE0019B5B680C4A1B
:100270004FF41871184604F0F5FB02E000BF00E0EF
:1002800000BF00BF05B05DF804FB00BF9837002039
:100290009C37002004260020ACFD020038260020F8
:1002A0002CFC020030B58DB0134B04AC1D460FCDB5
:1002B0000FC495E8030084E80300104B00934FF44B
:1002C000807301930E4B02934FF48073039369463E
:1002D00004A807230B4A05F0EDFC0B900B9B0A9337
:1002E0000A9B002B05D0084A40F281210A9804F0AD
:1002F000B9FB00BF0DB030BDD8FD0200383800207A
:1003000038390020C10102002CFC020000B5ABB05E
:1003100019AB3C22002118460EF040FF02238DF855
:10032000643000238DF8663005238DF867300AAB02
:100330003C22002118460EF031FF0123ADF8383081
:10034000144B0F9302AB2022002118460EF026FF1B
:1003500001238DF80B3040230693B423079302AAA0
:100360000AA919A8002300930B4B01F0E1F9299089
:10037000299B2893289B002B05D0084A40F29F21F7
:10038000289804F06FFB012001F0C4F900BF2BB0E6
:100390005DF804FB0026002011FC01002CFC02008B
:1003A00082B0019000BF02B07047000000B583B07A
:1003B000002006F06FF90190019B0093009B002B39
:1003C00005D0054A4FF42F71009804F04BFB00BF95
:1003D00003B05DF804FB00BF2CFC020000B583B045
:1003E000FFF7EAF90190019B0093009B002B05D0D9
:1003F000044A40F2C521009804F034FB00BF03B06A
:100400005DF804FB2CFC020000B58BB07B4A3C215C
:10041000082004F09FFC0990099B0893089B002B7F
:1004200005D0774A4FF43A71089804F01BFB05F0A9
:1004300001FB0790079B0693069B002B05D0704A93
:1004400040F2EA21069804F00DFBFFF72BFFFFF7BF
:10045000ADFF0DF10F031846FFF7A2FFFFF7A4FD54
:10046000FFF790FAFFF780FEFFF742FBFFF74EFF22
:10047000FFF796FB63480EF023FE6349032006F066
:100480005FF9032001F058FA0790079B0593059B3D
:10049000002B05D05A4A40F2FA21059804F0E2FAFE
:1004A0000DF020FC02230321584A18460DF0C0FC31
:1004B00057480DF09DFB574A57494EF660200DF006
:1004C00091FA524B9A78554B1A705549032006F011
:1004D00037F903210B20FFF7ABF9022100200AF0C6
:1004E000F5FF022101200AF0F1FF022102200AF0AB
:1004F000EDFF022103200AF0E9FF04F0F1FC0B20DC
:10050000FFF7ACF90346002B0CBF01230023DBB23D
:100510001A46444B1A60444900200BF089F90490B4
:10052000424901200BF084F90490414902200BF06C
:100530007FF904903F4903200BF07AF90490394B7E
:100540001B68012B0DD1394B1B68012B09D1334B93
:100550001B78013B384A13603849002007F048FBFC
:100560002DE0304B1B68002B0DD1304B1B68002B4E
:1005700009D12A4B1B7801332F4A136030490020E0
:1005800007F036FB1BE0274B1B68012B13D1274BD1
:100590001B68002B0FD12B49002007F029FB4FF4DB
:1005A0007A7300934FF4FA730522322140F6C41097
:1005B0000DF0D8FA03E02449002007F019FB1E4B88
:1005C0001B68FE2B03DD154BFF221A700CE01A4B43
:1005D0001B68002B03DC114B00221A7004E0164B41
:1005E0001B68DAB20D4B1A700C4B1B781946074882
:1005F00008F0BFFD0790FFF7F1FE7EE7383A0020D4
:100600002CFC0200F0FD020000FE0200702600201B
:1006100097F801009C260020BDF801000626002066
:1006200018FE0200A8360020AC360020B0360020AC
:10063000B4360020B8360020BC36002040FA020054
:1006400048FA020044FA02003CFA020084B0019029
:100650000B468DF8033013468DF8023000230393C8
:10066000019B002B3CD19DF80230012B0BD19DF852
:100670000330012B04D1019BDBB20E33DBB200E06F
:1006800000238DF802309DF80330012B04D0022B9B
:100690000CD0002B15D01FE01449019A13465B00C3
:1006A00013440B449DF802201A701BE00F49019A75
:1006B00013465B0013440B4401339DF802201A706B
:1006C00010E00A49019A13465B0013440B440233BD
:1006D0009DF802201A7005E00723039300BF01E094
:1006E00007230393039B184604B07047083E00207D
:1006F00000B583B0012200210020FFF7A7FF019081
:10070000019B002B04D0019B072B01D0019B1CE017
:10071000072202210120FFF799FF0190019B002B86
:1007200004D0019B072B01D0019B0EE00422022183
:100730000020FFF78BFF0190019B002B04D0019B51
:10074000072B01D0019B00E00023184603B05DF8A1
:1007500004FB00B583B0012202210020FFF776FFE1
:100760000190019B002B04D0019B072B01D0019B22
:100770001CE0072202210120FFF768FF0190019B86
:10078000002B04D0019B072B01D0019B0EE00A2215
:1007900000210020FFF75AFF0190019B002B04D09D
:1007A000019B072B01D0019B00E00023184603B0FA
:1007B0005DF804FB00B585B00190019B1B88102BF0
:1007C00002D0112B18D02FE0194B1B68002B0DD134
:1007D000FFF78EFF0390039B002B07D0154B1B6880
:1007E000002B03D0134B1B6803989847104B1B68D2
:1007F00001330F4A136017E00D4B1B68013B0C4A95
:1008000013600B4B1B68002B0DD1FFF7A2FF039069
:10081000039B002B07D0074B1B68002B03D0054B15
:100820001B680398984700BF00BF05B05DF804FB44
:10083000103E00200C3E00206DDF704700BF1846C0
:1008400072DF704700BF184679DF704700BF184657
:100850007DDF704700BF184664DF704700BF184651
:1008600082B003460091ADF80630BDF80630DAB22A
:10087000009B1A70BDF806301B0A9AB2009B013328
:10088000D2B21A700223184602B0704700B589B080
:10089000039002911346ADF80630029B1B8803F1CA
:1008A0000902BDF806309A4201D90C2351E005AB8C
:1008B0001846FFF7C1FF0790079B002B01D0079B4D
:1008C00047E0029B1B881A46039B134408221A70B8
:1008D000029B1B8801339AB2029B1A80029B1B88E1
:1008E0001A46039B13441B221A70029B1B88013378
:1008F0009AB2029B1A80029B1B881A46039B981887
:1009000005AB0133062219460EF01FFC029B1B8823
:1009100006339AB2029B1A809DF8143023F001032B
:10092000DBB2002B07D1029B1B881A46039B1344A2
:1009300000221A7006E0029B1B881A46039B134490
:1009400001221A70029B1B8801339AB2029B1A8003
:100950000023184609B05DF804FB00B589B0039088
:1009600002910192ADF80230039B1B78012B05D157
:10097000039B5B78002B01D1072389E0019B1B8837
:100980009A1CBDF802309A420ED8039B1B78012BAB
:100990000CD1019B1B881A46039B5B7813449A1C5D
:1009A000BDF802309A4201D90C2371E0019B1B88EB
:1009B000BDF80220D31A9BB2023BADF81C30BDF843
:1009C0001C30ADF81630019B1B880233029A134489
:1009D0000DF1160211461846FFF73AFF0690069BE6
:1009E000002B01D0069B53E0039B1B78022B09D1FF
:1009F000BDF81630BDF81C209A4203D309238DF8A8
:100A00001F3017E008238DF81F30039B1B78012B44
:100A10000CD1039B5B789BB2BDF81C209A4205D396
:100A2000039B5B789BB2ADF8163003E0BDF81C3039
:100A3000ADF81630BDF81630FE2B01D90C2327E097
:100A4000BDF81630DAB2019B1B881946029B0B4495
:100A50000132D2B21A70019B1B8801339AB2019BFA
:100A60001A80019B1B881A46029B13449DF81F2085
:100A70001A70019B1B8801339AB2019B1A80019B5B
:100A80001A88BDF8163013449AB2019B1A800023CD
:100A9000184609B05DF804FB00B587B003900291D9
:100AA0001346ADF80630029B1B881A1DBDF80630B0
:100AB0009A4201D90C2339E00DF112031846FFF7D1
:100AC000C3FE0590059B002B01D0059B2EE0029BE9
:100AD0001B881A46039B134403221A70029B1B882F
:100AE00001339AB2029B1A80029B1B881A46039B11
:100AF000134419221A70029B1B8801339AB2029B7D
:100B00001A80BDF81220029B1B881946039B0B44D8
:100B100019461046FFF7A4FE03461946029B1A88A1
:100B20008BB213449AB2029B1A800023184607B076
:100B30005DF804FB84B0029101921A4603468DF8D9
:100B40000F301346ADF80C30019B1B88DA1CBDF842
:100B50000C309A4201D90C2328E0019B1B881A46CD
:100B6000029B134402221A70019B1B8801339AB224
:100B7000019B1A80019B1B881A46029B1344012289
:100B80001A70019B1B8801339AB2019B1A80019B4A
:100B90001B881A46029B13449DF80F201A70019B74
:100BA0001B8801339AB2019B1A800023184604B0B7
:100BB000704784B0029101921A4603468DF80F30B7
:100BC0001346ADF80C30019B1B88DA1CBDF80C30C5
:100BD0009A4201D90C2328E0019B1B881A46029BEC
:100BE000134402221A70019B1B8801339AB2019BA5
:100BF0001A80019B1B881A46029B13440A221A7012
:100C0000019B1B8801339AB2019B1A80019B1B88B0
:100C10001A46029B13449DF80F201A70019B1B88F3
:100C200001339AB2019B1A800023184604B0704722
:100C300000B58BB0039001930B468DF80B30134633
:100C40008DF80A3000238DF823300C9B1B88ADF8FB
:100C50002030002309936DE0039B5A68099B9B0099
:100C60001A4404AB106818600DF1170104AB0022A0
:100C70001846FFF7F1FD0790079B002B01D0079B5B
:100C80007AE09DF817309DF80A209A424FD19DF8DE
:100C90002330002B01D0002300E002238DF81B300D
:100CA0000C9B1B881A469DF817301A449DF81B3080
:100CB0001A44BDF834309A4201DD0C235CE09DF803
:100CC000233083F00103DBB2002B16D00C9B1B8872
:100CD00001339AB20C9B1A800C9B1B881A46019B0D
:100CE00013449DF80B201A700C9B1B8801339AB299
:100CF0000C9B1A8001238DF823300C9B1B881A460D
:100D0000019B1A440DF1170104AB1846FFF7A4FD2F
:100D10000790079B002B01D0079B2DE00C9B1A88A6
:100D20009DF817309BB213449AB20C9B1A80099B12
:100D300001330993039B1B881A46099B93428BDB63
:100D40009DF82330002B16D00C9B1A88BDF820305C
:100D5000D31A9BB2013BADF81830BDF81830FF2B09
:100D600001D90C2308E0BDF82030019A1344BDF8E6
:100D70001820D2B21A70002318460BB05DF804FB9D
:100D800000B589B0059003930B468DF813301346D8
:100D90008DF812309DF81310BDF82C3001930A9B8A
:100DA0000093039B02220598FFF742FF0790079BE1
:100DB000002B01D0079B12E09DF81210BDF82C30DB
:100DC00001930A9B0093039B10220598FFF730FFC5
:100DD0000790079B002B01D0079B00E000231846DB
:100DE00009B05DF804FB82B00190019B1B88052BC4
:100DF0000AD9019B1B88B3F5486F07D9019B1B8853
:100E00004FF6FF72934201D0072325E0019B5B88D8
:100E1000052B0AD9019B5B88B3F5486F07D9019B65
:100E20005B884FF6FF72934201D0072314E0019BC9
:100E30001B884FF6FF7293420DD0019B5B884FF6E3
:100E4000FF72934207D0019B1A88019B5B889A42EC
:100E500001D9072300E00023184602B0704700B50F
:100E600087B0039002910192ADF80230019B1B887C
:100E70009A1DBDF802309A4201D90C234BE0039829
:100E8000FFF7B1FF0590059B002B01D0059B42E0C9
:100E9000019B1B881A46029B134405221A70019B72
:100EA0001B8801339AB2019B1A80019B1B881A464A
:100EB000029B134412221A70019B1B8801339AB2C1
:100EC000019B1A80039B1A88019B1B881946029B71
:100ED0000B4419461046FFF7C3FC03461946019B15
:100EE0001A888BB213449AB2019B1A80039B5A88CA
:100EF000019B1B881946029B0B4419461046FFF7BD
:100F0000AFFC03461946019B1A888BB213449AB270
:100F1000019B1A800023184607B05DF804FB00B55A
:100F200087B0039002910192ADF80230039B9B8839
:100F300002330593019B1B881A46059B13449A1C98
:100F4000BDF802309A4201D90C2354E0059BFE2BD8
:100F500001D90C234FE0059BDAB2019B1B8819468F
:100F6000029B0B440132D2B21A70019B1B880133E1
:100F70009AB2019B1A80019B1B881A46029B13445C
:100F8000FF221A70019B1B8801339AB2019B1A80C1
:100F9000039B1A88019B1B881946029B0B44194628
:100FA0001046FFF75DFC03461946019B1A888BB279
:100FB00013449AB2019B1A80039B9B88002B19D083
:100FC000039B9B68002B01D1072314E0019B1B8826
:100FD0001A46029B9818039B9968039B9B881A46A4
:100FE0000EF0B3F8019B1A88039B9B8813449AB2B6
:100FF000019B1A800023184607B05DF804FB00B57A
:1010000089B0039002910192ADF80230039B9B6A74
:10101000002B01D1072372E000238DF81F3066E01A
:10102000039B996A9DF81F2013465B0013449B00A5
:101030000B440693069B9B8802330593059BFE2B6E
:1010400001D90C235BE0059BDAB2019B1B88194692
:10105000029B0B440132D2B21A70019B1B880133F0
:101060009AB2019B1A80019B1B881A46029B13446B
:1010700016221A70019B1B8801339AB2019B1A80B9
:10108000069B1A88019B1B881946029B0B44194634
:101090001046FFF7E5FB03461946019B1A888BB201
:1010A00013449AB2019B1A80069B9B88002B19D08F
:1010B000069B9B68002B01D1072320E0019B1B8826
:1010C0001A46029B9818069B9968069B9B881A46AD
:1010D0000EF03BF8019B1A88069B9B8813449AB23A
:1010E000019B1A809DF81F3001338DF81F30039B40
:1010F00093F82C309DF81F209A4291D30023184674
:1011000009B05DF804FB00B589B005900491039225
:1011100000230793039B1B88ADF81A30039B002222
:101120001A80059B93F82D30002B0CD0BDF81A3097
:101130001A4603990498FFF7A9FB0790079B002B19
:1011400001D0079BC4E0059B9B78002B0CD0BDF819
:101150001A301A4603990498FFF79EFC0790079BE4
:10116000002B01D0079BB3E0059BDB78002B0ED052
:10117000059BDB7858B2BDF81A30039A0499FFF743
:10118000D9FC0790079B002B01D0079BA0E0059B93
:101190005B68002B0FD0059B5B6893F90000BDF8DE
:1011A0001A30039A0499FFF704FD0790079B002B60
:1011B00001D0079B8CE0059B1B89002B12D0059B5F
:1011C00003F10800BDF81A300193039B0093049BC0
:1011D00006220221FFF7D4FD0790079B002B01D0C8
:1011E000079B75E0059B1B8A002B12D0059B03F122
:1011F0001000BDF81A300193039B0093049B072253
:101200000321FFF7BDFD0790079B002B01D0079B33
:101210005EE0059B1B8B002B12D0059B03F1180091
:10122000BDF81A300193039B0093049B15221421EF
:10123000FFF7A6FD0790079B002B01D0079B47E017
:10124000059B1B6A002B0DD0059B186ABDF81A3050
:10125000039A0499FFF703FE0790079B002B01D028
:10126000079B35E0059B5B6A002B0DD0059B586AF8
:10127000BDF81A30039A0499FFF751FE0790079BB7
:10128000002B01D0079B23E0059B93F82C30002B0B
:101290000CD0BDF81A30039A04990598FFF7AFFEF9
:1012A0000790079B002B01D0079B11E0059B1B7843
:1012B000002B0CD0BDF81A30039A04990598FFF75B
:1012C0004CFB0790079B002B01D0079B00E0079B7E
:1012D000184609B05DF804FB82B00190019BDB78F1
:1012E00003F00403002B01D1072300E0002318467C
:1012F00002B0704782B00190019BDB78002B01D0D7
:10130000072300E00023184602B0704700B597B0ED
:10131000019000911F23ADF84A301F23ADF84830EB
:10132000019B002B18D00198FFF7D6FF1390139B59
:10133000002B01D0139B3FE00DF14A020AAB194686
:101340000198FFF7E0FE1390139B002B01D0139B35
:1013500032E00AAB159304E0002315930023ADF8A7
:101360004A30009B002B17D00098FFF7C3FF139063
:10137000139B002B01D0139B1EE012AA02AB19464F
:101380000098FFF7C0FE1390139B002B01D0139B16
:1013900012E002AB149304E0002314930023ADF891
:1013A0004830BDF84A30D9B2BDF84830DBB2149AA3
:1013B0001598FFF745FA0346184617B05DF804FB89
:1013C00073DF704700BF1846014B1B781846704703
:1013D000EA3E002084B00190002303930AE0019AC2
:1013E000039B13441B78002B01D0012306E0039BD1
:1013F00001330393039B052BF1D90023184604B056
:101400007047000082B003468DF807309DF8073022
:101410005A1C074B83FB02135910D317C91A0B46EA
:101420009B000B44D11ACBB2184602B0704700BFE4
:101430006766666682B00190019BDB7B012B03D15E
:10144000019B9A88024B1A8000BF02B0704700BF10
:10145000DC3E002000B585B001900E4B00221A70D2
:10146000019B9A880C4B1B889A420ED1012000F0F8
:1014700063FA0390039B002B07D0084B1B68002BDB
:1014800003D0064B1B680398984700BF05B05DF872
:1014900004FB00BFE83E0020DC3E0020E43E0020CC
:1014A00000B585B00190019B1B7A002B15D10D4B27
:1014B0001B781846FFF7A6FF0346184600F03CFAD3
:1014C0000390039B002B09D0074B1B68002B05D012
:1014D000054B1B680398984700E000BF05B05DF816
:1014E00004FB00BF173E0020E43E002000B583B09F
:1014F00001AB184604F09EFD019B002B14BF012395
:101500000023DBB2184603B05DF804FB00B585B0DC
:1015100003468DF807301E48FFF75CFF03468DF841
:101520000F309DF80730013B032B2BD801A252F856
:1015300023F000BF45150200591502006D15020089
:1015400079150200134B5B78002B05D09DF80F3006
:10155000002B01D0012316E00E4B9B78002B05D009
:101560009DF80F30002B01D002230CE0094BDB78F3
:10157000002B01D0032306E0064B1B79002B01D082
:10158000042300E00023184605B05DF804FB00BF0B
:101590003D3E0020183E002082B00190094B012200
:1015A0001A70019B084A5A60019B01221A70019B24
:1015B00000229A81019B00225A810023184602B022
:1015C000704700BF163E00203C3E002082B00190D4
:1015D0000B4B02221A70019B0A4A5A60019B01229E
:1015E0001A70094BDB689AB2019B9A81064B9B6883
:1015F0009AB2019B5A810023184602B0704700BF7F
:10160000163E00203C3E0020183E002000B585B06C
:1016100001901B4B1B699AB2019B5A81184B5B6965
:101620009AB2019B9A81164B1B78002B1FD0154B49
:101630001B7883F00103DBB2002B18D0FFF7C4FE48
:101640000346002B13D0019B02221A720E4B042278
:10165000DA7000210C48FFF759FE0390039B002B22
:1016600001D0039B07E0094B05221A7002E0074BEB
:1016700003221A700023184605B05DF804FB00BF72
:10168000183E0020E83E0020443E0020163E002088
:1016900000B585B001901B4B9B699AB2019B5A81A2
:1016A000184BDB699AB2019B9A81164B1B78002B71
:1016B0001FD0154B1B7883F00103DBB2002B18D031
:1016C000FFF782FE0346002B13D0019B02221A7201
:1016D0000E4B0422DA7000210C48FFF717FE03902E
:1016E000039B002B01D0039B07E0094B06221A70D5
:1016F00002E0074B04221A700023184605B05DF87B
:1017000004FB00BF183E0020E83E0020443E0020BD
:10171000163E002082B003468DF80730034A9DF83C
:101720000730137000BF02B0704700BF383E002082
:1017300030B589B00390029101920093039B002B76
:1017400002D0019B002B01D10E23D5E06C4B01226E
:101750001A706C4B00221A706B4A019B14461D468E
:101760000FCD0FC495E80F0084E80F00674B0022EF
:101770001A70674A009B1360664A0C9B1360664BA5
:101780004FF6FF721A800722002164480DF006FD13
:101790003C22002162480DF001FD039B1A78604B4A
:1017A0001A70039B9A785E4B9A70039BDA785C4BB5
:1017B000DA70039B5A785A4B5A70594B039A10337C
:1017C000103292E8030083E80300554B039A083374
:1017D000083292E8030083E80300514B039A183360
:1017E000183292E8030083E80300039B5B6A002B36
:1017F00029D04B4B4B4A5A624A4B4B4A9A60039B47
:101800005A6A474B5B6A12881A80039B5A6A444B98
:101810005B6A92889A80002307930DE0039B5B6AC2
:101820009A68079B134419783F4A079B13440A465A
:101830001A70079B01330793394B5B6A9B881A46E2
:10184000079B9342EAD3039B9B6A002B33D0374B11
:10185000374A9A60324B354A9A62314B9B6A344A16
:101860009A60039B9A6A2E4B9B6A92889A80039B8C
:101870009A6A2B4B9B6A12881A80002306930DE00C
:10188000039B9B6A9A68069B13441978284A069B17
:1018900013440A461A70069B01330693204B9B6A39
:1018A0009B881A46069B9342EAD3039B93F82C200D
:1018B0001B4B83F82C20039B1B6A002B0ED0184B6C
:1018C0001C4A1A62039B1A6A154B1B6A52885A807B
:1018D000039B1A6A124B1B6A12881A80039B5B686F
:1018E000002B03D0039B5B680D4A536002990C48A0
:1018F000FFF70CFD0590059B184609B030BD00BFF1
:10190000143E0020173E0020183E0020383E0020E4
:10191000E03E0020E43E0020DC3E00203C3E002073
:10192000443E0020803E00208C3E0020AC3E002043
:10193000B83E0020D83E002000B589B003468DF89F
:101940000730664B1B7883F00103DBB2002B01D01C
:101950000823BEE0624A9DF807301370FFF7C6FD0A
:101960000346002B04D05F4B01221A700023B0E025
:10197000072200215C480DF011FC5C4B5B78002BCA
:1019800003D0574B1B78012B0FD0584B9B78002B63
:1019900003D0534B1B78012B07D0544B9B78002B63
:1019A00012D04F4B1B78022B0ED1514B1B68002BD2
:1019B00007D0504B01221A704D4B1B6808209847E6
:1019C00002E04C4B00221A709DF807301846FFF7D2
:1019D0009DFD03461A46424B1A70454B1B68002B6F
:1019E0001DD03F4B1B78032B03D03D4B1B78042BA2
:1019F00015D13E4B1B78002B11D03F4B1B7883F049
:101A00000103DBB2002B0AD03C4B00221A703C4B86
:101A100001221A70364B1B680720984702E0384BAA
:101A200000221A7003AB1022002118460DF0B6FBFD
:101A300000238DF80C3000238DF81430284B1B78D0
:101A4000042B29D801A252F823F000BF911A0200FA
:101A5000611A02006D1A0200791A0200851A02004A
:101A600003AB1846FFF798FD079016E003AB184646
:101A7000FFF7ACFD079010E003AB1846FFF7C6FD7B
:101A800007900AE003AB1846FFF702FE079004E058
:101A90001C4B00221A7000E000BF114B1B78002B7A
:101AA0000CD0194B1A7803AB11461846FFF788FC87
:101AB0000790079B002B01D0079B0AE00C4B1B688B
:101AC000002B05D00A4B1B680E4A12781046984727
:101AD0000023184609B05DF804FB00BF143E002047
:101AE000173E0020153E00203C3E0020183E0020FE
:101AF000E03E0020433E0020E83E0020EA3E002079
:101B0000E93E0020163E0020383E002000B583B09C
:101B10000190019B1B88112B07D01B2B09D0102B88
:101B20000BD10198FFF786FC08E00198FFF792FCC3
:101B300004E00198FFF7B4FC00E000BF00BF03B071
:101B40005DF804FB75DF704700BF184676DF70470D
:101B500000BF18467ADF704700BF18467BDF70472A
:101B600000BF184682B00190019B5A88074B1B8822
:101B70009A4207D3019B5A88044B5B889A4201D84A
:101B8000012300E00023184602B07047083F002000
:101B900000B587B00190274B1B884FF6FF72934228
:101BA00043D0254B1B780133DAB2234B1A70234BF9
:101BB0001A7B214B1B789A4212D31E4B1B8820495B
:101BC0001846FFF7BFFF0590059B002B2DD01B4B40
:101BD0009B69002B29D0194B9B690598984724E0F5
:101BE000154B00221A70154B1B7C002B11D0114B8A
:101BF0001B883B211846FFF7A9FF0490049B002B8C
:101C000007D00E4B9B69002B03D00C4B9B690498AB
:101C100098470A4B5B69002B07D000238DF80C30E6
:101C2000064B5B6903AA1046984700BF07B05DF8F2
:101C300004FB00BF123F0020103F0020EC3E0020BC
:101C4000083F002030B585B001901C4A019B144626
:101C50001D460FCD0FC495E8070084E80700184B18
:101C600000221A70019B1B68002B0ED0019B1A6882
:101C7000144B1068516803C31248FFF76BFF0390C1
:101C8000039B002B0AD0039B15E00E48FFF766FF6D
:101C90000390039B002B01D0039B0CE00A4B4FF6F3
:101CA000FF721A80094B00221A70094A0021094864
:101CB00003F0F4FE0346184605B030BDEC3E0020AC
:101CC0003C3F0020083F0020123F0020103F002032
:101CD000911B020054FE020000B585B02548FFF7B5
:101CE00041FF034683F00103DBB2002B2ED0224BD1
:101CF0001B78002B0CD0214B5B69002B32D00023CA
:101D00008DF804301D4B5B6901AA1046984729E005
:101D10001B4B1B78002B03D1184B5B68039302E02D
:101D2000164B9B680393174B00220399184603F048
:101D3000E5FE0290029B002B14D0104B9B69002BF8
:101D400010D00E4B9B69029898470BE00B4B5B69D8
:101D5000002B07D001238DF80030084B5B696A46E1
:101D600010469847044B00221A7000BF05B05DF87A
:101D700004FB00BF143F00203C3F0020EC3E00204D
:101D8000103F00201C3F002000B583B00190019B54
:101D90009A880B4B1A800B4A019B103393E803007F
:101DA00082E80300084B00221A70084BDB89002BE5
:101DB00001D1FFF791FF00BF03B05DF804FB00BF46
:101DC000123F0020143F0020103F0020EC3E002076
:101DD00000B585B001900D4B4FF6FF721A800C4B89
:101DE00000221A700B4B184603F0BAFE0390039BB7
:101DF000002B07D0084B9B69002B03D0064B9B6937
:101E00000398984700BF05B05DF804FB123F00201F
:101E1000103F00201C3F0020EC3E002000B585B0A4
:101E20000190019B06330393039B1A88134BDB89B4
:101E30009A421ED1039B5B89022B1AD1039B0C3360
:101E4000184600F066F80346002B02D0FFF744FF67
:101E50000FE00B4B184603F083FE0290029B002B11
:101E600007D0064B9B69002B03D0044B9B6902985B
:101E7000984700BF05B05DF804FB00BFEC3E0020B2
:101E80001C3F002000B583B00190064A019B083337
:101E900093E8030082E80300FFF71EFF00BF03B0D2
:101EA0005DF804FB143F002000B583B00190019B56
:101EB0001B88112B0DD0112B02DC102B05D014E048
:101EC000122B0ED0502B08D00FE00198FFF75CFFCB
:101ED0000BE00198FFF77CFF07E00198FFF79EFFFA
:101EE00003E00198FFF7CEFF00BF00BF03B05DF82D
:101EF00004FB82B00190019B1B781AB2019B013355
:101F00001B781B021BB213431BB29BB2184602B0D4
:101F1000704700B585B001900198FFF7EAFF0346CE
:101F2000ADF80E30BDF80E3003F00103002B14BFE6
:101F300001230023DBB2184605B05DF804FB000066
:101F400000B585B00190009100238DF80F309DF809
:101F50000F305A1C8DF80F201A46019B1344009A2B
:101F600012781A709DF80F305A1C8DF80F201A46FF
:101F7000019B1344009A52781A709DF80F30022B7F
:101F80000CBF01230023DBB20293029B002B04D180
:101F9000054A4721002002F065FD9DF80F301846E4
:101FA00005B05DF804FB00BF58FE02008FDF7047EC
:101FB00000BF18469EDF704700BF1846ADDF704770
:101FC00000BF184682B00190019B9E221A80019B9F
:101FD00017225A80019B00221A71019B00225A711C
:101FE000019BA2229A71019B1B22DA7100BF02B0F1
:101FF0007047000000B587B003460091ADF8063089
:10200000BDF80630009ADB0013441B7B9BB2ADF891
:102010000C30BDF80630009ADB0013441B7B9BB2EA
:10202000ADF80E300023ADF810300023ADF81230BB
:1020300003A9BDF8063000221846FFF7B7FF059048
:10204000059B002B06D0BDF80620059B0349012007
:1020500004F09BFB00BF07B05DF804FB9CFE020090
:1020600000B587B001900091009B9B88ADF81630B9
:10207000BDF81630DB00019A134406330493019B2C
:102080001A79049B9A71009BDB7B012B02D0022BF7
:1020900005D009E0019B1A88049B1A8004E0019B8B
:1020A0005A88049B1A8000BF049B1A88049B5B8893
:1020B0009A421BD9049B1A88BDF81630114618465F
:1020C000FFF778FF0390039B002B03D1049B0122B1
:1020D0005A710BE0039B112B03D1049B01221A714F
:1020E00004E0039A0949012004F03BFB049B9A7920
:1020F000049BDB799A4205D9BDF816300199184640
:10210000FFF778FF00BF07B05DF804FB10FF020087
:1021100000B583B001900091009B9B88DB00019A81
:10212000134406331846FFF74DFF00BF03B05DF8B8
:1021300004FB00B587B001900091009B9B88ADF82F
:102140001630009B5B89ADF81430BDF81630DB000B
:10215000019A134406330493049B1B88BDF8142092
:10216000934228BF13469AB2049B5A80049B5B8813
:10217000172B38BF17239AB2049B5A80019B9B6987
:10218000002B15D0049B5B79002B11D040F67723F0
:10219000ADF80830BDF81630ADF80A30049B5B8806
:1021A000ADF80C30019B9B6902AA11460198984733
:1021B000049B00225A71049B00221A7100BF07B0D1
:1021C0005DF804FB00B589B001900091009B9B88ED
:1021D000ADF81C30009BDB88ADF81E30BDF81C301C
:1021E000DB00019A134406330693BDF81E30172B0B
:1021F00038BF1723ADF81E30069B1B88BDF81E2084
:10220000934228BF13469AB2069B5A80069B00222F
:102210001A71069B1A88BDF81C3011461846FFF744
:10222000CDFE0590059B002B04D0059A1149012095
:1022300004F097FA069B5B79002B16D1019B9B69F2
:10224000002B13D040F67723ADF80C30BDF81C30CE
:10225000ADF80E30069B5B88ADF81030019B9B6992
:1022600003AA11460198984700E000BF09B05DF845
:1022700004FB00BF6CFF020030B593B001900091E9
:10228000009B04AC1D1D0FCD0FC40FCD0FC40FCD8F
:102290000FC42B682360BDF81030ADF84630BDF890
:1022A0001420BDF84630D1B2019ADB0013440A462F
:1022B0005A73019B9B69002B19D002AB00221A6054
:1022C0009A804DF67A23ADF80830BDF84630ADF867
:1022D0000A30BDF84630019ADB0013445B7B8DF871
:1022E0000C30019B9B6902AA11460198984700BFD8
:1022F00013B030BD00B589B001900091009B04334C
:102300000693069B1B88DB00019A13440633079350
:10231000069B9B888DF81730079B9B799DF81720AB
:10232000934228BF13468DF8163002AB00221A6084
:102330005A609DF816309BB2ADF808309DF8163003
:102340009BB2ADF80A30069B1B8802A900221846F2
:10235000FFF72CFE0490049B002B04D0049A044940
:10236000012004F0FEF900BF09B05DF804FB00BFD6
:10237000C4FF020000B585B001900091019B002BC5
:1023800001D10E231DE0019B009A9A61019B9E22C0
:102390001A80019B9E225A80019BA2221A7100235F
:1023A00003930AE0039BDB00019A134406331846AB
:1023B000FFF708FE039B01330393039B012BF1D925
:1023C0000023184605B05DF804FB82B001900B466F
:1023D000ADF80230019B002B01D10E230EE0BDF8B9
:1023E0000230162B03D9BDF802309E2B01D90723EA
:1023F00004E0019BBDF802201A800023184602B0B9
:102400007047000000B585B001900091009B9B884B
:10241000ADF80E30BDF80E30012B5FD8009B1B8845
:10242000212B26D0212B04DC102B09D0112B0CD012
:1024300024E03A2B0ED0552B11D0222B14D01DE0C6
:1024400000990198FFF70CFE18E000990198FFF73A
:102450005FFE13E000990198FFF76BFE0EE0009914
:102460000198FFF7AFFE09E000990198FFF704FF1C
:1024700004E000990198FFF73DFF00BFBDF80E3062
:10248000019ADB0013449B7A002B28D0BDF80E3054
:10249000019ADB001344DA88BDF80E301146184665
:1024A000FFF788FD0290029B002B0ED1BDF80E3085
:1024B000019ADB00134400229A72BDF80E30019A93
:1024C000DB0013440122DA7209E0029B112B06D0D3
:1024D000029A0449012004F044F900E000BF05B06D
:1024E0005DF804FB10FF0200A0DF704700BF184634
:1024F000A2DF704700BF1846A6DF704700BF18462E
:1025000062DF704700BF184682B001900091009BC7
:102510009A88019B9A8200BF02B0704782B00190F6
:102520000091019B4FF6FF729A8200BF02B0704784
:1025300000B585B001900091009B06330393039B87
:102540001A88019B1B899A4213D1039B5B89022B3A
:102550000FD1039B0C331846FFF7DBFC0346002B1F
:1025600003D0019B01229A7517E0019B00229A7506
:1025700013E0039B1A88019B9B899A420DD1019B12
:102580009B69002B09D0019B9B69039A02F10C0106
:10259000039A528901989847FFE700BF05B05DF89C
:1025A00004FB00B593B0019000910AAB0322002117
:1025B00018460CF0F3FD9DF82830012262F3030366
:1025C0008DF828309DF82830012262F307138DF82A
:1025D00028309DF82930012262F303038DF8293059
:1025E0009DF82930012262F307138DF829309DF8F8
:1025F0002A30012262F342038DF82A300BAB1C22F1
:10260000002118460CF0CAFD9DF82C3043F0100351
:102610008DF82C3000230C9300230E9300230F938E
:102620000AAB109300231193019B1B788DF8123095
:102630000323ADF8103003AB0322002118460CF041
:10264000ADFD9DF80C30012262F303038DF80C30D0
:102650009DF80C30012262F307138DF80C309DF8C1
:102660000D30012262F303038DF80D309DF80D301B
:10267000012262F307138DF80D309DF80E30012210
:1026800062F342038DF80E309DF80E306FF3C303F2
:102690008DF80E309DF80E306FF304138DF80E3068
:1026A0009DF80E3043F001038DF80E3005AB142277
:1026B000002118460CF072FD04AB059303AB0693A2
:1026C0000123ADF81C300023ADF81E309B23ADF87C
:1026D0002030019B5888019B043305AA0BA9FFF702
:1026E00007FF0346184613B05DF804FB00B591B030
:1026F0000190009109AB1C22002118460CF04EFD00
:102700009DF8243043F008038DF824309DF82430E0
:1027100043F004038DF8243000230A9300230C9324
:1027200000230D9300230E9300230F93019B1B782E
:102730008DF80E300223ADF80C3002AB03220021DD
:1027400018460CF02BFD9DF80830012262F30303BC
:102750008DF808309DF80830012262F307138DF8D8
:1027600008309DF80930012262F303038DF8093027
:102770009DF80930012262F307138DF809309DF8A6
:102780000A30012262F342038DF80A309DF80A30C4
:102790006FF3C3038DF80A309DF80A306FF304130A
:1027A0008DF80A309DF80A3043F001038DF80A30A5
:1027B00004AB1422002118460CF0F0FC03AB049388
:1027C00002AB05930123ADF818300023ADF81A30A1
:1027D0009B23ADF81C30019B5888019B0C3304AA45
:1027E00009A9FFF785FE0346184611B05DF804FB02
:1027F00000B583B001900091019B002B1FD0009B7E
:10280000002B1CD0009B1B88112B0ED0112B02DC3F
:10281000102B05D016E0502B0CD0A62B11D011E0B8
:1028200000990198FFF770FE0CE000990198FFF7FE
:1028300075FE07E000990198FFF77AFE02E000BFFD
:1028400000E000BF03B05DF804FB000010B588B0E5
:1028500001900091284B02AC0FCB84E80F00019B44
:10286000002B01D10E2344E0009B002B01D10E234D
:102870003FE0019B4FF6FF729A82009B1A68019B12
:102880009A61019B00229A75019A02AB1146184683
:10289000FFF736FE0790079B002B01D0079B28E02F
:1028A000019B1B788DF81A300123ADF81830019B7D
:1028B0009A1C06AB19460120FFF716FE0790079BEE
:1028C000002B01D0079B14E000990198FFF70EFF41
:1028D0000790079B002B01D0079B0AE00099019805
:1028E000FFF75FFE0790079B002B01D0079B00E0DE
:1028F0000023184608B010BD2400030000B589B0BD
:10290000039002911346ADF80630039B002B01D1D2
:102910000E232EE0039B9B8A4FF6FF72934206D054
:10292000039B9B7D83F00103DBB2002B01D00823C6
:102930001FE0BDF806309B2B01D9072319E004AB3B
:102940001022002118460CF029FC039B9B88ADF84F
:102950001030029B07930DF10603069301238DF8B7
:102960001230039B9B8A04AA11461846FFF7C4FD48
:102970000346184609B05DF804FB82B001904FF0A1
:102980008042019BC2F8083300BF02B0704784B098
:102990000346ADF80630BDF8063003F1804300224F
:1029A0001A60BDF8063003F180431B680393039B54
:1029B00000BF04B0704782B00346ADF80630BDF8E2
:1029C000063003F180431B68002B14BF0123002352
:1029D000DBB2184602B0704782B003468DF807306C
:1029E0009DF807304FF0804203F00303C2F818351A
:1029F00000BF02B07047000082B003468DF8073078
:102A00000A4A9DF907305B0952F823209DF80730E8
:102A100003F01F03012101FA03F31340002B14BF3D
:102A200001230023DBB2184602B0704700E100E04A
:102A300008B50020FFF7E0FF034683F00103DBB297
:102A4000002B03D00721002000F01EF900BF08BDB5
:102A500000B583B000230193134B1B78002B02D0E9
:102A6000852301931BE0104B00229A600E4B00223D
:102A70005A600D4B00221A610B4B0022DA60FFF7FF
:102A8000D7FF04F0CBF9034683F00103DBB2002B40
:102A900002D00120FFF7A0FF034B01221A70019B17
:102AA000184603B05DF804FB403F002084B001905D
:102AB000019B1B680393039B002B03D0039B1A68A5
:102AC000019B1A60039B184604B0704700B585B09F
:102AD00003468DF807309DF80730002B02D10C4BD0
:102AE000039301E00B4B03930398FFF7DFFF029082
:102AF000029B002B06D0029B5B689DF807201046C6
:102B00009847F1E700BF00BF05B05DF804FB00BFC8
:102B1000483F0020503F002008B54FF48070FFF779
:102B20004AFF0346002B0CD04FF48070FFF72FFFB5
:102B30000120FFF722FF0E4B01225A700020FFF701
:102B4000C5FF4FF48270FFF736FF0346002B0CD011
:102B50004FF48270FFF71BFF0220FFF70EFF044BBC
:102B600001229A700120FFF7B1FF00BF08BD00BF2E
:102B7000403F002000B583B00190019B002B02D1A3
:102B80000020FFF7A3FF00BF03B05DF804FB0000C7
:102B900000B583B000238DF807300DF10703184608
:102BA00003F014FA0C4B1B7883F00103DBB2002B0B
:102BB00001D0FFF74DFF084BDB680133064AD360B5
:102BC000054B01229A709DF80730184603F008FA69
:102BD00000BF03B05DF804FB403F002082B0034615
:102BE0008DF807309DF8073003F01F0205499DF965
:102BF00007305B09012000FA02F241F8232000BFF0
:102C000002B0704700E100E082B003468DF8073063
:102C10009DF8073003F01F0206499DF907305B0954
:102C2000012000FA02F2603341F8232000BF02B015
:102C3000704700BF00E100E082B0034600918DF8CC
:102C400007309DF90730002B0CDA009BDAB20C49F3
:102C50009DF8073003F00F03043B5201D2B20B443E
:102C60001A7609E0009BDAB206499DF90730520155
:102C7000D2B20B4483F8002300BF02B0704700BFFC
:102C800000ED00E000E100E000B583B003460A4635
:102C90008DF8073013468DF806309DF806209DF913
:102CA000073011461846FFF7C7FF9DF90730184651
:102CB000FFF7AAFF9DF907301846FFF78FFF00BF07
:102CC00003B05DF804FB00B583B00346ADF80630F1
:102CD000BDF80630184600F026F803461B68012BA5
:102CE0000CBF01230023DBB2184603B05DF804FBE0
:102CF00000B585B00346ADF80630BDF8063018467D
:102D000000F011F803461A4600231360BDF80630A0
:102D1000184600F008F803461B680393039B00BFA6
:102D200005B05DF804FB82B00346ADF80630BDF88F
:102D3000063003F1804303F5C043184602B07047E4
:102D400082B00190034A019BC2F8043300BF02B075
:102D5000704700BF0060004082B00190034BD3F881
:102D60000423019B1340184602B0704700600040E6
:102D700082B00190084A019B03F5A27352F82330F8
:102D8000054943F00102019B03F5A27341F823209A
:102D900000BF02B0704700BF0060004084B00390E5
:102DA000029113468DF80730144A039B03F5A27372
:102DB00052F82330114923F4473323F44073039A24
:102DC00002F5A27241F822300C4A039B03F5A2736C
:102DD00052F82320029B1B0203F4F8519DF80730A0
:102DE0001B0403F440330B4304491A43039B03F5CC
:102DF000A27341F8232000BF04B070470060004078
:102E000082B00190054A019B03F5A27352F823306A
:102E10001B0A03F01F03184602B070470060004011
:102E200082B00190064A019B03F5A27352F8233049
:102E30001B0C03F00303DBB2184602B0704700BF5F
:102E40000060004082B001904FF0A043184602B0ED
:102E5000704700B585B00190084611461A460346F2
:102E60008DF803300B468DF8023013468DF8013093
:102E700001AB1846FFF7E6FF03909DF803209DF88D
:102E800002305B001A439DF801309B001A439DF805
:102E900018301B0242EA03019DF81C301B04019A02
:102EA0001943039B02F5E07243F8221000BF05B0FE
:102EB0005DF804FB00B585B003900B468DF80B3030
:102EC0009DF80B200023019300230093134600225A
:102ED00000210398FFF7BDFF00BF05B05DF804FBBC
:102EE00000B585B0019001AB1846FFF7ABFF03902A
:102EF000019A039B02F5E07253F8223023F002039B
:102F00000293019A039B02F5E072029943F82210A2
:102F100000BF05B05DF804FB00B585B001900B461D
:102F20008DF8033001AB1846FFF78CFF0390019A30
:102F3000039B02F5E07253F82230019A23F44031EA
:102F4000039B02F5E07243F82210019A039B02F5FD
:102F5000E07253F822309DF8032012041146019AC2
:102F60001943039B02F5E07243F8221000BF05B03D
:102F70005DF804FB00B585B0019001AB1846FFF782
:102F800061FF0390039800F020F80246019B22FAAB
:102F900003F303F00103184605B05DF804FB00B528
:102FA00085B0019001AB1846FFF74CFF0390019AE2
:102FB000039B02F5E07253F822301B0C03F003036D
:102FC000DBB2184605B05DF804FB82B00190019BAE
:102FD000D3F81035184602B0704700B587B003909B
:102FE000029101924FF0A0430493039B059311E0DB
:102FF000059B9B0006AA134453F8083C1846FFF7AC
:10300000E4FF0246019B1A60019B04330193059B78
:1030100001330593039A029B1344059A9A42E7D31E
:1030200000BF07B05DF804FB84B001900091009BE5
:103030000393019BDB080293019B03F007030193B9
:103040000122019B02FA03F30399029A0A441278BF
:103050001340184604B0704784B001900091009B63
:103060000393019BDB080293019B03F00703019389
:10307000039A029B13441B785AB20121019B01FA67
:1030800003F35BB2134359B2039A029B1344CAB2CF
:103090001A7000BF04B0704782B001900C4A019BC7
:1030A0001344303393F90030002B09DB084A019BAD
:1030B0001344303393F90030072B01DC012300E087
:1030C000002303F00103DBB2184602B0704700BFD3
:1030D000543F002082B00190064A019B13443033D4
:1030E00093F90030072BCCBF01230023DBB2184635
:1030F00002B07047543F002082B00190064A019B05
:103100001344303393F90030DB43DBB2DB09DBB22D
:10311000184602B0704700BF543F002084B00390AF
:10312000029101928DF80330029B59B20E4A039B23
:10313000134430330A461A700B49029B019A41F836
:1031400023209DF8033083F00103DBB2002B08D06D
:10315000029B083B039A51B2034A13440A4683F880
:10316000502000BF04B07047543F002082B001904F
:10317000044A019B13443033FF221A7000BF02B08F
:10318000704700BF543F002082B00190044A019B69
:103190001344303393F90030184602B0704700BF33
:1031A000543F002082B00190034A019B52F8233023
:1031B000184602B0704700BF543F002000B589B0E8
:1031C0000390029113468DF80730FF238DF81F30CE
:1031D0009DF80730002B01D0002300E00823059361
:1031E0009DF80730002B01D0082300E00C23049346
:1031F000059B069314E00F4A069B52F82330B3F167
:10320000FF3F0AD19DF80730029A06990398FFF70D
:1032100085FF069B8DF81F3006E0069B0133069361
:10322000069A049B9A42E6D39DF91F30184609B0CE
:103230005DF804FB543F002082B003468DF8073050
:103240009DF80730094A4FF0FF3142F823109DF8EE
:103250000730072B07D99DF80730083B034A134472
:10326000FF2283F8502000BF02B07047543F002077
:1032700000B583B0214B93F85430002B03D00823C2
:103280000093009B36E000238DF8073009E09DF89D
:1032900007301846FFF76AFF9DF8073001338DF8B5
:1032A00007309DF807301F2BF1D900238DF8073028
:1032B00009E09DF807301846FFF7BEFF9DF807307C
:1032C00001338DF807309DF807300B2BF1D907211A
:1032D0000620FFF7D9FC4FF4BE70FFF709FD4FF051
:1032E0000040FFF72DFD054B012283F854200023F9
:1032F0000093009B184603B05DF804FB543F002088
:10330000044B93F85430002B14BF01230023DBB28D
:1033100018467047543F002000B587B003900291D3
:103320000192002305930398FFF7E6FE0346002B66
:1033300002D00823059341E0029BDB781A460199ED
:103340000398FFF73BFF03468DF813309DF91330C8
:10335000B3F1FF3F30D0029B9B78002B03D0039842
:10336000FFF7BEFD05E0029B5B7819460398FFF767
:10337000A1FD029BDB78002B08D09DF91300029B76
:103380001B781A460399FFF709FD17E09DF91330E2
:10339000083B0D4A134493F95010029B1B789B0184
:1033A0005AB29DF91330083B0A4351B2064A1344FE
:1033B0000A4683F8502001E004230593059B184634
:1033C00007B05DF804FB00BF543F002000B587B094
:1033D00001900B468DF803300198FFF77BFE034602
:1033E000002B2FD00198FFF7CFFE0346083B304A51
:1033F000134493F950308DF816309DF816309B0920
:103400008DF815309DF81530032B0BD10198FFF77F
:10341000B1FD0346002B01D0032300E002238DF809
:10342000173008E09DF81530012B01D1022300E090
:1034300003238DF817309DF8173019460198FFF7D0
:103440006BFD30E00198FFF727FE0346002B2AD0E2
:103450000198FFF799FE03460493049B9BB2403307
:103460009BB29B00ADF80E30049B1846FFF780FC22
:10347000BDF80E301846FFF73BFC9DF80330002BDB
:1034800011D00198FFF780FE03461846FFF78AFE29
:103490000290029B002B06D00122049B02FA03F348
:1034A0001846FFF74DFC00BF07B05DF804FB00BFF6
:1034B000543F002000B595B00023139300230393DD
:1034C0004FF48073ADF8463001231093002312931C
:1034D00021E0BDF846301846FFF7F5FB0346002B08
:1034E0000ED01098FFF738FC0346002B08D0BDF82B
:1034F00046301846FFF7FCFB139A109B13431393B7
:10350000109B5B001093BDF846300433ADF8463095
:10351000129B01331293129B072BDAD94FF4BE7022
:10352000FFF7D1FB0346002B0DD04FF4BE70FFF721
:10353000DFFB139B43F00043139303AB1A460121B7
:103540000020FFF74AFD139BDBB2002B29D001239B
:1035500010930023129321E0109A139B1340002B29
:1035600016D01298FFF74CFC0D901298FFF758FCFC
:1035700003468DF833301298FFF714FE0B900B9B27
:10358000002B05D09DF833200B9B11460D989847D2
:10359000109B5B001093129B01331293129B072B1D
:1035A000DAD9139B002B80F2EE8000238DF83B309C
:1035B0000023029300230F930AE00F9B9B0014AAA1
:1035C00013444FF0FF3243F84C2C0F9B01330F9301
:1035D0000F9B002BF1D000238DF83B30002312937A
:1035E00078E06B4A129B1344503393F900308DF806
:1035F0002B309DF82B3023F0C0030993644A129BB3
:103600001344503393F90030B3F1FF3F5FD001AB67
:1036100019460998FFF708FD0346002B57D09DF87F
:103620002B309B098DF823300998FFF7ADFD034639
:103630001846FFF7B7FD0790079B002B03D19DF8B5
:103640002330032B43D19DF82330032B04D102AB4D
:1036500019460998FFF700FD0998FFF7A0FC0346FB
:103660008DF81B3003AB19460998FFF7DDFC059078
:10367000059B002B03D09DF81B30022B06D0059B29
:10368000002B24D19DF81B30032B20D19DF8233033
:10369000032B13D19DF81B30022B01D1032300E033
:1036A00002238DF813309DF8133019460998FFF75F
:1036B00033FC9DF83B3001338DF83B30079B002BEA
:1036C00005D09DF82320079B114609989847129B27
:1036D00001331293129B032B83D99DF83B30002BAF
:1036E0004CD001238DF83A306B461A460121002058
:1036F000FFF773FC00230F9314E00F9B9B0014AAA9
:10370000134453F8502C0F9B9B0014A90B4453F8FF
:10371000443C9A4203D000238DF83A3005E00F9BD9
:1037200001330F930F9B002BE7D09DF83A30002B0D
:1037300003D000238DF83B3020E000230F931AE0E4
:103740000F9B9B0014AA134453F8502C0F9B9B0013
:1037500014A90B4443F8442C0F9B9B0014AA134458
:1037600053F8482C0F9B9B0014A90B4443F84C2C96
:103770000F9B01330F930F9B002BE1D09DF83B3043
:10378000002B7FF428AF00BF15B05DF804FB00BF2D
:10379000543F002084B001900B46ADF80230BDF8D4
:1037A0000230019A134400221A60BDF80230019AD7
:1037B00013441B680393039B00BF04B0704782B09F
:1037C00001900B46ADF80230BDF80230019A134467
:1037D0001B68002B14BF01230023DBB2184602B084
:1037E000704782B001900091019B009AC3F80423B6
:1037F00000BF02B0704782B001900091019BD3F8E6
:103800000423009B1340002B14BF01230023DBB2D1
:10381000184602B0704782B001900091019B009A57
:10382000C3F8082300BF02B0704784B00190019B29
:10383000D3F880340393019B039AC3F88024039B3D
:10384000184604B0704782B00190019B0422C3F86F
:10385000002500BF02B0704784B00390029101922E
:10386000039B019AC3F81425039B029AC3F80C2505
:1038700000BF04B0704784B0039002910192039B93
:10388000029AC3F80825039B019AC3F8102500BFCC
:1038900004B0704782B00190019BD3F81835DBB2B9
:1038A000184602B0704782B001900B468DF8033085
:1038B0009DF80320019BC3F81C2500BF02B0704790
:1038C00082B001900B468DF803309DF80330019AC9
:1038D000134401221A6000BF02B0704782B0019009
:1038E0000B468DF8033013468DF802309DF8032007
:1038F0009DF802301343DBB21A46019BC3F86C25D6
:1039000000BF02B0704782B001900091019B009A05
:10391000C3F8242500BF02B0704784B001900B4665
:10392000ADF80230BDF80230019A134400221A604B
:10393000BDF80230019A13441B680393039B00BF38
:1039400004B0704782B001900B46ADF80230BDF86C
:103950000230019A13441B68002B14BF012300237B
:10396000DBB2184602B0704782B001900091019B13
:10397000D3F80022009B1A43019BC3F8002200BF2A
:1039800002B0704782B001900091019BD3F80022F1
:10399000009BDB431A40019BC3F8002200BF02B02A
:1039A000704782B001900091019B009AC3F80423F4
:1039B00000BF02B0704782B001900091019B009A55
:1039C000C3F8082300BF02B0704784B00190019B88
:1039D000D3F880340393019B039AC3F88024039B9C
:1039E000184604B0704782B00190019B0822C3F8CA
:1039F000002500BF02B0704784B00390029101928D
:103A0000039B029AC3F80C25039B019AC3F8142563
:103A100000BF04B0704784B0039002910192039BF1
:103A2000029AC3F80825039B019AC3F8102500BF2A
:103A300004B0704782B001900B468DF803309DF8BA
:103A40000330019A134401221A6000BF02B070478C
:103A500082B001900B468DF8033013468DF802308A
:103A60009DF803209DF802301343DBB21A46019BF8
:103A7000C3F86C2500BF02B0704782B0019000917E
:103A8000019B009AC3F8242500BF02B0704784B0A0
:103A90000390029113468DF80730029A039BC3F8F6
:103AA00044259DF80720039BC3F8482500BF04B0B8
:103AB000704782B00190019BD3F84C35184602B094
:103AC000704784B00390029113468DF80730029A34
:103AD000039BC3F834259DF80720039BC3F83825C2
:103AE00000BF04B0704782B00190019BD3F83C3511
:103AF000184602B0704784B00190019B1B0B8DF8F3
:103B00000F309DF90F30184604B0704782B0019015
:103B1000019B03F06043B3F1005F0CBF012300235E
:103B2000DBB2184602B0704782B001904FF0A0435C
:103B3000184602B0704700B585B00190084611469E
:103B40001A4603468DF803300B468DF802301346B3
:103B50008DF8013001AB1846FFF7E6FF03909DF8A2
:103B600003209DF802305B001A439DF801309B0052
:103B70001A439DF818301B0242EA03019DF81C30DD
:103B80001B04019A1943039B02F5E07243F82210CB
:103B900000BF05B05DF804FB00B585B003900023BD
:103BA0000193002300930023012201210398FFF7D2
:103BB000C2FF00BF05B05DF804FB00B585B00390FF
:103BC0000B468DF80B309DF80B200023019300234A
:103BD00000931346002200210398FFF7ACFF00BFBB
:103BE00005B05DF804FB00B585B0019001AB184647
:103BF000FFF79AFF0390019B012202FA03F3194693
:103C0000039800F004F800BF05B05DF804FB82B033
:103C100001900091019B009AC3F8082500BF02B0F3
:103C20007047000000B583B001900091009B1B68B5
:103C3000B3F1FF3F09D0009B1B681846FFF7D3FF85
:103C4000009B1B681846FFF7A7FF009B5B68B3F15A
:103C5000FF3F05D0009B5B6800211846FFF7ADFFD2
:103C6000019B1B79464A5B0113441C331B78002BD4
:103C700041D0019B1A68009B9B6919461046FFF7CB
:103C8000FCFE019B1868009B597D009B1B7D1A461A
:103C9000FFF7DEFE019B1868009B1968009B5B68BC
:103CA0001A46FFF7A9FE009B1B7D012B64D1009BE8
:103CB0009B68B3F1FF3F05D0009B9B68002118462D
:103CC000FFF77BFF009BDB68B3F1FF3F09D0009B50
:103CD000DB681846FFF787FF009BDB681846FFF795
:103CE0005BFF019B1868009BD968009B9B681A4684
:103CF000FFF791FE40E0019B1A68009B9B69194603
:103D00001046FFF700FE019B1868009B597D009B41
:103D10001B7D1A46FFF7E2FD019B1868009B19689E
:103D2000009B5B681A46FFF797FD009B1B7D012BEC
:103D300022D1009B9B68B3F1FF3F05D0009B9B689D
:103D400000211846FFF739FF009BDB68B3F1FF3F06
:103D500009D0009BDB681846FFF745FF009BDB6836
:103D60001846FFF719FF019B1868009BD968009B54
:103D70009B681A46FFF77FFD00BF03B05DF804FBA8
:103D8000AC3F002000B583B001900B468DF80330A6
:103D9000019B1B792D4A5B0113441C331B78002BBC
:103DA0002FD0019B1B684FF488711846FFF7B5FDB3
:103DB000019B1B684FF490711846FFF7AEFD019B05
:103DC0001B684FF492711846FFF7A7FD019B1B6813
:103DD0004FF4A2711846FFF7A0FD019B1B681C4918
:103DE0001846FFF7DEFD019B1B681846FFF783FEB0
:103DF00003461A469DF8033019461046FEF744FF65
:103E000020E0019B1B684FF48E711846FFF7C2FC3F
:103E1000019B1B684FF4A2711846FFF7BBFC019B86
:103E20001B680C491846FFF7DCFC019B1B68184611
:103E3000FFF761FE03461A469DF803301946104607
:103E4000FEF722FF00BF03B05DF804FBAC3F00208B
:103E5000100302008000020000B583B00190019BB6
:103E60001B790B4A5B0113441C331B78002B05D0D4
:103E7000019B1B681846FFF7B6FD04E0019B1B6819
:103E80001846FFF7E0FC00BF03B05DF804FB00BF7D
:103E9000AC3F002000B587B0039002910192039BD4
:103EA0001B795B011E4A1344059300230493059B71
:103EB000DB7E002B03D008230493049B2BE0029BA2
:103EC0005A7F059B1A7702990398FFF7ABFE059B73
:103ED000019A5A60029B1A69059B1A60059B5B68F0
:103EE000002B05D0029B1B7F19460398FFF74AFF62
:103EF0000398FFF7B1FF059B0022DA75059B0022AE
:103F00001A76059B00229A75059B0122DA76059B9D
:103F100000229A76049B184607B05DF804FB00BFA8
:103F2000AC3F002000B585B0019000914FF48E7138
:103F30000198FFF72FFC009B9B68009A928A92B22F
:103F400013441B788DF80F30009B9B8A9BB2013382
:103F50009AB2009B9A829DF80F3019460198FFF79C
:103F6000A2FC00BF05B05DF804FB000000B585B001
:103F70000190019B1B795B01344A13440293002397
:103F80000393019B1B684FF48E711846FFF702FCE8
:103F9000019B1B6808211846FFF792FC019B1B68D8
:103FA00002991846FFF7BEFF029B5B68002B48D1C1
:103FB0001FE000BF019B1B684FF48E711846FFF78E
:103FC000FEFB034683F00103DBB2002B05D0029B0E
:103FD0009B8A9BB2B3F5807FECD1029B9B8A9BB2FC
:103FE000B3F5807F05D0019B1B6802991846FFF747
:103FF00099FF029B9B8A9AB2029B9B7D9BB29A423D
:10400000D7D3029B9B8A9BB2B3F5807F02D10F234B
:10401000039313E000BF019B1B684FF48E71184699
:10402000FFF7CDFB034683F00103DBB2002BF2D197
:10403000019B1B680C211846FFF742FC029B0022E3
:104040009A75039B184605B05DF804FBAC3F002051
:1040500000B587B00190019B1B795B012A4A13448C
:10406000049300230593019B1B684FF4907118463D
:10407000FFF753FC019B1B684FF4AC711846FFF728
:104080004CFC019B1868049B9968049B9B7D1A4615
:10409000FFF7FDFC019B1B6808211846FFF7CAFCCF
:1040A000049B5B68002B2AD1019B1B684FF4907125
:1040B0001846FFF747FC03468DF80F30019B1B683D
:1040C0004FF4AC711846FFF73DFC03468DF80E30F7
:1040D0009DF80F3083F00103DBB2002B06D09DF872
:1040E0000E3083F00103DBB2002BDDD19DF80E30E2
:1040F000002B01D00F230593049B00229A75059B8A
:10410000184607B05DF804FBAC3F002000B587B04F
:104110000390029113468DF80730039B1B795B01D6
:10412000214A13440493039B1B791F4A5B011344E8
:104130001C331B78002B0CD00298FFF7E7FC0346DA
:1041400083F00103DBB2002B03D010230593059B02
:1041500025E0039800F02AF80346002B03D0112332
:104160000593059B1BE0049B9DF807209A75049B13
:10417000029A9A60049B00229A82039B1B790A4A46
:104180005B0113441C331B78002B04D00398FFF70A
:104190005FFF034603E00398FFF7E8FE0346184677
:1041A00007B05DF804FB00BFAC3F002082B0019077
:1041B000019B1B79064A5B01134416331B78002BC5
:1041C00014BF01230023DBB2184602B0704700BFC2
:1041D000AC3F002000B583B00190019B1B684FF4F9
:1041E00092711846FFF7D6FA019B1B684FF4847151
:1041F0001846FFF7CFFA019B1B6800211846FFF70E
:104200005FFB00BF03B05DF804FB10B582B0019006
:104210000091009BDB7D002B08D14FF48471019845
:10422000FFF7B8FA0198FFF735FB16E04FF48471F9
:104230000198FFF7AFFA009BDB68009A527ED2B27A
:104240009C180198FFF726FB03462370009B5B7EBA
:10425000DBB20133DAB2009B5A7602B010BD000027
:1042600000B589B00390029111461A460B468DF8AD
:10427000073013468DF80630039B1B795B014D4ACE
:1042800013440793079B9B7E83F00103DBB2002B53
:1042900009D09DF8063083F00103DBB2002B02D079
:1042A0000398FFF797FF079B5B68002B73D1039B75
:1042B0001B684FF4A2711846FFF76CFA039B1B684A
:1042C0004FF492711846FFF77AFA03468DF81B30C7
:1042D000039B1B684FF484711846FFF770FA03467E
:1042E0008DF81A30039B1B684FF4A2711846FFF734
:1042F00066FA03468DF819309DF81A3083F00103F1
:10430000DBB2002B0DD09DF8193083F00103DBB236
:10431000002B06D09DF81B3083F00103DBB2002B8D
:10432000CCD19DF81B30002B10D19DF81930002BFB
:104330000CD1039B1B6807991846FFF766FF079B84
:10434000DA7D079B5B7EDBB29A42B7D8079B0022DF
:10435000DA759DF81B30002B03D003230593059BD2
:1043600023E09DF81930002B03D00F230593059B04
:104370001BE0079B9B7E002B06D0039B1B68002144
:104380001846FFF79DFA0DE0039B1B6804211846B1
:10439000FFF796FA06E0039B1B684FF4017118467D
:1043A000FFF71FFA00230593059B184609B05DF837
:1043B00004FB00BFAC3F002000B587B00390029122
:1043C00011461A460B468DF8073013468DF8063015
:1043D00000230593039B1B684FF488711846FFF771
:1043E0009CFA039B1B684FF4A2711846FFF795FADD
:1043F000039B1B689DF8072002991846FFF761FB95
:104400009DF8063083F00103DBB2002B06D0039B3E
:104410001B6800211846FFF70DFB05E0039B1B6896
:1044200020211846FFF7A0FA039B1B792D4A5B0158
:10443000134404331B68002B47D1039B1B684FF4C4
:1044400088711846FFF77EFA03468DF81330039BF8
:104450001B684FF4A2711846FFF774FA03468DF8F3
:104460001230039B1B684FF492711846FFF76AFAEB
:1044700003468DF811309DF8133083F00103DBB251
:10448000002B0DD09DF8123083F00103DBB2002B1E
:1044900006D09DF8113083F00103DBB2002BCCD1A4
:1044A000039B1B790F4A5B011344173300221A70D8
:1044B0009DF81130002B01D0032305939DF8123095
:1044C000002B09D00F23059306E0039B1B684FF4D4
:1044D00004711846FFF765FA059B184607B05DF8AA
:1044E00004FB00BFAC3F002000B589B003900291EF
:1044F00013468DF80730039B1B795B014F4A134429
:104500000793039B1B794D4A5B0113441C331B78B3
:10451000002B0CD00298FFF7F9FA034683F0010351
:10452000DBB2002B03D010230593059B81E0002311
:104530008DF81B30079B5B68002B17D0039B1B7902
:104540003E4A5B0113441C331B78002B07D0039BAE
:104550001B684FF404711846FFF72DFA06E0039B21
:104560001B684FF401711846FFF755F9079BDB7D77
:10457000002B26D0079B1B7E002B1FD0079B5B6860
:10458000002B17D0039B1B792C4A5B0113441C336F
:104590001B78002B07D0039B1B684FF4047118464F
:1045A000FFF7FFF906E0039B1B684FF40171184603
:1045B000FFF717F911230593059B3AE001238DF8C6
:1045C0001B309DF81B3083F00103DBB2002B0DD0B4
:1045D000079B9DF80720DA75079B029ADA60079B14
:1045E00000225A76079B00221A7606E0079B029A61
:1045F0001A61079B9DF807201A76039B1B790F4AC7
:104600005B0113441C331B78002B09D09DF81B3031
:104610009DF8072002990398FFF7CEFE034608E0B5
:104620009DF81B309DF8072002990398FFF718FEAC
:104630000346184609B05DF804FB00BFAC3F0020FC
:1046400000B583B00190019B1B79114A5B011344B3
:104650001C331B78002B16D1019B1B790C4A5B0184
:1046600013441A331B7883F00103DBB2002B0AD00A
:104670000198FFF7AFFD019B1B79054A5B011344CD
:104680001A3301221A7000BF03B05DF804FB00BFAB
:10469000AC3F002000B589B003900B4601928DF825
:1046A0000B3001238DF810309DF80B308DF8183049
:1046B000019B0593039B5B68039A116804AA10464B
:1046C000984700BF09B05DF804FB00B587B00190C2
:1046D0000B468DF8033000238DF808309DF8033029
:1046E0008DF81030019B9B680393019B00229A7503
:1046F000019B5B68019A116802AA1046984700BFA7
:1047000007B05DF804FB00B589B0019000914FF44B
:1047100000710198FFF76FF80346002B39D04FF472
:1047200092710198FFF74BF80346002B31D04FF4FC
:1047300092710198FFF72EF84FF401710198FFF77D
:104740006AF8009B9B7E83F00103DBB2002B03D051
:1047500004210198FFF7B4F802238DF8083001987E
:10476000FFF763F803460593009BDB7D8DF810305F
:10477000009BDB680393009B0022DA75009B0022FC
:104780001A76009B5B68009A116802AA1046984747
:1047900056E004210198FFF72EF80346002B4FD076
:1047A0004FF484710198FFF70AF80346002B47D0B5
:1047B00000990198FFF729FD009BDA7D009B5B7E45
:1047C000DBB29A423CD1009B1B7E002B1CD0009B8D
:1047D000DB680793009B5B7E8DF81B30009B1A7E85
:1047E000009BDA75009B1A69009BDA60009B00222F
:1047F0001A76009B00225A769DF81B30079A1946BC
:104800000098FFF747FF1BE0009B9B7E83F00103AE
:10481000DBB2002B03D004210198FFF751F84FF4CD
:1048200001710198FEF7F7FF009B0022DA75009BEB
:104830005B7ED9B2009BDB681A460098FFF72AFF1F
:104840004FF48E710198FEF7BAFF0346002B1BD080
:10485000009B9B8A9AB2009B9B7D9BB29A4204D29A
:1048600000990198FFF75EFB0EE04FF48E710198FE
:10487000FEF790FF009B9B7D002B05D0009B9B7D4E
:1048800019460098FFF721FF4FF4A2710198FEF737
:1048900096FF0346002B1CD04FF4A2710198FEF73F
:1048A00079FF009B9B7E002B03D000210198FFF72E
:1048B00007F8009BDB7D002B0BD0009B0022DA75F4
:1048C000009B5B7ED9B2009BDB681A460098FFF71D
:1048D000E1FE00BF09B05DF804FB00B589B00190AE
:1048E00000914FF492710198FFF72CF80346002BCA
:1048F00024D04FF492710198FFF70FF802238DF83E
:1049000008300198FFF761F8034605930198FFF717
:10491000EAF80346DBB28DF81030009BDB680393A6
:10492000009B0022DA75009B00221A76009B5B68D0
:10493000009A116802AA1046984741E04FF4887126
:104940000198FEF7FFFF0346002B39D04FF4887122
:104950000198FEF7E2FF0198FFF7C5F803468DF8CE
:104960001F30009BDB7D9DF81F209A4228D1009BC1
:104970001B7E002B19D0009BDB6806932021019839
:10498000FFF700F8009B1A7E009BDA75009B1A69FE
:10499000009BDA60009B00221A769DF81F30069A71
:1049A00019460098FFF776FE0AE0009B0022DA75B0
:1049B000009BDA689DF81F3019460098FFF76AFEE1
:1049C0004FF4A2710198FEF7BDFF0346002B16D0ED
:1049D0004FF4A2710198FEF7A0FF009BDB7D002B36
:1049E0000DD0009B0022DA750198FFF77CF8034692
:1049F000D9B2009BDB681A460098FFF74BFE4FF4D4
:104A000090710198FEF79EFF0346002B11D04FF4E2
:104A100090710198FEF781FF009B9B7D002B08D0D1
:104A20000198FFF746F80346DBB219460098FFF7F6
:104A30004CFE00BF09B05DF804FB000008B5074B51
:104A40001B7F002B04D005490548FFF746FF03E014
:104A500002490348FFF757FE00BF08BDAC3F0020E6
:104A60000020004000B589B0039002910192029BA2
:104A70009BB2ADF81430019B0693039B079305ABE3
:104A80001A46002144F2010000F050F800BF09B0BE
:104A90005DF804FB86B003900291019201238DF82A
:104AA00017309DF81730204A039B13601E4A029B63
:104AB00053601D4A019B9360039B44F201029342A1
:104AC00013D0039B44F20202934222D1019B164A67
