:020000021000EC
:10F000000000012033F10100D9F00100DBF0010024
:10F01000DDF00100DFF00100E1F001000000000080
:10F02000000000000000000000000000E3F001000C
:10F03000E5F0010000000000E7F00100E9F0010048
:10F04000A9280200EDF001004D420200F1F001009C
:10F05000F3F00100F5F00100C52C0200F9F0010009
:10F06000FBF00100FDF00100FFF0010001F10100E3
:10F0700003F1010005F1010007F1010009F10100B0
:10F080000BF10100294F02000FF1010011F1010005
:10F09000694F020015F101000964020019F1010035
:10F0A0001BF101001DF101001FF1010021F1010020
:10F0B00023F1010025F10100000000000000000024
:10F0C00027F1010029F101002BF101002DF10100D0
:08F0D0002FF1010031F10100F4
:10F0D800FEE7FEE7FEE7FEE7FEE7FEE7FEE7FEE700
:10F0E800FEE7FEE7FEE7FEE7FEE7FEE7FEE7FEE7F0
:10F0F800FEE7FEE7FEE7FEE7FEE7FEE7FEE7FEE7E0
:10F10800FEE7FEE7FEE7FEE7FEE7FEE7FEE7FEE7CF
:10F11800FEE7FEE7FEE7FEE7FEE7FEE7FEE7FEE7BF
:10F12800FEE7FEE7FEE7FEE7FEE70348854600F058
:10F13800CBF800F003B87047000001203749384881
:10F148000A1A02D0072291438D46364936480A1AD0
:10F1580006D00722914381F30988022282F314889A
:10F1680032483349334A00F048F833483349344A7F
:10F1780000F043F833483449344A00F03EF8344844
:10F188003449354A00F039F834483549354A00F0F1
:10F1980034F835483549364A00F02FF835483649AD
:10F1A800364A00F02AF836483649374A00F025F83A
:10F1B80036483749002200F02BF8364836490022F5
:10F1C80000F026F835483649091A082903DB0022D9
:10F1D8000260043001601F481F49884205D0026858
:10F1E800043003B4904703BCF7E700208646EC469A
:10F1F800002000212B4A9047FEE7884207D0521A88
:10F2080005D0037801300B700131013AF9D170470C
:10F21800884202D002700130FAE7704700000120EE
:10F2280000FC00200000012000000120087C0200F2
:10F23800F825002024260020B0F20100B0F20100D9
:10F24800B46F0200087C0200F8250020F825002091
:10F25800B46F0200B46F0200B46F0200B46F020012
:10F26800B46F0200B46F0200B46F0200B46F020002
:10F27800087C0200347C020024260020242600207A
:10F28800347C020024260020242600202426002086
:10F2980044400020444000204440002044400020D6
:08F2A800444400207902020039
:10F2B000704770477047704707F0B1BA024B034A76
:10F2C0001A6000BF704700BFF82500200090D003EF
:10F2D00008B500F00DF90346002B06D0744B1B68EF
:10F2E0001B0A744A03F01F03136000F02DF9034654
:10F2F000002B02D0704B714A1A6000F041F90346AE
:10F30000002B06D06E4B1B685B0B6E4A03F00703A5
:10F31000136000F061F90346002B05D06A4BDB68EF
:10F32000694A23F08073D36000F072F90346002B22
:10F330000ED04FF080430022C3F80C214FF08043E1
:10F340000022C3F810214FF080430022C3F8382573
:10F3500000F08AF90346002B02D05C4B03221A60AE
:10F3600000F09EF90346002B0BD0594B05221A6082
:10F37000584B01221A60584B00221A60574B3F220B
:10F380001A6000F0A9F90346002B76D04FF08053A5
:10F39000534AD3F80434C2F820354FF08053504A12
:10F3A000D3F80834C2F824354FF080534C4AD3F8D0
:10F3B0000C34C2F828354FF08053494AD3F8103442
:10F3C000C2F82C354FF08053454AD3F81434C2F8B4
:10F3D00030354FF08053424AD3F81834C2F83435F0
:10F3E0004FF080533E4AD3F81C34C2F840354FF0FA
:10F3F00080533B4AD3F82034C2F844354FF0805351
:10F40000374AD3F82434C2F848354FF08053344A91
:10F41000D3F82834C2F84C354FF08053304AD3F833
:10F420002C34C2F850354FF080532D4AD3F8303485
:10F43000C2F854354FF08053294AD3F83434C2F817
:10F4400060354FF08053264AD3F83834C2F864351B
:10F450004FF08053224AD3F83C34C2F868354FF05D
:10F4600080531F4AD3F84034C2F86C354FF08053B4
:10F470001B4AD3F84434C2F8703500F049F903460A
:10F48000002B05D0174B1B68174A03F04F0313607E
:10F49000164BD3F88830154A43F47003C2F888300D
:10F4A000BFF34F8FBFF36F8FFFF708FF00BF08BD9B
:10F4B000240300104035014074C007400DF0ADBA80
:10F4C000440200103C050040F0ED00E0A0050040C3
:10F4D0001056004088560040185600401456004010
:10F4E00000C0004058020010E40E004000ED00E0B3
:10F4F000124B1B68DBB2062B1DD1114B1B6803F0AE
:10F500000F03002B17D10F4B1B6803F0F003302BB8
:10F5100001D1012310E00B4B1B6803F0F003402BDB
:10F5200001D1012308E0074B1B6803F0F003502BC7
:10F5300001D1012300E0002318467047E00F00F0DE
:10F54000E40F00F0E80F00F00A4B1B68DBB2062B5B
:10F550000DD1094B1B6803F00F03002B07D1074B9C
:10F560001B6803F0F003302B01D1012300E00023DE
:10F5700018467047E00F00F0E40F00F0E80F00F0CD
:10F58000124B1B68DBB2062B1DD1114B1B6803F01D
:10F590000F03002B17D10F4B1B6803F0F003302B28
:10F5A00001D1012310E00B4B1B6803F0F003402B4B
:10F5B00001D1012308E0074B1B6803F0F003502B37
:10F5C00001D1012300E0002318467047E00F00F04E
:10F5D000E40F00F0E80F00F00A4B1B68DBB2062BCB
:10F5E0000DD1094B1B6803F00F03002B07D1074B0C
:10F5F0001B6803F0F003302B01D1012300E000234E
:10F6000018467047E00F00F0E40F00F0E80F00F03C
:10F61000124B1B68DBB2062B1DD1114B1B6803F08C
:10F620000F03002B17D10F4B1B6803F0F003302B97
:10F6300001D1012310E00B4B1B6803F0F003402BBA
:10F6400001D1012308E0074B1B6803F0F003502BA6
:10F6500001D1012300E0002318467047E00F00F0BD
:10F66000E40F00F0E80F00F00A4B1B68DBB2062B3A
:10F670000DD1094B1B6803F00F03002B07D1074B7B
:10F680001B6803F0F003302B01D1012300E00023BD
:10F6900018467047E00F00F0E40F00F0E80F00F0AC
:10F6A0000A4B1B68DBB2062B0DD1094B1B6803F01C
:10F6B0000F03002B07D1074B1B6803F0F003302B1F
:10F6C00001D1012300E0002318467047E00F00F04D
:10F6D000E40F00F0E80F00F00A4B1B68DBB2062BCA
:10F6E0000DD1094B1B6803F00F03002B07D1074B0B
:10F6F0001B6803F0F003502B01D1012300E000232D
:10F7000018467047E00F00F0E40F00F0E80F00F03B
:10F71000124B1B68DBB2062B1DD1114B1B6803F08B
:10F720000F03002B17D10F4B1B6803F0F003302B96
:10F7300001D1012310E00B4B1B6803F0F003402BB9
:10F7400001D1012308E0074B1B6803F0F003502BA5
:10F7500001D1012300E0002318467047E00F00F0BC
:10F76000E40F00F0E80F00F076DF704700BF1846A6
:10F770007ADF704700BF18467CDF704700BF18462D
:10F780007FDF704700BF18468FDF704700BF184605
:10F79000A8DF704700BF1846A9DF704700BF1846B2
:10F7A00069DF704700BF184666DF704700BF184624
:10F7B0003EDF704700BF184600B587B09DF80030A7
:10F7C000012262F303038DF800309DF8003001221E
:10F7D00062F307138DF800301D4806F0F0FF034672
:10F7E0009AB26B461A491846FFF7C6FF0590059B6B
:10F7F0000493049B002B04D0164A8921049804F03A
:10F8000039FD01AB08220021184606F083FF1023C2
:10F81000ADF804303C23ADF806300023ADF80830D5
:10F820004FF4C873ADF80A3001AB1846FFF7A0FFDC
:10F830000590059B0393039B002B04D0054A93215D
:10F84000039804F017FD00BF07B05DF804FB00BF8C
:10F85000B46F0200C06F020000B589B0039002913E
:10F860001346ADF806302E49032006F0C3F9BDF863
:10F870000630029A2B49042006F012FA4FF4805207
:10F880000021294806F046FFBDF806301A460299C5
:10F89000254806F016FF244B1A462449032006F09B
:10F8A000BAF90023079322E0029A079B13441B78BE
:10F8B000184605F065FD0690069B002B11D0069BAF
:10F8C000112B0ED0069A1A49012006F0A4F9069BC6
:10F8D0000593059B002B04D0164AB421059804F02B
:10F8E000C9FC069B112BDFD0079B01330793BDF8A2
:10F8F0000630079A9A42D7D3BDF80630013B029AE8
:10F9000013441B780D2B06D100BF0A2005F038FDEB
:10F910000346112BF9D000BF09B05DF804FB00BF0E
:10F9200018700200587002005C2600206870020007
:10F9300098700200C06F020000B585B001AB0422D0
:10F940000021184606F0E6FE0C4B019301AB194668
:10F950000B4802F043FE0390039B0293029B002B93
:10F9600004D0084ACD21029804F084FC0649032003
:10F9700006F040F900BF05B05DF804FB59F801003E
:10F9800024260020C06F0200D070020000B585B0B0
:10F990000190019B1B78002B10D10A4B1B883B2147
:10F9A0001846FFF7E1FE0390039B0293029B002B96
:10F9B00004D0054AE421029804F05CFC00BF05B0C5
:10F9C0005DF804FBFC250020C06F020000B583B089
:10F9D0000190044AEF21019804F04CFC00BF03B0F1
:10F9E0005DF804FBC06F020000B58BB001AB1C22B8
:10F9F0000021184606F08EFE002301934FF42033B9
:10FA000002934FF47023039303238DF810300023E7
:10FA1000ADF8123000238DF814300C4B06930C4BCC
:10FA2000079301AB184601F067FF0990099B089303
:10FA3000089B002B05D0074A4FF48371089804F007
:10FA400019FC00BF0BB05DF804FB00BF8DF901008D
:10FA5000CDF90100C06F020082B003468DF8073077
:10FA60009DF80730002B01D0032B00E000BF00BF42
:10FA700002B0704710B594B00190019B1B88013B08
:10FA8000552B00F27A8101A252F823F0DFFC01002D
:10FA90007BFD01007BFD01007BFD01007BFD010082
:10FAA0007BFD01007BFD01007BFD01007BFD010072
:10FAB0007BFD01007BFD01007BFD01007BFD010062
:10FAC0007BFD01007BFD0100E5FB0100F7FB010070
:10FAD0007BFD010009FC01007BFD01007BFD0100B5
:10FAE0007BFD01007BFD01007BFD01007BFD010032
:10FAF0007BFD01007BFD01007BFD01007BFD010022
:10FB00007BFD01007BFD01007BFD010033FC01005A
:10FB10007BFD01007BFD01007BFD01007BFD010001
:10FB20007BFD01007BFD01007BFD01007BFD0100F1
:10FB30007BFD01007BFD01007BFD01007BFD0100E1
:10FB40007BFD01007BFD01007BFD01007BFD0100D1
:10FB50007BFD01007BFD01007BFD01007BFD0100C1
:10FB60007BFD01007BFD01007BFD01007BFD0100B1
:10FB70007BFD010093FC01007BFD01007BFD01008A
:10FB80007BFD01007BFD01007BFD01007BFD010091
:10FB90007BFD01007BFD01007BFD01007BFD010081
:10FBA0007BFD01007BFD01007BFD01007BFD010071
:10FBB0007BFD01007BFD01007BFD01007BFD010061
:10FBC0007BFD01007BFD01007BFD010005FD0100C7
:10FBD00069FC01007BFD01007BFD01007BFD010054
:10FBE000B9FC0100019B9A886D4B1A806D49032076
:10FBF00006F000F8D0E06A4B4FF6FF721A806A49AF
:10FC0000032005F0F7FFC7E0654B188800230022AA
:10FC10008521FFF7B5FD1390139B1293129B002BC8
:10FC200000F0AD80614A40F25311129804F022FBBB
:10FC3000A5E00AAB08220021184606F06BFD019BE7
:10FC40009B880AA900221846FFF79EFD1390139B7C
:10FC50001193119B002B00F09480544A40F25D11E7
:10FC6000119804F007FB8CE04D4B1888002300220C
:10FC70000021FFF791FD1390139B1093109B002B15
:10FC800000F08180494A40F26311109804F0F2FAC2
:10FC900079E0019B9B8813211846FFF765FD1390BF
:10FCA000139B0F930F9B002B6FD0404A4FF4B571FD
:10FCB0000F9804F0DFFA68E0019B9B881321184637
:10FCC000FFF752FD1390139B0E930E9B002B5ED0FB
:10FCD000364A40F271110E9804F0CCFA57E0019BBD
:10FCE0009B8800211846FFF75FFD1390139B0D932F
:10FCF0000D9B002B4DD02D4A4FF4BB710D9804F095
:10FD0000B9FA46E0019B06AC0633186859689A6850
:10FD1000DB680FC49DF81830002B3CD09DF82030D4
:10FD2000042B07D09DF82030062B03D09DF82030FF
:10FD3000052B30D19DF81830022B03D102238DF80A
:10FD4000083002E001238DF808304FF4C173ADF89C
:10FD50000C30019B9B8802AA11461846FFF718FD3C
:10FD60001390139B0C930C9B002B14D00F4A40F262
:10FD700091110C9804F07EFA0DE000BF0CE000BF7A
:10FD80000AE000BF08E000BF06E000BF04E000BFDB
:10FD900002E000BF00E000BF00BF14B010BD00BF14
:10FDA000FC2500200071020018710200C06F0200E3
:10FDB00000B583B00190019801F0D0FE01990A4886
:10FDC00002F0D4F90199094802F0D6FB0198FFF737
:10FDD00051FE019801F0F4FC019800F045FB00BFD2
:10FDE00003B05DF804FB00BF40260020242600205D
:10FDF00000B58FB0554B1B68049304A80023D8228C
:10FE0000534906F099FA0D900D9B0C930C9B002B17
:10FE100005D0504A4FF4DE710C9804F02BFA002301
:10FE2000039303AB184606F027FB0B900B9B0A933A
:10FE30000A9B002B05D0474A40F2C1110A9804F0F2
:10FE400019FA6B460C220021184606F063FC0123C8
:10FE50008DF8003000238DF8013000238DF802303A
:10FE6000039A6B4619464020FFF79AFC0B900B9BB8
:10FE70000993099B002B05D0364A4FF4E671099887
:10FE800004F0F8F96B460C220021184606F042FCFB
:10FE900001238DF800309E23ADF80230039A6B46A3
:10FEA00019462320FFF77CFC0B900B9B0893089BC3
:10FEB000002B05D0274A40F2D311089804F0DAF954
:10FEC0006B460C220021184606F024FC01238DF815
:10FED00000304FF4A073ADF8043001238DF80230E8
:10FEE000039A6B4619462020FFF75AFC0B900B9B98
:10FEF0000793079B002B05D0164A40F2DB110798A9
:10FF000004F0B8F903AB184606F0C6FA0B900B9B49
:10FF10000693069B002B05D00E4A40F2DF1106988F
:10FF200004F0A8F90C4806F05FFA0B900B9B0593C0
:10FF3000059B002B05D0074A40F2E311059804F019
:10FF400099F900BF0FB05DF804FB00BF30710200EB
:10FF50005C360020C06F0200B1FD010000B583B027
:10FF600001900091009B5A88124B1B889A4214D131
:10FF7000009B1B8840F6772293420ED1009B9B8802
:10FF8000033B9AB20C4B1A800B4B1B881A460A4B48
:10FF90001B880A49032005F052FE019B5B881A4624
:10FFA000019B1B880649042005F049FE00BF03B0F1
:10FFB0005DF804FBFC2500200426002034710200BB
:10FFC0005C71020000B585B01149124802F086F854
:10FFD0000390039B0293029B002B05D00E4A40F234
:10FFE000F911029804F046F940210A4802F0A1F8FC
:10FFF0000390039B0193019B002B05D0064A4FF40D
:020000022000DC
:10000000FE71019804F036F900BF05B05DF804FBFD
:100010005DFF010040260020C06F020000B585B0E2
:100020000190019B1B78012B55D0022B4AD0002B4D
:100030005AD1314B1B781A46304B1344184605F001
:100040006DF92D4B1B780133DAB22B4B1A702A4B0A
:100050001B78013B294AD35C0A2B06D0264B1B7820
:100060009AB2274B1B889A4240D32649032005F0B9
:10007000C1FD214B1B789BB2204A2349042005F087
:100080000FFE1D4B1B789BB21A461C491F4802F0FD
:10009000FDFA0390039B082B0DD0039B112B0AD074
:1000A000039B0293029B002B05D0194A40F2432187
:1000B000029804F0DFF8039B112BE2D00E4B0022D4
:1000C0001A7013E0019B5B68114A4FF413711846D4
:1000D00004F0D0F80BE0019B5B680D4A4FF41471FB
:1000E000184604F0C7F802E000BF00E000BF00BF00
:1000F00005B05DF804FB00BF34370020383700201E
:1001000004260020A471020058700200242600205A
:10011000C06F020030B58DB0134B04AC1D460FCD3F
:100120000FC495E8030084E80300104B00934FF4DC
:10013000807301930E4B02934FF4807303936946CF
:1001400004A807230B4A05F055F80B900B9B0A9364
:100150000A9B002B05D0084A40F271210A9804F04E
:1001600089F800BF0DB030BDD0710200D437002037
:10017000D43800201D000200C06F020000B5ABB0F3
:1001800019AB3C220021184606F0C4FA02238DF870
:10019000643000238DF8663005238DF867300AAB94
:1001A0003C220021184606F0B5FA0123ADF838309C
:1001B000144B0F9302AB20220021184606F0AAFA36
:1001C00001238DF80B3040230693B423079302AA32
:1001D0000AA919A8002300930B4B01F003F92990F9
:1001E000299B2893289B002B05D0084A40F28F2199
:1001F000289804F03FF8012001F0E6F800BF2BB08A
:100200005DF804FB0026002059FA0100C06F0200CF
:1002100082B0019000BF02B07047000000B583B00B
:10022000002005F097FC0190019B0093009B002BA0
:1002300005D0054A4FF42B71009804F01BF800BF5D
:1002400003B05DF804FB00BFC06F020000B583B0CF
:10025000FFF7AEFA0190019B0093009B002B05D0A5
:10026000044A40F2B521009804F004F800BF03B03E
:100270005DF804FBC06F020000B585B004F07AFEA3
:100280000390039B0293029B002B05D0194A40F276
:10029000C221029803F0EEFFFFF73CFFFFF7BEFF1D
:1002A0000DF103031846FFF7B3FFFFF7A1FDFFF7BA
:1002B00083FAFFF787FEFFF73FFBFFF75FFFFFF7CC
:1002C00093FB0D4806F0B8F90C49032005F092FCA9
:1002D000032001F08BF90390039B0193019B002BFA
:1002E00005D0044A40F2D221019803F0C3FFFFF782
:1002F000ADFFFCE7C06F0200E8710200F871020078
:1003000084B001900B468DF8033013468DF802300F
:1003100000230393019B002B3CD19DF80230012B5D
:100320000BD19DF80330012B04D1019BDBB20E33BE
:10033000DBB200E000238DF802309DF80330012B82
:1003400004D0022B0CD0002B15D01FE01449019AC9
:1003500013465B0013440B449DF802201A701BE007
:100360000F49019A13465B0013440B4401339DF877
:1003700002201A7010E00A49019A13465B001344E8
:100380000B4402339DF802201A7005E00723039303
:1003900000BF01E007230393039B184604B0704796
:1003A000D439002000B583B0012200210020FFF7DE
:1003B000A7FF0190019B002B04D0019B072B01D0CC
:1003C000019B1CE0072202210120FFF799FF019009
:1003D000019B002B04D0019B072B01D0019B0EE059
:1003E000042202210020FFF78BFF0190019B002BCC
:1003F00004D0019B072B01D0019B00E0002318468D
:1004000003B05DF804FB00B583B001220221002097
:10041000FFF776FF0190019B002B04D0019B072B77
:1004200001D0019B1CE0072202210120FFF768FF99
:100430000190019B002B04D0019B072B01D0019B55
:100440000EE00A2200210020FFF75AFF0190019BD5
:10045000002B04D0019B072B01D0019B00E000235F
:10046000184603B05DF804FB00B585B00190019B10
:100470001B88102B02D0112B18D02FE0194B1B68B2
:10048000002B0DD1FFF78EFF0390039B002B07D0AD
:10049000154B1B68002B03D0134B1B680398984720
:1004A000104B1B6801330F4A136017E00D4B1B689C
:1004B000013B0C4A13600B4B1B68002B0DD1FFF75F
:1004C000A2FF0390039B002B07D0074B1B68002B58
:1004D00003D0054B1B680398984700BF00BF05B0C9
:1004E0005DF804FBDC390020D83900206DDF70474F
:1004F00000BF184672DF704700BF184679DF7047AB
:1005000000BF18467DDF704700BF184664DF7047A4
:1005100000BF184682B003460091ADF80630BDF822
:100520000630DAB2009B1A70BDF806301B0A9AB288
:10053000009B0133D2B21A700223184602B07047F2
:1005400000B589B0039002911346ADF80630029BC6
:100550001B8803F10902BDF806309A4201D90C2329
:1005600051E005AB1846FFF7C1FF0790079B002B32
:1005700001D0079B47E0029B1B881A46039B13444C
:1005800008221A70029B1B8801339AB2029B1A80C0
:10059000029B1B881A46039B13441B221A70029B62
:1005A0001B8801339AB2029B1A80029B1B881A4651
:1005B000039B981805AB01330622194606F081F813
:1005C000029B1B8806339AB2029B1A809DF8143056
:1005D00023F00103DBB2002B07D1029B1B881A46D4
:1005E000039B134400221A7006E0029B1B881A46E4
:1005F000039B134401221A70029B1B8801339AB299
:10060000029B1A800023184609B05DF804FB00B570
:1006100089B0039002910192ADF80230039B1B78E0
:10062000012B05D1039B5B78002B01D1072389E0C7
:10063000019B1B889A1CBDF802309A420ED8039B7E
:100640001B78012B0CD1019B1B881A46039B5B78FE
:1006500013449A1CBDF802309A4201D90C2371E070
:10066000019B1B88BDF80220D31A9BB2023BADF858
:100670001C30BDF81C30ADF81630019B1B880233CE
:10068000029A13440DF1160211461846FFF73AFF7D
:100690000690069B002B01D0069B53E0039B1B7822
:1006A000022B09D1BDF81630BDF81C209A4203D3A5
:1006B00009238DF81F3017E008238DF81F30039BA6
:1006C0001B78012B0CD1039B5B789BB2BDF81C20DF
:1006D0009A4205D3039B5B789BB2ADF8163003E0DA
:1006E000BDF81C30ADF81630BDF81630FE2B01D920
:1006F0000C2327E0BDF81630DAB2019B1B8819469F
:10070000029B0B440132D2B21A70019B1B88013349
:100710009AB2019B1A80019B1B881A46029B1344C4
:100720009DF81F201A70019B1B8801339AB2019B10
:100730001A80019B1A88BDF8163013449AB2019BA7
:100740001A800023184609B05DF804FB00B587B095
:10075000039002911346ADF80630029B1B881A1DC8
:10076000BDF806309A4201D90C2339E00DF112038D
:100770001846FFF7C3FE0590059B002B01D0059B93
:100780002EE0029B1B881A46039B134403221A7017
:10079000029B1B8801339AB2029B1A80029B1B8822
:1007A0001A46039B134419221A70029B1B880133BB
:1007B0009AB2029B1A80BDF81220029B1B88194630
:1007C000039B0B4419461046FFF7A4FE0346194647
:1007D000029B1A888BB213449AB2029B1A800023A0
:1007E000184607B05DF804FB84B0029101921A46E6
:1007F00003468DF80F301346ADF80C30019B1B8873
:10080000DA1CBDF80C309A4201D90C2328E0019B78
:100810001B881A46029B134402221A70019B1B88F4
:1008200001339AB2019B1A80019B1B881A46029BD6
:10083000134401221A70019B1B8801339AB2019B59
:100840001A80019B1B881A46029B13449DF80F20B7
:100850001A70019B1B8801339AB2019B1A800023F6
:10086000184604B0704784B0029101921A460346BC
:100870008DF80F301346ADF80C30019B1B88DA1C45
:10088000BDF80C309A4201D90C2328E0019B1B884B
:100890001A46029B134402221A70019B1B880133E3
:1008A0009AB2019B1A80019B1B881A46029B134433
:1008B0000A221A70019B1B8801339AB2019B1A808D
:1008C000019B1B881A46029B13449DF80F201A7047
:1008D000019B1B8801339AB2019B1A8000231846A2
:1008E00004B0704700B58BB0039001930B468DF8B0
:1008F0000B3013468DF80A3000238DF823300C9B03
:100900001B88ADF82030002309936DE0039B5A68E3
:10091000099B9B001A4404AB106818600DF1170185
:1009200004AB00221846FFF7F1FD0790079B002B50
:1009300001D0079B7AE09DF817309DF80A209A4273
:100940004FD19DF82330002B01D0002300E002237B
:100950008DF81B300C9B1B881A469DF817301A44E3
:100960009DF81B301A44BDF834309A4201DD0C2347
:100970005CE09DF8233083F00103DBB2002B16D03E
:100980000C9B1B8801339AB20C9B1A800C9B1B8812
:100990001A46019B13449DF80B201A700C9B1B8870
:1009A00001339AB20C9B1A8001238DF823300C9BE3
:1009B0001B881A46019B1A440DF1170104AB184617
:1009C000FFF7A4FD0790079B002B01D0079B2DE0AC
:1009D0000C9B1A889DF817309BB213449AB20C9B5B
:1009E0001A80099B01330993039B1B881A46099BB4
:1009F00093428BDB9DF82330002B16D00C9B1A887A
:100A0000BDF82030D31A9BB2013BADF81830BDF8C9
:100A10001830FF2B01D90C2308E0BDF82030019AD3
:100A20001344BDF81820D2B21A70002318460BB038
:100A30005DF804FB00B589B0059003930B468DF873
:100A4000133013468DF812309DF81310BDF82C307A
:100A500001930A9B0093039B02220598FFF742FF34
:100A60000790079B002B01D0079B12E09DF8121006
:100A7000BDF82C3001930A9B0093039B102205982C
:100A8000FFF730FF0790079B002B01D0079B00E08A
:100A90000023184609B05DF804FB82B00190019B69
:100AA0001B88052B0AD9019B1B88B3F5486F07D912
:100AB000019B1B884FF6FF72934201D0072325E06C
:100AC000019B5B88052B0AD9019B5B88B3F5486FB6
:100AD00007D9019B5B884FF6FF72934201D0072331
:100AE00014E0019B1B884FF6FF7293420DD0019BCF
:100AF0005B884FF6FF72934207D0019B1A88019BD7
:100B00005B889A4201D9072300E00023184602B00F
:100B1000704700B587B0039002910192ADF80230A2
:100B2000019B1B889A1DBDF802309A4201D90C2303
:100B30004BE00398FFF7B1FF0590059B002B01D018
:100B4000059B42E0019B1B881A46029B1344052229
:100B50001A70019B1B8801339AB2019B1A80019B7A
:100B60001B881A46029B134412221A70019B1B8891
:100B700001339AB2019B1A80039B1A88019B1B8840
:100B80001946029B0B4419461046FFF7C3FC034667
:100B90001946019B1A888BB213449AB2019B1A80A2
:100BA000039B5A88019B1B881946029B0B441946DC
:100BB0001046FFF7AFFC03461946019B1A888BB21B
:100BC00013449AB2019B1A800023184607B05DF8BF
:100BD00004FB00B587B0039002910192ADF802309A
:100BE000039B9B8802330593019B1B881A46059B38
:100BF00013449A1CBDF802309A4201D90C2354E0E8
:100C0000059BFE2B01D90C234FE0059BDAB2019B1B
:100C10001B881946029B0B440132D2B21A70019B09
:100C20001B8801339AB2019B1A80019B1B881A46CC
:100C3000029B1344FF221A70019B1B8801339AB256
:100C4000019B1A80039B1A88019B1B881946029BF3
:100C50000B4419461046FFF75DFC03461946019BFD
:100C60001A888BB213449AB2019B1A80039B9B880B
:100C7000002B19D0039B9B68002B01D1072314E0A4
:100C8000019B1B881A46029B9818039B9968039B3B
:100C90009B881A4605F015FD019B1A88039B9B88CB
:100CA00013449AB2019B1A800023184607B05DF8DE
:100CB00004FB00B589B0039002910192ADF80230B7
:100CC000039B9B6A002B01D1072372E000238DF860
:100CD0001F3066E0039B996A9DF81F2013465B0056
:100CE00013449B000B440693069B9B880233059399
:100CF000059BFE2B01D90C235BE0059BDAB2019B1F
:100D00001B881946029B0B440132D2B21A70019B18
:100D10001B8801339AB2019B1A80019B1B881A46DB
:100D2000029B134416221A70019B1B8801339AB24E
:100D3000019B1A80069B1A88019B1B881946029BFF
:100D40000B4419461046FFF7E5FB03461946019B85
:100D50001A888BB213449AB2019B1A80069B9B8817
:100D6000002B19D0069B9B68002B01D1072320E0A4
:100D7000019B1B881A46029B9818069B9968069B44
:100D80009B881A4605F09DFC019B1A88069B9B8850
:100D900013449AB2019B1A809DF81F3001338DF8DD
:100DA0001F30039B93F82C309DF81F209A4291D35B
:100DB0000023184609B05DF804FB00B589B0059022
:100DC0000491039200230793039B1B88ADF81A300C
:100DD000039B00221A80059B93F82D30002B0CD02A
:100DE000BDF81A301A4603990498FFF7A9FB07903B
:100DF000079B002B01D0079BC4E0059B9B78002B31
:100E00000CD0BDF81A301A4603990498FFF79EFCDF
:100E10000790079B002B01D0079BB3E0059BDB7875
:100E2000002B0ED0059BDB7858B2BDF81A30039A20
:100E30000499FFF7D9FC0790079B002B01D0079B73
:100E4000A0E0059B5B68002B0FD0059B5B6893F9C6
:100E50000000BDF81A30039A0499FFF704FD0790CB
:100E6000079B002B01D0079B8CE0059B1B89002B67
:100E700012D0059B03F10800BDF81A300193039BC3
:100E80000093049B06220221FFF7D4FD0790079BE5
:100E9000002B01D0079B75E0059B1B8A002B12D00D
:100EA000059B03F11000BDF81A300193039B0093DA
:100EB000049B07220321FFF7BDFD0790079B002B32
:100EC00001D0079B5EE0059B1B8B002B12D0059B7E
:100ED00003F11800BDF81A300193039B0093049BA3
:100EE00015221421FFF7A6FD0790079B002B01D0C8
:100EF000079B47E0059B1B6A002B0DD0059B186ADA
:100F0000BDF81A30039A0499FFF703FE0790079B78
:100F1000002B01D0079B35E0059B5B6A002B0DD0B1
:100F2000059B586ABDF81A30039A0499FFF751FEE1
:100F30000790079B002B01D0079B23E0059B93F8AC
:100F40002C30002B0CD0BDF81A30039A0499059868
:100F5000FFF7AFFE0790079B002B01D0079B11E026
:100F6000059B1B78002B0CD0BDF81A30039A04990E
:100F70000598FFF74CFB0790079B002B01D0079BC0
:100F800000E0079B184609B05DF804FB82B00190B1
:100F9000019BDB7803F00403002B01D1072300E061
:100FA0000023184602B0704782B00190019BDB78A5
:100FB000002B01D0072300E00023184602B0704741
:100FC00000B597B0019000911F23ADF84A301F2360
:100FD000ADF84830019B002B18D00198FFF7D6FFE1
:100FE0001390139B002B01D0139B3FE00DF14A029D
:100FF0000AAB19460198FFF7E0FE1390139B002BF4
:1010000001D0139B32E00AAB159304E00023159343
:101010000023ADF84A30009B002B17D00098FFF753
:10102000C3FF1390139B002B01D0139B1EE012AA49
:1010300002AB19460098FFF7C0FE1390139B002BDC
:1010400001D0139B12E002AB149304E0002314932D
:101050000023ADF84830BDF84A30D9B2BDF8483069
:10106000DBB2149A1598FFF745FA0346184617B0F5
:101070005DF804FB73DF704700BF1846014B1B7817
:1010800018467047B63A002084B0019000230393BD
:101090000AE0019A039B13441B78002B01D0012323
:1010A00006E0039B01330393039B052BF1D9002337
:1010B000184604B07047000082B003468DF8073030
:1010C0009DF807305A1C074B83FB02135910D317A6
:1010D000C91A0B469B000B44D11ACBB2184602B07A
:1010E000704700BF6766666682B00190019BDB7B3C
:1010F000012B03D1019B9A88024B1A8000BF02B0DA
:10110000704700BFA83A002000B585B001900E4B93
:1011100000221A70019B9A880C4B1B889A420ED1B0
:10112000012000F063FA0390039B002B07D0084BCB
:101130001B68002B03D0064B1B680398984700BF21
:1011400005B05DF804FB00BFB43A0020A83A0020C7
:10115000B03A002000B585B00190019B1B7A002BAE
:1011600015D10D4B1B781846FFF7A6FF034618460E
:1011700000F03CFA0390039B002B09D0074B1B683F
:10118000002B05D0054B1B680398984700E000BF73
:1011900005B05DF804FB00BFE3390020B03A002041
:1011A00000B583B001AB184604F0A4F9019B002BF5
:1011B00014BF01230023DBB2184603B05DF804FB23
:1011C00000B585B003468DF807301E48FFF75CFF79
:1011D00003468DF80F309DF80730013B032B2BD8C9
:1011E00001A252F823F000BFF91102000D12020013
:1011F000211202002D120200134B5B78002B05D048
:101200009DF80F30002B01D0012316E00E4B9B7888
:10121000002B05D09DF80F30002B01D002230CE0ED
:10122000094BDB78002B01D0032306E0064B1B792A
:10123000002B01D0042300E00023184605B05DF820
:1012400004FB00BF093A0020E439002082B001907D
:10125000094B01221A70019B084A5A60019B012226
:101260001A70019B00229A81019B00225A8100235F
:10127000184602B0704700BFE2390020083A00204B
:1012800082B001900B4B02221A70019B0A4A5A60ED
:10129000019B01221A70094BDB689AB2019B9A816B
:1012A000064B9B689AB2019B5A810023184602B0F4
:1012B000704700BFE2390020083A0020E4390020DE
:1012C00000B585B001901B4B1B699AB2019B5A81F6
:1012D000184B5B699AB2019B9A81164B1B78002BC5
:1012E0001FD0154B1B7883F00103DBB2002B18D005
:1012F000FFF7C4FE0346002B13D0019B02221A7293
:101300000E4B0422DA7000210C48FFF759FE0390BF
:10131000039B002B01D0039B07E0094B05221A70A9
:1013200002E0074B03221A700023184605B05DF84F
:1013300004FB00BFE4390020B43A0020103A00203A
:10134000E239002000B585B001901B4B9B699AB231
:10135000019B5A81184BDB699AB2019B9A81164B0B
:101360001B78002B1FD0154B1B7883F00103DBB2D9
:10137000002B18D0FFF782FE0346002B13D0019BF1
:1013800002221A720E4B0422DA7000210C48FFF779
:1013900017FE0390039B002B01D0039B07E0094B32
:1013A00006221A7002E0074B04221A700023184626
:1013B00005B05DF804FB00BFE4390020B43A00201A
:1013C000103A0020E239002082B003468DF8073041
:1013D000034A9DF80730137000BF02B0704700BF8A
:1013E000043A002030B589B0039002910192009335
:1013F000039B002B02D0019B002B01D10E23D5E0D3
:101400006C4B01221A706C4B00221A706B4A019BC4
:1014100014461D460FCD0FC495E80F0084E80F0059
:10142000674B00221A70674A009B1360664A0C9B48
:101430001360664B4FF6FF721A8007220021644842
:1014400005F068F93C220021624805F063F9039B2E
:101450001A78604B1A70039B9A785E4B9A70039BC4
:10146000DA785C4BDA70039B5A785A4B5A70594BB6
:10147000039A1033103292E8030083E80300554BBF
:10148000039A0833083292E8030083E80300514BC3
:10149000039A1833183292E8030083E80300039B91
:1014A0005B6A002B29D04B4B4B4A5A624A4B4B4A42
:1014B0009A60039B5A6A474B5B6A12881A80039BA7
:1014C0005A6A444B5B6A92889A80002307930DE026
:1014D000039B5B6A9A68079B134419783F4A079BF2
:1014E00013440A461A70079B01330793394B5B6A12
:1014F0009B881A46079B9342EAD3039B9B6A002B67
:1015000033D0374B374A9A60324B354A9A62314B67
:101510009B6A344A9A60039B9A6A2E4B9B6A928814
:101520009A80039B9A6A2B4B9B6A12881A8000232D
:1015300006930DE0039B9B6A9A68069B13441978F7
:10154000284A069B13440A461A70069B01330693E9
:10155000204B9B6A9B881A46069B9342EAD3039BC7
:1015600093F82C201B4B83F82C20039B1B6A002B29
:101570000ED0184B1C4A1A62039B1A6A154B1B6A41
:1015800052885A80039B1A6A124B1B6A12881A806F
:10159000039B5B68002B03D0039B5B680D4A536081
:1015A00002990C48FFF70CFD0590059B184609B001
:1015B00030BD00BFE0390020E3390020E4390020CD
:1015C000043A0020AC3A0020B03A0020A83A0020AB
:1015D000083A0020103A00204C3A0020583A0020E7
:1015E000783A0020843A0020A43A002000B589B05F
:1015F00003468DF80730664B1B7883F00103DBB29E
:10160000002B01D00823BEE0624A9DF8073013701A
:10161000FFF7C6FD0346002B04D05F4B01221A7072
:101620000023B0E0072200215C4805F073F85C4B12
:101630005B78002B03D0574B1B78012B0FD0584BF6
:101640009B78002B03D0534B1B78012B07D0544BB6
:101650009B78002B12D04F4B1B78022B0ED1514B95
:101660001B68002B07D0504B01221A704D4B1B6892
:101670000820984702E04C4B00221A709DF8073072
:101680001846FFF79DFD03461A46424B1A70454B1C
:101690001B68002B1DD03F4B1B78032B03D03D4B09
:1016A0001B78042B15D13E4B1B78002B11D03F4BE0
:1016B0001B7883F00103DBB2002B0AD03C4B0022E5
:1016C0001A703C4B01221A70364B1B680720984752
:1016D00002E0384B00221A7003AB1022002118469A
:1016E00005F018F800238DF80C3000238DF8143025
:1016F000284B1B78042B29D801A252F823F000BFF5
:101700004517020015170200211702002D170200CD
:101710003917020003AB1846FFF798FD079016E053
:1017200003AB1846FFF7ACFD079010E003AB18467B
:10173000FFF7C6FD07900AE003AB1846FFF702FE6D
:10174000079004E01C4B00221A7000E000BF114B10
:101750001B78002B0CD0194B1A7803AB1146184696
:10176000FFF788FC0790079B002B01D0079B0AE03E
:101770000C4B1B68002B05D00A4B1B680E4A1278D5
:10178000104698470023184609B05DF804FB00BFD7
:10179000E0390020E3390020E1390020083A002038
:1017A000E4390020AC3A00200F3A0020B43A00207F
:1017B000B63A0020B53A0020E2390020043A002071
:1017C00000B583B00190019B1B88112B07D01B2B08
:1017D00009D0102B0BD10198FFF786FC08E0019887
:1017E000FFF792FC04E00198FFF7B4FC00E000BFB3
:1017F00000BF03B05DF804FB75DF704700BF1846FB
:1018000076DF704700BF18467ADF704700BF184682
:101810007BDF704700BF184682B00190019B5A8859
:10182000074B1B889A4207D3019B5A88044B5B885D
:101830009A4201D8012300E00023184602B0704705
:10184000D43A002000B587B00190274B1B884FF693
:10185000FF72934243D0254B1B780133DAB2234BFE
:101860001A70234B1A7B214B1B789A4212D31E4BC2
:101870001B8820491846FFF7BFFF0590059B002BEA
:101880002DD01B4B9B69002B29D0194B9B690598C8
:10189000984724E0154B00221A70154B1B7C002B37
:1018A00011D0114B1B883B211846FFF7A9FF04906C
:1018B000049B002B07D00E4B9B69002B03D00C4BD5
:1018C0009B69049898470A4B5B69002B07D000235B
:1018D0008DF80C30064B5B6903AA1046984700BF91
:1018E00007B05DF804FB00BFDE3A0020DC3A0020C0
:1018F000B83A0020D43A002030B585B001901C4A97
:10190000019B14461D460FCD0FC495E8070084E8DF
:101910000700184B00221A70019B1B68002B0ED089
:10192000019B1A68144B1068516803C31248FFF7F3
:101930006BFF0390039B002B0AD0039B15E00E481E
:10194000FFF766FF0390039B002B01D0039B0CE085
:101950000A4B4FF6FF721A80094B00221A70094A8F
:101960000021094803F03AFB0346184605B030BD94
:10197000B83A0020083B0020D43A0020DE3A00208C
:10198000DC3A0020451802001072020000B585B054
:101990002548FFF741FF034683F00103DBB2002B2C
:1019A0002ED0224B1B78002B0CD0214B5B69002BD7
:1019B00032D000238DF804301D4B5B6901AA10461C
:1019C000984729E01B4B1B78002B03D1184B5B6811
:1019D000039302E0164B9B680393174B0022039975
:1019E000184603F02BFB0290029B002B14D0104BE7
:1019F0009B69002B10D00E4B9B69029898470BE017
:101A00000B4B5B69002B07D001238DF80030084B8E
:101A10005B696A4610469847044B00221A7000BF63
:101A200005B05DF804FB00BFE03A0020083B002051
:101A3000B83A0020DC3A0020E83A002000B583B034
:101A40000190019B9A880B4B1A800B4A019B103323
:101A500093E8030082E80300084B00221A70084B49
:101A6000DB89002B01D1FFF791FF00BF03B05DF8C8
:101A700004FB00BFDE3A0020E03A0020DC3A002000
:101A8000B83A002000B585B001900D4B4FF6FF72BB
:101A90001A800C4B00221A700B4B184603F000FB07
:101AA0000390039B002B07D0084B9B69002B03D0AE
:101AB000064B9B690398984700BF05B05DF804FB8F
:101AC000DE3A0020DC3A0020E83A0020B83A002054
:101AD00000B585B00190019B06330393039B1A88E0
:101AE000134BDB899A421ED1039B5B89022B1AD1CF
:101AF000039B0C33184600F066F80346002B02D017
:101B0000FFF744FF0FE00B4B184603F0C9FA0290B1
:101B1000029B002B07D0064B9B69002B03D0044B84
:101B20009B690298984700BF05B05DF804FB00BFB1
:101B3000B83A0020E83A002000B583B00190064A88
:101B4000019B083393E8030082E80300FFF71EFFC0
:101B500000BF03B05DF804FBE03A002000B583B09D
:101B60000190019B1B88112B0DD0112B02DC102B37
:101B700005D014E0122B0ED0502B08D00FE00198A6
:101B8000FFF75CFF0BE00198FFF77CFF07E001988F
:101B9000FFF79EFF03E00198FFF7CEFF00BF00BFF5
:101BA00003B05DF804FB82B00190019B1B781AB270
:101BB000019B01331B781B021BB213431BB29BB268
:101BC000184602B0704700B585B001900198FFF744
:101BD000EAFF0346ADF80E30BDF80E3003F0010306
:101BE000002B14BF01230023DBB2184605B05DF8BB
:101BF00004FB8FDF704700BF18469EDF704700BFB1
:101C00001846ADDF704700BF184682B00190019BB7
:101C10009E221A80019B17225A80019B00221A7172
:101C2000019B00225A71019BA2229A71019B1B22E7
:101C3000DA7100BF02B0704700B587B0034600916B
:101C4000ADF80630BDF80630009ADB0013441B7B6C
:101C50001A46BDF806301949042003F0F0FFBDF81C
:101C60000630009ADB0013441B7B9BB2ADF80C30AE
:101C7000BDF80630009ADB0013441B7B9BB2ADF825
:101C80000E300023ADF810300023ADF8123003A958
:101C9000BDF8063000221846FFF7ABFF0590059B04
:101CA000002B06D0BDF80620059B0549012003F056
:101CB000C6FF00BF07B05DF804FB00BF147202004E
:101CC0006472020000B587B001900091009B9B8870
:101CD000ADF81630BDF81630DB00019A1344063318
:101CE0000493019B1A79049B9A71009BDB7B012B67
:101CF00002D0022B05D009E0019B1A88049B1A80B0
:101D000004E0019B5A88049B1A8000BF049B1A8838
:101D1000049B5B889A422BD9049B1B881A46BDF80A
:101D200016301B49042003F08AFF049B1A88BDF873
:101D3000163011461846FFF760FF0390039B002BF7
:101D400003D1049B01225A7112E0039B112B0AD18B
:101D5000049B01221A71BDF816301A460D49042061
:101D600003F059FF04E0039A0B49012003F053FFED
:101D7000049B9A79049BDB799A4205D9BDF8163009
:101D800001991846FFF758FF00BF07B05DF804FB44
:101D9000D87202002C7302009473020000B583B065
:101DA00001900091009B9B88DB00019A134406334D
:101DB0001846FFF72AFF00BF03B05DF804FB0000E0
:101DC00000B587B001900091009B9B88ADF816305C
:101DD000009B5B89ADF81430BDF81630DB00019A2A
:101DE000134406330493049B1B88BDF814209342CC
:101DF00028BF13469AB2049B5A80049B5B88172B1A
:101E000038BF17239AB2049B5A80049B5B881A46FA
:101E1000BDF816301349042003F011FF019B9B69A4
:101E2000002B15D0049B5B79002B11D040F6772353
:101E3000ADF80830BDF81630ADF80A30049B5B8869
:101E4000ADF80C30019B9B6902AA11460198984796
:101E5000049B00225A71049B00221A7100BF07B034
:101E60005DF804FBF073020000B58BB003900291A3
:101E7000029B9B88ADF82630029BDB88ADF82430AE
:101E8000BDF82630DB00039A134406330893BDF8EF
:101E90002620BDF824302B49042003F0D0FEBDF8E5
:101EA0002430172B38BF1723ADF82430089B1B882C
:101EB000BDF82420934228BF13469AB2089B5A804B
:101EC000089B00221A71089B5B881A46089B1B8896
:101ED0001946BDF8263000930B461B49042003F039
:101EE000C5FE089B1A88BDF8263011461846FFF734
:101EF00088FE0790079B002B04D0079A1349012006
:101F000003F089FE089B5B79002B16D1039B9B692C
:101F1000002B13D040F67723ADF81430BDF82630EF
:101F2000ADF81630089B5B88ADF81830039B9B69B1
:101F300005AA11460398984700E000BF0BB05DF872
:101F400004FB00BF4074020090740200E4740200BD
:101F500030B593B001900091009B04AC1D1D0FCDD6
:101F60000FC40FCD0FC40FCD0FC42B682360BDF875
:101F70001030ADF84630BDF81420BDF84630D1B26F
:101F8000019ADB0013440A465A73BDF84630019AA1
:101F9000DB0013445B7B1A46BDF846302049042021
:101FA00003F04DFEBDF816301A461E49042003F01A
:101FB00032FEBDF814301A461B49042003F02BFEF4
:101FC000BDF81A301A461949042003F024FEBDF862
:101FD00018301A461649042003F01DFE019B9B6928
:101FE000002B19D002AB00221A609A804DF67A239A
:101FF000ADF80830BDF84630ADF80A30BDF84630CF
:10200000019ADB0013445B7B8DF80C30019B9B69CC
:1020100002AA11460198984700BF13B030BD00BF17
:102020003C75020080750200A8750200D0750200A0
:10203000F875020000B589B001900091009B04334F
:102040000793079B1B88DB00019A13440633069312
:10205000079B9B888DF81730079B1B881A469DF8B5
:1020600017301B49042003F0EAFD069B9B799DF87D
:102070001720934228BF13468DF8163002AB00227A
:102080001A605A609DF816309BB2ADF808309DF882
:1020900016309BB2ADF80A309DF81620079B1B88BE
:1020A0000C49042003F0CBFD079B1B8802A90022EA
:1020B0001846FFF79EFD0490049B002B04D0049A61
:1020C0000549012003F0A7FD00BF09B05DF804FB3E
:1020D0002076020074760200C076020000B585B05A
:1020E00001900091019B002B01D10E231DE0019B6B
:1020F000009A9A61019B9E221A80019B9E225A801F
:10210000019BA2221A71002303930AE0039BDB00C8
:10211000019A134406331846FFF777FD039B0133FA
:102120000393039B012BF1D90023184605B05DF8FA
:1021300004FB82B001900B46ADF80230019B002BEE
:1021400001D10E230EE0BDF80230162B03D9BDF8E5
:1021500002309E2B01D9072304E0019BBDF8022029
:102160001A800023184602B07047000000B585B001
:1021700001900091009B9B88ADF80E30BDF80E30A9
:10218000012B6CD8009B1B88212B26D0212B04DC33
:10219000102B09D0112B0CD024E03A2B0ED0552B4C
:1021A00011D0222B14D01DE000990198FFF78AFD71
:1021B00018E000990198FFF7F1FD13E000990198EC
:1021C000FFF7FEFD0EE000990198FFF74DFE09E0D4
:1021D00000990198FFF7BCFE04E000990198FFF711
:1021E00029FF00BFBDF80E30019ADB0013449B7A33
:1021F000002B35D0BDF80E30019ADB001344DA888D
:10220000BDF80E3011461846FFF7F7FC0290029B0E
:10221000002B1BD1BDF80E30019ADB0013440022C5
:102220009A72BDF80E30019ADB0013440122DA7273
:10223000BDF80E30019ADB001344DB881A46BDF866
:102240000E300949042003F0FAFC09E0029B112B2F
:1022500006D0029A0549012003F0DDFC00E000BF32
:1022600005B05DF804FB00BF207702009473020004
:10227000A0DF704700BF1846A2DF704700BF1846B6
:10228000A6DF704700BF184662DF704700BF1846E0
:1022900082B001900091009B9A88019B9A8200BFB6
:1022A00002B0704782B001900091019B4FF6FF721F
:1022B0009A8200BF02B0704700B585B001900091CE
:1022C000009B06330393039B1A88019B1B899A4248
:1022D00013D1039B5B89022B0FD1039B0C33184650
:1022E000FFF771FC0346002B03D0019B01229A7576
:1022F00017E0019B00229A7513E0039B1A88019B4B
:102300009B899A420DD1019B9B69002B09D0019BAF
:102310009B69039A02F10C01039A5289019898472C
:10232000FFE700BF05B05DF804FB00B593B0019076
:1023300000910AAB03220021184604F0EBF99DF846
:102340002830012262F303038DF828309DF82830ED
:10235000012262F307138DF828309DF829300122FD
:1023600062F303038DF829309DF82930012262F3CE
:1023700007138DF829309DF82A30012262F34203B9
:102380008DF82A300BAB1C220021184604F0C2F94C
:102390009DF82C3043F010038DF82C3000230C9363
:1023A00000230E9300230F930AAB10930023119385
:1023B000019B1B788DF812300323ADF8103003AB6E
:1023C00003220021184604F0A5F99DF80C300122E3
:1023D00062F303038DF80C309DF80C30012262F398
:1023E00007138DF80C309DF80D30012262F30303C2
:1023F0008DF80D309DF80D30012262F307138DF832
:102400000D309DF80E30012262F342038DF80E303C
:102410009DF80E306FF3C3038DF80E309DF80E302B
:102420006FF304138DF80E309DF80E3043F0010366
:102430008DF80E3005AB14220021184604F06AF91D
:1024400004AB059303AB06930123ADF81C300023C6
:10245000ADF81E309B23ADF82030019B5888019BBE
:10246000043305AA0BA9FFF707FF0346184613B06C
:102470005DF804FB00B591B00190009109AB1C22FE
:102480000021184604F046F99DF8243043F0080373
:102490008DF824309DF8243043F004038DF8243067
:1024A00000230A9300230C9300230D9300230E9323
:1024B00000230F93019B1B788DF80E300223ADF89B
:1024C0000C3002AB03220021184604F023F99DF8DA
:1024D0000830012262F303038DF808309DF80830BC
:1024E000012262F307138DF808309DF809300122AC
:1024F00062F303038DF809309DF80930012262F37D
:1025000007138DF809309DF80A30012262F3420367
:102510008DF80A309DF80A306FF3C3038DF80A3046
:102520009DF80A306FF304138DF80A309DF80A30D5
:1025300043F001038DF80A3004AB14220021184641
:1025400004F0E8F803AB049302AB05930123ADF864
:1025500018300023ADF81A309B23ADF81C30019BD6
:102560005888019B0C3304AA09A9FFF785FE03468E
:10257000184611B05DF804FB00B583B001900091DE
:10258000019B002B24D0009B002B21D0009B1B889B
:10259000112B0ED0112B02DC102B05D019E0502B83
:1025A0000CD0A62B0FD014E000990198FFF770FE15
:1025B0000FE000990198FFF775FE0AE00099019875
:1025C000FFF77AFE05E00449042003F013FB00E066
:1025D00000BF03B05DF804FB7C77020010B588B043
:1025E00001900091284B02AC0FCB84E80F00019BB7
:1025F000002B01D10E2344E0009B002B01D10E23C0
:102600003FE0019B4FF6FF729A82009B1A68019B84
:102610009A61019B00229A75019A02AB11461846F5
:10262000FFF732FE0790079B002B01D0079B28E0A5
:10263000019B1B788DF81A300123ADF81830019BEF
:102640009A1C06AB19460120FFF712FE0790079B64
:10265000002B01D0079B14E000990198FFF70AFFB7
:102660000790079B002B01D0079B0AE00099019877
:10267000FFF75BFE0790079B002B01D0079B00E054
:102680000023184608B010BDB477020000B589B029
:10269000039002911346ADF80630039B002B01D145
:1026A0000E232EE0039B9B8A4FF6FF72934206D0C7
:1026B000039B9B7D83F00103DBB2002B01D0082339
:1026C0001FE0BDF806309B2B01D9072319E004ABAE
:1026D00010220021184604F01DF8039B9B88ADF8DA
:1026E0001030029B07930DF10603069301238DF82A
:1026F0001230039B9B8A04AA11461846FFF7C0FDBF
:102700000346184609B05DF804FB82B001904FF013
:102710008042019BC2F8083300BF02B0704784B00A
:102720000346ADF80630BDF8063003F180430022C1
:102730001A60BDF8063003F180431B680393039BC6
:1027400000BF04B0704782B00346ADF80630BDF854
:10275000063003F180431B68002B14BF01230023C4
:10276000DBB2184602B0704782B003468DF80730DE
:102770009DF807304FF0804203F00303C2F818358C
:1027800000BF02B07047000082B003468DF80730EA
:102790000A4A9DF907305B0952F823209DF807305B
:1027A00003F01F03012101FA03F31340002B14BFB0
:1027B00001230023DBB2184602B0704700E100E0BD
:1027C00008B50020FFF7E0FF034683F00103DBB20A
:1027D000002B03D00721002000F01EF900BF08BD28
:1027E00000B583B000230193134B1B78002B02D05C
:1027F000852301931BE0104B00229A600E4B0022B0
:102800005A600D4B00221A610B4B0022DA60FFF771
:10281000D7FF03F089FD034683F00103DBB2002BF1
:1028200002D00120FFF7A0FF034B01221A70019B89
:10283000184603B05DF804FB0C3B002084B0019007
:10284000019B1B680393039B002B03D0039B1A6817
:10285000019B1A60039B184604B0704700B585B011
:1028600003468DF807309DF80730002B02D10C4B42
:10287000039301E00B4B03930398FFF7DFFF0290F4
:10288000029B002B06D0029B5B689DF80720104638
:102890009847F1E700BF00BF05B05DF804FB00BF3B
:1028A000143B00201C3B002008B54FF48070FFF75C
:1028B0004AFF0346002B0CD04FF48070FFF72FFF28
:1028C0000120FFF722FF0E4B01225A700020FFF774
:1028D000C5FF4FF48270FFF736FF0346002B0CD084
:1028E0004FF48270FFF71BFF0220FFF70EFF044B2F
:1028F00001229A700120FFF7B1FF00BF08BD00BFA1
:102900000C3B002000B583B00190019B002B02D14D
:102910000020FFF7A3FF00BF03B05DF804FB000039
:1029200000B583B000238DF807300DF1070318467A
:1029300002F0C8FD0C4B1B7883F00103DBB2002BC7
:1029400001D0FFF74DFF084BDB680133064AD36027
:10295000054B01229A709DF80730184602F0BCFD25
:1029600000BF03B05DF804FB0C3B002082B00346BF
:102970008DF807309DF8073003F01F0205499DF9D7
:1029800007305B09012000FA02F241F8232000BF62
:1029900002B0704700E100E082B003468DF80730D6
:1029A0009DF8073003F01F0206499DF907305B09C7
:1029B000012000FA02F2603341F8232000BF02B088
:1029C000704700BF00E100E082B0034600918DF83F
:1029D00007309DF90730002B0CDA009BDAB20C4966
:1029E0009DF8073003F00F03043B5201D2B20B44B1
:1029F0001A7609E0009BDAB206499DF907305201C8
:102A0000D2B20B4483F8002300BF02B0704700BF6E
:102A100000ED00E000E100E000B583B003460A46A7
:102A20008DF8073013468DF806309DF806209DF985
:102A3000073011461846FFF7C7FF9DF907301846C3
:102A4000FFF7AAFF9DF907301846FFF78FFF00BF79
:102A500003B05DF804FB00B583B00346ADF8063063
:102A6000BDF80630184600F026F803461B68012B17
:102A70000CBF01230023DBB2184603B05DF804FB52
:102A800000B585B00346ADF80630BDF806301846EF
:102A900000F011F803461A4600231360BDF8063013
:102AA000184600F008F803461B680393039B00BF19
:102AB00005B05DF804FB82B00346ADF80630BDF802
:102AC000063003F1804303F5C043184602B0704757
:102AD00082B00190034BD3F80423019B13401846A6
:102AE00002B070470060004082B00190054A019B2F
:102AF00003F5A27352F823301B0A03F01F03184694
:102B000002B070470060004082B00190064A019B0D
:102B100003F5A27352F823301B0C03F00303DBB25E
:102B2000184602B0704700BF0060004082B00190BC
:102B30004FF0A043184602B0704700B585B0019031
:102B40000B468DF8033001AB1846FFF7EFFF0390FB
:102B5000019A039B02F5E07253F82230019A23F4A4
:102B60004031039B02F5E07243F82210019A039B67
:102B700002F5E07253F822309DF80320120411464A
:102B8000019A1943039B02F5E07243F8221000BF3B
:102B900005B05DF804FB00B585B0019001AB1846A7
:102BA000FFF7C4FF0390019A039B02F5E07253F80C
:102BB00022301B0C03F00303DBB2184605B05DF8AE
:102BC00004FB82B00190019BD3F81035184602B087
:102BD000704700B587B00390029101924FF0A04377
:102BE0000493039B059311E0059B9B0006AA1344E5
:102BF00053F8083C1846FFF7E4FF0246019B1A60B1
:102C0000019B04330193059B01330593039A029BB7
:102C10001344059A9A42E7D300BF07B05DF804FB5E
:102C200084B001900091009B0393019BDB08029309
:102C3000019B03F0070301930122019B02FA03F3B6
:102C40000399029A0A4412781340184604B0704758
:102C500084B001900091009B0393019BDB080293D9
:102C6000019B03F007030193039A029B13441B7813
:102C70005AB20121019B01FA03F35BB2134359B22B
:102C8000039A029B1344CAB21A7000BF04B0704783
:102C900082B00190044A019B1344303393F9003011
:102CA000184602B0704700BF203B002082B0019060
:102CB000034A019B52F82330184602B0704700BF08
:102CC000203B002000B595B000231393002303930D
:102CD0004FF48073ADF84630012310930023129314
:102CE00021E0BDF846301846FFF7B5FE0346002B3D
:102CF0000ED01098FFF7ECFE0346002B08D0BDF86D
:102D000046301846FFF7BCFE139A109B13431393EB
:102D1000109B5B001093BDF846300433ADF846308D
:102D2000129B01331293129B072BDAD94FF4BE701A
:102D3000FFF791FE0346002B0DD04FF4BE70FFF756
:102D40009FFE139B43F00043139303AB1A460121EC
:102D50000020FFF73EFF139BDBB2002B29D001239D
:102D600010930023129321E0109A139B1340002B21
:102D700016D01298FFF7B8FE0D901298FFF7C4FE18
:102D800003468DF833301298FFF790FF0B900B9BA2
:102D9000002B05D09DF833200B9B11460D989847CA
:102DA000109B5B001093129B01331293129B072B15
:102DB000DAD9139B002B80F2EE8000238DF83B3094
:102DC0000023029300230F930AE00F9B9B0014AA99
:102DD00013444FF0FF3243F84C2C0F9B01330F93F9
:102DE0000F9B002BF1D000238DF83B300023129372
:102DF00078E06B4A129B1344503393F900308DF8FE
:102E00002B309DF82B3023F0C0030993644A129BAA
:102E10001344503393F90030B3F1FF3F5FD001AB5F
:102E200019460998FFF7FCFE0346002B57D09DF882
:102E30002B309B098DF823300998FFF729FF0346B3
:102E40001846FFF733FF0790079B002B03D19DF82F
:102E50002330032B43D19DF82330032B04D102AB45
:102E600019460998FFF7F4FE0998FFF794FE034608
:102E70008DF81B3003AB19460998FFF7D1FE05907A
:102E8000059B002B03D09DF81B30022B06D0059B21
:102E9000002B24D19DF81B30032B20D19DF823302B
:102EA000032B13D19DF81B30022B01D1032300E02B
:102EB00002238DF813309DF8133019460998FFF757
:102EC0003CFE9DF83B3001338DF83B30079B002BD7
:102ED00005D09DF82320079B114609989847129B1F
:102EE00001331293129B032B83D99DF83B30002BA7
:102EF0004CD001238DF83A306B461A460121002050
:102F0000FFF767FE00230F9314E00F9B9B0014AAAA
:102F1000134453F8502C0F9B9B0014A90B4453F8F7
:102F2000443C9A4203D000238DF83A3005E00F9BD1
:102F300001330F930F9B002BE7D09DF83A30002B05
:102F400003D000238DF83B3020E000230F931AE0DC
:102F50000F9B9B0014AA134453F8502C0F9B9B000B
:102F600014A90B4443F8442C0F9B9B0014AA134450
:102F700053F8482C0F9B9B0014A90B4443F84C2C8E
:102F80000F9B01330F930F9B002BE1D09DF83B303B
:102F9000002B7FF428AF00BF15B05DF804FB00BF25
:102FA000203B002084B001900B46ADF80230BDF804
:102FB0000230019A134400221A60BDF80230019ACF
:102FC00013441B680393039B00BF04B0704782B097
:102FD00001900B46ADF80230BDF80230019A13445F
:102FE0001B68002B14BF01230023DBB2184602B07C
:102FF000704782B001900091019B009AC3F80423AE
:1030000000BF02B0704782B001900091019BD3F8DD
:103010000423009B1340002B14BF01230023DBB2C9
:10302000184602B0704782B001900091019B009A4F
:10303000C3F8082300BF02B0704784B00190019B21
:10304000D3F880340393019B039AC3F88024039B35
:10305000184604B0704782B00190019B0422C3F867
:10306000002500BF02B0704784B003900291019226
:10307000039B019AC3F81425039B029AC3F80C25FD
:1030800000BF04B0704784B0039002910192039B8B
:10309000029AC3F80825039B019AC3F8102500BFC4
:1030A00004B0704782B00190019BD3F81835DBB2B1
:1030B000184602B0704782B001900B468DF803307D
:1030C0009DF80320019BC3F81C2500BF02B0704788
:1030D00082B001900B468DF803309DF80330019AC1
:1030E000134401221A6000BF02B0704782B0019001
:1030F0000B468DF8033013468DF802309DF80320FF
:103100009DF802301343DBB21A46019BC3F86C25CD
:1031100000BF02B0704782B001900091019B009AFD
:10312000C3F8242500BF02B0704784B001900B465D
:10313000ADF80230BDF80230019A134400221A6043
:10314000BDF80230019A13441B680393039B00BF30
:1031500004B0704782B001900B46ADF80230BDF864
:103160000230019A13441B68002B14BF0123002373
:10317000DBB2184602B0704782B001900091019B0B
:10318000D3F80022009B1A43019BC3F8002200BF22
:1031900002B0704782B001900091019BD3F80022E9
:1031A000009BDB431A40019BC3F8002200BF02B022
:1031B000704782B001900091019B009AC3F80423EC
:1031C00000BF02B0704782B001900091019B009A4D
:1031D000C3F8082300BF02B0704784B00190019B80
:1031E000D3F880340393019B039AC3F88024039B94
:1031F000184604B0704782B00190019B0822C3F8C2
:10320000002500BF02B0704784B003900291019284
:10321000039B029AC3F80C25039B019AC3F814255B
:1032200000BF04B0704784B0039002910192039BE9
:10323000029AC3F80825039B019AC3F8102500BF22
:1032400004B0704782B001900B468DF803309DF8B2
:103250000330019A134401221A6000BF02B0704784
:1032600082B001900B468DF8033013468DF8023082
:103270009DF803209DF802301343DBB21A46019BF0
:10328000C3F86C2500BF02B0704782B00190009176
:10329000019B009AC3F8242500BF02B0704784B098
:1032A0000390029113468DF80730029A039BC3F8EE
:1032B00044259DF80720039BC3F8482500BF04B0B0
:1032C000704782B00190019BD3F84C35184602B08C
:1032D000704784B00390029113468DF80730029A2C
:1032E000039BC3F834259DF80720039BC3F83825BA
:1032F00000BF04B0704782B00190019BD3F83C3509
:10330000184602B0704784B00190019B1B0B8DF8EA
:103310000F309DF90F30184604B0704782B001900D
:10332000019B03F06043B3F1005F0CBF0123002356
:10333000DBB2184602B0704782B001904FF0A04354
:10334000184602B0704700B585B001900846114696
:103350001A4603468DF803300B468DF802301346AB
:103360008DF8013001AB1846FFF7E6FF03909DF89A
:1033700003209DF802305B001A439DF801309B004A
:103380001A439DF818301B0242EA03019DF81C30D5
:103390001B04019A1943039B02F5E07243F82210C3
:1033A00000BF05B05DF804FB00B585B003900023B5
:1033B0000193002300930023012201210398FFF7CA
:1033C000C2FF00BF05B05DF804FB00B585B00390F7
:1033D0000B468DF80B309DF80B2000230193002342
:1033E00000931346002200210398FFF7ACFF00BFB3
:1033F00005B05DF804FB00B585B0019001AB18463F
:10340000FFF79AFF0390019B012202FA03F319468A
:10341000039800F004F800BF05B05DF804FB82B02B
:1034200001900091019B009AC3F8082500BF02B0EB
:103430007047000000B583B001900091009B1B68AD
:10344000B3F1FF3F09D0009B1B681846FFF7D3FF7D
:10345000009B1B681846FFF7A7FF009B5B68B3F152
:10346000FF3F05D0009B5B6800211846FFF7ADFFCA
:10347000019B1B79464A5B0113441C331B78002BCC
:1034800041D0019B1A68009B9B6919461046FFF7C3
:10349000FCFE019B1868009B597D009B1B7D1A4612
:1034A000FFF7DEFE019B1868009B1968009B5B68B4
:1034B0001A46FFF7A9FE009B1B7D012B64D1009BE0
:1034C0009B68B3F1FF3F05D0009B9B680021184625
:1034D000FFF77BFF009BDB68B3F1FF3F09D0009B48
:1034E000DB681846FFF787FF009BDB681846FFF78D
:1034F0005BFF019B1868009BD968009B9B681A467C
:10350000FFF791FE40E0019B1A68009B9B691946FA
:103510001046FFF700FE019B1868009B597D009B39
:103520001B7D1A46FFF7E2FD019B1868009B196896
:10353000009B5B681A46FFF797FD009B1B7D012BE4
:1035400022D1009B9B68B3F1FF3F05D0009B9B6895
:1035500000211846FFF739FF009BDB68B3F1FF3FFE
:1035600009D0009BDB681846FFF745FF009BDB682E
:103570001846FFF719FF019B1868009BD968009B4C
:103580009B681A46FFF77FFD00BF03B05DF804FBA0
:10359000783B002000B583B001900B468DF80330D6
:1035A000019B1B792D4A5B0113441C331B78002BB4
:1035B0002FD0019B1B684FF488711846FFF7B5FDAB
:1035C000019B1B684FF490711846FFF7AEFD019BFD
:1035D0001B684FF492711846FFF7A7FD019B1B680B
:1035E0004FF4A2711846FFF7A0FD019B1B681C4910
:1035F0001846FFF7DEFD019B1B681846FFF783FEA8
:1036000003461A469DF8033019461046FFF704FAA0
:1036100020E0019B1B684FF48E711846FFF7C2FC37
:10362000019B1B684FF4A2711846FFF7BBFC019B7E
:103630001B680C491846FFF7DCFC019B1B68184609
:10364000FFF761FE03461A469DF8033019461046FF
:10365000FFF7E2F900BF03B05DF804FB783B002000
:10366000100302008000020000B583B00190019BAE
:103670001B790B4A5B0113441C331B78002B05D0CC
:10368000019B1B681846FFF7B6FD04E0019B1B6811
:103690001846FFF7E0FC00BF03B05DF804FB00BF75
:1036A000783B002000B587B0039002910192039B04
:1036B0001B795B011E4A1344059300230493059B69
:1036C000DB7E002B03D008230493049B2BE0029B9A
:1036D0005A7F059B1A7702990398FFF7ABFE059B6B
:1036E000019A5A60029B1A69059B1A60059B5B68E8
:1036F000002B05D0029B1B7F19460398FFF74AFF5A
:103700000398FFF7B1FF059B0022DA75059B0022A5
:103710001A76059B00229A75059B0122DA76059B95
:1037200000229A76049B184607B05DF804FB00BFA0
:10373000783B002000B585B0019000914FF48E7168
:103740000198FFF72FFC009B9B68009A928A92B227
:1037500013441B788DF80F30009B9B8A9BB201337A
:103760009AB2009B9A829DF80F3019460198FFF794
:10377000A2FC00BF05B05DF804FB000000B585B0F9
:103780000190019B1B795B01344A1344029300238F
:103790000393019B1B684FF48E711846FFF702FCE0
:1037A000019B1B6808211846FFF792FC019B1B68D0
:1037B00002991846FFF7BEFF029B5B68002B48D1B9
:1037C0001FE000BF019B1B684FF48E711846FFF786
:1037D000FEFB034683F00103DBB2002B05D0029B06
:1037E0009B8A9BB2B3F5807FECD1029B9B8A9BB2F4
:1037F000B3F5807F05D0019B1B6802991846FFF73F
:1038000099FF029B9B8A9AB2029B9B7D9BB29A4234
:10381000D7D3029B9B8A9BB2B3F5807F02D10F2343
:10382000039313E000BF019B1B684FF48E71184691
:10383000FFF7CDFB034683F00103DBB2002BF2D18F
:10384000019B1B680C211846FFF742FC029B0022DB
:103850009A75039B184605B05DF804FB783B002081
:1038600000B587B00190019B1B795B012A4A134484
:10387000049300230593019B1B684FF49071184635
:10388000FFF753FC019B1B684FF4AC711846FFF720
:103890004CFC019B1868049B9968049B9B7D1A460D
:1038A000FFF7FDFC019B1B6808211846FFF7CAFCC7
:1038B000049B5B68002B2AD1019B1B684FF490711D
:1038C0001846FFF747FC03468DF80F30019B1B6835
:1038D0004FF4AC711846FFF73DFC03468DF80E30EF
:1038E0009DF80F3083F00103DBB2002B06D09DF86A
:1038F0000E3083F00103DBB2002BDDD19DF80E30DA
:10390000002B01D00F230593049B00229A75059B81
:10391000184607B05DF804FB783B002000B587B07F
:103920000390029113468DF80730039B1B795B01CE
:10393000214A13440493039B1B791F4A5B011344E0
:103940001C331B78002B0CD00298FFF7E7FC0346D2
:1039500083F00103DBB2002B03D010230593059BFA
:1039600025E0039800F02AF80346002B03D011232A
:103970000593059B1BE0049B9DF807209A75049B0B
:10398000029A9A60049B00229A82039B1B790A4A3E
:103990005B0113441C331B78002B04D00398FFF702
:1039A0005FFF034603E00398FFF7E8FE034618466F
:1039B00007B05DF804FB00BF783B002082B00190A7
:1039C000019B1B79064A5B01134416331B78002BBD
:1039D00014BF01230023DBB2184602B0704700BFBA
:1039E000783B002000B583B00190019B1B684FF429
:1039F00092711846FFF7D6FA019B1B684FF4847149
:103A00001846FFF7CFFA019B1B6800211846FFF705
:103A10005FFB00BF03B05DF804FB10B582B00190FE
:103A20000091009BDB7D002B08D14FF4847101983D
:103A3000FFF7B8FA0198FFF735FB16E04FF48471F1
:103A40000198FFF7AFFA009BDB68009A527ED2B272
:103A50009C180198FFF726FB03462370009B5B7EB2
:103A6000DBB20133DAB2009B5A7602B010BD00001F
:103A700000B589B00390029111461A460B468DF8A5
:103A8000073013468DF80630039B1B795B014D4AC6
:103A900013440793079B9B7E83F00103DBB2002B4B
:103AA00009D09DF8063083F00103DBB2002B02D071
:103AB0000398FFF797FF079B5B68002B73D1039B6D
:103AC0001B684FF4A2711846FFF76CFA039B1B6842
:103AD0004FF492711846FFF77AFA03468DF81B30BF
:103AE000039B1B684FF484711846FFF770FA034676
:103AF0008DF81A30039B1B684FF4A2711846FFF72C
:103B000066FA03468DF819309DF81A3083F00103E8
:103B1000DBB2002B0DD09DF8193083F00103DBB22E
:103B2000002B06D09DF81B3083F00103DBB2002B85
:103B3000CCD19DF81B30002B10D19DF81930002BF3
:103B40000CD1039B1B6807991846FFF766FF079B7C
:103B5000DA7D079B5B7EDBB29A42B7D8079B0022D7
:103B6000DA759DF81B30002B03D003230593059BCA
:103B700023E09DF81930002B03D00F230593059BFC
:103B80001BE0079B9B7E002B06D0039B1B6800213C
:103B90001846FFF79DFA0DE0039B1B6804211846A9
:103BA000FFF796FA06E0039B1B684FF40171184675
:103BB000FFF71FFA00230593059B184609B05DF82F
:103BC00004FB00BF783B002000B587B00390029152
:103BD00011461A460B468DF8073013468DF806300D
:103BE00000230593039B1B684FF488711846FFF769
:103BF0009CFA039B1B684FF4A2711846FFF795FAD5
:103C0000039B1B689DF8072002991846FFF761FB8C
:103C10009DF8063083F00103DBB2002B06D0039B36
:103C20001B6800211846FFF70DFB05E0039B1B688E
:103C300020211846FFF7A0FA039B1B792D4A5B0150
:103C4000134404331B68002B47D1039B1B684FF4BC
:103C500088711846FFF77EFA03468DF81330039BF0
:103C60001B684FF4A2711846FFF774FA03468DF8EB
:103C70001230039B1B684FF492711846FFF76AFAE3
:103C800003468DF811309DF8133083F00103DBB249
:103C9000002B0DD09DF8123083F00103DBB2002B16
:103CA00006D09DF8113083F00103DBB2002BCCD19C
:103CB000039B1B790F4A5B011344173300221A70D0
:103CC0009DF81130002B01D0032305939DF812308D
:103CD000002B09D00F23059306E0039B1B684FF4CC
:103CE00004711846FFF765FA059B184607B05DF8A2
:103CF00004FB00BF783B002000B589B0039002911F
:103D000013468DF80730039B1B795B014F4A134420
:103D10000793039B1B794D4A5B0113441C331B78AB
:103D2000002B0CD00298FFF7F9FA034683F0010349
:103D3000DBB2002B03D010230593059B81E0002309
:103D40008DF81B30079B5B68002B17D0039B1B79FA
:103D50003E4A5B0113441C331B78002B07D0039BA6
:103D60001B684FF404711846FFF72DFA06E0039B19
:103D70001B684FF401711846FFF755F9079BDB7D6F
:103D8000002B26D0079B1B7E002B1FD0079B5B6858
:103D9000002B17D0039B1B792C4A5B0113441C3367
:103DA0001B78002B07D0039B1B684FF40471184647
:103DB000FFF7FFF906E0039B1B684FF401711846FB
:103DC000FFF717F911230593059B3AE001238DF8BE
:103DD0001B309DF81B3083F00103DBB2002B0DD0AC
:103DE000079B9DF80720DA75079B029ADA60079B0C
:103DF00000225A76079B00221A7606E0079B029A59
:103E00001A61079B9DF807201A76039B1B790F4ABE
:103E10005B0113441C331B78002B09D09DF81B3029
:103E20009DF8072002990398FFF7CEFE034608E0AD
:103E30009DF81B309DF8072002990398FFF718FEA4
:103E40000346184609B05DF804FB00BF783B00202C
:103E500000B583B00190019B1B79114A5B011344AB
:103E60001C331B78002B16D1019B1B790C4A5B017C
:103E700013441A331B7883F00103DBB2002B0AD002
:103E80000198FFF7AFFD019B1B79054A5B011344C5
:103E90001A3301221A7000BF03B05DF804FB00BFA3
:103EA000783B002000B589B003900B4601928DF855
:103EB0000B3001238DF810309DF80B308DF8183041
:103EC000019B0593039B5B68039A116804AA104643
:103ED000984700BF09B05DF804FB00B587B00190BA
:103EE0000B468DF8033000238DF808309DF8033021
:103EF0008DF81030019B9B680393019B00229A75FB
:103F0000019B5B68019A116802AA1046984700BF9E
:103F100007B05DF804FB00B589B0019000914FF443
:103F200000710198FFF76FF80346002B39D04FF46A
:103F300092710198FFF74BF80346002B31D04FF4F4
:103F400092710198FFF72EF84FF401710198FFF775
:103F50006AF8009B9B7E83F00103DBB2002B03D049
:103F600004210198FFF7B4F802238DF80830019876
:103F7000FFF763F803460593009BDB7D8DF8103057
:103F8000009BDB680393009B0022DA75009B0022F4
:103F90001A76009B5B68009A116802AA104698473F
:103FA00056E004210198FFF72EF80346002B4FD06E
:103FB0004FF484710198FFF70AF80346002B47D0AD
:103FC00000990198FFF729FD009BDA7D009B5B7E3D
:103FD000DBB29A423CD1009B1B7E002B1CD0009B85
:103FE000DB680793009B5B7E8DF81B30009B1A7E7D
:103FF000009BDA75009B1A69009BDA60009B002227
:104000001A76009B00225A769DF81B30079A1946B3
:104010000098FFF747FF1BE0009B9B7E83F00103A6
:10402000DBB2002B03D004210198FFF751F84FF4C5
:1040300001710198FEF7F7FF009B0022DA75009BE3
:104040005B7ED9B2009BDB681A460098FFF72AFF17
:104050004FF48E710198FEF7BAFF0346002B1BD078
:10406000009B9B8A9AB2009B9B7D9BB29A4204D292
:1040700000990198FFF75EFB0EE04FF48E710198F6
:10408000FEF790FF009B9B7D002B05D0009B9B7D46
:1040900019460098FFF721FF4FF4A2710198FEF72F
:1040A00096FF0346002B1CD04FF4A2710198FEF737
:1040B00079FF009B9B7E002B03D000210198FFF726
:1040C00007F8009BDB7D002B0BD0009B0022DA75EC
:1040D000009B5B7ED9B2009BDB681A460098FFF715
:1040E000E1FE00BF09B05DF804FB00B589B00190A6
:1040F00000914FF492710198FFF72CF80346002BC2
:1041000024D04FF492710198FFF70FF802238DF835
:1041100008300198FFF761F8034605930198FFF70F
:10412000EAF80346DBB28DF81030009BDB6803939E
:10413000009B0022DA75009B00221A76009B5B68C8
:10414000009A116802AA1046984741E04FF488711E
:104150000198FEF7FFFF0346002B39D04FF488711A
:104160000198FEF7E2FF0198FFF7C5F803468DF8C6
:104170001F30009BDB7D9DF81F209A4228D1009BB9
:104180001B7E002B19D0009BDB6806932021019831
:10419000FFF700F8009B1A7E009BDA75009B1A69F6
:1041A000009BDA60009B00221A769DF81F30069A69
:1041B00019460098FFF776FE0AE0009B0022DA75A8
:1041C000009BDA689DF81F3019460098FFF76AFED9
:1041D0004FF4A2710198FEF7BDFF0346002B16D0E5
:1041E0004FF4A2710198FEF7A0FF009BDB7D002B2E
:1041F0000DD0009B0022DA750198FFF77CF803468A
:10420000D9B2009BDB681A460098FFF74BFE4FF4CB
:1042100090710198FEF79EFF0346002B11D04FF4DA
:1042200090710198FEF781FF009B9B7D002B08D0C9
:104230000198FFF746F80346DBB219460098FFF7EE
:104240004CFE00BF09B05DF804FB000008B5074B49
:104250001B7F002B04D005490548FFF746FF03E00C
:1042600002490348FFF757FE00BF08BD783B002016
:104270000020004000B589B0039002910192029B9A
:104280009BB2ADF81430019B0693039B079305ABDB
:104290001A46002144F2010000F050F800BF09B0B6
:1042A0005DF804FB86B003900291019201238DF822
:1042B00017309DF81730204A039B13601E4A029B5B
:1042C00053601D4A019B9360039B44F20102934299
:1042D00013D0039B44F20202934222D1019B164A5F
:1042E000D360154BDB681B881A46134B9A61124B3F
:1042F000DB685B68104AD36113E0019B0E4A1361CF
:104300000D4B1B699B680C4A53610B4B1B691B8847
:104310001A46094B9A61084B1B695B68064AD361D0
:1043200000BF72B600BF9DF81730DBB2002BFAD188
:1043300062B600BF06B07047983B002000B585B05C
:104340000390029101920649012001F053FC019A69
:1043500002990398FFF7A6FF00BF05B05DF804FBC4
:10436000C477020084B00190019B9B680393019B7A
:10437000DA68039BD31A184604B0704782B00190E4
:104380000B468DF80330019B1A68019BDB6801998D
:1043900089880B4013449DF803201A70019BDB6849
:1043A0005A1C019BDA6000BF02B0704784B00390D2
:1043B0000B460192ADF80A30039B1A68039B99687B
:1043C000BDF80A300B44039989880B4013441A78CE
:1043D000019B1A7000BF04B0704700B583B0019014
:1043E0000091009A00210198FFF7E0FF019B9B6874
:1043F0005A1C019B9A6000BF03B05DF804FB84B0B7
:10440000039002911346ADF80630029B002B01D1B8
:104410000E231DE0BDF80630002B07D0BDF8063096
:104420005A1EBDF806301340002B01D009230FE0BF
:10443000039B029A1A60BDF80630013B9AB2039BB7
:104440009A80039B00229A60039B0022DA6000237B
:10445000184604B0704700B583B001900B468DF844
:1044600003300198FFF77EFF0246019B9B889A422A
:1044700007D89DF8033019460198FFF77FFF002306
:1044800000E00423184603B05DF804FB00B583B0D8
:10449000019000910198FFF765FF0346002B05D0BE
:1044A00000990198FFF799FF002300E005231846C3
:1044B00003B05DF804FB000082B003468DF80730BE
:1044C0009DF8073003F01F0205499DF907305B098D
:1044D000012000FA02F241F8232000BF02B0704729
:1044E00000E100E082B003468DF807309DF8073008
:1044F00003F01F0206499DF907305B09012000FA0D
:1045000002F2203341F8232000BF02B0704700BF01
:1045100000E100E082B003468DF807309DF80730D7
:1045200003F01F0206499DF907305B09012000FADC
:1045300002F2403341F8232000BF02B0704700BFB1
:1045400000E100E082B003468DF807309DF80730A7
:1045500003F01F0206499DF907305B09012000FAAC
:1045600002F2603341F8232000BF02B0704700BF61
:1045700000E100E082B0034600918DF807309DF91C
:104580000730002B0CDA009BDAB20C499DF807309B
:1045900003F00F03043B5201D2B20B441A7609E038
:1045A000009BDAB206499DF907305201D2B20B44A2
:1045B00083F8002300BF02B0704700BF00ED00E0A9
:1045C00000E100E084B00190244B0393019B002B99
:1045D00040D0234B1A680399019B00BF00BF00BF66
:1045E00000BF00BF00BF00BF00BF8A422FD000BF86
:1045F00000BF00BF00BF00BF00BF00BF00BF00BFC3
:1046000000BF00BF00BF00BF00BF00BF00BF00BFB2
:1046100000BF00BF00BF00BF00BF00BF00BF00BFA2
:1046200000BF00BF00BF00BF00BF00BF00BF00BF92
:1046300000BF00BF00BF00BF00BF00BF00BF00BF82
:1046400000BF00BF00BF00BF00BF00BF00BF013BF5
:10465000C3D1019300BF04B0704700BF0024F40031
:10466000F825002000B583B00190064A019BC2F8EE
:10467000083507211120FFF77DFF00BF03B05DF86B
:1046800004FB00BF0010014008B50D4B4FF4803211
:10469000C3F844230A4B4FF48032C3F8042311209B
:1046A000FFF750FF1120FFF707FF054B01221A60AB
:1046B0002F20FFF787FF034B01221A7000BF08BDB0
:1046C00000100140D63C002008B51120FFF70AFF7A
:1046D0000E4B4FF48032C3F848230C4B4FF480321A
:1046E000C3F80823094B01225A602F20FFF76AFF05
:1046F000064B01229A60064B00221A602F20FFF71A
:1047000061FF044B00221A7000BF08BD0010014079
:10471000C83C0020D63C0020024BD3F80435184694
:10472000704700BF0010014082B001900091019AD3
:10473000009BD31A23F07F43184602B07047000055
:1047400082B00190034A019BC2F8403500BF02B01D
:10475000704700BF0010014086B00190284B1B68D5
:10476000002B03D1264A019B136045E0019B1A6888
:10477000234B1B681B689A4210D8214B1B68196891
:10478000019B1A681E4B1B688A1A1A601C4B1A6818
:10479000019BDA611A4A019B13602DE0019B1B68A3
:1047A0000393174B1B680593154B1B68049309E093
:1047B000049B1B68039AD31A0393049B0593049BE1
:1047C000DB690493049B002B04D0049B1B68039AB1
:1047D0009A42EDD8049B002B05D0049B1A68039BDA
:1047E000D21A049B1A60019B039A1A60019B049AD7
:1047F000DA61059B019ADA6100BF06B0704700BF1D
:10480000C43C002000B587B001902A4B1B6803937D
:10481000284B1B680593059B049308E0049A019BB1
:104820009A4208D0049B0593049BDB690493049B84
:10483000002BF3D100E000BF049B002B01D100232B
:1048400033E0059A049B9A4214D11A4B1B68DB692A
:10485000184A1360174B1B68002B0BD1164B012213
:104860009A60164B00221A60154B01221A702F20F5
:10487000FFF7A8FE049B1B680293049BDA69059B63
:10488000DA61059BDB690493049B002B05D0049B34
:104890001A68029B1A44049B1A60064B1B68039A11
:1048A0009A4214BF01230023DBB2184607B05DF81B
:1048B00004FB00BFC43C002000100140C83C0020A5
:1048C000D73C002008B51120FFF724FE00BF08BD2B
:1048D00008B51420FFF71EFE00BF08BD00B583B069
:1048E0000190019B5B69019A92691046984700BF4D
:1048F00003B05DF804FB000000B585B02B4B1B68CE
:10490000002B4ED000230193FFF706FF0246284BF1
:104910001B6819461046FFF707FF0290234B1B68E0
:1049200003931DE0039B1B68029A9A421CD3039BCE
:104930001B68029AD31A0293039B1B68019A1344C3
:104940000193039B0093039BDB690393009B1B7CF8
:10495000002B05D0009B00221A740098FFF7BEFFC1
:10496000039B002BDED100E000BF124B1A78124BE4
:104970001B789A420CD1104B1B780133DAB20E4BE4
:104980001A700D4B1B78022B02D10B4B00221A70B0
:10499000094B1B781946094A019B42F82130FFF761
:1049A00097FF00BF05B05DF804FB00BFC43C0020CA
:1049B000C83C0020D43C0020D53C0020CC3C00204A
:1049C00082B00190184B1A78184B1B789A4223D06A
:1049D000154B1B780133DAB2134B1A70124B1B784C
:1049E000022B02D1104B00221A700F4B1B781A4673
:1049F0000F4B53F82220019B1A60019B1A680D4B44
:104A00001B6813440B4A13600A4B1B6823F07F4357
:104A1000084A1360012303E0019B00221A6000236F
:104A2000184602B0704700BFD43C0020D53C00209F
:104A3000CC3C0020C83C002088B003900291019239
:104A40000023079338E0204B1B680693069B1B68E6
:104A5000039A9A4206D2069B1A68039BD21A069BB7
:104A60001A602DE0069B1B68039AD31A0393069BDA
:104A70001B68079A13440793069B00221A60124B87
:104A80001B680593069BDB690F4A1360069BDB6876
:104A9000002B11D0029A079B134423F07F42069B00
:104AA0005A60069BDA68069B9A60019B1A68069B0F
:104AB000DA61019B059A1A60034B1B68002BC2D177
:104AC00000BF08B0704700BFC43C002000B589B0EB
