:020000021000EC
:10F000000000012033F10100D9F00100DBF0010024
:10F01000DDF00100DFF00100E1F001000000000080
:10F02000000000000000000000000000E3F001000C
:10F03000E5F0010000000000E7F00100E9F0010048
:10F0400095390200EDF00100B95802007DE00200A0
:10F05000F3F00100F5F001003143020081B302003A
:10F06000FBF00100FDF00100FFF0010069E8020083
:10F0700003F1010005F1010007F1010009F10100B0
:10F080000BF101008D6702000FF1010011F1010089
:10F09000CD67020015F10100957B020019F1010016
:10F0A0001BF101001DF101001FF1010021F1010020
:10F0B000E9AC020025F101000000000000000000A2
:10F0C00027F1010029F101002BF101002DF10100D0
:08F0D0002FF1010031F10100F4
:10F0D800FEE7FEE7FEE7FEE7FEE7FEE7FEE7FEE700
:10F0E800FEE7FEE7FEE7FEE7FEE7FEE7FEE7FEE7F0
:10F0F800FEE7FEE7FEE7FEE7FEE7FEE7FEE7FEE7E0
:10F10800FEE7FEE7FEE7FEE7FEE7FEE7FEE7FEE7CF
:10F11800FEE7FEE7FEE7FEE7FEE7FEE7FEE7FEE7BF
:10F12800FEE7FEE7FEE7FEE7FEE70348854600F058
:10F13800D1F800F003B8704700000120374938487B
:10F148000A1A02D0072291438D46364936480A1AD0
:10F1580006D00722914381F30988022282F314889A
:10F1680032483349334A00F048F833483349344A7F
:10F1780000F043F833483449344A00F03EF8344844
:10F188003449354A00F039F834483549354A00F0F1
:10F1980034F835483549364A00F02FF835483649AD
:10F1A800364A00F02AF836483649374A00F025F83A
:10F1B80036483749002200F02BF8364836490022F5
:10F1C80000F026F835483649091A082903DB0022D9
:10F1D8000260043001601F481F49884205D0026858
:10F1E800043003B4904703BCF7E700208646EC469A
:10F1F800002000212B4A9047FEE7884207D0521A88
:10F2080005D0037801300B700131013AF9D170470C
:10F21800884202D002700130FAE7704700000120EE
:10F2280000FC002000000120000001206C330300D6
:10F23800F825002050260020B0F20100B0F20100AD
:10F248002C1303006C330300F8250020F825002058
:10F258002C1303002C1303002C1303002C1303009E
:10F268002C1303002C1303002C1303002C1303008E
:10F278006C330300C43303005026002050260020BE
:10F28800C4330300502600205026002050260020BA
:10F29800B44F0020B44F0020BC4F0020BC4F0020CA
:08F2A800BC530020E11102003B
:10F2B00000487047AC4F0020704770477047704758
:10F2C0007047704711F067BC024B034A1A6000BFD9
:10F2D000704700BFF82500200090D00308B500F06B
:10F2E0000DF90346002B06D0744B1B681B0A744AA9
:10F2F00003F01F03136000F02DF90346002B02D02A
:10F30000704B714A1A6000F041F90346002B06D099
:10F310006E4B1B685B0B6E4A03F00703136000F033
:10F3200061F90346002B05D06A4BDB68694A23F07C
:10F330008073D36000F072F90346002B0ED04FF0BB
:10F3400080430022C3F80C214FF080430022C3F811
:10F3500010214FF080430022C3F8382500F08AF9CD
:10F360000346002B02D05C4B03221A6000F09EF98A
:10F370000346002B0BD0594B05221A60584B012233
:10F380001A60584B00221A60574B3F221A6000F057
:10F39000A9F90346002B76D04FF08053534AD3F897
:10F3A0000434C2F820354FF08053504AD3F8083463
:10F3B000C2F824354FF080534C4AD3F80C34C2F8CD
:10F3C00028354FF08053494AD3F81034C2F82C3511
:10F3D0004FF08053454AD3F81434C2F830354FF01B
:10F3E0008053424AD3F81834C2F834354FF0805372
:10F3F0003E4AD3F81C34C2F840354FF080533B4AA4
:10F40000D3F82034C2F844354FF08053374AD3F84C
:10F410002434C2F848354FF08053344AD3F82834A6
:10F42000C2F84C354FF08053304AD3F82C34C2F830
:10F4300050354FF080532D4AD3F83034C2F854354C
:10F440004FF08053294AD3F83434C2F860354FF076
:10F450008053264AD3F83834C2F864354FF08053CD
:10F46000224AD3F83C34C2F868354FF080531F4A23
:10F47000D3F84034C2F86C354FF080531B4AD3F8B0
:10F480004434C2F8703500F049F90346002B05D02A
:10F49000174B1B68174A03F04F031360164BD3F842
:10F4A0008830154A43F47003C2F88830BFF34F8F99
:10F4B000BFF36F8FFFF708FF00BF08BD24030010E4
:10F4C0004035014074C007400DF0ADBA4402001051
:10F4D0003C050040F0ED00E0A00500401056004063
:10F4E00088560040185600401456004000C00040A6
:10F4F00058020010E40E004000ED00E0124B1B68C3
:10F50000DBB2062B1DD1114B1B6803F00F03002B40
:10F5100017D10F4B1B6803F0F003302B01D10123EF
:10F5200010E00B4B1B6803F0F003402B01D10123CB
:10F5300008E0074B1B6803F0F003502B01D10123B7
:10F5400000E0002318467047E00F00F0E40F00F0E1
:10F55000E80F00F00A4B1B68DBB2062B0DD1094BFC
:10F560001B6803F00F03002B07D1074B1B6803F048
:10F57000F003302B01D1012300E00023184670472F
:10F58000E00F00F0E40F00F0E80F00F0124B1B68F2
:10F59000DBB2062B1DD1114B1B6803F00F03002BB0
:10F5A00017D10F4B1B6803F0F003302B01D101235F
:10F5B00010E00B4B1B6803F0F003402B01D101233B
:10F5C00008E0074B1B6803F0F003502B01D1012327
:10F5D00000E0002318467047E00F00F0E40F00F051
:10F5E000E80F00F00A4B1B68DBB2062B0DD1094B6C
:10F5F0001B6803F00F03002B07D1074B1B6803F0B8
:10F60000F003302B01D1012300E00023184670479E
:10F61000E00F00F0E40F00F0E80F00F0124B1B6861
:10F62000DBB2062B1DD1114B1B6803F00F03002B1F
:10F6300017D10F4B1B6803F0F003302B01D10123CE
:10F6400010E00B4B1B6803F0F003402B01D10123AA
:10F6500008E0074B1B6803F0F003502B01D1012396
:10F6600000E0002318467047E00F00F0E40F00F0C0
:10F67000E80F00F00A4B1B68DBB2062B0DD1094BDB
:10F680001B6803F00F03002B07D1074B1B6803F027
:10F69000F003302B01D1012300E00023184670470E
:10F6A000E00F00F0E40F00F0E80F00F00A4B1B68D9
:10F6B000DBB2062B0DD1094B1B6803F00F03002BA7
:10F6C00007D1074B1B6803F0F003302B01D1012356
:10F6D00000E0002318467047E00F00F0E40F00F050
:10F6E000E80F00F00A4B1B68DBB2062B0DD1094B6B
:10F6F0001B6803F00F03002B07D1074B1B6803F0B7
:10F70000F003502B01D1012300E00023184670477D
:10F71000E00F00F0E40F00F0E80F00F0124B1B6860
:10F72000DBB2062B1DD1114B1B6803F00F03002B1E
:10F7300017D10F4B1B6803F0F003302B01D10123CD
:10F7400010E00B4B1B6803F0F003402B01D10123A9
:10F7500008E0074B1B6803F0F003502B01D1012395
:10F7600000E0002318467047E00F00F0E40F00F0BF
:10F77000E80F00F082B003468DF807309DF807309F
:10F7800003F01F0206499DF907305B09012000FACA
:10F7900002F2603341F8232000BF02B0704700BF7F
:10F7A00000E100E076DF704700BF18467ADF70475F
:10F7B00000BF18467CDF704700BF18467FDF7047E8
:10F7C00000BF18468ADF704700BF18468FDF7047BA
:10F7D00000BF1846A8DF704700BF1846A9DF704772
:10F7E00000BF184669DF704700BF184666DF7047E4
:10F7F00000BF184682B00190019B1B781AB2019B92
:10F8000001331B781B021BB213431BB29BB2184679
:10F8100002B070473EDF704700BF184682B00190CB
:10F820004FF0A043184602B0704700B585B0019074
:10F83000084611461A4603468DF803300B468DF8EC
:10F84000023013468DF8013001AB1846FFF7E6FF92
:10F8500003909DF803209DF802305B001A439DF849
:10F8600001309B001A439DF818301B0242EA030145
:10F870009DF81C301B04019A1943039B02F5E072AA
:10F8800043F8221000BF05B05DF804FB00B585B059
:10F8900003900B468DF80B309DF80B20002301934D
:10F8A000002300931346002200210398FFF7BDFFB9
:10F8B00000BF05B05DF804FB00B585B0019001AB59
:10F8C0001846FFF7ABFF0390039800F00AF80246D2
:10F8D000019B22FA03F303F00103184605B05DF81B
:10F8E00004FB82B00190019BD3F81035184602B09A
:10F8F0007047000084B00190244B0393019B002BC0
:10F9000040D0234B1A680399019B00BF00BF00BF82
:10F9100000BF00BF00BF00BF00BF8A422FD000BFA2
:10F9200000BF00BF00BF00BF00BF00BF00BF00BFDF
:10F9300000BF00BF00BF00BF00BF00BF00BF00BFCF
:10F9400000BF00BF00BF00BF00BF00BF00BF00BFBF
:10F9500000BF00BF00BF00BF00BF00BF00BF00BFAF
:10F9600000BF00BF00BF00BF00BF00BF00BF00BF9F
:10F9700000BF00BF00BF00BF00BF00BF00BF013B12
:10F98000C3D1019300BF04B0704700BF0024F4004E
:10F99000F825002000B583B00190019B4FF47A72E6
:10F9A00002FB03F31846FFF7A5FF00BF03B05DF8A5
:10F9B00004FB82B003468DF807309DF80730012B19
:10F9C00003D0022B03D0002B02E000BF00E000BFF9
:10F9D00000BF02B07047000000B585B00190019BE8
:10F9E0001B788DF80F309DF80F30062B3FD801A201
:10F9F00052F823F011FA010033FA01003DFA010038
:10FA000047FA010051FA01005BFA010065FA0100B2
:10FA1000019B1B798DF80E30019B5B88ADF80C3093
:10FA2000BDF80C209DF80E301549032007F0F9FCB5
:10FA300022E01449032007F0CFFC1DE01249032007
:10FA400007F0CAFC18E01149032007F0C5FC13E0D9
:10FA50000F49032007F0C0FC0EE00E49032007F019
:10FA6000BBFC09E00C49032007F0B6FC04E00B499D
:10FA7000032007F0B1FC00BF00BF05B05DF804FB38
:10FA800040130300A0130300D0130300001403006D
:10FA90003014030068140300B0140300E4140300DE
:10FAA00000B587B0F1EE103A0193019B23F09F035C
:10FAB0000293029BE1EE103AF1EE103A03932620F6
:10FAC000FFF758FEFFF7A6FE0590059B0493049BE5
:10FAD000002B04D0044A9721049805F001FF00BFD1
:10FAE00007B05DF804FB00BF3815030000B589B00E
:10FAF0000190009100238DF81B30019B1B680622AA
:10FB00001946009810F0BEFB0346002B03D10123D9
:10FB10008DF81B3002E000238DF81B309DF81B3060
:10FB200083F00103DBB2002B2ED000230593019B51
:10FB30005B68002B28DD019B5B68013B079318E0A5
:10FB4000059B009A13441B789DF813209A4205D117
:10FB500001238DF81B300F4B039304E000238DF835
:10FB60001B300D4B0393059B01330593079B013B12
:10FB70000793019B1A68079B13441B788DF8133079
:10FB8000079B052BDCD900BF9DF81B30184609B038
:10FB90005DF804FB841503008C15030000B585B0E7
:10FBA0000190019B5B68002B18DD0023039307E0A5
:10FBB000029A03990B4810F0BDFB039B013303939A
:10FBC000019B5B681A46039B934207D2019B1A680C
:10FBD000039B9B0013441B680293E9E700BF05B039
:10FBE0005DF804FB9C15030000B589B00190019BF2
:10FBF0005B68002B37DD002307931AE00023069390
:10FC000008E09DF8173019461A4810F093FB069B40
:10FC100001330693039B1A46069B934206D2029A2F
:10FC2000069B13441B788DF81730EAE7079B0133D6
:10FC30000793019B5B681A46079B934213D2019B73
:10FC40001968079A13465B0013449B00CA1802AB5D
:10FC500007CA83E807000799074810F06BFB039B6E
:10FC6000002BE3DDCAE7054810F064FB00BF09B0D4
:10FC70005DF804FB94150300B0150300C0150300E4
:10FC800070B5ACB00790079B5B68002B44DD002388
:10FC90002B932EE0289B1B781E46289B01331B7854
:10FCA0001A46289B02331B781946289B03331B787E
:10FCB0001C46289B04331B781D46289B05331B7864
:10FCC00008A80493039502940191009233462B9A5D
:10FCD000154910F063FB08AB1946144810F02AFBD5
:10FCE00008AB20221946124803F046FD2B9B013336
:10FCF0002B93079B5B681A462B9B93420CD2079B66
:10FD000019682B9A13465B0013449B00CA1828AB52
:10FD100007CA83E80700BDE708AB1946034810F09F
:10FD200009FB00BF2CB070BDC4150300F41503001F
:10FD30005026002000B58FB003900291019200235D
:10FD40008DF82F3008AB0C220021184610F077FEFA
:10FD5000039B5B68002B34DD00230D930AE0089AB7
:10FD6000099B591C099113449DF82F201A700D9B73
:10FD700001330D93039B5B681A460D9B934220D27F
:10FD8000039B19680D9A13465B0013449B00CA1825
:10FD900005AB07CA83E8070005AB02991846FFF7D1
:10FDA000A5FE03468DF82F3008AB03F1080208AB1F
:10FDB000191D08A801230EF061FC0346002BD6D1C3
:10FDC000CDE700230C9308E0089A0C9B13441B78A2
:10FDD000002B07D10C9B01330C93099B0C9A9A4280
:10FDE000F2DB00E000BF099B0C9A9A4202D14FF06F
:10FDF000FF330C93019B0C9A1A600C9BB3F1FF3FED
:10FE00000BD1089B184610F0CDF908AB0C2200214D
:10FE1000184610F014FE00230AE0089B184610F064
:10FE2000C1F908AB0C220021184610F008FE01238E
:10FE300018460FB05DF804FB00B58BB00F4810F00A
:10FE400079FA0F4B1B68002B11D10E4B099301ABB4
:10FE50000999184610F0A2FA099810F06CFE0346B2
:10FE60009AB201AB1946084803F086FC02E0074845
:10FE7000FFF706FF00BF0BB05DF804FB0C16030094
:10FE8000F4360020301603005026002018370020DA
:10FE900010B5ADF5825D84B004AB043B186000235F
:10FEA0000DF5825202F10C02136000230DF582520F
:10FEB00002F10802136000230DF5825202F10302E1
:10FEC00013700CAB043B0C220021184610F0B7FD58
:10FED0000CAB103B0C220021184610F0B0FD04AB17
:10FEE000043B9949186810F08FFA0DF5825303F11D
:10FEF00004031860FCE00DF5825303F10C031B684A
:10FF0000002B55D10DF5825303F1040319688F4876
:10FF100010F010FA8E490DF5825303F104031868AE
:10FF200010F0E2FD0346002B0ED18A4810F002FAD1
:10FF300001230DF5825202F108021360864B1B6803
:10FF40000133854A136033E084490DF5825303F190
:10FF50000403186810F0C8FD0346002B0ED180483A
:10FF600010F0E8F902230DF5825202F10802136045
:10FF7000794B1B68013B784A136019E079490DF50C
:10FF8000825303F10403186810F0AEFD0346002B02
:10FF900002D1FFF751FF0BE000230DF5825202F171
:10FFA0000802136001230DF5825202F1030213705F
:10FFB0000DF5825303F10C031B68012B45D10DF5A0
:10FFC000825303F108031B68012B3ED114AB183B8D
:10FFD0004FF480520021184610F031FD0DF5825388
:10FFE00003F10403186810F0A6FD024614AB183B99
:10FFF0000DF5825101F104010968184610F0F6FC74
:020000022000DC
:1000000014AB183B0DF5815202F11C02136014ABC6
:10001000183B1946544810F08DF90023009304232F
:10002000524A534953480EF05AFB0346002B07D15E
:10003000504B1B680DF5815202F11C0212681A60C8
:100040004C4B5B6801334B4A53600DF5825303F10F
:100050000C031B68012B30DD102200210DF58253AB
:1000600003F10403186810F005FA03460DF58152F8
:1000700002F11A0213800CAB103B03F108020CAB27
:10008000103B191D0CA8103801230EF0F7FA034697
:10009000002B12D10CAB103B19680CAB103B5A680B
:1000A000501C0CAB103B586013460B440DF58152AD
:1000B00002F11A021288D2B21A702349002010F0FD
:1000C000A3F90DF5825303F1040318600DF5825373
:1000D00003F103031B78002B13D10DF5825303F1B9
:1000E0000C031B6801330DF5825202F10C02136000
:1000F0000DF5825303F104031B68002B7FF4FBAE64
:1001000000E000BF0DF5825303F108031B68012BCB
:1001100038D1002300930C23174A184918480EF0D1
:10012000DEFA0346002B08D1154B1A680CAB103BC6
:10013000144693E8070084E80700114B5B6801331D
:100140000F4A536082E000BF4416030048160300C4
:100150004C16030054160300F436002078160300F2
:1001600080160300A8160300B01603002C370020E9
:100170002837002024370020203700201C3700209B
:10018000183700200DF5825303F108031B68022B7A
:100190005CD10CAB103B1B681A780CAB1C3B1A7083
:1001A0000CAB103B1B685A780CAB1C3B5A700CAB69
:1001B000103B1B689A780CAB1C3B9A700CAB103B45
:1001C0001B68DA780CAB1C3BDA700CAB103B1B687D
:1001D0001A790CAB1C3B1A710CAB103B1B685A799B
:1001E0000CAB1C3B5A710CAA143A0CAB1C3B1946C5
:1001F0001C48FFF79FFD03460DF5815202F11902DD
:1002000013700CAB143B1B681946174810F092F89A
:100210000DF5815303F119031B78002B16D0002331
:100220000DF5815202F1180213700CAB143B1B68E0
:100230000122019200930C230C4A0D4909480EF04B
:100240007EFA084B5B68013B064A53600948FFF79A
:10025000A5FC0448FFF7C8FC002318460DF5825D95
:1002600004B010BD18370020C81603002037002046
:100270001C3700202437002000B583B00948FFF761
:10028000A1FA0190019B0093009B002B05D0064A28
:1002900040F26B11009805F023FB00BF03B05DF83E
:1002A00004FB00BF381A03003815030088B003466A
:1002B000029101928DF80F3000230793029B1B6877
:1002C000069327E0069A079B13441B788DF8173096
:1002D000079B0133069A13441B788DF816309DF85E
:1002E00016209DF80F309A420ED1079B0233069AD2
:1002F0001A44019B1A609DF817309BB2013B9AB2D9
:10030000019B9A8000230CE09DF81720079B134463
:1003100001330793029B9B881A46079B9342D1D3D4
:100320000523184608B0704700B589B001900091C8
:10033000019B10330593019BDB7BC3F3C403DBB24A
:100340009BB2ADF8183003AA05AB19460920FFF798
:10035000ADFF0790079B002B0BD1039BBDF810202E
:10036000194600980FF08EFF0346002B19D1012388
:1003700018E003AA05AB19460820FFF797FF07907E
:10038000079B002B01D000230CE0039BBDF810203D
:10039000194606480FF076FF0346002B01D10123D2
:1003A00000E00023184609B05DF804FB181A0300AA
:1003B00000B58BB001900B46ADF80230019B1033B5
:1003C0000593019BDB7BC3F3C403DBB29BB2ADF8A7
:1003D000183003AA05AB19460220FFF767FF089003
:1003E000089B002B0BD003AA05AB19460320FFF78F
:1003F0005DFF0890089B002B01D0002320E0002324
:10040000099314E0039A099B5B0013441846FFF715
:10041000F1F90346ADF81E30BDF81E20BDF80230DC
:100420009A4201D101230BE0099B01330993BDF8E6
:1004300010305B089BB21A46099B9342E2D300231B
:1004400018460BB05DF804FB00B589B00190019B24
:1004500004330793274B1A78274B1A70079B0433F2
:100460000693079B0433254A1360244B1B68013312
:10047000234A1360214B1B680133224A1360224B2D
:100480000593204B1B6803AA19462048FFF752FC2E
:1004900003468DF813309DF81330002B1FD0174BF7
:1004A0001B6893F90E300593194B01221A70194BF2
:1004B0001B78002B05D0059B1A461749032006F030
:1004C0009CFF6FF02702059B934204DB094B01223E
:1004D0001A70012309E0074B00221A7004E00C4B4C
:1004E00000221A70084B05930023184609B05DF8E6
:1004F00004FB00BFF0360020F2360020E836002072
:10050000EC360020E4360020F0D8FFFF183700203A
:10051000F136002014370020E416030000B587B040
:100520009DF80030012262F303038DF800309DF83E
:100530000030012262F307138DF800301E4810F0DE
:10054000FAFA03469AB26B461B491846FFF732F98E
:100550000590059B0493049B002B05D0174A40F29D
:10056000F711049805F0BCF901AB082200211846E8
:1005700010F065FA1023ADF804303C23ADF80630D6
:100580000023ADF808304FF4C873ADF80A3001AB62
:100590001846FFF70BF90590059B0393039B002B6F
:1005A00005D0064A40F20121039805F099F900BFF1
:1005B00007B05DF804FB00BF1C17030038150300EB
:1005C00000B589B0039002911346ADF806302E496C
:1005D000032006F001FF0298FFF75AFC06904FF443
:1005E00080520021294810F02AFABDF806301A4638
:1005F0000299264810F0FAF9244B1A4624490320A0
:1006000006F0FBFE0023079325E0029A079B1344A4
:100610001B78184606F04AFB069000230693069BBB
:10062000002B12D0069B112B0FD0069A19490120DE
:1006300006F0E3FE069B0593059B002B05D0164AAA
:1006400040F22721059805F04BF9069B112BDCD0D1
:10065000079B01330793BDF80630079A9A42D4D31B
:10066000BDF80630013B029A13441B780D2B06D1CE
:1006700000BF0A2006F01AFB0346112BF9D000BF79
:1006800009B05DF804FB00BF28170300D026002046
:100690006C1703009C1703003815030000B585B0E4
:1006A00001AB04220021184610F0C9F90D4B01934B
:1006B00001AB19460C4803F007F80390039B029323
:1006C000029B002B05D0094A4FF41071029805F0E7
:1006D00007F90749032006F07FFE00BF05B05DF86B
:1006E00004FB00BFC105020050260020381503009E
:1006F000D417030000B585B00190019B1B78002B37
:1007000011D10B4B1B883B211846FFF74BF8039088
:10071000039B0293029B002B05D0064A40F257210F
:10072000029805F0DDF800BF05B05DF804FB00BFDE
:10073000FC2500203815030000B583B00190054A60
:1007400040F26221019805F0CBF800BF03B05DF8DC
:1007500004FB00BF3815030000B585B001900023ED
:10076000039327E0174A039B12F83330002B1ED067
:10077000144A039BDB0013445B78C3F34603DAB2ED
:10078000019B1B78C3F34603DBB29A420FD1039B54
:10079000DB000C4A1344981C019B013306221946C6
:1007A0000FF070FD0346002B01D1012306E0039BEF
:1007B00001330393039B012BD4D90023184605B0C2
:1007C0005DF804FB6C26002000B58BB001AB1C2249
:1007D0000021184610F033F9002301934FF4203321
:1007E00002934FF47023039303238DF810300023FA
:1007F000ADF8123000238DF814300C4B06930C4BDF
:10080000079301AB184602F05BF90990099B089326
:10081000089B002B05D0074A40F28521089805F077
:100820005FF800BF0BB05DF804FB00BFF5060200E7
:10083000390702003815030082B003468DF80730EF
:100840009DF80730002B01D0032B00E000BF00BF54
:1008500002B070470000000010B596B00190019BF7
:1008600004331593C64B1B68002B03D1C54B1B6883
:10087000C54A13600DF0ACFF0246C44B1A60C34B6F
:100880001B6818460FF0EAFF0246C14B1A60C04BC6
:100890001A68BD4B1B68D31A18460EF0E7FAB6A3C8
:1008A000D3E900230EF084FD03460C46184621468A
:1008B0000EF047FB0246B74B1A60B64BD3ED007AF9
:1008C000B7EE007AF4EEC77AF1EE10FA03DBB04B24
:1008D0001B68AD4A1360AA4B1B680133A84A13601A
:1008E000019B1B88013B552B00F2138201A252F899
:1008F00023F000BF4B0B0200130D0200130D02008A
:10090000130D0200130D0200130D0200130D02005F
:10091000130D0200130D0200130D0200130D02004F
:10092000130D0200130D0200130D0200130D02003F
:100930004D0A02005F0A0200130D0200710A020054
:10094000130D0200130D0200130D0200130D02001F
:10095000130D0200130D0200130D0200130D02000F
:10096000130D0200250C0200130D0200130D0200EE
:10097000130D02009B0A0200130D0200130D02006A
:10098000130D0200130D0200130D0200130D0200DF
:10099000130D0200130D0200130D0200130D0200CF
:1009A000130D0200130D0200130D0200130D0200BF
:1009B000130D0200130D0200130D0200130D0200AF
:1009C000130D0200130D0200130D0200130D02009F
:1009D000130D0200130D0200130D0200FB0A0200AA
:1009E000130D0200130D0200130D0200130D02007F
:1009F000130D0200130D0200130D0200130D02006F
:100A0000130D0200130D0200130D0200130D02005E
:100A1000130D0200130D0200130D0200130D02004E
:100A2000130D0200130D0200130D0200130D02003E
:100A3000130D0200A90B0200D10A0200130D0200DF
:100A4000130D0200130D0200230B0200019B9A8874
:100A5000514B1A805149032006F0BEFC6AE14E4B0F
:100A60004FF6FF721A804E49032006F0B5FC61E193
:100A7000494B1888002300228521FEF79FFE149021
:100A8000149B1393139B002B00F04581454A40F2C1
:100A9000DF21139804F024FF3DE10AAB0822002176
:100AA00018460FF0CCFF019B9B880AA9002218462C
:100AB000FEF78CFE1490149B1293129B002B00F0F7
:100AC0002C81384A40F2E921129804F009FF24E110
:100AD000314B1888002300220021FEF77FFE14907E
:100AE000149B1193119B002B00F019812D4A40F2A9
:100AF000EF21119804F0F4FE11E1019B9B88132172
:100B00001846FEF74FFE1490149B1093109B002B79
:100B100000F00781234A40F2F621109804F0E0FE2D
:100B2000FFE0019B9B8813211846FEF73BFE1490C3
:100B3000149B0F930F9B002B00F0F580194A40F295
:100B4000FD210F9804F0CCFEEDE0019B9B88002175
:100B50001846FEF74BFE1490149B0E930E9B002B31
:100B600000F0E3800F4A40F202310E9804F0B8FE24
:100B7000DBE000BFAFF300800000000000AAAE4041
:100B80000C370020F8360020FC3600200437002007
:100B90000037002008370020FC250020041803003F
:100BA0001C18030038150300019B06AC06331868B7
:100BB00059689A68DB680FC49DF81830002B00F064
:100BC000B6809DF82030042B08D09DF82030062BED
:100BD00004D09DF82030052B40F0A9809DF81830F6
:100BE000022B03D102238DF8083002E001238DF897
:100BF00008304FF4C173ADF80C30019B9B8802AAFA
:100C000011461846FEF7E6FD1490149B0D930D9BBC
:100C1000002B00F08C80494A40F21D310D9804F001
:100C20005FFE84E000238DF8333000238DF83230EE
:100C3000434B1B68002B2FDD0198FFF705FC034693
:100C40008DF832309DF83230002B0ED03D4B002213
:100C50001A603D4B00221A703C4B1B78002B21D0B0
:100C60003B49032006F0B8FB1CE0364B1B68013300
:100C7000344A1360334B1A68364B1B689A4211DBB7
:100C8000314B01221A70314B1B78002B0AD03249AC
:100C9000032006F0A1FB05E02A4B00221A602A4B34
:100CA00001221A70159B04331846FFF755FD0346C1
:100CB000002B04D02949032006F08EFB3AE0284897
:100CC0000FF039FF0346002B10D0159B0433244945
:100CD0001846FFF729FB0346002B2AD021490320A1
:100CE00006F07AFB01238DF8333022E0159B0433A4
:100CF00001211846FFF75CFB0346002B19D01A4B65
:100D00001B884FF6FF72934213D101238DF83330C5
:100D10000FE000BF0EE000BF0CE000BF0AE000BF24
:100D200008E000BF06E000BF04E000BF02E000BF33
:100D300000E000BF00BF16B010BD00BF38150300B3
:100D4000F4360020103700200C2600201437002035
:100D50003418030008260020501803006C18030004
:100D6000241A0300A4180300FC25002000B583B05A
:100D70000190019801F0D6FF01990A4802F080FA2B
:100D80000199094802F072FC0198FFF765FD01988E
:100D900001F0FAFD019800F04BFC00BF03B05DF8D4
:100DA00004FB00BF7C2600205026002000B58FB039
:100DB000554B1B68049304A80023D822534906F01E
:100DC00081FE0D900D9B0C930C9B002B05D0504A7F
:100DD0004FF45C710C9804F083FD0023039303AB84
:100DE000184606F00FFF0B900B9B0A930A9B002BF3
:100DF00005D0474A40F275310A9804F071FD6B4600
:100E00000C22002118460FF01AFE01238DF8003045
:100E100000238DF8013000238DF80230039A6B46D1
:100E200019464020FEF7DEFC0B900B9B0993099BB3
:100E3000002B05D0364A4FF46071099804F050FD3C
:100E40006B460C22002118460FF0F9FD01238DF8A6
:100E500000309E23ADF80230039A6B4619462320DA
:100E6000FEF7C0FC0B900B9B0893089B002B05D052
:100E7000274A40F28731089804F032FD6B460C2275
:100E8000002118460FF0DBFD01238DF800304FF4F0
:100E9000A073ADF8043001238DF80230039A6B463D
:100EA00019462020FEF79EFC0B900B9B0793079B97
:100EB000002B05D0164A40F28F31079804F010FD40
:100EC00003AB184606F0AEFE0B900B9B0693069BF9
:100ED000002B05D00E4A40F29331069804F000FD35
:100EE0000C4806F047FE0B900B9B0593059B002BCF
:100EF00005D0074A40F29731059804F0F1FC00BF95
:100F00000FB05DF804FB00BFD41803003437002095
:100F1000381503006D0D020000B583B001900091FB
:100F2000009B5A880E4B1B889A4214D1009B1B8849
:100F300040F6772293420ED1009B9B88033B9AB2E6
:100F4000084B1A80074B1B881A46064B1B8806491C
:100F5000032006F066FA00BF03B05DF804FB00BF93
:100F6000FC25002004260020D818030000B585B019
:100F70001149124802F03CF90390039B0293029B33
:100F8000002B05D00E4A40F2AD31029804F0A8FCC7
:100F900040210A4802F057F90390039B0193019BFB
:100FA000002B05D0064A4FF46C71019804F098FCB0
:100FB00000BF05B05DF804FB190F02007C2600207D
:100FC0003815030000B585B00190019B1B78012BFB
:100FD00051D0022B46D0002B56D12F4B1B781A46EE
:100FE0002E4B1344184605F045FE2B4B1B7801335E
:100FF000DAB2294B1A702A49032006F0EDF9264B84
:101000001B78013B254AD35C0A2B06D0224B1B7868
:101010009AB2244B1B889A4238D32349032006F006
:10102000DBF91D4B1B789BB21A461C491F4802F086
:10103000A3FB0390039B082B0DD0039B112B0AD01D
:10104000039B0293029B002B05D0194A40F2F73113
:10105000029804F045FC039B112BE2D00E4B0022BA
:101060001A7013E0019B5B68114A4FF480611846C7
:1010700004F036FC0BE0019B5B680D4A40F2044132
:10108000184604F02DFC02E000BF00E000BF00BFE6
:1010900005B05DF804FB00BF0C38002010380020BC
:1010A00000190300042600203C19030050260020EC
:1010B0003815030030B58DB0134B04AC1D460FCD71
:1010C0000FC495E8030084E80300104B00934FF42D
:1010D000807301930E4B02934FF480730393694620
:1010E00004A807230B4A05F057FD0B900B9B0A93AE
:1010F0000A9B002B05D0084A40F225410A9804F0CB
:10110000EFFB00BF0DB030BD68190300AC38002004
:10111000AC390020C50F02003815030000B5ABB094
:1011200019AB3C22002118460FF089FC02238DF8F0
:10113000643000238DF8663005238DF867300AABE4
:101140003C22002118460FF07AFC0123ADF838301C
:10115000144B0F9302AB2022002118460FF06FFCB6
:1011600001238DF80B3040230693B423079302AA82
:101170000AA919A8002300930B4B01F017FA299034
:10118000299B2893289B002B05D0084A40F2434115
:10119000289804F0A5FB012001F0FAF900BF2BB05C
:1011A0005DF804FB00260020390802003815030012
:1011B00000B583B0002006F0B9F80190019B0093C0
:1011C000009B002B05D0054A40F24E41009804F0E8
:1011D00087FB00BF03B05DF804FB00BF38150300B8
:1011E00000B58BB09B4B00221A609B4B00221A600B
:1011F0009A4B1B6818460EF0D5FF0C220021974829
:101200000FF01DFC964B1B6818460EF0CBFF0C220E
:10121000002193480FF013FC0C2200218F480FF09F
:101220000EFC0C2200218E480FF009FC8D4A3C2157
:10123000082004F025FC0990099B0893089B002BCB
:1012400005D0894A40F28241089804F049FB05F034
:10125000C3FA0790079B0693069B002B05D0824A92
:1012600040F28441069804F03BFBFFF723FFFFF7B1
:101270009FFFFFF79BFDFFF751F9FFF777FEFFF7A1
:101280000DFAFFF74BFFFFF79FFA78480FF052F87F
:101290007749032006F0A0F8032001F08BFA0790AD
:1012A000079B0593059B002B05D06F4A40F29A419E
:1012B000059804F015FBFEF7DFFF0DF07DFC02231F
:1012C00003216C4A18460DF017FD6B480DF0FAFB30
:1012D0006A4A6B496B480DF0EFFA664B9A786A4B95
:1012E0001A706A49012007F0CFFA6949032006F015
:1012F00073F803210B20FEF7C9FA022100200AF03F
:1013000031FF022101200AF02DFF022102200AF004
:1013100029FF022103200AF025FF0DF059FA04905D
:1013200004980FF09BFA02465A4B1A60594B1B68FF
:10133000194659480EF0FEFF4FF47A70FEF72AFB6B
:1013400004F064FC0B20FEF7B7FA0346002B0CBF39
:1013500001230023DBB21A46504B1A60504900208B
:101360000BF0B2F803904F4901200BF0ADF8039059
:101370004D4902200BF0A8F803904C4903200BF0D4
:10138000A3F80390454B1B68012B0DD1454B1B68FF
:10139000012B09D13C4B1B78013B454A1360454961
:1013A000012007F071FA28E03C4B1B68002B0DD19F
:1013B0003C4B1B68002B09D1334B1B7801333C4A53
:1013C00013603D49012007F05FFA16E0334B1B68BC
:1013D000012B12D1334B1B68002B0ED13749012052
:1013E00007F052FA4FF47A7300934FF4FA73052220
:1013F000322140F6C4100DF01FFB314B1B78002B3F
:1014000004D03049002007F03FFA03E01F490020D4
:1014100007F03AFA264B1B68FE2B03DD1A4BFF221E
:101420001A700CE0224B1B68002B03DC164B0022C9
:101430001A7004E01E4B1B68DAB2134B1A70124B81
:101440001B7819460B4808F0E0FC0790FEF728FBD4
:1014500076E700BF0C370020103700201837002037
:1014600024370020AC3A002038150300A0190300EF
:10147000B019030098260020B3F90100C42600200B
:10148000D9F90100E09304000D2600203013030079
:10149000C8190300F8360020041A0300D0360020D3
:1014A000D4360020D8360020DC360020E03600207C
:1014B00030370020341303003C13030038130300BB
:1014C0000C2600202C13030084B001900B468DF8ED
:1014D000033013468DF8023000230393019B002B49
:1014E0003CD19DF80230012B0BD19DF80330012B2C
:1014F00004D1019BDBB20E33DBB200E000238DF898
:1015000002309DF80330012B04D0022B0CD0002BAD
:1015100015D01FE01449019A13465B0013440B4495
:101520009DF802201A701BE00F49019A13465B00D8
:1015300013440B4401339DF802201A7010E00A494D
:10154000019A13465B0013440B4402339DF80220BA
:101550001A7005E00723039300BF01E007230393FC
:10156000039B184604B070477C3E002000B583B052
:10157000012200210020FFF7A7FF0190019B002B13
:1015800004D0019B072B01D0019B1CE00722022104
:101590000120FFF799FF0190019B002B04D0019BD4
:1015A000072B01D0019B0EE0042202210020FFF74F
:1015B0008BFF0190019B002B04D0019B072B01D0D6
:1015C000019B00E00023184603B05DF804FB00B562
:1015D00083B0012202210020FFF776FF0190019BDA
:1015E000002B04D0019B072B01D0019B1CE007229C
:1015F00002210120FFF768FF0190019B002B04D01E
:10160000019B072B01D0019B0EE00A220021002044
:10161000FFF75AFF0190019B002B04D0019B072B81
:1016200001D0019B00E00023184603B05DF804FBE5
:1016300000B585B00190019B1B88102B02D0112BA7
:1016400018D02FE0194B1B68002B0DD1FFF78EFF30
:101650000390039B002B07D0154B1B68002B03D076
:10166000134B1B6803989847104B1B6801330F4AB4
:10167000136017E00D4B1B68013B0C4A13600B4BCA
:101680001B68002B0DD1FFF7A2FF0390039B002BDB
:1016900007D0074B1B68002B03D0054B1B68039832
:1016A000984700BF00BF05B05DF804FB843E0020F2
:1016B000803E00206DDF704700BF184672DF704724
:1016C00000BF184679DF704700BF18467DDF7047BE
:1016D00000BF184664DF704700BF184682B003465B
:1016E0000091ADF80630BDF80630DAB2009B1A70F2
:1016F000BDF806301B0A9AB2009B0133D2B21A70B1
:101700000223184602B0704700B589B003900291D9
:101710001346ADF80630029B1B8803F10902BDF8A1
:1017200006309A4201D90C2351E005AB1846FFF769
:10173000C1FF0790079B002B01D0079B47E0029B4E
:101740001B881A46039B134408221A70029B1B88AD
:1017500001339AB2029B1A80029B1B881A46039B94
:1017600013441B221A70029B1B8801339AB2029BFE
:101770001A80029B1B881A46039B981805AB0133FD
:10178000062219460FF032F9029B1B8806339AB2E3
:10179000029B1A809DF8143023F00103DBB2002B6A
:1017A00007D1029B1B881A46039B134400221A7020
:1017B00006E0029B1B881A46039B134401221A7001
:1017C000029B1B8801339AB2029B1A8000231846A1
:1017D00009B05DF804FB00B589B003900291019255
:1017E000ADF80230039B1B78012B05D1039B5B787E
:1017F000002B01D1072389E0019B1B889A1CBDF8AF
:1018000002309A420ED8039B1B78012B0CD1019B0E
:101810001B881A46039B5B7813449A1CBDF8023060
:101820009A4201D90C2371E0019B1B88BDF802206C
:10183000D31A9BB2023BADF81C30BDF81C30ADF89A
:101840001630019B1B880233029A13440DF11602D5
:1018500011461846FFF73AFF0690069B002B01D071
:10186000069B53E0039B1B78022B09D1BDF8163071
:10187000BDF81C209A4203D309238DF81F3017E0CE
:1018800008238DF81F30039B1B78012B0CD1039B81
:101890005B789BB2BDF81C209A4205D3039B5B7812
:1018A0009BB2ADF8163003E0BDF81C30ADF8163031
:1018B000BDF81630FE2B01D90C2327E0BDF81630F9
:1018C000DAB2019B1B881946029B0B440132D2B24B
:1018D0001A70019B1B8801339AB2019B1A80019BED
:1018E0001B881A46029B13449DF81F201A70019B07
:1018F0001B8801339AB2019B1A80019B1A88BDF89C
:10190000163013449AB2019B1A800023184609B07E
:101910005DF804FB00B587B0039002911346ADF863
:101920000630029B1B881A1DBDF806309A4201D969
:101930000C2339E00DF112031846FFF7C3FE0590A2
:10194000059B002B01D0059B2EE0029B1B881A46AD
:10195000039B134403221A70029B1B8801339AB223
:10196000029B1A80029B1B881A46039B1344192270
:101970001A70029B1B8801339AB2029B1A80BDF831
:101980001220029B1B881946039B0B4419461046E4
:10199000FFF7A4FE03461946029B1A888BB2134434
:1019A0009AB2029B1A800023184607B05DF804FB28
:1019B00084B0029101921A4603468DF80F30134607
:1019C000ADF80C30019B1B88DA1CBDF80C309A4234
:1019D00001D90C2328E0019B1B881A46029B134463
:1019E00002221A70019B1B8801339AB2019B1A8054
:1019F000019B1B881A46029B134401221A70019B0B
:101A00001B8801339AB2019B1A80019B1B881A46DE
:101A1000029B13449DF80F201A70019B1B88013311
:101A20009AB2019B1A800023184604B0704784B014
:101A3000029101921A4603468DF80F301346ADF815
:101A40000C30019B1B88DA1CBDF80C309A4201D97E
:101A50000C2328E0019B1B881A46029B1344022298
:101A60001A70019B1B8801339AB2019B1A80019B5B
:101A70001B881A46029B13440A221A70019B1B887A
:101A800001339AB2019B1A80019B1B881A46029B64
:101A900013449DF80F201A70019B1B8801339AB2E2
:101AA000019B1A800023184604B0704700B58BB024
:101AB000039001930B468DF80B3013468DF80A30D6
:101AC00000238DF823300C9B1B88ADF820300023B9
:101AD00009936DE0039B5A68099B9B001A4404AB71
:101AE000106818600DF1170104AB00221846FFF7CB
:101AF000F1FD0790079B002B01D0079B7AE09DF832
:101B000017309DF80A209A424FD19DF82330002BC0
:101B100001D0002300E002238DF81B300C9B1B88B2
:101B20001A469DF817301A449DF81B301A44BDF828
:101B300034309A4201DD0C235CE09DF8233083F0C1
:101B40000103DBB2002B16D00C9B1B8801339AB229
:101B50000C9B1A800C9B1B881A46019B13449DF812
:101B60000B201A700C9B1B8801339AB20C9B1A80B5
:101B700001238DF823300C9B1B881A46019B1A44C5
:101B80000DF1170104AB1846FFF7A4FD0790079B62
:101B9000002B01D0079B2DE00C9B1A889DF8173075
:101BA0009BB213449AB20C9B1A80099B0133099390
:101BB000039B1B881A46099B93428BDB9DF82330BD
:101BC000002B16D00C9B1A88BDF82030D31A9BB27C
:101BD000013BADF81830BDF81830FF2B01D90C23AC
:101BE00008E0BDF82030019A1344BDF81820D2B2A5
:101BF0001A70002318460BB05DF804FB00B589B0DD
:101C0000059003930B468DF8133013468DF8123070
:101C10009DF81310BDF82C3001930A9B0093039B91
:101C200002220598FFF742FF0790079B002B01D087
:101C3000079B12E09DF81210BDF82C3001930A9B0F
:101C40000093039B10220598FFF730FF0790079B36
:101C5000002B01D0079B00E00023184609B05DF877
:101C600004FB82B00190019B1B88052B0AD9019BC4
:101C70001B88B3F5486F07D9019B1B884FF6FF728D
:101C8000934201D0072325E0019B5B88052B0AD9ED
:101C9000019B5B88B3F5486F07D9019B5B884FF6C2
:101CA000FF72934201D0072314E0019B1B884FF67B
:101CB000FF7293420DD0019B5B884FF6FF729342F7
:101CC00007D0019B1A88019B5B889A4201D90723A0
:101CD00000E00023184602B0704700B587B00390BB
:101CE00002910192ADF80230019B1B889A1DBDF84C
:101CF00002309A4201D90C234BE00398FFF7B1FF61
:101D00000590059B002B01D0059B42E0019B1B88A1
:101D10001A46029B134405221A70019B1B8801334B
:101D20009AB2019B1A80019B1B881A46029B13449E
:101D300012221A70019B1B8801339AB2019B1A80F0
:101D4000039B1A88019B1B881946029B0B4419466A
:101D50001046FFF7C3FC03461946019B1A888BB255
:101D600013449AB2019B1A80039B5A88019B1B88DB
:101D70001946029B0B4419461046FFF7AFFC034679
:101D80001946019B1A888BB213449AB2019B1A80A0
:101D90000023184607B05DF804FB00B587B0039038
:101DA00002910192ADF80230039B9B8802330593A8
:101DB000019B1B881A46059B13449A1CBDF80230F0
:101DC0009A4201D90C2354E0059BFE2B01D90C2328
:101DD0004FE0059BDAB2019B1B881946029B0B441E
:101DE0000132D2B21A70019B1B8801339AB2019B57
:101DF0001A80019B1B881A46029B1344FF221A700B
:101E0000019B1B8801339AB2019B1A80039B1A889D
:101E1000019B1B881946029B0B4419461046FFF78D
:101E20005DFC03461946019B1A888BB213449AB293
:101E3000019B1A80039B9B88002B19D0039B9B68F6
:101E4000002B01D1072314E0019B1B881A46029B3B
:101E50009818039B9968039B9B881A460EF0C6FD51
:101E6000019B1A88039B9B8813449AB2019B1A809A
:101E70000023184607B05DF804FB00B589B0039055
:101E800002910192ADF80230039B9B6A002B01D1B5
:101E9000072372E000238DF81F3066E0039B996AE8
:101EA0009DF81F2013465B0013449B000B440693D0
:101EB000069B9B8802330593059BFE2B01D90C23BF
:101EC0005BE0059BDAB2019B1B881946029B0B4421
:101ED0000132D2B21A70019B1B8801339AB2019B66
:101EE0001A80019B1B881A46029B134416221A7003
:101EF000019B1B8801339AB2019B1A80069B1A88AA
:101F0000019B1B881946029B0B4419461046FFF79C
:101F1000E5FB03461946019B1A888BB213449AB21B
:101F2000019B1A80069B9B88002B19D0069B9B68FF
:101F3000002B01D1072320E0019B1B881A46029B3E
:101F40009818069B9968069B9B881A460EF04EFDD2
:101F5000019B1A88069B9B8813449AB2019B1A80A6
:101F60009DF81F3001338DF81F30039B93F82C3000
:101F70009DF81F209A4291D30023184609B05DF8BE
:101F800004FB00B589B005900491039200230793E8
:101F9000039B1B88ADF81A30039B00221A80059B17
:101FA00093F82D30002B0CD0BDF81A301A46039947
:101FB0000498FFF7A9FB0790079B002B01D0079B14
:101FC000C4E0059B9B78002B0CD0BDF81A301A4654
:101FD00003990498FFF79EFC0790079B002B01D004
:101FE000079BB3E0059BDB78002B0ED0059BDB78CD
:101FF00058B2BDF81A30039A0499FFF7D9FC07903C
:10200000079B002B01D0079BA0E0059B5B68002B82
:102010000FD0059B5B6893F90000BDF81A30039A56
:102020000499FFF704FD0790079B002B01D0079B45
:102030008CE0059B1B89002B12D0059B03F1080047
:10204000BDF81A300193039B0093049B06220221E2
:10205000FFF7D4FD0790079B002B01D0079B75E08D
:10206000059B1B8A002B12D0059B03F11000BDF8C5
:102070001A300193039B0093049B07220321FFF76F
:10208000BDFD0790079B002B01D0079B5EE0059BE1
:102090001B8B002B12D0059B03F11800BDF81A30E2
:1020A0000193039B0093049B15221421FFF7A6FDC7
:1020B0000790079B002B01D0079B47E0059B1B6AFD
:1020C000002B0DD0059B186ABDF81A30039A0499AD
:1020D000FFF703FE0790079B002B01D0079B35E01D
:1020E000059B5B6A002B0DD0059B586ABDF81A3022
:1020F000039A0499FFF751FE0790079B002B01D02C
:10210000079B23E0059B93F82C30002B0CD0BDF8E7
:102110001A30039A04990598FFF7AFFE0790079BC2
:10212000002B01D0079B11E0059B1B78002B0CD0E6
:10213000BDF81A30039A04990598FFF74CFB0790F5
:10214000079B002B01D0079B00E0079B184609B0B6
:102150005DF804FB82B00190019BDB7803F004037F
:10216000002B01D1072300E00023184602B070477E
:1021700082B00190019BDB78002B01D0072300E0A7
:102180000023184602B0704700B597B00190009147
:102190001F23ADF84A301F23ADF84830019B002BB8
:1021A00018D00198FFF7D6FF1390139B002B01D096
:1021B000139B3FE00DF14A020AAB19460198FFF765
:1021C000E0FE1390139B002B01D0139B32E00AAB6F
:1021D000159304E0002315930023ADF84A30009BCB
:1021E000002B17D00098FFF7C3FF1390139B002B11
:1021F00001D0139B1EE012AA02AB19460098FFF70C
:10220000C0FE1390139B002B01D0139B12E002AB76
:10221000149304E0002314930023ADF84830BDF874
:102220004A30D9B2BDF84830DBB2149A1598FFF79E
:1022300045FA0346184617B05DF804FB73DF704794
:1022400000BF1846014B1B78184670475E3F0020C0
:1022500084B00190002303930AE0019A039B134486
:102260001B78002B01D0012306E0039B013303936D
:10227000039B052BF1D90023184604B070470000DA
:1022800082B003468DF807309DF807305A1C074B83
:1022900083FB02135910D317C91A0B469B000B443A
:1022A000D11ACBB2184602B0704700BF67666666A7
:1022B00082B00190019BDB7B012B03D1019B9A88AB
:1022C000024B1A8000BF02B0704700BF503F002091
:1022D00000B585B001900E4B00221A70019B9A88C0
:1022E0000C4B1B889A420ED1012000F063FA039038
:1022F000039B002B07D0084B1B68002B03D0064B19
:102300001B680398984700BF05B05DF804FB00BF49
:102310005C3F0020503F0020583F002000B585B0B2
:102320000190019B1B7A002B15D10D4B1B78184691
:10233000FFF7A6FF0346184600F03CFA0390039B04
:10234000002B09D0074B1B68002B05D0054B1B68E1
:102350000398984700E000BF05B05DF804FB00BF9C
:102360008B3E0020583F002000B583B001AB1846DB
:1023700004F0B4FB019B002B14BF01230023DBB24C
:10238000184603B05DF804FB00B585B003468DF830
:1023900007301E48FFF75CFF03468DF80F309DF8AD
:1023A0000730013B032B2BD801A252F823F000BFCA
:1023B000C1230200D5230200E9230200F523020015
:1023C000134B5B78002B05D09DF80F30002B01D00C
:1023D000012316E00E4B9B78002B05D09DF80F30A3
:1023E000002B01D002230CE0094BDB78002B01D03D
:1023F000032306E0064B1B79002B01D0042300E0E9
:102400000023184605B05DF804FB00BFB13E002074
:102410008C3E002082B00190094B01221A70019B72
:10242000084A5A60019B01221A70019B00229A817E
:10243000019B00225A810023184602B0704700BF5A
:102440008A3E0020B03E002082B001900B4B022259
:102450001A70019B0A4A5A60019B01221A70094BAB
:10246000DB689AB2019B9A81064B9B689AB2019BEA
:102470005A810023184602B0704700BF8A3E0020F0
:10248000B03E00208C3E002000B585B001901B4B73
:102490001B699AB2019B5A81184B5B699AB2019BE6
:1024A0009A81164B1B78002B1FD0154B1B7883F09D
:1024B0000103DBB2002B18D0FFF7C4FE0346002B4C
:1024C00013D0019B02221A720E4B0422DA700021F3
:1024D0000C48FFF759FE0390039B002B01D0039B90
:1024E00007E0094B05221A7002E0074B03221A701D
:1024F0000023184605B05DF804FB00BF8C3E0020A9
:102500005C3F0020B83E00208A3E002000B585B028
:1025100001901B4B9B699AB2019B5A81184BDB6956
:102520009AB2019B9A81164B1B78002B1FD0154B3A
:102530001B7883F00103DBB2002B18D0FFF782FE7B
:102540000346002B13D0019B02221A720E4B042269
:10255000DA7000210C48FFF717FE0390039B002B55
:1025600001D0039B07E0094B06221A7002E0074BDB
:1025700004221A700023184605B05DF804FB00BF62
:102580008C3E00205C3F0020B83E00208A3E0020A8
:1025900082B003468DF80730034A9DF80730137068
:1025A00000BF02B0704700BFAC3E002030B589B01C
:1025B0000390029101920093039B002B02D0019B98
:1025C000002B01D10E23D5E06C4B01221A706C4B0D
:1025D00000221A706B4A019B14461D460FCD0FC492
:1025E00095E80F0084E80F00674B00221A70674AD5
:1025F000009B1360664A0C9B1360664B4FF6FF729C
:102600001A800722002164480EF019FA3C220021AA
:1026100062480EF014FA039B1A78604B1A70039B01
:102620009A785E4B9A70039BDA785C4BDA70039B66
:102630005A785A4B5A70594B039A1033103292E819
:10264000030083E80300554B039A0833083292E8ED
:10265000030083E80300514B039A1833183292E8C1
:10266000030083E80300039B5B6A002B29D04B4BDC
:102670004B4A5A624A4B4B4A9A60039B5A6A474BF1
:102680005B6A12881A80039B5A6A444B5B6A928881
:102690009A80002307930DE0039B5B6A9A68079B6F
:1026A000134419783F4A079B13440A461A70079B44
:1026B00001330793394B5B6A9B881A46079B934209
:1026C000EAD3039B9B6A002B33D0374B374A9A607F
:1026D000324B354A9A62314B9B6A344A9A60039B6B
:1026E0009A6A2E4B9B6A92889A80039B9A6A2B4B1C
:1026F0009B6A12881A80002306930DE0039B9B6A55
:102700009A68069B13441978284A069B13440A4684
:102710001A70069B01330693204B9B6A9B881A46CE
:10272000069B9342EAD3039B93F82C201B4B83F820
:102730002C20039B1B6A002B0ED0184B1C4A1A62DC
:10274000039B1A6A154B1B6A52885A80039B1A6AAC
:10275000124B1B6A12881A80039B5B68002B03D004
:10276000039B5B680D4A536002990C48FFF70CFD10
:102770000590059B184609B030BD00BF883E00207B
:102780008B3E00208C3E0020AC3E0020543F0020B9
:10279000583F0020503F0020B03E0020B83E0020AF
:1027A000F43E0020003F0020203F00202C3F00206E
:1027B0004C3F002000B589B003468DF80730664BCA
:1027C0001B7883F00103DBB2002B01D00823BEE0AD
:1027D000624A9DF807301370FFF7C6FD0346002BD1
:1027E00004D05F4B01221A700023B0E007220021C1
:1027F0005C480EF024F95C4B5B78002B03D0574B00
:102800001B78012B0FD0584B9B78002B03D0534BD8
:102810001B78012B07D0544B9B78002B12D04F4BC9
:102820001B78022B0ED1514B1B68002B07D0504B4D
:1028300001221A704D4B1B680820984702E04C4B50
:1028400000221A709DF807301846FFF79DFD0346D9
:102850001A46424B1A70454B1B68002B1DD03F4B4C
:102860001B78032B03D03D4B1B78042B15D13E4B1B
:102870001B78002B11D03F4B1B7883F00103DBB298
:10288000002B0AD03C4B00221A703C4B01221A70DC
:10289000364B1B680720984702E0384B00221A701D
:1028A00003AB1022002118460EF0C9F800238DF862
:1028B0000C3000238DF81430284B1B78042B29D8BA
:1028C00001A252F823F000BF0D290200DD2802000A
:1028D000E9280200F52802000129020003AB18468E
:1028E000FFF798FD079016E003AB1846FFF7ACFD25
:1028F000079010E003AB1846FFF7C6FD07900AE00B
:1029000003AB1846FFF702FE079004E01C4B0022C1
:102910001A7000E000BF114B1B78002B0CD0194B34
:102920001A7803AB11461846FFF788FC0790079BFF
:10293000002B01D0079B0AE00C4B1B68002B05D035
:102940000A4B1B680E4A1278104698470023184617
:1029500009B05DF804FB00BF883E00208B3E0020DC
:10296000893E0020B03E00208C3E0020543F0020D5
:10297000B73E00205C3F00205E3F00205D3F00200E
:102980008A3E0020AC3E002000B583B00190019B40
:102990001B88112B07D01B2B09D0102B0BD10198B2
:1029A000FFF786FC08E00198FFF792FC04E001982D
:1029B000FFF7B4FC00E000BF00BF03B05DF804FB0C
:1029C00075DF704700BF184676DF704700BF1846B6
:1029D0007ADF704700BF18467BDF704700BF18469C
:1029E00082B00190019B5A88074B1B889A4207D3FB
:1029F000019B5A88044B5B889A4201D8012300E06E
:102A00000023184602B070477C3F002000B587B015
:102A10000190274B1B884FF6FF72934243D0254B02
:102A20001B780133DAB2234B1A70234B1A7B214BEC
:102A30001B789A4212D31E4B1B8820491846FFF779
:102A4000BFFF0590059B002B2DD01B4B9B69002BD6
:102A500029D0194B9B690598984724E0154B002213
:102A60001A70154B1B7C002B11D0114B1B883B217E
:102A70001846FFF7A9FF0490049B002B07D00E4BCC
:102A80009B69002B03D00C4B9B69049898470A4B19
:102A90005B69002B07D000238DF80C30064B5B6977
:102AA00003AA1046984700BF07B05DF804FB00BFBB
:102AB000863F0020843F0020603F00207C3F0020B4
:102AC00030B585B001901C4A019B14461D460FCDC0
:102AD0000FC495E8070084E80700184B00221A701D
:102AE000019B1B68002B0ED0019B1A68144B1068C9
:102AF000516803C31248FFF76BFF0390039B002B41
:102B00000AD0039B15E00E48FFF766FF0390039B76
:102B1000002B01D0039B0CE00A4B4FF6FF721A808A
:102B2000094B00221A70094A0021094803F088FE67
:102B30000346184605B030BD603F0020B03F00207E
:102B40007C3F0020863F0020843F00200D2A0200A9
:102B5000401A030000B585B02548FFF741FF034642
:102B600083F00103DBB2002B2ED0224B1B78002B0D
:102B70000CD0214B5B69002B32D000238DF8043040
:102B80001D4B5B6901AA1046984729E01B4B1B7837
:102B9000002B03D1184B5B68039302E0164B9B6834
:102BA0000393174B00220399184603F079FE029015
:102BB000029B002B14D0104B9B69002B10D00E4BA6
:102BC0009B69029898470BE00B4B5B69002B07D081
:102BD00001238DF80030084B5B696A461046984720
:102BE000044B00221A7000BF05B05DF804FB00BF63
:102BF000883F0020B03F0020603F0020843F00203D
:102C0000903F002000B583B00190019B9A880B4B48
:102C10001A800B4A019B103393E8030082E80300FB
:102C2000084B00221A70084BDB89002B01D1FFF7FB
:102C300091FF00BF03B05DF804FB00BF863F00209A
:102C4000883F0020843F0020603F002000B585B011
:102C500001900D4B4FF6FF721A800C4B00221A7038
:102C60000B4B184603F04EFE0390039B002B07D03E
:102C7000084B9B69002B03D0064B9B690398984730
:102C800000BF05B05DF804FB863F0020843F0020B4
:102C9000903F0020603F002000B585B00190019B6F
:102CA00006330393039B1A88134BDB899A421ED188
:102CB000039B5B89022B1AD1039B0C33184600F04F
:102CC00066F80346002B02D0FFF744FF0FE00B4BE2
:102CD000184603F017FE0290029B002B07D0064B0C
:102CE0009B69002B03D0044B9B690298984700BF57
:102CF00005B05DF804FB00BF603F0020903F00205E
:102D000000B583B00190064A019B083393E80300A5
:102D100082E80300FFF71EFF00BF03B05DF804FB6D
:102D2000883F002000B583B00190019B1B88112BC8
:102D30000DD0112B02DC102B05D014E0122B0ED07D
:102D4000502B08D00FE00198FFF75CFF0BE00198D3
:102D5000FFF77CFF07E00198FFF79EFF03E0019873
:102D6000FFF7CEFF00BF00BF03B05DF804FB82B0E9
:102D70000190019B1B781AB2019B01331B781B0247
:102D80001BB213431BB29BB2184602B0704700B58A
:102D900085B001900198FFF7EAFF0346ADF80E30C9
:102DA000BDF80E3003F00103002B14BF01230023F4
:102DB000DBB2184605B05DF804FB000000B585B035
:102DC0000190009100238DF80F309DF80F305A1CB0
:102DD0008DF80F201A46019B1344009A12781A703E
:102DE0009DF80F305A1C8DF80F201A46019B134492
:102DF000009A52781A709DF80F30022B0CBF0123F5
:102E00000023DBB20293029B002B04D1054A472129
:102E1000002002F065FD9DF80F30184605B05DF802
:102E200004FB00BF441A03008FDF704700BF184641
:102E30009EDF704700BF1846ADDF704700BF1846E1
:102E400082B00190019B9E221A80019B17225A801A
:102E5000019B00221A71019B00225A71019BA22240
:102E60009A71019B1B22DA7100BF02B0704700000B
:102E700000B587B003460091ADF80630BDF80630C6
:102E8000009ADB0013441B7B9BB2ADF80C30BDF8FD
:102E90000630009ADB0013441B7B9BB2ADF80E306A
:102EA0000023ADF810300023ADF8123003A9BDF8AF
:102EB000063000221846FFF7B7FF0590059B002B50
:102EC00006D0BDF80620059B0349012004F0A9FAAD
:102ED00000BF07B05DF804FB881A030000B587B097
:102EE00001900091009B9B88ADF81630BDF816301C
:102EF000DB00019A134406330493019B1A79049B67
:102F00009A71009BDB7B012B02D0022B05D009E0DC
:102F1000019B1A88049B1A8004E0019B5A88049B39
:102F20001A8000BF049B1A88049B5B889A421BD9B5
:102F3000049B1A88BDF8163011461846FFF778FF33
:102F40000390039B002B03D1049B01225A710BE0D9
:102F5000039B112B03D1049B01221A7104E0039AF5
:102F60000949012004F049FA049B9A79049BDB7912
:102F70009A4205D9BDF8163001991846FFF778FF37
:102F800000BF07B05DF804FBFC1A030000B583B076
:102F900001900091009B9B88DB00019A134406334B
:102FA0001846FFF74DFF00BF03B05DF804FB00B506
:102FB00087B001900091009B9B88ADF81630009B74
:102FC0005B89ADF81430BDF81630DB00019A13446C
:102FD00006330493049B1B88BDF81420934228BF3A
:102FE00013469AB2049B5A80049B5B88172B38BF08
:102FF00017239AB2049B5A80019B9B69002B15D022
:10300000049B5B79002B11D040F67723ADF8083094
:10301000BDF81630ADF80A30049B5B88ADF80C3073
:10302000019B9B6902AA114601989847049B0022C4
:103030005A71049B00221A7100BF07B05DF804FBAF
:1030400000B589B001900091009B9B88ADF81C30C1
:10305000009BDB88ADF81E30BDF81C30DB00019A08
:10306000134406330693BDF81E30172B38BF1723C1
:10307000ADF81E30069B1B88BDF81E20934228BF6A
:1030800013469AB2069B5A80069B00221A71069B31
:103090001A88BDF81C3011461846FFF7CDFE059082
:1030A000059B002B04D0059A1149012004F0A5F9D5
:1030B000069B5B79002B16D1019B9B69002B13D0DB
:1030C00040F67723ADF80C30BDF81C30ADF80E306B
:1030D000069B5B88ADF81030019B9B6903AA1146E3
:1030E0000198984700E000BF09B05DF804FB00BFFD
:1030F000581B030030B593B001900091009B04ACC5
:103100001D1D0FCD0FC40FCD0FC40FCD0FC42B68E5
:103110002360BDF81030ADF84630BDF81420BDF87E
:103120004630D1B2019ADB0013440A465A73019B20
:103130009B69002B19D002AB00221A609A804DF6D1
:103140007A23ADF80830BDF84630ADF80A30BDF846
:103150004630019ADB0013445B7B8DF80C30019BF9
:103160009B6902AA11460198984700BF13B030BD71
:1031700000B589B001900091009B04330693069B33
:103180001B88DB00019A134406330793069B9B8838
:103190008DF81730079B9B799DF81720934228BF25
:1031A00013468DF8163002AB00221A605A609DF863
:1031B00016309BB2ADF808309DF816309BB2ADF8D2
:1031C0000A30069B1B8802A900221846FFF72CFE36
:1031D0000490049B002B04D0049A0449012004F0BD
:1031E0000CF900BF09B05DF804FB00BFB01B030081
:1031F00000B585B001900091019B002B01D10E23F9
:103200001DE0019B009A9A61019B9E221A80019BFE
:103210009E225A80019BA2221A71002303930AE086
:10322000039BDB00019A134406331846FFF708FEA0
:10323000039B01330393039B012BF1D90023184611
:1032400005B05DF804FB82B001900B46ADF802308A
:10325000019B002B01D10E230EE0BDF80230162B8E
:1032600003D9BDF802309E2B01D9072304E0019B4E
:10327000BDF802201A800023184602B070470000F3
:1032800000B585B001900091009B9B88ADF80E3091
:10329000BDF80E30012B5FD8009B1B88212B26D058
:1032A000212B04DC102B09D0112B0CD024E03A2B5D
:1032B0000ED0552B11D0222B14D01DE0009901986F
:1032C000FFF70CFE18E000990198FFF75FFE13E08E
:1032D00000990198FFF76BFE0EE000990198FFF747
:1032E000AFFE09E000990198FFF704FF04E00099A0
:1032F0000198FFF73DFF00BFBDF80E30019ADB00DB
:1033000013449B7A002B28D0BDF80E30019ADB00C5
:103310001344DA88BDF80E3011461846FFF788FDD1
:103320000290029B002B0ED1BDF80E30019ADB00FB
:10333000134400229A72BDF80E30019ADB00134448
:103340000122DA7209E0029B112B06D0029A04498D
:10335000012004F052F800E000BF05B05DF804FB66
:10336000FC1A0300A0DF704700BF1846A2DF7047B9
:1033700000BF1846A6DF704700BF184662DF7047DF
:1033800000BF184682B001900091009B9A88019B73
:103390009A8200BF02B0704782B001900091019BF9
:1033A0004FF6FF729A8200BF02B0704700B585B039
:1033B00001900091009B06330393039B1A88019BA5
:1033C0001B899A4213D1039B5B89022B0FD1039B6C
:1033D0000C331846FFF7DBFC0346002B03D0019BA0
:1033E00001229A7517E0019B00229A7513E0039B56
:1033F0001A88019B9B899A420DD1019B9B69002BE6
:1034000009D0019B9B69039A02F10C01039A52892E
:1034100001989847FFE700BF05B05DF804FB00B5D1
:1034200093B0019000910AAB0322002118460DF0E1
:1034300006FB9DF82830012262F303038DF8283043
:103440009DF82830012262F307138DF828309DF88B
:103450002930012262F303038DF829309DF82930C9
:10346000012262F307138DF829309DF82A300122DA
:1034700062F342038DF82A300BAB1C220021184660
:103480000DF0DDFA9DF82C3043F010038DF82C3050
:1034900000230C9300230E9300230F930AAB109389
:1034A00000231193019B1B788DF812300323ADF894
:1034B000103003AB0322002118460DF0C0FA9DF82E
:1034C0000C30012262F303038DF80C309DF80C30B0
:1034D000012262F307138DF80C309DF80D300122A4
:1034E00062F303038DF80D309DF80D30012262F375
:1034F00007138DF80D309DF80E30012262F3420360
:103500008DF80E309DF80E306FF3C3038DF80E303A
:103510009DF80E306FF304138DF80E309DF80E30C9
:1035200043F001038DF80E3005AB1422002118463C
:103530000DF085FA04AB059303AB06930123ADF8B8
:103540001C300023ADF81E309B23ADF82030019BCA
:103550005888019B043305AA0BA9FFF707FF034610
:10356000184613B05DF804FB00B591B001900091CE
:1035700009AB1C22002118460DF061FA9DF8243099
:1035800043F008038DF824309DF8243043F0040301
:103590008DF8243000230A9300230C9300230D930D
:1035A00000230E9300230F93019B1B788DF80E30A0
:1035B0000223ADF80C3002AB0322002118460DF0B7
:1035C0003EFA9DF80830012262F303038DF80830BB
:1035D0009DF80830012262F307138DF808309DF83A
:1035E0000930012262F303038DF809309DF8093098
:1035F000012262F307138DF809309DF80A30012289
:1036000062F342038DF80A309DF80A306FF3C3036A
:103610008DF80A309DF80A306FF304138DF80A30E4
:103620009DF80A3043F001038DF80A3004AB1422F0
:10363000002118460DF003FA03AB049302AB059387
:103640000123ADF818300023ADF81A309B23ADF8F4
:103650001C30019B5888019B0C3304AA09A9FFF771
:1036600085FE0346184611B05DF804FB00B583B033
:1036700001900091019B002B1FD0009B002B1CD0C0
:10368000009B1B88112B0ED0112B02DC102B05D0B8
:1036900016E0502B0CD0A62B11D011E00099019808
:1036A000FFF770FE0CE000990198FFF775FE07E048
:1036B00000990198FFF77AFE02E000BF00E000BF2A
:1036C00003B05DF804FB000010B588B001900091D4
:1036D000284B02AC0FCB84E80F00019B002B01D1DB
:1036E0000E2344E0009B002B01D10E233FE0019B01
:1036F0004FF6FF729A82009B1A68019B9A61019BA8
:1037000001229A75019A02AB11461846FFF736FE60
:103710000790079B002B01D0079B28E0019B1B789B
:103720008DF81A300123ADF81830019B9A1C06ABB6
:1037300019460120FFF716FE0790079B002B01D0CA
:10374000079B14E000990198FFF70EFF0790079B75
:10375000002B01D0079B0AE000990198FFF75FFE5C
:103760000790079B002B01D0079B00E00023184621
:1037700008B010BD101C030000B589B00390029181
:103780001346ADF80630039B002B01D10E232EE02B
:10379000039B9B8A4FF6FF72934206D0039B9B7D4F
:1037A00083F00103DBB2002B01D008231FE0BDF83A
:1037B00006309B2B01D9072319E004AB102200210E
:1037C00018460DF03CF9039B9B88ADF81030029B26
:1037D00007930DF10603069301238DF81230039B26
:1037E0009B8A04AA11461846FFF7C4FD03461846F3
:1037F00009B05DF804FB82B001904FF08042019B5C
:10380000C2F8083300BF02B0704784B00346ADF879
:103810000630BDF8063003F1804300221A60BDF87F
:10382000063003F180431B680393039B00BF04B081
:10383000704782B00346ADF80630BDF8063003F19C
:1038400080431B68002B14BF01230023DBB2184602
:1038500002B0704782B003468DF807309DF80730FC
:103860004FF0804203F00303C2F8183500BF02B0E6
:103870007047000082B003468DF807300A4A9DF970
:1038800007305B0952F823209DF8073003F01F032F
:10389000012101FA03F31340002B14BF012300237D
:1038A000DBB2184602B0704700E100E008B5002026
:1038B000FFF7E0FF034683F00103DBB2002B03D0E8
:1038C0000721002000F01EF900BF08BD00B583B03D
:1038D00000230193134B1B78002B02D08523019307
:1038E0001BE0104B00229A600E4B00225A600D4BD9
:1038F00000221A610B4B0022DA60FFF7D7FF04F0B9
:10390000D9F8034683F00103DBB2002B02D001207B
:10391000FFF7A0FF034B01221A70019B184603B06A
:103920005DF804FBB43F002084B00190019B1B684C
:103930000393039B002B03D0039B1A68019B1A601F
:10394000039B184604B0704700B585B003468DF858
:1039500007309DF80730002B02D10C4B039301E098
:103960000B4B03930398FFF7DFFF0290029B002BA2
:1039700006D0029B5B689DF8072010469847F1E748
:1039800000BF00BF05B05DF804FB00BFBC3F0020D6
:10399000C43F002008B54FF48070FFF74AFF03468C
:1039A000002B0CD04FF48070FFF72FFF0120FFF7A2
:1039B00022FF0E4B01225A700020FFF7C5FF4FF483
:1039C0008270FFF736FF0346002B0CD04FF4827055
:1039D000FFF71BFF0220FFF70EFF044B01229A7036
:1039E0000120FFF7B1FF00BF08BD00BFB43F0020BA
:1039F00000B583B00190019B002B02D10020FFF79E
:103A0000A3FF00BF03B05DF804FB000000B583B066
:103A100000238DF807300DF10703184603F02AF84C
:103A20000C4B1B7883F00103DBB2002B01D0FFF7B6
:103A30004DFF084BDB680133064AD360054B01227A
:103A40009A709DF80730184603F01EF800BF03B0C7
:103A50005DF804FBB43F002082B003468DF80730C8
:103A60009DF8073003F01F0205499DF907305B09F7
:103A7000012000FA02F241F8232000BF02B0704793
:103A800000E100E082B003468DF807309DF8073072
:103A900003F01F0206499DF907305B09012000FA77
:103AA00002F2603341F8232000BF02B0704700BF2C
:103AB00000E100E082B0034600918DF807309DF9E7
:103AC0000730002B0CDA009BDAB20C499DF8073066
:103AD00003F00F03043B5201D2B20B441A7609E003
:103AE000009BDAB206499DF907305201D2B20B446D
:103AF00083F8002300BF02B0704700BF00ED00E074
:103B000000E100E000B583B003460A468DF80730B7
:103B100013468DF806309DF806209DF907301146B2
:103B20001846FFF7C7FF9DF907301846FFF7AAFFB1
:103B30009DF907301846FFF78FFF00BF03B05DF80F
:103B400004FB00B583B00346ADF80630BDF806307F
:103B5000184600F026F803461B68012B0CBF012312
:103B60000023DBB2184603B05DF804FB00B585B056
:103B70000346ADF80630BDF80630184600F011F8DF
:103B800003461A4600231360BDF80630184600F0BD
:103B900008F803461B680393039B00BF05B05DF85C
:103BA00004FB82B00346ADF80630BDF8063003F1E1
:103BB000804303F5C043184602B0704782B00190BD
:103BC000034A019BC2F8043300BF02B0704700BF34
:103BD0000060004082B00190034BD3F80423019BA6
:103BE0001340184602B070470060004082B0019058
:103BF000084A019B03F5A27352F82330054943F0AC
:103C00000102019B03F5A27341F8232000BF02B01B
:103C1000704700BF0060004084B0039002911346DB
:103C20008DF80730144A039B03F5A27352F8233032
:103C3000114923F4473323F44073039A02F5A27227
:103C400041F822300C4A039B03F5A27352F823205B
:103C5000029B1B0203F4F8519DF807301B0403F488
:103C600040330B4304491A43039B03F5A27341F805
:103C7000232000BF04B070470060004082B0019074
:103C8000054A019B03F5A27352F823301B0A03F087
:103C90001F03184602B070470060004082B00190D8
:103CA000064A019B03F5A27352F823301B0C03F064
:103CB0000303DBB2184602B0704700BF006000404B
:103CC00082B001904FF0A043184602B0704700B593
:103CD00085B00190084611461A4603468DF8033018
:103CE0000B468DF8023013468DF8013001AB1846B3
:103CF000FFF7E6FF03909DF803209DF802305B007C
:103D00001A439DF801309B001A439DF818301B029E
:103D100042EA03019DF81C301B04019A1943039BDE
:103D200002F5E07243F8221000BF05B05DF804FB15
:103D300000B585B003900B468DF80B309DF80B2035
:103D400000230193002300931346002200210398CF
:103D5000FFF7BDFF00BF05B05DF804FB00B585B0FF
:103D6000019001AB1846FFF7ABFF0390019A039B4C
:103D700002F5E07253F8223023F002030293019A15
:103D8000039B02F5E072029943F8221000BF05B0D0
:103D90005DF804FB00B585B001900B468DF803304B
:103DA00001AB1846FFF78CFF0390019A039B02F5C5
:103DB000E07253F82230019A23F44031039B02F55C
:103DC000E07243F82210019A039B02F5E07253F867
:103DD00022309DF8032012041146019A1943039BD7
:103DE00002F5E07243F8221000BF05B05DF804FB55
:103DF00000B585B0019001AB1846FFF761FF039055
:103E0000039800F020F80246019B22FA03F303F026
:103E10000103184605B05DF804FB00B585B00190BC
:103E200001AB1846FFF74CFF0390019A039B02F584
:103E3000E07253F822301B0C03F00303DBB2184688
:103E400005B05DF804FB82B00190019BD3F81035FA
:103E5000184602B0704700B587B0039002910192F6
:103E60004FF0A0430493039B059311E0059B9B0037
:103E700006AA134453F8083C1846FFF7E4FF02462D
:103E8000019B1A60019B04330193059B0133059349
:103E9000039A029B1344059A9A42E7D300BF07B0E6
:103EA0005DF804FB84B001900091009B0393019B9B
:103EB000DB080293019B03F0070301930122019B9E
:103EC00002FA03F30399029A0A441278134018463F
:103ED00004B0704784B001900091009B0393019B54
:103EE000DB080293019B03F007030193039A029BF3
:103EF00013441B785AB20121019B01FA03F35BB210
:103F0000134359B2039A029B1344CAB21A7000BFFA
:103F100004B0704782B001900C4A019B13443033C7
:103F200093F90030002B09DB084A019B134430331E
:103F300093F90030072B01DC012300E0002303F09C
:103F40000103DBB2184602B0704700BFC83F002033
:103F500082B00190064A019B1344303393F900303C
:103F6000072BCCBF01230023DBB2184602B07047F9
:103F7000C83F002082B00190064A019B13443033B1
:103F800093F90030DB43DBB2DB09DBB2184602B049
:103F9000704700BFC83F002084B003900291019297
:103FA0008DF80330029B59B20E4A039B1344303301
:103FB0000A461A700B49029B019A41F823209DF88A
:103FC000033083F00103DBB2002B08D0029B083BD7
:103FD000039A51B2034A13440A4683F8502000BFA3
:103FE00004B07047C83F002082B00190044A019B92
:103FF00013443033FF221A7000BF02B0704700BF75
:10400000C83F002082B00190044A019B1344303322
:1040100093F90030184602B0704700BFC83F002037
:1040200082B00190034A019B52F82330184602B037
:10403000704700BFC83F002000B589B003900291CF
:1040400013468DF80730FF238DF81F309DF8073099
:10405000002B01D0002300E0082305939DF80730D2
:10406000002B01D0082300E00C230493059B06934A
:1040700014E00F4A069B52F82330B3F1FF3F0AD1F8
:104080009DF80730029A06990398FFF785FF069B73
:104090008DF81F3006E0069B01330693069A049BB9
:1040A0009A42E6D39DF91F30184609B05DF804FB2B
:1040B000C83F002082B003468DF807309DF80730D6
:1040C000094A4FF0FF3142F823109DF80730072BC3
:1040D00007D99DF80730083B034A1344FF2283F8B1
:1040E000502000BF02B07047C83F002000B583B029
:1040F000214B93F85430002B03D008230093009BEE
:1041000036E000238DF8073009E09DF807301846A7
:10411000FFF76AFF9DF8073001338DF807309DF8EF
:1041200007301F2BF1D900238DF8073009E09DF8E7
:1041300007301846FFF7BEFF9DF8073001338DF8B2
:1041400007309DF807300B2BF1D907210620FFF728
:10415000D9FC4FF4BE70FFF709FD4FF00040FFF7A8
:104160002DFD054B012283F8542000230093009B72
:10417000184603B05DF804FBC83F0020044B93F8D9
:104180005430002B14BF01230023DBB218467047C4
:10419000C83F002000B587B0039002910192002330
:1041A00005930398FFF7E6FE0346002B02D0082391
:1041B000059341E0029BDB781A4601990398FFF7CB
:1041C0003BFF03468DF813309DF91330B3F1FF3FE9
:1041D00030D0029B9B78002B03D00398FFF7BEFDE5
:1041E00005E0029B5B7819460398FFF7A1FD029B4F
:1041F000DB78002B08D09DF91300029B1B781A4630
:104200000399FFF709FD17E09DF91330083B0D4AAC
:10421000134493F95010029B1B789B015AB29DF9ED
:104220001330083B0A4351B2064A13440A4683F846
:10423000502001E004230593059B184607B05DF864
:1042400004FB00BFC83F002000B587B001900B46BB
:104250008DF803300198FFF77BFE0346002B2FD02B
:104260000198FFF7CFFE0346083B304A134493F909
:1042700050308DF816309DF816309B098DF81530AA
:104280009DF81530032B0BD10198FFF7B1FD0346C4
:10429000002B01D0032300E002238DF8173008E043
:1042A0009DF81530012B01D1022300E003238DF886
:1042B00017309DF8173019460198FFF76BFD30E075
:1042C0000198FFF727FE0346002B2AD00198FFF73D
:1042D00099FE03460493049B9BB240339BB29B0020
:1042E000ADF80E30049B1846FFF780FCBDF80E3089
:1042F0001846FFF73BFC9DF80330002B11D00198C6
:10430000FFF780FE03461846FFF78AFE0290029BE5
:10431000002B06D00122049B02FA03F31846FFF794
:104320004DFC00BF07B05DF804FB00BFC83F002094
:1043300000B595B000231393002303934FF48073CB
:10434000ADF84630012310930023129321E0BDF80D
:1043500046301846FFF7F5FB0346002B0ED01098A9
:10436000FFF738FC0346002B08D0BDF8463018464E
:10437000FFF7FCFB139A109B13431393109B5B00F6
:104380001093BDF846300433ADF84630129B01332C
:104390001293129B072BDAD94FF4BE70FFF7D1FBB3
:1043A0000346002B0DD04FF4BE70FFF7DFFB139BCD
:1043B00043F00043139303AB1A4601210020FFF79B
:1043C0004AFD139BDBB2002B29D00123109300235D
:1043D000129321E0109A139B1340002B16D01298D1
:1043E000FFF74CFC0D901298FFF758FC03468DF830
:1043F00033301298FFF714FE0B900B9B002B05D067
:104400009DF833200B9B11460D989847109B5B003D
:104410001093129B01331293129B072BDAD9139B33
:10442000002B80F2EE8000238DF83B3000230293B6
:1044300000230F930AE00F9B9B0014AA13444FF034
:10444000FF3243F84C2C0F9B01330F930F9B002B33
:10445000F1D000238DF83B300023129378E06B4AB3
:10446000129B1344503393F900308DF82B309DF894
:104470002B3023F0C0030993644A129B134450333A
:1044800093F90030B3F1FF3F5FD001AB19460998B3
:10449000FFF708FD0346002B57D09DF82B309B09F2
:1044A0008DF823300998FFF7ADFD03461846FFF756
:1044B000B7FD0790079B002B03D19DF82330032BFA
:1044C00043D19DF82330032B04D102AB1946099840
:1044D000FFF700FD0998FFF7A0FC03468DF81B309D
:1044E00003AB19460998FFF7DDFC0590059B002BEF
:1044F00003D09DF81B30022B06D0059B002B24D146
:104500009DF81B30032B20D19DF82330032B13D1B2
:104510009DF81B30022B01D1032300E002238DF80C
:1045200013309DF8133019460998FFF733FC9DF8B6
:104530003B3001338DF83B30079B002B05D09DF8B5
:104540002320079B114609989847129B0133129329
:10455000129B032B83D99DF83B30002B4CD00123B9
:104560008DF83A306B461A4601210020FFF773FCA4
:1045700000230F9314E00F9B9B0014AA134453F8DD
:10458000502C0F9B9B0014A90B4453F8443C9A42B7
:1045900003D000238DF83A3005E00F9B01330F93D1
:1045A0000F9B002BE7D09DF83A30002B03D000235F
:1045B0008DF83B3020E000230F931AE00F9B9B0007
:1045C00014AA134453F8502C0F9B9B0014A90B44BE
:1045D00043F8442C0F9B9B0014AA134453F8482C17
:1045E0000F9B9B0014A90B4443F84C2C0F9B0133E9
:1045F0000F930F9B002BE1D09DF83B30002B7FF4F5
:1046000028AF00BF15B05DF804FB00BFC83F002015
:1046100084B001900B46ADF80230BDF80230019A2B
:10462000134400221A60BDF80230019A13441B683B
:104630000393039B00BF04B0704782B001900B4608
:10464000ADF80230BDF80230019A13441B68002B0C
:1046500014BF01230023DBB2184602B0704782B0BA
:1046600001900091019B009AC3F8042300BF02B09F
:10467000704782B001900091019BD3F80423009B06
:104680001340002B14BF01230023DBB2184602B0F5
:10469000704782B001900091019B009AC3F80823F3
:1046A00000BF02B0704784B00190019BD3F8803402
:1046B0000393019B039AC3F88024039B184604B01C
:1046C000704782B00190019B0422C3F8002500BF0F
:1046D00002B0704784B0039002910192039B019A4B
:1046E000C3F81425039B029AC3F80C2500BF04B03D
:1046F000704784B0039002910192039B029AC3F821
:104700000825039B019AC3F8102500BF04B0704729
:1047100082B00190019BD3F81835DBB2184602B085
:10472000704782B001900B468DF803309DF803204E
:10473000019BC3F81C2500BF02B0704782B00190F6
:104740000B468DF803309DF80330019A1344012283
:104750001A6000BF02B0704782B001900B468DF81E
:10476000033013468DF802309DF803209DF8023087
:104770001343DBB21A46019BC3F86C2500BF02B09D
:10478000704782B001900091019B009AC3F82425E4
:1047900000BF02B0704784B001900B46ADF8023004
:1047A000BDF80230019A134400221A60BDF80230AD
:1047B000019A13441B680393039B00BF04B0704726
:1047C00082B001900B46ADF80230BDF80230019A7C
:1047D00013441B68002B14BF01230023DBB21846CF
:1047E00002B0704782B001900091019BD3F8002283
:1047F000009B1A43019BC3F8002200BF02B0704720
:1048000082B001900091019BD3F80022009BDB4312
:104810001A40019BC3F8002200BF02B0704782B06B
:1048200001900091019B009AC3F8042300BF02B0DD
:10483000704782B001900091019B009AC3F8082351
:1048400000BF02B0704784B00190019BD3F8803460
:104850000393019B039AC3F88024039B184604B07A
:10486000704782B00190019B0822C3F8002500BF69
:1048700002B0704784B0039002910192039B029AA8
:10488000C3F80C25039B019AC3F8142500BF04B09C
:10489000704784B0039002910192039B029AC3F87F
:1048A0000825039B019AC3F8102500BF04B0704788
:1048B00082B001900B468DF803309DF80330019AC9
:1048C000134401221A6000BF02B0704782B0019009
:1048D0000B468DF8033013468DF802309DF8032007
:1048E0009DF802301343DBB21A46019BC3F86C25D6
:1048F00000BF02B0704782B001900091019B009A06
:10490000C3F8242500BF02B0704784B00390029121
:1049100013468DF80730029A039BC3F844259DF88F
:104920000720039BC3F8482500BF04B0704782B03E
:104930000190019BD3F84C35184602B0704784B003
:104940000390029113468DF80730029A039BC3F837
:1049500034259DF80720039BC3F8382500BF04B019
:10496000704782B00190019BD3F83C35184602B0E5
:10497000704784B00190019B1B0B8DF80F309DF99F
:104980000F30184604B0704782B00190019B03F0CD
:104990006043B3F1005F0CBF01230023DBB2184674
:1049A00002B0704782B001904FF0A043184602B0A9
:1049B000704700B585B00190084611461A46034677
:1049C0008DF803300B468DF8023013468DF8013018
:1049D00001AB1846FFF7E6FF03909DF803209DF812
:1049E00002305B001A439DF801309B001A439DF88A
:1049F00018301B0242EA03019DF81C301B04019A87
:104A00001943039B02F5E07243F8221000BF05B082
:104A10005DF804FB00B585B00390002301930023EB
:104A200000930023012201210398FFF7C2FF00BF7A
:104A300005B05DF804FB00B585B003900B468DF81A
:104A40000B309DF80B2000230193002300931346A5
:104A5000002200210398FFF7ACFF00BF05B05DF80E
:104A600004FB00B585B0019001AB1846FFF79AFF33
:104A70000390019B012202FA03F31946039800F008
:104A800004F800BF05B05DF804FB82B0019000910E
:104A9000019B009AC3F8082500BF02B070470000D0
:104AA00000B583B001900091009B1B68B3F1FF3FFC
:104AB00009D0009B1B681846FFF7D3FF009B1B68BB
:104AC0001846FFF7A7FF009B5B68B3F1FF3F05D0D7
