:020000021000EC
:10F000000000012033F10100D9F00100DBF0010024
:10F01000DDF00100DFF00100E1F001000000000080
:10F02000000000000000000000000000E3F001000C
:10F03000E5F0010000000000E7F00100E9F0010048
:10F0400049360200EDF001006D55020035DD020089
:10F05000F3F00100F5F00100E53F020039B00200D5
:10F06000FBF00100FDF00100FFF0010021E50200CE
:10F0700003F1010005F1010007F1010009F10100B0
:10F080000BF10100416402000FF1010011F10100D8
:10F090008164020015F101004978020019F10100B4
:10F0A0001BF101001DF101001FF1010021F1010020
:10F0B000A1A9020025F101000000000000000000ED
:10F0C00027F1010029F101002BF101002DF10100D0
:08F0D0002FF1010031F10100F4
:10F0D800FEE7FEE7FEE7FEE7FEE7FEE7FEE7FEE700
:10F0E800FEE7FEE7FEE7FEE7FEE7FEE7FEE7FEE7F0
:10F0F800FEE7FEE7FEE7FEE7FEE7FEE7FEE7FEE7E0
:10F10800FEE7FEE7FEE7FEE7FEE7FEE7FEE7FEE7CF
:10F11800FEE7FEE7FEE7FEE7FEE7FEE7FEE7FEE7BF
:10F12800FEE7FEE7FEE7FEE7FEE70348854600F058
:10F13800CBF800F003B87047000001203749384881
:10F148000A1A02D0072291438D46364936480A1AD0
:10F1580006D00722914381F30988022282F314889A
:10F1680032483349334A00F048F833483349344A7F
:10F1780000F043F833483449344A00F03EF8344844
:10F188003449354A00F039F834483549354A00F0F1
:10F1980034F835483549364A00F02FF835483649AD
:10F1A800364A00F02AF836483649374A00F025F83A
:10F1B80036483749002200F02BF8364836490022F5
:10F1C80000F026F835483649091A082903DB0022D9
:10F1D8000260043001601F481F49884205D0026858
:10F1E800043003B4904703BCF7E700208646EC469A
:10F1F800002000212B4A9047FEE7884207D0521A88
:10F2080005D0037801300B700131013AF9D170470C
:10F21800884202D002700130FAE7704700000120EE
:10F2280000FC00200000012000000120FC2D03004C
:10F23800F825002050260020B0F20100B0F20100AD
:10F248005C0F0300FC2D0300F8250020F8250020A2
:10F258005C0F03005C0F03005C0F03005C0F0300EE
:10F268005C0F03005C0F03005C0F03005C0F0300DE
:10F27800FC2D0300542E03005026002050260020A9
:10F28800542E03005026002050260020502600202F
:10F298009C4F00209C4F0020A44F0020A44F00202A
:08F2A800A4530020B90E02007E
:10F2B00000487047944F002070477047024B034A44
:10F2C0001A6000BF704700BFF82500200090D003EF
:10F2D00008B500F00DF90346002B06D0744B1B68EF
:10F2E0001B0A744A03F01F03136000F02DF9034654
:10F2F000002B02D0704B714A1A6000F041F90346AE
:10F30000002B06D06E4B1B685B0B6E4A03F00703A5
:10F31000136000F061F90346002B05D06A4BDB68EF
:10F32000694A23F08073D36000F072F90346002B22
:10F330000ED04FF080430022C3F80C214FF08043E1
:10F340000022C3F810214FF080430022C3F8382573
:10F3500000F08AF90346002B02D05C4B03221A60AE
:10F3600000F09EF90346002B0BD0594B05221A6082
:10F37000584B01221A60584B00221A60574B3F220B
:10F380001A6000F0A9F90346002B76D04FF08053A5
:10F39000534AD3F80434C2F820354FF08053504A12
:10F3A000D3F80834C2F824354FF080534C4AD3F8D0
:10F3B0000C34C2F828354FF08053494AD3F8103442
:10F3C000C2F82C354FF08053454AD3F81434C2F8B4
:10F3D00030354FF08053424AD3F81834C2F83435F0
:10F3E0004FF080533E4AD3F81C34C2F840354FF0FA
:10F3F00080533B4AD3F82034C2F844354FF0805351
:10F40000374AD3F82434C2F848354FF08053344A91
:10F41000D3F82834C2F84C354FF08053304AD3F833
:10F420002C34C2F850354FF080532D4AD3F8303485
:10F43000C2F854354FF08053294AD3F83434C2F817
:10F4400060354FF08053264AD3F83834C2F864351B
:10F450004FF08053224AD3F83C34C2F868354FF05D
:10F4600080531F4AD3F84034C2F86C354FF08053B4
:10F470001B4AD3F84434C2F8703500F049F903460A
:10F48000002B05D0174B1B68174A03F04F0313607E
:10F49000164BD3F88830154A43F47003C2F888300D
:10F4A000BFF34F8FBFF36F8FFFF708FF00BF08BD9B
:10F4B000240300104035014074C007400DF0ADBA80
:10F4C000440200103C050040F0ED00E0A0050040C3
:10F4D0001056004088560040185600401456004010
:10F4E00000C0004058020010E40E004000ED00E0B3
:10F4F000124B1B68DBB2062B1DD1114B1B6803F0AE
:10F500000F03002B17D10F4B1B6803F0F003302BB8
:10F5100001D1012310E00B4B1B6803F0F003402BDB
:10F5200001D1012308E0074B1B6803F0F003502BC7
:10F5300001D1012300E0002318467047E00F00F0DE
:10F54000E40F00F0E80F00F00A4B1B68DBB2062B5B
:10F550000DD1094B1B6803F00F03002B07D1074B9C
:10F560001B6803F0F003302B01D1012300E00023DE
:10F5700018467047E00F00F0E40F00F0E80F00F0CD
:10F58000124B1B68DBB2062B1DD1114B1B6803F01D
:10F590000F03002B17D10F4B1B6803F0F003302B28
:10F5A00001D1012310E00B4B1B6803F0F003402B4B
:10F5B00001D1012308E0074B1B6803F0F003502B37
:10F5C00001D1012300E0002318467047E00F00F04E
:10F5D000E40F00F0E80F00F00A4B1B68DBB2062BCB
:10F5E0000DD1094B1B6803F00F03002B07D1074B0C
:10F5F0001B6803F0F003302B01D1012300E000234E
:10F6000018467047E00F00F0E40F00F0E80F00F03C
:10F61000124B1B68DBB2062B1DD1114B1B6803F08C
:10F620000F03002B17D10F4B1B6803F0F003302B97
:10F6300001D1012310E00B4B1B6803F0F003402BBA
:10F6400001D1012308E0074B1B6803F0F003502BA6
:10F6500001D1012300E0002318467047E00F00F0BD
:10F66000E40F00F0E80F00F00A4B1B68DBB2062B3A
:10F670000DD1094B1B6803F00F03002B07D1074B7B
:10F680001B6803F0F003302B01D1012300E00023BD
:10F6900018467047E00F00F0E40F00F0E80F00F0AC
:10F6A0000A4B1B68DBB2062B0DD1094B1B6803F01C
:10F6B0000F03002B07D1074B1B6803F0F003302B1F
:10F6C00001D1012300E0002318467047E00F00F04D
:10F6D000E40F00F0E80F00F00A4B1B68DBB2062BCA
:10F6E0000DD1094B1B6803F00F03002B07D1074B0B
:10F6F0001B6803F0F003502B01D1012300E000232D
:10F7000018467047E00F00F0E40F00F0E80F00F03B
:10F71000124B1B68DBB2062B1DD1114B1B6803F08B
:10F720000F03002B17D10F4B1B6803F0F003302B96
:10F7300001D1012310E00B4B1B6803F0F003402BB9
:10F7400001D1012308E0074B1B6803F0F003502BA5
:10F7500001D1012300E0002318467047E00F00F0BC
:10F76000E40F00F0E80F00F082B003468DF8073098
:10F770009DF8073003F01F0206499DF907305B0929
:10F78000012000FA02F2603341F8232000BF02B0EA
:10F79000704700BF00E100E0BFF34F8F054BDB680F
:10F7A00003F4E0620349044B1343CB60BFF34F8F74
:10F7B00000BFFDE700ED00E00400FA053EDF704702
:10F7C00000BF184608B5FFF7E7FF42F203031846EB
:10F7D00008BD82B001904FF0A043184602B07047B8
:10F7E00000B585B00190084611461A4603468DF8CB
:10F7F00003300B468DF8023013468DF8013001AB13
:10F800001846FFF7E6FF03909DF803209DF80230AD
:10F810005B001A439DF801309B001A439DF8183095
:10F820001B0242EA03019DF81C301B04019A194394
:10F83000039B02F5E07243F8221000BF05B05DF8AB
:10F8400004FB00B585B003900B468DF80B309DF896
:10F850000B20002301930023009313460022002174
:10F860000398FFF7BDFF00BF05B05DF804FB00B5CE
:10F8700085B0019001AB1846FFF7ABFF03900398EA
:10F8800000F00AF80246019B22FA03F303F0010399
:10F89000184605B05DF804FB82B00190019BD3F8D7
:10F8A0001035184602B0704776DF704700BF184623
:10F8B0007ADF704700BF18467CDF704700BF1846EC
:10F8C0007FDF704700BF18468ADF704700BF1846C9
:10F8D0008FDF704700BF1846A8DF704700BF18468B
:10F8E000A9DF704700BF184669DF704700BF1846A0
:10F8F00066DF704700BF184684B00190244B039325
:10F90000019B002B40D0234B1A680399019B00BF39
:10F9100000BF00BF00BF00BF00BF00BF00BF8A42E2
:10F920002FD000BF00BF00BF00BF00BF00BF00BF9F
:10F9300000BF00BF00BF00BF00BF00BF00BF00BFCF
:10F9400000BF00BF00BF00BF00BF00BF00BF00BFBF
:10F9500000BF00BF00BF00BF00BF00BF00BF00BFAF
:10F9600000BF00BF00BF00BF00BF00BF00BF00BF9F
:10F9700000BF00BF00BF00BF00BF00BF00BF00BF8F
:10F9800000BF013BC3D1019300BF04B0704700BF6B
:10F990000024F400F825002000B583B00190019BFD
:10F9A0004FF47A7202FB03F31846FFF7A5FF00BF7E
:10F9B00003B05DF804FB82B003468DF807309DF874
:10F9C0000730012B03D0022B03D0002B02E000BF35
:10F9D00000E000BF00BF02B07047000000B585B076
:10F9E0000190019B1B788DF80F309DF80F30062B8E
:10F9F0003FD801A252F823F015FA010037FA0100AE
:10FA000041FA01004BFA010055FA01005FFA0100CA
:10FA100069FA0100019B1B798DF80E30019B5B8810
:10FA2000ADF80C30BDF80C209DF80E3015490320C0
:10FA300007F051FB22E01449032007F027FB1DE0EB
:10FA40001249032007F022FB18E01149032007F0B8
:10FA50001DFB13E00F49032007F018FB0EE00E49D1
:10FA6000032007F013FB09E00C49032007F00EFB0D
:10FA700004E00B49032007F009FB00BF00BF05B0FD
:10FA80005DF804FB740F0300D40F0300041003009F
:10FA900034100300641003009C100300E410030002
:10FAA0001811030000B589B00190009100238DF872
:10FAB0001B30019B1B6806221946009810F03EFA85
:10FAC0000346002B03D101238DF81B3002E00023F5
:10FAD0008DF81B309DF81B3083F00103DBB2002B47
:10FAE0002ED000230593019B5B68002B28DD019B32
:10FAF0005B68013B079318E0059B009A13441B7851
:10FB00009DF813209A4205D101238DF81B300F4B2D
:10FB1000039304E000238DF81B300D4B0393059BEA
:10FB200001330593079B013B0793019B1A68079BD1
:10FB300013441B788DF81330079B052BDCD900BFCD
:10FB40009DF81B30184609B05DF804FB481103000E
:10FB50005011030070B5ACB00790079B5B68002B99
:10FB60003FDD00232B9329E0289B1B781E46289B12
:10FB700001331B781A46289B02331B781946289BB1
:10FB800003331B781C46289B04331B781D46289B97
:10FB900005331B7808A80493039502940191009201
:10FBA00033462B9A104910F035FA08AB202219463B
:10FBB0000E4803F03BFC2B9B01332B93079B5B68A8
:10FBC0001A462B9B93420CD2079B19682B9A13461B
:10FBD0005B0013449B00CA1828AB07CA83E80700E0
:10FBE000C2E700BF2CB070BD5811030050260020A2
:10FBF00000B58FB003900291019200238DF82F3051
:10FC000008AB0C220021184610F055FD039B5B68E1
:10FC1000002B34DD00230D930AE0089A099B591C40
:10FC2000099113449DF82F201A700D9B01330D93F9
:10FC3000039B5B681A460D9B934220D2039B196875
:10FC40000D9A13465B0013449B00CA1805AB07CA04
:10FC500083E8070005AB02991846FFF723FF034628
:10FC60008DF82F3008AB03F1080208AB191D08A866
:10FC700001230EF05FFB0346002BD6D1CDE7002316
:10FC80000C9308E0089A0C9B13441B78002B07D1B7
:10FC90000C9B01330C93099B0C9A9A42F2DB00E017
:10FCA00000BF099B0C9A9A4202D14FF0FF330C938C
:10FCB000019B0C9A1A600C9BB3F1FF3F0BD1089B80
:10FCC000184610F0CBF808AB0C220021184610F0B3
:10FCD000F2FC00230AE0089B184610F0BFF808ABBE
:10FCE0000C220021184610F0E6FC012318460FB044
:10FCF0005DF804FB00B58BB00E4B1B68002B11D1D7
:10FD00000D4B099301AB0999184610F083F9099836
:10FD100010F04DFD03469AB201AB1946074803F0B7
:10FD200085FB02E00648FFF715FF00BF0BB05DF84A
:10FD300004FB00BF6C260020881103005026002021
:10FD40007026002000B5A3B003468DF807309DF85B
:10FD50000730002B0CD16FF0270202AB0649184682
:10FD600010F058F902AB20221946044803F05EFB5C
:10FD700000BF23B05DF804FB9C1103005026002057
:10FD800010B5ADF5825D84B004AB043B1860002370
:10FD90000DF5825202F10C02136000230DF5825220
:10FDA00002F10802136000230DF5825202F10302F2
:10FDB000137000230DF5825202F1020213700CAB96
:10FDC000043B0C220021184610F075FC0CAB103BD4
:10FDD0000C220021184610F06EFC04AB043BA9492C
:10FDE000186810F04DF90DF5825303F10403186003
:10FDF0001CE10DF5825303F10C031B68002B65D148
:10FE0000A1490DF5825303F10403186810F0A8FC12
:10FE10000346002B0BD101230DF5825202F108029B
:10FE200013609A4B1B680133984A13604EE098495F
:10FE30000DF5825303F10403186810F091FC03469A
:10FE4000002B0BD102230DF5825202F10802136040
:10FE50008E4B1B68013B8D4A136037E08D490DF5D1
:10FE6000825303F10403186810F07AFC0346002B58
:10FE700002D1FFF73FFF29E087490DF5825303F1D7
:10FE80000403186810F06CFC0346002B0CD101230E
:10FE90000DF5825202F10202137003230DF5825216
:10FEA00002F10802136011E000230DF5825202F105
:10FEB0000802136001230DF5825202F10302137050
:10FEC00000230DF5825202F1020213700DF58253E8
:10FED00003F10C031B68012B55D10DF5825303F17F
:10FEE00008031B68012B39D114AB183B4FF4805227
:10FEF0000021184610F0DFFB0DF5825303F10403D7
:10FF0000186810F054FC024614AB183B0DF58251F2
:10FF100001F104010968184610F0A4FB14AB183B6A
:10FF20000DF5815202F11C0213600023009304239B
:10FF30005A4A5B495B480EF02EFA0346002B07D164
:10FF4000584B1B680DF5815202F11C0212681A60B1
:10FF5000544B5B680133534A536014E00DF58253F0
:10FF600003F108031B68032B0DD14F490DF5825394
:10FF700003F10403186810F0F3FB0346002B02D1D1
:10FF80000020FFF7DFFE0DF5825303F10C031B6821
:10FF9000012B30DD102200210DF5825303F1040303
:10FFA000186810F0A3F803460DF5815202F11A0209
:10FFB00013800CAB103B03F108020CAB103B191D76
:10FFC0000CA8103801230EF0B5F90346002B12D10E
:10FFD0000CAB103B19680CAB103B5A68501C0CABB7
:10FFE000103B586013460B440DF5815202F11A0282
:10FFF0001288D2B21A702349002010F041F80DF592
:020000022000DC
:10000000825303F1040318600DF5825303F10303D7
:100010001B78002B13D10DF5825303F10C031B68E1
:1000200001330DF5825202F10C0213600DF582537B
:1000300003F104031B68002B7FF4DBAE00E000BF7C
:100040000DF5825303F108031B68012B34D1002303
:1000500000930C23154A164916480EF09CF90346E6
:10006000002B08D1134B1A680CAB103B144693E8D5
:10007000070084E807000F4B5B6801330D4A5360AB
:1000800077E000BFB4110300B81103006C26002014
:10009000C0110300C8110300D01103008426002002
:1000A000802600207C260020D41103007826002022
:1000B00074260020702600200DF5825303F10803FA
:1000C0001B68022B55D10CAB103B1B681A780CAB8C
:1000D0001C3B1A700CAB103B1B685A780CAB1C3BDA
:1000E0005A700CAB103B1B689A780CAB1C3B9A7097
:1000F0000CAB103B1B68DA780CAB1C3BDA700CAB1A
:10010000103B1B681A790CAB1C3B1A710CAB103BF3
:100110001B685A790CAB1C3B5A710CAA143A0CABF5
:100120001C3B19461648FFF763FD03460DF5815247
:1001300002F1190213700DF5815303F119031B78B5
:10014000002B16D000230DF5815202F11802137016
:100150000CAB143B1B680122019200930C23094A4B
:10016000094907480EF047F9054B5B68013B044A13
:100170005360002318460DF5825D04B010BD00BF2A
:1001800070260020782600207426002000B589B053
:100190000190019B04330793274B1A78274B1A7061
:1001A000079B04330693079B0433254A1360244BB3
:1001B0001B680133234A1360214B1B680133224A19
:1001C0001360224B0593204B1B6803AA1946204855
:1001D000FFF70EFD03468DF813309DF81330002B0A
:1001E0001FD0174B1B6893F90E300593194B012252
:1001F0001A70194B1B78002B05D0059B1A4617491E
:10020000032006F054FF6FF02702059B934204DBA6
:10021000094B01221A70012309E0074B00221A70D2
:1002200004E00C4B00221A70084B0593002318467B
:1002300009B05DF804FB00BFA0260020A226002024
:100240009C2600209426002098260020F0D8FFFF4E
:1002500070260020A126002090260020E011030037
:1002600010B596B00190019B04331593C64B1B68E3
:10027000002B03D1C54B1B68C54A13600EF004F96F
:100280000246C44B1A60C34B1B68184610F022F993
:100290000246C14B1A60C04B1A68BD4B1B68D31A8B
:1002A00018460EF03FFCB6A3D3E900230EF0DCFEA7
:1002B00003460C46184621460EF09FFC0246B74BFB
:1002C0001A60B64BD3ED007AB7EE007AF4EEC77A37
:1002D000F1EE10FA03DBB04B1B68AD4A1360AA4B7A
:1002E0001B680133A84A1360019B1B88013B552BF7
:1002F00000F2E98101A252F823F000BF5305020089
:10030000C7060200C7060200C7060200C7060200B1
:10031000C7060200C7060200C7060200C7060200A1
:10032000C7060200C7060200C7060200C706020091
:10033000C7060200C7060200550402006704020057
:10034000C706020079040200C7060200C7060200C1
:10035000C7060200C7060200C7060200C706020061
:10036000C7060200C7060200C706020027060200F1
:10037000C7060200C7060200C7060200A304020067
:10038000C7060200C7060200C7060200C706020031
:10039000C7060200C7060200C7060200C706020021
:1003A000C7060200C7060200C7060200C706020011
:1003B000C7060200C7060200C7060200C706020001
:1003C000C7060200C7060200C7060200C7060200F1
:1003D000C7060200C7060200C7060200C7060200E1
:1003E000C706020003050200C7060200C706020096
:1003F000C7060200C7060200C7060200C7060200C1
:10040000C7060200C7060200C7060200C7060200B0
:10041000C7060200C7060200C7060200C7060200A0
:10042000C7060200C7060200C7060200C706020090
:10043000C7060200C7060200C7060200B105020097
:10044000D9040200C7060200C7060200C706020060
:100450002B050200019B9A88514B1A8051490320B9
:1004600006F014FE2FE14E4B4FF6FF721A804E49F4
:10047000032006F00BFE26E1494B188800230022DA
:100480008521FFF71DFA1490149B1393139B002BE7
:1004900000F00A81454A4FF49C71139805F07AF8F0
:1004A00002E10AAB08220021184610F004F9019B72
:1004B0009B880AA900221846FFF70AFA1490149B99
:1004C0001293129B002B00F0F180384A4FF4A17177
:1004D000129805F05FF8E9E0314B188800230022FC
:1004E0000021FFF7FDF91490149B1193119B002B31
:1004F00000F0DE802D4A4FF4A471119805F04AF8FF
:10050000D6E0019B9B8813211846FFF7CDF9149084
:10051000149B1093109B002B00F0CC80234A40F2D8
:100520004F11109805F036F8C4E0019B9B88132109
:100530001846FFF7B9F91490149B0F930F9B002BEB
:1005400000F0BA80194A4FF4AB710F9805F022F809
:10055000B2E0019B9B8800211846FFF7C9F914906F
:10056000149B0E930E9B002B00F0A8800F4A40F2C4
:100570005B110E9805F00EF8A0E000BFAFF300800D
:100580000000000000AAAE4088260020A42600201B
:10059000A8260020B0260020AC260020B42600208B
:1005A000FC2500201812030030120300481203003B
:1005B000019B06AC0633186859689A68DB680FC45B
:1005C0009DF81830002B7BD09DF82030042B07D0ED
:1005D0009DF82030062B03D09DF82030052B6FD1DD
:1005E0009DF81830022B03D102238DF8083002E069
:1005F00001238DF808304FF4C173ADF80C30019B26
:100600009B8802AA11461846FFF766F91490149BBE
:100610000D930D9B002B53D02C4A4FF4BB710D98BA
:1006200004F0B8FF4CE000238DF8333000238DF840
:100630003230274B1B68002B2FDD0198FFF7A6FDFA
:1006400003468DF832309DF83230002B0ED0214B0E
:1006500000221A60204B00221A70204B1B78002BBE
:1006600030D01F49032006F011FD2BE0194B1B6809
:100670000133184A1360174B1A681A4B1B689A42C9
:1006800020DB154B01221A70144B1B78002B19D05C
:100690001549032006F0FAFC14E00E4B00221A6004
:1006A0000D4B01221A700DE000BF0CE000BF0AE004
:1006B00000BF08E000BF06E000BF04E000BF02E0AA
:1006C00000BF00E000BF00BF16B010BD481203001D
:1006D0006C2600208C260020042600209026002076
:1006E00060120300002600207C12030000B585B0D4
:1006F0000190019B1B78012B53D0022B45D0002B7E
:100700005BD1314B1B781A46304B1344184606F028
:100710000BF92D4B1B780133DAB22B4B1A702C4995
:10072000032006F0B3FC284B1B78013B274AD35C1F
:100730000A2B06D0244B1B789AB2264B1B889A4270
:100740003DD32549032006F0A1FC1F4B1B789BB22B
:100750001A461E49214802F069FE0390039B082BAC
:100760000CD0039B112B09D0039B0293029B002BFF
:1007700004D01B4A6221029804F00CFF039B112B4A
:10078000E3D0114B00221A7019E01649012007F03E
:10079000D5FE019B5B68124A6C21184604F0FAFEF4
:1007A0000EE01049012007F0C9FE019B5B680C4A6E
:1007B0007121184604F0EEFE02E000BF00E000BF29
:1007C00000BF05B05DF804FB243700202837002067
:1007D000981203000C260020D4120300502600209B
:1007E00000130300600F030030B58DB0134B04AC51
:1007F0001D460FCD0FC495E8030084E80300104B9D
:1008000000934FF4807301930E4B02934FF4807367
:100810000393694604A807230B4A06F017F80B90C8
:100820000B9B0A930A9B002B04D0084A8E210A983E
:1008300004F0B0FE00BF0DB030BD00BF18130300C0
:10084000C4370020C4380020ED0602000013030066
:1008500000B583B00848FFF737F80190019B00937B
:10086000009B002B04D0054A9621009804F092FECC
:1008700000BF03B05DF804FBC814030000130300BD
:1008800000B589B0039002911346ADF806302E49A9
:10089000032006F0FBFB0298FFF772FA06904FF474
:1008A0008052002129480FF006FFBDF806301A4695
:1008B000029926480FF0D6FE244B1A4624490320FD
:1008C00006F0F5FB0023079325E0029A079B1344EB
:1008D0001B78184606F044F8069000230693069B02
:1008E000002B12D0069B112B0FD0069A194901201C
:1008F00006F0DDFB069B0593059B002B05D0164AF1
:1009000040F20111059804F045FE069B112BDCD046
:10091000079B01330793BDF80630079A9A42D4D358
:10092000BDF80630013B029A13441B780D2B06D10B
:1009300000BF0A2006F014F80346112BF9D000BFBF
:1009400009B05DF804FB00BF30130300B826002097
:1009500074130300A41303000013030000B587B051
:100960009DF80030012262F303038DF800309DF8FA
:100970000030012262F307138DF800301E480FF09B
:1009800016FF03469AB26B461B491846FEF794FFC2
:100990000590059B0493049B002B05D0174A4FF448
:1009A0008E71049804F0F6FD01AB08220021184670
:1009B0000FF081FE1023ADF804303C23ADF8063073
:1009C0000023ADF808304FF4C873ADF80A3001AB1E
:1009D0001846FEF76DFF0590059B0393039B002BC4
:1009E00005D0064A4FF49371039804F0D3FD00BF7D
:1009F00007B05DF804FB00BFDC1303000013030025
:100A000000B585B001AB0422002118460FF053FE5B
:100A10000D4B019301AB19460C4802F0AFFC03905B
:100A2000039B0293029B002B05D0094A4FF49B7154
:100A3000029804F0AFFD0749032006F027FB00BF32
:100A400005B05DF804FB00BF8108020050260020BD
:100A500000130300E813030000B585B00190019B6B
:100A60001B78002B11D10B4B1B883B211846FEF73E
:100A70001BFF0390039B0293029B002B05D0064AA9
:100A800040F24D11029804F085FD00BF05B05DF8FD
:100A900004FB00BFFC2500200013030000B583B059
:100AA00001900749012007F049FD064A40F259111B
:100AB000019804F06FFD00BF03B05DF804FB00BFB8
:100AC000600F03000013030000B58BB001AB1C22C4
:100AD000002118460FF0EFFD002301934FF420335F
:100AE00002934FF47023039303238DF810300023F7
:100AF000ADF8123000238DF814300C4B06930C4BDC
:100B0000079301AB184601F035FE0990099B089345
:100B1000089B002B05D0074A4FF4BE71089804F0DB
:100B200039FD00BF0BB05DF804FB00BF590A02009D
:100B30009D0A02000013030082B003468DF80730BF
:100B40009DF80730002B01D0032B00E000BF00BF51
:100B500002B0704700B583B00190019801F03CFFEE
:100B600001990A4802F0E6F90199094802F0D8FB18
:100B70000198FFF775FB019801F060FD019800F006
:100B8000B1FB00BF03B05DF804FB00BFB836002026
:100B90005026002000B58FB0554B1B68049304A865
:100BA0000023D822534906F0E7FD0D900D9B0C93CE
:100BB0000C9B002B05D0504A40F2BB110C9804F05E
:100BC000E9FC0023039303AB184606F075FE0B9077
:100BD0000B9B0A930A9B002B05D0474A4FF4E07108
:100BE0000A9804F0D7FC6B460C22002118460FF03F
:100BF00062FD01238DF8003000238DF801300023C1
:100C00008DF80230039A6B4619464020FEF76CFEC1
:100C10000B900B9B0993099B002B05D0364A40F2A1
:100C2000CB11099804F0B6FC6B460C220021184643
:100C30000FF041FD01238DF800309E23ADF8023006
:100C4000039A6B4619462320FEF74EFE0B900B9B32
:100C50000893089B002B05D0274A4FF4E9710898A8
:100C600004F098FC6B460C22002118460FF023FD7F
:100C700001238DF800304FF4A073ADF80430012348
:100C80008DF80230039A6B4619462020FEF72CFEA1
:100C90000B900B9B0793079B002B05D0164A4FF434
:100CA000ED71079804F076FC03AB184606F014FECD
:100CB0000B900B9B0693069B002B05D00E4A4FF41E
:100CC000EF71069804F066FC0C4806F0ADFD0B9041
:100CD0000B9B0593059B002B05D0074A4FF4F17140
:100CE000059804F057FC00BF0FB05DF804FB00BF8F
:100CF00018140300C439002000130300550B020030
:100D000000B583B001900091009B5A880E4B1B8860
:100D10009A4214D1009B1B8840F6772293420ED151
:100D2000009B9B88033B9AB2084B1A80074B1B8899
:100D30001A46064B1B880649032006F0CCF900BF73
:100D400003B05DF804FB00BFFC2500200C2600204A
:100D50001C14030000B585B01149124802F0A2F836
:100D60000390039B0293029B002B05D00E4A4FF485
:100D70000871029804F00EFC40210A4802F0BDF808
:100D80000390039B0193019B002B05D0064A40F280
:100D90002321019804F0FEFB00BF05B05DF804FBC1
:100DA000010D0200B83600200013030000B5ABB0FF
:100DB00019AB3C22002118460FF07DFC02238DF870
:100DC000643000238DF8663005238DF867300AAB58
:100DD0003C22002118460FF06EFC0123ADF838309C
:100DE000144B0F9302AB2022002118460FF063FC36
:100DF00001238DF80B3040230693B423079302AAF6
:100E00000AA919A8002300930B4B01F029FA299095
:100E1000299B2893289B002B05D0084A40F24521A6
:100E2000289804F0B7FB012001F00CFA00BF2BB0AA
:100E30005DF804FB08260020390B020000130300B4
:100E400000B587B0F1EE103A0193019B23F09F03A8
:100E50000293029BE1EE103AF1EE103A0393262042
:100E6000FEF782FCFEF7AAFC0590059B0493049B09
:100E7000002B04D0044A4121049804F08BFB00BFEE
:100E800007B05DF804FB00BF4414030000B583B055
:100E9000002006F0A5F80190019B0093009B002B19
:100EA00004D0044A7021009804F074FB00BF03B022
:100EB0005DF804FB4414030000B58BB0944B002292
:100EC0001A60944B00221A60934B1B6818460EF070
:100ED000C5FF0C22002190480FF0EDFB8F4B1B68E3
:100EE00018460EF0BBFF0C2200218C480FF0E3FBEC
:100EF0000C22002188480FF0DEFB0C2200218748DD
:100F00000FF0D9FB864A3C21082004F013FC09901D
:100F1000099B0893089B002B04D0824A97210898CC
:100F200004F038FB05F0B2FA0790079B0693069B86
:100F3000002B04D07B4A9921069804F02BFBFFF785
:100F400053FCFFF7A3FFFFF725FEFFF707FDFFF7B1
:100F500001FFFFF755FDFFF729FFFFF7B5FD7249C8
:100F6000032006F093F8032001F07EFA0790079B18
:100F70000593059B002B04D06A4AA721059804F02D
:100F800009FBFFF765FC0DF073FC02230321674AA0
:100F900018460DF00DFD66480DF0F0FB654A6649F8
:100FA00066480DF0E5FA614B9A78654B1A7003219B
:100FB0000B20FEF746FC022100200AF02FFF022141
:100FC00001200AF02BFF022102200AF027FF022154
:100FD00003200AF023FF0DF057FA049004980FF055
:100FE00079FA0246574B1A604FF47A70FEF7D4FC38
:100FF00004F066FC0B20FEF73AFC0346002B0CBF06
:1010000001230023DBB21A464F4B1A604F490020E0
:101010000BF0B6F803904E4901200BF0B1F80390A5
:101020004C4902200BF0ACF803904B4903200BF025
:10103000A7F80390444B1B68012B0DD1444B1B6850
:10104000012B09D13E4B1B78013B444A13604449B4
:10105000012007F073FA2FE03B4B1B68002B0DD1EA
:101060003B4B1B68002B09D1354B1B7801333B4AA6
:1010700013603C49012007F061FA1DE0324B1B6808
:10108000012B15D1324B1B68002B11D136490120A1
:1010900007F054FA4FF47A7300934FF4FA73052271
:1010A000322140F6C4100DF023FBFEF78BFB03E06A
:1010B0002E49012007F042FA2D4B1B78002B04D05B
:1010C0002C49002007F03AFA03E02B49002007F0F2
:1010D00035FA224B1B68FE2B03DD194BFF221A70D9
:1010E0000CE01E4B1B68002B03DC154B00221A7012
:1010F00004E01A4B1B68DAB2114B1A70104B1B78C4
:1011000019460A4808F0DDFC0790FFF799FE6FE7E3
:10111000882600208C260020702600207C260020B7
:101120009C3A002044140300B0140300D43600207D
:10113000B7F9010000370020DDF90100E093040059
:101140000E260020A42600200C3700201037002097
:1011500014370020183700201C37002020370020CB
:10116000680F0300700F03006C0F03005C0F030097
:1011700004260020600F0300640F030084B0019078
:101180000B468DF8033013468DF80230002303938D
:10119000019B002B3CD19DF80230012B0BD19DF817
:1011A0000330012B04D1019BDBB20E33DBB200E034
:1011B00000238DF802309DF80330012B04D0022B60
:1011C0000CD0002B15D01FE01449019A13465B0088
:1011D00013440B449DF802201A701BE00F49019A3A
:1011E00013465B0013440B4401339DF802201A7030
:1011F00010E00A49019A13465B0013440B44023382
:101200009DF802201A7005E00723039300BF01E058
:1012100007230393039B184604B070476C3E0020DD
:1012200000B583B0012200210020FFF7A7FF019045
:10123000019B002B04D0019B072B01D0019B1CE0DC
:10124000072202210120FFF799FF0190019B002B4B
:1012500004D0019B072B01D0019B0EE00422022148
:101260000020FFF78BFF0190019B002B04D0019B16
:10127000072B01D0019B00E00023184603B05DF866
:1012800004FB00B583B0012202210020FFF776FFA6
:101290000190019B002B04D0019B072B01D0019BE7
:1012A0001CE0072202210120FFF768FF0190019B4B
:1012B000002B04D0019B072B01D0019B0EE00A22DA
:1012C00000210020FFF75AFF0190019B002B04D062
:1012D000019B072B01D0019B00E00023184603B0BF
:1012E0005DF804FB00B585B00190019B1B88102BB5
:1012F00002D0112B18D02FE0194B1B68002B0DD1F9
:10130000FFF78EFF0390039B002B07D0154B1B6844
:10131000002B03D0134B1B6803989847104B1B6896
:1013200001330F4A136017E00D4B1B68013B0C4A59
:1013300013600B4B1B68002B0DD1FFF7A2FF03902E
:10134000039B002B07D0074B1B68002B03D0054BDA
:101350001B680398984700BF00BF05B05DF804FB09
:10136000743E0020703E00206DDF704700BF1846BD
:1013700072DF704700BF184679DF704700BF18461C
:101380007DDF704700BF184664DF704700BF184616
:1013900082B003460091ADF80630BDF80630DAB2EF
:1013A000009B1A70BDF806301B0A9AB2009B0133ED
:1013B000D2B21A700223184602B0704700B589B045
:1013C000039002911346ADF80630029B1B8803F18F
:1013D0000902BDF806309A4201D90C2351E005AB51
:1013E0001846FFF7C1FF0790079B002B01D0079B12
:1013F00047E0029B1B881A46039B134408221A707D
:10140000029B1B8801339AB2029B1A80029B1B88A5
:101410001A46039B13441B221A70029B1B8801333C
:101420009AB2029B1A80029B1B881A46039B98184B
:1014300005AB0133062219460FF014F9029B1B88F5
:1014400006339AB2029B1A809DF8143023F00103F0
:10145000DBB2002B07D1029B1B881A46039B134467
:1014600000221A7006E0029B1B881A46039B134455
:1014700001221A70029B1B8801339AB2029B1A80C8
:101480000023184609B05DF804FB00B589B003904D
:1014900002910192ADF80230039B1B78012B05D11C
:1014A000039B5B78002B01D1072389E0019B1B88FC
:1014B0009A1CBDF802309A420ED8039B1B78012B70
:1014C0000CD1019B1B881A46039B5B7813449A1C22
:1014D000BDF802309A4201D90C2371E0019B1B88B0
:1014E000BDF80220D31A9BB2023BADF81C30BDF808
:1014F0001C30ADF81630019B1B880233029A13444E
:101500000DF1160211461846FFF73AFF0690069BAA
:10151000002B01D0069B53E0039B1B78022B09D1C3
:10152000BDF81630BDF81C209A4203D309238DF86C
:101530001F3017E008238DF81F30039B1B78012B09
:101540000CD1039B5B789BB2BDF81C209A4205D35B
:10155000039B5B789BB2ADF8163003E0BDF81C30FE
:10156000ADF81630BDF81630FE2B01D90C2327E05C
:10157000BDF81630DAB2019B1B881946029B0B445A
:101580000132D2B21A70019B1B8801339AB2019BBF
:101590001A80019B1B881A46029B13449DF81F204A
:1015A0001A70019B1B8801339AB2019B1A80019B20
:1015B0001A88BDF8163013449AB2019B1A80002392
:1015C000184609B05DF804FB00B587B0039002919E
:1015D0001346ADF80630029B1B881A1DBDF8063075
:1015E0009A4201D90C2339E00DF112031846FFF796
:1015F000C3FE0590059B002B01D0059B2EE0029BAE
:101600001B881A46039B134403221A70029B1B88F3
:1016100001339AB2029B1A80029B1B881A46039BD5
:10162000134419221A70029B1B8801339AB2029B41
:101630001A80BDF81220029B1B881946039B0B449D
:1016400019461046FFF7A4FE03461946029B1A8866
:101650008BB213449AB2029B1A800023184607B03B
:101660005DF804FB84B0029101921A4603468DF89E
:101670000F301346ADF80C30019B1B88DA1CBDF807
:101680000C309A4201D90C2328E0019B1B881A4692
:10169000029B134402221A70019B1B8801339AB2E9
:1016A000019B1A80019B1B881A46029B134401224E
:1016B0001A70019B1B8801339AB2019B1A80019B0F
:1016C0001B881A46029B13449DF80F201A70019B39
:1016D0001B8801339AB2019B1A800023184604B07C
:1016E000704784B0029101921A4603468DF80F307C
:1016F0001346ADF80C30019B1B88DA1CBDF80C308A
:101700009A4201D90C2328E0019B1B881A46029BB0
:10171000134402221A70019B1B8801339AB2019B69
:101720001A80019B1B881A46029B13440A221A70D6
:10173000019B1B8801339AB2019B1A80019B1B8875
:101740001A46029B13449DF80F201A70019B1B88B8
:1017500001339AB2019B1A800023184604B07047E7
:1017600000B58BB0039001930B468DF80B301346F8
:101770008DF80A3000238DF823300C9B1B88ADF8C0
:101780002030002309936DE0039B5A68099B9B005E
:101790001A4404AB106818600DF1170104AB002265
:1017A0001846FFF7F1FD0790079B002B01D0079B20
:1017B0007AE09DF817309DF80A209A424FD19DF8A3
:1017C0002330002B01D0002300E002238DF81B30D2
:1017D0000C9B1B881A469DF817301A449DF81B3045
:1017E0001A44BDF834309A4201DD0C235CE09DF8C8
:1017F000233083F00103DBB2002B16D00C9B1B8837
:1018000001339AB20C9B1A800C9B1B881A46019BD1
:1018100013449DF80B201A700C9B1B8801339AB25D
:101820000C9B1A8001238DF823300C9B1B881A46D1
:10183000019B1A440DF1170104AB1846FFF7A4FDF4
:101840000790079B002B01D0079B2DE00C9B1A886B
:101850009DF817309BB213449AB20C9B1A80099BD7
:1018600001330993039B1B881A46099B93428BDB28
:101870009DF82330002B16D00C9B1A88BDF8203021
:10188000D31A9BB2013BADF81830BDF81830FF2BCE
:1018900001D90C2308E0BDF82030019A1344BDF8AB
:1018A0001820D2B21A70002318460BB05DF804FB62
:1018B00000B589B0059003930B468DF8133013469D
:1018C0008DF812309DF81310BDF82C3001930A9B4F
:1018D0000093039B02220598FFF742FF0790079BA6
:1018E000002B01D0079B12E09DF81210BDF82C30A0
:1018F00001930A9B0093039B10220598FFF730FF8A
:101900000790079B002B01D0079B00E0002318469F
:1019100009B05DF804FB82B00190019B1B88052B88
:101920000AD9019B1B88B3F5486F07D9019B1B8817
:101930004FF6FF72934201D0072325E0019B5B889D
:10194000052B0AD9019B5B88B3F5486F07D9019B2A
:101950005B884FF6FF72934201D0072314E0019B8E
:101960001B884FF6FF7293420DD0019B5B884FF6A8
:10197000FF72934207D0019B1A88019B5B889A42B1
:1019800001D9072300E00023184602B0704700B5D4
:1019900087B0039002910192ADF80230019B1B8841
:1019A0009A1DBDF802309A4201D90C234BE00398EE
:1019B000FFF7B1FF0590059B002B01D0059B42E08E
:1019C000019B1B881A46029B134405221A70019B37
:1019D0001B8801339AB2019B1A80019B1B881A460F
:1019E000029B134412221A70019B1B8801339AB286
:1019F000019B1A80039B1A88019B1B881946029B36
:101A00000B4419461046FFF7C3FC03461946019BD9
:101A10001A888BB213449AB2019B1A80039B5A888E
:101A2000019B1B881946029B0B4419461046FFF781
:101A3000AFFC03461946019B1A888BB213449AB235
:101A4000019B1A800023184607B05DF804FB00B51F
:101A500087B0039002910192ADF80230039B9B88FE
:101A600002330593019B1B881A46059B13449A1C5D
:101A7000BDF802309A4201D90C2354E0059BFE2B9D
:101A800001D90C234FE0059BDAB2019B1B88194654
:101A9000029B0B440132D2B21A70019B1B880133A6
:101AA0009AB2019B1A80019B1B881A46029B134421
:101AB000FF221A70019B1B8801339AB2019B1A8086
:101AC000039B1A88019B1B881946029B0B441946ED
:101AD0001046FFF75DFC03461946019B1A888BB23E
:101AE00013449AB2019B1A80039B9B88002B19D048
:101AF000039B9B68002B01D1072314E0019B1B88EB
:101B00001A46029B9818039B9968039B9B881A4668
:101B10000EF0A8FD019B1A88039B9B8813449AB280
:101B2000019B1A800023184607B05DF804FB00B53E
:101B300089B0039002910192ADF80230039B9B6A39
:101B4000002B01D1072372E000238DF81F3066E0DF
:101B5000039B996A9DF81F2013465B0013449B006A
:101B60000B440693069B9B8802330593059BFE2B33
:101B700001D90C235BE0059BDAB2019B1B88194657
:101B8000029B0B440132D2B21A70019B1B880133B5
:101B90009AB2019B1A80019B1B881A46029B134430
:101BA00016221A70019B1B8801339AB2019B1A807E
:101BB000069B1A88019B1B881946029B0B441946F9
:101BC0001046FFF7E5FB03461946019B1A888BB2C6
:101BD00013449AB2019B1A80069B9B88002B19D054
:101BE000069B9B68002B01D1072320E0019B1B88EB
:101BF0001A46029B9818069B9968069B9B881A4672
:101C00000EF030FD019B1A88069B9B8813449AB204
:101C1000019B1A809DF81F3001338DF81F30039B04
:101C200093F82C309DF81F209A4291D30023184638
:101C300009B05DF804FB00B589B0059004910392EA
:101C400000230793039B1B88ADF81A30039B0022E7
:101C50001A80059B93F82D30002B0CD0BDF81A305C
:101C60001A4603990498FFF7A9FB0790079B002BDE
:101C700001D0079BC4E0059B9B78002B0CD0BDF8DE
:101C80001A301A4603990498FFF79EFC0790079BA9
:101C9000002B01D0079BB3E0059BDB78002B0ED017
:101CA000059BDB7858B2BDF81A30039A0499FFF708
:101CB000D9FC0790079B002B01D0079BA0E0059B58
:101CC0005B68002B0FD0059B5B6893F90000BDF8A3
:101CD0001A30039A0499FFF704FD0790079B002B25
:101CE00001D0079B8CE0059B1B89002B12D0059B24
:101CF00003F10800BDF81A300193039B0093049B85
:101D000006220221FFF7D4FD0790079B002B01D08C
:101D1000079B75E0059B1B8A002B12D0059B03F1E6
:101D20001000BDF81A300193039B0093049B072217
:101D30000321FFF7BDFD0790079B002B01D0079BF8
:101D40005EE0059B1B8B002B12D0059B03F1180056
:101D5000BDF81A300193039B0093049B15221421B4
:101D6000FFF7A6FD0790079B002B01D0079B47E0DC
:101D7000059B1B6A002B0DD0059B186ABDF81A3015
:101D8000039A0499FFF703FE0790079B002B01D0ED
:101D9000079B35E0059B5B6A002B0DD0059B586ABD
:101DA000BDF81A30039A0499FFF751FE0790079B7C
:101DB000002B01D0079B23E0059B93F82C30002BD0
:101DC0000CD0BDF81A30039A04990598FFF7AFFEBE
:101DD0000790079B002B01D0079B11E0059B1B7808
:101DE000002B0CD0BDF81A30039A04990598FFF720
:101DF0004CFB0790079B002B01D0079B00E0079B43
:101E0000184609B05DF804FB82B00190019BDB78B5
:101E100003F00403002B01D1072300E00023184640
:101E200002B0704782B00190019BDB78002B01D09B
:101E3000072300E00023184602B0704700B597B0B2
:101E4000019000911F23ADF84A301F23ADF84830B0
:101E5000019B002B18D00198FFF7D6FF1390139B1E
:101E6000002B01D0139B3FE00DF14A020AAB19464B
:101E70000198FFF7E0FE1390139B002B01D0139BFA
:101E800032E00AAB159304E0002315930023ADF86C
:101E90004A30009B002B17D00098FFF7C3FF139028
:101EA000139B002B01D0139B1EE012AA02AB194614
:101EB0000098FFF7C0FE1390139B002B01D0139BDB
:101EC00012E002AB149304E0002314930023ADF856
:101ED0004830BDF84A30D9B2BDF84830DBB2149A68
:101EE0001598FFF745FA0346184617B05DF804FB4E
:101EF00073DF704700BF1846014B1B7818467047C8
:101F00004E3F002084B00190002303930AE0019A21
:101F1000039B13441B78002B01D0012306E0039B95
:101F200001330393039B052BF1D90023184604B01A
:101F30007047000082B003468DF807309DF80730E7
:101F40005A1C074B83FB02135910D317C91A0B46AF
:101F50009B000B44D11ACBB2184602B0704700BFA9
:101F60006766666682B00190019BDB7B012B03D123
:101F7000019B9A88024B1A8000BF02B0704700BFD5
:101F8000403F002000B585B001900E4B00221A7032
:101F9000019B9A880C4B1B889A420ED1012000F0BD
:101FA00063FA0390039B002B07D0084B1B68002BA0
:101FB00003D0064B1B680398984700BF05B05DF837
:101FC00004FB00BF4C3F0020403F0020483F002062
:101FD00000B585B00190019B1B7A002B15D10D4BEC
:101FE0001B781846FFF7A6FF0346184600F03CFA98
:101FF0000390039B002B09D0074B1B68002B05D0D7
:10200000054B1B680398984700E000BF05B05DF8DA
:1020100004FB00BF7B3E0020483F002000B583B09A
:1020200001AB184604F0B4FB019B002B14BF012345
:102030000023DBB2184603B05DF804FB00B585B0A1
:1020400003468DF807301E48FFF75CFF03468DF806
:102050000F309DF80730013B032B2BD801A252F81B
:1020600023F000BF75200200892002009D2002009D
:10207000A9200200134B5B78002B05D09DF80F3090
:10208000002B01D0012316E00E4B9B78002B05D0CE
:102090009DF80F30002B01D002230CE0094BDB78B8
:1020A000002B01D0032306E0064B1B79002B01D047
:1020B000042300E00023184605B05DF804FB00BFD0
:1020C000A13E00207C3E002082B00190094B0122FD
:1020D0001A70019B084A5A60019B01221A70019BE9
:1020E00000229A81019B00225A810023184602B0E7
:1020F000704700BF7A3E0020A03E002082B00190D1
:102100000B4B02221A70019B0A4A5A60019B012262
:102110001A70094BDB689AB2019B9A81064B9B6847
:102120009AB2019B5A810023184602B0704700BF43
:102130007A3E0020A03E00207C3E002000B585B005
:1021400001901B4B1B699AB2019B5A81184B5B692A
:102150009AB2019B9A81164B1B78002B1FD0154B0E
:102160001B7883F00103DBB2002B18D0FFF7C4FE0D
:102170000346002B13D0019B02221A720E4B04223D
:10218000DA7000210C48FFF759FE0390039B002BE7
:1021900001D0039B07E0094B05221A7002E0074BB0
:1021A00003221A700023184605B05DF804FB00BF37
:1021B0007C3E00204C3F0020A83E00207A3E0020BC
:1021C00000B585B001901B4B9B699AB2019B5A8167
:1021D000184BDB699AB2019B9A81164B1B78002B36
:1021E0001FD0154B1B7883F00103DBB2002B18D0F6
:1021F000FFF782FE0346002B13D0019B02221A72C6
:102200000E4B0422DA7000210C48FFF717FE0390F2
:10221000039B002B01D0039B07E0094B06221A7099
:1022200002E0074B04221A700023184605B05DF83F
:1022300004FB00BF7C3E00204C3F0020A83E002055
:102240007A3E002082B003468DF80730034A9DF89D
:102250000730137000BF02B0704700BF9C3E0020E3
:1022600030B589B00390029101920093039B002B3B
:1022700002D0019B002B01D10E23D5E06C4B012233
:102280001A706C4B00221A706B4A019B14461D4653
:102290000FCD0FC495E80F0084E80F00674B0022B4
:1022A0001A70674A009B1360664A0C9B1360664B6A
:1022B0004FF6FF721A800722002164480EF0FBF9E6
:1022C0003C22002162480EF0F6F9039B1A78604B1D
:1022D0001A70039B9A785E4B9A70039BDA785C4B7A
:1022E000DA70039B5A785A4B5A70594B039A103341
:1022F000103292E8030083E80300554B039A083339
:10230000083292E8030083E80300514B039A183324
:10231000183292E8030083E80300039B5B6A002BFA
:1023200029D04B4B4B4A5A624A4B4B4A9A60039B0B
:102330005A6A474B5B6A12881A80039B5A6A444B5D
:102340005B6A92889A80002307930DE0039B5B6A87
:102350009A68079B134419783F4A079B13440A461F
:102360001A70079B01330793394B5B6A9B881A46A7
:10237000079B9342EAD3039B9B6A002B33D0374BD6
:10238000374A9A60324B354A9A62314B9B6A344ADB
:102390009A60039B9A6A2E4B9B6A92889A80039B51
:1023A0009A6A2B4B9B6A12881A80002306930DE0D1
:1023B000039B9B6A9A68069B13441978284A069BDC
:1023C00013440A461A70069B01330693204B9B6AFE
:1023D0009B881A46069B9342EAD3039B93F82C20D2
:1023E0001B4B83F82C20039B1B6A002B0ED0184B31
:1023F0001C4A1A62039B1A6A154B1B6A52885A8040
:10240000039B1A6A124B1B6A12881A80039B5B6833
:10241000002B03D0039B5B680D4A536002990C4864
:10242000FFF70CFD0590059B184609B030BD00BFB5
:10243000783E00207B3E00207C3E00209C3E002019
:10244000443F0020483F0020403F0020A03E0020A5
:10245000A83E0020E43E0020F03E0020103F002077
:102460001C3F00203C3F002000B589B003468DF89A
:102470000730664B1B7883F00103DBB2002B01D0E1
:102480000823BEE0624A9DF807301370FFF7C6FDCF
:102490000346002B04D05F4B01221A700023B0E0EA
:1024A000072200215C480EF006F95C4B5B78002B9C
:1024B00003D0574B1B78012B0FD0584B9B78002B28
:1024C00003D0534B1B78012B07D0544B9B78002B28
:1024D00012D04F4B1B78022B0ED1514B1B68002B97
:1024E00007D0504B01221A704D4B1B6808209847AB
:1024F00002E04C4B00221A709DF807301846FFF797
:102500009DFD03461A46424B1A70454B1B68002B33
:102510001DD03F4B1B78032B03D03D4B1B78042B66
:1025200015D13E4B1B78002B11D03F4B1B7883F00D
:102530000103DBB2002B0AD03C4B00221A703C4B4B
:1025400001221A70364B1B680720984702E0384B6F
:1025500000221A7003AB1022002118460EF0ABF8CF
:1025600000238DF80C3000238DF81430284B1B7895
:10257000042B29D801A252F823F000BFC125020084
:10258000912502009D250200A9250200B525020023
:1025900003AB1846FFF798FD079016E003AB18460B
:1025A000FFF7ACFD079010E003AB1846FFF7C6FD40
:1025B00007900AE003AB1846FFF702FE079004E01D
:1025C0001C4B00221A7000E000BF114B1B78002B3F
:1025D0000CD0194B1A7803AB11461846FFF788FC4C
:1025E0000790079B002B01D0079B0AE00C4B1B6850
:1025F000002B05D00A4B1B680E4A127810469847EC
:102600000023184609B05DF804FB00BF783E0020A7
:102610007B3E0020793E0020A03E00207C3E002032
:10262000443F0020A73E00204C3F00204E3F0020AA
:102630004D3F00207A3E00209C3E002000B583B034
:102640000190019B1B88112B07D01B2B09D0102B4D
:102650000BD10198FFF786FC08E00198FFF792FC88
:1026600004E00198FFF7B4FC00E000BF00BF03B036
:102670005DF804FB75DF704700BF184676DF7047D2
:1026800000BF18467ADF704700BF18467BDF7047EF
:1026900000BF184682B00190019B5A88074B1B88E7
:1026A0009A4207D3019B5A88044B5B889A4201D80F
:1026B000012300E00023184602B070476C3F002061
:1026C00000B587B00190274B1B884FF6FF729342ED
:1026D00043D0254B1B780133DAB2234B1A70234BBE
:1026E0001A7B214B1B789A4212D31E4B1B88204920
:1026F0001846FFF7BFFF0590059B002B2DD01B4B05
:102700009B69002B29D0194B9B690598984724E0B9
:10271000154B00221A70154B1B7C002B11D0114B4E
:102720001B883B211846FFF7A9FF0490049B002B50
:1027300007D00E4B9B69002B03D00C4B9B69049870
:1027400098470A4B5B69002B07D000238DF80C30AB
:10275000064B5B6903AA1046984700BF07B05DF8B7
:1027600004FB00BF763F0020743F0020503F002054
:102770006C3F002030B585B001901C4A019B144687
:102780001D460FCD0FC495E8070084E80700184BDD
:1027900000221A70019B1B68002B0ED0019B1A6847
:1027A000144B1068516803C31248FFF76BFF039086
:1027B000039B002B0AD0039B15E00E48FFF766FF32
:1027C0000390039B002B01D0039B0CE00A4B4FF6B8
:1027D000FF721A80094B00221A70094A0021094829
:1027E00003F088FE0346184605B030BD503F002078
:1027F000A03F00206C3F0020763F0020743F002067
:10280000C1260200D014030000B585B02548FFF7AB
:1028100041FF034683F00103DBB2002B2ED0224B95
:102820001B78002B0CD0214B5B69002B32D000238E
:102830008DF804301D4B5B6901AA1046984729E0CA
:102840001B4B1B78002B03D1184B5B68039302E0F2
:10285000164B9B680393174B00220399184603F00D
:1028600079FE0290029B002B14D0104B9B69002B29
:1028700010D00E4B9B69029898470BE00B4B5B699D
:10288000002B07D001238DF80030084B5B696A46A6
:1028900010469847044B00221A7000BF05B05DF83F
:1028A00004FB00BF783F0020A03F0020503F0020E5
:1028B000743F0020803F002000B583B00190019B51
:1028C0009A880B4B1A800B4A019B103393E8030044
:1028D00082E80300084B00221A70084BDB89002BAA
:1028E00001D1FFF791FF00BF03B05DF804FB00BF0B
:1028F000763F0020783F0020743F0020503F0020AA
:1029000000B585B001900D4B4FF6FF721A800C4B4D
:1029100000221A700B4B184603F04EFE0390039BE7
:10292000002B07D0084B9B69002B03D0064B9B69FB
:102930000398984700BF05B05DF804FB763F002080
:10294000743F0020803F0020503F002000B585B03C
:102950000190019B06330393039B1A88134BDB8979
:102960009A421ED1039B5B89022B1AD1039B0C3325
:10297000184600F066F80346002B02D0FFF744FF2C
:102980000FE00B4B184603F017FE0290029B002B42
:1029900007D0064B9B69002B03D0044B9B69029820
:1029A000984700BF05B05DF804FB00BF503F002012
:1029B000803F002000B583B00190064A019B083398
:1029C00093E8030082E80300FFF71EFF00BF03B097
:1029D0005DF804FB783F002000B583B00190019BB7
:1029E0001B88112B0DD0112B02DC102B05D014E00D
:1029F000122B0ED0502B08D00FE00198FFF75CFF90
:102A00000BE00198FFF77CFF07E00198FFF79EFFBE
:102A100003E00198FFF7CEFF00BF00BF03B05DF8F1
:102A200004FB82B00190019B1B781AB2019B013319
:102A30001B781B021BB213431BB29BB2184602B099
:102A4000704700B585B001900198FFF7EAFF034693
:102A5000ADF80E30BDF80E3003F00103002B14BFAB
:102A600001230023DBB2184605B05DF804FB00002B
:102A700000B585B00190009100238DF80F309DF8CE
:102A80000F305A1C8DF80F201A46019B1344009AF0
:102A900012781A709DF80F305A1C8DF80F201A46C4
:102AA000019B1344009A52781A709DF80F30022B44
:102AB0000CBF01230023DBB20293029B002B04D145
:102AC000054A4721002002F065FD9DF80F301846A9
:102AD00005B05DF804FB00BFD41403008FDF70471E
:102AE00000BF18469EDF704700BF1846ADDF704735
:102AF00000BF184682B00190019B9E221A80019B64
:102B000017225A80019B00221A71019B00225A71E0
:102B1000019BA2229A71019B1B22DA7100BF02B0B5
:102B20007047000000B587B003460091ADF806304D
:102B3000BDF80630009ADB0013441B7B9BB2ADF856
:102B40000C30BDF80630009ADB0013441B7B9BB2AF
:102B5000ADF80E300023ADF810300023ADF8123080
:102B600003A9BDF8063000221846FFF7B7FF05900D
:102B7000059B002B06D0BDF80620059B03490120CC
:102B800004F0A9FA00BF07B05DF804FB18150300B4
:102B900000B587B001900091009B9B88ADF816307E
:102BA000BDF81630DB00019A134406330493019BF1
:102BB0001A79049B9A71009BDB7B012B02D0022BBC
:102BC00005D009E0019B1A88049B1A8004E0019B50
:102BD0005A88049B1A8000BF049B1A88049B5B8858
:102BE0009A421BD9049B1A88BDF816301146184624
:102BF000FFF778FF0390039B002B03D1049B012276
:102C00005A710BE0039B112B03D1049B01221A7113
:102C100004E0039A0949012004F049FA049B9A79D7
:102C2000049BDB799A4205D9BDF816300199184604
:102C3000FFF778FF00BF07B05DF804FB8C150300B9
:102C400000B583B001900091009B9B88DB00019A46
:102C5000134406331846FFF74DFF00BF03B05DF87D
:102C600004FB00B587B001900091009B9B88ADF8F4
:102C70001630009B5B89ADF81430BDF81630DB00D0
:102C8000019A134406330493049B1B88BDF8142057
:102C9000934228BF13469AB2049B5A80049B5B88D8
:102CA000172B38BF17239AB2049B5A80019B9B694C
:102CB000002B15D0049B5B79002B11D040F67723B5
:102CC000ADF80830BDF81630ADF80A30049B5B88CB
:102CD000ADF80C30019B9B6902AA114601989847F8
:102CE000049B00225A71049B00221A7100BF07B096
:102CF0005DF804FB00B589B001900091009B9B88B2
:102D0000ADF81C30009BDB88ADF81E30BDF81C30E0
:102D1000DB00019A134406330693BDF81E30172BCF
:102D200038BF1723ADF81E30069B1B88BDF81E2048
:102D3000934228BF13469AB2069B5A80069B0022F4
:102D40001A71069B1A88BDF81C3011461846FFF709
:102D5000CDFE0590059B002B04D0059A114901205A
:102D600004F0A5F9069B5B79002B16D1019B9B69AA
:102D7000002B13D040F67723ADF80C30BDF81C3093
:102D8000ADF80E30069B5B88ADF81030019B9B6957
:102D900003AA11460198984700E000BF09B05DF80A
:102DA00004FB00BFE815030030B593B0019000911B
:102DB000009B04AC1D1D0FCD0FC40FCD0FC40FCD54
:102DC0000FC42B682360BDF81030ADF84630BDF855
:102DD0001420BDF84630D1B2019ADB0013440A46F4
:102DE0005A73019B9B69002B19D002AB00221A6019
:102DF0009A804DF67A23ADF80830BDF84630ADF82C
:102E00000A30BDF84630019ADB0013445B7B8DF835
:102E10000C30019B9B6902AA11460198984700BF9C
:102E200013B030BD00B589B001900091009B043310
:102E30000693069B1B88DB00019A13440633079315
:102E4000069B9B888DF81730079B9B799DF8172070
:102E5000934228BF13468DF8163002AB00221A6049
:102E60005A609DF816309BB2ADF808309DF81630C8
:102E70009BB2ADF80A30069B1B8802A900221846B7
:102E8000FFF72CFE0490049B002B04D0049A044905
:102E9000012004F00CF900BF09B05DF804FB00BF8D
:102EA0004016030000B585B001900091019B002BF6
:102EB00001D10E231DE0019B009A9A61019B9E2285
:102EC0001A80019B9E225A80019BA2221A71002324
:102ED00003930AE0039BDB00019A13440633184670
:102EE000FFF708FE039B01330393039B012BF1D9EA
:102EF0000023184605B05DF804FB82B001900B4634
:102F0000ADF80230019B002B01D10E230EE0BDF87D
:102F10000230162B03D9BDF802309E2B01D90723AE
:102F200004E0019BBDF802201A800023184602B07D
:102F30007047000000B585B001900091009B9B8810
:102F4000ADF80E30BDF80E30012B5FD8009B1B880A
:102F5000212B26D0212B04DC102B09D0112B0CD0D7
:102F600024E03A2B0ED0552B11D0222B14D01DE08B
:102F700000990198FFF70CFE18E000990198FFF7FF
:102F80005FFE13E000990198FFF76BFE0EE00099D9
:102F90000198FFF7AFFE09E000990198FFF704FFE1
:102FA00004E000990198FFF73DFF00BFBDF80E3027
:102FB000019ADB0013449B7A002B28D0BDF80E3019
:102FC000019ADB001344DA88BDF80E30114618462A
:102FD000FFF788FD0290029B002B0ED1BDF80E304A
:102FE000019ADB00134400229A72BDF80E30019A58
:102FF000DB0013440122DA7209E0029B112B06D098
:10300000029A0449012004F052F800E000BF05B024
:103010005DF804FB8C150300A0DF704700BF184665
:10302000A2DF704700BF1846A6DF704700BF1846F2
:1030300062DF704700BF184682B001900091009B8C
:103040009A88019B9A8200BF02B0704782B00190BB
:103050000091019B4FF6FF729A8200BF02B0704749
:1030600000B585B001900091009B06330393039B4C
:103070001A88019B1B899A4213D1039B5B89022BFF
:103080000FD1039B0C331846FFF7DBFC0346002BE4
:1030900003D0019B01229A7517E0019B00229A75CB
:1030A00013E0039B1A88019B9B899A420DD1019BD7
:1030B0009B69002B09D0019B9B69039A02F10C01CB
:1030C000039A528901989847FFE700BF05B05DF861
:1030D00004FB00B593B0019000910AAB03220021DC
:1030E00018460DF0E8FA9DF82830012262F3030338
:1030F0008DF828309DF82830012262F307138DF8EF
:1031000028309DF82930012262F303038DF829301D
:103110009DF82930012262F307138DF829309DF8BC
:103120002A30012262F342038DF82A300BAB1C22B5
:10313000002118460DF0BFFA9DF82C3043F0100323
:103140008DF82C3000230C9300230E9300230F9353
:103150000AAB109300231193019B1B788DF812305A
:103160000323ADF8103003AB0322002118460DF005
:10317000A2FA9DF80C30012262F303038DF80C30A3
:103180009DF80C30012262F307138DF80C309DF886
:103190000D30012262F303038DF80D309DF80D30E0
:1031A000012262F307138DF80D309DF80E300122D5
:1031B00062F342038DF80E309DF80E306FF3C303B7
:1031C0008DF80E309DF80E306FF304138DF80E302D
:1031D0009DF80E3043F001038DF80E3005AB14223C
:1031E000002118460DF067FA04AB059303AB069374
:1031F0000123ADF81C300023ADF81E309B23ADF841
:103200002030019B5888019B043305AA0BA9FFF7C6
:1032100007FF0346184613B05DF804FB00B591B0F4
:103220000190009109AB1C22002118460DF043FAD1
:103230009DF8243043F008038DF824309DF82430A5
:1032400043F004038DF8243000230A9300230C93E9
:1032500000230D9300230E9300230F93019B1B78F3
:103260008DF80E300223ADF80C3002AB03220021A2
:1032700018460DF020FA9DF80830012262F303038E
:103280008DF808309DF80830012262F307138DF89D
:1032900008309DF80930012262F303038DF80930EC
:1032A0009DF80930012262F307138DF809309DF86B
:1032B0000A30012262F342038DF80A309DF80A3089
:1032C0006FF3C3038DF80A309DF80A306FF30413CF
:1032D0008DF80A309DF80A3043F001038DF80A306A
:1032E00004AB1422002118460DF0E5F903AB04935A
:1032F00002AB05930123ADF818300023ADF81A3066
:103300009B23ADF81C30019B5888019B0C3304AA09
:1033100009A9FFF785FE0346184611B05DF804FBC6
:1033200000B583B001900091019B002B1FD0009B42
:10333000002B1CD0009B1B88112B0ED0112B02DC04
:10334000102B05D016E0502B0CD0A62B11D011E07D
:1033500000990198FFF770FE0CE000990198FFF7C3
:1033600075FE07E000990198FFF77AFE02E000BFC2
:1033700000E000BF03B05DF804FB000010B588B0AA
:1033800001900091284B02AC0FCB84E80F00019B09
:10339000002B01D10E2344E0009B002B01D10E2312
:1033A0003FE0019B4FF6FF729A82009B1A68019BD7
:1033B0009A61019B01229A75019A02AB1146184647
:1033C000FFF736FE0790079B002B01D0079B28E0F4
:1033D000019B1B788DF81A300123ADF81830019B42
:1033E0009A1C06AB19460120FFF716FE0790079BB3
:1033F000002B01D0079B14E000990198FFF70EFF06
:103400000790079B002B01D0079B0AE000990198C9
:10341000FFF75FFE0790079B002B01D0079B00E0A2
:103420000023184608B010BDA016030000B589B0EF
:10343000039002911346ADF80630039B002B01D197
:103440000E232EE0039B9B8A4FF6FF72934206D019
:10345000039B9B7D83F00103DBB2002B01D008238B
:103460001FE0BDF806309B2B01D9072319E004AB00
:103470001022002118460DF01EF9039B9B88ADF821
:103480001030029B07930DF10603069301238DF87C
:103490001230039B9B8A04AA11461846FFF7C4FD0D
:1034A0000346184609B05DF804FB82B001904FF066
:1034B0008042019BC2F8083300BF02B0704784B05D
:1034C0000346ADF80630BDF8063003F18043002214
:1034D0001A60BDF8063003F180431B680393039B19
:1034E00000BF04B0704782B00346ADF80630BDF8A7
:1034F000063003F180431B68002B14BF0123002317
:10350000DBB2184602B0704782B003468DF8073030
:103510009DF807304FF0804203F00303C2F81835DE
:1035200000BF02B07047000082B003468DF807303C
:103530000A4A9DF907305B0952F823209DF80730AD
:1035400003F01F03012101FA03F31340002B14BF02
:1035500001230023DBB2184602B0704700E100E00F
:1035600008B50020FFF7E0FF034683F00103DBB25C
:10357000002B03D00721002000F01EF900BF08BD7A
:1035800000B583B000230193134B1B78002B02D0AE
:10359000852301931BE0104B00229A600E4B002202
:1035A0005A600D4B00221A610B4B0022DA60FFF7C4
:1035B000D7FF04F0D9F8034683F00103DBB2002BF8
:1035C00002D00120FFF7A0FF034B01221A70019BDC
:1035D000184603B05DF804FBA43F002084B00190BE
:1035E000019B1B680393039B002B03D0039B1A686A
:1035F000019B1A60039B184604B0704700B585B064
:1036000003468DF807309DF80730002B02D10C4B94
:10361000039301E00B4B03930398FFF7DFFF029046
:10362000029B002B06D0029B5B689DF8072010468A
:103630009847F1E700BF00BF05B05DF804FB00BF8D
:10364000AC3F0020B43F002008B54FF48070FFF776
:103650004AFF0346002B0CD04FF48070FFF72FFF7A
:103660000120FFF722FF0E4B01225A700020FFF7C6
:10367000C5FF4FF48270FFF736FF0346002B0CD0D6
:103680004FF48270FFF71BFF0220FFF70EFF044B81
:1036900001229A700120FFF7B1FF00BF08BD00BFF3
:1036A000A43F002000B583B00190019B002B02D104
:1036B0000020FFF7A3FF00BF03B05DF804FB00008C
:1036C00000B583B000238DF807300DF107031846CD
:1036D00003F02AF80C4B1B7883F00103DBB2002BBC
:1036E00001D0FFF74DFF084BDB680133064AD3607A
:1036F000054B01229A709DF80730184603F01EF81A
:1037000000BF03B05DF804FBA43F002082B0034675
:103710008DF807309DF8073003F01F0205499DF929
:1037200007305B09012000FA02F241F8232000BFB4
:1037300002B0704700E100E082B003468DF8073028
:103740009DF8073003F01F0206499DF907305B0919
:10375000012000FA02F2603341F8232000BF02B0DA
:10376000704700BF00E100E082B0034600918DF891
:1037700007309DF90730002B0CDA009BDAB20C49B8
:103780009DF8073003F00F03043B5201D2B20B4403
:103790001A7609E0009BDAB206499DF9073052011A
:1037A000D2B20B4483F8002300BF02B0704700BFC1
:1037B00000ED00E000E100E000B583B003460A46FA
:1037C0008DF8073013468DF806309DF806209DF9D8
:1037D000073011461846FFF7C7FF9DF90730184616
:1037E000FFF7AAFF9DF907301846FFF78FFF00BFCC
:1037F00003B05DF804FB00B583B00346ADF80630B6
:10380000BDF80630184600F026F803461B68012B69
:103810000CBF01230023DBB2184603B05DF804FBA4
:1038200000B585B00346ADF80630BDF80630184641
:1038300000F011F803461A4600231360BDF8063065
:10384000184600F008F803461B680393039B00BF6B
:1038500005B05DF804FB82B00346ADF80630BDF854
:10386000063003F1804303F5C043184602B07047A9
:1038700082B00190034A019BC2F8043300BF02B03A
:10388000704700BF0060004082B00190034BD3F846
:103890000423019B1340184602B0704700600040AB
:1038A00082B00190084A019B03F5A27352F82330BD
:1038B000054943F00102019B03F5A27341F823205F
:1038C00000BF02B0704700BF0060004084B00390AA
:1038D000029113468DF80730144A039B03F5A27337
:1038E00052F82330114923F4473323F44073039AE9
:1038F00002F5A27241F822300C4A039B03F5A27331
:1039000052F82320029B1B0203F4F8519DF8073064
:103910001B0403F440330B4304491A43039B03F590
:10392000A27341F8232000BF04B07047006000403C
:1039300082B00190054A019B03F5A27352F823302F
:103940001B0A03F01F03184602B0704700600040D6
:1039500082B00190064A019B03F5A27352F823300E
:103960001B0C03F00303DBB2184602B0704700BF24
:103970000060004082B001904FF0A043184602B0B2
:10398000704700B585B00190084611461A460346B7
:103990008DF803300B468DF8023013468DF8013058
:1039A00001AB1846FFF7E6FF03909DF803209DF852
:1039B00002305B001A439DF801309B001A439DF8CA
:1039C00018301B0242EA03019DF81C301B04019AC7
:1039D0001943039B02F5E07243F8221000BF05B0C3
:1039E0005DF804FB00B585B003900B468DF80B30F5
:1039F0009DF80B200023019300230093134600221F
:103A000000210398FFF7BDFF00BF05B05DF804FB80
:103A100000B585B0019001AB1846FFF7ABFF0390EE
:103A2000019A039B02F5E07253F8223023F002035F
:103A30000293019A039B02F5E072029943F8221067
:103A400000BF05B05DF804FB00B585B001900B46E2
:103A50008DF8033001AB1846FFF78CFF0390019AF5
:103A6000039B02F5E07253F82230019A23F44031AF
:103A7000039B02F5E07243F82210019A039B02F5C2
:103A8000E07253F822309DF8032012041146019A87
:103A90001943039B02F5E07243F8221000BF05B002
:103AA0005DF804FB00B585B0019001AB1846FFF747
:103AB00061FF0390039800F020F80246019B22FA70
:103AC00003F303F00103184605B05DF804FB00B5ED
:103AD00085B0019001AB1846FFF74CFF0390019AA7
:103AE000039B02F5E07253F822301B0C03F0030332
:103AF000DBB2184605B05DF804FB82B00190019B73
:103B0000D3F81035184602B0704700B587B003905F
:103B1000029101924FF0A0430493039B059311E09F
:103B2000059B9B0006AA134453F8083C1846FFF770
:103B3000E4FF0246019B1A60019B04330193059B3D
:103B400001330593039A029B1344059A9A42E7D3E3
:103B500000BF07B05DF804FB84B001900091009BAA
:103B60000393019BDB080293019B03F0070301937E
:103B70000122019B02FA03F30399029A0A44127884
:103B80001340184604B0704784B001900091009B28
:103B90000393019BDB080293019B03F0070301934E
:103BA000039A029B13441B785AB20121019B01FA2C
:103BB00003F35BB2134359B2039A029B1344CAB294
:103BC0001A7000BF04B0704782B001900C4A019B8C
:103BD0001344303393F90030002B09DB084A019B72
:103BE0001344303393F90030072B01DC012300E04C
:103BF000002303F00103DBB2184602B0704700BF98
:103C0000B83F002082B00190064A019B1344303334
:103C100093F90030072BCCBF01230023DBB21846F9
:103C200002B07047B83F002082B00190064A019B65
:103C30001344303393F90030DB43DBB2DB09DBB2F2
:103C4000184602B0704700BFB83F002084B0039010
:103C5000029101928DF80330029B59B20E4A039BE8
:103C6000134430330A461A700B49029B019A41F8FB
:103C700023209DF8033083F00103DBB2002B08D032
:103C8000029B083B039A51B2034A13440A4683F845
:103C9000502000BF04B07047B83F002082B00190B0
:103CA000044A019B13443033FF221A7000BF02B054
:103CB000704700BFB83F002082B00190044A019BCA
:103CC0001344303393F90030184602B0704700BFF8
:103CD000B83F002082B00190034A019B52F8233084
:103CE000184602B0704700BFB83F002000B589B049
:103CF0000390029113468DF80730FF238DF81F3093
:103D00009DF80730002B01D0002300E00823059325
:103D10009DF80730002B01D0082300E00C2304930A
:103D2000059B069314E00F4A069B52F82330B3F12B
:103D3000FF3F0AD19DF80730029A06990398FFF7D2
:103D400085FF069B8DF81F3006E0069B0133069326
:103D5000069A049B9A42E6D39DF91F30184609B093
:103D60005DF804FBB83F002082B003468DF80730B1
:103D70009DF80730094A4FF0FF3142F823109DF8B3
:103D80000730072B07D99DF80730083B034A134437
:103D9000FF2283F8502000BF02B07047B83F0020D8
:103DA00000B583B0214B93F85430002B03D0082387
:103DB0000093009B36E000238DF8073009E09DF862
:103DC00007301846FFF76AFF9DF8073001338DF87A
:103DD00007309DF807301F2BF1D900238DF80730ED
:103DE00009E09DF807301846FFF7BEFF9DF8073041
:103DF00001338DF807309DF807300B2BF1D90721DF
:103E00000620FFF7D9FC4FF4BE70FFF709FD4FF015
:103E10000040FFF72DFD054B012283F854200023BD
:103E20000093009B184603B05DF804FBB83F0020E8
:103E3000044B93F85430002B14BF01230023DBB252
:103E400018467047B83F002000B587B00390029134
:103E50000192002305930398FFF7E6FE0346002B2B
:103E600002D00823059341E0029BDB781A460199B2
:103E70000398FFF73BFF03468DF813309DF913308D
:103E8000B3F1FF3F30D0029B9B78002B03D0039807
:103E9000FFF7BEFD05E0029B5B7819460398FFF72C
:103EA000A1FD029BDB78002B08D09DF91300029B3B
:103EB0001B781A460399FFF709FD17E09DF91330A7
:103EC000083B0D4A134493F95010029B1B789B0149
:103ED0005AB29DF91330083B0A4351B2064A1344C3
:103EE0000A4683F8502001E004230593059B1846F9
:103EF00007B05DF804FB00BFB83F002000B587B0F5
:103F000001900B468DF803300198FFF77BFE0346C6
:103F1000002B2FD00198FFF7CFFE0346083B304A15
:103F2000134493F950308DF816309DF816309B09E4
:103F30008DF815309DF81530032B0BD10198FFF744
:103F4000B1FD0346002B01D0032300E002238DF8CE
:103F5000173008E09DF81530012B01D1022300E055
:103F600003238DF817309DF8173019460198FFF795
:103F70006BFD30E00198FFF727FE0346002B2AD0A7
:103F80000198FFF799FE03460493049B9BB24033CC
:103F90009BB29B00ADF80E30049B1846FFF780FCE7
:103FA000BDF80E301846FFF73BFC9DF80330002BA0
:103FB00011D00198FFF780FE03461846FFF78AFEEE
:103FC0000290029B002B06D00122049B02FA03F30D
:103FD0001846FFF74DFC00BF07B05DF804FB00BFBB
:103FE000B83F002000B595B000231393002303933E
:103FF0004FF48073ADF846300123109300231293E1
:1040000021E0BDF846301846FFF7F5FB0346002BCC
:104010000ED01098FFF738FC0346002B08D0BDF8EF
:1040200046301846FFF7FCFB139A109B134313937B
:10403000109B5B001093BDF846300433ADF846305A
:10404000129B01331293129B072BDAD94FF4BE70E7
:10405000FFF7D1FB0346002B0DD04FF4BE70FFF7E6
:10406000DFFB139B43F00043139303AB1A4601217C
:104070000020FFF74AFD139BDBB2002B29D0012360
:1040800010930023129321E0109A139B1340002BEE
:1040900016D01298FFF74CFC0D901298FFF758FCC1
:1040A00003468DF833301298FFF714FE0B900B9BEC
:1040B000002B05D09DF833200B9B11460D98984797
:1040C000109B5B001093129B01331293129B072BE2
:1040D000DAD9139B002B80F2EE8000238DF83B3061
:1040E0000023029300230F930AE00F9B9B0014AA66
:1040F00013444FF0FF3243F84C2C0F9B01330F93C6
:104100000F9B002BF1D000238DF83B30002312933E
:1041100078E06B4A129B1344503393F900308DF8CA
:104120002B309DF82B3023F0C0030993644A129B77
:104130001344503393F90030B3F1FF3F5FD001AB2C
:1041400019460998FFF708FD0346002B57D09DF844
:104150002B309B098DF823300998FFF7ADFD0346FE
:104160001846FFF7B7FD0790079B002B03D19DF87A
:104170002330032B43D19DF82330032B04D102AB12
:1041800019460998FFF700FD0998FFF7A0FC0346C0
:104190008DF81B3003AB19460998FFF7DDFC05903D
:1041A000059B002B03D09DF81B30022B06D0059BEE
:1041B000002B24D19DF81B30032B20D19DF82330F8
:1041C000032B13D19DF81B30022B01D1032300E0F8
:1041D00002238DF813309DF8133019460998FFF724
:1041E00033FC9DF83B3001338DF83B30079B002BAF
:1041F00005D09DF82320079B114609989847129BEC
:1042000001331293129B032B83D99DF83B30002B73
:104210004CD001238DF83A306B461A46012100201C
:10422000FFF773FC00230F9314E00F9B9B0014AA6D
:10423000134453F8502C0F9B9B0014A90B4453F8C4
:10424000443C9A4203D000238DF83A3005E00F9B9E
:1042500001330F930F9B002BE7D09DF83A30002BD2
:1042600003D000238DF83B3020E000230F931AE0A9
:104270000F9B9B0014AA134453F8502C0F9B9B00D8
:1042800014A90B4443F8442C0F9B9B0014AA13441D
:1042900053F8482C0F9B9B0014A90B4443F84C2C5B
:1042A0000F9B01330F930F9B002BE1D09DF83B3008
:1042B000002B7FF428AF00BF15B05DF804FB00BFF2
:1042C000B83F002084B001900B46ADF80230BDF835
:1042D0000230019A134400221A60BDF80230019A9C
:1042E00013441B680393039B00BF04B0704782B064
:1042F00001900B46ADF80230BDF80230019A13442C
:104300001B68002B14BF01230023DBB2184602B048
:10431000704782B001900091019B009AC3F804237A
:1043200000BF02B0704782B001900091019BD3F8AA
:104330000423009B1340002B14BF01230023DBB296
:10434000184602B0704782B001900091019B009A1C
:10435000C3F8082300BF02B0704784B00190019BEE
:10436000D3F880340393019B039AC3F88024039B02
:10437000184604B0704782B00190019B0422C3F834
:10438000002500BF02B0704784B0039002910192F3
:10439000039B019AC3F81425039B029AC3F80C25CA
:1043A00000BF04B0704784B0039002910192039B58
:1043B000029AC3F80825039B019AC3F8102500BF91
:1043C00004B0704782B00190019BD3F81835DBB27E
:1043D000184602B0704782B001900B468DF803304A
:1043E0009DF80320019BC3F81C2500BF02B0704755
:1043F00082B001900B468DF803309DF80330019A8E
:10440000134401221A6000BF02B0704782B00190CD
:104410000B468DF8033013468DF802309DF80320CB
:104420009DF802301343DBB21A46019BC3F86C259A
:1044300000BF02B0704782B001900091019B009ACA
:10444000C3F8242500BF02B0704784B001900B462A
:10445000ADF80230BDF80230019A134400221A6010
:10446000BDF80230019A13441B680393039B00BFFD
:1044700004B0704782B001900B46ADF80230BDF831
:104480000230019A13441B68002B14BF0123002340
:10449000DBB2184602B0704782B001900091019BD8
:1044A000D3F80022009B1A43019BC3F8002200BFEF
:1044B00002B0704782B001900091019BD3F80022B6
:1044C000009BDB431A40019BC3F8002200BF02B0EF
:1044D000704782B001900091019B009AC3F80423B9
:1044E00000BF02B0704782B001900091019B009A1A
:1044F000C3F8082300BF02B0704784B00190019B4D
:10450000D3F880340393019B039AC3F88024039B60
:10451000184604B0704782B00190019B0822C3F88E
:10452000002500BF02B0704784B003900291019251
:10453000039B029AC3F80C25039B019AC3F8142528
:1045400000BF04B0704784B0039002910192039BB6
:10455000029AC3F80825039B019AC3F8102500BFEF
:1045600004B0704782B001900B468DF803309DF87F
:104570000330019A134401221A6000BF02B0704751
:1045800082B001900B468DF8033013468DF802304F
:104590009DF803209DF802301343DBB21A46019BBD
:1045A000C3F86C2500BF02B0704782B00190009143
:1045B000019B009AC3F8242500BF02B0704784B065
:1045C0000390029113468DF80730029A039BC3F8BB
:1045D00044259DF80720039BC3F8482500BF04B07D
:1045E000704782B00190019BD3F84C35184602B059
:1045F000704784B00390029113468DF80730029AF9
:10460000039BC3F834259DF80720039BC3F8382586
:1046100000BF04B0704782B00190019BD3F83C35D5
:10462000184602B0704784B00190019B1B0B8DF8B7
:104630000F309DF90F30184604B0704782B00190DA
:10464000019B03F06043B3F1005F0CBF0123002323
:10465000DBB2184602B0704782B001904FF0A04321
:10466000184602B0704700B585B001900846114663
:104670001A4603468DF803300B468DF80230134678
:104680008DF8013001AB1846FFF7E6FF03909DF867
:1046900003209DF802305B001A439DF801309B0017
:1046A0001A439DF818301B0242EA03019DF81C30A2
:1046B0001B04019A1943039B02F5E07243F8221090
:1046C00000BF05B05DF804FB00B585B00390002382
:1046D0000193002300930023012201210398FFF797
:1046E000C2FF00BF05B05DF804FB00B585B00390C4
:1046F0000B468DF80B309DF80B200023019300230F
:1047000000931346002200210398FFF7ACFF00BF7F
:1047100005B05DF804FB00B585B0019001AB18460B
:10472000FFF79AFF0390019B012202FA03F3194657
:10473000039800F004F800BF05B05DF804FB82B0F8
:1047400001900091019B009AC3F8082500BF02B0B8
:104750007047000000B583B001900091009B1B687A
:10476000B3F1FF3F09D0009B1B681846FFF7D3FF4A
:10477000009B1B681846FFF7A7FF009B5B68B3F11F
:10478000FF3F05D0009B5B6800211846FFF7ADFF97
:10479000019B1B79464A5B0113441C331B78002B99
:1047A00041D0019B1A68009B9B6919461046FFF790
:1047B000FCFE019B1868009B597D009B1B7D1A46DF
:1047C000FFF7DEFE019B1868009B1968009B5B6881
:1047D0001A46FFF7A9FE009B1B7D012B64D1009BAD
:1047E0009B68B3F1FF3F05D0009B9B6800211846F2
:1047F000FFF77BFF009BDB68B3F1FF3F09D0009B15
:10480000DB681846FFF787FF009BDB681846FFF759
:104810005BFF019B1868009BD968009B9B681A4648
:10482000FFF791FE40E0019B1A68009B9B691946C7
:104830001046FFF700FE019B1868009B597D009B06
:104840001B7D1A46FFF7E2FD019B1868009B196863
:10485000009B5B681A46FFF797FD009B1B7D012BB1
:1048600022D1009B9B68B3F1FF3F05D0009B9B6862
:1048700000211846FFF739FF009BDB68B3F1FF3FCB
:1048800009D0009BDB681846FFF745FF009BDB68FB
:104890001846FFF719FF019B1868009BD968009B19
:1048A0009B681A46FFF77FFD00BF03B05DF804FB6D
:1048B0001040002000B583B001900B468DF8033006
:1048C000019B1B792D4A5B0113441C331B78002B81
:1048D0002FD0019B1B684FF488711846FFF7B5FD78
:1048E000019B1B684FF490711846FFF7AEFD019BCA
:1048F0001B684FF492711846FFF7A7FD019B1B68D8
:104900004FF4A2711846FFF7A0FD019B1B681C49DC
:104910001846FFF7DEFD019B1B681846FFF783FE74
:1049200003461A469DF8033019461046FEF744FF29
:1049300020E0019B1B684FF48E711846FFF7C2FC04
:10494000019B1B684FF4A2711846FFF7BBFC019B4B
:104950001B680C491846FFF7DCFC019B1B681846D6
:10496000FFF761FE03461A469DF8033019461046CC
:10497000FEF722FF00BF03B05DF804FB10400020EB
:10498000100302008000020000B583B00190019B7B
:104990001B790B4A5B0113441C331B78002B05D099
:1049A000019B1B681846FFF7B6FD04E0019B1B68DE
:1049B0001846FFF7E0FC00BF03B05DF804FB00BF42
:1049C0001040002000B587B0039002910192039B34
:1049D0001B795B011E4A1344059300230493059B36
:1049E000DB7E002B03D008230493049B2BE0029B67
:1049F0005A7F059B1A7702990398FFF7ABFE059B38
:104A0000019A5A60029B1A69059B1A60059B5B68B4
:104A1000002B05D0029B1B7F19460398FFF74AFF26
:104A20000398FFF7B1FF059B0022DA75059B002272
:104A30001A76059B00229A75059B0122DA76059B62
:104A400000229A76049B184607B05DF804FB00BF6D
:104A50001040002000B585B0019000914FF48E7198
:104A60000198FFF72FFC009B9B68009A928A92B2F4
:104A700013441B788DF80F30009B9B8A9BB2013347
:104A80009AB2009B9A829DF80F3019460198FFF761
:104A9000A2FC00BF05B05DF804FB000000B585B0C6
:104AA0000190019B1B795B01344A1344029300235C
:104AB0000393019B1B684FF48E711846FFF702FCAD
:104AC000019B1B6808211846FFF792FC019B1B689D
