:020000021000EC
:10F000000000012033F10100D9F00100DBF0010024
:10F01000DDF00100DFF00100E1F001000000000080
:10F02000000000000000000000000000E3F001000C
:10F03000E5F0010000000000E7F00100E9F0010048
:10F040002D4F0200EDF00100516E020055F6020056
:10F05000F3F00100F5F00100C958020059C902009F
:10F06000FBF00100FDF00100FFF0010031FD0200A6
:10F0700003F1010005F1010007F1010009F10100B0
:10F080000BF10100257D02000FF1010011F10100DB
:10F09000657D020015F101006D91020019F101007A
:10F0A0001BF101001DF101001FF1010021F1010020
:10F0B000C1C2020025F101000000000000000000B4
:10F0C00027F1010029F101002BF101002DF10100D0
:08F0D0002FF1010031F10100F4
:10F0D800FEE7FEE7FEE7FEE7FEE7FEE7FEE7FEE700
:10F0E800FEE7FEE7FEE7FEE7FEE7FEE7FEE7FEE7F0
:10F0F800FEE7FEE7FEE7FEE7FEE7FEE7FEE7FEE7E0
:10F10800FEE7FEE7FEE7FEE7FEE7FEE7FEE7FEE7CF
:10F11800FEE7FEE7FEE7FEE7FEE7FEE7FEE7FEE7BF
:10F12800FEE7FEE7FEE7FEE7FEE70348854600F058
:10F13800D1F800F003B8704700000120374938487B
:10F148000A1A02D0072291438D46364936480A1AD0
:10F1580006D00722914381F30988022282F314889A
:10F1680032483349334A00F048F833483349344A7F
:10F1780000F043F833483449344A00F03EF8344844
:10F188003449354A00F039F834483549354A00F0F1
:10F1980034F835483549364A00F02FF835483649AD
:10F1A800364A00F02AF836483649374A00F025F83A
:10F1B80036483749002200F02BF8364836490022F5
:10F1C80000F026F835483649091A082903DB0022D9
:10F1D8000260043001601F481F49884205D0026858
:10F1E800043003B4904703BCF7E700208646EC469A
:10F1F800002000212B4A9047FEE7884207D0521A88
:10F2080005D0037801300B700131013AF9D170470C
:10F21800884202D002700130FAE7704700000120EE
:10F2280000FC00200000012000000120485F0300CE
:10F23800F825002060270020B0F20100B0F201009C
:10F24800F0370300485F0300F8250020F825002068
:10F25800F0370300F0370300F0370300F0370300FE
:10F26800F0370300F0370300F0370300F0370300EE
:10F27800485F0300B060030060270020602700207B
:10F28800B06003006027002060270020602700206E
:10F29800B8400020B8400020C0400020C0400020F6
:08F2A800C044002069270200A8
:10F2B00000487047B0400020704770477047704763
:10F2C0007047704713F015BB024B034A1A6000BF2A
:10F2D000704700BFF82500200090D00308B500F06B
:10F2E0000DF90346002B06D0744B1B681B0A744AA9
:10F2F00003F01F03136000F02DF90346002B02D02A
:10F30000704B714A1A6000F041F90346002B06D099
:10F310006E4B1B685B0B6E4A03F00703136000F033
:10F3200061F90346002B05D06A4BDB68694A23F07C
:10F330008073D36000F072F90346002B0ED04FF0BB
:10F3400080430022C3F80C214FF080430022C3F811
:10F3500010214FF080430022C3F8382500F08AF9CD
:10F360000346002B02D05C4B03221A6000F09EF98A
:10F370000346002B0BD0594B05221A60584B012233
:10F380001A60584B00221A60574B3F221A6000F057
:10F39000A9F90346002B76D04FF08053534AD3F897
:10F3A0000434C2F820354FF08053504AD3F8083463
:10F3B000C2F824354FF080534C4AD3F80C34C2F8CD
:10F3C00028354FF08053494AD3F81034C2F82C3511
:10F3D0004FF08053454AD3F81434C2F830354FF01B
:10F3E0008053424AD3F81834C2F834354FF0805372
:10F3F0003E4AD3F81C34C2F840354FF080533B4AA4
:10F40000D3F82034C2F844354FF08053374AD3F84C
:10F410002434C2F848354FF08053344AD3F82834A6
:10F42000C2F84C354FF08053304AD3F82C34C2F830
:10F4300050354FF080532D4AD3F83034C2F854354C
:10F440004FF08053294AD3F83434C2F860354FF076
:10F450008053264AD3F83834C2F864354FF08053CD
:10F46000224AD3F83C34C2F868354FF080531F4A23
:10F47000D3F84034C2F86C354FF080531B4AD3F8B0
:10F480004434C2F8703500F049F90346002B05D02A
:10F49000174B1B68174A03F04F031360164BD3F842
:10F4A0008830154A43F47003C2F88830BFF34F8F99
:10F4B000BFF36F8FFFF708FF00BF08BD24030010E4
:10F4C0004035014074C007400DF0ADBA4402001051
:10F4D0003C050040F0ED00E0A00500401056004063
:10F4E00088560040185600401456004000C00040A6
:10F4F00058020010E40E004000ED00E0124B1B68C3
:10F50000DBB2062B1DD1114B1B6803F00F03002B40
:10F5100017D10F4B1B6803F0F003302B01D10123EF
:10F5200010E00B4B1B6803F0F003402B01D10123CB
:10F5300008E0074B1B6803F0F003502B01D10123B7
:10F5400000E0002318467047E00F00F0E40F00F0E1
:10F55000E80F00F00A4B1B68DBB2062B0DD1094BFC
:10F560001B6803F00F03002B07D1074B1B6803F048
:10F57000F003302B01D1012300E00023184670472F
:10F58000E00F00F0E40F00F0E80F00F0124B1B68F2
:10F59000DBB2062B1DD1114B1B6803F00F03002BB0
:10F5A00017D10F4B1B6803F0F003302B01D101235F
:10F5B00010E00B4B1B6803F0F003402B01D101233B
:10F5C00008E0074B1B6803F0F003502B01D1012327
:10F5D00000E0002318467047E00F00F0E40F00F051
:10F5E000E80F00F00A4B1B68DBB2062B0DD1094B6C
:10F5F0001B6803F00F03002B07D1074B1B6803F0B8
:10F60000F003302B01D1012300E00023184670479E
:10F61000E00F00F0E40F00F0E80F00F0124B1B6861
:10F62000DBB2062B1DD1114B1B6803F00F03002B1F
:10F6300017D10F4B1B6803F0F003302B01D10123CE
:10F6400010E00B4B1B6803F0F003402B01D10123AA
:10F6500008E0074B1B6803F0F003502B01D1012396
:10F6600000E0002318467047E00F00F0E40F00F0C0
:10F67000E80F00F00A4B1B68DBB2062B0DD1094BDB
:10F680001B6803F00F03002B07D1074B1B6803F027
:10F69000F003302B01D1012300E00023184670470E
:10F6A000E00F00F0E40F00F0E80F00F00A4B1B68D9
:10F6B000DBB2062B0DD1094B1B6803F00F03002BA7
:10F6C00007D1074B1B6803F0F003302B01D1012356
:10F6D00000E0002318467047E00F00F0E40F00F050
:10F6E000E80F00F00A4B1B68DBB2062B0DD1094B6B
:10F6F0001B6803F00F03002B07D1074B1B6803F0B7
:10F70000F003502B01D1012300E00023184670477D
:10F71000E00F00F0E40F00F0E80F00F0124B1B6860
:10F72000DBB2062B1DD1114B1B6803F00F03002B1E
:10F7300017D10F4B1B6803F0F003302B01D10123CD
:10F7400010E00B4B1B6803F0F003402B01D10123A9
:10F7500008E0074B1B6803F0F003502B01D1012395
:10F7600000E0002318467047E00F00F0E40F00F0BF
:10F77000E80F00F082B003468DF807309DF807309F
:10F7800003F01F0206499DF907305B09012000FACA
:10F7900002F2603341F8232000BF02B0704700BF7F
:10F7A00000E100E0BFF34F8F054BDB6803F4E0623C
:10F7B0000349044B1343CB60BFF34F8F00BFFDE7FA
:10F7C00000ED00E00400FA053EDF704700BF184678
:10F7D00008B5FFF7E7FF42F20303184608BD82B001
:10F7E00001904FF0A043184602B0704700B585B0B5
:10F7F0000190084611461A4603468DF803300B4621
:10F800008DF8023013468DF8013001AB1846FFF732
:10F81000E6FF03909DF803209DF802305B001A4339
:10F820009DF801309B001A439DF818301B0242EAF4
:10F8300003019DF81C301B04019A1943039B02F538
:10F84000E07243F8221000BF05B05DF804FB00B57C
:10F8500085B003900B468DF80B309DF80B200023EC
:10F860000193002300931346002200210398FFF721
:10F87000BDFF00BF05B05DF804FB00B585B0019089
:10F8800001AB1846FFF7ABFF0390039800F00AF8AE
:10F890000246019B22FA03F303F00103184605B068
:10F8A0005DF804FB82B00190019BD3F81035184637
:10F8B00002B0704776DF704700BF18467ADF7047A6
:10F8C00000BF18467CDF704700BF18467FDF7047D7
:10F8D00000BF18468ADF704700BF18468FDF7047A9
:10F8E00000BF1846A8DF704700BF1846A9DF704761
:10F8F00000BF184669DF704700BF184666DF7047D3
:10F9000000BF184684B00190244B0393019B002B49
:10F9100040D0234B1A680399019B00BF00BF00BF72
:10F9200000BF00BF00BF00BF00BF8A422FD000BF92
:10F9300000BF00BF00BF00BF00BF00BF00BF00BFCF
:10F9400000BF00BF00BF00BF00BF00BF00BF00BFBF
:10F9500000BF00BF00BF00BF00BF00BF00BF00BFAF
:10F9600000BF00BF00BF00BF00BF00BF00BF00BF9F
:10F9700000BF00BF00BF00BF00BF00BF00BF00BF8F
:10F9800000BF00BF00BF00BF00BF00BF00BF013B02
:10F99000C3D1019300BF04B0704700BF0024F4003E
:10F9A000F825002000B583B00190019B4FF47A72D6
:10F9B00002FB03F31846FFF7A5FF00BF03B05DF895
:10F9C00004FB82B003468DF807309DF80730012B09
:10F9D00003D0022B03D0002B02E000BF00E000BFE9
:10F9E00000BF02B07047000000B585B00190019BD8
:10F9F0001B788DF80F30304A9DF80F3013709DF84A
:10FA00000F30062B4CD801A252F823F029FA01003E
:10FA100041FA010051FA010061FA010071FA010096
:10FA200081FA010091FA0100019B1A79234B1A70A7
:10FA3000019B5A88224B1A80224B00221A7037E011
:10FA40000121214812F03AF91E4B04221A702FE0CE
:10FA500002211E4812F032F91A4B05221A7027E0D3
:10FA600003211B4812F02AF9164B01221A701FE0DD
:10FA70000421184812F022F9124B02221A7017E0E2
:10FA80000521154812F01AF90E4B03221A700FE0E7
:10FA90000621124812F012F90A4B06221A7007E0EA
:10FAA0000F49032008F06AFF064B00221A7000BFBE
:10FAB00000BF05B05DF804FB64270020602700202C
:10FAC00062270020652700200C380300343803002B
:10FAD000603803008C380300C03803000439030089
:10FAE000343903000000000010B508F0F9F90346AE
:10FAF000184610F0F2FC08A3D3E9002310F08EFFA3
:10FB000003460C461846214610F01FFD03461846D2
:10FB100010BD00BFAFF30080FCA9F1D24D624040A0
:10FB200082B001900091009A019B9A4205D2009AFE
:10FB3000019BD31A03F1FA6302E0009A019BD31AE6
:10FB4000184602B0704786B00190009100238DF8EE
:10FB50001730002304931AE0049BC3F105031A46EF
:10FB6000019B13441B788DF80F30049B009A1344BB
:10FB70001B789DF80F209A4203D101238DF817308E
:10FB800002E000238DF81730049B01330493049B9B
:10FB9000052BE1DD9DF81730184606B0704700B51B
:10FBA00085B00190009100238DF80F300622019955
:10FBB000009812F02BF80346002B03D101238DF897
:10FBC0000F300DE000990198FFF7BDFF0346002BB1
:10FBD00003D001238DF80F3002E000238DF80F30A1
:10FBE0009DF80F30184605B05DF804FB00B58DB0E8
:10FBF000039002910192039B5B68099300238DF8A7
:10FC00002E3004AB0C220021184612F0C6FD002352
:10FC10000A931CE0039B1A680A9B4FF48C7101FB4A
:10FC200003F313448033089302990898FFF7B7FF52
:10FC300003468DF82E309DF82E30002B04D0019B0A
:10FC40000A9A1A60012320E00A9B01330A930A9A58
:10FC5000099B9A42DEDB9DF82E3083F00103DBB274
:10FC6000002B05D0019B4FF0FF321A6000230CE0FF
:10FC7000079BB3F1FF3F03D100238DF82F3002E043
:10FC800001238DF82F309DF82F3018460DB05DF808
:10FC900004FB00B58FB0039002910192039B5B6857
:10FCA000099300238DF8323000238DF8313004ABF6
:10FCB0000C220021184612F070FD00230B934BE03C
:10FCC00000238DF82B30039B1A680B9B4FF48C712B
:10FCD00001FB03F313440893039B1A680B9B4FF437
:10FCE0008C7101FB03F31344863307930299089840
:10FCF00012F0A8FD0346002B02D101238DF832300B
:10FD00000299079812F09EFD0346002B02D10123B1
:10FD10008DF831309DF83130002B03D19DF8323011
:10FD2000002B02D001238DF82B3004AB03F1080225
:10FD300004AB191D04A8012310F0AAFA0346002BF6
:10FD400007D1049A059B591C059113449DF82B205B
:10FD50001A700B9B01330B930B9A099B9A42AFDBF2
:10FD600000230D9308E0049A0D9B13441B78002B8D
:10FD700007D10D9B01330D93059B0D9A9A42F2DB3F
:10FD800000E000BF059B0D9A9A4202D14FF0FF336D
:10FD90000D93019B0D9A1A600D9BB3F1FF3F03D1A8
:10FDA00000238DF8333002E001238DF83330049BBB
:10FDB000184611F0BBFE04AB0C220021184612F0CD
:10FDC000ECFC9DF8333018460FB05DF804FB0000E2
:10FDD00000B587B0019000910023059300238DF8B2
:10FDE0000F301949019812F0BDF9049022E00098F3
:10FDF000009B191D009B03F10802042310F048FA30
:10FE00000346002B0AD1009B1A68009B5B68581CB4
:10FE1000009948609B001344049A1A600A49002024
:10FE200012F0A0F904909DF80F30002B06D1059B2D
:10FE300001330593049B002BD9D100E000BF059B43
:10FE4000184607B05DF804FB283B030000B585B0F9
:10FE500001902249019812F0F5FC0346002B02D1D3
:10FE60000123039334E01E49019812F0EBFC034692
:10FE7000002B02D1022303932AE01A49019812F0C1
:10FE8000E1FC0346002B02D10323039320E0164933
:10FE9000019812F0D7FC0346002B02D104230393F0
:10FEA00016E01249019812F0CDFC0346002B02D156
:10FEB000052303930CE00E49019812F0C3FC03469E
:10FEC000002B02D10623039302E04FF0FF3303938C
:10FED000039B184605B05DF804FB00BF2C3B0300F4
:10FEE000343B03003C3B0300443B0300483B03001E
:10FEF0004C3B0300F0B5ADF58A5D83B00AAB043B23
:10FF000018600AAB083B19600AAB0A3B1A80002351
:10FF10000DF58A5202F1040213607EE052AB083BF9
:10FF20004FF480520021184612F037FC0AAB083B10
:10FF30001B681A680DF58A5303F104031B684FF41C
:10FF40008C7101FB03F313440AAA104619464FF4BF
:10FF50008C731A4612F0F8FB0AAB93F880301A46FD
:10FF60000AAB93F8813019460AAB93F882301846F1
:10FF70000AAB93F883301C460AAB93F884301D46D5
:10FF80000AAB93F885301E460AAB05960495039498
:10FF9000029001910092294A0021002011F0CEFF29
:10FFA00003460DF58A5213600AAB93F880301F4662
:10FFB0000AAB93F8813019460AAB93F882301C469D
:10FFC0000AAB93F883301D460AAB93F884301E4683
:10FFD0000AAB93F885300AAA52A80838049303960E
:10FFE0000295019400913B46144911F0BBFF0DF5B9
:10FFF0008A531B689AB252A908390AAB043B1868A5
:020000022000DC
:1000000004F086FE0DF58A5303F104031B680133E7
:100010000DF58A5202F1040213600AAB0A3B1B88F9
:100020000DF58A5202F1040212689A42FFF676AF89
:1000300000BF0DF58A5D03B0F0BD00BF543B030067
:1000400000B5ADF5805D85B004AB0C3B18600A4689
:1000500004AB0D3B1A7000230DF5805202F10C0227
:10006000136004AB043B4FF480520021184612F099
:1000700094FB04AB0D3B1B78002B01D0174B00E029
:10008000174B184A0021002011F058FF03460DF5C8
:10009000805202F10C02136004AB0D3B1B78002B65
:1000A00001D00E4A00E00E4A04AB043B0D4918464D
:1000B00011F058FF0DF5805303F10C031B689AB241
:1000C00004A9043904AB0C3B186804F021FE00BFFE
:1000D0000DF5805D05B05DF804FB00BF883B0300B3
:1000E000903B0300BC3B030000B5ADF5805D85B0DF
:1000F00004AB0C3B18600A4604AB0D3B1A7000239E
:100100000DF5805202F10C02136004AB043B4FF476
:1001100080520021184612F040FB04AB0D3B1B78C7
:10012000002B01D0174B00E0174B184A002100208C
:1001300011F004FF03460DF5805202F10C0213602A
:1001400004AB0D3B1B78002B01D00E4A00E00E4A99
:1001500004AB043B0D49184611F004FF0DF5805324
:1001600003F10C031B689AB204A9043904AB0C3BDD
:10017000186804F0CDFD00BF0DF5805D05B05DF899
:1001800004FB00BF883B0300903B0300D43B03000B
:1001900000B5ADF5805D87B006AB0C3B186006ABD3
:1001A000103B196006AB123B1A8006AB103B1B6874
:1001B0005B680DF5805202F1140213600DF5805357
:1001C00003F114031B68002B20DC194B0DF5805242
:1001D00002F11002136006AB083B0DF5805202F1EC
:1001E00010021168184611F0BDFE0DF5805303F1A1
:1001F0001003186812F04DFB03469AB206A908399D
:1002000006AB0C3B186804F083FD0AE006AB123B1A
:100210001A8806A9103906AB0C3B09681868FFF765
:1002200069FE002318460DF5805D07B05DF804FBFC
:10023000EC3B030000B585B001900091019B039356
:10024000009B0293039B1A68029B1B681946104689
:1002500012F0F8FA0346184605B05DF804FB0000FA
:1002600000B58BB003900291029B09932123089360
:100270000D4B082208990D4811F040FD05AB0022F6
:100280001A605A60099B059305A8074B0093082341
:10029000089A064911F0F6FA0790079B1B79184651
:1002A0000BB05DF804FB00BF3502020010260020F1
:1002B000F0B5ADF5885D81B0044618A81838016026
:1002C000114618AA1C3A136018AB113B22461A704B
:1002D00018AB123B0A461A7018AB113B1B78152B52
:1002E0000DD918AB183B1B68002B08DA18AB183B6C
:1002F0001968BF4811F0E2FC072301F0A8B80023F9
:100300000DF5875202F11C021360BA4B1A6818AB44
:10031000183B1B684FF48C7101FB03F313440DF57C
:10032000875202F11802136018AB113B1B781F2B88
:1003300001F28C8001A252F823F000BFBD0302003D
:100340003B040200A90402000B0502004907020059
:100350004F070200550702002F040200C3030200EA
:10036000DB030200F3030200350402000B04020069
:100370001D0402005B070200A90802008B050200B1
:100380007706020029070200090702004D14020047
:100390004D140200E50C0200190A0200F70E0200DB
:1003A0005D0D0200850E02003F1002008311020065
:1003B000B512020085130200DB130200002301F0D6
:1003C00046B88D4811F07AFC8C4B00221A708C4B89
:1003D00000221A70002301F03AB88A4811F06EFC2E
:1003E000864B01221A70864B00221A70002301F0FE
:1003F0002EB8854811F062FC804B00221A70804BA9
:1004000001221A70002301F022B8804811F056FC36
:100410007F4B01221A70002301F019B87D4811F0BA
:100420004DFC7B4B00221A70002301F010B8002312
:1004300001F00DB8002301F00AB838AB0C3B4FF4C3
:1004400080520021184612F0A8F9734B1B881A46F7
:10045000724B1B7800931346714A0021002011F063
:100460006DFD03460DF5875202F11C0213606A4BC5
:100470001B881A46694B1B7838A80C38684911F05C
:1004800071FD0DF5875303F11C031B689AB238AB5D
:100490000C3B19460DF5885303F11803186804F056
:1004A00037FC002300F0D3BF38AB0C3B4FF4805235
:1004B0000021184612F071F95A4B1B785A4A002154
:1004C000002011F03BFD03460DF5875202F11C029E
:1004D0001360544B1B781A4638AB0C3B52491846F4
:1004E00011F040FD0DF5875303F11C031B689AB210
:1004F00038AB0C3B19460DF5885303F11803186807
:1005000004F006FC002300F0A2BF38AB0C3B4FF414
:1005100080520021184612F040F93F4B1B881946C3
:100520003E4B1B781A463F4B1B78019300920B46BB
:100530003E4A0021002011F001FD03460DF58752CF
:1005400002F11C021360344B1B881A46334B1B7894
:100550001946344B1B7838A80C3800930B463349A6
:1005600011F000FD0DF5875303F11C031B689AB2CF
:1005700038AB0C3B19460DF5885303F11803186886
:1005800004F0C6FB002300F062BF294811F096FB7F
:1005900038AB0C3B4FF480520021184612F0FDF8A6
:1005A000244B1B78002B01D0234A00E0234A184B30
:1005B0001B78002B01D0204B00E0204B009313460A
:1005C0001F4A0021002011F0B9FC03460DF58752A7
:1005D00002F11C021360174B1B78002B01D0164A46
:1005E00000E0164A0A4B1B78002B2BD0124B2AE056
:1005F000003C03006C2700205C3C03008D2700209A
:100600008E270020743C03008C3C0300A43C0300B4
:1006100091270020BC3C03006227002060270020B7
:10062000D83C030065270020F43C0300103D030084
:100630002C3D03008C270020883B0300903B0300E7
:10064000483D03008B4B38A80C388B4911F08AFCCD
:100650000DF5875303F11C031B689AB238AB0C3BB2
:1006600019460DF5885303F11803186804F050FB80
:10067000002300F0ECBE38AB0C3B4FF4805200215D
:10068000184612F08AF87D4B1B78002B01D07C4A6B
:1006900000E0784A7B4B1B78002B01D0784B00E0C0
:1006A000744B00931346784A0021002011F046FC59
:1006B00003460DF5875202F11C0213606F4B1B7845
:1006C000002B01D06E4A00E06A4A6E4B1B78002B6B
:1006D00001D06B4B00E0674B38A80C386A4911F029
:1006E00041FC0DF5875303F11C031B689AB238AB2C
:1006F0000C3B19460DF5885303F11803186804F0F4
:1007000007FB002300F0A3BE604811F0D7FA604B4E
:100710001B7819460DF5885303F118031868FFF785
:100720008FFC002300F093BE5A4811F0C7FA5A4BD1
:100730001B7819460DF5885303F118031868FFF765
:10074000D3FC002300F083BE002300F080BE002312
:1007500000F07DBE002300F07ABE18AB123B1B7880
:10076000002B57D04D4B1B680DF5875202F1140238
:10077000136018AB1C3B0A220021186811F028FDF9
:100780000DF5875303F110031860444A0DF58753A4
:1007900003F110031B68136038AB0C3B4FF480521D
:1007A0000021184611F0F9FF0DF5875303F11003EE
:1007B0001B6800930DF5875303F114031B68384A37
:1007C0000021002011F0BAFB03460DF5875202F11B
:1007D0001C02136038A80C380DF5875303F1100381
:1007E0001B680DF5875202F1140212682C4911F0B2
:1007F000B9FB0DF5875303F11C031B689AB238ABA4
:100800000C3B19460DF5885303F11803186804F0E2
:100810007FFA2CE038AB0C3B4FF480520021184695
:1008200011F0BBFF1D4B1B681E4A0021002011F078
:1008300085FB03460DF5875202F11C021360174B2E
:100840001A6838AB0C3B1749184611F08BFB0DF5B5
:10085000875303F11C031B689AB238AB0C3B194653
:100860000DF5885303F11803186804F051FA0023BA
:1008700000F0EDBD903B0300483D030090270020B1
:10088000883B03008F270020643D0300803D030068
:100890008C2700209C3D0300912700200C2600207F
:1008A000B83D0300EC3D030018AB123B1B78002B56
:1008B0006ED0564B1B680DF5875202F10C02136087
:1008C00018AB1C3B0021186811F082FB0DF5875313
:1008D00003F1080383ED000A4C4A0DF5875303F139
:1008E00008031B68136038AB0C3B4FF480520021A7
:1008F000184611F052FF0DF5875303F10C031868E9
:100900000FF039FE04460D460DF5875303F1080339
:1009100018680FF030FE02460B46CDE90223CDE900
:1009200000453B4A0021002011F008FB03460DF56D
:10093000875202F11C0213600DF5875303F10C037B
:1009400018680FF018FE05460E460DF5875303F1A3
:10095000080318680FF00FFE03460C4638A80C3841
:10096000CDE900342A463346294911F0FBFA0DF54A
:10097000875303F11C031B689AB238AB0C3B194632
:100980000DF5885303F11803186804F0C1F939E034
:1009900038AB0C3B4FF480520021184611F0FDFE9D
:1009A0001A4B1B6818460FF0E6FD03460C46CDE9CE
:1009B0000034184A0021002011F0C0FA03460DF55A
:1009C000875202F11C021360104B1B6818460FF08F
:1009D000D2FD03460C4638A80C381A4623460D496A
:1009E00011F0C0FA0DF5875303F11C031B689AB28E
:1009F00038AB0C3B19460DF5885303F11803186802
:100A000004F086F9002300F022BD00BF0826002074
:100A1000083E0300403E030038AB0C3B4FF48052CD
:100A20000021184611F0B9FE0DF5875303F11803A4
:100A30001D680DF5875303F118031B6893F8803088
:100A40001E460DF5875303F118031B6893F8813098
:100A50001F460DF5875303F118031B6893F8823086
:100A60000D930DF5875202F11802136893F8833045
:100A70000E930DF5875101F118010B6893F884303E
:100A80000F930DF5875101F118010B6893F885302C
:100A900010930DF5875101F118010B6886330DF5A0
:100AA000875101F118010A68D2F80C210DF5875120
:100AB00001F118010968D1F808110DF5875000F10E
:100AC00018000068D0F810010DF5875404F11804DF
:100AD0002468D4F814410A94099008910792069367
:100AE000109A05920F9A04920E9A03920D9B02930C
:100AF000019700962B46964A0021002011F01EFA1D
:100B000003460DF5875202F11C0213600DF5875361
:100B100003F118031E680DF5875303F118031B68D2
:100B200093F880309C460DF5875303F118031B683A
:100B300093F881301F460DF5875303F118031B68A6
:100B400093F882300D930DF5875202F11802136865
:100B500093F883300E930DF5875101F118010B685E
:100B600093F884300F930DF5875101F118010B684C
:100B700093F8853010930DF5875101F118010B683A
:100B800086330DF5875101F118010A68D2F80C215E
:100B90000DF5875101F118010968D1F808110DF51B
:100BA000875000F118000068D0F810410DF587500B
:100BB00000F118000068D0F8145138A80C380995D5
:100BC0000894079106920593109A04920F9A039243
:100BD0000E9A02920D9B01930097634632465C4940
:100BE00011F0C0F90DF5875303F118031D680DF5D9
:100BF000875303F118031B6893F880309C460DF56A
:100C0000875303F118031B6893F881301E460DF5D6
:100C1000875303F118031B6893F882301F460DF5C4
:100C2000875303F118031B6893F883300D930DF578
:100C3000875202F11802136893F884300E930DF571
:100C4000875101F118010B6893F885300F930DF56A
:100C5000875101F118010B6886330DF5875101F1B9
:100C600018010A68D2F80C210DF5875101F118011D
:100C70000968D1F808110DF5875000F118000068D7
:100C8000D0F810010DF5875404F118042468D4F845
:100C90001441099408900791069205930F9A0492C3
:100CA0000E9A03920D9B02930197009663462A4683
:100CB0000DF5875101F11C010968264810F0FEFF6F
:100CC0000DF5875303F11C031B689AB238AB0C3B3C
:100CD00019460DF5885303F11803186804F018F845
:100CE0000023B4E338AB0C3B4FF48052002118468C
:100CF00011F053FD0DF5875303F118031B68164AD5
:100D00000021002011F01AF903460DF5875202F177
:100D10001C0213600DF5875303F118031A6838ABF2
:100D20000C3B0D49184611F01DF90DF5875303F1E1
:100D30001C031B689AB238AB0C3B19460DF588535F
:100D400003F11803186803F0E3FF00237FE300BFFB
:100D5000583E03009C3E0300283F030038AB0C3B89
:100D60004FF480520021184611F017FD0DF58753FE
:100D700003F118031B6893F880301D460DF5875367
:100D800003F118031B6893F881301A460DF5875359
:100D900003F118031B6893F8823019460DF5875349
:100DA00003F118031B6893F8833018460DF5875339
:100DB00003F118031B6893F884301C460DF5875324
:100DC00003F118031B6893F8853004930394029091
:100DD000019100922B46C94A0021002011F0AEF883
:100DE00003460DF5875202F11C0213600DF587537F
:100DF00003F118031B6893F880301D460DF58753E7
:100E000003F118031B6893F881301E460DF58753D4
:100E100003F118031B6893F882301A460DF58753C7
:100E200003F118031B6893F8833019460DF58753B7
:100E300003F118031B6893F884301C460DF58753A3
:100E400003F118031B6893F8853038A80C38039316
:100E500002940191009233462A46A84911F082F883
:100E60000DF5875303F11C031B689AB238AB0C3B9A
:100E700019460DF5885303F11803186803F048FF6D
:100E80000023E4E238AB0C3B4FF4805200211846BB
:100E900011F083FC0DF5875303F118031B68D3F899
:100EA0000C31974A0021002011F048F803460DF557
:100EB000875202F11C0213600DF5875303F11803EA
:100EC0001B68D3F80C2138AB0C3B8D49184611F048
:100ED00049F80DF5875303F11C031B689AB238AB30
:100EE0000C3B19460DF5885303F11803186803F0FD
:100EF0000FFF0023ABE218AB123B1B78002B66D030
:100F000018AB0C3B80220021184611F046FC0DF571
:100F1000875303F118031B6803F1860218AB0C3BDF
:100F20001146184611F06CFC0DF5875303F11803B8
:100F30001B68863380220021184611F02EFC0DF527
:100F4000875303F118031B6803F1860218AB1C3B9F
:100F50001968104611F054FC38AB0C3B4FF480522A
:100F60000021184611F019FC0DF5875303F1180301
:100F70001B6803F1860218AB0C3B0092614A00210A
:100F8000002010F0DBFF03460DF5875202F11C0232
:100F900013600DF5875303F118031B68863318AAF5
:100FA0000C3A38A80C38574910F0DCFF0DF5875380
:100FB00003F11C031B689AB238AB0C3B19460DF5C4
:100FC000885303F11803186803F0A2FE35E038AB2C
:100FD0000C3B4FF480520021184611F0DEFB0DF55A
:100FE000875303F118031B688633474A002100200A
:100FF00010F0A4FF03460DF5875202F11C021360A6
:101000000DF5875303F118031B6803F1860238AB13
:101010000C3B3D49184610F0A5FF0DF5875303F131
:101020001C031B689AB238AB0C3B19460DF588536C
:1010300003F11803186803F06BFE002307E218ABF6
:10104000123B1B78002B63D00DF5875303F1180377
:101050001B68D3F808310DF5875202F104021360C2
:1010600018AB1C3B0A220021186811F0B1F80DF5ED
:10107000875318600DF5875303F118031B680DF5AE
:1010800087521268C3F8082138AB0C3B4FF48052EA
:101090000021184611F081FB0DF587531B68009362
:1010A0000DF5875303F104031B68184A0021002043
:1010B00010F044FF03460DF5875202F11C02136045
:1010C00038A80C380DF587531B680DF5875202F1CF
:1010D000040212680D4910F045FF0DF5875303F126
:1010E0001C031B689AB238AB0C3B19460DF58853AC
:1010F00003F11803186803F00BFE40E03C3F0300C7
:101100006C3F0300803F0300C03F0300D83F030053
:1011100038AB0C3B4FF480520021184611F03DFBD8
:101120000DF5875303F118031B68D3F80831CA4A39
:101130000021002010F002FF03460DF5875202F156
:101140001C0213600DF5875303F118031B68D3F8D5
:10115000082138AB0C3BC049184610F003FF0DF5D1
:10116000875303F11C031B689AB238AB0C3B19463A
:101170000DF5885303F11803186803F0C9FD002327
:1011800065E118AB123B1B78002B57D0B34B1B68A3
:101190000DF5865202F11C02136018AB1C3B0A22AB
:1011A0000021186811F014F80DF5865303F11803A7
:1011B0001860AA4A0DF5865303F118031B681360E3
:1011C00038AB0C3B4FF480520021184611F0E5FA81
:1011D0000DF5865303F118031B6800930DF5865334
:1011E00003F11C031B689E4A0021002010F0A6FE9C
:1011F00003460DF5875202F11C02136038A80C3823
:101200000DF5865303F118031B680DF5865202F1A4
:101210001C021268924910F0A5FE0DF5875303F1E8
:101220001C031B689AB238AB0C3B19460DF588536A
:1012300003F11803186803F06BFD39E0874B1B6856
:101240000DF5865202F11402136038AB0C3B4FF4DB
:1012500080520021184611F0A0FA0DF5865303F1D3
:1012600014031B687F4A0021002010F067FE03462C
:101270000DF5875202F11C02136038AB0C3B0DF5E3
:10128000865202F1140212687649184610F06AFE7E
:101290000DF5875303F11C031B689AB238AB0C3B66
:1012A00019460DF5885303F11803186803F030FD53
:1012B0000023CCE018AB123B1B78002B29D038ABB5
:1012C0000C3B4FF480520021184611F066FA664A32
:1012D0000021002010F032FE03460DF5875202F186
:1012E0001C02136038AB0C3B5F49184610F03AFE05
:1012F0000DF5875303F11C031B689AB238AB0C3B06
:1013000019460DF5885303F11803186803F000FD22
:1013100036E038AB0C3B4FF480520021184611F0F8
:101320003CFA0DF5875303F118031B68D3F810310D
:101330004E4A0021002010F001FE03460DF58752B1
:1013400002F11C0213600DF5875303F118031B68AB
:10135000D3F8102138AB0C3B4449184610F002FE7C
:101360000DF5875303F11C031B689AB238AB0C3B95
:1013700019460DF5885303F11803186803F0C8FCEB
:10138000002364E038AB0C3B4FF480520021184638
:1013900011F003FA364A0021002010F0CFFD034679
:1013A0000DF5875202F11C02136038AB0C3B30493B
:1013B000184610F0D7FD0DF5875303F11C031B6889
:1013C0009AB238AB0C3B19460DF5885303F118035C
:1013D000186803F09DFC002339E038AB0C3B4FF458
:1013E00080520021184611F0D8F90DF5875303F10A
:1013F00018031B68D3F814311E4A0021002010F096
:101400009DFD03460DF5875202F11C0213600DF598
:10141000875303F118031B68D3F8142138AB0C3B36
:101420001449184610F09EFD0DF5875303F11C0377
:101430001B689AB238AB0C3B19460DF5885303F183
:101440001803186803F064FC002300E0002318462A
:101450000DF5885D01B0F0BD1C40030000260020A2
:101460003840030080400300A0400300FC4003001C
:101470006C4103009041030000B5ADF58B5D83B076
:101480000AAB1C3B186002AB19606FF001030DF54D
:101490008B5202F10402136000230DF58A5202F10F
:1014A0001B02137000230DF58A5202F11A02137009
:1014B00000230DF58B5202F10302137052AB4FF46F
:1014C00080520021184611F068F952AB083B062201
:1014D0000021184611F061F952AB143B0C22002197
:1014E000184611F05AF952AB143B02AA194610687B
:1014F000FEF76EFC0DF58A5303F11403186052AB2E
:10150000143B1B681B681846FEF7A0FC0DF58A53B8
:1015100003F1100318600DF58A5303F110031B68E3
:10152000002B0EDA52AB143B1B68184610F0FEFA83
:1015300052AB143B0C220021184611F02EF90B235C
:10154000E5E10DF58A5303F110031B68032B17D156
:101550007A4B1B689AB20AAB1C3B79491868FEF7B4
:1015600017FE52AB143B1B68184610F0DFFA52AB63
:10157000143B0C220021184611F00FF90023C6E19C
:101580000DF58A5303F110031B68012B06D00DF5EE
:101590008A5303F110031B68022B4AD152AB143B50
:1015A0001B6804331A6852AB1146184611F028F92B
:1015B00000230DF58A5202F11C02136031E052AB98
:1015C000143B1A680DF58A5303F11C031B680233A0
:1015D0009B0013441B6810220021184610F0F8FDF0
:1015E00003460DF58A5202F10E0213800DF58A535F
:1015F00003F10E031B88D9B252AB083B0DF58A529A
:1016000002F11C02126813440A461A700DF58A533F
:1016100003F11C031B6801330DF58A5202F11C0211
:1016200013600DF58A5303F11C031B68052BC6DDFF
:1016300069E00DF58A5303F110031B68042B06D0F3
:101640000DF58A5303F110031B68052B5BD152ABD8
:10165000143B1B6804331A680AAB1C3B114618681C
:10166000FEF7FEFD03460DF58B5202F103021370E7
:101670000DF58B5303F103031B78152B43D952ABA4
:10168000143B1B680833196852AB183B1A462C48A8
:10169000FEF7FFFA0346002B08D052AB183B1B683D
:1016A0000DF58B5202F1040213602CE052AB143B97
:1016B0001B680833196852AB1C3B1A462048FEF7DA
:1016C00095FA0346002B08D052AB1C3B1B680DF566
:1016D0008B5202F10402136015E04FF0FF330DF559
:1016E0008B5202F10402136052AB143B1B68184684
:1016F00010F01CFA52AB143B0C220021184611F0DA
:101700004CF8072303E10DF58A5303F110031B681E
:10171000042B19D10DF58B5303F1030318780AAB91
:101720001C3B1B680093074B00220DF58B5101F108
:1017300004010968FEF7BCFD24E000BF7C270020FF
:101740006C270020A84103000DF58A5303F1100314
:101750001B68052B16D152AB143B1B680C331A685F
:101760000DF58B5303F1030318780AAB1C3B1B6880
:101770000093134601220DF58B5101F10401096814
:10178000FEF796FD0DF58A5303F110031B68012B3C
:101790006CD10AAB143B4FF48C720021184610F048
:1017A000FCFF52AA0AAB143B1146184611F028F868
:1017B00052AB083B1A780AAB143B83F8802052AB3B
:1017C000083B5A780AAB143B83F8812052AB083BA4
:1017D0009A780AAB143B83F8822052AB083BDA7844
:1017E0000AAB143B83F8832052AB083B1A790AAB4F
:1017F000143B83F8842052AB083B5A790AAB143B64
:1018000083F885200AAB143B6FF04502C3F808212A
:101810000AAB143B2322C3F8102152AA0AAB143B93
:1018200086331146184610F0EBFF002300934FF467
:101830008C733A4A3A493B480EF090FD0346002B20
:101840000AD1384B1A680AAB143B104619464FF4BC
:101850008C731A4610F078FF324B5B680133314AC3
:101860005360304B5B68304A136042E00DF58A5399
:1018700003F110031B68022B3BD100230DF58A52A4
:1018800002F1080213600DF58A5202F1080252AB10
:10189000083B19462348FEF7A9F903460DF58A527D
:1018A00002F10D0213700DF58A5303F10D031B783D
:1018B000002B1AD00DF58A5303F108031B6801228F
:1018C000019200934FF48C73144A154915480EF099
:1018D00075FD144B5B68013B124A53604FF48C73E7
:1018E0000E4A0F490F480EF004FD0E4B5B680E4A7E
:1018F000136052AB143B1B68184610F017F952AB3B
:10190000143B0C220021184610F047FF0023184614
:101910000DF58B5D03B05DF804FB00BF742700205C
:10192000702700206C2700207C27002000B589B09C
:101930000190019B04330793079B043306932E4BBE
:101940001B78002B03D02D49032007F017F8079BC5
:1019500004332B4A13602A4B1B680133294A136056
:10196000274B1B6893F90E300593264B1B6802AA80
:1019700019462548FEF73AF903468DF813309DF8CD
:101980001330002B2ED0204B1A68029B19464FF4BF
:101990008C7303FB01F313440393039B059AC3F871
:1019A0000C21039BD3F814315A1C039BC3F8142158
:1019B000164B1B78002B03D00599154810F07EF9C3
:1019C000144B01221A70039BD3F80831059A9A42EE
:1019D00004DB114B01221A70012309E00E4B002297
:1019E0001A7004E00B4B00221A700C4B0593002375
:1019F000184609B05DF804FB88270020B0410300B9
:101A000068270020782700206C27002089270020E5
:101A1000DC4103008B2700208A270020F0D8FFFF3D
:101A200010B59CB00390039B04331B93B64B1B680B
:101A3000002B03D1B54B1B68B54A13600EF02CF98F
:101A40000246B44B1A60B34B1B68184610F0B4FD45
:101A50000246B14B1A60B04B1A68AD4B1B68D31AE3
:101A600018460EF023FDA6A3D3E900230EF0D6FFFF
:101A700003460C46184621460EF099FD0246A74B38
:101A80001A60A64BD3ED007AB7EE007AF4EEC77A6F
:101A9000F1EE10FA5FDBA24B1B78002B57D09E4B68
:101AA0001B6818469D4BD3ED007AF5EEC07AF1EE37
:101AB00010FA0BD5994BD3ED007ABFEE007AF4EE15
:101AC000C77AF1EE10FA01DD964A00E0964A934B90
:101AD000D3ED007AFDEEE77A17EE901A8F4BD3ED37
:101AE000007AF5EEC07AF1EE10FA14DD8B4B93ED2F
:101AF000007A8A4BD3ED007AFDEEE77AF8EEE77ACA
:101B000077EE677A9FED897A67EE877AFDEEE77A5E
:101B100017EE903A13E0814BD3ED007AFDEEE77AB1
:101B2000B8EEE77A7D4BD3ED007A77EE677A9FEDDA
:101B30007F7A67EE877AFDEEE77A17EE903A0193A7
:101B40000091134602467A49032006F06CFF724B5F
:101B50001B686F4A1360039B1B88013B562B00F2E6
:101B6000148201A252F823F0C91E02008B1F02004A
:101B70008B1F02008B1F02008B1F02008B1F0200B5
:101B80008B1F02008B1F02008B1F02008B1F0200A5
:101B90008B1F02008B1F02008B1F02008B1F020095
:101BA0008B1F0200C51C0200E11C02008B1F0200FB
:101BB000F31D02008B1F02008B1F02008B1F02000F
:101BC0008B1F02008B1F02008B1F02008B1F020065
:101BD0008B1F02008B1F0200411D02008B1F0200A1
:101BE0008B1F02008B1F02001D1E02008B1F0200B4
:101BF0008B1F02008B1F02008B1F02008B1F020035
:101C00008B1F02008B1F02008B1F02008B1F020024
:101C10008B1F02008B1F02008B1F02008B1F020014
:101C20008B1F02008B1F02008B1F02008B1F020004
:101C30008B1F02008B1F02008B1F02008B1F0200F4
:101C40008B1F02008B1F02008B1F02008B1F0200E4
:101C50007D1E02008B1F02008B1F02008B1F0200E3
:101C60008B1F02008B1F02008B1F02008B1F0200C4
:101C70008B1F02008B1F02008B1F02008B1F0200B4
:101C80008B1F02008B1F02008B1F02008B1F0200A4
:101C90008B1F02008B1F02008B1F02008B1F020094
:101CA0008B1F02008B1F0200EF1E0200531E02005A
:101CB0008B1F02008B1F02008B1F0200A31E02005D
:101CC0008B1F0200039B9A881A4B1A80144B1B78B7
:101CD000002B00F047811849032006F04FFE41E138
:101CE000144B4FF6FF721A800D4B1B78002B00F03F
:101CF0003B811249032006F041FE35E1AFF300803D
:101D00000000000000AAAE40802700209827002095
:101D1000A0270020A82700209C270020942700202F
:101D2000882700200C420300104203000000C84234
:101D300014420300FC2500206C420300844203008F
:101D400000238DF86B30FDF7CFFE1990934B1B6885
:101D500019991846FDF7E4FE1890189B07EE903A83
:101D6000B8EE677ADFED8E6AC7EE267ACDED177A88
:101D70008A4A199B13608B4B1B68002B32DD03983A
:101D8000FFF7D4FD03468DF86B309DF86B30002BC8
:101D90000FD0854B00221A60844B00221A70844BAE
:101DA0001B78002B00F0E2808249032006F0E6FD5C
:101DB000DCE07D4B1B6801337B4A13607A4B1A6869
:101DC0007D4B1B689A42C0F2D180784B01221A7079
:101DD000774B1B78002B00F0C9807849032006F070
:101DE000CDFDC3E0704B00221A60704B01221A70C7
:101DF000BCE0734B1888002300228521FDF766FDA7
:101E00001690169B1593159B002B00F0B1806D4A20
:101E100040F28631159805F02FF8A9E00DAB0822A5
:101E20000021184610F0B9FC039B9B880DA90022E5
:101E30001846FDF753FD1690169B1493149B002B28
:101E400000F098805F4A40F28F31149805F014F842
:101E500090E05B4B1888002300220021FDF746FD2F
:101E60001690169B1393139B002B00F08580554A08
:101E700040F29531139804F0FFFF7DE0039B9B88AF
:101E800013211846FDF716FD1690169B1293129B10
:101E9000002B73D04B4A40F29B31129804F0ECFFB8
:101EA0006CE0039B9B8813211846FDF703FD1690F9
:101EB000169B1193119B002B62D0424A40F2A13134
:101EC000119804F0D9FF5BE0039B9B880021184622
:101ED000FDF714FD1690169B1093109B002B51D00C
:101EE000384A40F2A731109804F0C6FF4AE0039B3D
:101EF00009AC0633186859689A68DB680FC49DF806
:101F00002430002B40D09DF82C30042B07D09DF8B6
:101F10002C30062B03D09DF82C30052B34D19DF8A6
:101F20002430022B03D102238DF8143002E0012368
:101F30008DF814304FF4C173ADF81830039B9B88B3
:101F400005AA11461846FDF7CDFC1690169B0F9377
:101F50000F9B002B18D01B4A40F2BB310F9804F0A6
:101F60008BFF11E000BF10E000BF0EE000BF0CE0EF
:101F700000BF0AE000BF08E000BF06E000BF04E0C9
:101F800000BF02E000BF00E000BF0F4B1B68013341
:101F90000D4A136000BF1CB010BD00BFA427002075
:101FA00000007A447C27002084270020042600209B
:101FB000882700209C42030000260020B84203002E
:101FC000FC250020D44203008027002000B585B006
:101FD0000190019B1B78012B53D0022B45D0002B85
:101FE0005BD1314B1B781A46304B1344184606F030
:101FF00013F92D4B1B780133DAB22B4B1A702C4995
:10200000032006F0BBFC284B1B78013B274AD35C1E
:102010000A2B06D0244B1B789AB2264B1B889A4277
:102020003DD32549032006F0A9FC1F4B1B789BB22A
:102030001A461E49214802F06BFE0390039B082BB1
:102040000CD0039B112B09D0039B0293029B002B06
:1020500004D01B4A5D21029804F00EFF039B112B54
:10206000E3D0114B00221A7019E01649012007F045
:10207000F7FE019B5B68124A6721184604F0FCFEDC
:102080000EE01049012007F0EBFE019B5B680C4A53
:102090006C21184604F0F0FE02E000BF00E000BF33
:1020A00000BF05B05DF804FB382800203C28002064
:1020B000EC4203001C27002028430300AC2700202B
:1020C00054430300F837030030B58DB0134B04AC14
:1020D0001D460FCD0FC495E8030084E80300104BA4
:1020E00000934FF4807301930E4B02934FF480736F
:1020F0000393694604A807230B4A06F01FF80B90C8
:102100000B9B0A930A9B002B04D0084A84210A984F
:1021100004F0B2FE00BF0DB030BD00BF6C43030041
:10212000D8280020D8290020CD1F020054430300E6
:1021300000B583B00848FDF7CDFB0190019B0093EB
:10214000009B002B04D0054A8C21009804F094FEDB
:1021500000BF03B05DF804FB904503005443030047
:1021600000B589B0039002911346ADF806302449BA
:10217000032006F003FC02990398FFF77DF906900F
:102180000023079324E0029A079B13441B78184608
:1021900006F05EF8069000230693069B002B11D0F4
:1021A000069B112B0ED0069A1649012006F0F7FB6C
:1021B000069B0593059B002B04D0134AF721059835
:1021C00004F05AFE069B112BDDD0079B01330793C9
:1021D000BDF80630079A9A42D5D3BDF80630013BC8
:1021E000029A13441B780D2B06D100BF0A2006F07B
:1021F0002FF80346112BF9D000BF09B05DF804FB9E
:1022000084430300C84303005443030000B587B070
:102210009DF80030012262F303038DF800309DF831
:102220000030012262F307138DF800301E4810F0D1
:1022300030FB03469AB26B461B491846FDF742FB3A
:102240000590059B0493049B002B05D0174A40F290
:102250000F11049804F010FE01AB0822002118466B
:1022600010F09BFA1023ADF804303C23ADF8063093
:102270000023ADF808304FF4C873ADF80A3001AB55
:102280001846FDF71BFB0590059B0393039B002B52
:1022900005D0064A4FF48C71039804F0EDFD00BFA1
:1022A00007B05DF804FB00BF004403005443030083
:1022B00000B585B001AB04220021184610F06DFA7C
:1022C0000D4B019301AB19460C4802F0C9FC039079
:1022D000039B0293029B002B05D0094A4FF4947193
:1022E000029804F0C9FD0749032006F047FB00BF30
:1022F00005B05DF804FB00BF61210200AC2700209F
:10230000544303000C44030000B585B00190019BC9
:102310001B78002B11D10B4B1B883B211846FDF776
:10232000C9FA0390039B0293029B002B05D0064A37
:1023300040F23F11029804F09FFD00BF05B05DF828
:1023400004FB00BFFC2500205443030000B583B00C
:1023500001900749012007F083FD064A40F24B1126
:10236000019804F089FD00BF03B05DF804FB00BFD5
:10237000F83703005443030000B58BB001AB1C22B7
:102380000021184610F009FA002301934FF420337E
:1023900002934FF47023039303238DF8103000232E
:1023A000ADF8123000238DF814300C4B06930C4B13
:1023B000079301AB184601F04FFE0990099B089363
:1023C000089B002B05D0074A4FF4B771089804F01A
:1023D00053FD00BF0BB05DF804FB00BF09230200F2
:1023E0004D2302005443030082B003468DF80730AA
:1023F0009DF80730002B01D0032B00E000BF00BF89
:1024000002B0704700B583B00190019801F056FF0B
:1024100001990A4802F000FA0199094802F0F2FB1A
:102420000198FFF7FDFA019801F07AFD019800F09C
:10243000CBFB00BF03B05DF804FB00BFC827002042
:10244000AC27002000B58FB0554B1B68049304A83F
:102450000023D822534906F021FE0D900D9B0C93CA
:102460000C9B002B05D0504A4FF4D7710C9804F008
:1024700003FD0023039303AB184606F0AFFE0B9059
:102480000B9B0A930A9B002B05D0474A40F2B311DD
:102490000A9804F0F1FC6B460C220021184610F05B
:1024A0007CF901238DF8003000238DF801300023E2
:1024B0008DF80230039A6B4619464020FDF71AFA50
:1024C0000B900B9B0993099B002B05D0364A4FF4C8
:1024D000DF71099804F0D0FC6B460C2200211846ED
:1024E00010F05BF901238DF800309E23ADF8023027
:1024F000039A6B4619462320FDF7FCF90B900B9BC2
:102500000893089B002B05D0274A40F2C511089874
:1025100004F0B2FC6B460C220021184610F03DF985
:1025200001238DF800304FF4A073ADF8043001237F
:102530008DF80230039A6B4619462020FDF7DAF930
:102540000B900B9B0793079B002B05D0164A40F27C
:10255000CD11079804F090FC03AB184606F04EFE30
:102560000B900B9B0693069B002B05D00E4A40F266
:10257000D111069804F080FC0C4806F0E7FD0B90A2
:102580000B9B0593059B002B05D0074A40F2D51104
:10259000059804F071FC00BF0FB05DF804FB00BFAC
:1025A0003C440300D82A00205443030005240200C1
:1025B00000B583B001900091009B5A880E4B1B8898
:1025C0009A4214D1009B1B8840F6772293420ED189
:1025D000009B9B88033B9AB2084B1A80074B1B88D1
:1025E0001A46064B1B880649032006F0ECF900BF8B
:1025F00003B05DF804FB00BFFC2500201C27002071
:102600004044030000B585B01149124802F0BCF8FF
:102610000390039B0293029B002B05D00E4A40F2CD
:102620001321029804F028FC80210A4802F0D7F810
:102630000390039B0193019B002B05D0064A40F2B7
:102640001621019804F018FC00BF05B05DF804FBEA
:10265000B1250200C82700205443030000B5ABB0E9
:1026600019AB3C220021184610F097F802238DF890
:10267000643000238DF8663005238DF867300AAB8F
:102680003C220021184610F088F80123ADF83830BC
:10269000144B0F9302AB20220021184610F07DF856
:1026A00001238DF80B3040230693B423079302AA2D
:1026B0000AA919A8002300930B4B01F043FA2990B3
:1026C000299B2893289B002B05D0084A4FF40E71B4
:1026D000289804F0D1FB012001F026FA00BF2BB0AE
:1026E0005DF804FB18270020E9230200544303008F
:1026F00000B587B0F1EE103A0193019B23F09F03E0
:102700000293029BE1EE103AF1EE103A0393262079
:10271000FDF730F8FDF758F80590059B0493049BEE
:10272000002B04D0044A3721049804F0A5FB00BF15
:1027300007B05DF804FB00BF6844030000B583B038
:10274000002006F0C5F80190019B0093009B002B30
:1027500004D0044A7F21009804F08EFB00BF03B030
:102760005DF804FB6844030010B58AB09E4B00225C
:102770001A609E4B00221A609D4B1B6818460FF092
:10278000D5F90C2200219A4810F007F80C220021FC
:10279000974810F002F8974A3C21082004F03CFCCE
:1027A0000990099B0893089B002B04D0924AD521DD
:1027B000089804F061FB05F0DBFA0790079B06938D
:1027C000069B002B04D08C4AD721069804F054FBBA
:1027D000FFF77AFCFFF7B2FFFFF734FEFFF716FDB5
:1027E000FFF710FFFFF764FDFFF738FFFFF7C4FDA9
:1027F0008249032006F0C2F8032001F0A7FA0790EF
:10280000079B0593059B002B04D07B4AE721059885
:1028100004F032FBFFF78CFC0DF032FC02230321A5
:10282000774A18460DF0CCFC76480DF0AFFB764A9F
:10283000764977480DF0A4FA714B9A78754B1A7067
:102840007549032006F09AF803210B20FCF7FFFFDF
:10285000022100200AF072FF022101200AF06EFF1F
:10286000022102200AF06AFF022103200AF066FF1B
:102870000DF012FA049004980FF09EFE0246674B8A
:102880001A604FF47A70FDF78DF8FDF72DF90246C6
:10289000634B1A60634B4FF0FF321A6004F082FC06
:1028A0000B20FCF7EAFF0346002B0CBF012300239B
:1028B000DBB21A465C4B1A605C4900200BF0F0F862
:1028C00003905B4901200BF0EBF80390594902207B
:1028D0000BF0E6F80390584903200BF0E1F8039061
:1028E000514B1B68012B25D1514B1B68012B21D16A
:1028F000484B1B78013B514A13605149012007F0B6
:10290000AFFA484B1C68FDF7EFF80346194620461E
:10291000FDF706F9024641F288339A4238D949490F
:10292000012007F09DFA4FF47A70FDF73BF8FCF7B1
:102930004FFF2DE03C4B1B68002B0DD13C4B1B681F
:10294000002B09D1334B1B7801333C4A13603E49BD
:10295000012007F085FA1BE0334B1B68012B13D1D4
:10296000334B1B68002B0FD13849012007F078FA50
:102970004FF47A7300934FF4FA730522322140F634
:10298000C4100DF0BDFA03E03149012007F068FAE8
:10299000304B1B78002B04D02F49002007F060FA41
:1029A00003E02E49002007F05BFA244B1B68FE2B46
:1029B00003DD184BFF221A700CE0204B1B68002B24
:1029C00003DC144B00221A7004E01C4B1B68DAB2C3
:1029D000104B1A700F4B1B781946094808F001FD7F
:1029E0000790FFF785FE59E7802700208427002005
:1029F0006C270020B02B0020684403003C450300F6
:102A0000E4270020C3F9010010280020E9F90100A3
:102A1000A0BB0D001E27002054450300982700206E
:102A2000A4270020342800201C2800202028002073
:102A300024280020282800202C28002030280020CE
:102A400000380300F037030008380300043803009F
:102A5000F437030004260020F8370300FC37030096
:102A600084B001900B468DF8033013468DF8023088
:102A700000230393019B002B3CD19DF80230012BD6
:102A80000BD19DF80330012B04D1019BDBB20E3337
:102A9000DBB200E000238DF802309DF80330012BFB
:102AA00004D0022B0CD0002B15D01FE01449019A42
:102AB00013465B0013440B449DF802201A701BE080
:102AC0000F49019A13465B0013440B4401339DF8F0
:102AD00002201A7010E00A49019A13465B00134461
:102AE0000B4402339DF802201A7005E0072303937C
:102AF00000BF01E007230393039B184604B070470F
:102B0000802F002000B583B0012200210020FFF7B4
:102B1000A7FF0190019B002B04D0019B072B01D044
:102B2000019B1CE0072202210120FFF799FF019081
:102B3000019B002B04D0019B072B01D0019B0EE0D1
:102B4000042202210020FFF78BFF0190019B002B44
:102B500004D0019B072B01D0019B00E00023184605
:102B600003B05DF804FB00B583B001220221002010
:102B7000FFF776FF0190019B002B04D0019B072BF0
:102B800001D0019B1CE0072202210120FFF768FF12
:102B90000190019B002B04D0019B072B01D0019BCE
:102BA0000EE00A2200210020FFF75AFF0190019B4E
:102BB000002B04D0019B072B01D0019B00E00023D8
:102BC000184603B05DF804FB00B585B00190019B89
:102BD0001B88102B02D0112B18D02FE0194B1B682B
:102BE000002B0DD1FFF78EFF0390039B002B07D026
:102BF000154B1B68002B03D0134B1B680398984799
:102C0000104B1B6801330F4A136017E00D4B1B6814
:102C1000013B0C4A13600B4B1B68002B0DD1FFF7D7
:102C2000A2FF0390039B002B07D0074B1B68002BD0
:102C300003D0054B1B680398984700BF00BF05B041
:102C40005DF804FB882F0020842F00206DDF704783
:102C500000BF184672DF704700BF184679DF704723
:102C600000BF18467DDF704700BF184664DF70471D
:102C700000BF184682B003460091ADF80630BDF89B
:102C80000630DAB2009B1A70BDF806301B0A9AB201
:102C9000009B0133D2B21A700223184602B070476B
:102CA00000B589B0039002911346ADF80630029B3F
:102CB0001B8803F10902BDF806309A4201D90C23A2
:102CC00051E005AB1846FFF7C1FF0790079B002BAB
:102CD00001D0079B47E0029B1B881A46039B1344C5
:102CE00008221A70029B1B8801339AB2029B1A8039
:102CF000029B1B881A46039B13441B221A70029BDB
:102D00001B8801339AB2029B1A80029B1B881A46C9
:102D1000039B981805AB0133062219460FF014FDEA
:102D2000029B1B8806339AB2029B1A809DF81430CE
:102D300023F00103DBB2002B07D1029B1B881A464C
:102D4000039B134400221A7006E0029B1B881A465C
:102D5000039B134401221A70029B1B8801339AB211
:102D6000029B1A800023184609B05DF804FB00B5E9
:102D700089B0039002910192ADF80230039B1B7859
:102D8000012B05D1039B5B78002B01D1072389E040
:102D9000019B1B889A1CBDF802309A420ED8039BF7
:102DA0001B78012B0CD1019B1B881A46039B5B7877
:102DB00013449A1CBDF802309A4201D90C2371E0E9
:102DC000019B1B88BDF80220D31A9BB2023BADF8D1
:102DD0001C30BDF81C30ADF81630019B1B88023347
:102DE000029A13440DF1160211461846FFF73AFFF6
:102DF0000690069B002B01D0069B53E0039B1B789B
:102E0000022B09D1BDF81630BDF81C209A4203D31D
:102E100009238DF81F3017E008238DF81F30039B1E
:102E20001B78012B0CD1039B5B789BB2BDF81C2057
:102E30009A4205D3039B5B789BB2ADF8163003E052
:102E4000BDF81C30ADF81630BDF81630FE2B01D998
:102E50000C2327E0BDF81630DAB2019B1B88194617
:102E6000029B0B440132D2B21A70019B1B880133C2
:102E70009AB2019B1A80019B1B881A46029B13443D
:102E80009DF81F201A70019B1B8801339AB2019B89
:102E90001A80019B1A88BDF8163013449AB2019B20
:102EA0001A800023184609B05DF804FB00B587B00E
:102EB000039002911346ADF80630029B1B881A1D41
:102EC000BDF806309A4201D90C2339E00DF1120306
:102ED0001846FFF7C3FE0590059B002B01D0059B0C
:102EE0002EE0029B1B881A46039B134403221A7090
:102EF000029B1B8801339AB2029B1A80029B1B889B
:102F00001A46039B134419221A70029B1B88013333
:102F10009AB2029B1A80BDF81220029B1B881946A8
:102F2000039B0B4419461046FFF7A4FE03461946BF
:102F3000029B1A888BB213449AB2029B1A80002318
:102F4000184607B05DF804FB84B0029101921A465E
:102F500003468DF80F301346ADF80C30019B1B88EB
:102F6000DA1CBDF80C309A4201D90C2328E0019BF1
:102F70001B881A46029B134402221A70019B1B886D
:102F800001339AB2019B1A80019B1B881A46029B4F
:102F9000134401221A70019B1B8801339AB2019BD2
:102FA0001A80019B1B881A46029B13449DF80F2030
:102FB0001A70019B1B8801339AB2019B1A8000236F
:102FC000184604B0704784B0029101921A46034635
:102FD0008DF80F301346ADF80C30019B1B88DA1CBE
:102FE000BDF80C309A4201D90C2328E0019B1B88C4
:102FF0001A46029B134402221A70019B1B8801335C
:103000009AB2019B1A80019B1B881A46029B1344AB
:103010000A221A70019B1B8801339AB2019B1A8005
:10302000019B1B881A46029B13449DF80F201A70BF
:10303000019B1B8801339AB2019B1A80002318461A
:1030400004B0704700B58BB0039001930B468DF828
:103050000B3013468DF80A3000238DF823300C9B7B
:103060001B88ADF82030002309936DE0039B5A685C
:10307000099B9B001A4404AB106818600DF11701FE
:1030800004AB00221846FFF7F1FD0790079B002BC9
:1030900001D0079B7AE09DF817309DF80A209A42EC
:1030A0004FD19DF82330002B01D0002300E00223F4
:1030B0008DF81B300C9B1B881A469DF817301A445C
:1030C0009DF81B301A44BDF834309A4201DD0C23C0
:1030D0005CE09DF8233083F00103DBB2002B16D0B7
:1030E0000C9B1B8801339AB20C9B1A800C9B1B888B
:1030F0001A46019B13449DF80B201A700C9B1B88E9
:1031000001339AB20C9B1A8001238DF823300C9B5B
:103110001B881A46019B1A440DF1170104AB18468F
:10312000FFF7A4FD0790079B002B01D0079B2DE024
:103130000C9B1A889DF817309BB213449AB20C9BD3
:103140001A80099B01330993039B1B881A46099B2C
:1031500093428BDB9DF82330002B16D00C9B1A88F2
:10316000BDF82030D31A9BB2013BADF81830BDF842
:103170001830FF2B01D90C2308E0BDF82030019A4C
:103180001344BDF81820D2B21A70002318460BB0B1
:103190005DF804FB00B589B0059003930B468DF8EC
:1031A000133013468DF812309DF81310BDF82C30F3
:1031B00001930A9B0093039B02220598FFF742FFAD
:1031C0000790079B002B01D0079B12E09DF812107F
:1031D000BDF82C3001930A9B0093039B10220598A5
:1031E000FFF730FF0790079B002B01D0079B00E003
:1031F0000023184609B05DF804FB82B00190019BE2
:103200001B88052B0AD9019B1B88B3F5486F07D98A
:10321000019B1B884FF6FF72934201D0072325E0E4
:10322000019B5B88052B0AD9019B5B88B3F5486F2E
:1032300007D9019B5B884FF6FF72934201D00723A9
:1032400014E0019B1B884FF6FF7293420DD0019B47
:103250005B884FF6FF72934207D0019B1A88019B4F
:103260005B889A4201D9072300E00023184602B088
:10327000704700B587B0039002910192ADF802301B
:10328000019B1B889A1DBDF802309A4201D90C237C
:103290004BE00398FFF7B1FF0590059B002B01D091
:1032A000059B42E0019B1B881A46029B13440522A2
:1032B0001A70019B1B8801339AB2019B1A80019BF3
:1032C0001B881A46029B134412221A70019B1B880A
:1032D00001339AB2019B1A80039B1A88019B1B88B9
:1032E0001946029B0B4419461046FFF7C3FC0346E0
:1032F0001946019B1A888BB213449AB2019B1A801B
:10330000039B5A88019B1B881946029B0B44194654
:103310001046FFF7AFFC03461946019B1A888BB293
:1033200013449AB2019B1A800023184607B05DF837
:1033300004FB00B587B0039002910192ADF8023012
:10334000039B9B8802330593019B1B881A46059BB0
:1033500013449A1CBDF802309A4201D90C2354E060
:10336000059BFE2B01D90C234FE0059BDAB2019B94
:103370001B881946029B0B440132D2B21A70019B82
:103380001B8801339AB2019B1A80019B1B881A4645
:10339000029B1344FF221A70019B1B8801339AB2CF
:1033A000019B1A80039B1A88019B1B881946029B6C
:1033B0000B4419461046FFF75DFC03461946019B76
:1033C0001A888BB213449AB2019B1A80039B9B8884
:1033D000002B19D0039B9B68002B01D1072314E01D
:1033E000019B1B881A46029B9818039B9968039BB4
:1033F0009B881A460FF0A8F9019B1A88039B9B88AB
:1034000013449AB2019B1A800023184607B05DF856
:1034100004FB00B589B0039002910192ADF802302F
:10342000039B9B6A002B01D1072372E000238DF8D8
:103430001F3066E0039B996A9DF81F2013465B00CE
:1034400013449B000B440693069B9B880233059311
:10345000059BFE2B01D90C235BE0059BDAB2019B97
:103460001B881946029B0B440132D2B21A70019B91
:103470001B8801339AB2019B1A80019B1B881A4654
:10348000029B134416221A70019B1B8801339AB2C7
:10349000019B1A80069B1A88019B1B881946029B78
:1034A0000B4419461046FFF7E5FB03461946019BFE
:1034B0001A888BB213449AB2019B1A80069B9B8890
:1034C000002B19D0069B9B68002B01D1072320E01D
:1034D000019B1B881A46029B9818069B9968069BBD
:1034E0009B881A460FF030F9019B1A88069B9B882F
:1034F00013449AB2019B1A809DF81F3001338DF856
:103500001F30039B93F82C309DF81F209A4291D3D3
:103510000023184609B05DF804FB00B589B005909A
:103520000491039200230793039B1B88ADF81A3084
:10353000039B00221A80059B93F82D30002B0CD0A2
:10354000BDF81A301A4603990498FFF7A9FB0790B3
:10355000079B002B01D0079BC4E0059B9B78002BA9
:103560000CD0BDF81A301A4603990498FFF79EFC58
:103570000790079B002B01D0079BB3E0059BDB78EE
:10358000002B0ED0059BDB7858B2BDF81A30039A99
:103590000499FFF7D9FC0790079B002B01D0079BEC
:1035A000A0E0059B5B68002B0FD0059B5B6893F93F
:1035B0000000BDF81A30039A0499FFF704FD079044
:1035C000079B002B01D0079B8CE0059B1B89002BE0
:1035D00012D0059B03F10800BDF81A300193039B3C
:1035E0000093049B06220221FFF7D4FD0790079B5E
:1035F000002B01D0079B75E0059B1B8A002B12D086
:10360000059B03F11000BDF81A300193039B009352
:10361000049B07220321FFF7BDFD0790079B002BAA
:1036200001D0079B5EE0059B1B8B002B12D0059BF6
:1036300003F11800BDF81A300193039B0093049B1B
:1036400015221421FFF7A6FD0790079B002B01D040
:10365000079B47E0059B1B6A002B0DD0059B186A52
:10366000BDF81A30039A0499FFF703FE0790079BF1
:10367000002B01D0079B35E0059B5B6A002B0DD02A
:10368000059B586ABDF81A30039A0499FFF751FE5A
:103690000790079B002B01D0079B23E0059B93F825
:1036A0002C30002B0CD0BDF81A30039A04990598E1
:1036B000FFF7AFFE0790079B002B01D0079B11E09F
:1036C000059B1B78002B0CD0BDF81A30039A049987
:1036D0000598FFF74CFB0790079B002B01D0079B39
:1036E00000E0079B184609B05DF804FB82B001902A
:1036F000019BDB7803F00403002B01D1072300E0DA
:103700000023184602B0704782B00190019BDB781D
:10371000002B01D0072300E00023184602B07047B9
:1037200000B597B0019000911F23ADF84A301F23D8
:10373000ADF84830019B002B18D00198FFF7D6FF59
:103740001390139B002B01D0139B3FE00DF14A0215
:103750000AAB19460198FFF7E0FE1390139B002B6C
:1037600001D0139B32E00AAB159304E000231593BC
:103770000023ADF84A30009B002B17D00098FFF7CC
:10378000C3FF1390139B002B01D0139B1EE012AAC2
:1037900002AB19460098FFF7C0FE1390139B002B55
:1037A00001D0139B12E002AB149304E000231493A6
:1037B0000023ADF84830BDF84A30D9B2BDF84830E2
:1037C000DBB2149A1598FFF745FA0346184617B06E
:1037D0005DF804FB73DF704700BF1846014B1B7890
:1037E000184670476230002084B001900023039394
:1037F0000AE0019A039B13441B78002B01D001239C
:1038000006E0039B01330393039B052BF1D90023AF
:10381000184604B07047000082B003468DF80730A8
:103820009DF807305A1C074B83FB02135910D3171E
:10383000C91A0B469B000B44D11ACBB2184602B0F2
:10384000704700BF6766666682B00190019BDB7BB4
:10385000012B03D1019B9A88024B1A8000BF02B052
:10386000704700BF5430002000B585B001900E4B6A
:1038700000221A70019B9A880C4B1B889A420ED129
:10388000012000F063FA0390039B002B07D0084B44
:103890001B68002B03D0064B1B680398984700BF9A
:1038A00005B05DF804FB00BF6030002054300020FC
:1038B0005C30002000B585B00190019B1B7A002B85
:1038C00015D10D4B1B781846FFF7A6FF0346184687
:1038D00000F03CFA0390039B002B09D0074B1B68B8
:1038E000002B05D0054B1B680398984700E000BFEC
:1038F00005B05DF804FB00BF8F2F00205C30002076
:1039000000B583B001AB184604F0BAFB019B002B55
:1039100014BF01230023DBB2184603B05DF804FB9B
:1039200000B585B003468DF807301E48FFF75CFFF1
:1039300003468DF80F309DF80730013B032B2BD841
:1039400001A252F823F000BF593902006D3902007C
:10395000813902008D390200134B5B78002B05D0B2
:103960009DF80F30002B01D0012316E00E4B9B7801
:10397000002B05D09DF80F30002B01D002230CE066
:10398000094BDB78002B01D0032306E0064B1B79A3
:10399000002B01D0042300E00023184605B05DF899
:1039A00004FB00BFB52F0020902F002082B00190B3
:1039B000094B01221A70019B084A5A60019B01229F
:1039C0001A70019B00229A81019B00225A810023D8
:1039D000184602B0704700BF8E2F0020B42F002081
:1039E00082B001900B4B02221A70019B0A4A5A6066
:1039F000019B01221A70094BDB689AB2019B9A81E4
:103A0000064B9B689AB2019B5A810023184602B06C
:103A1000704700BF8E2F0020B42F0020902F002071
:103A200000B585B001901B4B1B699AB2019B5A816E
:103A3000184B5B699AB2019B9A81164B1B78002B3D
:103A40001FD0154B1B7883F00103DBB2002B18D07D
:103A5000FFF7C4FE0346002B13D0019B02221A720B
:103A60000E4B0422DA7000210C48FFF759FE039038
:103A7000039B002B01D0039B07E0094B05221A7022
:103A800002E0074B03221A700023184605B05DF8C8
:103A900004FB00BF902F002060300020BC2F0020CE
:103AA0008E2F002000B585B001901B4B9B699AB208
:103AB000019B5A81184BDB699AB2019B9A81164B84
:103AC0001B78002B1FD0154B1B7883F00103DBB252
:103AD000002B18D0FFF782FE0346002B13D0019B6A
:103AE00002221A720E4B0422DA7000210C48FFF7F2
:103AF00017FE0390039B002B01D0039B07E0094BAB
:103B000006221A7002E0074B04221A70002318469E
:103B100005B05DF804FB00BF902F0020603000204E
:103B2000BC2F00208E2F002082B003468DF8073076
:103B3000034A9DF80730137000BF02B0704700BF02
:103B4000B02F002030B589B003900291019200930C
:103B5000039B002B02D0019B002B01D10E23D5E04B
:103B60006C4B01221A706C4B00221A706B4A019B3D
:103B700014461D460FCD0FC495E80F0084E80F00D2
:103B8000674B00221A70674A009B1360664A0C9BC1
:103B90001360664B4FF6FF721A80072200216448BB
:103BA0000EF0FBFD3C22002162480EF0F6FD039B67
:103BB0001A78604B1A70039B9A785E4B9A70039B3D
:103BC000DA785C4BDA70039B5A785A4B5A70594B2F
:103BD000039A1033103292E8030083E80300554B38
:103BE000039A0833083292E8030083E80300514B3C
:103BF000039A1833183292E8030083E80300039B0A
:103C00005B6A002B29D04B4B4B4A5A624A4B4B4ABA
:103C10009A60039B5A6A474B5B6A12881A80039B1F
:103C20005A6A444B5B6A92889A80002307930DE09E
:103C3000039B5B6A9A68079B134419783F4A079B6A
:103C400013440A461A70079B01330793394B5B6A8A
:103C50009B881A46079B9342EAD3039B9B6A002BDF
:103C600033D0374B374A9A60324B354A9A62314BE0
:103C70009B6A344A9A60039B9A6A2E4B9B6A92888D
:103C80009A80039B9A6A2B4B9B6A12881A800023A6
:103C900006930DE0039B9B6A9A68069B1344197870
:103CA000284A069B13440A461A70069B0133069362
:103CB000204B9B6A9B881A46069B9342EAD3039B40
:103CC00093F82C201B4B83F82C20039B1B6A002BA2
:103CD0000ED0184B1C4A1A62039B1A6A154B1B6ABA
:103CE00052885A80039B1A6A124B1B6A12881A80E8
:103CF000039B5B68002B03D0039B5B680D4A5360FA
:103D000002990C48FFF70CFD0590059B184609B079
:103D100030BD00BF8C2F00208F2F0020902F00205F
:103D2000B02F0020583000205C300020543000209C
:103D3000B42F0020BC2F0020F82F002004300020DA
:103D400024300020303000205030002000B589B0F1
:103D500003468DF80730664B1B7883F00103DBB216
:103D6000002B01D00823BEE0624A9DF80730137093
:103D7000FFF7C6FD0346002B04D05F4B01221A70EB
:103D80000023B0E0072200215C480EF006FD5C4BEA
:103D90005B78002B03D0574B1B78012B0FD0584B6F
:103DA0009B78002B03D0534B1B78012B07D0544B2F
:103DB0009B78002B12D04F4B1B78022B0ED1514B0E
:103DC0001B68002B07D0504B01221A704D4B1B680B
:103DD0000820984702E04C4B00221A709DF80730EB
:103DE0001846FFF79DFD03461A46424B1A70454B95
:103DF0001B68002B1DD03F4B1B78032B03D03D4B82
:103E00001B78042B15D13E4B1B78002B11D03F4B58
:103E10001B7883F00103DBB2002B0AD03C4B00225D
:103E20001A703C4B01221A70364B1B6807209847CA
:103E300002E0384B00221A7003AB10220021184612
:103E40000EF0ABFC00238DF80C3000238DF81430FD
:103E5000284B1B78042B29D801A252F823F000BF6D
:103E6000A53E0200753E0200813E02008D3E02002A
:103E7000993E020003AB1846FFF798FD079016E045
:103E800003AB1846FFF7ACFD079010E003AB1846F4
:103E9000FFF7C6FD07900AE003AB1846FFF702FEE6
:103EA000079004E01C4B00221A7000E000BF114B89
:103EB0001B78002B0CD0194B1A7803AB114618460F
:103EC000FFF788FC0790079B002B01D0079B0AE0B7
:103ED0000C4B1B68002B05D00A4B1B680E4A12784E
:103EE000104698470023184609B05DF804FB00BF50
:103EF0008C2F00208F2F00208D2F0020B42F00202A
:103F0000902F002058300020BB2F00206030002070
:103F100062300020613000208E2F0020B02F002062
:103F200000B583B00190019B1B88112B07D01B2B80
:103F300009D0102B0BD10198FFF786FC08E00198FF
:103F4000FFF792FC04E00198FFF7B4FC00E000BF2B
:103F500000BF03B05DF804FB75DF704700BF184673
:103F600076DF704700BF18467ADF704700BF1846FB
:103F70007BDF704700BF184682B00190019B5A88D2
:103F8000074B1B889A4207D3019B5A88044B5B88D6
:103F90009A4201D8012300E00023184602B070477E
:103FA0008030002000B587B00190274B1B884FF66A
:103FB000FF72934243D0254B1B780133DAB2234B77
:103FC0001A70234B1A7B214B1B789A4212D31E4B3B
:103FD0001B8820491846FFF7BFFF0590059B002B63
:103FE0002DD01B4B9B69002B29D0194B9B69059841
:103FF000984724E0154B00221A70154B1B7C002BB0
:1040000011D0114B1B883B211846FFF7A9FF0490E4
:10401000049B002B07D00E4B9B69002B03D00C4B4D
:104020009B69049898470A4B5B69002B07D00023D3
:104030008DF80C30064B5B6903AA1046984700BF09
:1040400007B05DF804FB00BF8A30002088300020F4
:10405000643000208030002030B585B001901C4ACB
:10406000019B14461D460FCD0FC495E8070084E858
:104070000700184B00221A70019B1B68002B0ED002
:10408000019B1A68144B1068516803C31248FFF76C
:104090006BFF0390039B002B0AD0039B15E00E4897
:1040A000FFF766FF0390039B002B01D0039B0CE0FE
:1040B0000A4B4FF6FF721A80094B00221A70094A08
:1040C0000021094803F088FE0346184605B030BDBC
:1040D00064300020B4300020803000208A3000207E
:1040E00088300020A53F02009845030000B585B048
:1040F0002548FFF741FF034683F00103DBB2002BA5
:104100002ED0224B1B78002B0CD0214B5B69002B4F
:1041100032D000238DF804301D4B5B6901AA104694
:10412000984729E01B4B1B78002B03D1184B5B6889
:10413000039302E0164B9B680393174B00220399ED
:10414000184603F079FE0290029B002B14D0104B0E
:104150009B69002B10D00E4B9B69029898470BE08F
:104160000B4B5B69002B07D001238DF80030084B07
:104170005B696A4610469847044B00221A7000BFDC
:1041800005B05DF804FB00BF8C300020B430002087
:1041900064300020883000209430002000B583B0C7
:1041A0000190019B9A880B4B1A800B4A019B10339C
:1041B00093E8030082E80300084B00221A70084BC2
:1041C000DB89002B01D1FFF791FF00BF03B05DF841
:1041D00004FB00BF8A3000208C3000208830002093
:1041E0006430002000B585B001900D4B4FF6FF7292
:1041F0001A800C4B00221A700B4B184603F04EFE2F
:104200000390039B002B07D0084B9B69002B03D026
:10421000064B9B690398984700BF05B05DF804FB07
:104220008A30002088300020943000206430002044
:1042300000B585B00190019B06330393039B1A8858
:10424000134BDB899A421ED1039B5B89022B1AD147
:10425000039B0C33184600F066F80346002B02D08F
:10426000FFF744FF0FE00B4B184603F017FE0290D8
:10427000029B002B07D0064B9B69002B03D0044BFD
:104280009B690298984700BF05B05DF804FB00BF2A
:10429000643000209430002000B583B00190064ABD
:1042A000019B083393E8030082E80300FFF71EFF39
:1042B00000BF03B05DF804FB8C30002000B583B074
:1042C0000190019B1B88112B0DD0112B02DC102BB0
:1042D00005D014E0122B0ED0502B08D00FE001981F
:1042E000FFF75CFF0BE00198FFF77CFF07E0019808
:1042F000FFF79EFF03E00198FFF7CEFF00BF00BF6E
:1043000003B05DF804FB82B00190019B1B781AB2E8
:10431000019B01331B781B021BB213431BB29BB2E0
:10432000184602B0704700B585B001900198FFF7BC
:10433000EAFF0346ADF80E30BDF80E3003F001037E
:10434000002B14BF01230023DBB2184605B05DF833
:1043500004FB000000B585B00190009100238DF8AA
:104360000F309DF80F305A1C8DF80F201A46019B14
:104370001344009A12781A709DF80F305A1C8DF869
:104380000F201A46019B1344009A52781A709DF828
:104390000F30022B0CBF01230023DBB20293029BE0
:1043A000002B04D1054A4721002002F065FD9DF84D
:1043B0000F30184605B05DF804FB00BF9C450300B4
:1043C0008FDF704700BF18469EDF704700BF18465A
:1043D000ADDF704700BF184682B00190019B9E225E
:1043E0001A80019B17225A80019B00221A71019B9F
:1043F00000225A71019BA2229A71019B1B22DA7141
:1044000000BF02B07047000000B587B003460091BE
:10441000ADF80630BDF80630009ADB0013441B7B74
:104420009BB2ADF80C30BDF80630009ADB001344A7
:104430001B7B9BB2ADF80E300023ADF8103000238B
:10444000ADF8123003A9BDF8063000221846FFF778
:10445000B7FF0590059B002B06D0BDF80620059BF5
:104460000349012004F0AFFA00BF07B05DF804FB78
:10447000E045030000B587B001900091009B9B8848
:10448000ADF81630BDF81630DB00019A1344063340
:104490000493019B1A79049B9A71009BDB7B012B8F
:1044A00002D0022B05D009E0019B1A88049B1A80D8
:1044B00004E0019B5A88049B1A8000BF049B1A8861
:1044C000049B5B889A421BD9049B1A88BDF816305E
:1044D00011461846FFF778FF0390039B002B03D18A
:1044E000049B01225A710BE0039B112B03D1049B07
:1044F00001221A7104E0039A0949012004F04FFADD
:10450000049B9A79049BDB799A4205D9BDF8163051
:1045100001991846FFF778FF00BF07B05DF804FB6C
:104520005446030000B583B001900091009B9B8826
:10453000DB00019A134406331846FFF74DFF00BF16
:1045400003B05DF804FB00B587B001900091009BBB
:104550009B88ADF81630009B5B89ADF81430BDF830
:104560001630DB00019A134406330493049B1B8826
:10457000BDF81420934228BF13469AB2049B5A8078
:10458000049B5B88172B38BF17239AB2049B5A8071
:10459000019B9B69002B15D0049B5B79002B11D0EC
:1045A00040F67723ADF80830BDF81630ADF80A3084
:1045B000049B5B88ADF80C30019B9B6902AA1146F5
:1045C00001989847049B00225A71049B00221A719B
:1045D00000BF07B05DF804FB00B589B00190009101
:1045E000009B9B88ADF81C30009BDB88ADF81E302B
:1045F000BDF81C30DB00019A134406330693BDF866
:104600001E30172B38BF1723ADF81E30069B1B88B2
:10461000BDF81E20934228BF13469AB2069B5A80CB
:10462000069B00221A71069B1A88BDF81C301146A1
:104630001846FFF7CDFE0590059B002B04D0059A88
:104640001149012004F0ABF9069B5B79002B16D1D0
:10465000019B9B69002B13D040F67723ADF80C30FB
:10466000BDF81C30ADF80E30069B5B88ADF81030FD
:10467000019B9B6903AA11460198984700E000BF7F
:1046800009B05DF804FB00BFB046030030B593B03D
:1046900001900091009B04AC1D1D0FCD0FC40FCDE8
:1046A0000FC40FCD0FC42B682360BDF81030ADF8D8
:1046B0004630BDF81420BDF84630D1B2019ADB0077
:1046C00013440A465A73019B9B69002B19D002AB15
:1046D00000221A609A804DF67A23ADF80830BDF8B2
:1046E0004630ADF80A30BDF84630019ADB0013447D
:1046F0005B7B8DF80C30019B9B6902AA11460198E7
:10470000984700BF13B030BD00B589B0019000914B
:10471000009B04330693069B1B88DB00019A13441D
:1047200006330793069B9B888DF81730079B9B7970
:104730009DF81720934228BF13468DF8163002AB20
:1047400000221A605A609DF816309BB2ADF808300E
:104750009DF816309BB2ADF80A30069B1B8802A963
:1047600000221846FFF72CFE0490049B002B04D077
:10477000049A0449012004F012F900BF09B05DF861
:1047800004FB00BF0847030000B585B0019000910D
:10479000019B002B01D10E231DE0019B009A9A6121
:1047A000019B9E221A80019B9E225A80019BA2227D
:1047B0001A71002303930AE0039BDB00019A134460
:1047C00006331846FFF708FE039B01330393039B50
:1047D000012BF1D90023184605B05DF804FB82B027
:1047E00001900B46ADF80230019B002B01D10E2346
:1047F0000EE0BDF80230162B03D9BDF802309E2B17
:1048000001D9072304E0019BBDF802201A80002390
:10481000184602B07047000000B585B001900091C5
:10482000009B9B88ADF80E30BDF80E30012B5FD891
:10483000009B1B88212B26D0212B04DC102B09D0B8
:10484000112B0CD024E03A2B0ED0552B11D0222B5B
:1048500014D01DE000990198FFF70CFE18E00099B4
:104860000198FFF75FFE13E000990198FFF76BFED8
:104870000EE000990198FFF7AFFE09E0009901985A
:10488000FFF704FF04E000990198FFF73DFF00BF28
:10489000BDF80E30019ADB0013449B7A002B28D020
:1048A000BDF80E30019ADB001344DA88BDF80E30F3
:1048B00011461846FFF788FD0290029B002B0ED18F
:1048C000BDF80E30019ADB00134400229A72BDF845
:1048D0000E30019ADB0013440122DA7209E0029BD8
:1048E000112B06D0029A0449012004F058F800E088
:1048F00000BF05B05DF804FB54460300A0DF70471D
:1049000000BF1846A2DF704700BF1846A6DF7047F9
:1049100000BF184662DF704700BF184682B00190A2
:104920000091009B9A88019B9A8200BF02B0704759
:1049300082B001900091019B4FF6FF729A8200BFF6
:1049400002B0704700B585B001900091009B06331E
:104950000393039B1A88019B1B899A4213D1039BE3
:104960005B89022B0FD1039B0C331846FFF7DBFC4E
:104970000346002B03D0019B01229A7517E0019B8F
:1049800000229A7513E0039B1A88019B9B899A4227
:104990000DD1019B9B69002B09D0019B9B69039A58
:1049A00002F10C01039A528901989847FFE700BF72
:1049B00005B05DF804FB00B593B0019000910AAB1F
:1049C0000322002118460DF0E8FE9DF82830012250
:1049D00062F303038DF828309DF82830012262F33A
:1049E00007138DF828309DF82930012262F3030364
:1049F0008DF829309DF82930012262F307138DF8D4
:104A000029309DF82A30012262F342038DF82A30C2
:104A10000BAB1C22002118460DF0BFFE9DF82C3078
:104A200043F010038DF82C3000230C9300230E93D9
:104A300000230F930AAB109300231193019B1B7863
:104A40008DF812300323ADF8103003AB03220021A0
:104A500018460DF0A2FE9DF80C30012262F303030C
:104A60008DF80C309DF80C30012262F307138DF89D
:104A70000C309DF80D30012262F303038DF80D30E8
:104A80009DF80D30012262F307138DF80D309DF86B
:104A90000E30012262F342038DF80E309DF80E3085
:104AA0006FF3C3038DF80E309DF80E306FF30413CF
:104AB0008DF80E309DF80E3043F001038DF80E3066
:104AC00005AB1422002118460DF067FE04AB0593D8
