:020000021000EC
:10F000000000012033F10100D9F00100DBF0010024
:10F01000DDF00100DFF00100E1F001000000000080
:10F02000000000000000000000000000E3F001000C
:10F03000E5F0010000000000E7F00100E9F0010048
:10F040003D420200EDF001006161020065E902004D
:10F05000F3F00100F5F00100D94B020069BC020099
:10F06000FBF00100FDF00100FFF0010041F00200A3
:10F0700003F1010005F1010007F1010009F10100B0
:10F080000BF10100357002000FF1010011F10100D8
:10F090007570020015F101007D84020019F1010074
:10F0A0001BF101001DF101001FF1010021F1010020
:10F0B000D1B5020025F101000000000000000000B1
:10F0C00027F1010029F101002BF101002DF10100D0
:08F0D0002FF1010031F10100F4
:10F0D800FEE7FEE7FEE7FEE7FEE7FEE7FEE7FEE700
:10F0E800FEE7FEE7FEE7FEE7FEE7FEE7FEE7FEE7F0
:10F0F800FEE7FEE7FEE7FEE7FEE7FEE7FEE7FEE7E0
:10F10800FEE7FEE7FEE7FEE7FEE7FEE7FEE7FEE7CF
:10F11800FEE7FEE7FEE7FEE7FEE7FEE7FEE7FEE7BF
:10F12800FEE7FEE7FEE7FEE7FEE70348854600F058
:10F13800D1F800F003B8704700000120374938487B
:10F148000A1A02D0072291438D46364936480A1AD0
:10F1580006D00722914381F30988022282F314889A
:10F1680032483349334A00F048F833483349344A7F
:10F1780000F043F833483449344A00F03EF8344844
:10F188003449354A00F039F834483549354A00F0F1
:10F1980034F835483549364A00F02FF835483649AD
:10F1A800364A00F02AF836483649374A00F025F83A
:10F1B80036483749002200F02BF8364836490022F5
:10F1C80000F026F835483649091A082903DB0022D9
:10F1D8000260043001601F481F49884205D0026858
:10F1E800043003B4904703BCF7E700208646EC469A
:10F1F800002000212B4A9047FEE7884207D0521A88
:10F2080005D0037801300B700131013AF9D170470C
:10F21800884202D002700130FAE7704700000120EE
:10F2280000FC002000000120000001203043030002
:10F23800F825002020270020B0F20100B0F20100DC
:10F248003C1F030030430300F8250020F825002068
:10F258003C1F03003C1F03003C1F03003C1F03002E
:10F268003C1F03003C1F03003C1F03003C1F03001E
:10F2780030430300584403002027002020270020A3
:10F2880058440300202700202027002020270020A2
:10F298007040002070400020784000207840002016
:08F2A80078440020851A0200E1
:10F2B00000487047684000207047704770477047AB
:10F2C0007047704712F06FBA024B034A1A6000BFD2
:10F2D000704700BFF82500200090D00308B500F06B
:10F2E0000DF90346002B06D0744B1B681B0A744AA9
:10F2F00003F01F03136000F02DF90346002B02D02A
:10F30000704B714A1A6000F041F90346002B06D099
:10F310006E4B1B685B0B6E4A03F00703136000F033
:10F3200061F90346002B05D06A4BDB68694A23F07C
:10F330008073D36000F072F90346002B0ED04FF0BB
:10F3400080430022C3F80C214FF080430022C3F811
:10F3500010214FF080430022C3F8382500F08AF9CD
:10F360000346002B02D05C4B03221A6000F09EF98A
:10F370000346002B0BD0594B05221A60584B012233
:10F380001A60584B00221A60574B3F221A6000F057
:10F39000A9F90346002B76D04FF08053534AD3F897
:10F3A0000434C2F820354FF08053504AD3F8083463
:10F3B000C2F824354FF080534C4AD3F80C34C2F8CD
:10F3C00028354FF08053494AD3F81034C2F82C3511
:10F3D0004FF08053454AD3F81434C2F830354FF01B
:10F3E0008053424AD3F81834C2F834354FF0805372
:10F3F0003E4AD3F81C34C2F840354FF080533B4AA4
:10F40000D3F82034C2F844354FF08053374AD3F84C
:10F410002434C2F848354FF08053344AD3F82834A6
:10F42000C2F84C354FF08053304AD3F82C34C2F830
:10F4300050354FF080532D4AD3F83034C2F854354C
:10F440004FF08053294AD3F83434C2F860354FF076
:10F450008053264AD3F83834C2F864354FF08053CD
:10F46000224AD3F83C34C2F868354FF080531F4A23
:10F47000D3F84034C2F86C354FF080531B4AD3F8B0
:10F480004434C2F8703500F049F90346002B05D02A
:10F49000174B1B68174A03F04F031360164BD3F842
:10F4A0008830154A43F47003C2F88830BFF34F8F99
:10F4B000BFF36F8FFFF708FF00BF08BD24030010E4
:10F4C0004035014074C007400DF0ADBA4402001051
:10F4D0003C050040F0ED00E0A00500401056004063
:10F4E00088560040185600401456004000C00040A6
:10F4F00058020010E40E004000ED00E0124B1B68C3
:10F50000DBB2062B1DD1114B1B6803F00F03002B40
:10F5100017D10F4B1B6803F0F003302B01D10123EF
:10F5200010E00B4B1B6803F0F003402B01D10123CB
:10F5300008E0074B1B6803F0F003502B01D10123B7
:10F5400000E0002318467047E00F00F0E40F00F0E1
:10F55000E80F00F00A4B1B68DBB2062B0DD1094BFC
:10F560001B6803F00F03002B07D1074B1B6803F048
:10F57000F003302B01D1012300E00023184670472F
:10F58000E00F00F0E40F00F0E80F00F0124B1B68F2
:10F59000DBB2062B1DD1114B1B6803F00F03002BB0
:10F5A00017D10F4B1B6803F0F003302B01D101235F
:10F5B00010E00B4B1B6803F0F003402B01D101233B
:10F5C00008E0074B1B6803F0F003502B01D1012327
:10F5D00000E0002318467047E00F00F0E40F00F051
:10F5E000E80F00F00A4B1B68DBB2062B0DD1094B6C
:10F5F0001B6803F00F03002B07D1074B1B6803F0B8
:10F60000F003302B01D1012300E00023184670479E
:10F61000E00F00F0E40F00F0E80F00F0124B1B6861
:10F62000DBB2062B1DD1114B1B6803F00F03002B1F
:10F6300017D10F4B1B6803F0F003302B01D10123CE
:10F6400010E00B4B1B6803F0F003402B01D10123AA
:10F6500008E0074B1B6803F0F003502B01D1012396
:10F6600000E0002318467047E00F00F0E40F00F0C0
:10F67000E80F00F00A4B1B68DBB2062B0DD1094BDB
:10F680001B6803F00F03002B07D1074B1B6803F027
:10F69000F003302B01D1012300E00023184670470E
:10F6A000E00F00F0E40F00F0E80F00F00A4B1B68D9
:10F6B000DBB2062B0DD1094B1B6803F00F03002BA7
:10F6C00007D1074B1B6803F0F003302B01D1012356
:10F6D00000E0002318467047E00F00F0E40F00F050
:10F6E000E80F00F00A4B1B68DBB2062B0DD1094B6B
:10F6F0001B6803F00F03002B07D1074B1B6803F0B7
:10F70000F003502B01D1012300E00023184670477D
:10F71000E00F00F0E40F00F0E80F00F0124B1B6860
:10F72000DBB2062B1DD1114B1B6803F00F03002B1E
:10F7300017D10F4B1B6803F0F003302B01D10123CD
:10F7400010E00B4B1B6803F0F003402B01D10123A9
:10F7500008E0074B1B6803F0F003502B01D1012395
:10F7600000E0002318467047E00F00F0E40F00F0BF
:10F77000E80F00F082B003468DF807309DF807309F
:10F7800003F01F0206499DF907305B09012000FACA
:10F7900002F2603341F8232000BF02B0704700BF7F
:10F7A00000E100E0BFF34F8F054BDB6803F4E0623C
:10F7B0000349044B1343CB60BFF34F8F00BFFDE7FA
:10F7C00000ED00E00400FA053EDF704700BF184678
:10F7D00008B5FFF7E7FF42F20303184608BD82B001
:10F7E00001904FF0A043184602B0704700B585B0B5
:10F7F0000190084611461A4603468DF803300B4621
:10F800008DF8023013468DF8013001AB1846FFF732
:10F81000E6FF03909DF803209DF802305B001A4339
:10F820009DF801309B001A439DF818301B0242EAF4
:10F8300003019DF81C301B04019A1943039B02F538
:10F84000E07243F8221000BF05B05DF804FB00B57C
:10F8500085B003900B468DF80B309DF80B200023EC
:10F860000193002300931346002200210398FFF721
:10F87000BDFF00BF05B05DF804FB00B585B0019089
:10F8800001AB1846FFF7ABFF0390039800F00AF8AE
:10F890000246019B22FA03F303F00103184605B068
:10F8A0005DF804FB82B00190019BD3F81035184637
:10F8B00002B0704776DF704700BF18467ADF7047A6
:10F8C00000BF18467CDF704700BF18467FDF7047D7
:10F8D00000BF18468ADF704700BF18468FDF7047A9
:10F8E00000BF1846A8DF704700BF1846A9DF704761
:10F8F00000BF184669DF704700BF184666DF7047D3
:10F9000000BF184684B00190244B0393019B002B49
:10F9100040D0234B1A680399019B00BF00BF00BF72
:10F9200000BF00BF00BF00BF00BF8A422FD000BF92
:10F9300000BF00BF00BF00BF00BF00BF00BF00BFCF
:10F9400000BF00BF00BF00BF00BF00BF00BF00BFBF
:10F9500000BF00BF00BF00BF00BF00BF00BF00BFAF
:10F9600000BF00BF00BF00BF00BF00BF00BF00BF9F
:10F9700000BF00BF00BF00BF00BF00BF00BF00BF8F
:10F9800000BF00BF00BF00BF00BF00BF00BF013B02
:10F99000C3D1019300BF04B0704700BF0024F4003E
:10F9A000F825002000B583B00190019B4FF47A72D6
:10F9B00002FB03F31846FFF7A5FF00BF03B05DF895
:10F9C00004FB82B003468DF807309DF80730012B09
:10F9D00003D0022B03D0002B02E000BF00E000BFE9
:10F9E00000BF02B07047000000B585B00190019BD8
:10F9F0001B788DF80F30294A9DF80F3013709DF851
:10FA00000F30062B40D801A252F823F029FA01004A
:10FA10004DFA010057FA010061FA01006BFA01008A
:10FA200075FA01007FFA0100019B1A791C4B1A70CC
:10FA3000019B5A881B4B1A801A4B1B881A46184B7D
:10FA40001B780021184811F05DF922E001211748C8
:10FA500011F058F91DE00221154811F053F918E092
:10FA60000321144811F04EF913E00421124811F05B
:10FA700049F90EE00521114811F044F909E0062189
:10FA80000F4811F03FF904E00E49032008F0FEF89A
:10FA900000BF00BF05B05DF804FB00BF24270020B5
:10FAA0002027002022270020581F03008C1F03005E
:10FAB000B41F0300E01F03000C20030040200300DC
:10FAC00084200300B420030010B507F091FB034627
:10FAD00018460FF08AFE08A3D3E9002310F026F998
:10FAE00003460C46184621460FF0B7FE034618465B
:10FAF00010BD00BFAFF30080FCA9F1D24D624040C1
:10FB000082B001900091009A019B9A4205D2009A1E
:10FB1000019BD31A03F1FA6302E0009A019BD31A06
:10FB2000184602B0704786B00190009100238DF80E
:10FB30001730002304931AE0049BC3F105031A460F
:10FB4000019B13441B788DF80F30049B009A1344DB
:10FB50001B789DF80F209A4203D101238DF81730AE
:10FB600002E000238DF81730049B01330493049BBB
:10FB7000052BE1DD9DF81730184606B0704700B53B
:10FB800085B00190009100238DF80F300622019975
:10FB9000009811F05FF80346002B03D101238DF884
:10FBA0000F300DE000990198FFF7BDFF0346002BD1
:10FBB00003D001238DF80F3002E000238DF80F30C1
:10FBC0009DF80F30184605B05DF804FB00B58DB008
:10FBD000039002910192039B5B68099300238DF8C7
:10FBE0002E3004AB0C220021184611F030FD00230A
:10FBF0000A931CE0039B1A680A9B4FF48C7101FB6B
:10FC000003F313448033089302990898FFF7B7FF72
:10FC100003468DF82E309DF82E30002B04D0019B2A
:10FC20000A9A1A60012320E00A9B01330A930A9A78
:10FC3000099B9A42DEDB9DF82E3083F00103DBB294
:10FC4000002B05D0019B4FF0FF321A6000230CE01F
:10FC5000079BB3F1FF3F03D100238DF82F3002E063
:10FC600001238DF82F309DF82F3018460DB05DF828
:10FC700004FB00B58FB0039002910192039B5B6877
:10FC8000099300238DF8323000238DF8313004AB16
:10FC90000C220021184611F0DAFC00230B934BE0F4
:10FCA00000238DF82B30039B1A680B9B4FF48C714B
:10FCB00001FB03F313440893039B1A680B9B4FF457
:10FCC0008C7101FB03F31344863307930299089860
:10FCD00011F012FD0346002B02D101238DF83230C2
:10FCE0000299079811F008FD0346002B02D1012369
:10FCF0008DF831309DF83130002B03D19DF8323032
:10FD0000002B02D001238DF82B3004AB03F1080245
:10FD100004AB191D04A801230FF042FC0346002B7D
:10FD200007D1049A059B591C059113449DF82B207B
:10FD30001A700B9B01330B930B9A099B9A42AFDB12
:10FD400000230D9308E0049A0D9B13441B78002BAD
:10FD500007D10D9B01330D93059B0D9A9A42F2DB5F
:10FD600000E000BF059B0D9A9A4202D14FF0FF338D
:10FD70000D93019B0D9A1A600D9BB3F1FF3F03D1C8
:10FD800000238DF8333002E001238DF83330049BDB
:10FD9000184610F0EFFE04AB0C220021184611F0BB
:10FDA00056FC9DF8333018460FB05DF804FB000098
:10FDB00000B587B0019000910023059300238DF8D2
:10FDC0000F301949019811F027F9049022E00098AA
:10FDD000009B191D009B03F1080204230FF0E0FBB8
:10FDE0000346002B0AD1009B1A68009B5B68581CD5
:10FDF000009948609B001344049A1A600A49002045
:10FE000011F00AF904909DF80F30002B06D1059BE4
:10FE100001330593049B002BD9D100E000BF059B63
:10FE2000184607B05DF804FB4822030000B585B012
:10FE300001901D49019811F05FFC0346002B02D18F
:10FE4000012303932AE01949019811F055FC034658
:10FE5000002B02D10223039320E01549019811F0F1
:10FE60004BFC0346002B02D10323039316E01149F8
:10FE7000019811F041FC0346002B02D104230393A7
:10FE80000CE00D49019811F037FC0346002B02D11C
:10FE90000523039302E04FF0FF330393039B1846BF
:10FEA00005B05DF804FB00BF4C22030054220300A0
:10FEB0005C2203006422030068220300F0B5F5B061
:10FEC0000BAB18600AAB19600DF126031A800023F2
:10FED000739374E052AB80220021184611F0B7FBF7
:10FEE0000AAB1B681A68739B4FF48C7101FB03F318
:10FEF00013440CAA104619464FF48C731A4611F09D
:10FF00007DFB0CAB93F8803019460CAB93F8813035
:10FF100018460CAB93F882301C460CAB93F8833038
:10FF20001D460CAB93F884301E460CAB93F885301D
:10FF30001F460CABD3F808310CAA0693059704961C
:10FF400003950294019000911346214A002100205C
:10FF500011F018F8034672930CAB93F880309C466E
:10FF60000CAB93F8813019460CAB93F882301C46E9
:10FF70000CAB93F883301D460CAB93F884301E46CF
:10FF80000CAB93F885301F460CABD3F808310CAAA4
:10FF900052A8059304970396029501940091634635
:10FFA0000B4911F003F8729B9BB201339AB252A92C
:10FFB0000BAB186804F034F8739B013373930DF1A5
:10FFC00026031B88739A9A4284DB00BF75B0F0BD8C
:10FFD0006C22030000B58FB0039002911346ADF878
:10FFE0000630029B5B680D930D9B002B12DC0F4BC0
:10FFF0000C9304AB0C99184610F0D8FF0C9811F034
:020000022000DC
:10000000A2FB03469AB204AB1946039804F008F821
:10001000002307E0BDF806301A4602990398FFF75F
:100020004DFF002318460FB05DF804FB9422030037
:1000300000B585B001900091019B0393009B029352
:10004000039B1A68029B1B681946104611F054FB6B
:100050000346184605B05DF804FB000000B58BB000
:1000600003900291029B09931A2308930D4B0822D7
:1000700008990D4810F066FE05AB00221A605A6020
:10008000099B059305A8074B00930823089A064986
:1000900010F01BFC0790079B1B7918460BB05DF80E
:1000A00004FB00BF310002000826002070B5ADF54A
:1000B0002C7D044608A80160114607AA13600DF1C3
:1000C000270322461A700DF126030A461A700DF115
:1000D00027031B780F2B0AD908AB1B68002B06DA05
:1000E00008AB1968A74810F00DFE07230BE30023A7
:1000F000AB93A54B1A6808AB1B684FF48C7101FBDE
:1001000003F31344AA930DF127031B78182B00F275
:10011000F98201A252F823F07D0102009901020048
:10012000EB010200EF010200450202004902020059
:100130004D020200810102008501020089010200D6
:100140008D0102009101020095010200510202009E
:10015000550202004102020059020200A5030200FA
:1001600099020200470302007704020029050200F9
:10017000DB05020067060200C90602000023C2E296
:100180000023C0E20023BEE20023BCE20023BAE267
:100190000023B8E20023B6E22AAB4FF4F872002144
:1001A000184611F054FA794B1B881A46784B1B7885
:1001B00000931346774A0021002010F0E3FE034627
:1001C000AB93724B1B881A46714B1B782AA8714956
:1001D00010F0ECFEAB9B9BB201339AB22AAB1946EE
:1001E000B09803F01DFF00238DE200238BE22AABC1
:1001F0004FF4F8720021184611F029FA634B1B885E
:100200001A46634B1B7800931346624A0021002074
:1002100010F0B8FE0346AB935C4B1B881A465C4B50
:100220001B782AA85B4910F0C1FEAB9B9BB201333F
:100230009AB22AAB1946B09803F0F2FE002362E2AC
:10024000002360E200235EE200235CE200235AE226
:10025000002358E2002356E22AAB4FF4F872002143
:10026000184611F0F4F9AA9B4B4A0021002010F027
:1002700089FE0346AB93AA9A2AAB4749184610F069
:1002800095FEAB9B9BB201339AB22AAB1946B0984C
:1002900003F0C6FE002336E22AAB4FF4F8720021C9
:1002A000184611F0D4F9AA9B93F880301D46AA9BFA
:1002B00093F881301A46AA9B93F882301946AA9B7C
:1002C00093F883301846AA9B93F884301C46AA9B67
:1002D00093F88530049303940290019100922B4689
:1002E0002E4A0021002010F04DFE0346AB93AA9B3E
:1002F00093F880301D46AA9B93F881301E46AA9B36
:1003000093F882301A46AA9B93F883301946AA9B29
:1003100093F884301C46AA9B93F885302AA803934F
:1003200002940191009233462A461C4910F03EFE89
:10033000AB9B9BB201339AB22AAB1946B09803F03B
:100340006FFE0023DFE12AAB4FF4F872002118465C
:1003500011F07DF9124A0021002010F013FE03462F
:10036000AB932AAB0E49184610F020FEAB9B9BB214
:1003700001339AB22AAB1946B09803F051FE00231C
:10038000C1E100BFA82203002C2700202227002063
:1003900020270020042303004023030074230300CC
:1003A000C02303000DF126031B78002B40D00AABBD
:1003B00080220021184611F04AF9AA9B03F1860217
:1003C0000AAB1146184611F075F9AA9B86338022B4
:1003D0000021184611F03BF9AA9B03F1860207ABF6
:1003E0001968104611F066F92AAB4FF4F872002133
:1003F000184611F02CF9AA9B86330AAA00931346DB
:10040000A84A0021002010F0BDFD0346AB93AA9B33
:1004100086330AAA2AA8A34910F0C8FDAB9B9BB259
:1004200001339AB22AAB1946B09803F0F9FD20E0E7
:100430002AAB4FF4F8720021184611F008F9AA9B74
:100440008633994A0021002010F09CFD0346AB93AF
:10045000AA9B03F186022AAB9349184610F0A6FD29
:10046000AB9B9BB201339AB22AAB1946B09803F00A
:10047000D7FD002347E10DF126031B78002B2FD079
:10048000AA9BD3F80831A99307AB0A220021186868
:1004900010F0F8FDA890AA9BA89AC3F808212AABEF
:1004A0004FF4F8720021184611F0D1F8A89B009380
:1004B000A99B7E4A0021002010F064FD0346AB9307
:1004C0002AA8A89BA99A794910F070FDAB9B9BB212
:1004D00001339AB22AAB1946B09803F0A1FD21E08E
:1004E0002AAB4FF4F8720021184611F0B0F8AA9B1D
:1004F000D3F808316E4A0021002010F043FD034676
:10050000AB93AA9BD3F808212AAB6949184610F08F
:100510004DFDAB9B9BB201339AB22AAB1946B09802
:1005200003F07EFD0023EEE00DF126031B78002B87
:100530002FD0AA9BD3F81031A79307AB0A22002132
:10054000186810F09FFDA690AA9BA69AC3F81021E8
:100550002AAB4FF4F8720021184611F078F8A69BE8
:100560000093A79B534A0021002010F00BFD034687
:10057000AB932AA8A69BA79A4E4910F017FDAB9BF8
:100580009BB201339AB22AAB1946B09803F048FDEA
:1005900021E02AAB4FF4F8720021184611F057F809
:1005A000AA9BD3F81031444A0021002010F0EAFC45
:1005B0000346AB93AA9BD3F810212AAB3E491846B9
:1005C00010F0F4FCAB9B9BB201339AB22AAB1946F4
:1005D000B09803F025FD002395E00DF126031B786C
:1005E000002B1CD02AAB4FF4F8720021184611F0F2
:1005F0002EF8324A0021002010F0C4FC0346AB93D1
:100600002AAB2E49184610F0D1FCAB9B9BB20133AC
:100610009AB22AAB1946B09803F002FD21E02AAB4A
:100620004FF4F8720021184611F011F8AA9BD3F884
:100630001031234A0021002010F0A4FC0346AB93A4
:10064000AA9BD3F810212AAB1D49184610F0AEFC26
:10065000AB9B9BB201339AB22AAB1946B09803F018
:10066000DFFC00234FE02AAB4FF4F872002118465C
:1006700010F0EDFF134A0021002010F083FC034628
:10068000AB932AAB0F49184610F090FCAB9B9BB282
:1006900001339AB22AAB1946B09803F0C1FC00238B
:1006A00031E000BF0424030044240300702403004D
:1006B000B4240300E8240300302503006825030068
:1006C000C82503003C2603002AAB4FF4F872002132
:1006D000184610F0BCFF0E4A0021002010F052FC1A
:1006E0000346AB932AAB0A49184610F05FFCAB9B5C
:1006F0009BB201339AB22AAB1946B09803F090FC32
:10070000002300E0002318460DF52C7D70BD00BFCE
:100710003C26030000B5ADF58B5D83B00AAB1C3BF6
:10072000186002AB19606FF001030DF58B5202F1F6
:100730000402136000230DF58A5202F11B021370AC
:1007400000230DF58A5202F11A02137000230DF5F1
:100750008B5202F10302137052AB4FF4805200210E
:10076000184610F074FF52AB083B062200211846D1
:1007700010F06DFF52AB143B0C220021184610F014
:1007800066FF52AB143B02AA19461068FFF710FB34
:100790000DF58A5303F11403186052AB143B1B6828
:1007A0001B681846FFF742FB0DF58A5303F110034F
:1007B00018600DF58A5303F110031B68002B0EDA45
:1007C00052AB143B1B68184610F0D4F952AB143BE3
:1007D0000C220021184610F03AFF0B23DBE10DF547
:1007E0008A5303F110031B68032B17D1BC4B1B6802
:1007F0009AB20AAB1C3BBB491868FFF7EBFB52AB44
:10080000143B1B68184610F0B5F952AB143B0C2290
:100810000021184610F01BFF0023BCE10DF58A53A0
:1008200003F110031B68012B06D00DF58A5303F169
:1008300010031B68022B4AD152AB143B1B680433D4
:100840001A6852AB1146184610F034FF00230DF51C
:100850008A5202F11C02136031E052AB143B1A6859
:100860000DF58A5303F11C031B6802339B001344EC
:100870001B6810220021184610F004FC03460DF5F9
:100880008A5202F10E0213800DF58A5303F10E0312
:100890001B88D9B252AB083B0DF58A5202F11C02FB
:1008A000126813440A461A700DF58A5303F11C03AB
:1008B0001B6801330DF58A5202F11C0213600DF51D
:1008C0008A5303F11C031B68052BC6DD69E00DF597
:1008D0008A5303F110031B68042B06D00DF58A53CD
:1008E00003F110031B68052B5BD152AB143B1B6853
:1008F00004331A680AAB1C3B11461868FFF7AEFBBD
:1009000003460DF58B5202F1030213700DF58B5364
:1009100003F103031B780F2B43D952AB143B1B6825
:100920000833196852AB183B1A466E48FFF7A1F915
:100930000346002B08D052AB183B1B680DF58B52B9
:1009400002F1040213602CE052AB143B1B68083325
:10095000196852AB1C3B1A466248FFF737F9034649
:10096000002B08D052AB1C3B1B680DF58B5202F1DB
:100970000402136015E04FF0FF330DF58B5202F1C6
:100980000402136052AB143B1B68184610F0F2F8D7
:1009900052AB143B0C220021184610F058FE0723DE
:1009A000F9E00DF58A5303F110031B68042B12D1F3
:1009B0000DF58B5303F1030318780AAB1C3B1B683E
:1009C0000093494B00220DF58B5101F10401096898
:1009D000FFF76CFB1DE00DF58A5303F110031B6854
:1009E000052B16D152AB143B1B680C331A680DF55E
:1009F0008B5303F1030318780AAB1C3B1B6800936D
:100A0000134601220DF58B5101F104010968FFF72E
:100A10004DFB0DF58A5303F110031B68012B69D1BF
:100A20000AAB143B4FF48C720021184610F00FFEF5
:100A300052AA0AAB143B1146184610F03BFE52ABCB
:100A4000083B1A780AAB143B83F8802052AB083B72
:100A50005A780AAB143B83F8812052AB083B9A7852
:100A60000AAB143B83F8822052AB083BDA780AAB1E
:100A7000143B83F8832052AB083B1A790AAB143B32
:100A800083F8842052AB083B5A790AAB143B83F8B5
:100A900085200AAB143B6FF04502C3F80821002300
:100AA00000934FF48C73114A11490E480EF0DEFD8D
:100AB0000346002B0AD10B4B1A680AAB143B1046B5
:100AC00019464FF48C731A4610F098FD054B5B687D
:100AD0000133044A5360034B5B68014A13604CE0E6
:100AE0003C2700202C27002060260300342700200C
:100AF000302700200DF58A5303F110031B68022BE9
:100B00003BD100230DF58A5202F1080213600DF566
:100B10008A5202F1080252AB083B19462148FFF7FE
:100B200055F803460DF58A5202F10D0213700DF5CA
:100B30008A5303F10D031B78002B1AD00DF58A534D
:100B400003F108031B680122019200934FF48C7398
:100B5000154A164913480EF0B9FD124B5B68013B6C
:100B6000104A53604FF48C730F4A10490D480EF031
:100B700048FD0C4B5B680E4A136052AB143B1B687C
:100B800018460FF0F7FF52AB143B0C220021184619
:100B900010F05DFD002318460DF58B5D03B05DF888
:100BA00004FB00BF2C270020342700203027002022
:100BB0003C27002000B589B00190019B04330793C6
:100BC000079B043306932E4B1B78002B03D02D4933
:100BD000032007F05BF8079B04332B4A13602A4B72
:100BE0001B680133294A1360274B1B6893F90E30A9
:100BF0000593264B1B6802AA19462548FEF7E6FF17
:100C000003468DF813309DF81330002B2ED0204B67
:100C10001A68029B19464FF48C7303FB01F31344CB
:100C20000393039B059AC3F80C21039BD3F814315B
:100C30005A1C039BC3F81421164B1B78002B03D0BE
:100C40000599154810F05EF8144B01221A70039BA9
:100C5000D3F80831059A9A4204DB114B01221A702D
:100C6000012309E00E4B00221A7004E00B4B002216
:100C70001A700C4B05930023184609B05DF804FB6D
:100C80004827002068260300282700203827002056
:100C90002C27002049270020942603004B27002002
:100CA0004A270020F0D8FFFF10B59CB00390039BAB
:100CB00004331B93CC4B1B68002B03D1CB4B1B681D
:100CC000CB4A13600EF070F90246CA4B1A60C94B4A
:100CD0001B68184610F0CAFB0246C74B1A60C64B89
:100CE0001A68C34B1B68D31A18460EF067FDBCA3E5
:100CF000D3E900230FF01AF803460C4618462146A4
:100D00000EF0DDFD0246BD4B1A60BC4BD3ED007A00
:100D1000B7EE007AF4EEC77AF1EE10FA5FDBB84B6B
:100D20001B78002B57D0B44B1B681846B34BD3ED40
:100D3000007AF5EEC07AF1EE10FA0BD5AF4BD3ED99
:100D4000007ABFEE007AF4EEC77AF1EE10FA01DD18
:100D5000AC4A00E0AC4AA94BD3ED007AFDEEE77A4D
:100D600017EE901AA54BD3ED007AF5EEC07AF1EEAE
:100D700010FA14DDA14B93ED007AA04BD3ED007A6D
:100D8000FDEEE77AF8EEE77A77EE677A9FED9F7AE5
:100D900067EE877AFDEEE77A17EE903A13E0974B0D
:100DA000D3ED007AFDEEE77AB8EEE77A934BD3ED18
:100DB000007A77EE677A9FED957A67EE877AFDEE97
:100DC000E77A17EE903A0193009113460246904954
:100DD000032006F0B0FF884B1B68854A1360039B15
:100DE0001B88013B562B00F25D8201A252F823F0D2
:100DF000E3110200A5120200A5120200A5120200D2
:100E0000A5120200A5120200A5120200A5120200FE
:100E1000A5120200A5120200A5120200A5120200EE
:100E2000A5120200A5120200A51202004D0F020039
:100E3000690F0200A51202000D110200A5120200A6
:100E4000A5120200A5120200A5120200A5120200BE
:100E5000A5120200A5120200A5120200A5120200AE
:100E6000850F0200A5120200A5120200A5120200C1
:100E700037110200A5120200A5120200A5120200FD
:100E8000A5120200A5120200A5120200A51202007E
:100E9000A5120200A5120200A5120200A51202006E
:100EA000A5120200A5120200A5120200A51202005E
:100EB000A5120200A5120200A5120200A51202004E
:100EC000A5120200A5120200A5120200A51202003E
:100ED000A5120200A512020097110200A51202003D
:100EE000A5120200A5120200A5120200A51202001E
:100EF000A5120200A5120200A5120200A51202000E
:100F0000A5120200A5120200A5120200A5120200FD
:100F1000A5120200A5120200A5120200A5120200ED
:100F2000A5120200A5120200A5120200A5120200DD
:100F3000091202006D110200A5120200A5120200A2
:100F4000A5120200BD110200A5120200039B9A889F
:100F5000304B1A802A4B1B78002B00F090812E49D1
:100F6000032006F093FE8AE12A4B4FF6FF721A80A7
:100F7000234B1B78002B00F084812849032006F0C6
:100F800085FE7EE100238DF86B30FEF79DFD199004
:100F9000234B1B6819991846FEF7B2FD1890189B51
:100FA00007EE903AB8EE677ADFED1E6AC7EE267A52
:100FB000CDED177A1A4A199B1360DDED177AF5EE1D
:100FC000C07AF1EE10FA2FD5DDED177ABFEE007A78
:100FD000F4EEC77AF1EE10FA26DD0A4925E000BFEB
:100FE0000000000000AAAE4040270020502700204B
:100FF0005827002060270020542700204C2700207D
:1010000048270020C4260300C82603000000C84269
:10101000CC260300FC250020242703003C270300E6
:101020005C27002000007A44A249DDED177AFDEE2E
:10103000E76ADDED177AF5EEC07AF1EE10FA10DD11
:10104000DDED177AFDEEE77AF8EEE77A9DED177A97
:1010500077EE677A9FED987A67EE877AFDEEE77A0A
:101060000FE0DDED177AFDEEE77AB8EEE77ADDED19
:10107000177A77EE677A9FED907A67EE877AFDEEC2
:10108000E77A17EE903A16EE902A8C480FF03AFE67
:101090008B4B1B68002B32DD0398FFF78BFD03465B
:1010A0008DF86B309DF86B30002B0FD0854B0022F4
:1010B0001A60854B00221A70844B1B78002B00F0BD
:1010C000E2808349032006F0E1FDDCE07D4B1B68F4
:1010D00001337C4A13607B4B1A687E4B1B689A4233
:1010E000C0F2D180784B01221A70784B1B78002B0C
:1010F00000F0C9807849032006F0C8FDC3E0714BB9
:1011000000221A60704B01221A70BCE0734B1888E1
:10111000002300228521FEF7D9FB1690169B15931C
:10112000159B002B00F0B1806D4A40F239311598C3
:1011300005F02AF8A9E00DAB08220021184610F0AE
:1011400086FA039B9B880DA900221846FEF7C6FB72
:101150001690169B1493149B002B00F09880604A05
:1011600040F24231149805F00FF890E05B4B18887C
:10117000002300220021FEF7B9FB1690169B139363
:10118000139B002B00F08580554A4FF45271139841
:1011900004F0FAFF7DE0039B9B8813211846FEF7BD
:1011A00089FB1690169B1293129B002B73D04C4A0E
:1011B00040F24E31129804F0E7FF6CE0039B9B88ED
:1011C00013211846FEF776FB1690169B1193119B80
:1011D000002B62D0424A4FF45571119804F0D4FFAD
:1011E0005BE0039B9B8800211846FEF787FB169067
:1011F000169B1093109B002B51D0394A40F25A3164
:10120000109804F0C1FF4AE0039B09AC063318684C
:1012100059689A68DB680FC49DF82430002B40D0D1
:101220009DF82C30042B07D09DF82C30062B03D0D2
:101230009DF82C30052B34D19DF82430022B03D19E
:1012400002238DF8143002E001238DF814304FF49E
:10125000C173ADF81830039B9B8805AA1146184648
:10126000FEF740FB1690169B0F930F9B002B18D098
:101270001B4A40F26E310F9804F086FF11E000BF68
:1012800010E000BF0EE000BF0CE000BF0AE000BFAE
:1012900008E000BF06E000BF04E000BF02E000BFBE
:1012A00000E000BF0F4B1B6801330E4A136000BF04
:1012B0001CB010BDC82603000000C842542703001C
:1012C0003C27002044270020042600204827002037
:1012D000742703000026002090270300FC2500202F
:1012E000AC2703004027002000B585B00190019B8A
:1012F0001B78012B53D0022B45D0002B5BD1314BF7
:101300001B781A46304B1344184606F00DF92D4B46
:101310001B780133DAB22B4B1A702C49032006F0EC
:10132000B5FC284B1B78013B274AD35C0A2B06D01F
:10133000244B1B789AB2264B1B889A423DD32549F1
:10134000032006F0A3FC1F4B1B789BB21A461E49D4
:10135000214802F065FE0390039B082B0CD0039BF1
:10136000112B09D0039B0293029B002B04D01B4A34
:101370005C21029804F008FF039B112BE3D0114B72
:1013800000221A7019E01649012007F0F1FE019BB6
:101390005B68124A6621184604F0F6FE0EE010491A
:1013A000012007F0E5FE019B5B680C4A6B211846A3
:1013B00004F0EAFE02E000BF00E000BF00BF05B09D
:1013C0005DF804FBF0270020F4270020C427030069
:1013D000DC26002000280300642700202C280300BE
:1013E000441F030030B58DB0134B04AC1D460FCD28
:1013F0000FC495E8030084E80300104B00934FF4FA
:10140000807301930E4B02934FF4807303936946EC
:1014100004A807230B4A06F019F80B900B9B0A93BC
:101420000A9B002B04D0084A83210A9804F0ACFEE2
:1014300000BF0DB030BD00BF44280300902800203D
:1014400090290020E91202002C28030000B583B087
:101450000848FEF73FFA0190019B0093009B002B88
:1014600004D0054A8B21009804F08EFE00BF03B023
:101470005DF804FB2C2A03002C28030000B589B07A
:10148000039002911346ADF806302449032006F07C
:10149000FDFB02990398FFF73DF90690002307939F
:1014A00024E0029A079B13441B78184606F058F86C
:1014B000069000230693069B002B11D0069B112B50
:1014C0000ED0069A1649012006F0F1FB069B059303
:1014D000059B002B04D0134AF621059804F054FE16
:1014E000069B112BDDD0079B01330793BDF8063017
:1014F000079A9A42D5D3BDF80630013B029A1344AD
:101500001B780D2B06D100BF0A2006F029F80346F0
:10151000112BF9D000BF09B05DF804FB5C28030073
:10152000A02803002C28030000B587B09DF80030E8
:10153000012262F303038DF800309DF80030012290
:1015400062F307138DF800301E4810F0FCF80346D4
:101550009AB26B461B491846FEF7B4F90590059BF5
:101560000493049B002B05D0174A4FF4877104980D
:1015700004F00AFE01AB08220021184610F067F8BB
:101580001023ADF804303C23ADF806300023ADF84D
:1015900008304FF4C873ADF80A3001AB1846FEF7B7
:1015A0008DF90590059B0393039B002B05D0064AFC
:1015B00040F21711039804F0E7FD00BF07B05DF893
:1015C00004FB00BFD82803002C28030000B585B019
:1015D00001AB04220021184610F039F80D4B01939D
:1015E00001AB19460C4802F0C3FC0390039B029325
:1015F000029B002B05D0094A40F22711029804F003
:10160000C3FD0749032006F041FB00BF05B05DF8AC
:1016100004FB00BF7D140200642700202C28030077
:10162000E428030000B585B00190019B1B78002BD6
:1016300011D10B4B1B883B211846FEF73BF9039059
:10164000039B0293029B002B05D0064A4FF49F7127
:10165000029804F099FD00BF05B05DF804FB00BFDF
:10166000FC2500202C28030000B583B00190074919
:10167000012007F07DFD064A4FF4A571019804F0A2
:1016800083FD00BF03B05DF804FB00BF441F0300EF
:101690002C28030000B58BB001AB1C22002118469A
:1016A0000FF0D5FF002301934FF4203302934FF442
:1016B0007023039303238DF810300023ADF812300C
:1016C00000238DF814300C4B06930C4B079301ABA1
:1016D000184601F049FE0990099B0893089B002BCE
:1016E00005D0074A40F26D11089804F04DFD00BF87
:1016F0000BB05DF804FB00BF25160200691602005E
:101700002C28030082B003468DF807309DF807307F
:10171000002B01D0032B00E000BF00BF02B07047D8
:1017200000B583B00190019801F050FF01990A487B
:1017300002F0FAF90199094802F0ECFB0198FFF771
:10174000B3FA019801F074FD019800F0C5FB00BFE9
:1017500003B05DF804FB00BF802700206427002051
:1017600000B58FB0554B1B68049304A80023D82202
:10177000534906F01BFE0D900D9B0C930C9B002B08
:1017800005D0504A40F2AD110C9804F0FDFC002346
:10179000039303AB184606F0A9FE0B900B9B0A932C
:1017A0000A9B002B05D0474A4FF4D9710A9804F0E0
:1017B000EBFC6B460C22002118460FF048FF01237A
:1017C0008DF8003000238DF8013000238DF80230B1
:1017D000039A6B4619464020FEF78CF80B900B9B42
:1017E0000993099B002B05D0364A40F2BD11099898
:1017F00004F0CAFC6B460C22002118460FF027FFAC
:1018000001238DF800309E23ADF80230039A6B4619
:1018100019462320FEF76EF80B900B9B0893089B4C
:10182000002B05D0274A4FF4E271089804F0ACFC75
:101830006B460C22002118460FF009FF01238DF89A
:1018400000304FF4A073ADF8043001238DF802305E
:10185000039A6B4619462020FEF74CF80B900B9B21
:101860000793079B002B05D0164A4FF4E6710798A3
:1018700004F08AFC03AB184606F048FE0B900B9B65
:101880000693069B002B05D00E4A4FF4E87106988C
:1018900004F07AFC0C4806F0E1FD0B900B9B0593DD
:1018A000059B002B05D0074A4FF4EA71059804F018
:1018B0006BFC00BF0FB05DF804FB00BF14290300F0
:1018C000902A00202C2803002117020000B583B0C5
:1018D00001900091009B5A880E4B1B889A4214D1AC
:1018E000009B1B8840F6772293420ED1009B9B8879
:1018F000033B9AB2084B1A80074B1B881A46064BCB
:101900001B880649032006F0E6F900BF03B05DF826
:1019100004FB00BFFC250020DC2600201829030062
:1019200000B585B01149124802F0B6F80390039B48
:101930000293029B002B05D00E4A40F2122102981E
:1019400004F022FC40210A4802F0D1F80390039BE6
:101950000193019B002B05D0064A40F21521019806
:1019600004F012FC00BF05B05DF804FBCD180200C6
:10197000802700202C28030000B5ABB019AB3C2217
:10198000002118460FF063FE02238DF86430002317
:101990008DF8663005238DF867300AAB3C220021B4
:1019A00018460FF054FE0123ADF83830144B0F9356
:1019B00002AB2022002118460FF049FE01238DF8CA
:1019C0000B3040230693B423079302AA0AA919A84F
:1019D000002300930B4B01F03DFA2990299B28939B
:1019E000289B002B05D0084A40F23721289804F0A4
:1019F000CBFB012001F020FA00BF2BB05DF804FB07
:101A0000D8260020051702002C28030000B587B057
:101A1000F1EE103A0193019B23F09F030293029B86
:101A2000E1EE103AF1EE103A03932620FDF7A2FE04
:101A3000FDF7CAFE0590059B0493049B002B04D080
:101A4000044A3721049804F09FFB00BF07B05DF8FB
:101A500004FB00BF4029030000B583B0002006F05E
:101A6000BFF80190019B0093009B002B04D0044A17
:101A70007F21009804F088FB00BF03B05DF804FBF1
:101A80004029030010B58AB09C4B00221A609C4B81
:101A900000221A609B4B1B6818460FF06BF80C2253
:101AA000002198480FF0D3FD0C22002195480FF03B
:101AB000CEFD954A3C21082004F036FC0990099B94
:101AC0000893089B002B04D0904AD521089804F075
:101AD0005BFB05F0D5FA0790079B0693069B002B4E
:101AE00004D08A4AD721069804F04EFBFFF77AFC0F
:101AF000FFF7B2FFFFF734FEFFF716FDFFF710FF09
:101B0000FFF764FDFFF738FFFFF7C4FD80490320AE
:101B100006F0BCF8032001F0A1FA0790079B05939B
:101B2000059B002B04D0794AE721059804F02CFB93
:101B3000FFF78CFC0DF02CFC02230321754A18469C
:101B40000DF0C6FC74480DF0A9FB744A7449754841
:101B50000DF09EFA6F4B9A78734B1A7003210B208D
:101B6000FDF775FE022100200AF070FF022101201E
:101B70000AF06CFF022102200AF068FF0221032014
:101B80000AF064FF0DF010FA049004980FF06EFC58
:101B90000246664B1A604FF47A70FDF703FFFDF7BB
:101BA00093FF0246624B1A60624B4FF0FF321A609D
:101BB00004F080FC0B20FDF760FE0346002B0CBFF9
:101BC00001230023DBB21A465B4B1A605B490020FD
:101BD0000BF0EEF803905A4901200BF0E9F803905E
:101BE000584902200BF0E4F80390574903200BF00A
:101BF000DFF80390504B1B68012B25D1504B1B681D
:101C0000012B21D1484B1B78013B504A13605049AE
:101C1000012007F0ADFA474B1C68FDF755FF03465E
:101C200019462046FDF76CFF024641F288339A427E
:101C300038D94849012007F09BFA4FF47A70FDF734
:101C4000B1FEFDF7C5FD2DE03B4B1B68002B0DD110
:101C50003B4B1B68002B09D1334B1B7801333B4AAC
:101C600013603D49012007F083FA1BE0324B1B68EB
:101C7000012B13D1324B1B68002B0FD137490120A8
:101C800007F076FA4FF47A7300934FF4FA73052253
:101C9000322140F6C4100DF0BBFA03E030490120B8
:101CA00007F066FA2F4B1B78002B04D02E4900203A
:101CB00007F05EFA03E02D49002007F059FA234BA4
:101CC0001B68FE2B03DD184BFF221A700CE01F4B24
:101CD0001B68002B03DC144B00221A7004E01B4B22
:101CE0001B68DAB2104B1A700F4B1B781946094863
:101CF00008F0FFFC0790FFF789FE59E74027002016
:101D0000442700202C270020682B002040290300B6
:101D1000142A03009C270020C3F90100C8270020D3
:101D2000E9F90100E0930400DE260020502700209E
:101D30005C270020EC270020D4270020D827002093
:101D4000DC270020E0270020E4270020E8270020EF
:101D50004C1F03003C1F0300541F0300501F0300CF
:101D6000401F030004260020441F0300481F0300F7
:101D700084B001900B468DF8033013468DF8023085
:101D800000230393019B002B3CD19DF80230012BD3
:101D90000BD19DF80330012B04D1019BDBB20E3334
:101DA000DBB200E000238DF802309DF80330012BF8
:101DB00004D0022B0CD0002B15D01FE01449019A3F
:101DC00013465B0013440B449DF802201A701BE07D
:101DD0000F49019A13465B0013440B4401339DF8ED
:101DE00002201A7010E00A49019A13465B0013445E
:101DF0000B4402339DF802201A7005E00723039379
:101E000000BF01E007230393039B184604B070470B
:101E1000382F002000B583B0012200210020FFF7F9
:101E2000A7FF0190019B002B04D0019B072B01D041
:101E3000019B1CE0072202210120FFF799FF01907E
:101E4000019B002B04D0019B072B01D0019B0EE0CE
:101E5000042202210020FFF78BFF0190019B002B41
:101E600004D0019B072B01D0019B00E00023184602
:101E700003B05DF804FB00B583B00122022100200D
:101E8000FFF776FF0190019B002B04D0019B072BED
:101E900001D0019B1CE0072202210120FFF768FF0F
:101EA0000190019B002B04D0019B072B01D0019BCB
:101EB0000EE00A2200210020FFF75AFF0190019B4B
:101EC000002B04D0019B072B01D0019B00E00023D5
:101ED000184603B05DF804FB00B585B00190019B86
:101EE0001B88102B02D0112B18D02FE0194B1B6828
:101EF000002B0DD1FFF78EFF0390039B002B07D023
:101F0000154B1B68002B03D0134B1B680398984795
:101F1000104B1B6801330F4A136017E00D4B1B6811
:101F2000013B0C4A13600B4B1B68002B0DD1FFF7D4
:101F3000A2FF0390039B002B07D0074B1B68002BCD
:101F400003D0054B1B680398984700BF00BF05B03E
:101F50005DF804FB402F00203C2F00206DDF704710
:101F600000BF184672DF704700BF184679DF704720
:101F700000BF18467DDF704700BF184664DF70471A
:101F800000BF184682B003460091ADF80630BDF898
:101F90000630DAB2009B1A70BDF806301B0A9AB2FE
:101FA000009B0133D2B21A700223184602B0704768
:101FB00000B589B0039002911346ADF80630029B3C
:101FC0001B8803F10902BDF806309A4201D90C239F
:101FD00051E005AB1846FFF7C1FF0790079B002BA8
:101FE00001D0079B47E0029B1B881A46039B1344C2
:101FF00008221A70029B1B8801339AB2029B1A8036
:10200000029B1B881A46039B13441B221A70029BD7
:102010001B8801339AB2029B1A80029B1B881A46C6
:10202000039B981805AB0133062219460FF0E6FA18
:10203000029B1B8806339AB2029B1A809DF81430CB
:1020400023F00103DBB2002B07D1029B1B881A4649
:10205000039B134400221A7006E0029B1B881A4659
:10206000039B134401221A70029B1B8801339AB20E
:10207000029B1A800023184609B05DF804FB00B5E6
:1020800089B0039002910192ADF80230039B1B7856
:10209000012B05D1039B5B78002B01D1072389E03D
:1020A000019B1B889A1CBDF802309A420ED8039BF4
:1020B0001B78012B0CD1019B1B881A46039B5B7874
:1020C00013449A1CBDF802309A4201D90C2371E0E6
:1020D000019B1B88BDF80220D31A9BB2023BADF8CE
:1020E0001C30BDF81C30ADF81630019B1B88023344
:1020F000029A13440DF1160211461846FFF73AFFF3
:102100000690069B002B01D0069B53E0039B1B7897
:10211000022B09D1BDF81630BDF81C209A4203D31A
:1021200009238DF81F3017E008238DF81F30039B1B
:102130001B78012B0CD1039B5B789BB2BDF81C2054
:102140009A4205D3039B5B789BB2ADF8163003E04F
:10215000BDF81C30ADF81630BDF81630FE2B01D995
:102160000C2327E0BDF81630DAB2019B1B88194614
:10217000029B0B440132D2B21A70019B1B880133BF
:102180009AB2019B1A80019B1B881A46029B13443A
:102190009DF81F201A70019B1B8801339AB2019B86
:1021A0001A80019B1A88BDF8163013449AB2019B1D
:1021B0001A800023184609B05DF804FB00B587B00B
:1021C000039002911346ADF80630029B1B881A1D3E
:1021D000BDF806309A4201D90C2339E00DF1120303
:1021E0001846FFF7C3FE0590059B002B01D0059B09
:1021F0002EE0029B1B881A46039B134403221A708D
:10220000029B1B8801339AB2029B1A80029B1B8897
:102210001A46039B134419221A70029B1B88013330
:102220009AB2029B1A80BDF81220029B1B881946A5
:10223000039B0B4419461046FFF7A4FE03461946BC
:10224000029B1A888BB213449AB2029B1A80002315
:10225000184607B05DF804FB84B0029101921A465B
:1022600003468DF80F301346ADF80C30019B1B88E8
:10227000DA1CBDF80C309A4201D90C2328E0019BEE
:102280001B881A46029B134402221A70019B1B886A
:1022900001339AB2019B1A80019B1B881A46029B4C
:1022A000134401221A70019B1B8801339AB2019BCF
:1022B0001A80019B1B881A46029B13449DF80F202D
:1022C0001A70019B1B8801339AB2019B1A8000236C
:1022D000184604B0704784B0029101921A46034632
:1022E0008DF80F301346ADF80C30019B1B88DA1CBB
:1022F000BDF80C309A4201D90C2328E0019B1B88C1
:102300001A46029B134402221A70019B1B88013358
:102310009AB2019B1A80019B1B881A46029B1344A8
:102320000A221A70019B1B8801339AB2019B1A8002
:10233000019B1B881A46029B13449DF80F201A70BC
:10234000019B1B8801339AB2019B1A800023184617
:1023500004B0704700B58BB0039001930B468DF825
:102360000B3013468DF80A3000238DF823300C9B78
:102370001B88ADF82030002309936DE0039B5A6859
:10238000099B9B001A4404AB106818600DF11701FB
:1023900004AB00221846FFF7F1FD0790079B002BC6
:1023A00001D0079B7AE09DF817309DF80A209A42E9
:1023B0004FD19DF82330002B01D0002300E00223F1
:1023C0008DF81B300C9B1B881A469DF817301A4459
:1023D0009DF81B301A44BDF834309A4201DD0C23BD
:1023E0005CE09DF8233083F00103DBB2002B16D0B4
:1023F0000C9B1B8801339AB20C9B1A800C9B1B8888
:102400001A46019B13449DF80B201A700C9B1B88E5
:1024100001339AB20C9B1A8001238DF823300C9B58
:102420001B881A46019B1A440DF1170104AB18468C
:10243000FFF7A4FD0790079B002B01D0079B2DE021
:102440000C9B1A889DF817309BB213449AB20C9BD0
:102450001A80099B01330993039B1B881A46099B29
:1024600093428BDB9DF82330002B16D00C9B1A88EF
:10247000BDF82030D31A9BB2013BADF81830BDF83F
:102480001830FF2B01D90C2308E0BDF82030019A49
:102490001344BDF81820D2B21A70002318460BB0AE
:1024A0005DF804FB00B589B0059003930B468DF8E9
:1024B000133013468DF812309DF81310BDF82C30F0
:1024C00001930A9B0093039B02220598FFF742FFAA
:1024D0000790079B002B01D0079B12E09DF812107C
:1024E000BDF82C3001930A9B0093039B10220598A2
:1024F000FFF730FF0790079B002B01D0079B00E000
:102500000023184609B05DF804FB82B00190019BDE
:102510001B88052B0AD9019B1B88B3F5486F07D987
:10252000019B1B884FF6FF72934201D0072325E0E1
:10253000019B5B88052B0AD9019B5B88B3F5486F2B
:1025400007D9019B5B884FF6FF72934201D00723A6
:1025500014E0019B1B884FF6FF7293420DD0019B44
:102560005B884FF6FF72934207D0019B1A88019B4C
:102570005B889A4201D9072300E00023184602B085
:10258000704700B587B0039002910192ADF8023018
:10259000019B1B889A1DBDF802309A4201D90C2379
:1025A0004BE00398FFF7B1FF0590059B002B01D08E
:1025B000059B42E0019B1B881A46029B134405229F
:1025C0001A70019B1B8801339AB2019B1A80019BF0
:1025D0001B881A46029B134412221A70019B1B8807
:1025E00001339AB2019B1A80039B1A88019B1B88B6
:1025F0001946029B0B4419461046FFF7C3FC0346DD
:102600001946019B1A888BB213449AB2019B1A8017
:10261000039B5A88019B1B881946029B0B44194651
:102620001046FFF7AFFC03461946019B1A888BB290
:1026300013449AB2019B1A800023184607B05DF834
:1026400004FB00B587B0039002910192ADF802300F
:10265000039B9B8802330593019B1B881A46059BAD
:1026600013449A1CBDF802309A4201D90C2354E05D
:10267000059BFE2B01D90C234FE0059BDAB2019B91
:102680001B881946029B0B440132D2B21A70019B7F
:102690001B8801339AB2019B1A80019B1B881A4642
:1026A000029B1344FF221A70019B1B8801339AB2CC
:1026B000019B1A80039B1A88019B1B881946029B69
:1026C0000B4419461046FFF75DFC03461946019B73
:1026D0001A888BB213449AB2019B1A80039B9B8881
:1026E000002B19D0039B9B68002B01D1072314E01A
:1026F000019B1B881A46029B9818039B9968039BB1
:102700009B881A460EF07AFF019B1A88039B9B88D0
:1027100013449AB2019B1A800023184607B05DF853
:1027200004FB00B589B0039002910192ADF802302C
:10273000039B9B6A002B01D1072372E000238DF8D5
:102740001F3066E0039B996A9DF81F2013465B00CB
:1027500013449B000B440693069B9B88023305930E
:10276000059BFE2B01D90C235BE0059BDAB2019B94
:102770001B881946029B0B440132D2B21A70019B8E
:102780001B8801339AB2019B1A80019B1B881A4651
:10279000029B134416221A70019B1B8801339AB2C4
:1027A000019B1A80069B1A88019B1B881946029B75
:1027B0000B4419461046FFF7E5FB03461946019BFB
:1027C0001A888BB213449AB2019B1A80069B9B888D
:1027D000002B19D0069B9B68002B01D1072320E01A
:1027E000019B1B881A46029B9818069B9968069BBA
:1027F0009B881A460EF002FF019B1A88069B9B8855
:1028000013449AB2019B1A809DF81F3001338DF852
:102810001F30039B93F82C309DF81F209A4291D3D0
:102820000023184609B05DF804FB00B589B0059097
:102830000491039200230793039B1B88ADF81A3081
:10284000039B00221A80059B93F82D30002B0CD09F
:10285000BDF81A301A4603990498FFF7A9FB0790B0
:10286000079B002B01D0079BC4E0059B9B78002BA6
:102870000CD0BDF81A301A4603990498FFF79EFC55
:102880000790079B002B01D0079BB3E0059BDB78EB
:10289000002B0ED0059BDB7858B2BDF81A30039A96
:1028A0000499FFF7D9FC0790079B002B01D0079BE9
:1028B000A0E0059B5B68002B0FD0059B5B6893F93C
:1028C0000000BDF81A30039A0499FFF704FD079041
:1028D000079B002B01D0079B8CE0059B1B89002BDD
:1028E00012D0059B03F10800BDF81A300193039B39
:1028F0000093049B06220221FFF7D4FD0790079B5B
:10290000002B01D0079B75E0059B1B8A002B12D082
:10291000059B03F11000BDF81A300193039B00934F
:10292000049B07220321FFF7BDFD0790079B002BA7
:1029300001D0079B5EE0059B1B8B002B12D0059BF3
:1029400003F11800BDF81A300193039B0093049B18
:1029500015221421FFF7A6FD0790079B002B01D03D
:10296000079B47E0059B1B6A002B0DD0059B186A4F
:10297000BDF81A30039A0499FFF703FE0790079BEE
:10298000002B01D0079B35E0059B5B6A002B0DD027
:10299000059B586ABDF81A30039A0499FFF751FE57
:1029A0000790079B002B01D0079B23E0059B93F822
:1029B0002C30002B0CD0BDF81A30039A04990598DE
:1029C000FFF7AFFE0790079B002B01D0079B11E09C
:1029D000059B1B78002B0CD0BDF81A30039A049984
:1029E0000598FFF74CFB0790079B002B01D0079B36
:1029F00000E0079B184609B05DF804FB82B0019027
:102A0000019BDB7803F00403002B01D1072300E0D6
:102A10000023184602B0704782B00190019BDB781A
:102A2000002B01D0072300E00023184602B07047B6
:102A300000B597B0019000911F23ADF84A301F23D5
:102A4000ADF84830019B002B18D00198FFF7D6FF56
:102A50001390139B002B01D0139B3FE00DF14A0212
:102A60000AAB19460198FFF7E0FE1390139B002B69
:102A700001D0139B32E00AAB159304E000231593B9
:102A80000023ADF84A30009B002B17D00098FFF7C9
:102A9000C3FF1390139B002B01D0139B1EE012AABF
:102AA00002AB19460098FFF7C0FE1390139B002B52
:102AB00001D0139B12E002AB149304E000231493A3
:102AC0000023ADF84830BDF84A30D9B2BDF84830DF
:102AD000DBB2149A1598FFF745FA0346184617B06B
:102AE0005DF804FB73DF704700BF1846014B1B788D
:102AF000184670471A30002084B0019000230393D9
:102B00000AE0019A039B13441B78002B01D0012398
:102B100006E0039B01330393039B052BF1D90023AC
:102B2000184604B07047000082B003468DF80730A5
:102B30009DF807305A1C074B83FB02135910D3171B
:102B4000C91A0B469B000B44D11ACBB2184602B0EF
:102B5000704700BF6766666682B00190019BDB7BB1
:102B6000012B03D1019B9A88024B1A8000BF02B04F
:102B7000704700BF0C30002000B585B001900E4BAF
:102B800000221A70019B9A880C4B1B889A420ED126
:102B9000012000F063FA0390039B002B07D0084B41
:102BA0001B68002B03D0064B1B680398984700BF97
:102BB00005B05DF804FB00BF183000200C30002089
:102BC0001430002000B585B00190019B1B7A002BCA
:102BD00015D10D4B1B781846FFF7A6FF0346184684
:102BE00000F03CFA0390039B002B09D0074B1B68B5
:102BF000002B05D0054B1B680398984700E000BFE9
:102C000005B05DF804FB00BF472F00201430002002
:102C100000B583B001AB184604F0BAFB019B002B52
:102C200014BF01230023DBB2184603B05DF804FB98
:102C300000B585B003468DF807301E48FFF75CFFEE
:102C400003468DF80F309DF80730013B032B2BD83E
:102C500001A252F823F000BF692C02007D2C020073
:102C6000912C02009D2C0200134B5B78002B05D0A9
:102C70009DF80F30002B01D0012316E00E4B9B78FE
:102C8000002B05D09DF80F30002B01D002230CE063
:102C9000094BDB78002B01D0032306E0064B1B79A0
:102CA000002B01D0042300E00023184605B05DF896
:102CB00004FB00BF6D2F0020482F002082B0019040
:102CC000094B01221A70019B084A5A60019B01229C
:102CD0001A70019B00229A81019B00225A810023D5
:102CE000184602B0704700BF462F00206C2F00200E
:102CF00082B001900B4B02221A70019B0A4A5A6063
:102D0000019B01221A70094BDB689AB2019B9A81E0
:102D1000064B9B689AB2019B5A810023184602B069
:102D2000704700BF462F00206C2F0020482F002046
:102D300000B585B001901B4B1B699AB2019B5A816B
:102D4000184B5B699AB2019B9A81164B1B78002B3A
:102D50001FD0154B1B7883F00103DBB2002B18D07A
:102D6000FFF7C4FE0346002B13D0019B02221A7208
:102D70000E4B0422DA7000210C48FFF759FE039035
:102D8000039B002B01D0039B07E0094B05221A701F
:102D900002E0074B03221A700023184605B05DF8C5
:102DA00004FB00BF482F002018300020742F0020A3
:102DB000462F002000B585B001901B4B9B699AB24D
:102DC000019B5A81184BDB699AB2019B9A81164B81
:102DD0001B78002B1FD0154B1B7883F00103DBB24F
:102DE000002B18D0FFF782FE0346002B13D0019B67
:102DF00002221A720E4B0422DA7000210C48FFF7EF
:102E000017FE0390039B002B01D0039B07E0094BA7
:102E100006221A7002E0074B04221A70002318469B
:102E200005B05DF804FB00BF482F002018300020DB
:102E3000742F0020462F002082B003468DF8073003
:102E4000034A9DF80730137000BF02B0704700BFFF
:102E5000682F002030B589B0039002910192009351
:102E6000039B002B02D0019B002B01D10E23D5E048
:102E70006C4B01221A706C4B00221A706B4A019B3A
:102E800014461D460FCD0FC495E80F0084E80F00CF
:102E9000674B00221A70674A009B1360664A0C9BBE
:102EA0001360664B4FF6FF721A80072200216448B8
:102EB0000EF0CDFB3C22002162480EF0C8FB039BC4
:102EC0001A78604B1A70039B9A785E4B9A70039B3A
:102ED000DA785C4BDA70039B5A785A4B5A70594B2C
:102EE000039A1033103292E8030083E80300554B35
:102EF000039A0833083292E8030083E80300514B39
:102F0000039A1833183292E8030083E80300039B06
:102F10005B6A002B29D04B4B4B4A5A624A4B4B4AB7
:102F20009A60039B5A6A474B5B6A12881A80039B1C
:102F30005A6A444B5B6A92889A80002307930DE09B
:102F4000039B5B6A9A68079B134419783F4A079B67
:102F500013440A461A70079B01330793394B5B6A87
:102F60009B881A46079B9342EAD3039B9B6A002BDC
:102F700033D0374B374A9A60324B354A9A62314BDD
:102F80009B6A344A9A60039B9A6A2E4B9B6A92888A
:102F90009A80039B9A6A2B4B9B6A12881A800023A3
:102FA00006930DE0039B9B6A9A68069B134419786D
:102FB000284A069B13440A461A70069B013306935F
:102FC000204B9B6A9B881A46069B9342EAD3039B3D
:102FD00093F82C201B4B83F82C20039B1B6A002B9F
:102FE0000ED0184B1C4A1A62039B1A6A154B1B6AB7
:102FF00052885A80039B1A6A124B1B6A12881A80E5
:10300000039B5B68002B03D0039B5B680D4A5360F6
:1030100002990C48FFF70CFD0590059B184609B076
:1030200030BD00BF442F0020472F0020482F002034
:10303000682F002010300020143000200C300020B9
:103040006C2F0020742F0020B02F0020BC2F0020F8
:10305000DC2F0020E82F00200830002000B589B0C8
:1030600003468DF80730664B1B7883F00103DBB213
:10307000002B01D00823BEE0624A9DF80730137090
:10308000FFF7C6FD0346002B04D05F4B01221A70E8
:103090000023B0E0072200215C480EF0D8FA5C4B18
:1030A0005B78002B03D0574B1B78012B0FD0584B6C
:1030B0009B78002B03D0534B1B78012B07D0544B2C
:1030C0009B78002B12D04F4B1B78022B0ED1514B0B
:1030D0001B68002B07D0504B01221A704D4B1B6808
:1030E0000820984702E04C4B00221A709DF80730E8
:1030F0001846FFF79DFD03461A46424B1A70454B92
:103100001B68002B1DD03F4B1B78032B03D03D4B7E
:103110001B78042B15D13E4B1B78002B11D03F4B55
:103120001B7883F00103DBB2002B0AD03C4B00225A
:103130001A703C4B01221A70364B1B6807209847C7
:1031400002E0384B00221A7003AB1022002118460F
:103150000EF07DFA00238DF80C3000238DF814302A
:10316000284B1B78042B29D801A252F823F000BF6A
:10317000B531020085310200913102009D3102001B
:10318000A931020003AB1846FFF798FD079016E03F
:1031900003AB1846FFF7ACFD079010E003AB1846F1
:1031A000FFF7C6FD07900AE003AB1846FFF702FEE3
:1031B000079004E01C4B00221A7000E000BF114B86
:1031C0001B78002B0CD0194B1A7803AB114618460C
:1031D000FFF788FC0790079B002B01D0079B0AE0B4
:1031E0000C4B1B68002B05D00A4B1B680E4A12784B
:1031F000104698470023184609B05DF804FB00BF4D
:10320000442F0020472F0020452F00206C2F002046
:10321000482F002010300020732F0020183000208D
:103220001A30002019300020462F0020682F00207F
:1032300000B583B00190019B1B88112B07D01B2B7D
:1032400009D0102B0BD10198FFF786FC08E00198FC
:10325000FFF792FC04E00198FFF7B4FC00E000BF28
:1032600000BF03B05DF804FB75DF704700BF184670
:1032700076DF704700BF18467ADF704700BF1846F8
:103280007BDF704700BF184682B00190019B5A88CF
:10329000074B1B889A4207D3019B5A88044B5B88D3
:1032A0009A4201D8012300E00023184602B070477B
:1032B0003830002000B587B00190274B1B884FF6AF
:1032C000FF72934243D0254B1B780133DAB2234B74
:1032D0001A70234B1A7B214B1B789A4212D31E4B38
:1032E0001B8820491846FFF7BFFF0590059B002B60
:1032F0002DD01B4B9B69002B29D0194B9B6905983E
:10330000984724E0154B00221A70154B1B7C002BAC
:1033100011D0114B1B883B211846FFF7A9FF0490E1
:10332000049B002B07D00E4B9B69002B03D00C4B4A
:103330009B69049898470A4B5B69002B07D00023D0
:103340008DF80C30064B5B6903AA1046984700BF06
:1033500007B05DF804FB00BF423000204030002081
:103360001C3000203830002030B585B001901C4A58
:10337000019B14461D460FCD0FC495E8070084E855
:103380000700184B00221A70019B1B68002B0ED0FF
:10339000019B1A68144B1068516803C31248FFF769
:1033A0006BFF0390039B002B0AD0039B15E00E4894
:1033B000FFF766FF0390039B002B01D0039B0CE0FB
:1033C0000A4B4FF6FF721A80094B00221A70094A05
:1033D0000021094803F088FE0346184605B030BDB9
:1033E0001C3000206C30002038300020423000209B
:1033F00040300020B5320200342A030000B585B009
:103400002548FFF741FF034683F00103DBB2002BA1
:103410002ED0224B1B78002B0CD0214B5B69002B4C
:1034200032D000238DF804301D4B5B6901AA104691
:10343000984729E01B4B1B78002B03D1184B5B6886
:10344000039302E0164B9B680393174B00220399EA
:10345000184603F079FE0290029B002B14D0104B0B
:103460009B69002B10D00E4B9B69029898470BE08C
:103470000B4B5B69002B07D001238DF80030084B04
:103480005B696A4610469847044B00221A7000BFD9
:1034900005B05DF804FB00BF443000206C30002014
:1034A0001C300020403000204C30002000B583B09C
:1034B0000190019B9A880B4B1A800B4A019B103399
:1034C00093E8030082E80300084B00221A70084BBF
:1034D000DB89002B01D1FFF791FF00BF03B05DF83E
:1034E00004FB00BF42300020443000204030002068
:1034F0001C30002000B585B001900D4B4FF6FF72D7
:103500001A800C4B00221A700B4B184603F04EFE2B
:103510000390039B002B07D0084B9B69002B03D023
:10352000064B9B690398984700BF05B05DF804FB04
:1035300042300020403000204C3000201C30002061
:1035400000B585B00190019B06330393039B1A8855
:10355000134BDB899A421ED1039B5B89022B1AD144
:10356000039B0C33184600F066F80346002B02D08C
:10357000FFF744FF0FE00B4B184603F017FE0290D5
:10358000029B002B07D0064B9B69002B03D0044BFA
:103590009B690298984700BF05B05DF804FB00BF27
:1035A0001C3000204C30002000B583B00190064A4A
:1035B000019B083393E8030082E80300FFF71EFF36
:1035C00000BF03B05DF804FB4430002000B583B0B9
:1035D0000190019B1B88112B0DD0112B02DC102BAD
:1035E00005D014E0122B0ED0502B08D00FE001981C
:1035F000FFF75CFF0BE00198FFF77CFF07E0019805
:10360000FFF79EFF03E00198FFF7CEFF00BF00BF6A
:1036100003B05DF804FB82B00190019B1B781AB2E5
:10362000019B01331B781B021BB213431BB29BB2DD
:10363000184602B0704700B585B001900198FFF7B9
:10364000EAFF0346ADF80E30BDF80E3003F001037B
:10365000002B14BF01230023DBB2184605B05DF830
:1036600004FB000000B585B00190009100238DF8A7
:103670000F309DF80F305A1C8DF80F201A46019B11
:103680001344009A12781A709DF80F305A1C8DF866
:103690000F201A46019B1344009A52781A709DF825
:1036A0000F30022B0CBF01230023DBB20293029BDD
:1036B000002B04D1054A4721002002F065FD9DF84A
:1036C0000F30184605B05DF804FB00BF382A030030
:1036D0008FDF704700BF18469EDF704700BF184657
:1036E000ADDF704700BF184682B00190019B9E225B
:1036F0001A80019B17225A80019B00221A71019B9C
:1037000000225A71019BA2229A71019B1B22DA713D
:1037100000BF02B07047000000B587B003460091BB
:10372000ADF80630BDF80630009ADB0013441B7B71
:103730009BB2ADF80C30BDF80630009ADB001344A4
:103740001B7B9BB2ADF80E300023ADF81030002388
:10375000ADF8123003A9BDF8063000221846FFF775
:10376000B7FF0590059B002B06D0BDF80620059BF2
:103770000349012004F0AFFA00BF07B05DF804FB75
:103780007C2A030000B587B001900091009B9B88C4
:10379000ADF81630BDF81630DB00019A134406333D
:1037A0000493019B1A79049B9A71009BDB7B012B8C
:1037B00002D0022B05D009E0019B1A88049B1A80D5
:1037C00004E0019B5A88049B1A8000BF049B1A885E
:1037D000049B5B889A421BD9049B1A88BDF816305B
:1037E00011461846FFF778FF0390039B002B03D187
:1037F000049B01225A710BE0039B112B03D1049B04
:1038000001221A7104E0039A0949012004F04FFAD9
:10381000049B9A79049BDB799A4205D9BDF816304E
:1038200001991846FFF778FF00BF07B05DF804FB69
:10383000F02A030000B583B001900091009B9B88A3
:10384000DB00019A134406331846FFF74DFF00BF13
:1038500003B05DF804FB00B587B001900091009BB8
:103860009B88ADF81630009B5B89ADF81430BDF82D
:103870001630DB00019A134406330493049B1B8823
:10388000BDF81420934228BF13469AB2049B5A8075
:10389000049B5B88172B38BF17239AB2049B5A806E
:1038A000019B9B69002B15D0049B5B79002B11D0E9
:1038B00040F67723ADF80830BDF81630ADF80A3081
:1038C000049B5B88ADF80C30019B9B6902AA1146F2
:1038D00001989847049B00225A71049B00221A7198
:1038E00000BF07B05DF804FB00B589B001900091FE
:1038F000009B9B88ADF81C30009BDB88ADF81E3028
:10390000BDF81C30DB00019A134406330693BDF862
:103910001E30172B38BF1723ADF81E30069B1B88AF
:10392000BDF81E20934228BF13469AB2069B5A80C8
:10393000069B00221A71069B1A88BDF81C3011469E
:103940001846FFF7CDFE0590059B002B04D0059A85
:103950001149012004F0ABF9069B5B79002B16D1CD
:10396000019B9B69002B13D040F67723ADF80C30F8
:10397000BDF81C30ADF80E30069B5B88ADF81030FA
:10398000019B9B6903AA11460198984700E000BF7C
:1039900009B05DF804FB00BF4C2B030030B593B0B9
:1039A00001900091009B04AC1D1D0FCD0FC40FCDE5
:1039B0000FC40FCD0FC42B682360BDF81030ADF8D5
:1039C0004630BDF81420BDF84630D1B2019ADB0074
:1039D00013440A465A73019B9B69002B19D002AB12
:1039E00000221A609A804DF67A23ADF80830BDF8AF
:1039F0004630ADF80A30BDF84630019ADB0013447A
:103A00005B7B8DF80C30019B9B6902AA11460198E3
:103A1000984700BF13B030BD00B589B00190009148
:103A2000009B04330693069B1B88DB00019A13441A
:103A300006330793069B9B888DF81730079B9B796D
:103A40009DF81720934228BF13468DF8163002AB1D
:103A500000221A605A609DF816309BB2ADF808300B
:103A60009DF816309BB2ADF80A30069B1B8802A960
:103A700000221846FFF72CFE0490049B002B04D074
:103A8000049A0449012004F012F900BF09B05DF85E
:103A900004FB00BFA42B030000B585B0019000918A
:103AA000019B002B01D10E231DE0019B009A9A611E
:103AB000019B9E221A80019B9E225A80019BA2227A
:103AC0001A71002303930AE0039BDB00019A13445D
:103AD00006331846FFF708FE039B01330393039B4D
:103AE000012BF1D90023184605B05DF804FB82B024
:103AF00001900B46ADF80230019B002B01D10E2343
:103B00000EE0BDF80230162B03D9BDF802309E2B13
:103B100001D9072304E0019BBDF802201A8000238D
:103B2000184602B07047000000B585B001900091C2
:103B3000009B9B88ADF80E30BDF80E30012B5FD88E
:103B4000009B1B88212B26D0212B04DC102B09D0B5
:103B5000112B0CD024E03A2B0ED0552B11D0222B58
:103B600014D01DE000990198FFF70CFE18E00099B1
:103B70000198FFF75FFE13E000990198FFF76BFED5
:103B80000EE000990198FFF7AFFE09E00099019857
:103B9000FFF704FF04E000990198FFF73DFF00BF25
:103BA000BDF80E30019ADB0013449B7A002B28D01D
:103BB000BDF80E30019ADB001344DA88BDF80E30F0
:103BC00011461846FFF788FD0290029B002B0ED18C
:103BD000BDF80E30019ADB00134400229A72BDF842
:103BE0000E30019ADB0013440122DA7209E0029BD5
:103BF000112B06D0029A0449012004F058F800E085
:103C000000BF05B05DF804FBF02A0300A0DF704799
:103C100000BF1846A2DF704700BF1846A6DF7047F6
:103C200000BF184662DF704700BF184682B001909F
:103C30000091009B9A88019B9A8200BF02B0704756
:103C400082B001900091019B4FF6FF729A8200BFF3
:103C500002B0704700B585B001900091009B06331B
:103C60000393039B1A88019B1B899A4213D1039BE0
:103C70005B89022B0FD1039B0C331846FFF7DBFC4B
:103C80000346002B03D0019B01229A7517E0019B8C
:103C900000229A7513E0039B1A88019B9B899A4224
:103CA0000DD1019B9B69002B09D0019B9B69039A55
:103CB00002F10C01039A528901989847FFE700BF6F
:103CC00005B05DF804FB00B593B0019000910AAB1C
:103CD0000322002118460DF0BAFC9DF8283001227D
:103CE00062F303038DF828309DF82830012262F337
:103CF00007138DF828309DF82930012262F3030361
:103D00008DF829309DF82930012262F307138DF8D0
:103D100029309DF82A30012262F342038DF82A30BF
:103D20000BAB1C22002118460DF091FC9DF82C30A5
:103D300043F010038DF82C3000230C9300230E93D6
:103D400000230F930AAB109300231193019B1B7860
:103D50008DF812300323ADF8103003AB032200219D
:103D600018460DF074FC9DF80C30012262F3030339
:103D70008DF80C309DF80C30012262F307138DF89A
:103D80000C309DF80D30012262F303038DF80D30E5
:103D90009DF80D30012262F307138DF80D309DF868
:103DA0000E30012262F342038DF80E309DF80E3082
:103DB0006FF3C3038DF80E309DF80E306FF30413CC
:103DC0008DF80E309DF80E3043F001038DF80E3063
:103DD00005AB1422002118460DF039FC04AB059305
:103DE00003AB06930123ADF81C300023ADF81E3061
:103DF0009B23ADF82030019B5888019B043305AA12
:103E00000BA9FFF707FF0346184613B05DF804FB44
:103E100000B591B00190009109AB1C220021184619
:103E20000DF015FC9DF8243043F008038DF8243084
:103E30009DF8243043F004038DF8243000230A93C6
:103E400000230C9300230D9300230E9300230F9364
:103E5000019B1B788DF80E300223ADF80C3002ABBD
:103E60000322002118460DF0F2FB9DF808300122D4
:103E700062F303038DF808309DF80830012262F3E5
:103E800007138DF808309DF80930012262F303030F
:103E90008DF809309DF80930012262F307138DF87F
:103EA00009309DF80A30012262F342038DF80A308E
:103EB0009DF80A306FF3C3038DF80A309DF80A307D
:103EC0006FF304138DF80A309DF80A3043F00103B4
:103ED0008DF80A3004AB1422002118460DF0B7FB10
:103EE00003AB049302AB05930123ADF81830002314
:103EF000ADF81A309B23ADF81C30019B5888019B0C
:103F00000C3304AA09A9FFF785FE0346184611B031
:103F10005DF804FB00B583B001900091019B002B7C
:103F20001FD0009B002B1CD0009B1B88112B0ED098
:103F3000112B02DC102B05D016E0502B0CD0A62B39
:103F400011D011E000990198FFF770FE0CE0009984
:103F50000198FFF775FE07E000990198FFF77AFED8
:103F600002E000BF00E000BF03B05DF804FB00000A
:103F700010B588B001900091284B02AC0FCB84E8BB
:103F80000F00019B002B01D10E2344E0009B002B6E
:103F900001D10E233FE0019B4FF6FF729A82009BF6
:103FA0001A68019B9A61019B01229A75019A02ABE2
:103FB00011461846FFF736FE0790079B002B01D0ED
:103FC000079B28E0019B1B788DF81A300123ADF880
:103FD0001830019B9A1C06AB19460120FFF716FE0C
:103FE0000790079B002B01D0079B14E000990198D4
:103FF000FFF70EFF0790079B002B01D0079B0AE0FD
:1040000000990198FFF75FFE0790079B002B01D0F6
:10401000079B00E00023184608B010BD042C0300E5
:1040200000B589B0039002911346ADF80630039BAA
:10403000002B01D10E232EE0039B9B8A4FF6FF72CB
:10404000934206D0039B9B7D83F00103DBB2002BE0
:1040500001D008231FE0BDF806309B2B01D90723B0
:1040600019E004AB1022002118460DF0F0FA039B72
:104070009B88ADF81030029B07930DF10603069361
:1040800001238DF81230039B9B8A04AA114618461F
:10409000FFF7C4FD0346184609B05DF804FB82B083
:1040A00001904FF08042019BC2F8083300BF02B07C
:1040B000704784B00346ADF80630BDF8063003F112
:1040C000804300221A60BDF8063003F180431B686C
:1040D0000393039B00BF04B0704782B00346ADF862
:1040E0000630BDF8063003F180431B68002B14BF77
:1040F00001230023DBB2184602B0704782B00346AA
:104100008DF807309DF807304FF0804203F003032D
:10411000C2F8183500BF02B07047000082B00346F5
:104120008DF807300A4A9DF907305B0952F82320C1
:104130009DF8073003F01F03012101FA03F3134038
:10414000002B14BF01230023DBB2184602B07047D6
:1041500000E100E008B50020FFF7E0FF034683F030
:104160000103DBB2002B03D00721002000F01EF971
:1041700000BF08BD00B583B000230193134B1B782B
:10418000002B02D0852301931BE0104B00229A6084
:104190000E4B00225A600D4B00221A610B4B00227D
:1041A000DA60FFF7D7FF04F0F9F8034683F0010364
:1041B000DBB2002B02D00120FFF7A0FF034B01224E
:1041C0001A70019B184603B05DF804FB70300020A4
:1041D00084B00190019B1B680393039B002B03D0C9
:1041E000039B1A68019B1A60039B184604B0704732
:1041F00000B585B003468DF807309DF80730002BD9
:1042000002D10C4B039301E00B4B03930398FFF790
:10421000DFFF0290029B002B06D0029B5B689DF89B
:10422000072010469847F1E700BF00BF05B05DF8D2
:1042300004FB00BF783000208030002008B54FF428
:104240008070FFF74AFF0346002B0CD04FF48070BC
:10425000FFF72FFF0120FFF722FF0E4B01225A70BC
:104260000020FFF7C5FF4FF48270FFF736FF0346CB
:10427000002B0CD04FF48270FFF71BFF0220FFF7DA
:104280000EFF044B01229A700120FFF7B1FF00BF1F
:1042900008BD00BF7030002000B583B00190019BC5
:1042A000002B02D10020FFF7A3FF00BF03B05DF891
:1042B00004FB000000B583B000238DF807300DF13A
:1042C0000703184603F030F80C4B1B7883F001030A
:1042D000DBB2002B01D0FFF74DFF084BDB68013349
:1042E000064AD360054B01229A709DF807301846A4
:1042F00003F024F800BF03B05DF804FB7030002029
:1043000082B003468DF807309DF8073003F01F0296
:1043100005499DF907305B09012000FA02F241F8D6
:10432000232000BF02B0704700E100E082B00346E6
:104330008DF807309DF8073003F01F0206499DF9FC
:1043400007305B09012000FA02F2603341F82320B4
:1043500000BF02B0704700BF00E100E082B003463A
:1043600000918DF807309DF90730002B0CDA009B87
:10437000DAB20C499DF8073003F00F03043B5201F9
:10438000D2B20B441A7609E0009BDAB206499DF9D5
:1043900007305201D2B20B4483F8002300BF02B0B1
:1043A000704700BF00ED00E000E100E000B583B021
:1043B00003460A468DF8073013468DF806309DF8FF
:1043C00006209DF9073011461846FFF7C7FF9DF9F3
:1043D00007301846FFF7AAFF9DF907301846FFF788
:1043E0008FFF00BF03B05DF804FB00B583B0034648
:1043F000ADF80630BDF80630184600F026F8034642
:104400001B68012B0CBF01230023DBB2184603B04D
:104410005DF804FB00B585B00346ADF80630BDF885
:104420000630184600F011F803461A4600231360C0
:10443000BDF80630184600F008F803461B680393E1
:10444000039B00BF05B05DF804FB82B00346ADF8E6
:104450000630BDF8063003F1804303F5C04318462B
:1044600002B0704782B00190034A019BC2F8043346
:1044700000BF02B0704700BF0060004082B00190F2
:10448000034BD3F80423019B1340184602B0704736
:104490000060004082B00190084A019B03F5A273BE
:1044A00052F82330054943F00102019B03F5A27342
:1044B00041F8232000BF02B0704700BF00600040F9
:1044C00084B00390029113468DF80730144A039B81
:1044D00003F5A27352F82330114923F4473323F430
:1044E0004073039A02F5A27241F822300C4A039BF2
:1044F00003F5A27352F82320029B1B0203F4F85128
:104500009DF807301B0403F440330B4304491A435E
:10451000039B03F5A27341F8232000BF04B070474A
:104520000060004082B00190054A019B03F5A27330
:1045300052F823301B0A03F01F03184602B07047DD
:104540000060004082B00190064A019B03F5A2730F
:1045500052F823301B0C03F00303DBB2184602B001
:10456000704700BF0060004082B001904FF0A04350
:10457000184602B0704700B585B001900846114654
:104580001A4603468DF803300B468DF80230134669
:104590008DF8013001AB1846FFF7E6FF03909DF858
:1045A00003209DF802305B001A439DF801309B0008
:1045B0001A439DF818301B0242EA03019DF81C3093
:1045C0001B04019A1943039B02F5E07243F8221081
:1045D00000BF05B05DF804FB00B585B003900B4645
:1045E0008DF80B309DF80B200023019300230093DE
:1045F0001346002200210398FFF7BDFF00BF05B05E
:104600005DF804FB00B585B0019001AB1846FFF7DB
:10461000ABFF0390019A039B02F5E07253F822303E
:1046200023F002030293019A039B02F5E0720299C0
:1046300043F8221000BF05B05DF804FB00B585B05B
:1046400001900B468DF8033001AB1846FFF78CFF45
:104650000390019A039B02F5E07253F82230019A0D
:1046600023F44031039B02F5E07243F82210019AD3
:10467000039B02F5E07253F822309DF803201204E8
:104680001146019A1943039B02F5E07243F8221088
:1046900000BF05B05DF804FB00B585B0019001AB2B
:1046A0001846FFF761FF0390039800F020F80246D8
:1046B000019B22FA03F303F00103184605B05DF8ED
:1046C00004FB00B585B0019001AB1846FFF74CFF25
:1046D0000390019A039B02F5E07253F822301B0C01
:1046E00003F00303DBB2184605B05DF804FB82B0AB
:1046F0000190019BD3F81035184602B0704700B501
:1047000087B00390029101924FF0A0430493039B62
:10471000059311E0059B9B0006AA134453F8083C3F
:104720001846FFF7E4FF0246019B1A60019B043321
:104730000193059B01330593039A029B1344059A49
:104740009A42E7D300BF07B05DF804FB84B0019044
:104750000091009B0393019BDB080293019B03F0F4
:10476000070301930122019B02FA03F30399029AC2
:104770000A4412781340184604B0704784B0019080
:104780000091009B0393019BDB080293019B03F0C4
:1047900007030193039A029B13441B785AB2012129
:1047A000019B01FA03F35BB2134359B2039A029BD4
:1047B0001344CAB21A7000BF04B0704782B00190AF
:1047C0000C4A019B1344303393F90030002B09DB72
:1047D000084A019B1344303393F90030072B01DC66
:1047E000012300E0002303F00103DBB2184602B00E
:1047F000704700BF8430002082B00190064A019BC0
:104800001344303393F90030072BCCBF012300232E
:10481000DBB2184602B070478430002082B00190AD
:10482000064A019B1344303393F90030DB43DBB27B
:10483000DB09DBB2184602B0704700BF84300020AD
:1048400084B00390029101928DF80330029B59B21B
:104850000E4A039B134430330A461A700B49029BDD
:10486000019A41F823209DF8033083F00103DBB265
:10487000002B08D0029B083B039A51B2034A134411
:104880000A4683F8502000BF04B0704784300020EF
:1048900082B00190044A019B13443033FF221A7006
:1048A00000BF02B0704700BF8430002082B001908A
:1048B000044A019B1344303393F90030184602B088
:1048C000704700BF8430002082B00190034A019BF2
:1048D00052F82330184602B0704700BF84300020E1
:1048E00000B589B00390029113468DF80730FF237D
:1048F0008DF81F309DF80730002B01D0002300E019
:10490000082305939DF80730002B01D0082300E011
:104910000C230493059B069314E00F4A069B52F860
:104920002330B3F1FF3F0AD19DF80730029A069970
:104930000398FFF785FF069B8DF81F3006E0069B66
:1049400001330693069A049B9A42E6D39DF91F30E1
:10495000184609B05DF804FB8430002082B003469D
:104960008DF807309DF80730094A4FF0FF3142F8C3
:1049700023109DF80730072B07D99DF80730083B17
:10498000034A1344FF2283F8502000BF02B070474F
:104990008430002000B583B0214B93F85430002BB5
:1049A00003D008230093009B36E000238DF80730E6
:1049B00009E09DF807301846FFF76AFF9DF80730B9
:1049C00001338DF807309DF807301F2BF1D90023F4
:1049D0008DF8073009E09DF807301846FFF7BEFF55
:1049E0009DF8073001338DF807309DF807300B2B09
:1049F000F1D907210620FFF7D9FC4FF4BE70FFF76D
:104A000009FD4FF00040FFF72DFD054B012283F813
:104A1000542000230093009B184603B05DF804FB6C
:104A200084300020044B93F85430002B14BF012332
:104A30000023DBB2184670478430002000B587B0F1
:104A4000039002910192002305930398FFF7E6FE7D
:104A50000346002B02D00823059341E0029BDB783C
:104A60001A4601990398FFF73BFF03468DF8133070
:104A70009DF91330B3F1FF3F30D0029B9B78002BA0
:104A800003D00398FFF7BEFD05E0029B5B78194653
:104A90000398FFF7A1FD029BDB78002B08D09DF95E
:104AA0001300029B1B781A460399FFF709FD17E0D4
:104AB0009DF91330083B0D4A134493F95010029BA3
:104AC0001B789B015AB29DF91330083B0A4351B23F
