:020000021000EC
:10F000000000012033F10100D9F00100DBF0010024
:10F01000DDF00100DFF00100E1F001000000000080
:10F02000000000000000000000000000E3F001000C
:10F03000E5F0010000000000E7F00100E9F0010048
:10F040005D3B0200EDF00100815A020085E2020002
:10F05000F3F00100F5F00100F944020089B5020067
:10F06000FBF00100FDF00100FFF0010061E902008A
:10F0700003F1010005F1010007F1010009F10100B0
:10F080000BF10100556902000FF1010011F10100BF
:10F090009569020015F101009D7D020019F1010042
:10F0A0001BF101001DF101001FF1010021F1010020
:10F0B000F1AE020025F10100000000000000000098
:10F0C00027F1010029F101002BF101002DF10100D0
:08F0D0002FF1010031F10100F4
:10F0D800FEE7FEE7FEE7FEE7FEE7FEE7FEE7FEE700
:10F0E800FEE7FEE7FEE7FEE7FEE7FEE7FEE7FEE7F0
:10F0F800FEE7FEE7FEE7FEE7FEE7FEE7FEE7FEE7E0
:10F10800FEE7FEE7FEE7FEE7FEE7FEE7FEE7FEE7CF
:10F11800FEE7FEE7FEE7FEE7FEE7FEE7FEE7FEE7BF
:10F12800FEE7FEE7FEE7FEE7FEE70348854600F058
:10F13800D1F800F003B8704700000120374938487B
:10F148000A1A02D0072291438D46364936480A1AD0
:10F1580006D00722914381F30988022282F314889A
:10F1680032483349334A00F048F833483349344A7F
:10F1780000F043F833483449344A00F03EF8344844
:10F188003449354A00F039F834483549354A00F0F1
:10F1980034F835483549364A00F02FF835483649AD
:10F1A800364A00F02AF836483649374A00F025F83A
:10F1B80036483749002200F02BF8364836490022F5
:10F1C80000F026F835483649091A082903DB0022D9
:10F1D8000260043001601F481F49884205D0026858
:10F1E800043003B4904703BCF7E700208646EC469A
:10F1F800002000212B4A9047FEE7884207D0521A88
:10F2080005D0037801300B700131013AF9D170470C
:10F21800884202D002700130FAE7704700000120EE
:10F2280000FC00200000012000000120D438030069
:10F23800F825002024270020B0F20100B0F20100D8
:10F248005C180300D4380300F8250020F8250020B6
:10F258005C1803005C1803005C1803005C180300CA
:10F268005C1803005C1803005C1803005C180300BA
:10F27800D4380300003A0300242700202427002064
:10F28800003A0300242700202427002024270020F8
:10F298008C4000208C4000209440002094400020A6
:08F2A8009444002061130200F0
:10F2B000004870478440002070477047704770478F
:10F2C0007047704711F0FFBE024B034A1A6000BF3F
:10F2D000704700BFF82500200090D00308B500F06B
:10F2E0000DF90346002B06D0744B1B681B0A744AA9
:10F2F00003F01F03136000F02DF90346002B02D02A
:10F30000704B714A1A6000F041F90346002B06D099
:10F310006E4B1B685B0B6E4A03F00703136000F033
:10F3200061F90346002B05D06A4BDB68694A23F07C
:10F330008073D36000F072F90346002B0ED04FF0BB
:10F3400080430022C3F80C214FF080430022C3F811
:10F3500010214FF080430022C3F8382500F08AF9CD
:10F360000346002B02D05C4B03221A6000F09EF98A
:10F370000346002B0BD0594B05221A60584B012233
:10F380001A60584B00221A60574B3F221A6000F057
:10F39000A9F90346002B76D04FF08053534AD3F897
:10F3A0000434C2F820354FF08053504AD3F8083463
:10F3B000C2F824354FF080534C4AD3F80C34C2F8CD
:10F3C00028354FF08053494AD3F81034C2F82C3511
:10F3D0004FF08053454AD3F81434C2F830354FF01B
:10F3E0008053424AD3F81834C2F834354FF0805372
:10F3F0003E4AD3F81C34C2F840354FF080533B4AA4
:10F40000D3F82034C2F844354FF08053374AD3F84C
:10F410002434C2F848354FF08053344AD3F82834A6
:10F42000C2F84C354FF08053304AD3F82C34C2F830
:10F4300050354FF080532D4AD3F83034C2F854354C
:10F440004FF08053294AD3F83434C2F860354FF076
:10F450008053264AD3F83834C2F864354FF08053CD
:10F46000224AD3F83C34C2F868354FF080531F4A23
:10F47000D3F84034C2F86C354FF080531B4AD3F8B0
:10F480004434C2F8703500F049F90346002B05D02A
:10F49000174B1B68174A03F04F031360164BD3F842
:10F4A0008830154A43F47003C2F88830BFF34F8F99
:10F4B000BFF36F8FFFF708FF00BF08BD24030010E4
:10F4C0004035014074C007400DF0ADBA4402001051
:10F4D0003C050040F0ED00E0A00500401056004063
:10F4E00088560040185600401456004000C00040A6
:10F4F00058020010E40E004000ED00E0124B1B68C3
:10F50000DBB2062B1DD1114B1B6803F00F03002B40
:10F5100017D10F4B1B6803F0F003302B01D10123EF
:10F5200010E00B4B1B6803F0F003402B01D10123CB
:10F5300008E0074B1B6803F0F003502B01D10123B7
:10F5400000E0002318467047E00F00F0E40F00F0E1
:10F55000E80F00F00A4B1B68DBB2062B0DD1094BFC
:10F560001B6803F00F03002B07D1074B1B6803F048
:10F57000F003302B01D1012300E00023184670472F
:10F58000E00F00F0E40F00F0E80F00F0124B1B68F2
:10F59000DBB2062B1DD1114B1B6803F00F03002BB0
:10F5A00017D10F4B1B6803F0F003302B01D101235F
:10F5B00010E00B4B1B6803F0F003402B01D101233B
:10F5C00008E0074B1B6803F0F003502B01D1012327
:10F5D00000E0002318467047E00F00F0E40F00F051
:10F5E000E80F00F00A4B1B68DBB2062B0DD1094B6C
:10F5F0001B6803F00F03002B07D1074B1B6803F0B8
:10F60000F003302B01D1012300E00023184670479E
:10F61000E00F00F0E40F00F0E80F00F0124B1B6861
:10F62000DBB2062B1DD1114B1B6803F00F03002B1F
:10F6300017D10F4B1B6803F0F003302B01D10123CE
:10F6400010E00B4B1B6803F0F003402B01D10123AA
:10F6500008E0074B1B6803F0F003502B01D1012396
:10F6600000E0002318467047E00F00F0E40F00F0C0
:10F67000E80F00F00A4B1B68DBB2062B0DD1094BDB
:10F680001B6803F00F03002B07D1074B1B6803F027
:10F69000F003302B01D1012300E00023184670470E
:10F6A000E00F00F0E40F00F0E80F00F00A4B1B68D9
:10F6B000DBB2062B0DD1094B1B6803F00F03002BA7
:10F6C00007D1074B1B6803F0F003302B01D1012356
:10F6D00000E0002318467047E00F00F0E40F00F050
:10F6E000E80F00F00A4B1B68DBB2062B0DD1094B6B
:10F6F0001B6803F00F03002B07D1074B1B6803F0B7
:10F70000F003502B01D1012300E00023184670477D
:10F71000E00F00F0E40F00F0E80F00F0124B1B6860
:10F72000DBB2062B1DD1114B1B6803F00F03002B1E
:10F7300017D10F4B1B6803F0F003302B01D10123CD
:10F7400010E00B4B1B6803F0F003402B01D10123A9
:10F7500008E0074B1B6803F0F003502B01D1012395
:10F7600000E0002318467047E00F00F0E40F00F0BF
:10F77000E80F00F082B003468DF807309DF807309F
:10F7800003F01F0206499DF907305B09012000FACA
:10F7900002F2603341F8232000BF02B0704700BF7F
:10F7A00000E100E0BFF34F8F054BDB6803F4E0623C
:10F7B0000349044B1343CB60BFF34F8F00BFFDE7FA
:10F7C00000ED00E00400FA053EDF704700BF184678
:10F7D00008B5FFF7E7FF42F20303184608BD82B001
:10F7E00001904FF0A043184602B0704700B585B0B5
:10F7F0000190084611461A4603468DF803300B4621
:10F800008DF8023013468DF8013001AB1846FFF732
:10F81000E6FF03909DF803209DF802305B001A4339
:10F820009DF801309B001A439DF818301B0242EAF4
:10F8300003019DF81C301B04019A1943039B02F538
:10F84000E07243F8221000BF05B05DF804FB00B57C
:10F8500085B003900B468DF80B309DF80B200023EC
:10F860000193002300931346002200210398FFF721
:10F87000BDFF00BF05B05DF804FB00B585B0019089
:10F8800001AB1846FFF7ABFF0390039800F00AF8AE
:10F890000246019B22FA03F303F00103184605B068
:10F8A0005DF804FB82B00190019BD3F81035184637
:10F8B00002B0704776DF704700BF18467ADF7047A6
:10F8C00000BF18467CDF704700BF18467FDF7047D7
:10F8D00000BF18468ADF704700BF18468FDF7047A9
:10F8E00000BF1846A8DF704700BF1846A9DF704761
:10F8F00000BF184669DF704700BF184666DF7047D3
:10F9000000BF184684B00190244B0393019B002B49
:10F9100040D0234B1A680399019B00BF00BF00BF72
:10F9200000BF00BF00BF00BF00BF8A422FD000BF92
:10F9300000BF00BF00BF00BF00BF00BF00BF00BFCF
:10F9400000BF00BF00BF00BF00BF00BF00BF00BFBF
:10F9500000BF00BF00BF00BF00BF00BF00BF00BFAF
:10F9600000BF00BF00BF00BF00BF00BF00BF00BF9F
:10F9700000BF00BF00BF00BF00BF00BF00BF00BF8F
:10F9800000BF00BF00BF00BF00BF00BF00BF013B02
:10F99000C3D1019300BF04B0704700BF0024F4003E
:10F9A000F825002000B583B00190019B4FF47A72D6
:10F9B00002FB03F31846FFF7A5FF00BF03B05DF895
:10F9C00004FB82B003468DF807309DF80730012B09
:10F9D00003D0022B03D0002B02E000BF00E000BFE9
:10F9E00000BF02B07047000000B585B00190019BD8
:10F9F0001B788DF80F30294A9DF80F3013709DF851
:10FA00000F30062B40D801A252F823F029FA01004A
:10FA10004DFA010057FA010061FA01006BFA01008A
:10FA200075FA01007FFA0100019B1A791C4B1A70CC
:10FA3000019B5A881B4B1A801A4B1B881A46184B7D
:10FA40001B780021184810F0EDFD22E00121174835
:10FA500010F0E8FD1DE00221154810F0E3FD18E06C
:10FA60000321144810F0DEFD13E00421124810F0C9
:10FA7000D9FD0EE00521114810F0D4FD09E0062162
:10FA80000F4810F0CFFD04E00E49032007F08EFD73
:10FA900000BF00BF05B05DF804FB00BF28270020B1
:10FAA000242700202627002078180300AC18030024
:10FAB000D4180300001903002C1903006019030077
:10FAC000A4190300D419030010B507F021F8034668
:10FAD00018460FF01AFB08A3D3E900230FF0B6FD78
:10FAE00003460C46184621460FF047FB03461846CE
:10FAF00010BD00BFAFF30080FCA9F1D24D624040C1
:10FB000082B001900091009A019B9A4205D2009A1E
:10FB1000019BD31A03F1FA6302E0009A019BD31A06
:10FB2000184602B0704786B00190009100238DF80E
:10FB30001730002304931AE0049BC3F105031A460F
:10FB4000019B13441B788DF80F30049B009A1344DB
:10FB50001B789DF80F209A4203D101238DF81730AE
:10FB600002E000238DF81730049B01330493049BBB
:10FB7000052BE1DD9DF81730184606B0704700B53B
:10FB800085B00190009100238DF80F300622019975
:10FB9000009810F0EFFC0346002B03D101238DF8F1
:10FBA0000F300DE000990198FFF7BDFF0346002BD1
:10FBB00003D001238DF80F3002E000238DF80F30C1
:10FBC0009DF80F30184605B05DF804FB00B58FB006
:10FBD000039002910192039B5B680A9300238DF8C6
:10FBE000273005AB0C220021184611F0C0F9002384
:10FBF0000B9327E0039B1A680B9B4FF48A7101FB60
:10FC000003F313448033089302990898FFF7B7FF72
:10FC100003468DF8273005AB03F1080205AB191D2B
:10FC200005A801230FF04CF90346002B07D1059AD4
:10FC3000069B591C069113449DF827201A700B9BB4
:10FC400001330B930B9A0A9B9A42D3DB00230D934B
:10FC500008E0059A0D9B13441B78002B07D10D9BE0
:10FC600001330D93069B0D9A9A42F2DB00E000BF30
:10FC7000069B0D9A9A4202D14FF0FF330D93019BE0
:10FC80000D9A1A600D9BB3F1FF3F03D100238DF84D
:10FC9000333002E001238DF83330059B184610F015
:10FCA000F9FB05AB0C220021184611F060F99DF814
:10FCB000333018460FB05DF804FB00B58FB00390E9
:10FCC00002910192039B5B68099300238DF8323007
:10FCD00000238DF8313004AB0C220021184611F0BE
:10FCE00046F900230B934BE000238DF82B30039B48
:10FCF0001A680B9B4FF48A7101FB03F313440893BA
:10FD0000039B1A680B9B4FF48A7101FB03F31344A6
:10FD1000863307930299089811F07EF90346002B69
:10FD200002D101238DF832300299079811F074F94D
:10FD30000346002B02D101238DF831309DF831307C
:10FD4000002B03D19DF83230002B02D001238DF817
:10FD50002B3004AB03F1080204AB191D04A80123E6
:10FD60000FF0AEF80346002B07D1049A059B591CEF
:10FD7000059113449DF82B201A700B9B01330B93B4
:10FD80000B9A099B9A42AFDB00230D9308E0049A7B
:10FD90000D9B13441B78002B07D10D9B01330D9352
:10FDA000059B0D9A9A42F2DB00E000BF059B0D9A7D
:10FDB0009A4202D14FF0FF330D93019B0D9A1A60C6
:10FDC0000D9BB3F1FF3F03D100238DF8333002E0E8
:10FDD00001238DF83330049B184610F05BFB04AB15
:10FDE0000C220021184611F0C2F89DF83330184655
:10FDF0000FB05DF804FB000000B589B001900091E0
:10FE00000023079300238DF813302449019810F044
:10FE100093FD069022E00098009B191D009B03F1C2
:10FE2000080204230FF04CF80346002B0AD1009B74
:10FE30001A68009B5B68581C009948609B0013443B
:10FE4000069A1A601549002010F076FD06909DF87C
:10FE50001330002B06D1079B01330793069B002B21
:10FE6000D9D100E000BF002305930EE0009B1A6883
:10FE7000059B9B0013441B680393039A059908484C
:10FE800010F0D0FB059B01330593059A079B9A421E
:10FE9000ECDB079B184609B05DF804FB681B030008
:10FEA0006C1B030000B585B001901D49019811F04D
:10FEB000B3F80346002B02D1012303932AE019492A
:10FEC000019811F0A9F80346002B02D102230393F5
:10FED00020E01549019811F09FF80346002B02D14C
:10FEE0000323039316E01149019811F095F8034696
:10FEF000002B02D1042303930CE00D49019811F06B
:10FF00008BF80346002B02D10523039302E04FF048
:10FF1000FF330393039B184605B05DF804FB00BF55
:10FF2000941B03009C1B0300A41B0300AC1B0300D9
:10FF3000B01B0300F0B5F5B00BAB18600AAB19604D
:10FF40000DF126031A800023739374E052AB8022D4
:10FF50000021184611F00BF80AAB1B681A68739B56
:10FF60004FF48A7101FB03F313440DAA104619469E
:10FF70004FF48A731A4610F0D1FF0DAB93F880301E
:10FF800019460DAB93F8813018460DAB93F88230CB
:10FF90001C460DAB93F883301D460DAB93F88430AF
:10FFA0001E460DAB93F885301F460DABD3F80831D4
:10FFB0000DAA06930597049603950294019000916B
:10FFC0001346214A0021002010F06CFC0346729376
:10FFD0000DAB93F880309C460DAB93F881301946F9
:10FFE0000DAB93F882301C460DAB93F883301D4661
:10FFF0000DAB93F884301E460DAB93F885301F4649
:020000022000DC
:100000000DABD3F808310DAA52A8059304970396B7
:1000100002950194009163460B4910F057FC729BC6
:100020009BB201339AB252A90BAB186803F088FC5B
:10003000739B013373930DF126031B88739A9A42C5
:1000400084DB00BF75B0F0BDB41B030000B58FB0FA
:10005000039002911346ADF80630029B5B680D9346
:100060000D9B002B12DC0F4B0C9304AB0C99184624
:1000700010F02CFC0C9810F0F6FF03469AB204AB7B
:100080001946039803F05CFC002307E0BDF8063036
:100090001A4602990398FFF74DFF002318460FB048
:1000A0005DF804FBDC1B030000B585B001900091F6
:1000B000019B0393009B0293039B1A68029B1B689E
:1000C0001946104610F0A8FF0346184605B05DF823
:1000D00004FB000000B58BB003900291029B0993D2
:1000E0001A2308930D4B082208990D4810F0BAFA0C
:1000F00005AB00221A605A60099B059305A8074BBF
:1001000000930823089A064910F06FF80790079BA0
:100110001B7918460BB05DF804FB00BFA900020074
:100120000C26002000B5ADF58B5D81B008AB143B0B
:10013000186008AB183B196000230DF58A5202F1D4
:100140001B02137000230DF58A5202F11A0213707C
:1001500000230DF58A5202F11902137058AB1C3BB3
:100160004FF480520021184610F001FF50AB043BC1
:1001700006220021184610F0FAFE50AB103B0C226C
:100180000021184610F0F3FE50AA103A08AB183BB5
:1001900011461868FFF730FE0DF58A5303F114037A
:1001A000186050AB103B1B681B681846FFF77AFEBF
:1001B0000DF58A5303F1100318600DF58A5303F10E
:1001C00010031B68002B0EDA50AB103B1B6818465F
:1001D00010F060F950AB103B0C220021184610F0D3
:1001E000C6FE0B23A3E10DF58A5303F110031B6830
:1001F000032B17D1A14B1B689AB208AB143BA04943
:100200001868FFF723FF50AB103B1B68184610F02F
:1002100041F950AB103B0C220021184610F0A7FE0C
:10022000002384E10DF58A5303F110031B68012BB1
:1002300006D00DF58A5303F110031B68022B4BD136
:1002400050AB103B1B6804331A6858AB1C3B11467B
:10025000184610F0BFFE00230DF58A5202F11C0271
:10026000136031E050AB103B1A680DF58A5303F16F
:100270001C031B6802339B0013441B6810220021DF
:10028000184610F08FFB03460DF58A5202F10A0260
:1002900013800DF58A5303F10A031B88D9B250ABC2
:1002A000043B0DF58A5202F11C02126813440A46FF
:1002B0001A700DF58A5303F11C031B6801330DF509
:1002C0008A5202F11C0213600DF58A5303F11C03DC
:1002D0001B68052BC6DD69E00DF58A5303F1100399
:1002E0001B68042B06D00DF58A5303F110031B681D
:1002F000052B5BD150AB103B1B6804331A6808AB6D
:10030000143B11461868FFF7E5FE03460DF58A52C7
:1003100002F1190213700DF58A5303F119031B78CA
:100320000F2B43D950AB103B1B680833196850ABF7
:10033000143B1A465248FFF7C0FC0346002B08D076
:1003400050AB143B1B680DF58A5202F10C0213608E
:100350002CE050AB103B1B680833196850AB183BBE
:100360001A464748FFF732FC0346002B08D050AB33
:10037000183B1B680DF58A5202F10C02136015E060
:100380004FF0FF330DF58A5202F10C02136050ABAF
:10039000103B1B68184610F07DF850AB103B0C2248
:1003A0000021184610F0E3FD0723C0E00DF58A5345
:1003B00003F110031B68012B68D108AB0C3B4FF411
:1003C0008A720021184610F0D2FD58AA1C3A08ABD8
:1003D0000C3B1146184610F0FDFD50AB043B1A785B
:1003E00008AB0C3B83F8802050AB043B5A7808AB39
:1003F0000C3B83F8812050AB043B9A7808AB0C3B54
:1004000083F8822050AB043BDA7808AB0C3B83F8CE
:10041000832050AB043B1A7908AB0C3B83F8842053
:1004200050AB043B5A7908AB0C3B83F8852008ABF2
:100430000C3B6FF04502C3F80821002300934FF4F2
:100440008A73104A10490E480EF0A0FD0346002B97
:100450000AD10B4B1A6808AB0C3B104619464FF4F7
:100460008A731A4610F05AFD054B5B680133044A43
:100470005360034B5B68014A13604AE05827002031
:1004800048270020502700204C2700200DF58A53D4
:1004900003F110031B68022B3BD100230DF58A5298
:1004A00002F1040213600DF58A5202F1040250AB0E
:1004B000043B19462148FFF789FB03460DF58A5294
:1004C00002F1090213700DF58A5303F109031B7839
:1004D000002B1AD00DF58A5303F104031B68012287
:1004E000019200934FF48A73154A164913480EF08F
:1004F0007DFD124B5B68013B104A53604FF48A73D9
:100500000F4A10490D480EF00CFD0C4B5B680E4A6B
:10051000136050AB103B1B6818460FF0BBFF50AB8D
:10052000103B0C220021184610F021FD0023184634
:100530000DF58B5D01B05DF804FB00BF482700207E
:10054000502700204C2700205827002000B589B0F4
:100550000190019B04330793079B04330693234BBD
:100560001B78002B03D02249032007F01FF8079BBC
:100570000433204A13601F4B1B6801331E4A13606B
:100580001C4B1B6893F90E3005931B4B1B6803AA89
:1005900019461A48FFF71AFB03468DF813309DF8E9
:1005A0001330002B18D0164B1B78002B03D0059965
:1005B000144810F037F8144B01221A70134B1B68C3
:1005C000059A9A4204DB124B01221A70012309E0BA
:1005D0000F4B00221A7004E00B4B00221A700D4BD7
:1005E00005930023184609B05DF804FB642700203A
:1005F0002C1C03002C270020542700204827002013
:1006000065270020581C03006727002000260020D3
:1006100066270020F0D8FFFF10B59CB00390039B25
:1006200004331B93B64B1B68002B03D1B54B1B68DF
:10063000B54A13600EF048F90246B44B1A60B34B4A
:100640001B68184610F0A2FB0246B14B1A60B04B73
:100650001A68AD4B1B68D31A18460EF03FFDA6A3CF
:10066000D3E900230EF0F2FF03460C46184621465C
:100670000EF0B5FD0246A74B1A60A64BD3ED007AEB
:10068000B7EE007AF4EEC77AF1EE10FA5FDBA24B18
:100690001B78002B57D09E4B1B6818469D4BD3ED03
:1006A000007AF5EEC07AF1EE10FA0BD5994BD3ED46
:1006B000007ABFEE007AF4EEC77AF1EE10FA01DDAF
:1006C000964A00E0964A934BD3ED007AFDEEE77A26
:1006D00017EE901A8F4BD3ED007AF5EEC07AF1EE5B
:1006E00010FA14DD8B4B93ED007A8A4BD3ED007A30
:1006F000FDEEE77AF8EEE77A77EE677A9FED897A92
:1007000067EE877AFDEEE77A17EE903A13E0814BB9
:10071000D3ED007AFDEEE77AB8EEE77A7D4BD3EDC4
:10072000007A77EE677A9FED7F7A67EE877AFDEE43
:10073000E77A17EE903A01930091134602467A4900
:10074000032006F088FF724B1B686F4A1360039BFF
:100750001B88013B562B00F2148201A252F823F0B1
:10076000C10A0200830B0200830B0200830B02000C
:10077000830B0200830B0200830B0200830B020039
:10078000830B0200830B0200830B0200830B020029
:10079000830B0200830B0200830B0200BD080200E2
:1007A000D9080200830B0200EB090200830B020050
:1007B000830B0200830B0200830B0200830B0200F9
:1007C000830B0200830B0200830B0200830B0200E9
:1007D00039090200830B0200830B0200830B020025
:1007E000150A0200830B0200830B0200830B020038
:1007F000830B0200830B0200830B0200830B0200B9
:10080000830B0200830B0200830B0200830B0200A8
:10081000830B0200830B0200830B0200830B020098
:10082000830B0200830B0200830B0200830B020088
:10083000830B0200830B0200830B0200830B020078
:10084000830B0200830B0200750A0200830B020077
:10085000830B0200830B0200830B0200830B020058
:10086000830B0200830B0200830B0200830B020048
:10087000830B0200830B0200830B0200830B020038
:10088000830B0200830B0200830B0200830B020028
:10089000830B0200830B0200830B0200830B020018
:1008A000E70A02004B0A0200830B0200830B0200DE
:1008B000830B02009B0A0200830B0200039B9A88B1
:1008C0001A4B1A80144B1B78002B00F047811849F3
:1008D000032006F06BFE41E1144B4FF6FF721A80C5
:1008E0000D4B1B78002B00F03B811249032006F0D2
:1008F0005DFE35E1AFF300800000000000AAAE40CD
:100900005C2700206C270020742700207C27002013
:10091000702700206827002064270020881C03001F
:100920008C1C03000000C842901C0300FC25002022
:10093000E81C0300001D030000238DF86B30FFF757
:10094000C3F81990934B1B6819991846FFF7D8F80C
:100950001890189B07EE903AB8EE677ADFED8E6A32
:10096000C7EE267ACDED177A8A4A199B13608B4B16
:100970001B68002B32DD0398FFF7E8FD03468DF876
:100980006B309DF86B30002B0FD0854B00221A6026
:10099000844B00221A70844B1B78002B00F0E280FD
:1009A0008249032006F002FEDCE07D4B1B68013328
:1009B0007B4A13607A4B1A687D4B1B689A42C0F2DF
:1009C000D180784B01221A70774B1B78002B00F0F6
:1009D000C9807849032006F0E9FDC3E0704B00228E
:1009E0001A60704B01221A70BCE0734B1888002308
:1009F00000228521FEF76AFF1690169B1593159B22
:100A0000002B00F0B1806D4A40F2D721159805F017
:100A10004BF8A9E00DAB08220021184610F0A7FA08
:100A2000039B9B880DA900221846FEF757FF1690DE
:100A3000169B1493149B002B00F098805F4A4FF490
:100A40003871149805F030F890E05B4B188800235B
:100A500000220021FEF74AFF1690169B1393139B6A
:100A6000002B00F08580554A40F2E621139805F0EE
:100A70001BF87DE0039B9B8813211846FEF71AFFA5
:100A80001690169B1293129B002B73D04B4A4FF477
:100A90003B71129805F008F86CE0039B9B881321CA
:100AA0001846FEF707FF1690169B1193119B002B1B
:100AB00062D0424A40F2F221119804F0F5FF5BE067
:100AC000039B9B8800211846FEF718FF1690169B83
:100AD0001093109B002B51D0384A4FF43E71109860
:100AE00004F0E2FF4AE0039B09AC0633186859683A
:100AF0009A68DB680FC49DF82430002B40D09DF825
:100B00002C30042B07D09DF82C30062B03D09DF8F9
:100B10002C30052B34D19DF82430022B03D1022335
:100B20008DF8143002E001238DF814304FF4C173B6
:100B3000ADF81830039B9B8805AA11461846FEF7AE
:100B4000D1FE1690169B0F930F9B002B18D01B4ABB
:100B50004FF443710F9804F0A7FF11E000BF10E0BD
:100B600000BF0EE000BF0CE000BF0AE000BF08E0DD
:100B700000BF06E000BF04E000BF02E000BF00E0ED
:100B800000BF0F4B1B6801330D4A136000BF1CB040
:100B900010BD00BF7827002000007A4458270020AD
:100BA000602700200826002064270020181D03006D
:100BB00004260020341D0300FC250020501D0300E6
:100BC0005C27002000B585B00190019B1B78012BAC
:100BD00053D0022B45D0002B5BD1314B1B781A46EA
:100BE000304B1344184606F02FF92D4B1B78013378
:100BF000DAB22B4B1A702C49032006F0D7FC284B95
:100C00001B78013B274AD35C0A2B06D0244B1B7868
:100C10009AB2264B1B889A423DD32549032006F001
:100C2000C5FC1F4B1B789BB21A461E49214802F097
:100C300087FE0390039B082B0CD0039B112B09D03C
:100C4000039B0293029B002B04D01B4A5C21029859
:100C500004F02AFF039B112BE3D0114B00221A70E2
:100C600019E01649012007F013FF019B5B68124A47
:100C70006621184604F018FF0EE01049012007F025
:100C800007FF019B5B680C4A6B21184604F00CFFC0
:100C900002E000BF00E000BF00BF05B05DF804FB4C
:100CA0000C28002010280020681D0300E0260020EA
:100CB000A41D030080270020D01D0300641803003A
:100CC00030B58DB0134B04AC1D460FCD0FC495E865
:100CD000030084E80300104B00934FF480730193EA
:100CE0000E4B02934FF480730393694604A80723C5
:100CF0000B4A06F03BF80B900B9B0A930A9B002BC8
:100D000004D0084A83210A9804F0CEFE00BF0DB03B
:100D100030BD00BFE81D0300AC280020AC29002036
:100D2000C50B0200D01D030000B583B00848FEF7D4
:100D3000D1FD0190019B0093009B002B04D0054A3C
:100D40008B21009804F0B0FE00BF03B05DF804FBF7
:100D5000D01F0300D01D030000B589B0039002919D
:100D60001346ADF806302449032006F01FFC029913
:100D70000398FFF7D7F906900023079324E0029A1F
:100D8000079B13441B78184606F07AF80690002358
:100D90000693069B002B11D0069B112B0ED0069AB2
:100DA0001649012006F013FC069B0593059B002BBA
:100DB00004D0134AF621059804F076FE069B112B09
:100DC000DDD0079B01330793BDF80630079A9A429E
:100DD000D5D3BDF80630013B029A13441B780D2B86
:100DE00006D100BF0A2006F04BF80346112BF9D0BC
:100DF00000BF09B05DF804FB001E0300441E0300A1
:100E0000D01D030000B587B09DF80030012262F3C9
:100E100003038DF800309DF80030012262F30713C0
:100E20008DF800301E4810F01EF903469AB26B464A
:100E30001B491846FEF746FD0590059B0493049B4D
:100E4000002B05D0174A4FF48771049804F02CFE4C
:100E500001AB08220021184610F089F81023ADF8E4
:100E600004303C23ADF806300023ADF808304FF4D1
:100E7000C873ADF80A3001AB1846FEF71FFD0590A8
:100E8000059B0393039B002B05D0064A40F21711E4
:100E9000039804F009FE00BF07B05DF804FB00BF33
:100EA0007C1E0300D01D030000B585B001AB0422F9
:100EB0000021184610F05BF80D4B019301AB194669
:100EC0000C4802F0E5FC0390039B0293029B002B6D
:100ED00005D0094A40F22711029804F0E5FD0749C0
:100EE000032006F063FB00BF05B05DF804FB00BF04
:100EF000590D020080270020D01D0300881E03002A
:100F000000B585B00190019B1B78002B11D10B4BD4
:100F10001B883B211846FEF7CDFC0390039B0293F0
:100F2000029B002B05D0064A4FF49F71029804F0F3
:100F3000BBFD00BF05B05DF804FB00BFFC25002031
:100F4000D01D030000B583B001900749012007F0D0
:100F50009FFD064A4FF4A571019804F0A5FD00BF5E
:100F600003B05DF804FB00BF64180300D01D03004C
:100F700000B58BB001AB1C22002118460FF0F7FF23
:100F8000002301934FF4203302934FF47023039313
:100F900003238DF810300023ADF8123000238DF8B4
:100FA00014300C4B06930C4B079301AB184601F021
:100FB0006BFE0990099B0893089B002B05D0074AFC
:100FC00040F26D11089804F06FFD00BF0BB05DF8A2
:100FD00004FB00BF010F0200450F0200D01D0300FB
:100FE00082B003468DF807309DF80730002B01D002
:100FF000032B00E000BF00BF02B0704700B583B014
:101000000190019801F072FF01990A4802F01CFA60
:101010000199094802F00EFC0198FFF7FDFA0198CA
:1010200001F096FD019800F0E7FB00BF03B05DF80A
:1010300004FB00BF9C2700208027002000B58FB054
:10104000554B1B68049304A80023D822534906F08B
:101050003DFE0D900D9B0C930C9B002B05D0504A30
:1010600040F2AD110C9804F01FFD0023039303AB75
:10107000184606F0CBFE0B900B9B0A930A9B002BA5
:1010800005D0474A4FF4D9710A9804F00DFD6B461C
:101090000C22002118460FF06AFF01238DF8003062
:1010A00000238DF8013000238DF80230039A6B463F
:1010B00019464020FEF71EFC0B900B9B0993099BE1
:1010C000002B05D0364A40F2BD11099804F0ECFC23
:1010D0006B460C22002118460FF049FF01238DF8C2
:1010E00000309E23ADF80230039A6B461946232048
:1010F000FEF700FC0B900B9B0893089B002B05D080
:10110000274A4FF4E271089804F0CEFC6B460C229B
:10111000002118460FF02BFF01238DF800304FF40B
:10112000A073ADF8043001238DF80230039A6B46AA
:1011300019462020FEF7DEFB0B900B9B0793079BC5
:10114000002B05D0164A4FF4E671079804F0ACFC6A
:1011500003AB184606F06AFE0B900B9B0693069BAA
:10116000002B05D00E4A4FF4E871069804F09CFC61
:101170000C4806F003FE0B900B9B0593059B002B80
:1011800005D0074A4FF4EA71059804F08DFC00BFC2
:101190000FB05DF804FB00BFB81E0300AC2A0020AE
:1011A000D01D0300FD0F020000B583B00190009137
:1011B000009B5A880E4B1B889A4214D1009B1B88B7
:1011C00040F6772293420ED1009B9B88033B9AB254
:1011D000084B1A80074B1B881A46064B1B8806498A
:1011E000032006F008FA00BF03B05DF804FB00BF5F
:1011F000FC250020E0260020BC1E030000B585B0C1
:101200001149124802F0D8F80390039B0293029B05
:10121000002B05D00E4A40F21221029804F044FC43
:1012200040210A4802F0F3F80390039B0193019BCD
:10123000002B05D0064A40F21521019804F034FC39
:1012400000BF05B05DF804FBA91102009C27002037
:10125000D01D030000B5ABB019AB3C2200211846ED
:101260000FF085FE02238DF8643000238DF8663080
:1012700005238DF867300AAB3C22002118460FF099
:1012800076FE0123ADF83830144B0F9302AB2022C9
:10129000002118460FF06BFE01238DF80B30402320
:1012A0000693B423079302AA0AA919A8002300935E
:1012B0000B4B01F05FFA2990299B2893289B002B68
:1012C00005D0084A40F23721289804F0EDFB0120B0
:1012D00001F042FA00BF2BB05DF804FBDC260020D1
:1012E000E10F0200D01D030000B587B0F1EE103A07
:1012F0000193019B23F09F030293029BE1EE103ABE
:10130000F1EE103A03932620FEF734FAFEF75CFA6A
:101310000590059B0493049B002B04D0044A4421B0
:10132000049804F0C1FB00BF07B05DF804FB00BFE8
:10133000E41E030000B583B0002006F0E1F8019040
:10134000019B0093009B002B04D0044A9421009839
:1013500004F0AAFB00BF03B05DF804FBE41E030029
:1013600010B58AB0AB4B00221A60AB4B00221A605A
:10137000AA4B1B6818460FF08DF80C220021A748D5
:101380000FF0F5FD0C220021A4480FF0F0FDA44B56
:101390001B6818460FF07EF80C220021A0480FF0C1
:1013A000E6FD0C2200219E480FF0E1FD9D4B1B68DD
:1013B00018460FF06FF80C2200219A480FF0D7FD65
:1013C0000C22002197480FF0D2FD974A3C210820BB
:1013D00004F03AFC0990099B0893089B002B04D069
:1013E000924AEA21089804F05FFB05F0D9FA0790C9
:1013F000079B0693069B002B04D08C4AEC21069891
:1014000004F052FBFFF75CFCFFF794FFFFF716FEBA
:10141000FFF7F8FCFFF7F2FEFFF746FDFFF71AFFB4
:10142000FFF7A6FD8249032006F0C0F8032001F073
:10143000A5FA0790079B0593059B002B04D07B4AD8
:10144000FC21059804F030FBFFF76EFC0DF030FC3A
:1014500002230321774A18460DF0CAFC76480DF0A6
:10146000ADFB764A764977480DF0A2FA714B9A782F
:10147000754B1A7003210B20FEF7E9F902210020B9
:101480000AF074FF022101200AF070FF02210220FD
:101490000AF06CFF022103200AF068FF0DF014FA35
:1014A000049004980FF072FC0246684B1A604FF4E7
:1014B0007A70FEF777FAFEF707FB0246644B1A6074
:1014C000644B4FF0FF321A6004F084FC0B20FEF7EF
:1014D000D4F90346002B0CBF01230023DBB21A46CC
:1014E0005D4B1A605D4900200BF0F2F803905C49F7
:1014F00001200BF0EDF803905A4902200BF0E8F8B8
:101500000390594903200BF0E3F80390524B1B68FA
:10151000012B25D1524B1B68012B21D14A4B1B7843
:10152000013B524A13605249012007F0B1FA494B7E
:101530001C68FEF7C9FA034619462046FEF7E0FA92
:10154000024641F288339A4238D94A49012007F0CD
:101550009FFA4FF47A70FEF725FAFEF739F92DE07D
:101560003D4B1B68002B0DD13D4B1B68002B09D157
:10157000354B1B7801333D4A13603F49012007F08A
:1015800087FA1BE0344B1B68012B13D1344B1B68CB
:10159000002B0FD13949012007F07AFA4FF47A7302
:1015A00000934FF4FA730522322140F6C4100DF077
:1015B000BFFA03E03249012007F06AFA314B1B7889
:1015C000002B04D03049002007F062FA03E02F49D5
:1015D000002007F05DFA254B1B68FE2B03DD1A4B3C
:1015E000FF221A700CE0214B1B68002B03DC164B0A
:1015F00000221A7004E01D4B1B68DAB2124B1A70FD
:10160000114B1B7819460B4808F003FD0790FFF7B4
:101610006BFE59E75C270020602700203027002060
:101620003C27002048270020842B0020E41E0300D4
:10163000B81F0300B8270020C3F90100E4270020E9
:10164000E9F90100E0930400E22600206C27002065
:101650007827002008280020F0270020F427002009
:10166000F8270020FC270020002800200428002064
:101670006C1803005C180300741803007018030052
:10168000601803000826002064180300681803008F
:1016900084B001900B468DF8033013468DF802306C
:1016A00000230393019B002B3CD19DF80230012BBA
:1016B0000BD19DF80330012B04D1019BDBB20E331B
:1016C000DBB200E000238DF802309DF80330012BDF
:1016D00004D0022B0CD0002B15D01FE01449019A26
:1016E00013465B0013440B449DF802201A701BE064
:1016F0000F49019A13465B0013440B4401339DF8D4
:1017000002201A7010E00A49019A13465B00134444
:101710000B4402339DF802201A7005E0072303935F
:1017200000BF01E007230393039B184604B07047F2
:10173000542F002000B583B0012200210020FFF7C4
:10174000A7FF0190019B002B04D0019B072B01D028
:10175000019B1CE0072202210120FFF799FF019065
:10176000019B002B04D0019B072B01D0019B0EE0B5
:10177000042202210020FFF78BFF0190019B002B28
:1017800004D0019B072B01D0019B00E000231846E9
:1017900003B05DF804FB00B583B0012202210020F4
:1017A000FFF776FF0190019B002B04D0019B072BD4
:1017B00001D0019B1CE0072202210120FFF768FFF6
:1017C0000190019B002B04D0019B072B01D0019BB2
:1017D0000EE00A2200210020FFF75AFF0190019B32
:1017E000002B04D0019B072B01D0019B00E00023BC
:1017F000184603B05DF804FB00B585B00190019B6D
:101800001B88102B02D0112B18D02FE0194B1B680E
:10181000002B0DD1FFF78EFF0390039B002B07D009
:10182000154B1B68002B03D0134B1B68039898477C
:10183000104B1B6801330F4A136017E00D4B1B68F8
:10184000013B0C4A13600B4B1B68002B0DD1FFF7BB
:10185000A2FF0390039B002B07D0074B1B68002BB4
:1018600003D0054B1B680398984700BF00BF05B025
:101870005DF804FB5C2F0020582F00206DDF7047BF
:1018800000BF184672DF704700BF184679DF704707
:1018900000BF18467DDF704700BF184664DF704701
:1018A00000BF184682B003460091ADF80630BDF87F
:1018B0000630DAB2009B1A70BDF806301B0A9AB2E5
:1018C000009B0133D2B21A700223184602B070474F
:1018D00000B589B0039002911346ADF80630029B23
:1018E0001B8803F10902BDF806309A4201D90C2386
:1018F00051E005AB1846FFF7C1FF0790079B002B8F
:1019000001D0079B47E0029B1B881A46039B1344A8
:1019100008221A70029B1B8801339AB2029B1A801C
:10192000029B1B881A46039B13441B221A70029BBE
:101930001B8801339AB2029B1A80029B1B881A46AD
:10194000039B981805AB0133062219460FF0E6FAFF
:10195000029B1B8806339AB2029B1A809DF81430B2
:1019600023F00103DBB2002B07D1029B1B881A4630
:10197000039B134400221A7006E0029B1B881A4640
:10198000039B134401221A70029B1B8801339AB2F5
:10199000029B1A800023184609B05DF804FB00B5CD
:1019A00089B0039002910192ADF80230039B1B783D
:1019B000012B05D1039B5B78002B01D1072389E024
:1019C000019B1B889A1CBDF802309A420ED8039BDB
:1019D0001B78012B0CD1019B1B881A46039B5B785B
:1019E00013449A1CBDF802309A4201D90C2371E0CD
:1019F000019B1B88BDF80220D31A9BB2023BADF8B5
:101A00001C30BDF81C30ADF81630019B1B8802332A
:101A1000029A13440DF1160211461846FFF73AFFD9
:101A20000690069B002B01D0069B53E0039B1B787E
:101A3000022B09D1BDF81630BDF81C209A4203D301
:101A400009238DF81F3017E008238DF81F30039B02
:101A50001B78012B0CD1039B5B789BB2BDF81C203B
:101A60009A4205D3039B5B789BB2ADF8163003E036
:101A7000BDF81C30ADF81630BDF81630FE2B01D97C
:101A80000C2327E0BDF81630DAB2019B1B881946FB
:101A9000029B0B440132D2B21A70019B1B880133A6
:101AA0009AB2019B1A80019B1B881A46029B134421
:101AB0009DF81F201A70019B1B8801339AB2019B6D
:101AC0001A80019B1A88BDF8163013449AB2019B04
:101AD0001A800023184609B05DF804FB00B587B0F2
:101AE000039002911346ADF80630029B1B881A1D25
:101AF000BDF806309A4201D90C2339E00DF11203EA
:101B00001846FFF7C3FE0590059B002B01D0059BEF
:101B10002EE0029B1B881A46039B134403221A7073
:101B2000029B1B8801339AB2029B1A80029B1B887E
:101B30001A46039B134419221A70029B1B88013317
:101B40009AB2029B1A80BDF81220029B1B8819468C
:101B5000039B0B4419461046FFF7A4FE03461946A3
:101B6000029B1A888BB213449AB2029B1A800023FC
:101B7000184607B05DF804FB84B0029101921A4642
:101B800003468DF80F301346ADF80C30019B1B88CF
:101B9000DA1CBDF80C309A4201D90C2328E0019BD5
:101BA0001B881A46029B134402221A70019B1B8851
:101BB00001339AB2019B1A80019B1B881A46029B33
:101BC000134401221A70019B1B8801339AB2019BB6
:101BD0001A80019B1B881A46029B13449DF80F2014
:101BE0001A70019B1B8801339AB2019B1A80002353
:101BF000184604B0704784B0029101921A46034619
:101C00008DF80F301346ADF80C30019B1B88DA1CA1
:101C1000BDF80C309A4201D90C2328E0019B1B88A7
:101C20001A46029B134402221A70019B1B8801333F
:101C30009AB2019B1A80019B1B881A46029B13448F
:101C40000A221A70019B1B8801339AB2019B1A80E9
:101C5000019B1B881A46029B13449DF80F201A70A3
:101C6000019B1B8801339AB2019B1A8000231846FE
:101C700004B0704700B58BB0039001930B468DF80C
:101C80000B3013468DF80A3000238DF823300C9B5F
:101C90001B88ADF82030002309936DE0039B5A6840
:101CA000099B9B001A4404AB106818600DF11701E2
:101CB00004AB00221846FFF7F1FD0790079B002BAD
:101CC00001D0079B7AE09DF817309DF80A209A42D0
:101CD0004FD19DF82330002B01D0002300E00223D8
:101CE0008DF81B300C9B1B881A469DF817301A4440
:101CF0009DF81B301A44BDF834309A4201DD0C23A4
:101D00005CE09DF8233083F00103DBB2002B16D09A
:101D10000C9B1B8801339AB20C9B1A800C9B1B886E
:101D20001A46019B13449DF80B201A700C9B1B88CC
:101D300001339AB20C9B1A8001238DF823300C9B3F
:101D40001B881A46019B1A440DF1170104AB184673
:101D5000FFF7A4FD0790079B002B01D0079B2DE008
:101D60000C9B1A889DF817309BB213449AB20C9BB7
:101D70001A80099B01330993039B1B881A46099B10
:101D800093428BDB9DF82330002B16D00C9B1A88D6
:101D9000BDF82030D31A9BB2013BADF81830BDF826
:101DA0001830FF2B01D90C2308E0BDF82030019A30
:101DB0001344BDF81820D2B21A70002318460BB095
:101DC0005DF804FB00B589B0059003930B468DF8D0
:101DD000133013468DF812309DF81310BDF82C30D7
:101DE00001930A9B0093039B02220598FFF742FF91
:101DF0000790079B002B01D0079B12E09DF8121063
:101E0000BDF82C3001930A9B0093039B1022059888
:101E1000FFF730FF0790079B002B01D0079B00E0E6
:101E20000023184609B05DF804FB82B00190019BC5
:101E30001B88052B0AD9019B1B88B3F5486F07D96E
:101E4000019B1B884FF6FF72934201D0072325E0C8
:101E5000019B5B88052B0AD9019B5B88B3F5486F12
:101E600007D9019B5B884FF6FF72934201D007238D
:101E700014E0019B1B884FF6FF7293420DD0019B2B
:101E80005B884FF6FF72934207D0019B1A88019B33
:101E90005B889A4201D9072300E00023184602B06C
:101EA000704700B587B0039002910192ADF80230FF
:101EB000019B1B889A1DBDF802309A4201D90C2360
:101EC0004BE00398FFF7B1FF0590059B002B01D075
:101ED000059B42E0019B1B881A46029B1344052286
:101EE0001A70019B1B8801339AB2019B1A80019BD7
:101EF0001B881A46029B134412221A70019B1B88EE
:101F000001339AB2019B1A80039B1A88019B1B889C
:101F10001946029B0B4419461046FFF7C3FC0346C3
:101F20001946019B1A888BB213449AB2019B1A80FE
:101F3000039B5A88019B1B881946029B0B44194638
:101F40001046FFF7AFFC03461946019B1A888BB277
:101F500013449AB2019B1A800023184607B05DF81B
:101F600004FB00B587B0039002910192ADF80230F6
:101F7000039B9B8802330593019B1B881A46059B94
:101F800013449A1CBDF802309A4201D90C2354E044
:101F9000059BFE2B01D90C234FE0059BDAB2019B78
:101FA0001B881946029B0B440132D2B21A70019B66
:101FB0001B8801339AB2019B1A80019B1B881A4629
:101FC000029B1344FF221A70019B1B8801339AB2B3
:101FD000019B1A80039B1A88019B1B881946029B50
:101FE0000B4419461046FFF75DFC03461946019B5A
:101FF0001A888BB213449AB2019B1A80039B9B8868
:10200000002B19D0039B9B68002B01D1072314E000
:10201000019B1B881A46029B9818039B9968039B97
:102020009B881A460EF07AFF019B1A88039B9B88B7
:1020300013449AB2019B1A800023184607B05DF83A
:1020400004FB00B589B0039002910192ADF8023013
:10205000039B9B6A002B01D1072372E000238DF8BC
:102060001F3066E0039B996A9DF81F2013465B00B2
:1020700013449B000B440693069B9B8802330593F5
:10208000059BFE2B01D90C235BE0059BDAB2019B7B
:102090001B881946029B0B440132D2B21A70019B75
:1020A0001B8801339AB2019B1A80019B1B881A4638
:1020B000029B134416221A70019B1B8801339AB2AB
:1020C000019B1A80069B1A88019B1B881946029B5C
:1020D0000B4419461046FFF7E5FB03461946019BE2
:1020E0001A888BB213449AB2019B1A80069B9B8874
:1020F000002B19D0069B9B68002B01D1072320E001
:10210000019B1B881A46029B9818069B9968069BA0
:102110009B881A460EF002FF019B1A88069B9B883B
:1021200013449AB2019B1A809DF81F3001338DF839
:102130001F30039B93F82C309DF81F209A4291D3B7
:102140000023184609B05DF804FB00B589B005907E
:102150000491039200230793039B1B88ADF81A3068
:10216000039B00221A80059B93F82D30002B0CD086
:10217000BDF81A301A4603990498FFF7A9FB079097
:10218000079B002B01D0079BC4E0059B9B78002B8D
:102190000CD0BDF81A301A4603990498FFF79EFC3C
:1021A0000790079B002B01D0079BB3E0059BDB78D2
:1021B000002B0ED0059BDB7858B2BDF81A30039A7D
:1021C0000499FFF7D9FC0790079B002B01D0079BD0
:1021D000A0E0059B5B68002B0FD0059B5B6893F923
:1021E0000000BDF81A30039A0499FFF704FD079028
:1021F000079B002B01D0079B8CE0059B1B89002BC4
:1022000012D0059B03F10800BDF81A300193039B1F
:102210000093049B06220221FFF7D4FD0790079B41
:10222000002B01D0079B75E0059B1B8A002B12D069
:10223000059B03F11000BDF81A300193039B009336
:10224000049B07220321FFF7BDFD0790079B002B8E
:1022500001D0079B5EE0059B1B8B002B12D0059BDA
:1022600003F11800BDF81A300193039B0093049BFF
:1022700015221421FFF7A6FD0790079B002B01D024
:10228000079B47E0059B1B6A002B0DD0059B186A36
:10229000BDF81A30039A0499FFF703FE0790079BD5
:1022A000002B01D0079B35E0059B5B6A002B0DD00E
:1022B000059B586ABDF81A30039A0499FFF751FE3E
:1022C0000790079B002B01D0079B23E0059B93F809
:1022D0002C30002B0CD0BDF81A30039A04990598C5
:1022E000FFF7AFFE0790079B002B01D0079B11E083
:1022F000059B1B78002B0CD0BDF81A30039A04996B
:102300000598FFF74CFB0790079B002B01D0079B1C
:1023100000E0079B184609B05DF804FB82B001900D
:10232000019BDB7803F00403002B01D1072300E0BD
:102330000023184602B0704782B00190019BDB7801
:10234000002B01D0072300E00023184602B070479D
:1023500000B597B0019000911F23ADF84A301F23BC
:10236000ADF84830019B002B18D00198FFF7D6FF3D
:102370001390139B002B01D0139B3FE00DF14A02F9
:102380000AAB19460198FFF7E0FE1390139B002B50
:1023900001D0139B32E00AAB159304E000231593A0
:1023A0000023ADF84A30009B002B17D00098FFF7B0
:1023B000C3FF1390139B002B01D0139B1EE012AAA6
:1023C00002AB19460098FFF7C0FE1390139B002B39
:1023D00001D0139B12E002AB149304E0002314938A
:1023E0000023ADF84830BDF84A30D9B2BDF84830C6
:1023F000DBB2149A1598FFF745FA0346184617B052
:102400005DF804FB73DF704700BF1846014B1B7873
:10241000184670473630002084B0019000230393A3
:102420000AE0019A039B13441B78002B01D001237F
:1024300006E0039B01330393039B052BF1D9002393
:10244000184604B07047000082B003468DF807308C
:102450009DF807305A1C074B83FB02135910D31702
:10246000C91A0B469B000B44D11ACBB2184602B0D6
:10247000704700BF6766666682B00190019BDB7B98
:10248000012B03D1019B9A88024B1A8000BF02B036
:10249000704700BF2830002000B585B001900E4B7A
:1024A00000221A70019B9A880C4B1B889A420ED10D
:1024B000012000F063FA0390039B002B07D0084B28
:1024C0001B68002B03D0064B1B680398984700BF7E
:1024D00005B05DF804FB00BF343000202830002038
:1024E0003030002000B585B00190019B1B7A002B95
:1024F00015D10D4B1B781846FFF7A6FF034618466B
:1025000000F03CFA0390039B002B09D0074B1B689B
:10251000002B05D0054B1B680398984700E000BFCF
:1025200005B05DF804FB00BF632F002030300020B1
:1025300000B583B001AB184604F0BAFB019B002B39
:1025400014BF01230023DBB2184603B05DF804FB7F
:1025500000B585B003468DF807301E48FFF75CFFD5
:1025600003468DF80F309DF80730013B032B2BD825
:1025700001A252F823F000BF892502009D25020028
:10258000B1250200BD250200134B5B78002B05D05E
:102590009DF80F30002B01D0012316E00E4B9B78E5
:1025A000002B05D09DF80F30002B01D002230CE04A
:1025B000094BDB78002B01D0032306E0064B1B7987
:1025C000002B01D0042300E00023184605B05DF87D
:1025D00004FB00BF892F0020642F002082B00190EF
:1025E000094B01221A70019B084A5A60019B012283
:1025F0001A70019B00229A81019B00225A810023BC
:10260000184602B0704700BF622F0020882F0020BC
:1026100082B001900B4B02221A70019B0A4A5A6049
:10262000019B01221A70094BDB689AB2019B9A81C7
:10263000064B9B689AB2019B5A810023184602B050
:10264000704700BF622F0020882F0020642F0020D9
:1026500000B585B001901B4B1B699AB2019B5A8152
:10266000184B5B699AB2019B9A81164B1B78002B21
:102670001FD0154B1B7883F00103DBB2002B18D061
:10268000FFF7C4FE0346002B13D0019B02221A72EF
:102690000E4B0422DA7000210C48FFF759FE03901C
:1026A000039B002B01D0039B07E0094B05221A7006
:1026B00002E0074B03221A700023184605B05DF8AC
:1026C00004FB00BF642F002034300020902F002036
:1026D000622F002000B585B001901B4B9B699AB218
:1026E000019B5A81184BDB699AB2019B9A81164B68
:1026F0001B78002B1FD0154B1B7883F00103DBB236
:10270000002B18D0FFF782FE0346002B13D0019B4D
:1027100002221A720E4B0422DA7000210C48FFF7D5
:1027200017FE0390039B002B01D0039B07E0094B8E
:1027300006221A7002E0074B04221A700023184682
:1027400005B05DF804FB00BF642F0020343000208A
:10275000902F0020622F002082B003468DF80730B2
:10276000034A9DF80730137000BF02B0704700BFE6
:10277000842F002030B589B003900291019200931C
:10278000039B002B02D0019B002B01D10E23D5E02F
:102790006C4B01221A706C4B00221A706B4A019B21
:1027A00014461D460FCD0FC495E80F0084E80F00B6
:1027B000674B00221A70674A009B1360664A0C9BA5
:1027C0001360664B4FF6FF721A800722002164489F
:1027D0000EF0CDFB3C22002162480EF0C8FB039BAB
:1027E0001A78604B1A70039B9A785E4B9A70039B21
:1027F000DA785C4BDA70039B5A785A4B5A70594B13
:10280000039A1033103292E8030083E80300554B1B
:10281000039A0833083292E8030083E80300514B1F
:10282000039A1833183292E8030083E80300039BED
:102830005B6A002B29D04B4B4B4A5A624A4B4B4A9E
:102840009A60039B5A6A474B5B6A12881A80039B03
:102850005A6A444B5B6A92889A80002307930DE082
:10286000039B5B6A9A68079B134419783F4A079B4E
:1028700013440A461A70079B01330793394B5B6A6E
:102880009B881A46079B9342EAD3039B9B6A002BC3
:1028900033D0374B374A9A60324B354A9A62314BC4
:1028A0009B6A344A9A60039B9A6A2E4B9B6A928871
:1028B0009A80039B9A6A2B4B9B6A12881A8000238A
:1028C00006930DE0039B9B6A9A68069B1344197854
:1028D000284A069B13440A461A70069B0133069346
:1028E000204B9B6A9B881A46069B9342EAD3039B24
:1028F00093F82C201B4B83F82C20039B1B6A002B86
:102900000ED0184B1C4A1A62039B1A6A154B1B6A9D
:1029100052885A80039B1A6A124B1B6A12881A80CB
:10292000039B5B68002B03D0039B5B680D4A5360DD
:1029300002990C48FFF70CFD0590059B184609B05D
:1029400030BD00BF602F0020632F0020642F0020C7
:10295000842F00202C300020303000202830002030
:10296000882F0020902F0020CC2F0020D82F00206F
:10297000F82F0020043000202430002000B589B05A
:1029800003468DF80730664B1B7883F00103DBB2FA
:10299000002B01D00823BEE0624A9DF80730137077
:1029A000FFF7C6FD0346002B04D05F4B01221A70CF
:1029B0000023B0E0072200215C480EF0D8FA5C4BFF
:1029C0005B78002B03D0574B1B78012B0FD0584B53
:1029D0009B78002B03D0534B1B78012B07D0544B13
:1029E0009B78002B12D04F4B1B78022B0ED1514BF2
:1029F0001B68002B07D0504B01221A704D4B1B68EF
:102A00000820984702E04C4B00221A709DF80730CE
:102A10001846FFF79DFD03461A46424B1A70454B78
:102A20001B68002B1DD03F4B1B78032B03D03D4B65
:102A30001B78042B15D13E4B1B78002B11D03F4B3C
:102A40001B7883F00103DBB2002B0AD03C4B002241
:102A50001A703C4B01221A70364B1B6807209847AE
:102A600002E0384B00221A7003AB102200211846F6
:102A70000EF07DFA00238DF80C3000238DF8143011
:102A8000284B1B78042B29D801A252F823F000BF51
:102A9000D52A0200A52A0200B12A0200BD2A02009E
:102AA000C92A020003AB1846FFF798FD079016E00D
:102AB00003AB1846FFF7ACFD079010E003AB1846D8
:102AC000FFF7C6FD07900AE003AB1846FFF702FECA
:102AD000079004E01C4B00221A7000E000BF114B6D
:102AE0001B78002B0CD0194B1A7803AB11461846F3
:102AF000FFF788FC0790079B002B01D0079B0AE09B
:102B00000C4B1B68002B05D00A4B1B680E4A127831
:102B1000104698470023184609B05DF804FB00BF33
:102B2000602F0020632F0020612F0020882F0020BD
:102B3000642F00202C3000208F2F00203430002004
:102B40003630002035300020622F0020842F0020F6
:102B500000B583B00190019B1B88112B07D01B2B64
:102B600009D0102B0BD10198FFF786FC08E00198E3
:102B7000FFF792FC04E00198FFF7B4FC00E000BF0F
:102B800000BF03B05DF804FB75DF704700BF184657
:102B900076DF704700BF18467ADF704700BF1846DF
:102BA0007BDF704700BF184682B00190019B5A88B6
:102BB000074B1B889A4207D3019B5A88044B5B88BA
:102BC0009A4201D8012300E00023184602B0704762
:102BD0005430002000B587B00190274B1B884FF67A
:102BE000FF72934243D0254B1B780133DAB2234B5B
:102BF0001A70234B1A7B214B1B789A4212D31E4B1F
:102C00001B8820491846FFF7BFFF0590059B002B46
:102C10002DD01B4B9B69002B29D0194B9B69059824
:102C2000984724E0154B00221A70154B1B7C002B93
:102C300011D0114B1B883B211846FFF7A9FF0490C8
:102C4000049B002B07D00E4B9B69002B03D00C4B31
:102C50009B69049898470A4B5B69002B07D00023B7
:102C60008DF80C30064B5B6903AA1046984700BFED
:102C700007B05DF804FB00BF5E3000205C30002030
:102C8000383000205430002030B585B001901C4A07
:102C9000019B14461D460FCD0FC495E8070084E83C
:102CA0000700184B00221A70019B1B68002B0ED0E6
:102CB000019B1A68144B1068516803C31248FFF750
:102CC0006BFF0390039B002B0AD0039B15E00E487B
:102CD000FFF766FF0390039B002B01D0039B0CE0E2
:102CE0000A4B4FF6FF721A80094B00221A70094AEC
:102CF0000021094803F088FE0346184605B030BDA0
:102D00003830002088300020543000205E30002011
:102D10005C300020D52B0200D81F030000B585B021
:102D20002548FFF741FF034683F00103DBB2002B88
:102D30002ED0224B1B78002B0CD0214B5B69002B33
:102D400032D000238DF804301D4B5B6901AA104678
:102D5000984729E01B4B1B78002B03D1184B5B686D
:102D6000039302E0164B9B680393174B00220399D1
:102D7000184603F079FE0290029B002B14D0104BF2
:102D80009B69002B10D00E4B9B69029898470BE073
:102D90000B4B5B69002B07D001238DF80030084BEB
:102DA0005B696A4610469847044B00221A7000BFC0
:102DB00005B05DF804FB00BF6030002088300020C3
:102DC000383000205C3000206830002000B583B02F
:102DD0000190019B9A880B4B1A800B4A019B103380
:102DE00093E8030082E80300084B00221A70084BA6
:102DF000DB89002B01D1FFF791FF00BF03B05DF825
:102E000004FB00BF5E300020603000205C300020FA
:102E10003830002000B585B001900D4B4FF6FF72A1
:102E20001A800C4B00221A700B4B184603F04EFE12
:102E30000390039B002B07D0084B9B69002B03D00A
:102E4000064B9B690398984700BF05B05DF804FBEB
:102E50005E3000205C3000206830002038300020D8
:102E600000B585B00190019B06330393039B1A883C
:102E7000134BDB899A421ED1039B5B89022B1AD12B
:102E8000039B0C33184600F066F80346002B02D073
:102E9000FFF744FF0FE00B4B184603F017FE0290BC
:102EA000029B002B07D0064B9B69002B03D0044BE1
:102EB0009B690298984700BF05B05DF804FB00BF0E
:102EC000383000206830002000B583B00190064AF9
:102ED000019B083393E8030082E80300FFF71EFF1D
:102EE00000BF03B05DF804FB6030002000B583B084
:102EF0000190019B1B88112B0DD0112B02DC102B94
:102F000005D014E0122B0ED0502B08D00FE0019802
:102F1000FFF75CFF0BE00198FFF77CFF07E00198EB
:102F2000FFF79EFF03E00198FFF7CEFF00BF00BF51
:102F300003B05DF804FB82B00190019B1B781AB2CC
:102F4000019B01331B781B021BB213431BB29BB2C4
:102F5000184602B0704700B585B001900198FFF7A0
:102F6000EAFF0346ADF80E30BDF80E3003F0010362
:102F7000002B14BF01230023DBB2184605B05DF817
:102F800004FB000000B585B00190009100238DF88E
:102F90000F309DF80F305A1C8DF80F201A46019BF8
:102FA0001344009A12781A709DF80F305A1C8DF84D
:102FB0000F201A46019B1344009A52781A709DF80C
:102FC0000F30022B0CBF01230023DBB20293029BC4
:102FD000002B04D1054A4721002002F065FD9DF831
:102FE0000F30184605B05DF804FB00BFDC1F03007E
:102FF0008FDF704700BF18469EDF704700BF18463E
:10300000ADDF704700BF184682B00190019B9E2241
:103010001A80019B17225A80019B00221A71019B82
:1030200000225A71019BA2229A71019B1B22DA7124
:1030300000BF02B07047000000B587B003460091A2
:10304000ADF80630BDF80630009ADB0013441B7B58
:103050009BB2ADF80C30BDF80630009ADB0013448B
:103060001B7B9BB2ADF80E300023ADF8103000236F
:10307000ADF8123003A9BDF8063000221846FFF75C
:10308000B7FF0590059B002B06D0BDF80620059BD9
:103090000349012004F0AFFA00BF07B05DF804FB5C
:1030A0002020030000B587B001900091009B9B8811
:1030B000ADF81630BDF81630DB00019A1344063324
:1030C0000493019B1A79049B9A71009BDB7B012B73
:1030D00002D0022B05D009E0019B1A88049B1A80BC
:1030E00004E0019B5A88049B1A8000BF049B1A8845
:1030F000049B5B889A421BD9049B1A88BDF8163042
:1031000011461846FFF778FF0390039B002B03D16D
:10311000049B01225A710BE0039B112B03D1049BEA
:1031200001221A7104E0039A0949012004F04FFAC0
:10313000049B9A79049BDB799A4205D9BDF8163035
:1031400001991846FFF778FF00BF07B05DF804FB50
:103150009420030000B583B001900091009B9B88F0
:10316000DB00019A134406331846FFF74DFF00BFFA
:1031700003B05DF804FB00B587B001900091009B9F
:103180009B88ADF81630009B5B89ADF81430BDF814
:103190001630DB00019A134406330493049B1B880A
:1031A000BDF81420934228BF13469AB2049B5A805C
:1031B000049B5B88172B38BF17239AB2049B5A8055
:1031C000019B9B69002B15D0049B5B79002B11D0D0
:1031D00040F67723ADF80830BDF81630ADF80A3068
:1031E000049B5B88ADF80C30019B9B6902AA1146D9
:1031F00001989847049B00225A71049B00221A717F
:1032000000BF07B05DF804FB00B589B001900091E4
:10321000009B9B88ADF81C30009BDB88ADF81E300E
:10322000BDF81C30DB00019A134406330693BDF849
:103230001E30172B38BF1723ADF81E30069B1B8896
:10324000BDF81E20934228BF13469AB2069B5A80AF
:10325000069B00221A71069B1A88BDF81C30114685
:103260001846FFF7CDFE0590059B002B04D0059A6C
:103270001149012004F0ABF9069B5B79002B16D1B4
:10328000019B9B69002B13D040F67723ADF80C30DF
:10329000BDF81C30ADF80E30069B5B88ADF81030E1
:1032A000019B9B6903AA11460198984700E000BF63
:1032B00009B05DF804FB00BFF020030030B593B007
:1032C00001900091009B04AC1D1D0FCD0FC40FCDCC
:1032D0000FC40FCD0FC42B682360BDF81030ADF8BC
:1032E0004630BDF81420BDF84630D1B2019ADB005B
:1032F00013440A465A73019B9B69002B19D002ABF9
:1033000000221A609A804DF67A23ADF80830BDF895
:103310004630ADF80A30BDF84630019ADB00134460
:103320005B7B8DF80C30019B9B6902AA11460198CA
:10333000984700BF13B030BD00B589B0019000912F
:10334000009B04330693069B1B88DB00019A134401
:1033500006330793069B9B888DF81730079B9B7954
:103360009DF81720934228BF13468DF8163002AB04
:1033700000221A605A609DF816309BB2ADF80830F2
:103380009DF816309BB2ADF80A30069B1B8802A947
:1033900000221846FFF72CFE0490049B002B04D05B
:1033A000049A0449012004F012F900BF09B05DF845
:1033B00004FB00BF4821030000B585B001900091D7
:1033C000019B002B01D10E231DE0019B009A9A6105
:1033D000019B9E221A80019B9E225A80019BA22261
:1033E0001A71002303930AE0039BDB00019A134444
:1033F00006331846FFF708FE039B01330393039B34
:10340000012BF1D90023184605B05DF804FB82B00A
:1034100001900B46ADF80230019B002B01D10E2329
:103420000EE0BDF80230162B03D9BDF802309E2BFA
:1034300001D9072304E0019BBDF802201A80002374
:10344000184602B07047000000B585B001900091A9
:10345000009B9B88ADF80E30BDF80E30012B5FD875
:10346000009B1B88212B26D0212B04DC102B09D09C
:10347000112B0CD024E03A2B0ED0552B11D0222B3F
:1034800014D01DE000990198FFF70CFE18E0009998
:103490000198FFF75FFE13E000990198FFF76BFEBC
:1034A0000EE000990198FFF7AFFE09E0009901983E
:1034B000FFF704FF04E000990198FFF73DFF00BF0C
:1034C000BDF80E30019ADB0013449B7A002B28D004
:1034D000BDF80E30019ADB001344DA88BDF80E30D7
:1034E00011461846FFF788FD0290029B002B0ED173
:1034F000BDF80E30019ADB00134400229A72BDF829
:103500000E30019ADB0013440122DA7209E0029BBB
:10351000112B06D0029A0449012004F058F800E06B
:1035200000BF05B05DF804FB94200300A0DF7047E6
:1035300000BF1846A2DF704700BF1846A6DF7047DD
:1035400000BF184662DF704700BF184682B0019086
:103550000091009B9A88019B9A8200BF02B070473D
:1035600082B001900091019B4FF6FF729A8200BFDA
:1035700002B0704700B585B001900091009B063302
:103580000393039B1A88019B1B899A4213D1039BC7
:103590005B89022B0FD1039B0C331846FFF7DBFC32
:1035A0000346002B03D0019B01229A7517E0019B73
:1035B00000229A7513E0039B1A88019B9B899A420B
:1035C0000DD1019B9B69002B09D0019B9B69039A3C
:1035D00002F10C01039A528901989847FFE700BF56
:1035E00005B05DF804FB00B593B0019000910AAB03
:1035F0000322002118460DF0BAFC9DF82830012264
:1036000062F303038DF828309DF82830012262F31D
:1036100007138DF828309DF82930012262F3030347
:103620008DF829309DF82930012262F307138DF8B7
:1036300029309DF82A30012262F342038DF82A30A6
:103640000BAB1C22002118460DF091FC9DF82C308C
:1036500043F010038DF82C3000230C9300230E93BD
:1036600000230F930AAB109300231193019B1B7847
:103670008DF812300323ADF8103003AB0322002184
:1036800018460DF074FC9DF80C30012262F3030320
:103690008DF80C309DF80C30012262F307138DF881
:1036A0000C309DF80D30012262F303038DF80D30CC
:1036B0009DF80D30012262F307138DF80D309DF84F
:1036C0000E30012262F342038DF80E309DF80E3069
:1036D0006FF3C3038DF80E309DF80E306FF30413B3
:1036E0008DF80E309DF80E3043F001038DF80E304A
:1036F00005AB1422002118460DF039FC04AB0593EC
:1037000003AB06930123ADF81C300023ADF81E3047
:103710009B23ADF82030019B5888019B043305AAF8
:103720000BA9FFF707FF0346184613B05DF804FB2B
:1037300000B591B00190009109AB1C220021184600
:103740000DF015FC9DF8243043F008038DF824306B
:103750009DF8243043F004038DF8243000230A93AD
:1037600000230C9300230D9300230E9300230F934B
:10377000019B1B788DF80E300223ADF80C3002ABA4
:103780000322002118460DF0F2FB9DF808300122BB
:1037900062F303038DF808309DF80830012262F3CC
:1037A00007138DF808309DF80930012262F30303F6
:1037B0008DF809309DF80930012262F307138DF866
:1037C00009309DF80A30012262F342038DF80A3075
:1037D0009DF80A306FF3C3038DF80A309DF80A3064
:1037E0006FF304138DF80A309DF80A3043F001039B
:1037F0008DF80A3004AB1422002118460DF0B7FBF7
:1038000003AB049302AB05930123ADF818300023FA
:10381000ADF81A309B23ADF81C30019B5888019BF2
:103820000C3304AA09A9FFF785FE0346184611B018
:103830005DF804FB00B583B001900091019B002B63
:103840001FD0009B002B1CD0009B1B88112B0ED07F
:10385000112B02DC102B05D016E0502B0CD0A62B20
:1038600011D011E000990198FFF770FE0CE000996B
:103870000198FFF775FE07E000990198FFF77AFEBF
:1038800002E000BF00E000BF03B05DF804FB0000F1
:1038900010B588B001900091284B02AC0FCB84E8A2
:1038A0000F00019B002B01D10E2344E0009B002B55
:1038B00001D10E233FE0019B4FF6FF729A82009BDD
:1038C0001A68019B9A61019B01229A75019A02ABC9
:1038D00011461846FFF736FE0790079B002B01D0D4
:1038E000079B28E0019B1B788DF81A300123ADF867
:1038F0001830019B9A1C06AB19460120FFF716FEF3
:103900000790079B002B01D0079B14E000990198BA
:10391000FFF70EFF0790079B002B01D0079B0AE0E3
:1039200000990198FFF75FFE0790079B002B01D0DD
:10393000079B00E00023184608B010BDA821030033
:1039400000B589B0039002911346ADF80630039B91
:10395000002B01D10E232EE0039B9B8A4FF6FF72B2
:10396000934206D0039B9B7D83F00103DBB2002BC7
:1039700001D008231FE0BDF806309B2B01D9072397
:1039800019E004AB1022002118460DF0F0FA039B59
:103990009B88ADF81030029B07930DF10603069348
:1039A00001238DF81230039B9B8A04AA1146184606
:1039B000FFF7C4FD0346184609B05DF804FB82B06A
:1039C00001904FF08042019BC2F8083300BF02B063
:1039D000704784B00346ADF80630BDF8063003F1F9
:1039E000804300221A60BDF8063003F180431B6853
:1039F0000393039B00BF04B0704782B00346ADF849
:103A00000630BDF8063003F180431B68002B14BF5D
:103A100001230023DBB2184602B0704782B0034690
:103A20008DF807309DF807304FF0804203F0030314
:103A3000C2F8183500BF02B07047000082B00346DC
:103A40008DF807300A4A9DF907305B0952F82320A8
:103A50009DF8073003F01F03012101FA03F313401F
:103A6000002B14BF01230023DBB2184602B07047BD
:103A700000E100E008B50020FFF7E0FF034683F017
:103A80000103DBB2002B03D00721002000F01EF958
:103A900000BF08BD00B583B000230193134B1B7812
:103AA000002B02D0852301931BE0104B00229A606B
:103AB0000E4B00225A600D4B00221A610B4B002264
:103AC000DA60FFF7D7FF04F0F9F8034683F001034B
:103AD000DBB2002B02D00120FFF7A0FF034B012235
:103AE0001A70019B184603B05DF804FB8C3000206F
:103AF00084B00190019B1B680393039B002B03D0B0
:103B0000039B1A68019B1A60039B184604B0704718
:103B100000B585B003468DF807309DF80730002BBF
:103B200002D10C4B039301E00B4B03930398FFF777
:103B3000DFFF0290029B002B06D0029B5B689DF882
:103B4000072010469847F1E700BF00BF05B05DF8B9
:103B500004FB00BF943000209C30002008B54FF4D7
:103B60008070FFF74AFF0346002B0CD04FF48070A3
:103B7000FFF72FFF0120FFF722FF0E4B01225A70A3
:103B80000020FFF7C5FF4FF48270FFF736FF0346B2
:103B9000002B0CD04FF48270FFF71BFF0220FFF7C1
:103BA0000EFF044B01229A700120FFF7B1FF00BF06
:103BB00008BD00BF8C30002000B583B00190019B90
:103BC000002B02D10020FFF7A3FF00BF03B05DF878
:103BD00004FB000000B583B000238DF807300DF121
:103BE0000703184603F030F80C4B1B7883F00103F1
:103BF000DBB2002B01D0FFF74DFF084BDB68013330
:103C0000064AD360054B01229A709DF8073018468A
:103C100003F024F800BF03B05DF804FB8C300020F3
:103C200082B003468DF807309DF8073003F01F027D
:103C300005499DF907305B09012000FA02F241F8BD
:103C4000232000BF02B0704700E100E082B00346CD
:103C50008DF807309DF8073003F01F0206499DF9E3
:103C600007305B09012000FA02F2603341F823209B
:103C700000BF02B0704700BF00E100E082B0034621
:103C800000918DF807309DF90730002B0CDA009B6E
:103C9000DAB20C499DF8073003F00F03043B5201E0
:103CA000D2B20B441A7609E0009BDAB206499DF9BC
:103CB00007305201D2B20B4483F8002300BF02B098
:103CC000704700BF00ED00E000E100E000B583B008
:103CD00003460A468DF8073013468DF806309DF8E6
:103CE00006209DF9073011461846FFF7C7FF9DF9DA
:103CF00007301846FFF7AAFF9DF907301846FFF76F
:103D00008FFF00BF03B05DF804FB00B583B003462E
:103D1000ADF80630BDF80630184600F026F8034628
:103D20001B68012B0CBF01230023DBB2184603B034
:103D30005DF804FB00B585B00346ADF80630BDF86C
:103D40000630184600F011F803461A4600231360A7
:103D5000BDF80630184600F008F803461B680393C8
:103D6000039B00BF05B05DF804FB82B00346ADF8CD
:103D70000630BDF8063003F1804303F5C043184612
:103D800002B0704782B00190034A019BC2F804332D
:103D900000BF02B0704700BF0060004082B00190D9
:103DA000034BD3F80423019B1340184602B070471D
:103DB0000060004082B00190084A019B03F5A273A5
:103DC00052F82330054943F00102019B03F5A27329
:103DD00041F8232000BF02B0704700BF00600040E0
:103DE00084B00390029113468DF80730144A039B68
:103DF00003F5A27352F82330114923F4473323F417
:103E00004073039A02F5A27241F822300C4A039BD8
:103E100003F5A27352F82320029B1B0203F4F8510E
:103E20009DF807301B0403F440330B4304491A4345
:103E3000039B03F5A27341F8232000BF04B0704731
:103E40000060004082B00190054A019B03F5A27317
:103E500052F823301B0A03F01F03184602B07047C4
:103E60000060004082B00190064A019B03F5A273F6
:103E700052F823301B0C03F00303DBB2184602B0E8
:103E8000704700BF0060004082B001904FF0A04337
:103E9000184602B0704700B585B00190084611463B
:103EA0001A4603468DF803300B468DF80230134650
:103EB0008DF8013001AB1846FFF7E6FF03909DF83F
:103EC00003209DF802305B001A439DF801309B00EF
:103ED0001A439DF818301B0242EA03019DF81C307A
:103EE0001B04019A1943039B02F5E07243F8221068
:103EF00000BF05B05DF804FB00B585B003900B462C
:103F00008DF80B309DF80B200023019300230093C4
:103F10001346002200210398FFF7BDFF00BF05B044
:103F20005DF804FB00B585B0019001AB1846FFF7C2
:103F3000ABFF0390019A039B02F5E07253F8223025
:103F400023F002030293019A039B02F5E0720299A7
:103F500043F8221000BF05B05DF804FB00B585B042
:103F600001900B468DF8033001AB1846FFF78CFF2C
:103F70000390019A039B02F5E07253F82230019AF4
:103F800023F44031039B02F5E07243F82210019ABA
:103F9000039B02F5E07253F822309DF803201204CF
:103FA0001146019A1943039B02F5E07243F822106F
:103FB00000BF05B05DF804FB00B585B0019001AB12
:103FC0001846FFF761FF0390039800F020F80246BF
:103FD000019B22FA03F303F00103184605B05DF8D4
:103FE00004FB00B585B0019001AB1846FFF74CFF0C
:103FF0000390019A039B02F5E07253F822301B0CE8
:1040000003F00303DBB2184605B05DF804FB82B091
:104010000190019BD3F81035184602B0704700B5E7
:1040200087B00390029101924FF0A0430493039B49
:10403000059311E0059B9B0006AA134453F8083C26
:104040001846FFF7E4FF0246019B1A60019B043308
:104050000193059B01330593039A029B1344059A30
:104060009A42E7D300BF07B05DF804FB84B001902B
:104070000091009B0393019BDB080293019B03F0DB
:10408000070301930122019B02FA03F30399029AA9
:104090000A4412781340184604B0704784B0019067
:1040A0000091009B0393019BDB080293019B03F0AB
:1040B00007030193039A029B13441B785AB2012110
:1040C000019B01FA03F35BB2134359B2039A029BBB
:1040D0001344CAB21A7000BF04B0704782B0019096
:1040E0000C4A019B1344303393F90030002B09DB59
:1040F000084A019B1344303393F90030072B01DC4D
:10410000012300E0002303F00103DBB2184602B0F4
:10411000704700BFA030002082B00190064A019B8A
:104120001344303393F90030072BCCBF0123002315
:10413000DBB2184602B07047A030002082B0019078
:10414000064A019B1344303393F90030DB43DBB262
:10415000DB09DBB2184602B0704700BFA030002078
:1041600084B00390029101928DF80330029B59B202
:104170000E4A039B134430330A461A700B49029BC4
:10418000019A41F823209DF8033083F00103DBB24C
:10419000002B08D0029B083B039A51B2034A1344F8
:1041A0000A4683F8502000BF04B07047A0300020BA
:1041B00082B00190044A019B13443033FF221A70ED
:1041C00000BF02B0704700BFA030002082B0019055
:1041D000044A019B1344303393F90030184602B06F
:1041E000704700BFA030002082B00190034A019BBD
:1041F00052F82330184602B0704700BFA0300020AC
:1042000000B589B00390029113468DF80730FF2363
:104210008DF81F309DF80730002B01D0002300E0FF
:10422000082305939DF80730002B01D0082300E0F8
:104230000C230493059B069314E00F4A069B52F847
:104240002330B3F1FF3F0AD19DF80730029A069957
:104250000398FFF785FF069B8DF81F3006E0069B4D
:1042600001330693069A049B9A42E6D39DF91F30C8
:10427000184609B05DF804FBA030002082B0034668
:104280008DF807309DF80730094A4FF0FF3142F8AA
:1042900023109DF80730072B07D99DF80730083BFE
:1042A000034A1344FF2283F8502000BF02B0704736
:1042B000A030002000B583B0214B93F85430002B80
:1042C00003D008230093009B36E000238DF80730CD
:1042D00009E09DF807301846FFF76AFF9DF80730A0
:1042E00001338DF807309DF807301F2BF1D90023DB
:1042F0008DF8073009E09DF807301846FFF7BEFF3C
:104300009DF8073001338DF807309DF807300B2BEF
:10431000F1D907210620FFF7D9FC4FF4BE70FFF753
:1043200009FD4FF00040FFF72DFD054B012283F8FA
:10433000542000230093009B184603B05DF804FB53
:10434000A0300020044B93F85430002B14BF0123FD
:104350000023DBB218467047A030002000B587B0BC
:10436000039002910192002305930398FFF7E6FE64
:104370000346002B02D00823059341E0029BDB7823
:104380001A4601990398FFF73BFF03468DF8133057
:104390009DF91330B3F1FF3F30D0029B9B78002B87
:1043A00003D00398FFF7BEFD05E0029B5B7819463A
:1043B0000398FFF7A1FD029BDB78002B08D09DF945
:1043C0001300029B1B781A460399FFF709FD17E0BB
:1043D0009DF91330083B0D4A134493F95010029B8A
:1043E0001B789B015AB29DF91330083B0A4351B226
:1043F000064A13440A4683F8502001E0042305933B
:10440000059B184607B05DF804FB00BFA0300020F4
:1044100000B587B001900B468DF803300198FFF787
:104420007BFE0346002B2FD00198FFF7CFFE0346FB
:10443000083B304A134493F950308DF816309DF8FC
:1044400016309B098DF815309DF81530032B0BD1D4
:104450000198FFF7B1FD0346002B01D0032300E0D4
:1044600002238DF8173008E09DF81530012B01D19B
:10447000022300E003238DF817309DF8173019460A
:104480000198FFF76BFD30E00198FFF727FE034628
:10449000002B2AD00198FFF799FE03460493049B52
:1044A0009BB240339BB29B00ADF80E30049B184684
:1044B000FFF780FCBDF80E301846FFF73BFC9DF877
:1044C0000330002B11D00198FFF780FE03461846F9
:1044D000FFF78AFE0290029B002B06D00122049B6C
:1044E00002FA03F31846FFF74DFC00BF07B05DF872
:1044F00004FB00BFA030002000B595B0002313934B
:10450000002303934FF48073ADF8463001231093DA
:104510000023129321E0BDF846301846FFF7F5FB63
:104520000346002B0ED01098FFF738FC0346002BF3
:1045300008D0BDF846301846FFF7FCFB139A109BD5
:1045400013431393109B5B001093BDF84630043364
:10455000ADF84630129B01331293129B072BDAD928
:104560004FF4BE70FFF7D1FB0346002B0DD04FF484
:10457000BE70FFF7DFFB139B43F00043139303ABC5
:104580001A4601210020FFF74AFD139BDBB2002BE6
:1045900029D0012310930023129321E0109A139B3A
:1045A0001340002B16D01298FFF74CFC0D90129878
:1045B000FFF758FC03468DF833301298FFF714FECE
:1045C0000B900B9B002B05D09DF833200B9B1146C5
:1045D0000D989847109B5B001093129B0133129328
:1045E000129B072BDAD9139B002B80F2EE8000235D
:1045F0008DF83B300023029300230F930AE00F9BBA
:104600009B0014AA13444FF0FF3243F84C2C0F9B2D
:1046100001330F930F9B002BF1D000238DF83B301B
:104620000023129378E06B4A129B1344503393F9A2
:1046300000308DF82B309DF82B3023F0C003099308
:10464000644A129B1344503393F90030B3F1FF3F97
:104650005FD001AB19460998FFF708FD0346002B10
:1046600057D09DF82B309B098DF823300998FFF720
:10467000ADFD03461846FFF7B7FD0790079B002BDB
:1046800003D19DF82330032B43D19DF82330032B16
:1046900004D102AB19460998FFF700FD0998FFF70E
:1046A000A0FC03468DF81B3003AB19460998FFF7B1
:1046B000DDFC0590059B002B03D09DF81B30022BE1
:1046C00006D0059B002B24D19DF81B30032B20D155
:1046D0009DF82330032B13D19DF81B30022B01D101
:1046E000032300E002238DF813309DF813301946A0
:1046F0000998FFF733FC9DF83B3001338DF83B30D0
:10470000079B002B05D09DF82320079B1146099895
:104710009847129B01331293129B032B83D99DF868
:104720003B30002B4CD001238DF83A306B461A46B3
:1047300001210020FFF773FC00230F9314E00F9B6F
:104740009B0014AA134453F8502C0F9B9B0014A9F0
:104750000B4453F8443C9A4203D000238DF83A307E
:1047600005E00F9B01330F930F9B002BE7D09DF8C3
:104770003A30002B03D000238DF83B3020E000239B
:104780000F931AE00F9B9B0014AA134453F8502C6C
:104790000F9B9B0014A90B4443F8442C0F9B9B00D8
:1047A00014AA134453F8482C0F9B9B0014A90B44E4
:1047B00043F84C2C0F9B01330F930F9B002BE1D040
:1047C0009DF83B30002B7FF428AF00BF15B05DF89B
:1047D00004FB00BFA030002084B001900B46ADF870
:1047E0000230BDF80230019A134400221A60BDF86D
:1047F0000230019A13441B680393039B00BF04B06B
:10480000704782B001900B46ADF80230BDF802301F
:10481000019A13441B68002B14BF01230023DBB251
:10482000184602B0704782B001900091019B009A37
:10483000C3F8042300BF02B0704782B0019000911A
:10484000019BD3F80423009B1340002B14BF0123CA
:104850000023DBB2184602B0704782B0019000918D
:10486000019B009AC3F8082300BF02B0704784B0D0
:104870000190019BD3F880340393019B039AC3F802
:104880008024039B184604B0704782B00190019BBE
:104890000422C3F8002500BF02B0704784B0039023
:1048A00002910192039B019AC3F81425039B029A7B
:1048B000C3F80C2500BF04B0704784B00390029188
:1048C0000192039B029AC3F80825039B019AC3F83F
:1048D000102500BF04B0704782B00190019BD3F84F
:1048E0001835DBB2184602B0704782B001900B4613
:1048F0008DF803309DF80320019BC3F81C2500BFF1
:1049000002B0704782B001900B468DF803309DF8DD
:104910000330019A134401221A6000BF02B07047AD
:1049200082B001900B468DF8033013468DF80230AB
:104930009DF803209DF802301343DBB21A46019B19
:10494000C3F86C2500BF02B0704782B0019000919F
:10495000019B009AC3F8242500BF02B0704784B0C1
:1049600001900B46ADF80230BDF80230019A1344B5
:1049700000221A60BDF80230019A13441B680393A9
:10498000039B00BF04B0704782B001900B46ADF8A6
:104990000230BDF80230019A13441B68002B14BF8B
:1049A00001230023DBB2184602B0704782B00190A9
:1049B0000091019BD3F80022009B1A43019BC3F88E
:1049C000002200BF02B0704782B001900091019BAD
:1049D000D3F80022009BDB431A40019BC3F800225E
:1049E00000BF02B0704782B001900091019B009A15
:1049F000C3F8042300BF02B0704782B00190009159
:104A0000019B009AC3F8082300BF02B0704784B02E
:104A10000190019BD3F880340393019B039AC3F860
:104A20008024039B184604B0704782B00190019B1C
:104A30000822C3F8002500BF02B0704784B003907D
:104A400002910192039B029AC3F80C25039B019AE1
:104A5000C3F8142500BF04B0704784B003900291DE
:104A60000192039B029AC3F80825039B019AC3F89D
:104A7000102500BF04B0704782B001900B468DF83E
:104A800003309DF80330019A134401221A6000BFDD
:104A900002B0704782B001900B468DF80330134688
:104AA0008DF802309DF803209DF802301343DBB2ED
:104AB0001A46019BC3F86C2500BF02B0704782B054
:104AC00001900091019B009AC3F8242500BF02B019
