:020000021000EC
:10F000000000012033F10100D9F00100DBF0010024
:10F01000DDF00100DFF00100E1F001000000000080
:10F02000000000000000000000000000E3F001000C
:10F03000E5F0010000000000E7F00100E9F0010048
:10F04000A1500200EDF00100C56F02003DF8020082
:10F05000F3F00100F5F001003D5A020041CB02003F
:10F060008D000300FDF00100FFF0010019FF020018
:10F0700003F1010005F1010007F1010009F10100B0
:10F080000BF10100997E02000FF1010011F1010066
:10F09000D97E020015F101007D93020019F10100F3
:10F0A0001BF101001DF101001FF1010021F1010020
:10F0B000A9C4020025F101000000000000000000CA
:10F0C00027F1010029F101002BF101002DF10100D0
:08F0D0002FF1010031F10100F4
:10F0D800FEE7FEE7FEE7FEE7FEE7FEE7FEE7FEE700
:10F0E800FEE7FEE7FEE7FEE7FEE7FEE7FEE7FEE7F0
:10F0F800FEE7FEE7FEE7FEE7FEE7FEE7FEE7FEE7E0
:10F10800FEE7FEE7FEE7FEE7FEE7FEE7FEE7FEE7CF
:10F11800FEE7FEE7FEE7FEE7FEE7FEE7FEE7FEE7BF
:10F12800FEE7FEE7FEE7FEE7FEE70348854600F058
:10F13800CBF800F003B87047000001203749384881
:10F148000A1A02D0072291438D46364936480A1AD0
:10F1580006D00722914381F30988022282F314889A
:10F1680032483349334A00F048F833483349344A7F
:10F1780000F043F833483449344A00F03EF8344844
:10F188003449354A00F039F834483549354A00F0F1
:10F1980034F835483549364A00F02FF835483649AD
:10F1A800364A00F02AF836483649374A00F025F83A
:10F1B80036483749002200F02BF8364836490022F5
:10F1C80000F026F835483649091A082903DB0022D9
:10F1D8000260043001601F481F49884205D0026858
:10F1E800043003B4904703BCF7E700208646EC469A
:10F1F800002000212B4A9047FEE7884207D0521A88
:10F2080005D0037801300B700131013AF9D170470C
:10F21800884202D002700130FAE7704700000120EE
:10F2280000FC00200000012000000120A05E030077
:10F23800F82500205C270020B0F20100B0F20100A0
:10F24800543C0300A05E0300F8250020F8250020A8
:10F25800543C0300543C0300543C0300543C03005A
:10F26800543C0300543C0300543C0300543C03004A
:10F27800A05E0300046003005C2700205C270020D8
:10F28800046003005C2700205C2700205C27002026
:10F29800BC400020BC400020C4400020C4400020E6
:08F2A800C44400204D2A0200BD
:10F2B00000487047B440002070477047024B034A33
:10F2C0001A6000BF704700BFF82500200090D003EF
:10F2D00008B500F00DF90346002B06D0744B1B68EF
:10F2E0001B0A744A03F01F03136000F02DF9034654
:10F2F000002B02D0704B714A1A6000F041F90346AE
:10F30000002B06D06E4B1B685B0B6E4A03F00703A5
:10F31000136000F061F90346002B05D06A4BDB68EF
:10F32000694A23F08073D36000F072F90346002B22
:10F330000ED04FF080430022C3F80C214FF08043E1
:10F340000022C3F810214FF080430022C3F8382573
:10F3500000F08AF90346002B02D05C4B03221A60AE
:10F3600000F09EF90346002B0BD0594B05221A6082
:10F37000584B01221A60584B00221A60574B3F220B
:10F380001A6000F0A9F90346002B76D04FF08053A5
:10F39000534AD3F80434C2F820354FF08053504A12
:10F3A000D3F80834C2F824354FF080534C4AD3F8D0
:10F3B0000C34C2F828354FF08053494AD3F8103442
:10F3C000C2F82C354FF08053454AD3F81434C2F8B4
:10F3D00030354FF08053424AD3F81834C2F83435F0
:10F3E0004FF080533E4AD3F81C34C2F840354FF0FA
:10F3F00080533B4AD3F82034C2F844354FF0805351
:10F40000374AD3F82434C2F848354FF08053344A91
:10F41000D3F82834C2F84C354FF08053304AD3F833
:10F420002C34C2F850354FF080532D4AD3F8303485
:10F43000C2F854354FF08053294AD3F83434C2F817
:10F4400060354FF08053264AD3F83834C2F864351B
:10F450004FF08053224AD3F83C34C2F868354FF05D
:10F4600080531F4AD3F84034C2F86C354FF08053B4
:10F470001B4AD3F84434C2F8703500F049F903460A
:10F48000002B05D0174B1B68174A03F04F0313607E
:10F49000164BD3F88830154A43F47003C2F888300D
:10F4A000BFF34F8FBFF36F8FFFF708FF00BF08BD9B
:10F4B000240300104035014074C007400DF0ADBA80
:10F4C000440200103C050040F0ED00E0A0050040C3
:10F4D0001056004088560040185600401456004010
:10F4E00000C0004058020010E40E004000ED00E0B3
:10F4F000124B1B68DBB2062B1DD1114B1B6803F0AE
:10F500000F03002B17D10F4B1B6803F0F003302BB8
:10F5100001D1012310E00B4B1B6803F0F003402BDB
:10F5200001D1012308E0074B1B6803F0F003502BC7
:10F5300001D1012300E0002318467047E00F00F0DE
:10F54000E40F00F0E80F00F00A4B1B68DBB2062B5B
:10F550000DD1094B1B6803F00F03002B07D1074B9C
:10F560001B6803F0F003302B01D1012300E00023DE
:10F5700018467047E00F00F0E40F00F0E80F00F0CD
:10F58000124B1B68DBB2062B1DD1114B1B6803F01D
:10F590000F03002B17D10F4B1B6803F0F003302B28
:10F5A00001D1012310E00B4B1B6803F0F003402B4B
:10F5B00001D1012308E0074B1B6803F0F003502B37
:10F5C00001D1012300E0002318467047E00F00F04E
:10F5D000E40F00F0E80F00F00A4B1B68DBB2062BCB
:10F5E0000DD1094B1B6803F00F03002B07D1074B0C
:10F5F0001B6803F0F003302B01D1012300E000234E
:10F6000018467047E00F00F0E40F00F0E80F00F03C
:10F61000124B1B68DBB2062B1DD1114B1B6803F08C
:10F620000F03002B17D10F4B1B6803F0F003302B97
:10F6300001D1012310E00B4B1B6803F0F003402BBA
:10F6400001D1012308E0074B1B6803F0F003502BA6
:10F6500001D1012300E0002318467047E00F00F0BD
:10F66000E40F00F0E80F00F00A4B1B68DBB2062B3A
:10F670000DD1094B1B6803F00F03002B07D1074B7B
:10F680001B6803F0F003302B01D1012300E00023BD
:10F6900018467047E00F00F0E40F00F0E80F00F0AC
:10F6A0000A4B1B68DBB2062B0DD1094B1B6803F01C
:10F6B0000F03002B07D1074B1B6803F0F003302B1F
:10F6C00001D1012300E0002318467047E00F00F04D
:10F6D000E40F00F0E80F00F00A4B1B68DBB2062BCA
:10F6E0000DD1094B1B6803F00F03002B07D1074B0B
:10F6F0001B6803F0F003502B01D1012300E000232D
:10F7000018467047E00F00F0E40F00F0E80F00F03B
:10F71000124B1B68DBB2062B1DD1114B1B6803F08B
:10F720000F03002B17D10F4B1B6803F0F003302B96
:10F7300001D1012310E00B4B1B6803F0F003402BB9
:10F7400001D1012308E0074B1B6803F0F003502BA5
:10F7500001D1012300E0002318467047E00F00F0BC
:10F76000E40F00F0E80F00F082B003468DF8073098
:10F770009DF8073003F01F0206499DF907305B0929
:10F78000012000FA02F2603341F8232000BF02B0EA
:10F79000704700BF00E100E0BFF34F8F054BDB680F
:10F7A00003F4E0620349044B1343CB60BFF34F8F74
:10F7B00000BFFDE700ED00E00400FA053EDF704702
:10F7C00000BF184608B5FFF7E7FF42F203031846EB
:10F7D00008BD76DF704700BF18467ADF704700BF6C
:10F7E00018467CDF704700BF18467FDF704700BFB8
:10F7F00018468ADF704700BF18468FDF704700BF8A
:10F800001846A8DF704700BF1846A9DF704700BF41
:10F81000184669DF704700BF184666DF704700BFB3
:10F820001846000084B00190244B0393019B002BE9
:10F8300040D0234B1A680399019B00BF00BF00BF53
:10F8400000BF00BF00BF00BF00BF8A422FD000BF73
:10F8500000BF00BF00BF00BF00BF00BF00BF00BFB0
:10F8600000BF00BF00BF00BF00BF00BF00BF00BFA0
:10F8700000BF00BF00BF00BF00BF00BF00BF00BF90
:10F8800000BF00BF00BF00BF00BF00BF00BF00BF80
:10F8900000BF00BF00BF00BF00BF00BF00BF00BF70
:10F8A00000BF00BF00BF00BF00BF00BF00BF013BE3
:10F8B000C3D1019300BF04B0704700BF0024F4001F
:10F8C000F825002000B583B00190019B4FF47A72B7
:10F8D00002FB03F31846FFF7A5FF00BF03B05DF876
:10F8E00004FB82B003468DF807309DF80730012BEA
:10F8F00003D0022B03D0002B02E000BF00E000BFCA
:10F9000000BF02B07047000000B587B00390039BB2
:10F910001B788DF81730294A9DF8173013709DF821
:10F920001730062B42D801A252F823F049F9010002
:10F9300061F9010085F901008DF9010095F90100D7
:10F940009DF90100A5F90100039B1A791C4B1A705F
:10F95000039B5A881B4B1A801B4B00221A7029E00C
:10F960004FF47A7300934FF4FA730522642140F642
:10F97000C41010F057FC154B01221A70124B0422D0
:10F980001A7017E0104B05221A7013E00E4B01227B
:10F990001A700FE00C4B02221A700BE00A4B032284
:10F9A0001A7007E0084B06221A7003E0064B00228B
:10F9B0001A7000BF00BF07B05DF804FB602700208D
:10F9C0005C2700205E27002061270020622700209E
:10F9D00010B508F03FFB0346184610F0E4FF08A3FB
:10F9E000D3E9002311F080FA03460C46184621465D
:10F9F00011F011F80346184610BD00BFAFF30080A8
:10FA0000FCA9F1D24D62404082B001900091009A71
:10FA1000019B9A4205D2009A019BD31A03F1FA6323
:10FA200002E0009A019BD31A184602B0704786B0D4
:10FA30000190009100238DF81730002304931AE001
:10FA4000049BC3F105031A46019B13441B788DF8F0
:10FA50000F30049B009A13441B789DF80F209A42A4
:10FA600003D101238DF8173002E000238DF8173001
:10FA7000049B01330493049B052BE1DD9DF81730B3
:10FA8000184606B0704700B585B00190009100237C
:10FA90008DF80F3006220199009812F01FFB0346E3
:10FAA000002B03D101238DF80F300DE00099019850
:10FAB000FFF7BDFF0346002B03D001238DF80F3065
:10FAC00002E000238DF80F309DF80F30184605B086
:10FAD0005DF804FB00B58DB0039002910192039B89
:10FAE0005B68099300238DF82E3004AB0C220021B3
:10FAF000184613F0A8F800230A931CE0039B1A6829
:10FB00000A9B4FF48C7101FB03F313448033089379
:10FB100002990898FFF7B7FF03468DF82E309DF83D
:10FB20002E30002B04D0019B0A9A1A60012320E09A
:10FB30000A9B01330A930A9A099B9A42DEDB9DF8DD
:10FB40002E3083F00103DBB2002B05D0019B4FF078
:10FB5000FF321A6000230CE0079BB3F1FF3F03D193
:10FB600000238DF82F3002E001238DF82F309DF80F
:10FB70002F3018460DB05DF804FB00B58FB0039030
:10FB800002910192039B5B68099300238DF8323048
:10FB900000238DF8313004AB0C220021184613F0FD
:10FBA00052F800230B934BE000238DF82B30039B7E
:10FBB0001A680B9B4FF48C7101FB03F313440893F9
:10FBC000039B1A680B9B4FF48C7101FB03F31344E6
:10FBD000863307930299089813F08AF80346002B9E
:10FBE00002D101238DF832300299079813F080F882
:10FBF0000346002B02D101238DF831309DF83130BE
:10FC0000002B03D19DF83230002B02D001238DF858
:10FC10002B3004AB03F1080204AB191D04A8012327
:10FC200010F09CFD0346002B07D1049A059B591C3C
:10FC3000059113449DF82B201A700B9B01330B93F5
:10FC40000B9A099B9A42AFDB00230D9308E0049ABC
:10FC50000D9B13441B78002B07D10D9B01330D9393
:10FC6000059B0D9A9A42F2DB00E000BF059B0D9ABE
:10FC70009A4202D14FF0FF330D93019B0D9A1A6007
:10FC80000D9BB3F1FF3F03D100238DF8333002E029
:10FC900001238DF83330049B184612F0AFF904AB02
:10FCA0000C220021184612F0CEFF9DF83330184682
:10FCB0000FB05DF804FB000000B587B00190009123
:10FCC0000023059300238DF80F301949019812F095
:10FCD00091FC049022E00098009B191D009B03F109
:10FCE0000802042310F03AFD0346002B0AD1009BC2
:10FCF0001A68009B5B68581C009948609B0013447D
:10FD0000049A1A600A49002012F074FC04909DF8CD
:10FD10000F30002B06D1059B01330593049B002B6C
:10FD2000D9D100E000BF059B184607B05DF804FB81
:10FD30002C3E030000B585B001902249019812F0D5
:10FD4000D7FF0346002B02D10123039334E01E4961
:10FD5000019812F0CDFF0346002B02D1022303933A
:10FD60002AE01A49019812F0C3FF0346002B02D182
:10FD70000323039320E01649019812F0B9FF0346CC
:10FD8000002B02D10423039316E01249019812F0CC
:10FD9000AFFF0346002B02D1052303930CE00E496D
:10FDA000019812F0A5FF0346002B02D1062303930E
:10FDB00002E04FF0FF330393039B184605B05DF854
:10FDC00004FB00BF303E0300383E0300403E03000A
:10FDD000483E03004C3E0300503E0300F0B5ADF535
:10FDE0008A5D85B00CAB043B18600CAB083B196016
:10FDF0000CAB0A3B1A8000230DF58A5202F10C026B
:10FE000013608AE054AB083B4FF48052002118463F
:10FE100012F019FF0CAB083B1B681A680DF58A53EA
:10FE200003F10C031B684FF48C7101FB03F31344C3
:10FE30000CAA104619464FF48C731A4612F0DAFEDB
:10FE40000CAB93F8803019460CAB93F88130184610
:10FE50000CAB93F882301C460CAB93F883301D46F4
:10FE60000CAB93F884301E460CAB93F885301F46DC
:10FE70000CAA0CAB8633069305970496039502945F
:10FE80000190009113462D4A0021002012F09EFAA5
:10FE900003460DF58A5202F1080213600CAB93F889
:10FEA00080309C460CAB93F8813019460CAB93F82C
:10FEB00082301C460CAB93F883301D460CAB93F894
:10FEC00084301E460CAB93F885301F460CAA54A80C
:10FED00008380CAB8633059304970396029501947A
:10FEE00000916346154912F085FA0DF58A5303F126
:10FEF00008031B689AB254A908390CAB043B186874
:10FF000004F0C0FF0DF58A5303F10C031B680133A5
:10FF10000DF58A5202F10C0213600CAB0A3B1B88F0
:10FF20000DF58A5202F10C0212689A42FFF66AAF8E
:10FF300000BF0DF58A5D05B0F0BD00BF583E03005F
:10FF400000B5ADF5815D81B008AB0C3B186008AB26
:10FF5000103B196008AB113B1A7000230DF580525D
:10FF600002F11C02136008AB043B4FF480520021E5
:10FF7000184612F068FE08AB113B1B78002B01D02D
:10FF80001A4A00E01A4A08AB103B00921B68194A53
:10FF90000021002012F01AFA03460DF5805202F1FA
:10FFA0001C02136008AB113B1B78002B01D00F4BD8
:10FFB00000E00F4B08AA103A08A8043812680D494F
:10FFC00012F018FA0DF5805303F11C031B689AB266
:10FFD00008A9043908AB0C3B186804F053FF00BFB4
:10FFE0000DF5815D01B05DF804FB00BF8C3E0300A0
:10FFF000943E03009C3E030000B5ADF5805D85B0E6
:020000022000DC
:1000000004AB0C3B18600A4604AB0D3B1A7000238E
:100010000DF5805202F10C02136004AB043B4FF467
:1000200080520021184612F00EFE04AB0D3B1B78E7
:10003000002B01D0174B00E0174B184A002100207D
:1000400012F0C4F903460DF5805202F10C02136060
:1000500004AB0D3B1B78002B01D00E4A00E00E4A8A
:1000600004AB043B0D49184612F0C4F90DF580535A
:1000700003F10C031B689AB204A9043904AB0C3BCE
:10008000186804F0FFFE00BF0DF5805D05B05DF857
:1000900004FB00BF8C3E0300943E0300C03E0300FF
:1000A00000B5ADF5805D85B004AB0C3B18600A4629
:1000B00004AB0D3B1A7000230DF5805202F10C02C7
:1000C000136004AB043B4FF480520021184612F039
:1000D000BAFD04AB0D3B1B78002B01D0174B00E0A1
:1000E000174B184A0021002012F070F903460DF555
:1000F000805202F10C02136004AB0D3B1B78002B05
:1001000001D00E4A00E00E4A04AB043B0D491846EC
:1001100012F070F90DF5805303F10C031B689AB2CD
:1001200004A9043904AB0C3B186804F0ABFE00BF13
:100130000DF5805D05B05DF804FB00BF8C3E03004B
:10014000943E0300D83E030000B5ADF5805D87B056
:1001500006AB0C3B186006AB103B196006AB123BBC
:100160001A8006AB103B1B685B680DF5805202F1EC
:10017000140213600DF5805303F114031B68002B68
:1001800020DC194B0DF5805202F11002136006AB12
:10019000083B0DF5805202F110021168184612F06A
:1001A00029F90DF5805303F11003186812F0C7FD0B
:1001B00003469AB206A9083906AB0C3B186804F04E
:1001C00061FE0AE006AB123B1A8806A9103906AB9D
:1001D0000C3B09681868FFF701FE002318460DF56F
:1001E000805D07B05DF804FBF03E030000B585B00C
:1001F00001900091019B0393009B0293039B1A685B
:10020000029B1B681946104612F072FD0346184601
:1002100005B05DF804FB000000B58BB003900291BF
:10022000029B0993212308930D4B082208990D483E
:1002300011F0ACFF05AB00221A605A60099B0593D0
:1002400005A8074B00930823089A064911F082FD80
:100250000790079B1B7918460BB05DF804FB00BFA5
:10026000ED0102000C260020F0B5ADF5885D81B0EF
:10027000044618A818380160114618AA1C3A1360E1
:1002800018AB113B22461A7018AB123B0A461A7083
:1002900018AB113B1B78152B07D918AB183B1B6803
:1002A000002B02DA072301F044B800230DF5875232
:1002B00002F11C021360B94B1A6818AB183B1B689B
:1002C0004FF48C7101FB03F313440DF5875202F1D7
:1002D0001802136018AB113B1B781F2B01F228800A
:1002E00001A252F823F000BF6903020023040200B8
:1002F00091040200F3040200030702000907020050
:100300000F0702000B0402006F0302009F030200AC
:10031000C90302001D040200F3030200FF030200F0
:10032000150702005D080200730502003D06020089
:10033000E9060200CF060200311302003113020069
:10034000BD0B0200CD090200D10D0200270C0200F6
:100350004F0D0200190F020049100200991102000E
:1003600069120200BF120200002300F0E2BF8C4BB2
:1003700000221A708B4B00221A708B4B1B78002BBB
:1003800014BF01230023DBB283F00103DBB203F0CF
:100390000103DAB2844B1A70002300F0CABF804B0D
:1003A0001B78002B14BF01230023DBB283F0010371
:1003B000DBB203F00103DAB2794B1A70794B0022F9
:1003C0001A70002300F0B5BF754B00221A70754BF0
:1003D0001B78002B14BF01230023DBB283F0010341
:1003E000DBB203F00103DAB26E4B1A70002300F0A7
:1003F000A0BF6E4B01221A70002300F09ABF6B4B16
:1004000000221A70002300F094BF654B00221A707E
:10041000644B00221A70002300F08BBF002300F011
:1004200088BF38AB0C3B4FF480520021184612F0C5
:100430000AFC5F4B1B881A465E4B1B7800931346E1
:100440005D4A0021002011F0C1FF03460DF58752DF
:1004500002F11C021360564B1B881A46554B1B7841
:1004600038A80C38544911F0C5FF0DF5875303F136
:100470001C031B689AB238AB0C3B19460DF5885328
:1004800003F11803186804F0FDFC002300F051BFCD
:1004900038AB0C3B4FF480520021184612F0D3FBCE
:1004A000464B1B78464A0021002011F08FFF03467F
:1004B0000DF5875202F11C021360404B1B781A465F
:1004C00038AB0C3B3E49184611F094FF0DF58753AD
:1004D00003F11C031B689AB238AB0C3B19460DF5AF
:1004E000885303F11803186804F0CCFC002300F0D3
:1004F00020BF38AB0C3B4FF480520021184612F05D
:10050000A2FB2B4B1B8819462A4B1B781A462B4BF8
:100510001B78019300920B462A4A0021002011F01B
:1005200055FF03460DF5875202F11C021360204B64
:100530001B881A461F4B1B781946204B1B7838A87E
:100540000C3800930B461F4911F054FF0DF58753EB
:1005500003F11C031B689AB238AB0C3B19460DF52E
:10056000885303F11803186804F08CFC002300F092
:10057000E0BE38AB0C3B4FF480520021184612F01D
:1005800062FB114B1B78002B01D0104A00E0104A8F
:10059000064B1B78002B1DD00C4B1CE0682700205D
:1005A000822700208327002087270020862700201D
:1005B0005E2700205C270020043F03006127002005
:1005C000203F03003C3F0300812700208C3E0300B6
:1005D000943E0300964B00931346964A0021002058
:1005E00011F0F4FE03460DF5875202F11C02136070
:1005F000914B1B78002B01D0904A00E08C4A904B25
:100600001B78002B01D08D4B00E0894B38A80C38AB
:10061000884911F0EFFE0DF5875303F11C031B68A9
:100620009AB238AB0C3B19460DF5885303F1180309
:10063000186804F027FC002300F07BBE38AB0C3BAD
:100640004FF480520021184612F0FDFA7D4B1B78C2
:10065000002B01D0794A00E0754A7B4B1B78002BB8
:1006600001D0764B00E0724B00931346774A00218D
:10067000002011F0ABFE03460DF5875202F11C027B
:100680001360704B1B78002B01D06C4A00E0684A65
:100690006D4B1B78002B01D0684B00E0644B38A8F1
:1006A0000C386A4911F0A6FE0DF5875303F11C03BF
:1006B0001B689AB238AB0C3B19460DF5885303F111
:1006C0001803186804F0DEFB002300F032BE5A4B1A
:1006D0001B7819460DF5885303F118031868FFF7C6
:1006E0008BFC002300F025BE554B1B7819460DF5F9
:1006F000885303F118031868FFF7D2FC002300F0B9
:1007000018BE002300F015BE002300F012BE002327
:1007100000F00FBE18AB123B1B78002B57D04C4B90
:100720001B680DF5875202F11402136018AB1C3BD5
:100730000A220021186811F093FF0DF5875303F189
:1007400010031860424A0DF5875303F110031B682C
:10075000136038AB0C3B4FF480520021184612F066
:1007600072FA0DF5875303F110031B6800930DF522
:10077000875303F114031B68364A0021002011F04F
:1007800025FE03460DF5875202F11C02136038A8BE
:100790000C380DF5875303F110031B680DF58752D4
:1007A00002F1140212682B4911F024FE0DF5875353
:1007B00003F11C031B689AB238AB0C3B19460DF5CC
:1007C000885303F11803186804F05CFB2CE038AB85
:1007D0000C3B4FF480520021184612F034FA1C4BA7
:1007E0001B681D4A0021002011F0F0FD03460DF5A5
:1007F000875202F11C021360154B1A6838AB0C3B90
:100800001549184611F0F6FD0DF5875303F11C0349
:100810001B689AB238AB0C3B19460DF5885303F1AF
:100820001803186804F02EFB002300F082BD00BFFF
:10083000943E0300583F0300812700208C3E0300B4
:10084000862700208527002084270020743F03008E
:1008500008260020903F0300C43F030018AB123B62
:100860001B78002B6ED0564B1B680DF5875202F19A
:100870000C02136018AB1C3B0021186811F0F0FD4E
:100880000DF5875303F1080383ED000A4C4A0DF57B
:10089000875303F108031B68136038AB0C3B4FF41C
:1008A00080520021184612F0CEF90DF5875303F15E
:1008B0000C03186810F0C5F804460D460DF5875373
:1008C00003F10803186810F0BCF802460B46CDE9A6
:1008D0000223CDE900453B4A0021002011F076FDBE
:1008E00003460DF5875202F11C0213600DF5875384
:1008F00003F10C03186810F0A4F805460E460DF538
:10090000875303F10803186810F09BF803460C4660
:1009100038A80C38CDE900342A463346294911F06D
:1009200069FD0DF5875303F11C031B689AB238ABC0
:100930000C3B19460DF5885303F11803186804F0B1
:10094000A1FA39E038AB0C3B4FF480520021184635
:1009500012F079F91A4B1B68184610F072F803462A
:100960000C46CDE90034184A0021002011F02EFD7C
:1009700003460DF5875202F11C021360104B1B68F1
:10098000184610F05EF803460C4638A80C381A4694
:1009900023460D4911F02EFD0DF5875303F11C037D
:1009A0001B689AB238AB0C3B19460DF5885303F11E
:1009B0001803186804F066FA002300F0BABC00BF00
:1009C00004260020E03F03001840030038AB0C3B36
:1009D0004FF480520021184612F035F90DF5875377
:1009E00003F118031D680DF5875303F118031B6805
:1009F00093F880301E460DF5875303F118031B68EA
:100A000093F881301F460DF5875303F118031B68D7
:100A100093F882300D930DF5875202F11802136896
:100A200093F883300E930DF5875101F118010B688F
:100A300093F884300F930DF5875101F118010B687D
:100A400093F8853010930DF5875101F118010B686B
:100A500086330DF5875101F118010A68D2F80C218F
:100A60000DF5875101F118010968D1F808110DF54C
:100A7000875000F118000068D0F810010DF5875478
:100A800004F118042468D4F814410A9409900891D8
:100A900007920693109A05920F9A04920E9A039267
:100AA0000D9B0293019700962B46C54A002100201A
:100AB00011F08CFC03460DF5875202F11C02136005
:100AC0000DF5875303F118031E680DF5875303F1E5
:100AD00018031B6893F880309C460DF5875303F18B
:100AE00018031B6893F881301F460DF5875303F1F7
:100AF00018031B6893F882300D930DF5875202F1AD
:100B00001802136893F883300E930DF5875101F1A5
:100B100018010B6893F884300F930DF5875101F19C
:100B200018010B6893F8853010930DF5875101F18A
:100B300018010B6886330DF5875101F118010A6819
:100B4000D2F80C210DF5875101F118010968D1F88F
:100B500008110DF5875000F118000068D0F8104119
:100B60000DF5875000F118000068D0F8145138A82E
:100B70000C3809950894079106920593109A0492EF
:100B80000F9A03920E9A02920D9B0193009763466F
:100B900032468B4911F02EFC0DF5875303F11C03EF
:100BA0001B689AB238AB0C3B19460DF5885303F11C
:100BB0001803186804F066F90023BAE338AB0C3B5D
:100BC0004FF480520021184612F03DF80DF587537E
:100BD00003F118031B687B4A0021002011F0F6FB8B
:100BE00003460DF5875202F11C0213600DF5875381
:100BF00003F118031A6838AB0C3B7249184611F020
:100C0000F9FB0DF5875303F11C031B689AB238AB4F
:100C10000C3B19460DF5885303F11803186804F0CE
:100C200031F9002385E338AB0C3B4FF480520021AF
:100C3000184612F008F80DF5875303F118031B68E6
:100C400093F880301D460DF5875303F118031B6898
:100C500093F881301A460DF5875303F118031B688A
:100C600093F8823019460DF5875303F118031B687A
:100C700093F8833018460DF5875303F118031B686A
:100C800093F884301C460DF5875303F118031B6855
:100C900093F88530049303940290019100922B46BF
:100CA000494A0021002011F091FB03460DF58752BF
:100CB00002F11C0213600DF5875303F118031B6842
:100CC00093F880301D460DF5875303F118031B6818
:100CD00093F881301E460DF5875303F118031B6806
:100CE00093F882301A460DF5875303F118031B68F9
:100CF00093F8833019460DF5875303F118031B68E9
:100D000093F884301C460DF5875303F118031B68D4
:100D100093F8853038A80C3803930294019100921F
:100D200033462A46284911F065FB0DF5875303F138
:100D30001C031B689AB238AB0C3B19460DF588535F
:100D400003F11803186804F09DF80023F1E238ABB2
:100D50000C3B4FF480520021184611F074FF0DF542
:100D6000875303F118031B68D3F80C31174A00218D
:100D7000002011F02BFB03460DF5875202F11C02F7
:100D800013600DF5875303F118031B68D3F80C218A
:100D900038AB0C3B0D49184611F02CFB0DF5875371
:100DA00003F11C031B689AB238AB0C3B19460DF5D6
:100DB000885303F11803186804F064F80023B8E2BC
:100DC000304003007440030088400300B840030033
:100DD00018AB123B1B78002B66D018AB0C3B802263
:100DE0000021184611F02FFF0DF5875303F118036A
:100DF0001B6803F1860218AB0C3B1146184611F034
:100E000055FF0DF5875303F118031B6886338022C5
:100E10000021184611F017FF0DF5875303F1180351
:100E20001B6803F1860218AB1C3B1968104611F0D1
:100E30003DFF38AB0C3B4FF480520021184611F0B7
:100E400002FF0DF5875303F118031B6803F18602B7
:100E500018AB0C3B0092C94A0021002011F0B6FAF1
:100E600003460DF5875202F11C0213600DF58753FE
:100E700003F118031B68863318AA0C3A38A80C38FB
:100E8000BE4911F0B7FA0DF5875303F11C031B6837
:100E90009AB238AB0C3B19460DF5885303F1180391
:100EA000186803F0EFFF35E038AB0C3B4FF480528D
:100EB0000021184611F0C7FE0DF5875303F1180302
:100EC0001B688633AE4A0021002011F07FFA0346EA
:100ED0000DF5875202F11C0213600DF5875303F1E3
:100EE00018031B6803F1860238AB0C3BA449184673
:100EF00011F080FA0DF5875303F11C031B689AB2B9
:100F000038AB0C3B19460DF5885303F118031868EC
:100F100003F0B8FF00230CE218AB123B1B78002B48
:100F200059D00DF5875303F118031B68D3F8083126
:100F30000DF5875202F10402136018AB1C3B0A2224
:100F40000021186811F08CFB0DF5875318600DF522
:100F5000875303F118031B680DF587521268C3F815
:100F6000082138AB0C3B4FF480520021184611F099
:100F70006AFE0DF587531B6800930DF5875303F147
:100F800004031B687F4A0021002011F01FFA03466A
:100F90000DF5875202F11C02136038A80C380DF5CC
:100FA00087531B680DF5875202F1040212687549D8
:100FB00011F020FA0DF5875303F11C031B689AB258
:100FC00038AB0C3B19460DF5885303F1180318682C
:100FD00003F058FF36E038AB0C3B4FF48052002151
:100FE000184611F030FE0DF5875303F118031B6806
:100FF000D3F80831644A0021002011F0E7F90346D4
:101000000DF5875202F11C0213600DF5875303F1B1
:1010100018031B68D3F8082138AB0C3B5A49184613
:1010200011F0E8F90DF5875303F11C031B689AB220
:1010300038AB0C3B19460DF5885303F118031868BB
:1010400003F020FF002374E118AB123B1B78002B48
:1010500057D04E4B1B680DF5865202F11C021360EF
:1010600018AB1C3B0A220021186811F0F9FA0DF5A3
:10107000865303F118031860444A0DF5865303F1B3
:1010800018031B68136038AB0C3B4FF480520021EF
:10109000184611F0D8FD0DF5865303F118031B68AF
:1010A00000930DF5865303F11C031B68384A002199
:1010B000002011F08BF903460DF5875202F11C0256
:1010C000136038A80C380DF5865303F118031B681C
:1010D0000DF5865202F11C0212682D4911F08AF9B1
:1010E0000DF5875303F11C031B689AB238AB0C3B18
:1010F00019460DF5885303F11803186803F0C2FE72
:1011000039E0224B1B680DF5865202F11402136080
:1011100038AB0C3B4FF480520021184611F093FD80
:101120000DF5865303F114031B681A4A00210020B1
:1011300011F04CF903460DF5875202F11C021360C1
:1011400038AB0C3B0DF5865202F1140212681149BE
:10115000184611F04FF90DF5875303F11C031B6876
:101160009AB238AB0C3B19460DF5885303F11803BE
:10117000186803F087FE0023DBE000BFCC400300CB
:101180000C4103002441030068410300FC250020BA
:1011900084410300CC41030018AB123B1B78002BA9
:1011A00029D038AB0C3B4FF480520021184611F087
:1011B0004AFD624A0021002011F008F903460DF5AE
:1011C000875202F11C02136038AB0C3B5B49184696
:1011D00011F010F90DF5875303F11C031B689AB247
:1011E00038AB0C3B19460DF5885303F1180318680A
:1011F00003F048FE36E038AB0C3B4FF48052002140
:10120000184611F020FD0DF5875303F118031B68F4
:10121000D3F810314A4A0021002011F0D7F80346D4
:101220000DF5875202F11C0213600DF5875303F18F
:1012300018031B68D3F8102138AB0C3B4049184603
:1012400011F0D8F80DF5875303F11C031B689AB20F
:1012500038AB0C3B19460DF5885303F11803186899
:1012600003F010FE002364E038AB0C3B4FF48052D7
:101270000021184611F0E7FC324A0021002011F04D
:10128000A5F803460DF5875202F11C02136038AB36
:101290000C3B2C49184611F0ADF80DF5875303F1BE
:1012A0001C031B689AB238AB0C3B19460DF58853EA
:1012B00003F11803186803F0E5FD002339E038ABAB
:1012C0000C3B4FF480520021184611F0BCFC0DF588
:1012D000875303F118031B68D3F814311A4A00210D
:1012E000002011F073F803460DF5875202F11C023D
:1012F00013600DF5875303F118031B68D3F814210D
:1013000038AB0C3B1049184611F074F80DF58753B3
:1013100003F11C031B689AB238AB0C3B19460DF560
:10132000885303F11803186803F0ACFD002300E0B4
:10133000002318460DF5885D01B0F0BDEC410300B7
:1013400048420300B8420300DC42030000B5ADF59B
:101350008B5D83B00AAB1C3B186002AB19606FF069
:1013600001030DF58B5202F10402136000230DF509
:101370008A5202F11B02137000230DF58A5202F10A
:101380001A02137000230DF58B5202F10302137041
:1013900052AB4FF480520021184611F054FC52AB6E
:1013A000083B06220021184611F04DFC52AB143BBD
:1013B0000C220021184611F046FC52AB143B02AA45
:1013C00019461068FEF778FC0DF58A5303F11403F3
:1013D000186052AB143B1B681B681846FEF7AAFC4A
:1013E0000DF58A5303F1100318600DF58A5303F1CC
:1013F00010031B68002B0EDA52AB143B1B68184617
:1014000010F0FCFD52AB143B0C220021184611F0E9
:101410001AFC0B23E5E10DF58A5303F110031B6859
:10142000032B17D17A4B1B689AB20AAB1C3B794944
:101430001868FEF789FE52AB143B1B68184610F083
:10144000DDFD52AB143B0C220021184611F0FBFBD2
:101450000023C6E10DF58A5303F110031B68012B2D
:1014600006D00DF58A5303F110031B68022B4AD1F5
:1014700052AB143B1B6804331A6852AB1146184632
:1014800011F014FC00230DF58A5202F11C021360C6
:1014900031E052AB143B1A680DF58A5303F11C037B
:1014A0001B6802339B0013441B681022002118465E
:1014B00011F0D6F803460DF58A5202F10E021380A0
:1014C0000DF58A5303F10E031B88D9B252AB083BCA
:1014D0000DF58A5202F11C02126813440A461A7072
:1014E0000DF58A5303F11C031B6801330DF58A5275
:1014F00002F11C0213600DF58A5303F11C031B68F3
:10150000052BC6DD69E00DF58A5303F110031B6856
:10151000042B06D00DF58A5303F110031B68052B2D
:101520005BD152AB143B1B6804331A680AAB1C3BFB
:1015300011461868FEF770FE03460DF58B5202F156
:10154000030213700DF58B5303F103031B78152B66
:1015500043D952AB143B1B680833196852AB183B94
:101560001A462C48FEF709FB0346002B08D052AB65
:10157000183B1B680DF58B5202F1040213602CE03E
:1015800052AB143B1B680833196852AB1C3B1A461C
:101590002048FEF79FFA0346002B08D052AB1C3BB5
:1015A0001B680DF58B5202F10402136015E04FF039
:1015B000FF330DF58B5202F10402136052AB143B62
:1015C0001B68184610F01AFD52AB143B0C22002188
:1015D000184611F038FB072303E10DF58A5303F198
:1015E00010031B68042B19D10DF58B5303F1030372
:1015F00018780AAB1C3B1B680093074B00220DF5C3
:101600008B5101F104010968FEF72EFE24E000BFB2
:101610007827002068270020F44203000DF58A5344
:1016200003F110031B68052B16D152AB143B1B684A
:101630000C331A680DF58B5303F1030318780AABCA
:101640001C3B1B680093134601220DF58B5101F1E1
:1016500004010968FEF708FE0DF58A5303F1100333
:101660001B68012B6CD10AAB143B4FF48C72002128
:10167000184611F0E8FA52AA0AAB143B1146184674
:1016800011F014FB52AB083B1A780AAB143B83F8F9
:10169000802052AB083B5A780AAB143B83F8812078
:1016A00052AB083B9A780AAB143B83F8822052ABCA
:1016B000083BDA780AAB143B83F8832052AB083B33
:1016C0001A790AAB143B83F8842052AB083B5A7951
:1016D0000AAB143B83F885200AAB143B6FF045023C
:1016E000C3F808210AAB143B9622C3F8102152AA72
:1016F0000AAB143B86331146184611F0D7FA002383
:1017000000934FF48C733A4A3A493B480FF08CF8F7
:101710000346002B0AD1384B1A680AAB143B10461B
:1017200019464FF48C731A4611F064FA324B5B6819
:101730000133314A5360304B5B68304A136042E0FA
:101740000DF58A5303F110031B68022B3BD10023D4
:101750000DF58A5202F1080213600DF58A5202F16A
:10176000080252AB083B19462348FEF7B3F903467B
:101770000DF58A5202F10D0213700DF58A5303F133
:101780000D031B78002B1AD00DF58A5303F10803C3
:101790001B680122019200934FF48C73144A15497F
:1017A00015480FF071F8144B5B68013B124A536007
:1017B0004FF48C730E4A0F490F480FF000F80E4B90
:1017C0005B680E4A136052AB143B1B68184610F05E
:1017D00015FC52AB143B0C220021184611F033FAD1
:1017E000002318460DF58B5D03B05DF804FB00BFC8
:1017F000702700206C270020682700207827002011
:1018000000B589B00190019B04330793079B043313
:101810000693079B0433234A1360224B1B68013352
:10182000214A13601F4B1B6893F90E3005931E4B22
:101830001B6802AA19461D48FEF74CF903468DF8AD
:1018400013309DF81330002B27D0184B1A68029BD9
:1018500019464FF48C7303FB01F313440393039B6A
:10186000059AC3F80C21039BD3F814315A1C039B2F
:10187000C3F814210E4B1B78002B03D005990D489B
:1018800007F02CFB0C4B01221A70039BD3F8083194
:10189000059A9A4201DB012300E00023184609B0B3
:1018A0005DF804FB642700207427002068270020CF
:1018B00000260020FC4203008027002000B585B0F0
:1018C0000190019B1B78012B53D0022B45D0002B9C
:1018D0005BD1314B1B781A46304B1344184606F047
:1018E00055FD2D4B1B780133DAB22B4B1A702C4966
:1018F000032007F0FDF8284B1B78013B274AD35CF7
:101900000A2B06D0244B1B789AB2264B1B889A428E
:101910003DD32549032007F0EBF81F4B1B789BB202
:101920001A461E49214803F0ADFA0390039B082B89
:101930000CD0039B112B09D0039B0293029B002B1D
:1019400004D01B4A6721029805F050FB039B112B22
:10195000E3D0114B00221A7019E01649012008F05B
:1019600087FB019B5B68124A7121184605F03EFB1C
:101970000EE01049012008F07BFB019B5B680C4ADC
:101980007621184605F032FB02E000BF00E000BF00
:1019900000BF05B05DF804FB342800203828002083
:1019A0002C4303001827002068430300A4270020CD
:1019B000944303005C3C030030B58DB0134B04AC82
:1019C0001D460FCD0FC495E8030084E80300104BBB
:1019D00000934FF4807301930E4B02934FF4807386
:1019E0000393694604A807230B4A06F061FC0B9099
:1019F0000B9B0A930A9B002B04D0084A8E210A985D
:101A000005F0F4FA00BF0DB030BD00BFAC430300D9
:101A1000D4280020D4290020BD18020094430300DC
:101A200000B583B00848FDF7E4FE0190019B0093E8
:101A3000009B002B04D0054A9621009805F0D6FAA9
:101A400000BF03B05DF804FB40460300944303006D
:101A500000B589B0039002911346ADF806302449D1
:101A6000032007F045F802990398FFF76FFC0690F2
:101A70000023079324E0029A079B13441B7818461F
:101A800006F0A0FC069000230693069B002B11D0C5
:101A9000069B112B0ED0069A1649012007F039F843
:101AA000069B0593059B002B04D0134AFD21059846
:101AB00005F09CFA069B112BDDD0079B01330793A1
:101AC000BDF80630079A9A42D5D3BDF80630013BDF
:101AD000029A13441B780D2B06D100BF0A2006F092
:101AE00071FC0346112BF9D000BF09B05DF804FB6F
:101AF000C4430300084403009443030000B587B0C7
:101B00009DF80030012262F303038DF800309DF848
:101B10000030012262F307138DF800301E4811F0E7
:101B20000EF903469AB26B461B491846FDF759FE5B
:101B30000590059B0493049B002B05D0174A40F2A7
:101B40001511049805F052FA01AB0822002118463D
:101B500011F079F81023ADF804303C23ADF80630CD
:101B60000023ADF808304FF4C873ADF80A3001AB6C
:101B70001846FDF732FE0590059B0393039B002B4F
:101B800005D0064A4FF48F71039805F02FFA00BF75
:101B900007B05DF804FB00BF40440300944303001A
:101BA00000B585B001AB04220021184611F04BF8B6
:101BB0000D4B019301AB19460C4803F00BF9039050
:101BC000039B0293029B002B05D0094A4FF49771A7
:101BD000029805F00BFA0749032006F089FF00BFC1
:101BE00005B05DF804FB00BF511A0200A4270020D5
:101BF000944303005444030000B585B00190019B59
:101C00001B78002B11D10B4B1B883B211846FDF78D
:101C1000E0FD0390039B0293029B002B05D0064A34
:101C200040F24511029805F0E1F900BF05B05DF8FA
:101C300004FB00BF1A2700209443030000B583B0C3
:101C400001900749012008F013FA064A40F25111A9
:101C5000019805F0CBF900BF03B05DF804FB00BFAD
:101C60005C3C03009443030000B58BB001AB1C2225
:101C70000021184610F0E7FF002301934FF42033B2
:101C800002934FF47023039303238DF81030002345
:101C9000ADF8123000238DF814300C4B06930C4B2A
:101CA000079301AB184602F091FA0990099B08933B
:101CB000089B002B05D0074A4FF4BA71089805F02D
:101CC00095F900BF0BB05DF804FB00BFF91B0200E3
:101CD0003D1C02009443030082B003468DF8073098
:101CE0009DF80730002B01D0032B00E000BF00BFA0
:101CF00002B070470000000010B59CB00390039B39
:101D000004331B93CE4B1B68002B03D1CD4B1B68B8
:101D1000CD4A13600EF0B4F80246CC4B1A60CB4BA0
:101D20001B68184610F090FE0246C94B1A60C84B5B
:101D30001A68C54B1B68D31A18460EF01DFEBEA3C9
:101D4000D3E900230FF0D0F803460C46184621468D
:101D50000EF093FE0246BF4B1A60BE4BD3ED007AE5
:101D6000B7EE007AF4EEC77AF1EE10FA5FDBBA4B09
:101D70001B78002B57D0B64B1B681846B54BD3EDDC
:101D8000007AF5EEC07AF1EE10FA0BD5B14BD3ED37
:101D9000007ABFEE007AF4EEC77AF1EE10FA01DDB8
:101DA000AE4A00E0AE4AAB4BD3ED007AFDEEE77AE7
:101DB00017EE901AA74BD3ED007AF5EEC07AF1EE4C
:101DC00010FA14DDA34B93ED007AA24BD3ED007A09
:101DD000FDEEE77AF8EEE77A77EE677A9FEDA17A83
:101DE00067EE877AFDEEE77A17EE903A13E0994BAB
:101DF000D3ED007AFDEEE77AB8EEE77A954BD3EDB6
:101E0000007A77EE677A9FED977A67EE877AFDEE34
:101E1000E77A17EE903A01930091134602469249F1
:101E2000032006F0BAFE8A4B1B68874A1360039BA7
:101E30001B88013B562B00F2538201A252F823F07B
:101E40001F220200E1220200E1220200E122020040
:101E5000E1220200E1220200E1220200E12202006E
:101E6000E1220200E1220200E1220200E12202005E
:101E7000E1220200E1220200E12202009D1F020095
:101E8000B91F0200E122020049210200E122020002
:101E9000E1220200E1220200E1220200E12202002E
:101EA000E1220200E1220200E1220200E12202001E
:101EB000D51F0200E1220200E1220200E12202001D
:101EC00073210200E1220200E1220200E12202006D
:101ED000E1220200E1220200E1220200E1220200EE
:101EE000E1220200E1220200E1220200E1220200DE
:101EF000E1220200E1220200E1220200E1220200CE
:101F0000E1220200E1220200E1220200E1220200BD
:101F1000E1220200E1220200E1220200E1220200AD
:101F2000E1220200E1220200D3210200E1220200AC
:101F3000E1220200E1220200E1220200E12202008D
:101F4000E1220200E1220200E1220200E12202007D
:101F5000E1220200E1220200E1220200E12202006D
:101F6000E1220200E1220200E1220200E12202005D
:101F7000E1220200E1220200E1220200E12202004D
:101F800045220200A9210200E1220200E122020012
:101F9000E1220200F9210200E1220200039B9A885B
:101FA000324B1A80324B1B78002B00F0868131496E
:101FB000032006F09DFD80E12C4B4FF6FF721A8046
:101FC0002B4B1B78002B00F07A812B49032006F065
:101FD0008FFD74E100238DF86B30FDF7F9FC19904B
:101FE000264B1B6819991846FDF70EFD1890189B93
:101FF00007EE903AB8EE677ADFED216AC7EE267AEF
:10200000CDED177A1D4A199B13601E4B1B78002BD0
:102010006ED0DDED177AF5EEC07AF1EE10FA33D519
:10202000DDED177ABFEE007AF4EEC77AF1EE10FA22
:102030002ADD0A4929E000BF0000000000AAAE40E6
:10204000DC2700209027002098270020A0270020D0
:10205000942700208C270020892700208444030037
:10206000884403000000C8428C4403001A27002063
:1020700000260020E4440300FC4403009C270020C9
:1020800000007A44882700209949DDED177AFDEE9B
:10209000E76ADDED177AF5EEC07AF1EE10FA10DDA1
:1020A000DDED177AFDEEE77AF8EEE77A9DED177A27
:1020B00077EE677A9FED8F7A67EE877AFDEEE77AA3
:1020C0000FE0DDED177AFDEEE77AB8EEE77ADDEDA9
:1020D000177A77EE677A9FED877A67EE877AFDEE5B
:1020E000E77A17EE903A16EE902A834806F0F6FE4D
:1020F000824B1B68002B20DD0398FFF781FB034612
:102100008DF86B309DF86B30002B06D07C4B002295
:102110001A607C4B01221A70D3E0794B1B680133A3
:10212000774A1360764B1A68774B1B689A42C0F265
:10213000C880744B00221A70C3E0714B00221A60F1
:10214000704B00221A70BCE0704B188800230022EC
:102150008521FDF74AFB1690169B1593159B002BC6
:1021600000F0B1806A4A4FF4EA71159804F03EFF1E
:10217000A9E00DAB08220021184610F064FD039B76
:102180009B880DA900221846FDF737FB1690169B79
:102190001493149B002B00F098805D4A40F2DD11EF
:1021A000149804F023FF90E0584B18880023002275
:1021B0000021FDF72AFB1690169B1393139B002B0F
:1021C00000F08580524A40F2E311139804F00EFFAC
:1021D0007DE0039B9B8813211846FDF7FAFA1690C1
:1021E000169B1293129B002B73D0494A40F2E911BF
:1021F000129804F0FBFE6CE0039B9B8813211846A9
:10220000FDF7E7FA1690169B1193119B002B62D0F5
:102210003F4A40F2EF11119804F0E8FE5BE0039BA7
:102220009B8800211846FDF7F8FA1690169B10932C
:10223000109B002B51D0364A40F2F511109804F053
:10224000D5FE4AE0039B09AC0633186859689A68C2
:10225000DB680FC49DF82430002B40D09DF82C3053
:10226000042B07D09DF82C30062B03D09DF82C3082
:10227000052B34D19DF82430022B03D102238DF895
:10228000143002E001238DF814304FF4C173ADF81F
:102290001830039B9B8805AA11461846FDF7B1FA32
:1022A0001690169B0F930F9B002B18D0184A40F2E4
:1022B00009210F9804F09AFE11E000BF10E000BF62
:1022C0000EE000BF0CE000BF0AE000BF08E000BF66
:1022D00006E000BF04E000BF02E000BF00E000BF76
:1022E0000C4B1B6801330B4A136000BF1CB010BDC0
:1022F000884403000000C8422045030078270020DE
:102300007C270020E0270020FC2500201A27002041
:1023100094430300DC27002000B583B001900198AE
:1023200002F086F801990A4802F030FB0199094849
:1023300002F022FD0198FFF7DFFC019801F0AAFEF0
:10234000019800F0FBFC00BF03B05DF804FB00BF88
:10235000C0270020A427002000B58FB0554B1B6874
:10236000049304A80023D822534906F09FFF0D9040
:102370000D9B0C930C9B002B05D0504A40F23E2144
:102380000C9804F033FE0023039303AB184607F0C8
:102390002DF80B900B9B0A930A9B002B05D0474A04
:1023A00040F243210A9804F021FE6B460C220021E2
:1023B000184610F048FC01238DF8003000238DF8FA
:1023C000013000238DF80230039A6B4619464020F5
:1023D000FDF71FFA0B900B9B0993099B002B05D06F
:1023E000364A40F24E21099804F000FE6B460C225A
:1023F0000021184610F027FC01238DF800309E23A1
:10240000ADF80230039A6B4619462320FDF701FA16
:102410000B900B9B0893089B002B05D0274A40F29A
:102420005521089804F0E2FD6B460C220021184665
:1024300010F009FC01238DF800304FF4A073ADF8C3
:10244000043001238DF80230039A6B461946202090
:10245000FDF7DFF90B900B9B0793079B002B05D033
:10246000164A40F25D21079804F0C0FD03AB184600
:1024700006F0CCFF0B900B9B0693069B002B05D020
:102480000E4A40F26121069804F0B0FD0C4806F0B7
:1024900065FF0B900B9B0593059B002B05D0074A0E
:1024A00040F26521059804F0A1FD00BF0FB05DF872
:1024B00004FB00BF40450300D42A002094430300DE
:1024C0001923020000B583B001900091009B5A8847
:1024D0000E4B1B889A4214D1009B1B8840F6772232
:1024E00093420ED1009B9B88033B9AB2084B1A8003
:1024F000074B1B881A46064B1B880649032006F02B
:102500001CFB00BF03B05DF804FB00BF1A270020CE
:10251000182700204445030000B585B01149124832
:1025200002F0ECF90390039B0293029B002B05D071
:102530000E4A40F29F21029804F058FD80210A487B
:1025400002F007FA0390039B0193019B002B05D037
:10255000064A40F2A221019804F048FD00BF05B0F0
:102560005DF804FBC5240200C0270020944303004B
:1025700000B5ABB019AB3C220021184610F063FB4C
:1025800002238DF8643000238DF8663005238DF822
:1025900067300AAB3C220021184610F054FB01239F
:1025A000ADF83830144B0F9302AB202200211846AF
:1025B00010F049FB01238DF80B3040230693B42320
:1025C000079302AA0AA919A8002300930B4B01F054
:1025D00073FB2990299B2893289B002B05D0084A40
:1025E00040F2BF21289804F001FD012001F056FBC4
:1025F00000BF2BB05DF804FB14270020D91C02009B
:102600009443030000B583B0FFF7A6FEFFF776FA08
:10261000FFF782FFFFF7C4FAFFF7AAFFFFF724FBDB
:102620000C49032006F064FA032001F049FC0190F4
:10263000019B0093009B002B05D0074A40F2CE215E
:10264000009804F0D3FCFFF7EBF9019B184603B0A8
:102650005DF804FB6C450300944303000000000098
:1026600010B584B001900B468DF803302A4B1B68DF
:10267000002B03D0284B1B68022B0BDD0DF000FC58
:102680000346184610F0E0F90246244B1A60224B2C
:1026900000221A60204B1B6801331F4A13600DF0A3
:1026A000EFFB02461E4B1A601D4B1B68184610F0CC
:1026B000CBF902461B4B1A601A4B1A68174B1B6862
:1026C000D31A18460EF058F911A3D3E900230EF0DF
:1026D0000BFC03460C46184621460EF0CEF9034685
:1026E0000393DDED037AB1EE047AF4EEC77AF1EEEE
:1026F00010FA00DA09E00C49012007F0B9FC4FF4A8
:102700007A70FDF7DFF8FDF75DF800BF04B010BD8B
:102710000000000000AAAE40242800202828002045
:102720002C28002030280020543C030000B585B040
:1027300003F062F80390039B0293029B002B04D0EA
:10274000124A4721029804F051FC114B1B68009378
:1027500003238DF801300B2318466B460D4A1946AA
:1027600003F09EF80390039B0193019B002B04D080
:10277000064A4D21019804F039FC0B23012118462B
:1027800003F0E8F800BF05B05DF804FBA4450300C2
:10279000F04503006126020000B587B0F1EE103A63
:1027A0000193019B23F09F030293029BE1EE103AF9
:1027B000F1EE103A03932620FCF7D6FFFCF7FEFF5C
:1027C0000590059B0493049B002B04D0044A5821D8
:1027D000049804F00BFC00BF07B05DF804FB00BFD9
:1027E000A445030000B583B0002006F02BF901904A
:1027F000019B0093009B002B04D0044A7021009899
:1028000004F0F4FB00BF03B05DF804FBA445030033
:1028100000B583B00123364918460BF035FA019014
:10282000344B1B781A46324B1B689A4214D0304BFB
:102830001B68002B0CBF01230023DBB21A462E4974
:102840002E48FDF77DFB2A4B1B68002B14BF01238C
:102850000023DAB2274B1A700023294918460BF0DF
:1028600013FA0190274B1B781A46254B1B689A4296
:1028700014D0234B1B68002B0CBF01230023DBB2B9
:102880001A4621491D48FDF75BFB1D4B1B68002BB9
:1028900014BF01230023DAB21A4B1A70144B1B68C1
:1028A000002B21D0194B1B68009319489DED000A9D
:1028B0000DF0EEFE0FE0174B1B78002B0FD1164BDF
:1028C0001B78002B0BD10123094918460BF0DCF9CA
:1028D000019004F021FD064B1B68002BEBD10C4846
:1028E0009FED0E0A0DF0D4FE00BF03B05DF804FBAF
:1028F0001C280020AC2B0020F4450300A427002056
:1029000020280020AD2B0020FC45030004260020D9
:10291000E4270020822700208727002000000000F5
:1029200010B582B000233D4918460BF0ADF9019077
:102930003B4B1B781A46394B1B689A4214D0374BD5
:102940001B68002B0CBF01230023DBB21A4635495C
:102950003548FDF7F5FA314B1B68002B14BF0123F6
:102960000023DAB22E4B1A700123304918460BF0BF
:102970008BF901902E4B1B781A462C4B1B689A4200
:1029800014D02A4B1B68002B0CBF01230023DBB2A1
:102990001A4628492448FDF7D3FA244B1B68002B1C
:1029A00014BF01230023DAB2214B1A701B4B1B68A2
:1029B000002B30D0204B1B6818460EF042F803461F
:1029C0000C46184621460EF058F8034607EE903A9A
:1029D000F1EE677ACDED007A18489DED000A0DF012
:1029E00057FE0FE000230D4918460BF04DF90190FA
:1029F000134B1B78002B09D1124B1B78002B05D1F0
:102A000004F08AFC054B1B68002BEBD10B489FEDB3
:102A10000E0A0DF03DFE00BF02B010BD20280020C0
:102A2000AE2B0020FC450300A42700201C2800201A
:102A3000AF2B0020F445030004260020E4270020EB
:102A400083270020872700200000000000B587B002
:102A50004D4B00221A604D4B00221A604C4B1B68F4
:102A600018460FF0CBFA0C220021494810F0EBF881
:102A70000C220021464810F0E6F8464A3C21082086
:102A800004F084FB0590059B0493049B002B04D069
:102A9000414ABA21049804F0A9FA05F023FA0390F8
:102AA000039B0293029B002B04D03B4ABC2102985B
:102AB00004F09CFA0DF0E4F9019001980FF0C4FFC6
:102AC0000246364B1A60FEF777FFFFF78BFEFFF7E3
:102AD00099FDFFF72BFE0DF065FC02230321304A20
:102AE00018460DF03BFD2F480DF0E2FB2E4A2F4912
:102AF0002F480DF0D7FA2F49032005F0F9FF0123E5
:102B0000022118460AF00EFF0023022118460AF09F
:102B100009FF23489FED280A0DF0BAFD04F0FCFBE5
:102B2000264B1B78002B04D02549002007F0A0FA83
:102B300003E02449002007F09BFA234B1B78002B6D
:102B400002D0FFF7EDFE1CE0204B1B78002B02D0DB
:102B5000FFF75EFE15E01E4B1B78002B05D01048DA
:102B60009FED150A0DF094FD0BE0144B1B7883F0DC
:102B70000103DBB2002B02D0FFF74AFE01E0FFF7B2
:102B8000CFFEFFF709FEC9E7DC2700207C270020E5
:102B900068270020B02B0020A445030090270020C8
:102BA000E4270020E3F801001028002009F90100C3
:102BB000A0BB0D000446030000000000E027002039
:102BC000603C0300583C030082270020832700203C
:102BD0008727002084B001900B468DF80330134600
:102BE0008DF8023000230393019B002B3CD19DF80C
:102BF0000230012B0BD19DF80330012B04D1019B36
:102C0000DBB20E33DBB200E000238DF802309DF81A
:102C10000330012B04D0022B0CD0002B15D01FE069
:102C20001449019A13465B0013440B449DF802209B
:102C30001A701BE00F49019A13465B0013440B44C2
:102C400001339DF802201A7010E00A49019A1346D8
:102C50005B0013440B4402339DF802201A7005E018
:102C60000723039300BF01E007230393039B184648
:102C700004B07047802F002000B583B001220021EE
:102C80000020FFF7A7FF0190019B002B04D0019BC0
:102C9000072B01D0019B1CE0072202210120FFF736
:102CA00099FF0190019B002B04D0019B072B01D0C1
:102CB000019B0EE0042202210020FFF78BFF019010
:102CC000019B002B04D0019B072B01D0019B00E04E
:102CD0000023184603B05DF804FB00B583B0012261
:102CE00002210020FFF776FF0190019B002B04D00A
:102CF000019B072B01D0019B1CE007220221012030
:102D0000FFF768FF0190019B002B04D0019B072B6C
:102D100001D0019B0EE00A2200210020FFF75AFF9C
:102D20000190019B002B04D0019B072B01D0019B3C
:102D300000E00023184603B05DF804FB00B585B041
:102D40000190019B1B88102B02D0112B18D02FE073
:102D5000194B1B68002B0DD1FFF78EFF0390039BCF
:102D6000002B07D0154B1B68002B03D0134B1B689F
:102D700003989847104B1B6801330F4A136017E004
:102D80000D4B1B68013B0C4A13600B4B1B68002B5F
:102D90000DD1FFF7A2FF0390039B002B07D0074B39
:102DA0001B68002B03D0054B1B680398984700BF96
:102DB00000BF05B05DF804FB882F0020842F0020A1
:102DC0006DDF704700BF184672DF704700BF1846BE
:102DD00079DF704700BF18467DDF704700BF184697
:102DE00064DF704700BF184682B003460091ADF81B
:102DF0000630BDF80630DAB2009B1A70BDF8063016
:102E00001B0A9AB2009B0133D2B21A7002231846F1
:102E100002B0704700B589B0039002911346ADF837
:102E20000630029B1B8803F10902BDF806309A4266
:102E300001D90C2351E005AB1846FFF7C1FF0790FD
:102E4000079B002B01D0079B47E0029B1B881A467B
:102E5000039B134408221A70029B1B8801339AB209
:102E6000029B1A80029B1B881A46039B13441B2259
:102E70001A70029B1B8801339AB2029B1A80029B34
:102E80001B881A46039B981805AB01330622194686
:102E90000FF0B0FE029B1B8806339AB2029B1A8089
:102EA0009DF8143023F00103DBB2002B07D1029B05
:102EB0001B881A46039B134400221A7006E0029BEB
:102EC0001B881A46039B134401221A70029B1B881D
:102ED00001339AB2029B1A800023184609B05DF8AC
:102EE00004FB00B589B0039002910192ADF8023065
:102EF000039B1B78012B05D1039B5B78002B01D131
:102F0000072389E0019B1B889A1CBDF802309A4276
:102F10000ED8039B1B78012B0CD1019B1B881A46F2
:102F2000039B5B7813449A1CBDF802309A4201D986
:102F30000C2371E0019B1B88BDF80220D31A9BB2C1
:102F4000023BADF81C30BDF81C30ADF81630019BCB
:102F50001B880233029A13440DF1160211461846DB
:102F6000FFF73AFF0690069B002B01D0069B53E02B
:102F7000039B1B78022B09D1BDF81630BDF81C202D
:102F80009A4203D309238DF81F3017E008238DF8E8
:102F90001F30039B1B78012B0CD1039B5B789BB2EA
:102FA000BDF81C209A4205D3039B5B789BB2ADF819
:102FB000163003E0BDF81C30ADF81630BDF8163001
:102FC000FE2B01D90C2327E0BDF81630DAB2019BA5
:102FD0001B881946029B0B440132D2B21A70019B26
:102FE0001B8801339AB2019B1A80019B1B881A46E9
:102FF000029B13449DF81F201A70019B1B8801330C
:103000009AB2019B1A80019B1A88BDF816301344AE
:103010009AB2019B1A800023184609B05DF804FBA0
:1030200000B587B0039002911346ADF80630029BBD
:103030001B881A1DBDF806309A4201D90C2339E0CD
:103040000DF112031846FFF7C3FE0590059B002BF8
:1030500001D0059B2EE0029B1B881A46039B13445C
:1030600003221A70029B1B8801339AB2029B1A80BA
:10307000029B1B881A46039B134419221A70029B59
:103080001B8801339AB2029B1A80BDF81220029B62
:103090001B881946039B0B4419461046FFF7A4FEF4
:1030A00003461946029B1A888BB213449AB2029BBC
:1030B0001A800023184607B05DF804FB84B0029123
:1030C00001921A4603468DF80F301346ADF80C30C6
:1030D000019B1B88DA1CBDF80C309A4201D90C23E5
:1030E00028E0019B1B881A46029B134402221A7097
:1030F000019B1B8801339AB2019B1A80019B1B889C
:103100001A46029B134401221A70019B1B8801334B
:103110009AB2019B1A80019B1B881A46029B13449A
:103120009DF80F201A70019B1B8801339AB2019BF6
:103130001A800023184604B0704784B002910192AF
:103140001A4603468DF80F301346ADF80C30019B3C
:103150001B88DA1CBDF80C309A4201D90C2328E0F8
:10316000019B1B881A46029B134402221A70019B82
:103170001B8801339AB2019B1A80019B1B881A4657
:10318000029B13440A221A70019B1B8801339AB2D6
:10319000019B1A80019B1B881A46029B13449DF8D1
:1031A0000F201A70019B1B8801339AB2019B1A8071
:1031B0000023184604B0704700B58BB0039001930C
:1031C0000B468DF80B3013468DF80A3000238DF82E
:1031D00023300C9B1B88ADF82030002309936DE051
:1031E000039B5A68099B9B001A4404AB1068186043
:1031F0000DF1170104AB00221846FFF7F1FD07900F
:10320000079B002B01D0079B7AE09DF817309DF8B3
:103210000A209A424FD19DF82330002B01D0002381
:1032200000E002238DF81B300C9B1B881A469DF88A
:1032300017301A449DF81B301A44BDF834309A42B6
:1032400001DD0C235CE09DF8233083F00103DBB249
:10325000002B16D00C9B1B8801339AB20C9B1A8052
:103260000C9B1B881A46019B13449DF80B201A7077
:103270000C9B1B8801339AB20C9B1A8001238DF89A
:1032800023300C9B1B881A46019B1A440DF1170131
:1032900004AB1846FFF7A4FD0790079B002B01D055
:1032A000079B2DE00C9B1A889DF817309BB21344A6
:1032B0009AB20C9B1A80099B01330993039B1B88CC
:1032C0001A46099B93428BDB9DF82330002B16D0C6
:1032D0000C9B1A88BDF82030D31A9BB2013BADF885
:1032E0001830BDF81830FF2B01D90C2308E0BDF8C9
:1032F0002030019A1344BDF81820D2B21A7000236E
:1033000018460BB05DF804FB00B589B00590039337
:103310000B468DF8133013468DF812309DF81310BC
:10332000BDF82C3001930A9B0093039B0222059861
:10333000FFF742FF0790079B002B01D0079B12E08D
:103340009DF81210BDF82C3001930A9B0093039B4B
:1033500010220598FFF730FF0790079B002B01D044
:10336000079B00E00023184609B05DF804FB82B01B
:103370000190019B1B88052B0AD9019B1B88B3F583
:10338000486F07D9019B1B884FF6FF72934201D00B
:10339000072325E0019B5B88052B0AD9019B5B88ED
:1033A000B3F5486F07D9019B5B884FF6FF729342D4
:1033B00001D0072314E0019B1B884FF6FF72934254
:1033C0000DD0019B5B884FF6FF72934207D0019BA3
:1033D0001A88019B5B889A4201D9072300E00023E9
:1033E000184602B0704700B587B003900291019271
:1033F000ADF80230019B1B889A1DBDF802309A423D
:1034000001D90C234BE00398FFF7B1FF0590059B12
:10341000002B01D0059B42E0019B1B881A46029BB2
:10342000134405221A70019B1B8801339AB2019B39
:103430001A80019B1B881A46029B134412221A70A1
:10344000019B1B8801339AB2019B1A80039B1A8847
:10345000019B1B881946029B0B4419461046FFF737
:10346000C3FC03461946019B1A888BB213449AB2D7
:10347000019B1A80039B5A88019B1B881946029B5B
:103480000B4419461046FFF7AFFC03461946019B53
:103490001A888BB213449AB2019B1A8000231846F3
:1034A00007B05DF804FB00B587B00390029101926C
:1034B000ADF80230039B9B8802330593019B1B8868
:1034C0001A46059B13449A1CBDF802309A4201D952
:1034D0000C2354E0059BFE2B01D90C234FE0059BE8
:1034E000DAB2019B1B881946029B0B440132D2B20F
:1034F0001A70019B1B8801339AB2019B1A80019BB1
:103500001B881A46029B1344FF221A70019B1B88DA
:1035100001339AB2019B1A80039B1A88019B1B8876
:103520001946029B0B4419461046FFF75DFC034603
:103530001946019B1A888BB213449AB2019B1A80D8
:10354000039B9B88002B19D0039B9B68002B01D108
:10355000072314E0019B1B881A46029B9818039BC3
:103560009968039B9B881A460FF044FB019B1A88BD
:10357000039B9B8813449AB2019B1A800023184630
:1035800007B05DF804FB00B589B003900291019289
:10359000ADF80230039B9B6A002B01D1072372E038
:1035A00000238DF81F3066E0039B996A9DF81F2069
:1035B00013465B0013449B000B440693069B9B88B9
:1035C00002330593059BFE2B01D90C235BE0059B81
:1035D000DAB2019B1B881946029B0B440132D2B21E
:1035E0001A70019B1B8801339AB2019B1A80019BC0
:1035F0001B881A46029B134416221A70019B1B88D3
:1036000001339AB2019B1A80069B1A88019B1B8882
:103610001946029B0B4419461046FFF7E5FB03468B
:103620001946019B1A888BB213449AB2019B1A80E7
:10363000069B9B88002B19D0069B9B68002B01D111
:10364000072320E0019B1B881A46029B9818069BC3
:103650009968069B9B881A460FF0CCFA019B1A8842
:10366000069B9B8813449AB2019B1A809DF81F30D9
:1036700001338DF81F30039B93F82C309DF81F20E9
:103680009A4291D30023184609B05DF804FB00B5B7
:1036900089B005900491039200230793039B1B8834
:1036A000ADF81A30039B00221A80059B93F82D3049
:1036B000002B0CD0BDF81A301A4603990498FFF776
:1036C000A9FB0790079B002B01D0079BC4E0059B3B
:1036D0009B78002B0CD0BDF81A301A460399049839
:1036E000FFF79EFC0790079B002B01D0079BB3E0E0
:1036F000059BDB78002B0ED0059BDB7858B2BDF81C
:103700001A30039A0499FFF7D9FC0790079B002B06
:1037100001D0079BA0E0059B5B68002B0FD0059BA9
:103720005B6893F90000BDF81A30039A0499FFF71B
:1037300004FD0790079B002B01D0079B8CE0059BA5
:103740001B89002B12D0059B03F10800BDF81A302D
:103750000193039B0093049B06220221FFF7D4FDF3
:103760000790079B002B01D0079B75E0059B1B8AE8
:10377000002B12D0059B03F11000BDF81A30019305
:10378000039B0093049B07220321FFF7BDFD0790D5
:10379000079B002B01D0079B5EE0059B1B8B002B3A
:1037A00012D0059B03F11800BDF81A300193039B5A
:1037B0000093049B15221421FFF7A6FD0790079B99
:1037C000002B01D0079B47E0059B1B6A002B0DD007
:1037D000059B186ABDF81A30039A0499FFF703FE97
:1037E0000790079B002B01D0079B35E0059B5B6A88
:1037F000002B0DD0059B586ABDF81A30039A049926
:10380000FFF751FE0790079B002B01D0079B23E099
:10381000059B93F82C30002B0CD0BDF81A30039A7E
:1038200004990598FFF7AFFE0790079B002B01D086
:10383000079B11E0059B1B78002B0CD0BDF81A30BC
:10384000039A04990598FFF74CFB0790079B002B00
:1038500001D0079B00E0079B184609B05DF804FB08
:1038600082B00190019BDB7803F00403002B01D1AF
:10387000072300E00023184602B0704782B0019091
:10388000019BDB78002B01D0072300E000231846C2
:1038900002B0704700B597B0019000911F23ADF8BA
:1038A0004A301F23ADF84830019B002B18D00198F7
:1038B000FFF7D6FF1390139B002B01D0139B3FE023
:1038C0000DF14A020AAB19460198FFF7E0FE13908A
:1038D000139B002B01D0139B32E00AAB159304E03D
:1038E000002315930023ADF84A30009B002B17D01E
:1038F0000098FFF7C3FF1390139B002B01D0139B7D
:103900001EE012AA02AB19460098FFF7C0FE139002
:10391000139B002B01D0139B12E002AB149304E025
:10392000002314930023ADF84830BDF84A30D9B2D3
:10393000BDF84830DBB2149A1598FFF745FA0346F4
:10394000184617B05DF804FB73DF704700BF1846D8
:10395000014B1B78184670476230002084B00190FC
:10396000002303930AE0019A039B13441B78002B66
:1039700001D0012306E0039B01330393039B052B36
:10398000F1D90023184604B07047000082B0034606
:103990008DF807309DF807305A1C074B83FB021344
:1039A0005910D317C91A0B469B000B44D11ACBB23E
:1039B000184602B0704700BF6766666682B0019025
:1039C000019BDB7B012B03D1019B9A88024B1A8060
:1039D00000BF02B0704700BF5430002000B585B072
:1039E00001900E4B00221A70019B9A880C4B1B8889
:1039F0009A420ED1012000F063FA0390039B002B42
:103A000007D0084B1B68002B03D0064B1B6803989C
:103A1000984700BF05B05DF804FB00BF6030002090
:103A2000543000205C30002000B585B00190019B2F
:103A30001B7A002B15D10D4B1B781846FFF7A6FFFC
:103A40000346184600F03CFA0390039B002B09D074
:103A5000074B1B68002B05D0054B1B680398984744
:103A600000E000BF05B05DF804FB00BF8F2F002011
:103A70005C30002000B583B001AB184604F0BAFBFF
:103A8000019B002B14BF01230023DBB2184603B0B7
:103A90005DF804FB00B585B003468DF807301E487D
:103AA000FFF75CFF03468DF80F309DF80730013BB0
:103AB000032B2BD801A252F823F000BFCD3A02000D
:103AC000E13A0200F53A0200013B0200134B5B7839
:103AD000002B05D09DF80F30002B01D0012316E0FC
:103AE0000E4B9B78002B05D09DF80F30002B01D09A
:103AF00002230CE0094BDB78002B01D0032306E006
:103B0000064B1B79002B01D0042300E0002318464C
:103B100005B05DF804FB00BFB52F0020902F0020FA
:103B200082B00190094B01221A70019B084A5A6029
:103B3000019B01221A70019B00229A81019B0022A5
:103B40005A810023184602B0704700BF8E2F002014
:103B5000B42F002082B001900B4B02221A70019BFF
:103B60000A4A5A60019B01221A70094BDB689AB21B
:103B7000019B9A81064B9B689AB2019B5A81002354
:103B8000184602B0704700BF8E2F0020B42F0020CF
:103B9000902F002000B585B001901B4B1B699AB295
:103BA000019B5A81184B5B699AB2019B9A81164B13
:103BB0001B78002B1FD0154B1B7883F00103DBB261
:103BC000002B18D0FFF7C4FE0346002B13D0019B37
:103BD00002221A720E4B0422DA7000210C48FFF701
:103BE00059FE0390039B002B01D0039B07E0094B78
:103BF00005221A7002E0074B03221A7000231846B0
:103C000005B05DF804FB00BF902F0020603000205D
:103C1000BC2F00208E2F002000B585B001901B4BDB
:103C20009B699AB2019B5A81184BDB699AB2019B3E
:103C30009A81164B1B78002B1FD0154B1B7883F0F5
:103C40000103DBB2002B18D0FFF782FE0346002BE6
:103C500013D0019B02221A720E4B0422DA7000214B
:103C60000C48FFF717FE0390039B002B01D0039B2A
:103C700007E0094B06221A7002E0074B04221A7073
:103C80000023184605B05DF804FB00BF902F00200C
:103C900060300020BC2F00208E2F002082B0034611
:103CA0008DF80730034A9DF80730137000BF02B04B
:103CB000704700BFB02F002030B589B0039002914B
:103CC00001920093039B002B02D0019B002B01D19A
:103CD0000E23D5E06C4B01221A706C4B00221A7037
:103CE0006B4A019B14461D460FCD0FC495E80F008B
:103CF00084E80F00674B00221A70674A009B13602C
:103D0000664A0C9B1360664B4FF6FF721A800722BF
:103D1000002164480EF097FF3C22002162480EF01B
:103D200092FF039B1A78604B1A70039B9A785E4B44
:103D30009A70039BDA785C4BDA70039B5A785A4B83
:103D40005A70594B039A1033103292E8030083E8FB
:103D50000300554B039A0833083292E8030083E8C6
:103D60000300514B039A1833183292E8030083E89A
:103D70000300039B5B6A002B29D04B4B4B4A5A62D2
:103D80004A4B4B4A9A60039B5A6A474B5B6A1288BC
:103D90001A80039B5A6A444B5B6A92889A8000237C
:103DA00007930DE0039B5B6A9A68079B134419789D
:103DB0003F4A079B13440A461A70079B0133079337
:103DC000394B5B6A9B881A46079B9342EAD3039B55
:103DD0009B6A002B33D0374B374A9A60324B354AB7
:103DE0009A62314B9B6A344A9A60039B9A6A2E4BC3
:103DF0009B6A92889A80039B9A6A2B4B9B6A1288D3
:103E00001A80002306930DE0039B9B6A9A68069B29
:103E100013441978284A069B13440A461A70069BD5
:103E200001330693204B9B6A9B881A46069B93425C
:103E3000EAD3039B93F82C201B4B83F82C20039B85
:103E40001B6A002B0ED0184B1C4A1A62039B1A6A7D
:103E5000154B1B6A52885A80039B1A6A124B1B6AC5
:103E600012881A80039B5B68002B03D0039B5B685E
:103E70000D4A536002990C48FFF70CFD0590059B15
:103E8000184609B030BD00BF8C2F00208F2F0020B6
:103E9000902F0020B02F0020583000205C300020F0
:103EA00054300020B42F0020BC2F0020F82F002019
:103EB000043000202430002030300020503000201A
:103EC00000B589B003468DF80730664B1B7883F048
:103ED0000103DBB2002B01D00823BEE0624A9DF84B
:103EE00007301370FFF7C6FD0346002B04D05F4B6D
:103EF00001221A700023B0E0072200215C480EF076
:103F0000A2FE5C4B5B78002B03D0574B1B78012B38
:103F10000FD0584B9B78002B03D0534B1B78012BB1
:103F200007D0544B9B78002B12D04F4B1B78022BA1
:103F30000ED1514B1B68002B07D0504B01221A7039
:103F40004D4B1B680820984702E04C4B00221A702A
:103F50009DF807301846FFF79DFD03461A46424B71
:103F60001A70454B1B68002B1DD03F4B1B78032B51
:103F700003D03D4B1B78042B15D13E4B1B78002BF7
:103F800011D03F4B1B7883F00103DBB2002B0AD02A
:103F90003C4B00221A703C4B01221A70364B1B68B6
:103FA0000720984702E0384B00221A7003AB10221A
:103FB000002118460EF047FE00238DF80C30002338
:103FC0008DF81430284B1B78042B29D801A252F805
:103FD00023F000BF19400200E93F0200F53F020054
:103FE000014002000D40020003AB1846FFF798FDA8
:103FF000079016E003AB1846FFF7ACFD079010E002
:1040000003AB1846FFF7C6FD07900AE003AB18465E
:10401000FFF702FE079004E01C4B00221A7000E03C
:1040200000BF114B1B78002B0CD0194B1A7803AB37
:1040300011461846FFF788FC0790079B002B01D01C
:10404000079B0AE00C4B1B68002B05D00A4B1B6832
:104050000E4A1278104698470023184609B05DF8BA
:1040600004FB00BF8C2F00208F2F00208D2F0020FD
:10407000B42F0020902F002058300020BB2F0020AC
:104080006030002062300020613000208E2F002040
:10409000B02F002000B583B00190019B1B88112B2D
:1040A00007D01B2B09D0102B0BD10198FFF786FCF2
:1040B00008E00198FFF792FC04E00198FFF7B4FCD8
:1040C00000E000BF00BF03B05DF804FB75DF704780
:1040D00000BF184676DF704700BF18467ADF70478A
:1040E00000BF18467BDF704700BF184682B00190C2
:1040F000019B5A88074B1B889A4207D3019B5A8819
:10410000044B5B889A4201D8012300E00023184643
:1041100002B070478030002000B587B00190274B77
:104120001B884FF6FF72934243D0254B1B78013317
:10413000DAB2234B1A70234B1A7B214B1B789A421D
:1041400012D31E4B1B8820491846FFF7BFFF05906E
:10415000059B002B2DD01B4B9B69002B29D0194BA5
:104160009B690598984724E0154B00221A70154B5F
:104170001B7C002B11D0114B1B883B211846FFF7ED
:10418000A9FF0490049B002B07D00E4B9B69002BCA
:1041900003D00C4B9B69049898470A4B5B69002B32
:1041A00007D000238DF80C30064B5B6903AA10463C
:1041B000984700BF07B05DF804FB00BF8A300020BD
:1041C00088300020643000208030002030B585B079
:1041D00001901C4A019B14461D460FCD0FC495E863
:1041E000070084E80700184B00221A70019B1B6827
:1041F000002B0ED0019B1A68144B1068516803C342
:104200001248FFF76BFF0390039B002B0AD0039B20
:1042100015E00E48FFF766FF0390039B002B01D0CB
:10422000039B0CE00A4B4FF6FF721A80094B0022E9
:104230001A70094A0021094803F088FE034618460F
:1042400005B030BD64300020B43000208030002044
:104250008A300020883000201941020048460300BF
:1042600000B585B02548FFF741FF034683F0010301
:10427000DBB2002B2ED0224B1B78002B0CD0214B15
:104280005B69002B32D000238DF804301D4B5B6935
:1042900001AA1046984729E01B4B1B78002B03D13D
:1042A000184B5B68039302E0164B9B680393174B14
:1042B00000220399184603F079FE0290029B002B1E
:1042C00014D0104B9B69002B10D00E4B9B690298A9
:1042D00098470BE00B4B5B69002B07D001238DF84F
:1042E0000030084B5B696A4610469847044B002231
:1042F0001A7000BF05B05DF804FB00BF8C300020D1
:10430000B430002064300020883000209430002039
:1043100000B583B00190019B9A880B4B1A800B4A21
:10432000019B103393E8030082E80300084B00224E
:104330001A70084BDB89002B01D1FFF791FF00BFFA
:1043400003B05DF804FB00BF8A3000208C300020F1
:10435000883000206430002000B585B001900D4BFE
:104360004FF6FF721A800C4B00221A700B4B184646
:1043700003F04EFE0390039B002B07D0084B9B6974
:10438000002B03D0064B9B690398984700BF05B0EC
:104390005DF804FB8A300020883000209430002033
:1043A0006430002000B585B00190019B0633039373
:1043B000039B1A88134BDB899A421ED1039B5B89AE
:1043C000022B1AD1039B0C33184600F066F8034603
:1043D000002B02D0FFF744FF0FE00B4B184603F011
:1043E00017FE0290029B002B07D0064B9B69002B07
:1043F00003D0044B9B690298984700BF05B05DF855
:1044000004FB00BF643000209430002000B583B06E
:104410000190064A019B083393E8030082E80300F9
:10442000FFF71EFF00BF03B05DF804FB8C300020D7
:1044300000B583B00190019B1B88112B0DD0112B6F
:1044400002DC102B05D014E0122B0ED0502B08D01C
:104450000FE00198FFF75CFF0BE00198FFF77CFF8E
:1044600007E00198FFF79EFF03E00198FFF7CEFFFA
:1044700000BF00BF03B05DF804FB82B00190019B58
:104480001B781AB2019B01331B781B021BB213432A
:104490001BB29BB2184602B0704700B585B00190C0
:1044A0000198FFF7EAFF0346ADF80E30BDF80E3075
:1044B00003F00103002B14BF01230023DBB21846D5
:1044C00005B05DF804FB000000B585B001900091D7
:1044D00000238DF80F309DF80F305A1C8DF80F20F7
:1044E0001A46019B1344009A12781A709DF80F30F7
:1044F0005A1C8DF80F201A46019B1344009A5278DB
:104500001A709DF80F30022B0CBF01230023DBB281
:104510000293029B002B04D1054A4721002002F0A0
:1045200065FD9DF80F30184605B05DF804FB00BF2F
:104530004C4603008FDF704700BF18469EDF704770
:1045400000BF1846ADDF704700BF184682B001902B
:10455000019B9E221A80019B17225A80019B0022F8
:104560001A71019B00225A71019BA2229A71019B30
:104570001B22DA7100BF02B07047000000B587B09F
:1045800003460091ADF80630BDF80630009ADB0016
:1045900013441B7B9BB2ADF80C30BDF80630009A7B
:1045A000DB0013441B7B9BB2ADF80E300023ADF84B
:1045B00010300023ADF8123003A9BDF806300022F8
:1045C0001846FFF7B7FF0590059B002B06D0BDF8F6
:1045D0000620059B0349012004F0AFFA00BF07B095
:1045E0005DF804FB9046030000B587B00190009190
:1045F000009B9B88ADF81630BDF81630DB00019AA1
:10460000134406330493019B1A79049B9A71009B0F
:10461000DB7B012B02D0022B05D009E0019B1A881D
:10462000049B1A8004E0019B5A88049B1A8000BFF7
:10463000049B1A88049B5B889A421BD9049B1A88A6
:10464000BDF8163011461846FFF778FF0390039B1C
:10465000002B03D1049B01225A710BE0039B112B09
:1046600003D1049B01221A7104E0039A0949012035
:1046700004F04FFA049B9A79049BDB799A4205D99E
:10468000BDF8163001991846FFF778FF00BF07B054
:104690005DF804FB0447030000B583B0019000916E
:1046A000009B9B88DB00019A134406331846FFF7F2
:1046B0004DFF00BF03B05DF804FB00B587B001906B
:1046C0000091009B9B88ADF81630009B5B89ADF88C
:1046D0001430BDF81630DB00019A134406330493FE
:1046E000049B1B88BDF81420934228BF13469AB23E
:1046F000049B5A80049B5B88172B38BF17239AB200
:10470000049B5A80019B9B69002B15D0049B5B790D
:10471000002B11D040F67723ADF80830BDF81630E5
:10472000ADF80A30049B5B88ADF80C30019B9B69A7
:1047300002AA114601989847049B00225A71049BD3
:1047400000221A7100BF07B05DF804FB00B589B004
:1047500001900091009B9B88ADF81C30009BDB888A
:10476000ADF81E30BDF81C30DB00019A134406334F
:104770000693BDF81E30172B38BF1723ADF81E3037
:10478000069B1B88BDF81E20934228BF13469AB291
:10479000069B5A80069B00221A71069B1A88BDF858
:1047A0001C3011461846FFF7CDFE0590059B002BE7
:1047B00004D0059A1149012004F0ABF9069B5B79FE
:1047C000002B16D1019B9B69002B13D040F6772359
:1047D000ADF80C30BDF81C30ADF80E30069B5B8890
:1047E000ADF81030019B9B6903AA114601989847C8
:1047F00000E000BF09B05DF804FB00BF60470300A4
:1048000030B593B001900091009B04AC1D1D0FCDFD
:104810000FC40FCD0FC40FCD0FC42B682360BDF89C
:104820001030ADF84630BDF81420BDF84630D1B296
:10483000019ADB0013440A465A73019B9B69002BC3
:1048400019D002AB00221A609A804DF67A23ADF897
:104850000830BDF84630ADF80A30BDF84630019A50
:10486000DB0013445B7B8DF80C30019B9B6902AA33
:1048700011460198984700BF13B030BD00B589B00C
:1048800001900091009B04330693069B1B88DB007C
:10489000019A134406330793069B9B888DF81730C3
:1048A000079B9B799DF81720934228BF13468DF8EC
:1048B000163002AB00221A605A609DF816309BB287
:1048C000ADF808309DF816309BB2ADF80A30069B63
:1048D0001B8802A900221846FFF72CFE0490049BB7
:1048E000002B04D0049A0449012004F012F900BFFF
:1048F00009B05DF804FB00BFB847030000B585B000
:1049000001900091019B002B01D10E231DE0019B22
:10491000009A9A61019B9E221A80019B9E225A80D6
:10492000019BA2221A71002303930AE0039BDB0080
:10493000019A134406331846FFF708FE039B013320
:104940000393039B012BF1D90023184605B05DF8B2
:1049500004FB82B001900B46ADF80230019B002BA6
:1049600001D10E230EE0BDF80230162B03D9BDF89D
:1049700002309E2B01D9072304E0019BBDF80220E1
:104980001A800023184602B07047000000B585B0B9
:1049900001900091009B9B88ADF80E30BDF80E3061
:1049A000012B5FD8009B1B88212B26D0212B04DCF8
:1049B000102B09D0112B0CD024E03A2B0ED0552B04
:1049C00011D0222B14D01DE000990198FFF70CFEA6
:1049D00018E000990198FFF75FFE13E00099019835
:1049E000FFF76BFE0EE000990198FFF7AFFE09E0BC
:1049F00000990198FFF704FF04E000990198FFF780
:104A00003DFF00BFBDF80E30019ADB0013449B7AD6
:104A1000002B28D0BDF80E30019ADB001344DA8851
:104A2000BDF80E3011461846FFF788FD0290029B34
:104A3000002B0ED1BDF80E30019ADB00134400228A
:104A40009A72BDF80E30019ADB0013440122DA722B
:104A500009E0029B112B06D0029A0449012004F0C0
:104A600058F800E000BF05B05DF804FB0447030000
:104A7000A0DF704700BF1846A2DF704700BF18468E
:104A8000A6DF704700BF184662DF704700BF1846B8
:104A900082B001900091009B9A88019B9A8200BF8E
:104AA00002B0704782B001900091019B4FF6FF72F7
:104AB0009A8200BF02B0704700B585B001900091A6
:104AC000009B06330393039B1A88019B1B899A4220
